Component: ARM Compiler 5.06 update 6 (build 750) Tool: armlink [4d35ed]

==============================================================================

Section Cross References

    main.o(i.main) refers to ctrl.o(i.gvCtrl_RequestSet) for gvCtrl_RequestSet
    main.o(i.main) refers to ctrl.o(i.gvCtrl_MainFun) for gvCtrl_MainFun
    main.o(i.main) refers to task_sys.o(i.gvTask_System) for gvTask_System
    main.o(i.main) refers to task_ethercat.o(i.gvTask_EthercatProcess) for gvTask_EthercatProcess
    common.o(i.gvCF_DWord2Ascii) refers to common.o(i.gvCF_Word2Ascii) for gvCF_Word2Ascii
    common.o(i.gwCF_CRC16Cal) refers to common.o(.data) for .data
    ctrl.o(i.geCtrl_PreRequestRtn) refers to ctrl.o(.data) for .data
    ctrl.o(i.gvCtrl_MainFun) refers to task_sys.o(i.geTask_SysStatusRtn) for geTask_SysStatusRtn
    ctrl.o(i.gvCtrl_MainFun) refers to task_timer.o(i.geTask_TimerStatusRtn) for geTask_TimerStatusRtn
    ctrl.o(i.gvCtrl_MainFun) refers to task_ethercat.o(i.geTask_EthercatStatusRtn) for geTask_EthercatStatusRtn
    ctrl.o(i.gvCtrl_MainFun) refers to ctrl.o(.data) for .data
    ctrl.o(i.gvCtrl_RequestSet) refers to ctrl.o(.data) for .data
    ctrl.o(.data) refers to ctrl_sys.o(i.gvCtrl_SysMain) for gvCtrl_SysMain
    ctrl.o(.data) refers to ctrl_ethercat.o(i.gvCtrl_EthercatMain) for gvCtrl_EthercatMain
    ctrl_ethercat.o(i.gvCtrl_EthercatMain) refers to ctrl.o(i.gvCtrl_RequestSet) for gvCtrl_RequestSet
    ctrl_ethercat.o(i.gvCtrl_EthercatMain) refers to ctrl_ethercat.o(.data) for .data
    ctrl_ethercat.o(i.gvCtrl_EthercatMain) refers to ctrl.o(.data) for geEscStatus
    ctrl_ethercat.o(i.lvCtrl_EscBusInit) refers to task_ethercat.o(i.gvTask_EthercatBusInit) for gvTask_EthercatBusInit
==============================================================================

Removing Unused input sections from the image.

    Removing main.o(.rev16_text), (4 bytes).
    Removing main.o(.revsh_text), (4 bytes).
    Removing main.o(.rrx_text), (6 bytes).
    Removing common.o(i.gdwCF_CheckSum), (30 bytes).
    Removing common.o(i.gpvCF_Memcpy), (22 bytes).
    Removing common.o(i.gpvCF_Memset), (18 bytes).
    Removing common.o(i.gvCF_Ascii2Hex), (138 bytes).
    Removing common.o(i.gvCF_DWord2Ascii), (24 bytes).
    Removing common.o(i.gvCF_Hex2Ascii), (74 bytes).
    Removing common.o(i.gvCF_Word2Ascii), (74 bytes).
    Removing common.o(i.gwCF_CRC16Cal), (64 bytes).
    Removing common.o(.data), (512 bytes).
    Removing ctrl.o(.rev16_text), (4 bytes).
    Removing ctrl.o(.revsh_text), (4 bytes).
    Removing ctrl.o(.rrx_text), (6 bytes).
    Removing ctrl.o(i.geCtrl_PreRequestRtn), (12 bytes).
    Removing ctrl_ethercat.o(.rev16_text), (4 bytes).
    Removing ctrl_ethercat.o(.revsh_text), (4 bytes).
==============================================================================

Image Symbol Table

    Local Symbols

    Symbol Name                              Value     Ov Type        Size  Object(Section)

    ../clib/../cmprslib/zerorunl2.c          0x00000000   Number         0  __dczerorl2.o ABSOLUTE
    ../clib/microlib/division.c              0x00000000   Number         0  uldiv.o ABSOLUTE
    ../clib/microlib/division.c              0x00000000   Number         0  uidiv.o ABSOLUTE
    ../clib/microlib/init/entry.s            0x00000000   Number         0  entry8a.o ABSOLUTE
    ../clib/microlib/init/entry.s            0x00000000   Number         0  entry7a.o ABSOLUTE
    ../clib/microlib/init/entry.s            0x00000000   Number         0  entry9b.o ABSOLUTE
    ../clib/microlib/init/entry.s            0x00000000   Number         0  entry5.o ABSOLUTE
    ../clib/microlib/init/entry.s            0x00000000   Number         0  entry10b.o ABSOLUTE
    ../clib/microlib/init/entry.s            0x00000000   Number         0  entry10a.o ABSOLUTE
    ../clib/microlib/init/entry.s            0x00000000   Number         0  entry11a.o ABSOLUTE
    ../clib/microlib/init/entry.s            0x00000000   Number         0  entry9a.o ABSOLUTE
    ../clib/microlib/init/entry.s            0x00000000   Number         0  entry11b.o ABSOLUTE
    ../clib/microlib/init/entry.s            0x00000000   Number         0  entry8b.o ABSOLUTE
    ../clib/microlib/init/entry.s            0x00000000   Number         0  entry2.o ABSOLUTE
    ../clib/microlib/init/entry.s            0x00000000   Number         0  entry.o ABSOLUTE
    ../clib/microlib/init/entry.s            0x00000000   Number         0  entry7b.o ABSOLUTE
    ../clib/microlib/longlong.c              0x00000000   Number         0  llshl.o ABSOLUTE
    ../clib/microlib/longlong.c              0x00000000   Number         0  llushr.o ABSOLUTE
    ../clib/microlib/longlong.c              0x00000000   Number         0  llsshr.o ABSOLUTE
    ../clib/microlib/malloc/malloc.c         0x00000000   Number         0  mallocra.o ABSOLUTE
    ../clib/microlib/malloc/malloc.c         0x00000000   Number         0  malloca.o ABSOLUTE
    ../clib/microlib/malloc/malloc.c         0x00000000   Number         0  mallocr.o ABSOLUTE
    ../clib/microlib/malloc/malloc.c         0x00000000   Number         0  malloc.o ABSOLUTE
    ../clib/microlib/malloc/mvars.c          0x00000000   Number         0  mvars.o ABSOLUTE
    ../clib/microlib/printf/printf.c         0x00000000   Number         0  printf8.o ABSOLUTE
    ../clib/microlib/printf/printf.c         0x00000000   Number         0  printf7.o ABSOLUTE
    ../clib/microlib/printf/printf.c         0x00000000   Number         0  printf6.o ABSOLUTE
    ../clib/microlib/printf/printf.c         0x00000000   Number         0  printfa.o ABSOLUTE
    ../clib/microlib/printf/printf.c         0x00000000   Number         0  printf5.o ABSOLUTE
    ../clib/microlib/printf/printf.c         0x00000000   Number         0  printf2.o ABSOLUTE
    ../clib/microlib/printf/printf.c         0x00000000   Number         0  printf3.o ABSOLUTE
    ../clib/microlib/printf/printf.c         0x00000000   Number         0  printf4.o ABSOLUTE
    ../clib/microlib/printf/printf.c         0x00000000   Number         0  printfb.o ABSOLUTE
    ../clib/microlib/printf/printf.c         0x00000000   Number         0  printf0.o ABSOLUTE
    ../clib/microlib/printf/printf.c         0x00000000   Number         0  printf1.o ABSOLUTE
    ../clib/microlib/printf/stubs.s          0x00000000   Number         0  stubs.o ABSOLUTE
    ../clib/microlib/stdio/streams.c         0x00000000   Number         0  stdout.o ABSOLUTE
    ../clib/microlib/string/memcpy.c         0x00000000   Number         0  memcpyb.o ABSOLUTE
    ../clib/microlib/string/memcpy.c         0x00000000   Number         0  memcpya.o ABSOLUTE
    ../clib/microlib/string/strlen.c         0x00000000   Number         0  strlen.o ABSOLUTE
    ../clib/microlib/stubs.s                 0x00000000   Number         0  iusefp.o ABSOLUTE
    ../fplib/microlib/fpadd.c                0x00000000   Number         0  dadd.o ABSOLUTE
    ../fplib/microlib/fpdiv.c                0x00000000   Number         0  ddiv.o ABSOLUTE
    ../fplib/microlib/fpepilogue.c           0x00000000   Number         0  depilogue.o ABSOLUTE
    ../fplib/microlib/fpepilogue.c           0x00000000   Number         0  fepilogue.o ABSOLUTE
    ../fplib/microlib/fpfix.c                0x00000000   Number         0  dfixul.o ABSOLUTE
    ../fplib/microlib/fpfix.c                0x00000000   Number         0  ffixui.o ABSOLUTE
    ../fplib/microlib/fpflt.c                0x00000000   Number         0  ffltui.o ABSOLUTE
    ../fplib/microlib/fpmul.c                0x00000000   Number         0  dmul.o ABSOLUTE
    ../fplib/microlib/fpscalb.c              0x00000000   Number         0  fscalb.o ABSOLUTE
    ..\..\EtherCatLib\coeappl.c              0x00000000   Number         0  coeappl.o ABSOLUTE
    ..\..\EtherCatLib\ecatappl.c             0x00000000   Number         0  ecatappl.o ABSOLUTE
    ..\..\EtherCatLib\ecatcoe.c              0x00000000   Number         0  ecatcoe.o ABSOLUTE
    ..\..\EtherCatLib\ecatslv.c              0x00000000   Number         0  ecatslv.o ABSOLUTE
    ..\..\EtherCatLib\mailbox.c              0x00000000   Number         0  mailbox.o ABSOLUTE
    ..\..\EtherCatLib\objdef.c               0x00000000   Number         0  objdef.o ABSOLUTE
    ..\..\EtherCatLib\sdoserv.c              0x00000000   Number         0  sdoserv.o ABSOLUTE
    ..\..\STM32F4xx_DSP_StdPeriph_Lib_V1.8.0\Libraries\CMSIS\Device\ST\STM32F4xx\Source\Templates\arm\startup_stm32f40_41xxx.s 0x00000000   Number         0  startup_stm32f40_41xxx.o ABSOLUTE
    ..\..\STM32F4xx_DSP_StdPeriph_Lib_V1.8.0\Libraries\STM32F4xx_StdPeriph_Driver\src\misc.c 0x00000000   Number         0  misc.o ABSOLUTE
    ..\..\STM32F4xx_DSP_StdPeriph_Lib_V1.8.0\Libraries\STM32F4xx_StdPeriph_Driver\src\stm32f4xx_exti.c 0x00000000   Number         0  stm32f4xx_exti.o ABSOLUTE
    ..\..\STM32F4xx_DSP_StdPeriph_Lib_V1.8.0\Libraries\STM32F4xx_StdPeriph_Driver\src\stm32f4xx_gpio.c 0x00000000   Number         0  stm32f4xx_gpio.o ABSOLUTE
    ..\..\STM32F4xx_DSP_StdPeriph_Lib_V1.8.0\Libraries\STM32F4xx_StdPeriph_Driver\src\stm32f4xx_rcc.c 0x00000000   Number         0  stm32f4xx_rcc.o ABSOLUTE
    ..\..\STM32F4xx_DSP_StdPeriph_Lib_V1.8.0\Libraries\STM32F4xx_StdPeriph_Driver\src\stm32f4xx_spi.c 0x00000000   Number         0  stm32f4xx_spi.o ABSOLUTE
    ..\..\STM32F4xx_DSP_StdPeriph_Lib_V1.8.0\Libraries\STM32F4xx_StdPeriph_Driver\src\stm32f4xx_syscfg.c 0x00000000   Number         0  stm32f4xx_syscfg.o ABSOLUTE
    ..\..\STM32F4xx_DSP_StdPeriph_Lib_V1.8.0\Libraries\STM32F4xx_StdPeriph_Driver\src\stm32f4xx_tim.c 0x00000000   Number         0  stm32f4xx_tim.o ABSOLUTE
    ..\..\STM32F4xx_DSP_StdPeriph_Lib_V1.8.0\Libraries\STM32F4xx_StdPeriph_Driver\src\stm32f4xx_usart.c 0x00000000   Number         0  stm32f4xx_usart.o ABSOLUTE
    ..\..\SourceCodes\Common.c               0x00000000   Number         0  common.o ABSOLUTE
    ..\..\SourceCodes\Ctrl.c                 0x00000000   Number         0  ctrl.o ABSOLUTE
    ..\..\SourceCodes\Ctrl_Ethercat.c        0x00000000   Number         0  ctrl_ethercat.o ABSOLUTE
    ..\..\SourceCodes\Ctrl_Sys.c             0x00000000   Number         0  ctrl_sys.o ABSOLUTE
    ..\..\SourceCodes\Ctrl_UCom.c            0x00000000   Number         0  ctrl_ucom.o ABSOLUTE
    ..\..\SourceCodes\IF_ADDAModule.c        0x00000000   Number         0  if_addamodule.o ABSOLUTE
    ..\..\SourceCodes\IF_EtherCat.c          0x00000000   Number         0  if_ethercat.o ABSOLUTE
    ..\..\SourceCodes\IF_SPI.c               0x00000000   Number         0  if_spi.o ABSOLUTE
    ..\..\SourceCodes\IF_System.c            0x00000000   Number         0  if_system.o ABSOLUTE
    ..\..\SourceCodes\IF_Timer.c             0x00000000   Number         0  if_timer.o ABSOLUTE
    ..\..\SourceCodes\IF_UCom.c              0x00000000   Number         0  if_ucom.o ABSOLUTE
    ..\..\SourceCodes\Task_EtherCat.c        0x00000000   Number         0  task_ethercat.o ABSOLUTE
    ..\..\SourceCodes\Task_Sys.c             0x00000000   Number         0  task_sys.o ABSOLUTE
    ..\..\SourceCodes\Task_Timer.c           0x00000000   Number         0  task_timer.o ABSOLUTE
    ..\..\SourceCodes\Task_UCom.c            0x00000000   Number         0  task_ucom.o ABSOLUTE
    ..\..\SourceCodes\main.c                 0x00000000   Number         0  main.o ABSOLUTE
    ..\\..\\EtherCatLib\\coeappl.c           0x00000000   Number         0  coeappl.o ABSOLUTE
    ..\\..\\EtherCatLib\\ecatappl.c          0x00000000   Number         0  ecatappl.o ABSOLUTE
    ..\\..\\EtherCatLib\\ecatslv.c           0x00000000   Number         0  ecatslv.o ABSOLUTE
    ..\\..\\EtherCatLib\\mailbox.c           0x00000000   Number         0  mailbox.o ABSOLUTE
    ..\\..\\EtherCatLib\\objdef.c            0x00000000   Number         0  objdef.o ABSOLUTE
    ..\\..\\EtherCatLib\\sdoserv.c           0x00000000   Number         0  sdoserv.o ABSOLUTE
    ..\\..\\STM32F4xx_DSP_StdPeriph_Lib_V1.8.0\\Libraries\\STM32F4xx_StdPeriph_Driver\\src\\misc.c 0x00000000   Number         0  misc.o ABSOLUTE
    ..\\..\\STM32F4xx_DSP_StdPeriph_Lib_V1.8.0\\Libraries\\STM32F4xx_StdPeriph_Driver\\src\\stm32f4xx_exti.c 0x00000000   Number         0  stm32f4xx_exti.o ABSOLUTE
    ..\\..\\STM32F4xx_DSP_StdPeriph_Lib_V1.8.0\\Libraries\\STM32F4xx_StdPeriph_Driver\\src\\stm32f4xx_gpio.c 0x00000000   Number         0  stm32f4xx_gpio.o ABSOLUTE
    ..\\..\\STM32F4xx_DSP_StdPeriph_Lib_V1.8.0\\Libraries\\STM32F4xx_StdPeriph_Driver\\src\\stm32f4xx_rcc.c 0x00000000   Number         0  stm32f4xx_rcc.o ABSOLUTE
    ..\\..\\STM32F4xx_DSP_StdPeriph_Lib_V1.8.0\\Libraries\\STM32F4xx_StdPeriph_Driver\\src\\stm32f4xx_spi.c 0x00000000   Number         0  stm32f4xx_spi.o ABSOLUTE
    ..\\..\\STM32F4xx_DSP_StdPeriph_Lib_V1.8.0\\Libraries\\STM32F4xx_StdPeriph_Driver\\src\\stm32f4xx_syscfg.c 0x00000000   Number         0  stm32f4xx_syscfg.o ABSOLUTE
    ..\\..\\STM32F4xx_DSP_StdPeriph_Lib_V1.8.0\\Libraries\\STM32F4xx_StdPeriph_Driver\\src\\stm32f4xx_tim.c 0x00000000   Number         0  stm32f4xx_tim.o ABSOLUTE
    ..\\..\\STM32F4xx_DSP_StdPeriph_Lib_V1.8.0\\Libraries\\STM32F4xx_StdPeriph_Driver\\src\\stm32f4xx_usart.c 0x00000000   Number         0  stm32f4xx_usart.o ABSOLUTE
    ..\\..\\SourceCodes\\Ctrl.c              0x00000000   Number         0  ctrl.o ABSOLUTE
    ..\\..\\SourceCodes\\Ctrl_Ethercat.c     0x00000000   Number         0  ctrl_ethercat.o ABSOLUTE
    ..\\..\\SourceCodes\\Ctrl_Sys.c          0x00000000   Number         0  ctrl_sys.o ABSOLUTE
    ..\\..\\SourceCodes\\Ctrl_UCom.c         0x00000000   Number         0  ctrl_ucom.o ABSOLUTE
    ..\\..\\SourceCodes\\IF_ADDAModule.c     0x00000000   Number         0  if_addamodule.o ABSOLUTE
    ..\\..\\SourceCodes\\IF_EtherCat.c       0x00000000   Number         0  if_ethercat.o ABSOLUTE
    ..\\..\\SourceCodes\\IF_SPI.c            0x00000000   Number         0  if_spi.o ABSOLUTE
    ..\\..\\SourceCodes\\IF_System.c         0x00000000   Number         0  if_system.o ABSOLUTE
    ..\\..\\SourceCodes\\IF_Timer.c          0x00000000   Number         0  if_timer.o ABSOLUTE
    ..\\..\\SourceCodes\\IF_UCom.c           0x00000000   Number         0  if_ucom.o ABSOLUTE
    ..\\..\\SourceCodes\\Task_EtherCat.c     0x00000000   Number         0  task_ethercat.o ABSOLUTE
    ..\\..\\SourceCodes\\Task_Sys.c          0x00000000   Number         0  task_sys.o ABSOLUTE
    ..\\..\\SourceCodes\\Task_Timer.c        0x00000000   Number         0  task_timer.o ABSOLUTE
    ..\\..\\SourceCodes\\Task_UCom.c         0x00000000   Number         0  task_ucom.o ABSOLUTE
    ..\\..\\SourceCodes\\main.c              0x00000000   Number         0  main.o ABSOLUTE
    cdrcmple.s                               0x00000000   Number         0  cdrcmple.o ABSOLUTE
    dc.s                                     0x00000000   Number         0  dc.o ABSOLUTE
    handlers.s                               0x00000000   Number         0  handlers.o ABSOLUTE
    init.s                                   0x00000000   Number         0  init.o ABSOLUTE
    stm32f4xx_it.c                           0x00000000   Number         0  stm32f4xx_it.o ABSOLUTE
    stm32f4xx_it.c                           0x00000000   Number         0  stm32f4xx_it.o ABSOLUTE
    system_stm32f4xx.c                       0x00000000   Number         0  system_stm32f4xx.o ABSOLUTE
    system_stm32f4xx.c                       0x00000000   Number         0  system_stm32f4xx.o ABSOLUTE
    RESET                                    0x08000000   Section      392  startup_stm32f40_41xxx.o(RESET)
    .ARM.Collect$$$$00000000                 0x08000188   Section        0  entry.o(.ARM.Collect$$$$00000000)
    .ARM.Collect$$$$00000001                 0x08000188   Section        4  entry2.o(.ARM.Collect$$$$00000001)
    .ARM.Collect$$$$00000004                 0x0800018c   Section        4  entry5.o(.ARM.Collect$$$$00000004)
    .ARM.Collect$$$$00000008                 0x08000190   Section        0  entry7b.o(.ARM.Collect$$$$00000008)
    .ARM.Collect$$$$0000000A                 0x08000190   Section        0  entry8b.o(.ARM.Collect$$$$0000000A)
    .ARM.Collect$$$$0000000B                 0x08000190   Section        8  entry9a.o(.ARM.Collect$$$$0000000B)
    .ARM.Collect$$$$0000000D                 0x08000198   Section        0  entry10a.o(.ARM.Collect$$$$0000000D)
    .ARM.Collect$$$$0000000F                 0x08000198   Section        0  entry11a.o(.ARM.Collect$$$$0000000F)
    .ARM.Collect$$$$00002712                 0x08000198   Section        4  entry2.o(.ARM.Collect$$$$00002712)
    __lit__00000000                          0x08000198   Data           4  entry2.o(.ARM.Collect$$$$00002712)
    .emb_text                                0x0800019c   Section       28  stm32f4xx_it.o(.emb_text)
    .text                                    0x080001b8   Section       44  startup_stm32f40_41xxx.o(.text)
    .text                                    0x080001e4   Section        0  memcpya.o(.text)
    .text                                    0x08000208   Section        0  strlen.o(.text)
    .text                                    0x08000216   Section        0  fscalb.o(.text)
    .text                                    0x0800022e   Section        0  ffltui.o(.text)
    .text                                    0x08000238   Section        0  ffixui.o(.text)
    .text                                    0x08000260   Section        0  uldiv.o(.text)
    .text                                    0x080002c2   Section        0  iusefp.o(.text)
    .text                                    0x080002c2   Section        0  fepilogue.o(.text)
    .text                                    0x08000330   Section       36  init.o(.text)
    .text                                    0x08000354   Section        0  llshl.o(.text)
    .text                                    0x08000372   Section        0  llushr.o(.text)
    .text                                    0x08000392   Section        0  __dczerorl2.o(.text)
    i.AL_ControlInd                          0x080003e8   Section        0  ecatslv.o(i.AL_ControlInd)
    i.AL_ControlRes                          0x08000808   Section        0  ecatslv.o(i.AL_ControlRes)
    i.APPL_AckErrorInd                       0x0800096c   Section        0  task_ethercat.o(i.APPL_AckErrorInd)
    i.APPL_GenerateMapping                   0x08000970   Section        0  task_ethercat.o(i.APPL_GenerateMapping)
    i.APPL_InputMapping                      0x08000a68   Section        0  task_ethercat.o(i.APPL_InputMapping)
    i.APPL_OutputMapping                     0x08000a88   Section        0  task_ethercat.o(i.APPL_OutputMapping)
    i.APPL_StartInputHandler                 0x08000ab0   Section        0  task_ethercat.o(i.APPL_StartInputHandler)
    i.APPL_StartMailboxHandler               0x08000ab4   Section        0  task_ethercat.o(i.APPL_StartMailboxHandler)
    i.APPL_StartOutputHandler                0x08000ab8   Section        0  task_ethercat.o(i.APPL_StartOutputHandler)
    i.APPL_StopInputHandler                  0x08000abc   Section        0  task_ethercat.o(i.APPL_StopInputHandler)
    i.APPL_StopMailboxHandler                0x08000ac0   Section        0  task_ethercat.o(i.APPL_StopMailboxHandler)
    i.APPL_StopOutputHandler                 0x08000ac4   Section        0  task_ethercat.o(i.APPL_StopOutputHandler)
    i.AddObjectsToObjDictionary              0x08000ac8   Section        0  coeappl.o(i.AddObjectsToObjDictionary)
    i.BusFault_Handler                       0x08000b50   Section        0  stm32f4xx_it.o(i.BusFault_Handler)
    i.COE_ClearObjDictionary                 0x08000b54   Section        0  coeappl.o(i.COE_ClearObjDictionary)
    i.COE_ContinueInd                        0x08000bb0   Section        0  ecatcoe.o(i.COE_ContinueInd)
    i.COE_GetObjectDictionary                0x08000bf8   Section        0  coeappl.o(i.COE_GetObjectDictionary)
    i.COE_Init                               0x08000c04   Section        0  ecatcoe.o(i.COE_Init)
    i.COE_Main                               0x08000c18   Section        0  coeappl.o(i.COE_Main)
    i.COE_ObjInit                            0x08000cd8   Section        0  coeappl.o(i.COE_ObjInit)
    i.COE_ServiceInd                         0x08000d90   Section        0  ecatcoe.o(i.COE_ServiceInd)
    i.CheckIfEcatError                       0x08000db8   Section        0  ecatslv.o(i.CheckIfEcatError)
    i.CheckSmSettings                        0x08000e08   Section        0  ecatslv.o(i.CheckSmSettings)
    i.DebugMon_Handler                       0x08000ff4   Section        0  stm32f4xx_it.o(i.DebugMon_Handler)
    i.DisableSyncManChannel                  0x08000ff6   Section        0  ecatslv.o(i.DisableSyncManChannel)
    i.ECAT_Init                              0x08001028   Section        0  ecatslv.o(i.ECAT_Init)
    i.ECAT_Main                              0x08001108   Section        0  ecatslv.o(i.ECAT_Main)
    i.EXTI3_IRQHandler                       0x08001234   Section        0  stm32f4xx_it.o(i.EXTI3_IRQHandler)
    i.EXTI_ClearITPendingBit                 0x08001238   Section        0  stm32f4xx_exti.o(i.EXTI_ClearITPendingBit)
    i.EXTI_GetITStatus                       0x08001244   Section        0  stm32f4xx_exti.o(i.EXTI_GetITStatus)
    i.EXTI_Init                              0x0800125c   Section        0  stm32f4xx_exti.o(i.EXTI_Init)
    i.EnableSyncManChannel                   0x080012f0   Section        0  ecatslv.o(i.EnableSyncManChannel)
    i.GPIO_Init                              0x08001320   Section        0  stm32f4xx_gpio.o(i.GPIO_Init)
    i.GPIO_PinAFConfig                       0x080013b0   Section        0  stm32f4xx_gpio.o(i.GPIO_PinAFConfig)
    i.GetOutOfMbxQueue                       0x080013f6   Section        0  mailbox.o(i.GetOutOfMbxQueue)
    i.GetSyncMan                             0x0800141c   Section        0  ecatslv.o(i.GetSyncMan)
    i.HW_EscRead                             0x08001438   Section        0  if_ethercat.o(i.HW_EscRead)
    i.HW_EscReadIsr                          0x080014a8   Section        0  if_ethercat.o(i.HW_EscReadIsr)
    i.HW_EscWrite                            0x08001504   Section        0  if_ethercat.o(i.HW_EscWrite)
    i.HW_EscWriteIsr                         0x08001568   Section        0  if_ethercat.o(i.HW_EscWriteIsr)
    i.HW_GetALEventRegister                  0x080015b8   Section        0  if_ethercat.o(i.HW_GetALEventRegister)
    i.HW_GetALEventRegister_Isr              0x08001618   Section        0  if_ethercat.o(i.HW_GetALEventRegister_Isr)
    i.HandleBusCycleCalculation              0x08001670   Section        0  ecatappl.o(i.HandleBusCycleCalculation)
    i.Hard_Fault_Handler                     0x080016d4   Section        0  stm32f4xx_it.o(i.Hard_Fault_Handler)
    __tagsym$$used                           0x080016d5   Number         0  stm32f4xx_it.o(i.Hard_Fault_Handler)
    i.MBX_CheckAndCopyMailbox                0x0800179c   Section        0  mailbox.o(i.MBX_CheckAndCopyMailbox)
    i.MBX_CopyToSendMailbox                  0x08001870   Section        0  mailbox.o(i.MBX_CopyToSendMailbox)
    i.MBX_Init                               0x08001930   Section        0  mailbox.o(i.MBX_Init)
    i.MBX_MailboxReadInd                     0x080019a0   Section        0  mailbox.o(i.MBX_MailboxReadInd)
    i.MBX_MailboxRepeatReq                   0x08001a04   Section        0  mailbox.o(i.MBX_MailboxRepeatReq)
    i.MBX_MailboxSendReq                     0x08001a44   Section        0  mailbox.o(i.MBX_MailboxSendReq)
    i.MBX_MailboxWriteInd                    0x08001adc   Section        0  mailbox.o(i.MBX_MailboxWriteInd)
    i.MBX_Main                               0x08001b68   Section        0  mailbox.o(i.MBX_Main)
    i.MBX_StartMailboxHandler                0x08001be0   Section        0  mailbox.o(i.MBX_StartMailboxHandler)
    i.MBX_StopMailboxHandler                 0x08001c54   Section        0  mailbox.o(i.MBX_StopMailboxHandler)
    i.MainInit                               0x08001d38   Section        0  ecatappl.o(i.MainInit)
    i.MainLoop                               0x08001d58   Section        0  ecatappl.o(i.MainLoop)
    i.MemManage_Handler                      0x08001e34   Section        0  stm32f4xx_it.o(i.MemManage_Handler)
    i.NMI_Handler                            0x08001e36   Section        0  stm32f4xx_it.o(i.NMI_Handler)
    i.NVIC_Init                              0x08001e38   Section        0  misc.o(i.NVIC_Init)
    i.NVIC_PriorityGroupConfig               0x08001eb0   Section        0  misc.o(i.NVIC_PriorityGroupConfig)
    i.OBJ_GetDesc                            0x08001ec4   Section        0  objdef.o(i.OBJ_GetDesc)
    i.OBJ_GetEntryDesc                       0x08001fec   Section        0  objdef.o(i.OBJ_GetEntryDesc)
    i.OBJ_GetEntryOffset                     0x0800200a   Section        0  objdef.o(i.OBJ_GetEntryOffset)
    i.OBJ_GetNoOfObjects                     0x080020ec   Section        0  objdef.o(i.OBJ_GetNoOfObjects)
    i.OBJ_GetObjDesc                         0x0800215e   Section        0  objdef.o(i.OBJ_GetObjDesc)
    i.OBJ_GetObjectHandle                    0x08002162   Section        0  objdef.o(i.OBJ_GetObjectHandle)
    i.OBJ_GetObjectLength                    0x0800217e   Section        0  objdef.o(i.OBJ_GetObjectLength)
    i.OBJ_GetObjectList                      0x08002228   Section        0  objdef.o(i.OBJ_GetObjectList)
    i.OBJ_Read                               0x080022e0   Section        0  objdef.o(i.OBJ_Read)
    i.OBJ_Write                              0x080026d8   Section        0  objdef.o(i.OBJ_Write)
    i.PDI_Isr                                0x08002b44   Section        0  ecatappl.o(i.PDI_Isr)
    i.PDO_InputMapping                       0x08002c50   Section        0  ecatappl.o(i.PDO_InputMapping)
    i.PendSV_Handler                         0x08002c78   Section        0  stm32f4xx_it.o(i.PendSV_Handler)
    i.RCC_APB1PeriphResetCmd                 0x08002c7c   Section        0  stm32f4xx_rcc.o(i.RCC_APB1PeriphResetCmd)
    i.RCC_APB2PeriphResetCmd                 0x08002c9c   Section        0  stm32f4xx_rcc.o(i.RCC_APB2PeriphResetCmd)
    i.SDOS_SdoInd                            0x08002cbc   Section        0  sdoserv.o(i.SDOS_SdoInd)
    i.SDOS_SdoInfoInd                        0x080030fc   Section        0  sdoserv.o(i.SDOS_SdoInfoInd)
    i.SDOS_SdoRes                            0x08003388   Section        0  sdoserv.o(i.SDOS_SdoRes)
    i.SPI_Cmd                                0x0800342c   Section        0  stm32f4xx_spi.o(i.SPI_Cmd)
    i.SPI_I2S_GetFlagStatus                  0x08003444   Section        0  stm32f4xx_spi.o(i.SPI_I2S_GetFlagStatus)
    i.SPI_I2S_ReceiveData                    0x08003456   Section        0  stm32f4xx_spi.o(i.SPI_I2S_ReceiveData)
    i.SPI_I2S_SendData                       0x0800345c   Section        0  stm32f4xx_spi.o(i.SPI_I2S_SendData)
    i.SPI_Init                               0x08003460   Section        0  stm32f4xx_spi.o(i.SPI_Init)
    i.SVC_Handler                            0x0800349c   Section        0  stm32f4xx_it.o(i.SVC_Handler)
    i.SYSCFG_EXTILineConfig                  0x080034a0   Section        0  stm32f4xx_syscfg.o(i.SYSCFG_EXTILineConfig)
    i.SdoDownloadSegmentInd                  0x080034e0   Section        0  sdoserv.o(i.SdoDownloadSegmentInd)
    SdoDownloadSegmentInd                    0x080034e1   Thumb Code   434  sdoserv.o(i.SdoDownloadSegmentInd)
    i.SdoRes                                 0x0800369c   Section        0  sdoserv.o(i.SdoRes)
    i.SetALStatus                            0x0800375c   Section        0  ecatslv.o(i.SetALStatus)
    i.StartInputHandler                      0x0800379c   Section        0  ecatslv.o(i.StartInputHandler)
    i.StopInputHandler                       0x08003a18   Section        0  ecatslv.o(i.StopInputHandler)
    i.SysTick_CLKSourceConfig                0x08003a74   Section        0  misc.o(i.SysTick_CLKSourceConfig)
    i.SysTick_Handler                        0x08003a9c   Section        0  stm32f4xx_it.o(i.SysTick_Handler)
    i.SystemCoreClockUpdate                  0x08003aa0   Section        0  system_stm32f4xx.o(i.SystemCoreClockUpdate)
    i.SystemInit                             0x08003b24   Section        0  system_stm32f4xx.o(i.SystemInit)
    i.TIM5_IRQHandler                        0x08003c40   Section        0  stm32f4xx_it.o(i.TIM5_IRQHandler)
    i.TIM6_DAC_IRQHandler                    0x08003c44   Section        0  stm32f4xx_it.o(i.TIM6_DAC_IRQHandler)
    i.TIM7_IRQHandler                        0x08003c48   Section        0  stm32f4xx_it.o(i.TIM7_IRQHandler)
    i.TIM_ClearITPendingBit                  0x08003c4c   Section        0  stm32f4xx_tim.o(i.TIM_ClearITPendingBit)
    i.TIM_Cmd                                0x08003c52   Section        0  stm32f4xx_tim.o(i.TIM_Cmd)
    i.TIM_DeInit                             0x08003c6c   Section        0  stm32f4xx_tim.o(i.TIM_DeInit)
    i.TIM_GetCapture4                        0x08003dfc   Section        0  stm32f4xx_tim.o(i.TIM_GetCapture4)
    i.TIM_GetITStatus                        0x08003e02   Section        0  stm32f4xx_tim.o(i.TIM_GetITStatus)
    i.TIM_ITConfig                           0x08003e24   Section        0  stm32f4xx_tim.o(i.TIM_ITConfig)
    i.TIM_TimeBaseInit                       0x08003e38   Section        0  stm32f4xx_tim.o(i.TIM_TimeBaseInit)
    i.USART_GetFlagStatus                    0x08003ebc   Section        0  stm32f4xx_usart.o(i.USART_GetFlagStatus)
    i.USART_SendData                         0x08003ed6   Section        0  stm32f4xx_usart.o(i.USART_SendData)
    i.UsageFault_Handler                     0x08003ede   Section        0  stm32f4xx_it.o(i.UsageFault_Handler)
    i.__0printf$5                            0x08003ee0   Section        0  printf5.o(i.__0printf$5)
    i.__ARM_common_memclr4_10                0x08003f00   Section        0  mailbox.o(i.__ARM_common_memclr4_10)
    i.__ARM_common_memclr4_8                 0x08003f0a   Section        0  task_sys.o(i.__ARM_common_memclr4_8)
    i.__scatterload_copy                     0x08003f12   Section       14  handlers.o(i.__scatterload_copy)
    i.__scatterload_null                     0x08003f20   Section        2  handlers.o(i.__scatterload_null)
    i.__scatterload_zeroinit                 0x08003f22   Section       14  handlers.o(i.__scatterload_zeroinit)
    i._printf_core                           0x08003f30   Section        0  printf5.o(i._printf_core)
    _printf_core                             0x08003f31   Thumb Code   658  printf5.o(i._printf_core)
    i.cbAPPL_Application                     0x080041f0   Section        0  task_ethercat.o(i.cbAPPL_Application)
    i.fputc                                  0x08004260   Section        0  if_ucom.o(i.fputc)
    i.free                                   0x08004284   Section        0  malloc.o(i.free)
    i.gbIF_ADC_ChnSet                        0x080042d4   Section        0  if_addamodule.o(i.gbIF_ADC_ChnSet)
    i.gbIF_SPI_EtherCatReadWrite             0x0800433c   Section        0  if_spi.o(i.gbIF_SPI_EtherCatReadWrite)
    i.geTask_EthercatStatusRtn               0x08004370   Section        0  task_ethercat.o(i.geTask_EthercatStatusRtn)
    i.geTask_SysStatusRtn                    0x0800437c   Section        0  task_sys.o(i.geTask_SysStatusRtn)
    i.geTask_TimerStatusRtn                  0x08004388   Section        0  task_timer.o(i.geTask_TimerStatusRtn)
    i.gpbIF_ADC_ResultBuffRtn                0x08004394   Section        0  if_addamodule.o(i.gpbIF_ADC_ResultBuffRtn)
    i.gvCtrl_EthercatMain                    0x0800439c   Section        0  ctrl_ethercat.o(i.gvCtrl_EthercatMain)
    i.gvCtrl_MainFun                         0x080043c0   Section        0  ctrl.o(i.gvCtrl_MainFun)
    i.gvCtrl_RequestSet                      0x080043f4   Section        0  ctrl.o(i.gvCtrl_RequestSet)
    i.gvCtrl_SysMain                         0x08004404   Section        0  ctrl_sys.o(i.gvCtrl_SysMain)
    i.gvIF_AdcSpiCmd                         0x08004428   Section        0  if_spi.o(i.gvIF_AdcSpiCmd)
    i.gvIF_DAC_Output                        0x0800442c   Section        0  if_addamodule.o(i.gvIF_DAC_Output)
    i.gvIF_SPIAdcConfig                      0x0800449c   Section        0  if_spi.o(i.gvIF_SPIAdcConfig)
    i.gvIF_SPIDacConfig                      0x08004634   Section        0  if_spi.o(i.gvIF_SPIDacConfig)
    i.gvIF_SPIEtherCatConfig                 0x08004728   Section        0  if_spi.o(i.gvIF_SPIEtherCatConfig)
    i.gvIF_SysClockUpdate                    0x08004820   Section        0  if_system.o(i.gvIF_SysClockUpdate)
    i.gvIF_SysInterruptionConfig             0x08004910   Section        0  if_system.o(i.gvIF_SysInterruptionConfig)
    i.gvIF_Timer6Init                        0x08004958   Section        0  if_timer.o(i.gvIF_Timer6Init)
    i.gvIF_Timer7Init                        0x080049f8   Section        0  if_timer.o(i.gvIF_Timer7Init)
    i.gvIF_TimerBlockingDelayUs              0x08004a54   Section        0  if_timer.o(i.gvIF_TimerBlockingDelayUs)
    i.gvTask_EthercatBusInit                 0x08004a90   Section        0  task_ethercat.o(i.gvTask_EthercatBusInit)
    i.gvTask_EthercatCycleSet                0x08004adc   Section        0  task_ethercat.o(i.gvTask_EthercatCycleSet)
    i.gvTask_EthercatHWInit                  0x08004af0   Section        0  task_ethercat.o(i.gvTask_EthercatHWInit)
    i.gvTask_EthercatMainInit                0x08004b20   Section        0  task_ethercat.o(i.gvTask_EthercatMainInit)
    i.gvTask_EthercatProcess                 0x08004b34   Section        0  task_ethercat.o(i.gvTask_EthercatProcess)
    i.gvTask_SysAdcDacModuleInit             0x08004b44   Section        0  task_sys.o(i.gvTask_SysAdcDacModuleInit)
    i.gvTask_SysConfiguration                0x08004bd4   Section        0  task_sys.o(i.gvTask_SysConfiguration)
    i.gvTask_SysPorcess                      0x08004bf4   Section        0  task_sys.o(i.gvTask_SysPorcess)
    i.gvTask_System                          0x08004c28   Section        0  task_sys.o(i.gvTask_System)
    i.gvTask_TimerClockOutput                0x08004c38   Section        0  task_timer.o(i.gvTask_TimerClockOutput)
    i.gvTask_TimerInit                       0x08004c58   Section        0  task_timer.o(i.gvTask_TimerInit)
    i.gvcbIF_ADC_DrdyIRQHandler              0x08004c70   Section        0  if_addamodule.o(i.gvcbIF_ADC_DrdyIRQHandler)
    i.gvcbIF_SysOutputIOConfig               0x08004ca8   Section        0  if_system.o(i.gvcbIF_SysOutputIOConfig)
    i.gvcbIF_TIM5_IRQHandler                 0x08004cac   Section        0  if_system.o(i.gvcbIF_TIM5_IRQHandler)
    i.gvcbIF_Timer6_IRQHandler               0x08004d08   Section        0  if_timer.o(i.gvcbIF_Timer6_IRQHandler)
    i.gvcbIF_Timer7_IRQHandler               0x08004d60   Section        0  if_timer.o(i.gvcbIF_Timer7_IRQHandler)
    i.gwIF_SPI_AdcRead                       0x08004da8   Section        0  if_spi.o(i.gwIF_SPI_AdcRead)
    i.gyIF_SPI_DacWrite                      0x08004dec   Section        0  if_spi.o(i.gyIF_SPI_DacWrite)
    i.gyIF_TimerEventSet                     0x08004e24   Section        0  if_timer.o(i.gyIF_TimerEventSet)
    i.luTask_SysDacValueGet                  0x08004e4c   Section        0  task_sys.o(i.luTask_SysDacValueGet)
    luTask_SysDacValueGet                    0x08004e4d   Thumb Code    56  task_sys.o(i.luTask_SysDacValueGet)
    i.lvCtrl_EscBusInit                      0x08004e84   Section        0  ctrl_ethercat.o(i.lvCtrl_EscBusInit)
    lvCtrl_EscBusInit                        0x08004e85   Thumb Code    14  ctrl_ethercat.o(i.lvCtrl_EscBusInit)
    i.lvCtrl_EscBusInitEnd                   0x08004e9c   Section        0  ctrl_ethercat.o(i.lvCtrl_EscBusInitEnd)
    lvCtrl_EscBusInitEnd                     0x08004e9d   Thumb Code    26  ctrl_ethercat.o(i.lvCtrl_EscBusInitEnd)
    i.lvCtrl_EscBusResult                    0x08004ec4   Section        0  ctrl_ethercat.o(i.lvCtrl_EscBusResult)
    lvCtrl_EscBusResult                      0x08004ec5   Thumb Code    18  ctrl_ethercat.o(i.lvCtrl_EscBusResult)
    i.lvCtrl_EscBusStart                     0x08004ee4   Section        0  ctrl_ethercat.o(i.lvCtrl_EscBusStart)
    lvCtrl_EscBusStart                       0x08004ee5   Thumb Code    14  ctrl_ethercat.o(i.lvCtrl_EscBusStart)
    i.lvCtrl_EscHWInit                       0x08004efc   Section        0  ctrl_ethercat.o(i.lvCtrl_EscHWInit)
    lvCtrl_EscHWInit                         0x08004efd   Thumb Code    14  ctrl_ethercat.o(i.lvCtrl_EscHWInit)
    i.lvCtrl_EscHWInitEnd                    0x08004f14   Section        0  ctrl_ethercat.o(i.lvCtrl_EscHWInitEnd)
    lvCtrl_EscHWInitEnd                      0x08004f15   Thumb Code    18  ctrl_ethercat.o(i.lvCtrl_EscHWInitEnd)
    i.lvCtrl_EscMainInit                     0x08004f34   Section        0  ctrl_ethercat.o(i.lvCtrl_EscMainInit)
    lvCtrl_EscMainInit                       0x08004f35   Thumb Code    14  ctrl_ethercat.o(i.lvCtrl_EscMainInit)
    i.lvCtrl_EscMainInitEnd                  0x08004f4c   Section        0  ctrl_ethercat.o(i.lvCtrl_EscMainInitEnd)
    lvCtrl_EscMainInitEnd                    0x08004f4d   Thumb Code    18  ctrl_ethercat.o(i.lvCtrl_EscMainInitEnd)
    i.lvCtrl_SysInit                         0x08004f6c   Section        0  ctrl_sys.o(i.lvCtrl_SysInit)
    lvCtrl_SysInit                           0x08004f6d   Thumb Code    18  ctrl_sys.o(i.lvCtrl_SysInit)
    i.lvCtrl_SysInitEnd                      0x08004f88   Section        0  ctrl_sys.o(i.lvCtrl_SysInitEnd)
    lvCtrl_SysInitEnd                        0x08004f89   Thumb Code    18  ctrl_sys.o(i.lvCtrl_SysInitEnd)
    i.lvCtrl_SysModuleInit                   0x08004fa8   Section        0  ctrl_sys.o(i.lvCtrl_SysModuleInit)
    lvCtrl_SysModuleInit                     0x08004fa9   Thumb Code    14  ctrl_sys.o(i.lvCtrl_SysModuleInit)
    i.lvCtrl_SysModuleInitEnd                0x08004fc0   Section        0  ctrl_sys.o(i.lvCtrl_SysModuleInitEnd)
    lvCtrl_SysModuleInitEnd                  0x08004fc1   Thumb Code    18  ctrl_sys.o(i.lvCtrl_SysModuleInitEnd)
    i.lvCtrl_SysMontior                      0x08004fe0   Section        0  ctrl_sys.o(i.lvCtrl_SysMontior)
    lvCtrl_SysMontior                        0x08004fe1   Thumb Code    14  ctrl_sys.o(i.lvCtrl_SysMontior)
    i.lvCtrl_SysMontiorResult                0x08004ff8   Section        0  ctrl_sys.o(i.lvCtrl_SysMontiorResult)
    lvCtrl_SysMontiorResult                  0x08004ff9   Thumb Code    18  ctrl_sys.o(i.lvCtrl_SysMontiorResult)
    i.lvCtrl_SysTimerInit                    0x08005018   Section        0  ctrl_sys.o(i.lvCtrl_SysTimerInit)
    lvCtrl_SysTimerInit                      0x08005019   Thumb Code    14  ctrl_sys.o(i.lvCtrl_SysTimerInit)
    i.lvCtrl_SysTimerInitEnd                 0x08005030   Section        0  ctrl_sys.o(i.lvCtrl_SysTimerInitEnd)
    lvCtrl_SysTimerInitEnd                   0x08005031   Thumb Code    18  ctrl_sys.o(i.lvCtrl_SysTimerInitEnd)
    i.lvIF_SysOutputIOConfig                 0x08005050   Section        0  if_system.o(i.lvIF_SysOutputIOConfig)
    lvIF_SysOutputIOConfig                   0x08005051   Thumb Code   152  if_system.o(i.lvIF_SysOutputIOConfig)
    i.lvTask_ClockOutputByGpio               0x08005108   Section        0  task_timer.o(i.lvTask_ClockOutputByGpio)
    lvTask_ClockOutputByGpio                 0x08005109   Thumb Code    12  task_timer.o(i.lvTask_ClockOutputByGpio)
    i.lvTask_ESC_Monitor                     0x08005118   Section        0  task_ethercat.o(i.lvTask_ESC_Monitor)
    lvTask_ESC_Monitor                       0x08005119   Thumb Code    20  task_ethercat.o(i.lvTask_ESC_Monitor)
    i.lvTask_SysNormalWork                   0x08005130   Section        0  task_sys.o(i.lvTask_SysNormalWork)
    lvTask_SysNormalWork                     0x08005131   Thumb Code   378  task_sys.o(i.lvTask_SysNormalWork)
    i.lvTask_SysStateLed                     0x080052d4   Section        0  task_sys.o(i.lvTask_SysStateLed)
    lvTask_SysStateLed                       0x080052d5   Thumb Code    12  task_sys.o(i.lvTask_SysStateLed)
    i.main                                   0x080052e4   Section        0  main.o(i.main)
    i.malloc                                 0x080052f8   Section        0  malloc.o(i.malloc)
    .constdata                               0x08005364   Section      342  coeappl.o(.constdata)
    .constdata                               0x080054ba   Section      758  coeappl.o(.constdata)
    .constdata                               0x080057b0   Section      342  coeappl.o(.constdata)
    .constdata                               0x08005906   Section      757  coeappl.o(.constdata)
    .constdata                               0x08005bfc   Section       12  coeappl.o(.constdata)
    .constdata                               0x08005c08   Section       27  coeappl.o(.constdata)
    .constdata                               0x08005c24   Section       12  coeappl.o(.constdata)
    .constdata                               0x08005c30   Section       27  coeappl.o(.constdata)
    .constdata                               0x08005c4c   Section      342  coeappl.o(.constdata)
    .constdata                               0x08005da2   Section      690  coeappl.o(.constdata)
    .constdata                               0x08006054   Section      342  coeappl.o(.constdata)
    .constdata                               0x080061aa   Section      747  coeappl.o(.constdata)
    .constdata                               0x08006496   Section        6  coeappl.o(.constdata)
    .constdata                               0x0800649c   Section       12  coeappl.o(.constdata)
    .constdata                               0x080064a8   Section        6  coeappl.o(.constdata)
    .constdata                               0x080064ae   Section       15  coeappl.o(.constdata)
    .constdata                               0x080064be   Section        6  coeappl.o(.constdata)
    .constdata                               0x080064c4   Section       12  coeappl.o(.constdata)
    .constdata                               0x080064d0   Section        6  coeappl.o(.constdata)
    .constdata                               0x080064d6   Section       17  coeappl.o(.constdata)
    .constdata                               0x080064e8   Section        6  coeappl.o(.constdata)
    .constdata                               0x080064ee   Section       17  coeappl.o(.constdata)
    .constdata                               0x08006500   Section       30  coeappl.o(.constdata)
    .constdata                               0x0800651e   Section       57  coeappl.o(.constdata)
    .constdata                               0x08006558   Section       18  coeappl.o(.constdata)
    .constdata                               0x0800656a   Section       63  coeappl.o(.constdata)
    .constdata                               0x080065aa   Section       12  coeappl.o(.constdata)
    .constdata                               0x080065b6   Section       18  coeappl.o(.constdata)
    .constdata                               0x080065c8   Section      198  coeappl.o(.constdata)
    .constdata                               0x0800668e   Section      256  coeappl.o(.constdata)
    .constdata                               0x0800678e   Section      255  coeappl.o(.constdata)
    .constdata                               0x0800688e   Section       32  objdef.o(.constdata)
    .constdata                               0x080068b0   Section      120  sdoserv.o(.constdata)
    .data                                    0x20000000   Section       16  ctrl.o(.data)
    leRequest                                0x20000000   Data           1  ctrl.o(.data)
    lePreRequest                             0x20000004   Data           1  ctrl.o(.data)
    CtrlFun                                  0x20000008   Data           8  ctrl.o(.data)
    .data                                    0x20000010   Section        4  ctrl_ethercat.o(.data)
    lpvCtrl_StepNext                         0x20000010   Data           4  ctrl_ethercat.o(.data)
    .data                                    0x20000014   Section        4  ctrl_sys.o(.data)
    lpvCtrl_StepNext                         0x20000014   Data           4  ctrl_sys.o(.data)
    .data                                    0x20000018   Section      724  coeappl.o(.data)
    .data                                    0x200002ec   Section        4  coeappl.o(.data)
    .data                                    0x200002f0   Section        2  coeappl.o(.data)
    .data                                    0x200002f2   Section       14  coeappl.o(.data)
    .data                                    0x20000300   Section        5  coeappl.o(.data)
    .data                                    0x20000305   Section        5  coeappl.o(.data)
    .data                                    0x2000030c   Section       20  coeappl.o(.data)
    .data                                    0x20000320   Section        6  coeappl.o(.data)
    .data                                    0x20000328   Section        8  ecatappl.o(.data)
    .data                                    0x20000330   Section        4  ecatcoe.o(.data)
    .data                                    0x20000334   Section       46  ecatslv.o(.data)
    .data                                    0x20000364   Section       32  mailbox.o(.data)
    .data                                    0x20000384   Section       12  objdef.o(.data)
    .data                                    0x20000390   Section       14  objdef.o(.data)
    .data                                    0x2000039e   Section        2  objdef.o(.data)
    .data                                    0x200003a0   Section       52  sdoserv.o(.data)
    .data                                    0x200003d4   Section        4  sdoserv.o(.data)
    .data                                    0x200003d8   Section        2  if_ethercat.o(.data)
    luEscALEvent                             0x200003d8   Data           2  if_ethercat.o(.data)
    .data                                    0x200003da   Section        8  if_system.o(.data)
    lwCC4Capture                             0x200003de   Data           4  if_system.o(.data)
    .data                                    0x200003e2   Section        4  if_timer.o(.data)
    lwCntPerUs                               0x200003e2   Data           2  if_timer.o(.data)
    lwCntPerMs                               0x200003e4   Data           2  if_timer.o(.data)
    .data                                    0x200003e6   Section        1  if_addamodule.o(.data)
    .data                                    0x200003e8   Section       20  system_stm32f4xx.o(.data)
    .data                                    0x200003fc   Section      228  task_ethercat.o(.data)
    .data                                    0x200004e0   Section      228  task_ethercat.o(.data)
    .data                                    0x200005c4   Section       60  task_ethercat.o(.data)
    lgStatus                                 0x200005c4   Data           1  task_ethercat.o(.data)
    lbStep                                   0x200005c5   Data           1  task_ethercat.o(.data)
    lpcbfnESCTask                            0x200005d0   Data           4  task_ethercat.o(.data)
    ldwLoopCnt                               0x200005d4   Data           4  task_ethercat.o(.data)
    .data                                    0x20000600   Section       12  task_sys.o(.data)
    lgStatus                                 0x20000600   Data           1  task_sys.o(.data)
    lbStep                                   0x20000601   Data           1  task_sys.o(.data)
    lySysStateFlag                           0x20000602   Data           1  task_sys.o(.data)
    lpvSysTask                               0x20000604   Data           4  task_sys.o(.data)
    ldwLsiFreq                               0x20000608   Data           4  task_sys.o(.data)
    .data                                    0x2000060c   Section        1  task_timer.o(.data)
    lgStatus                                 0x2000060c   Data           1  task_timer.o(.data)
    .data                                    0x20000610   Section        4  stdout.o(.data)
    .data                                    0x20000614   Section        4  mvars.o(.data)
    .data                                    0x20000618   Section        4  mvars.o(.data)
    .bss                                     0x2000061c   Section      136  ecatappl.o(.bss)
    .bss                                     0x200006a4   Section      616  mailbox.o(.bss)
    .bss                                     0x2000090c   Section      136  objdef.o(.bss)
    .bss                                     0x20000994   Section       14  sdoserv.o(.bss)
    .bss                                     0x200009a4   Section      120  if_timer.o(.bss)
    fnTimer1AsynEvent                        0x200009a4   Data          20  if_timer.o(.bss)
    pArguments                               0x200009b8   Data          20  if_timer.o(.bss)
    tEventTable                              0x200009cc   Data          80  if_timer.o(.bss)
    .bss                                     0x20000a1c   Section       12  if_addamodule.o(.bss)
    lbAdcValue                               0x20000a1c   Data          12  if_addamodule.o(.bss)
    .bss                                     0x20000a28   Section       52  task_ethercat.o(.bss)
    lbInputBuff                              0x20000a34   Data          20  task_ethercat.o(.bss)
    lbOutputBuff                             0x20000a48   Data          20  task_ethercat.o(.bss)
    HEAP                                     0x20000a60   Section     1024  startup_stm32f40_41xxx.o(HEAP)
    STACK                                    0x20000e60   Section     4096  startup_stm32f40_41xxx.o(STACK)

    Global Symbols

    Symbol Name                              Value     Ov Type        Size  Object(Section)

    BuildAttributes$$THM_ISAv4$E$P$D$K$B$S$7EM$PE$A:L22UL41UL21$X:L11$S22US41US21$IEEE1$IW$USESV6$~STKCKD$USESV7$~SHL$OTIME$ROPI$EBA8$MICROLIB$REQ8$PRES8$EABIv2 0x00000000   Number         0  anon$$obj.o ABSOLUTE
    __ARM_use_no_argv                        0x00000000   Number         0  main.o ABSOLUTE
    _printf_a                                0x00000000   Number         0  stubs.o ABSOLUTE
    _printf_c                                0x00000000   Number         0  stubs.o ABSOLUTE
    _printf_charcount                        0x00000000   Number         0  stubs.o ABSOLUTE
    _printf_d                                0x00000000   Number         0  stubs.o ABSOLUTE
    _printf_e                                0x00000000   Number         0  stubs.o ABSOLUTE
    _printf_f                                0x00000000   Number         0  stubs.o ABSOLUTE
    _printf_flags                            0x00000000   Number         0  stubs.o ABSOLUTE
    _printf_fp_dec                           0x00000000   Number         0  stubs.o ABSOLUTE
    _printf_fp_hex                           0x00000000   Number         0  stubs.o ABSOLUTE
    _printf_g                                0x00000000   Number         0  stubs.o ABSOLUTE
    _printf_i                                0x00000000   Number         0  stubs.o ABSOLUTE
    _printf_int_dec                          0x00000000   Number         0  stubs.o ABSOLUTE
    _printf_l                                0x00000000   Number         0  stubs.o ABSOLUTE
    _printf_lc                               0x00000000   Number         0  stubs.o ABSOLUTE
    _printf_ll                               0x00000000   Number         0  stubs.o ABSOLUTE
    _printf_lld                              0x00000000   Number         0  stubs.o ABSOLUTE
    _printf_lli                              0x00000000   Number         0  stubs.o ABSOLUTE
    _printf_llo                              0x00000000   Number         0  stubs.o ABSOLUTE
    _printf_llu                              0x00000000   Number         0  stubs.o ABSOLUTE
    _printf_llx                              0x00000000   Number         0  stubs.o ABSOLUTE
    _printf_longlong_dec                     0x00000000   Number         0  stubs.o ABSOLUTE
    _printf_longlong_hex                     0x00000000   Number         0  stubs.o ABSOLUTE
    _printf_longlong_oct                     0x00000000   Number         0  stubs.o ABSOLUTE
    _printf_ls                               0x00000000   Number         0  stubs.o ABSOLUTE
    _printf_mbtowc                           0x00000000   Number         0  stubs.o ABSOLUTE
    _printf_n                                0x00000000   Number         0  stubs.o ABSOLUTE
    _printf_o                                0x00000000   Number         0  stubs.o ABSOLUTE
    _printf_p                                0x00000000   Number         0  stubs.o ABSOLUTE
    _printf_percent                          0x00000000   Number         0  stubs.o ABSOLUTE
    _printf_pre_padding                      0x00000000   Number         0  stubs.o ABSOLUTE
    _printf_return_value                     0x00000000   Number         0  stubs.o ABSOLUTE
    _printf_s                                0x00000000   Number         0  stubs.o ABSOLUTE
    _printf_sizespec                         0x00000000   Number         0  stubs.o ABSOLUTE
    _printf_str                              0x00000000   Number         0  stubs.o ABSOLUTE
    _printf_truncate_signed                  0x00000000   Number         0  stubs.o ABSOLUTE
    _printf_truncate_unsigned                0x00000000   Number         0  stubs.o ABSOLUTE
    _printf_u                                0x00000000   Number         0  stubs.o ABSOLUTE
    _printf_wc                               0x00000000   Number         0  stubs.o ABSOLUTE
    _printf_wctomb                           0x00000000   Number         0  stubs.o ABSOLUTE
    _printf_widthprec                        0x00000000   Number         0  stubs.o ABSOLUTE
    _printf_x                                0x00000000   Number         0  stubs.o ABSOLUTE
    __cpp_initialize__aeabi_                  - Undefined Weak Reference
    __cxa_finalize                            - Undefined Weak Reference
    _clock_init                               - Undefined Weak Reference
    _microlib_exit                            - Undefined Weak Reference
    __Vectors_Size                           0x00000188   Number         0  startup_stm32f40_41xxx.o ABSOLUTE
    __Vectors                                0x08000000   Data           4  startup_stm32f40_41xxx.o(RESET)
    __Vectors_End                            0x08000188   Data           0  startup_stm32f40_41xxx.o(RESET)
    __main                                   0x08000189   Thumb Code     0  entry.o(.ARM.Collect$$$$00000000)
    _main_stk                                0x08000189   Thumb Code     0  entry2.o(.ARM.Collect$$$$00000001)
    _main_scatterload                        0x0800018d   Thumb Code     0  entry5.o(.ARM.Collect$$$$00000004)
    __main_after_scatterload                 0x08000191   Thumb Code     0  entry5.o(.ARM.Collect$$$$00000004)
    _main_clock                              0x08000191   Thumb Code     0  entry7b.o(.ARM.Collect$$$$00000008)
    _main_cpp_init                           0x08000191   Thumb Code     0  entry8b.o(.ARM.Collect$$$$0000000A)
    _main_init                               0x08000191   Thumb Code     0  entry9a.o(.ARM.Collect$$$$0000000B)
    __rt_final_cpp                           0x08000199   Thumb Code     0  entry10a.o(.ARM.Collect$$$$0000000D)
    __rt_final_exit                          0x08000199   Thumb Code     0  entry11a.o(.ARM.Collect$$$$0000000F)
    HardFault_Handler                        0x0800019d   Thumb Code    24  stm32f4xx_it.o(.emb_text)
    Reset_Handler                            0x080001b9   Thumb Code    12  startup_stm32f40_41xxx.o(.text)
    ADC_IRQHandler                           0x080001d7   Thumb Code     0  startup_stm32f40_41xxx.o(.text)
    CAN1_RX0_IRQHandler                      0x080001d7   Thumb Code     0  startup_stm32f40_41xxx.o(.text)
    CAN1_RX1_IRQHandler                      0x080001d7   Thumb Code     0  startup_stm32f40_41xxx.o(.text)
    CAN1_SCE_IRQHandler                      0x080001d7   Thumb Code     0  startup_stm32f40_41xxx.o(.text)
    CAN1_TX_IRQHandler                       0x080001d7   Thumb Code     0  startup_stm32f40_41xxx.o(.text)
    CAN2_RX0_IRQHandler                      0x080001d7   Thumb Code     0  startup_stm32f40_41xxx.o(.text)
    CAN2_RX1_IRQHandler                      0x080001d7   Thumb Code     0  startup_stm32f40_41xxx.o(.text)
    CAN2_SCE_IRQHandler                      0x080001d7   Thumb Code     0  startup_stm32f40_41xxx.o(.text)
    CAN2_TX_IRQHandler                       0x080001d7   Thumb Code     0  startup_stm32f40_41xxx.o(.text)
    CRYP_IRQHandler                          0x080001d7   Thumb Code     0  startup_stm32f40_41xxx.o(.text)
    DCMI_IRQHandler                          0x080001d7   Thumb Code     0  startup_stm32f40_41xxx.o(.text)
    DMA1_Stream0_IRQHandler                  0x080001d7   Thumb Code     0  startup_stm32f40_41xxx.o(.text)
    DMA1_Stream1_IRQHandler                  0x080001d7   Thumb Code     0  startup_stm32f40_41xxx.o(.text)
    DMA1_Stream2_IRQHandler                  0x080001d7   Thumb Code     0  startup_stm32f40_41xxx.o(.text)
    DMA1_Stream3_IRQHandler                  0x080001d7   Thumb Code     0  startup_stm32f40_41xxx.o(.text)
    DMA1_Stream4_IRQHandler                  0x080001d7   Thumb Code     0  startup_stm32f40_41xxx.o(.text)
    DMA1_Stream5_IRQHandler                  0x080001d7   Thumb Code     0  startup_stm32f40_41xxx.o(.text)
    DMA1_Stream6_IRQHandler                  0x080001d7   Thumb Code     0  startup_stm32f40_41xxx.o(.text)
    DMA1_Stream7_IRQHandler                  0x080001d7   Thumb Code     0  startup_stm32f40_41xxx.o(.text)
    DMA2_Stream0_IRQHandler                  0x080001d7   Thumb Code     0  startup_stm32f40_41xxx.o(.text)
    DMA2_Stream1_IRQHandler                  0x080001d7   Thumb Code     0  startup_stm32f40_41xxx.o(.text)
    DMA2_Stream2_IRQHandler                  0x080001d7   Thumb Code     0  startup_stm32f40_41xxx.o(.text)
    DMA2_Stream3_IRQHandler                  0x080001d7   Thumb Code     0  startup_stm32f40_41xxx.o(.text)
    DMA2_Stream4_IRQHandler                  0x080001d7   Thumb Code     0  startup_stm32f40_41xxx.o(.text)
    DMA2_Stream5_IRQHandler                  0x080001d7   Thumb Code     0  startup_stm32f40_41xxx.o(.text)
    DMA2_Stream6_IRQHandler                  0x080001d7   Thumb Code     0  startup_stm32f40_41xxx.o(.text)
    DMA2_Stream7_IRQHandler                  0x080001d7   Thumb Code     0  startup_stm32f40_41xxx.o(.text)
    ETH_IRQHandler                           0x080001d7   Thumb Code     0  startup_stm32f40_41xxx.o(.text)
    ETH_WKUP_IRQHandler                      0x080001d7   Thumb Code     0  startup_stm32f40_41xxx.o(.text)
    EXTI0_IRQHandler                         0x080001d7   Thumb Code     0  startup_stm32f40_41xxx.o(.text)
    EXTI15_10_IRQHandler                     0x080001d7   Thumb Code     0  startup_stm32f40_41xxx.o(.text)
    EXTI1_IRQHandler                         0x080001d7   Thumb Code     0  startup_stm32f40_41xxx.o(.text)
    EXTI2_IRQHandler                         0x080001d7   Thumb Code     0  startup_stm32f40_41xxx.o(.text)
    EXTI4_IRQHandler                         0x080001d7   Thumb Code     0  startup_stm32f40_41xxx.o(.text)
    EXTI9_5_IRQHandler                       0x080001d7   Thumb Code     0  startup_stm32f40_41xxx.o(.text)
    FLASH_IRQHandler                         0x080001d7   Thumb Code     0  startup_stm32f40_41xxx.o(.text)
    FPU_IRQHandler                           0x080001d7   Thumb Code     0  startup_stm32f40_41xxx.o(.text)
    FSMC_IRQHandler                          0x080001d7   Thumb Code     0  startup_stm32f40_41xxx.o(.text)
    HASH_RNG_IRQHandler                      0x080001d7   Thumb Code     0  startup_stm32f40_41xxx.o(.text)
    I2C1_ER_IRQHandler                       0x080001d7   Thumb Code     0  startup_stm32f40_41xxx.o(.text)
    I2C1_EV_IRQHandler                       0x080001d7   Thumb Code     0  startup_stm32f40_41xxx.o(.text)
    I2C2_ER_IRQHandler                       0x080001d7   Thumb Code     0  startup_stm32f40_41xxx.o(.text)
    I2C2_EV_IRQHandler                       0x080001d7   Thumb Code     0  startup_stm32f40_41xxx.o(.text)
    I2C3_ER_IRQHandler                       0x080001d7   Thumb Code     0  startup_stm32f40_41xxx.o(.text)
    I2C3_EV_IRQHandler                       0x080001d7   Thumb Code     0  startup_stm32f40_41xxx.o(.text)
    OTG_FS_IRQHandler                        0x080001d7   Thumb Code     0  startup_stm32f40_41xxx.o(.text)
    OTG_FS_WKUP_IRQHandler                   0x080001d7   Thumb Code     0  startup_stm32f40_41xxx.o(.text)
    OTG_HS_EP1_IN_IRQHandler                 0x080001d7   Thumb Code     0  startup_stm32f40_41xxx.o(.text)
    OTG_HS_EP1_OUT_IRQHandler                0x080001d7   Thumb Code     0  startup_stm32f40_41xxx.o(.text)
    OTG_HS_IRQHandler                        0x080001d7   Thumb Code     0  startup_stm32f40_41xxx.o(.text)
    OTG_HS_WKUP_IRQHandler                   0x080001d7   Thumb Code     0  startup_stm32f40_41xxx.o(.text)
    PVD_IRQHandler                           0x080001d7   Thumb Code     0  startup_stm32f40_41xxx.o(.text)
    RCC_IRQHandler                           0x080001d7   Thumb Code     0  startup_stm32f40_41xxx.o(.text)
    RTC_Alarm_IRQHandler                     0x080001d7   Thumb Code     0  startup_stm32f40_41xxx.o(.text)
    RTC_WKUP_IRQHandler                      0x080001d7   Thumb Code     0  startup_stm32f40_41xxx.o(.text)
    SDIO_IRQHandler                          0x080001d7   Thumb Code     0  startup_stm32f40_41xxx.o(.text)
    SPI1_IRQHandler                          0x080001d7   Thumb Code     0  startup_stm32f40_41xxx.o(.text)
    SPI2_IRQHandler                          0x080001d7   Thumb Code     0  startup_stm32f40_41xxx.o(.text)
    SPI3_IRQHandler                          0x080001d7   Thumb Code     0  startup_stm32f40_41xxx.o(.text)
    TAMP_STAMP_IRQHandler                    0x080001d7   Thumb Code     0  startup_stm32f40_41xxx.o(.text)
    TIM1_BRK_TIM9_IRQHandler                 0x080001d7   Thumb Code     0  startup_stm32f40_41xxx.o(.text)
    TIM1_CC_IRQHandler                       0x080001d7   Thumb Code     0  startup_stm32f40_41xxx.o(.text)
    TIM1_TRG_COM_TIM11_IRQHandler            0x080001d7   Thumb Code     0  startup_stm32f40_41xxx.o(.text)
    TIM1_UP_TIM10_IRQHandler                 0x080001d7   Thumb Code     0  startup_stm32f40_41xxx.o(.text)
    TIM2_IRQHandler                          0x080001d7   Thumb Code     0  startup_stm32f40_41xxx.o(.text)
    TIM3_IRQHandler                          0x080001d7   Thumb Code     0  startup_stm32f40_41xxx.o(.text)
    TIM4_IRQHandler                          0x080001d7   Thumb Code     0  startup_stm32f40_41xxx.o(.text)
    TIM8_BRK_TIM12_IRQHandler                0x080001d7   Thumb Code     0  startup_stm32f40_41xxx.o(.text)
    TIM8_CC_IRQHandler                       0x080001d7   Thumb Code     0  startup_stm32f40_41xxx.o(.text)
    TIM8_TRG_COM_TIM14_IRQHandler            0x080001d7   Thumb Code     0  startup_stm32f40_41xxx.o(.text)
    TIM8_UP_TIM13_IRQHandler                 0x080001d7   Thumb Code     0  startup_stm32f40_41xxx.o(.text)
    UART4_IRQHandler                         0x080001d7   Thumb Code     0  startup_stm32f40_41xxx.o(.text)
    UART5_IRQHandler                         0x080001d7   Thumb Code     0  startup_stm32f40_41xxx.o(.text)
    USART1_IRQHandler                        0x080001d7   Thumb Code     0  startup_stm32f40_41xxx.o(.text)
    USART2_IRQHandler                        0x080001d7   Thumb Code     0  startup_stm32f40_41xxx.o(.text)
    USART3_IRQHandler                        0x080001d7   Thumb Code     0  startup_stm32f40_41xxx.o(.text)
    USART6_IRQHandler                        0x080001d7   Thumb Code     0  startup_stm32f40_41xxx.o(.text)
    WWDG_IRQHandler                          0x080001d7   Thumb Code     0  startup_stm32f40_41xxx.o(.text)
    __aeabi_memcpy                           0x080001e5   Thumb Code    36  memcpya.o(.text)
    __aeabi_memcpy4                          0x080001e5   Thumb Code     0  memcpya.o(.text)
    __aeabi_memcpy8                          0x080001e5   Thumb Code     0  memcpya.o(.text)
    strlen                                   0x08000209   Thumb Code    14  strlen.o(.text)
    __ARM_scalbnf                            0x08000217   Thumb Code    24  fscalb.o(.text)
    scalbnf                                  0x08000217   Thumb Code     0  fscalb.o(.text)
    __aeabi_ui2f                             0x0800022f   Thumb Code    10  ffltui.o(.text)
    __aeabi_f2uiz                            0x08000239   Thumb Code    40  ffixui.o(.text)
    __aeabi_uldivmod                         0x08000261   Thumb Code    98  uldiv.o(.text)
    __I$use$fp                               0x080002c3   Thumb Code     0  iusefp.o(.text)
    _float_round                             0x080002c3   Thumb Code    18  fepilogue.o(.text)
    _float_epilogue                          0x080002d5   Thumb Code    92  fepilogue.o(.text)
    __scatterload                            0x08000331   Thumb Code    28  init.o(.text)
    __scatterload_rt2                        0x08000331   Thumb Code     0  init.o(.text)
    __aeabi_llsl                             0x08000355   Thumb Code    30  llshl.o(.text)
    _ll_shift_l                              0x08000355   Thumb Code     0  llshl.o(.text)
    __aeabi_llsr                             0x08000373   Thumb Code    32  llushr.o(.text)
    _ll_ushift_r                             0x08000373   Thumb Code     0  llushr.o(.text)
    __decompress                             0x08000393   Thumb Code     0  __dczerorl2.o(.text)
    __decompress1                            0x08000393   Thumb Code    86  __dczerorl2.o(.text)
    AL_ControlInd                            0x080003e9   Thumb Code  1034  ecatslv.o(i.AL_ControlInd)
    AL_ControlRes                            0x08000809   Thumb Code   344  ecatslv.o(i.AL_ControlRes)
    APPL_AckErrorInd                         0x0800096d   Thumb Code     2  task_ethercat.o(i.APPL_AckErrorInd)
    APPL_GenerateMapping                     0x08000971   Thumb Code   240  task_ethercat.o(i.APPL_GenerateMapping)
    APPL_InputMapping                        0x08000a69   Thumb Code    26  task_ethercat.o(i.APPL_InputMapping)
    APPL_OutputMapping                       0x08000a89   Thumb Code    36  task_ethercat.o(i.APPL_OutputMapping)
    APPL_StartInputHandler                   0x08000ab1   Thumb Code     4  task_ethercat.o(i.APPL_StartInputHandler)
    APPL_StartMailboxHandler                 0x08000ab5   Thumb Code     4  task_ethercat.o(i.APPL_StartMailboxHandler)
    APPL_StartOutputHandler                  0x08000ab9   Thumb Code     4  task_ethercat.o(i.APPL_StartOutputHandler)
    APPL_StopInputHandler                    0x08000abd   Thumb Code     4  task_ethercat.o(i.APPL_StopInputHandler)
    APPL_StopMailboxHandler                  0x08000ac1   Thumb Code     4  task_ethercat.o(i.APPL_StopMailboxHandler)
    APPL_StopOutputHandler                   0x08000ac5   Thumb Code     4  task_ethercat.o(i.APPL_StopOutputHandler)
    AddObjectsToObjDictionary                0x08000ac9   Thumb Code   130  coeappl.o(i.AddObjectsToObjDictionary)
    BusFault_Handler                         0x08000b51   Thumb Code     2  stm32f4xx_it.o(i.BusFault_Handler)
    COE_ClearObjDictionary                   0x08000b55   Thumb Code    86  coeappl.o(i.COE_ClearObjDictionary)
    COE_ContinueInd                          0x08000bb1   Thumb Code    62  ecatcoe.o(i.COE_ContinueInd)
    COE_GetObjectDictionary                  0x08000bf9   Thumb Code     6  coeappl.o(i.COE_GetObjectDictionary)
    COE_Init                                 0x08000c05   Thumb Code    12  ecatcoe.o(i.COE_Init)
    COE_Main                                 0x08000c19   Thumb Code   158  coeappl.o(i.COE_Main)
    COE_ObjInit                              0x08000cd9   Thumb Code   128  coeappl.o(i.COE_ObjInit)
    COE_ServiceInd                           0x08000d91   Thumb Code    38  ecatcoe.o(i.COE_ServiceInd)
    CheckIfEcatError                         0x08000db9   Thumb Code    74  ecatslv.o(i.CheckIfEcatError)
    CheckSmSettings                          0x08000e09   Thumb Code   484  ecatslv.o(i.CheckSmSettings)
    DebugMon_Handler                         0x08000ff5   Thumb Code     2  stm32f4xx_it.o(i.DebugMon_Handler)
    DisableSyncManChannel                    0x08000ff7   Thumb Code    50  ecatslv.o(i.DisableSyncManChannel)
    ECAT_Init                                0x08001029   Thumb Code   220  ecatslv.o(i.ECAT_Init)
    ECAT_Main                                0x08001109   Thumb Code   278  ecatslv.o(i.ECAT_Main)
    EXTI3_IRQHandler                         0x08001235   Thumb Code     4  stm32f4xx_it.o(i.EXTI3_IRQHandler)
    EXTI_ClearITPendingBit                   0x08001239   Thumb Code     6  stm32f4xx_exti.o(i.EXTI_ClearITPendingBit)
    EXTI_GetITStatus                         0x08001245   Thumb Code    20  stm32f4xx_exti.o(i.EXTI_GetITStatus)
    EXTI_Init                                0x0800125d   Thumb Code   142  stm32f4xx_exti.o(i.EXTI_Init)
    EnableSyncManChannel                     0x080012f1   Thumb Code    48  ecatslv.o(i.EnableSyncManChannel)
    GPIO_Init                                0x08001321   Thumb Code   144  stm32f4xx_gpio.o(i.GPIO_Init)
    GPIO_PinAFConfig                         0x080013b1   Thumb Code    70  stm32f4xx_gpio.o(i.GPIO_PinAFConfig)
    GetOutOfMbxQueue                         0x080013f7   Thumb Code    38  mailbox.o(i.GetOutOfMbxQueue)
    GetSyncMan                               0x0800141d   Thumb Code    22  ecatslv.o(i.GetSyncMan)
    HW_EscRead                               0x08001439   Thumb Code   102  if_ethercat.o(i.HW_EscRead)
    HW_EscReadIsr                            0x080014a9   Thumb Code    86  if_ethercat.o(i.HW_EscReadIsr)
    HW_EscWrite                              0x08001505   Thumb Code    92  if_ethercat.o(i.HW_EscWrite)
    HW_EscWriteIsr                           0x08001569   Thumb Code    76  if_ethercat.o(i.HW_EscWriteIsr)
    HW_GetALEventRegister                    0x080015b9   Thumb Code    86  if_ethercat.o(i.HW_GetALEventRegister)
    HW_GetALEventRegister_Isr                0x08001619   Thumb Code    78  if_ethercat.o(i.HW_GetALEventRegister_Isr)
    HandleBusCycleCalculation                0x08001671   Thumb Code    80  ecatappl.o(i.HandleBusCycleCalculation)
    Hard_Fault_Handler                       0x080016d5   Thumb Code    78  stm32f4xx_it.o(i.Hard_Fault_Handler)
    MBX_CheckAndCopyMailbox                  0x0800179d   Thumb Code   204  mailbox.o(i.MBX_CheckAndCopyMailbox)
    MBX_CopyToSendMailbox                    0x08001871   Thumb Code   176  mailbox.o(i.MBX_CopyToSendMailbox)
    MBX_Init                                 0x08001931   Thumb Code   104  mailbox.o(i.MBX_Init)
    MBX_MailboxReadInd                       0x080019a1   Thumb Code    92  mailbox.o(i.MBX_MailboxReadInd)
    MBX_MailboxRepeatReq                     0x08001a05   Thumb Code    58  mailbox.o(i.MBX_MailboxRepeatReq)
    MBX_MailboxSendReq                       0x08001a45   Thumb Code   140  mailbox.o(i.MBX_MailboxSendReq)
    MBX_MailboxWriteInd                      0x08001add   Thumb Code   130  mailbox.o(i.MBX_MailboxWriteInd)
    MBX_Main                                 0x08001b69   Thumb Code   112  mailbox.o(i.MBX_Main)
    MBX_StartMailboxHandler                  0x08001be1   Thumb Code   110  mailbox.o(i.MBX_StartMailboxHandler)
    MBX_StopMailboxHandler                   0x08001c55   Thumb Code   214  mailbox.o(i.MBX_StopMailboxHandler)
    MainInit                                 0x08001d39   Thumb Code    26  ecatappl.o(i.MainInit)
    MainLoop                                 0x08001d59   Thumb Code   164  ecatappl.o(i.MainLoop)
    MemManage_Handler                        0x08001e35   Thumb Code     2  stm32f4xx_it.o(i.MemManage_Handler)
    NMI_Handler                              0x08001e37   Thumb Code     2  stm32f4xx_it.o(i.NMI_Handler)
    NVIC_Init                                0x08001e39   Thumb Code   106  misc.o(i.NVIC_Init)
    NVIC_PriorityGroupConfig                 0x08001eb1   Thumb Code    10  misc.o(i.NVIC_PriorityGroupConfig)
    OBJ_GetDesc                              0x08001ec5   Thumb Code   282  objdef.o(i.OBJ_GetDesc)
    OBJ_GetEntryDesc                         0x08001fed   Thumb Code    30  objdef.o(i.OBJ_GetEntryDesc)
    OBJ_GetEntryOffset                       0x0800200b   Thumb Code   226  objdef.o(i.OBJ_GetEntryOffset)
    OBJ_GetNoOfObjects                       0x080020ed   Thumb Code   114  objdef.o(i.OBJ_GetNoOfObjects)
    OBJ_GetObjDesc                           0x0800215f   Thumb Code     4  objdef.o(i.OBJ_GetObjDesc)
    OBJ_GetObjectHandle                      0x08002163   Thumb Code    28  objdef.o(i.OBJ_GetObjectHandle)
    OBJ_GetObjectLength                      0x0800217f   Thumb Code   170  objdef.o(i.OBJ_GetObjectLength)
    OBJ_GetObjectList                        0x08002229   Thumb Code   180  objdef.o(i.OBJ_GetObjectList)
    OBJ_Read                                 0x080022e1   Thumb Code  1008  objdef.o(i.OBJ_Read)
    OBJ_Write                                0x080026d9   Thumb Code  1102  objdef.o(i.OBJ_Write)
    PDI_Isr                                  0x08002b45   Thumb Code   216  ecatappl.o(i.PDI_Isr)
    PDO_InputMapping                         0x08002c51   Thumb Code    26  ecatappl.o(i.PDO_InputMapping)
    PendSV_Handler                           0x08002c79   Thumb Code     2  stm32f4xx_it.o(i.PendSV_Handler)
    RCC_APB1PeriphResetCmd                   0x08002c7d   Thumb Code    26  stm32f4xx_rcc.o(i.RCC_APB1PeriphResetCmd)
    RCC_APB2PeriphResetCmd                   0x08002c9d   Thumb Code    26  stm32f4xx_rcc.o(i.RCC_APB2PeriphResetCmd)
    SDOS_SdoInd                              0x08002cbd   Thumb Code  1088  sdoserv.o(i.SDOS_SdoInd)
    SDOS_SdoInfoInd                          0x080030fd   Thumb Code   628  sdoserv.o(i.SDOS_SdoInfoInd)
    SDOS_SdoRes                              0x08003389   Thumb Code   154  sdoserv.o(i.SDOS_SdoRes)
    SPI_Cmd                                  0x0800342d   Thumb Code    24  stm32f4xx_spi.o(i.SPI_Cmd)
    SPI_I2S_GetFlagStatus                    0x08003445   Thumb Code    18  stm32f4xx_spi.o(i.SPI_I2S_GetFlagStatus)
    SPI_I2S_ReceiveData                      0x08003457   Thumb Code     6  stm32f4xx_spi.o(i.SPI_I2S_ReceiveData)
    SPI_I2S_SendData                         0x0800345d   Thumb Code     4  stm32f4xx_spi.o(i.SPI_I2S_SendData)
    SPI_Init                                 0x08003461   Thumb Code    60  stm32f4xx_spi.o(i.SPI_Init)
    SVC_Handler                              0x0800349d   Thumb Code     2  stm32f4xx_it.o(i.SVC_Handler)
    SYSCFG_EXTILineConfig                    0x080034a1   Thumb Code    60  stm32f4xx_syscfg.o(i.SYSCFG_EXTILineConfig)
    SdoRes                                   0x0800369d   Thumb Code   182  sdoserv.o(i.SdoRes)
    SetALStatus                              0x0800375d   Thumb Code    60  ecatslv.o(i.SetALStatus)
    StartInputHandler                        0x0800379d   Thumb Code   596  ecatslv.o(i.StartInputHandler)
    StopInputHandler                         0x08003a19   Thumb Code    82  ecatslv.o(i.StopInputHandler)
    SysTick_CLKSourceConfig                  0x08003a75   Thumb Code    40  misc.o(i.SysTick_CLKSourceConfig)
    SysTick_Handler                          0x08003a9d   Thumb Code     2  stm32f4xx_it.o(i.SysTick_Handler)
    SystemCoreClockUpdate                    0x08003aa1   Thumb Code   110  system_stm32f4xx.o(i.SystemCoreClockUpdate)
    SystemInit                               0x08003b25   Thumb Code   252  system_stm32f4xx.o(i.SystemInit)
    TIM5_IRQHandler                          0x08003c41   Thumb Code     4  stm32f4xx_it.o(i.TIM5_IRQHandler)
    TIM6_DAC_IRQHandler                      0x08003c45   Thumb Code     4  stm32f4xx_it.o(i.TIM6_DAC_IRQHandler)
    TIM7_IRQHandler                          0x08003c49   Thumb Code     4  stm32f4xx_it.o(i.TIM7_IRQHandler)
    TIM_ClearITPendingBit                    0x08003c4d   Thumb Code     6  stm32f4xx_tim.o(i.TIM_ClearITPendingBit)
    TIM_Cmd                                  0x08003c53   Thumb Code    24  stm32f4xx_tim.o(i.TIM_Cmd)
    TIM_DeInit                               0x08003c6d   Thumb Code   346  stm32f4xx_tim.o(i.TIM_DeInit)
    TIM_GetCapture4                          0x08003dfd   Thumb Code     6  stm32f4xx_tim.o(i.TIM_GetCapture4)
    TIM_GetITStatus                          0x08003e03   Thumb Code    34  stm32f4xx_tim.o(i.TIM_GetITStatus)
    TIM_ITConfig                             0x08003e25   Thumb Code    18  stm32f4xx_tim.o(i.TIM_ITConfig)
    TIM_TimeBaseInit                         0x08003e39   Thumb Code   104  stm32f4xx_tim.o(i.TIM_TimeBaseInit)
    USART_GetFlagStatus                      0x08003ebd   Thumb Code    26  stm32f4xx_usart.o(i.USART_GetFlagStatus)
    USART_SendData                           0x08003ed7   Thumb Code     8  stm32f4xx_usart.o(i.USART_SendData)
    UsageFault_Handler                       0x08003edf   Thumb Code     2  stm32f4xx_it.o(i.UsageFault_Handler)
    __0printf$5                              0x08003ee1   Thumb Code    22  printf5.o(i.__0printf$5)
    __1printf$5                              0x08003ee1   Thumb Code     0  printf5.o(i.__0printf$5)
    __2printf                                0x08003ee1   Thumb Code     0  printf5.o(i.__0printf$5)
    __ARM_common_memclr4_10                  0x08003f01   Thumb Code    10  mailbox.o(i.__ARM_common_memclr4_10)
    __ARM_common_memclr4_8                   0x08003f0b   Thumb Code     8  task_sys.o(i.__ARM_common_memclr4_8)
    __scatterload_copy                       0x08003f13   Thumb Code    14  handlers.o(i.__scatterload_copy)
    __scatterload_null                       0x08003f21   Thumb Code     2  handlers.o(i.__scatterload_null)
    __scatterload_zeroinit                   0x08003f23   Thumb Code    14  handlers.o(i.__scatterload_zeroinit)
    cbAPPL_Application                       0x080041f1   Thumb Code    96  task_ethercat.o(i.cbAPPL_Application)
    fputc                                    0x08004261   Thumb Code    30  if_ucom.o(i.fputc)
    free                                     0x08004285   Thumb Code    76  malloc.o(i.free)
    gbIF_ADC_ChnSet                          0x080042d5   Thumb Code    90  if_addamodule.o(i.gbIF_ADC_ChnSet)
    gbIF_SPI_EtherCatReadWrite               0x0800433d   Thumb Code    48  if_spi.o(i.gbIF_SPI_EtherCatReadWrite)
    geTask_EthercatStatusRtn                 0x08004371   Thumb Code     6  task_ethercat.o(i.geTask_EthercatStatusRtn)
    geTask_SysStatusRtn                      0x0800437d   Thumb Code     6  task_sys.o(i.geTask_SysStatusRtn)
    geTask_TimerStatusRtn                    0x08004389   Thumb Code     6  task_timer.o(i.geTask_TimerStatusRtn)
    gpbIF_ADC_ResultBuffRtn                  0x08004395   Thumb Code     4  if_addamodule.o(i.gpbIF_ADC_ResultBuffRtn)
    gvCtrl_EthercatMain                      0x0800439d   Thumb Code    28  ctrl_ethercat.o(i.gvCtrl_EthercatMain)
    gvCtrl_MainFun                           0x080043c1   Thumb Code    42  ctrl.o(i.gvCtrl_MainFun)
    gvCtrl_RequestSet                        0x080043f5   Thumb Code    10  ctrl.o(i.gvCtrl_RequestSet)
    gvCtrl_SysMain                           0x08004405   Thumb Code    28  ctrl_sys.o(i.gvCtrl_SysMain)
    gvIF_AdcSpiCmd                           0x08004429   Thumb Code     4  if_spi.o(i.gvIF_AdcSpiCmd)
    gvIF_DAC_Output                          0x0800442d   Thumb Code   108  if_addamodule.o(i.gvIF_DAC_Output)
    gvIF_SPIAdcConfig                        0x0800449d   Thumb Code   366  if_spi.o(i.gvIF_SPIAdcConfig)
    gvIF_SPIDacConfig                        0x08004635   Thumb Code   220  if_spi.o(i.gvIF_SPIDacConfig)
    gvIF_SPIEtherCatConfig                   0x08004729   Thumb Code   228  if_spi.o(i.gvIF_SPIEtherCatConfig)
    gvIF_SysClockUpdate                      0x08004821   Thumb Code   210  if_system.o(i.gvIF_SysClockUpdate)
    gvIF_SysInterruptionConfig               0x08004911   Thumb Code    70  if_system.o(i.gvIF_SysInterruptionConfig)
    gvIF_Timer6Init                          0x08004959   Thumb Code   142  if_timer.o(i.gvIF_Timer6Init)
    gvIF_Timer7Init                          0x080049f9   Thumb Code    82  if_timer.o(i.gvIF_Timer7Init)
    gvIF_TimerBlockingDelayUs                0x08004a55   Thumb Code    56  if_timer.o(i.gvIF_TimerBlockingDelayUs)
    gvTask_EthercatBusInit                   0x08004a91   Thumb Code    72  task_ethercat.o(i.gvTask_EthercatBusInit)
    gvTask_EthercatCycleSet                  0x08004add   Thumb Code    12  task_ethercat.o(i.gvTask_EthercatCycleSet)
    gvTask_EthercatHWInit                    0x08004af1   Thumb Code    38  task_ethercat.o(i.gvTask_EthercatHWInit)
    gvTask_EthercatMainInit                  0x08004b21   Thumb Code    14  task_ethercat.o(i.gvTask_EthercatMainInit)
    gvTask_EthercatProcess                   0x08004b35   Thumb Code    12  task_ethercat.o(i.gvTask_EthercatProcess)
    gvTask_SysAdcDacModuleInit               0x08004b45   Thumb Code   130  task_sys.o(i.gvTask_SysAdcDacModuleInit)
    gvTask_SysConfiguration                  0x08004bd5   Thumb Code    26  task_sys.o(i.gvTask_SysConfiguration)
    gvTask_SysPorcess                        0x08004bf5   Thumb Code    38  task_sys.o(i.gvTask_SysPorcess)
    gvTask_System                            0x08004c29   Thumb Code    12  task_sys.o(i.gvTask_System)
    gvTask_TimerClockOutput                  0x08004c39   Thumb Code    22  task_timer.o(i.gvTask_TimerClockOutput)
    gvTask_TimerInit                         0x08004c59   Thumb Code    18  task_timer.o(i.gvTask_TimerInit)
    gvcbIF_ADC_DrdyIRQHandler                0x08004c71   Thumb Code    46  if_addamodule.o(i.gvcbIF_ADC_DrdyIRQHandler)
    gvcbIF_SysOutputIOConfig                 0x08004ca9   Thumb Code     4  if_system.o(i.gvcbIF_SysOutputIOConfig)
    gvcbIF_TIM5_IRQHandler                   0x08004cad   Thumb Code    82  if_system.o(i.gvcbIF_TIM5_IRQHandler)
    gvcbIF_Timer6_IRQHandler                 0x08004d09   Thumb Code    78  if_timer.o(i.gvcbIF_Timer6_IRQHandler)
    gvcbIF_Timer7_IRQHandler                 0x08004d61   Thumb Code    64  if_timer.o(i.gvcbIF_Timer7_IRQHandler)
    gwIF_SPI_AdcRead                         0x08004da9   Thumb Code    62  if_spi.o(i.gwIF_SPI_AdcRead)
    gyIF_SPI_DacWrite                        0x08004ded   Thumb Code    50  if_spi.o(i.gyIF_SPI_DacWrite)
    gyIF_TimerEventSet                       0x08004e25   Thumb Code    34  if_timer.o(i.gyIF_TimerEventSet)
    main                                     0x080052e5   Thumb Code    20  main.o(i.main)
    malloc                                   0x080052f9   Thumb Code    92  malloc.o(i.malloc)
    asEntryDesc0x1600                        0x08005364   Data         342  coeappl.o(.constdata)
    aName0x1600                              0x080054ba   Data         758  coeappl.o(.constdata)
    asEntryDesc0x1A00                        0x080057b0   Data         342  coeappl.o(.constdata)
    aName0x1A00                              0x08005906   Data         757  coeappl.o(.constdata)
    asEntryDesc0x1C12                        0x08005bfc   Data          12  coeappl.o(.constdata)
    aName0x1C12                              0x08005c08   Data          27  coeappl.o(.constdata)
    asEntryDesc0x1C13                        0x08005c24   Data          12  coeappl.o(.constdata)
    aName0x1C13                              0x08005c30   Data          27  coeappl.o(.constdata)
    asEntryDesc0x6000                        0x08005c4c   Data         342  coeappl.o(.constdata)
    aName0x6000                              0x08005da2   Data         690  coeappl.o(.constdata)
    asEntryDesc0x7000                        0x08006054   Data         342  coeappl.o(.constdata)
    aName0x7000                              0x080061aa   Data         747  coeappl.o(.constdata)
    sEntryDesc0x1000                         0x08006496   Data           6  coeappl.o(.constdata)
    aName0x1000                              0x0800649c   Data          12  coeappl.o(.constdata)
    sEntryDesc0x1001                         0x080064a8   Data           6  coeappl.o(.constdata)
    aName0x1001                              0x080064ae   Data          15  coeappl.o(.constdata)
    sEntryDesc0x1008                         0x080064be   Data           6  coeappl.o(.constdata)
    aName0x1008                              0x080064c4   Data          12  coeappl.o(.constdata)
    sEntryDesc0x1009                         0x080064d0   Data           6  coeappl.o(.constdata)
    aName0x1009                              0x080064d6   Data          17  coeappl.o(.constdata)
    sEntryDesc0x100A                         0x080064e8   Data           6  coeappl.o(.constdata)
    aName0x100A                              0x080064ee   Data          17  coeappl.o(.constdata)
    asEntryDesc0x1018                        0x08006500   Data          30  coeappl.o(.constdata)
    aName0x1018                              0x0800651e   Data          57  coeappl.o(.constdata)
    asEntryDesc0x10F1                        0x08006558   Data          18  coeappl.o(.constdata)
    aName0x10F1                              0x0800656a   Data          63  coeappl.o(.constdata)
    asEntryDesc0x1C00                        0x080065aa   Data          12  coeappl.o(.constdata)
    aName0x1C00                              0x080065b6   Data          18  coeappl.o(.constdata)
    asEntryDesc0x1C3x                        0x080065c8   Data         198  coeappl.o(.constdata)
    aName0x1C32                              0x0800668e   Data         256  coeappl.o(.constdata)
    aName0x1C33                              0x0800678e   Data         255  coeappl.o(.constdata)
    cBitMask                                 0x0800688e   Data          32  objdef.o(.constdata)
    cAbortCode                               0x080068b0   Data         120  sdoserv.o(.constdata)
    Region$$Table$$Base                      0x08006928   Number         0  anon$$obj.o(Region$$Table)
    Region$$Table$$Limit                     0x08006948   Number         0  anon$$obj.o(Region$$Table)
    geSysStatus                              0x20000001   Data           1  ctrl.o(.data)
    geTimerStatus                            0x20000002   Data           1  ctrl.o(.data)
    geEscStatus                              0x20000003   Data           1  ctrl.o(.data)
    ObjDicList                               0x20000018   Data           4  coeappl.o(.data)
    ApplicationObjDic                        0x2000001c   Data         280  coeappl.o(.data)
    GenObjDic                                0x20000134   Data         440  coeappl.o(.data)
    u32Devicetype                            0x200002ec   Data           4  coeappl.o(.data)
    u16ErrorRegister                         0x200002f0   Data           2  coeappl.o(.data)
    acDevicename                             0x200002f2   Data          14  coeappl.o(.data)
    acHardwareversion                        0x20000300   Data           5  coeappl.o(.data)
    acSoftwareversion                        0x20000305   Data           5  coeappl.o(.data)
    sIdentity                                0x2000030c   Data          20  coeappl.o(.data)
    sSyncmanagertype                         0x20000320   Data           6  coeappl.o(.data)
    bInitFinished                            0x20000328   Data           1  ecatappl.o(.data)
    bCycleTimeMeasurementStarted             0x20000329   Data           1  ecatappl.o(.data)
    u16BusCycleCntMs                         0x2000032a   Data           2  ecatappl.o(.data)
    StartTimerCnt                            0x2000032c   Data           4  ecatappl.o(.data)
    pCoeSendStored                           0x20000330   Data           4  ecatcoe.o(.data)
    EepromLoaded                             0x20000334   Data           1  ecatslv.o(.data)
    bEcatOutputUpdateRunning                 0x20000335   Data           1  ecatslv.o(.data)
    bEcatInputUpdateRunning                  0x20000336   Data           1  ecatslv.o(.data)
    bEcatFirstOutputsReceived                0x20000337   Data           1  ecatslv.o(.data)
    bWdTrigger                               0x20000338   Data           1  ecatslv.o(.data)
    bDcSyncActive                            0x20000339   Data           1  ecatslv.o(.data)
    bEscIntEnabled                           0x2000033a   Data           1  ecatslv.o(.data)
    b3BufferMode                             0x2000033b   Data           1  ecatslv.o(.data)
    bLocalErrorFlag                          0x2000033c   Data           1  ecatslv.o(.data)
    bApplEsmPending                          0x2000033d   Data           1  ecatslv.o(.data)
    bEcatWaitForAlControlRes                 0x2000033e   Data           1  ecatslv.o(.data)
    nMaxSyncMan                              0x2000033f   Data           1  ecatslv.o(.data)
    nAlStatus                                0x20000340   Data           1  ecatslv.o(.data)
    SMActivate                               0x20000342   Data           2  ecatslv.o(.data)
    EsmTimeoutCounter                        0x20000344   Data           2  ecatslv.o(.data)
    u16LocalErrorCode                        0x20000346   Data           2  ecatslv.o(.data)
    nEcatStateTrans                          0x20000348   Data           2  ecatslv.o(.data)
    nPdInputSize                             0x2000034a   Data           2  ecatslv.o(.data)
    nPdOutputSize                            0x2000034c   Data           2  ecatslv.o(.data)
    nMaxEscAddress                           0x2000034e   Data           2  ecatslv.o(.data)
    EcatWdValue                              0x20000350   Data           2  ecatslv.o(.data)
    nEscAddrOutputData                       0x20000352   Data           2  ecatslv.o(.data)
    nEscAddrInputData                        0x20000354   Data           2  ecatslv.o(.data)
    u16ALEventMask                           0x20000356   Data           2  ecatslv.o(.data)
    u16dummy                                 0x20000358   Data           2  ecatslv.o(.data)
    SyncManInfo                              0x2000035a   Data           8  ecatslv.o(.data)
    bReceiveMbxIsLocked                      0x20000364   Data           1  mailbox.o(.data)
    bSendMbxIsFull                           0x20000365   Data           1  mailbox.o(.data)
    bMbxRunning                              0x20000366   Data           1  mailbox.o(.data)
    bMbxRepeatToggle                         0x20000367   Data           1  mailbox.o(.data)
    u8MbxWriteCounter                        0x20000368   Data           1  mailbox.o(.data)
    u8MbxReadCounter                         0x20000369   Data           1  mailbox.o(.data)
    u8MailboxSendReqStored                   0x2000036a   Data           1  mailbox.o(.data)
    bNoMbxMemoryAvailable                    0x2000036b   Data           1  mailbox.o(.data)
    u16SendMbxSize                           0x2000036c   Data           2  mailbox.o(.data)
    u16ReceiveMbxSize                        0x2000036e   Data           2  mailbox.o(.data)
    u16EscAddrReceiveMbx                     0x20000370   Data           2  mailbox.o(.data)
    u16EscAddrSendMbx                        0x20000372   Data           2  mailbox.o(.data)
    psWriteMbx                               0x20000374   Data           4  mailbox.o(.data)
    psReadMbx                                0x20000378   Data           4  mailbox.o(.data)
    psRepeatMbx                              0x2000037c   Data           4  mailbox.o(.data)
    psStoreMbx                               0x20000380   Data           4  mailbox.o(.data)
    sErrorSettings                           0x20000384   Data          12  objdef.o(.data)
    bSyncSetByUser                           0x20000390   Data           1  objdef.o(.data)
    aSubindexDesc                            0x20000391   Data          13  objdef.o(.data)
    sCycleDiag                               0x2000039e   Data           2  objdef.o(.data)
    bSdoInWork                               0x200003a0   Data           1  sdoserv.o(.data)
    u8PendingSdo                             0x200003a1   Data           1  sdoserv.o(.data)
    bStoreCompleteAccess                     0x200003a2   Data           1  sdoserv.o(.data)
    u8StoreSubindex                          0x200003a3   Data           1  sdoserv.o(.data)
    nSdoSegService                           0x200003a4   Data           1  sdoserv.o(.data)
    bSdoSegFollows                           0x200003a5   Data           1  sdoserv.o(.data)
    bSdoSegAccess                            0x200003a6   Data           1  sdoserv.o(.data)
    nSdoSegSubindex                          0x200003a7   Data           1  sdoserv.o(.data)
    bSdoSegLastToggle                        0x200003a8   Data           1  sdoserv.o(.data)
    u16StoreIndex                            0x200003aa   Data           2  sdoserv.o(.data)
    nSdoInfoFragmentsLeft                    0x200003ac   Data           2  sdoserv.o(.data)
    nSdoInfoIndex                            0x200003ae   Data           2  sdoserv.o(.data)
    nSdoSegIndex                             0x200003b0   Data           2  sdoserv.o(.data)
    u32StoreDataSize                         0x200003b4   Data           4  sdoserv.o(.data)
    pStoreData                               0x200003b8   Data           4  sdoserv.o(.data)
    pSdoPendFunc                             0x200003bc   Data           4  sdoserv.o(.data)
    pSdoSegData                              0x200003c0   Data           4  sdoserv.o(.data)
    pSdoResStored                            0x200003c4   Data           4  sdoserv.o(.data)
    nSdoSegBytesToHandle                     0x200003c8   Data           4  sdoserv.o(.data)
    nSdoSegCompleteSize                      0x200003cc   Data           4  sdoserv.o(.data)
    pSdoSegObjEntry                          0x200003d0   Data           4  sdoserv.o(.data)
    pSdoInfoObjEntry                         0x200003d4   Data           4  sdoserv.o(.data)
    gbCaptureCnt                             0x200003da   Data           1  if_system.o(.data)
    gwPeriodValue                            0x200003dc   Data           2  if_system.o(.data)
    gyAdcUpdataFlag                          0x200003e6   Data           1  if_addamodule.o(.data)
    SystemCoreClock                          0x200003e8   Data           4  system_stm32f4xx.o(.data)
    AHBPrescTable                            0x200003ec   Data          16  system_stm32f4xx.o(.data)
    OutputProcessDataMapping0x1600           0x200003fc   Data         228  task_ethercat.o(.data)
    InputProcessDataMapping0x1A00            0x200004e0   Data         228  task_ethercat.o(.data)
    sRxPDOassign                             0x200005c6   Data           4  task_ethercat.o(.data)
    sTxPDOassign                             0x200005ca   Data           4  task_ethercat.o(.data)
    Input0x6000                              0x200005d8   Data          20  task_ethercat.o(.data)
    Output0x7000                             0x200005ec   Data          20  task_ethercat.o(.data)
    __stdout                                 0x20000610   Data           4  stdout.o(.data)
    __microlib_freelist                      0x20000614   Data           4  mvars.o(.data)
    __microlib_freelist_initialised          0x20000618   Data           4  mvars.o(.data)
    aPdOutputData                            0x2000061c   Data          68  ecatappl.o(.bss)
    aPdInputData                             0x20000660   Data          68  ecatappl.o(.bss)
    asMbx                                    0x200006a4   Data         512  mailbox.o(.bss)
    sMbxSendQueue                            0x200008a4   Data          52  mailbox.o(.bss)
    sMbxReceiveQueue                         0x200008d8   Data          52  mailbox.o(.bss)
    sSyncManOutPar                           0x2000090c   Data          68  objdef.o(.bss)
    sSyncManInPar                            0x20000950   Data          68  objdef.o(.bss)
    aSdoInfoHeader                           0x20000994   Data          14  sdoserv.o(.bss)
    gtEterhCatBusIODatas                     0x20000a28   Data          12  task_ethercat.o(.bss)
    __heap_base                              0x20000a60   Data           0  startup_stm32f40_41xxx.o(HEAP)
    __heap_limit                             0x20000e60   Data           0  startup_stm32f40_41xxx.o(HEAP)
    __initial_sp                             0x20001e60   Data           0  startup_stm32f40_41xxx.o(STACK)



==============================================================================

Memory Map of the image

  Image Entry point : 0x08000189

  Load Region LR_IROM1 (Base: 0x08000000, Size: 0x00006f64, Max: 0x00100000, ABSOLUTE, COMPRESSED[0x00006c18])

    Execution Region ER_IROM1 (Exec base: 0x08000000, Load base: 0x08000000, Size: 0x00006948, Max: 0x00100000, ABSOLUTE)

    Exec Addr    Load Addr    Size         Type   Attr      Idx    E Section Name        Object

    0x08000000   0x08000000   0x00000188   Data   RO         1737    RESET               startup_stm32f40_41xxx.o
    0x08000188   0x08000188   0x00000000   Code   RO         3588  * .ARM.Collect$$$$00000000  mc_w.l(entry.o)
    0x08000188   0x08000188   0x00000004   Code   RO         3892    .ARM.Collect$$$$00000001  mc_w.l(entry2.o)
    0x0800018c   0x0800018c   0x00000004   Code   RO         3895    .ARM.Collect$$$$00000004  mc_w.l(entry5.o)
    0x08000190   0x08000190   0x00000000   Code   RO         3897    .ARM.Collect$$$$00000008  mc_w.l(entry7b.o)
    0x08000190   0x08000190   0x00000000   Code   RO         3899    .ARM.Collect$$$$0000000A  mc_w.l(entry8b.o)
    0x08000190   0x08000190   0x00000008   Code   RO         3900    .ARM.Collect$$$$0000000B  mc_w.l(entry9a.o)
    0x08000198   0x08000198   0x00000000   Code   RO         3902    .ARM.Collect$$$$0000000D  mc_w.l(entry10a.o)
    0x08000198   0x08000198   0x00000000   Code   RO         3904    .ARM.Collect$$$$0000000F  mc_w.l(entry11a.o)
    0x08000198   0x08000198   0x00000004   Code   RO         3893    .ARM.Collect$$$$00002712  mc_w.l(entry2.o)
    0x0800019c   0x0800019c   0x0000001c   Code   RO         1595    .emb_text           stm32f4xx_it.o
    0x080001b8   0x080001b8   0x0000002c   Code   RO         1738    .text               startup_stm32f40_41xxx.o
    0x080001e4   0x080001e4   0x00000024   Code   RO         3591    .text               mc_w.l(memcpya.o)
    0x08000208   0x08000208   0x0000000e   Code   RO         3593    .text               mc_w.l(strlen.o)
    0x08000216   0x08000216   0x00000018   Code   RO         3886    .text               mf_w.l(fscalb.o)
    0x0800022e   0x0800022e   0x0000000a   Code   RO         3888    .text               mf_w.l(ffltui.o)
    0x08000238   0x08000238   0x00000028   Code   RO         3890    .text               mf_w.l(ffixui.o)
    0x08000260   0x08000260   0x00000062   Code   RO         3909    .text               mc_w.l(uldiv.o)
    0x080002c2   0x080002c2   0x00000000   Code   RO         3913    .text               mc_w.l(iusefp.o)
    0x080002c2   0x080002c2   0x0000006e   Code   RO         3914    .text               mf_w.l(fepilogue.o)
    0x08000330   0x08000330   0x00000024   Code   RO         3926    .text               mc_w.l(init.o)
    0x08000354   0x08000354   0x0000001e   Code   RO         3928    .text               mc_w.l(llshl.o)
    0x08000372   0x08000372   0x00000020   Code   RO         3930    .text               mc_w.l(llushr.o)
    0x08000392   0x08000392   0x00000056   Code   RO         3944    .text               mc_w.l(__dczerorl2.o)
    0x080003e8   0x080003e8   0x00000420   Code   RO          766    i.AL_ControlInd     ecatslv.o
    0x08000808   0x08000808   0x00000164   Code   RO          767    i.AL_ControlRes     ecatslv.o
    0x0800096c   0x0800096c   0x00000002   Code   RO         1745    i.APPL_AckErrorInd  task_ethercat.o
    0x0800096e   0x0800096e   0x00000002   PAD
    0x08000970   0x08000970   0x000000f8   Code   RO         1746    i.APPL_GenerateMapping  task_ethercat.o
    0x08000a68   0x08000a68   0x00000020   Code   RO         1747    i.APPL_InputMapping  task_ethercat.o
    0x08000a88   0x08000a88   0x00000028   Code   RO         1748    i.APPL_OutputMapping  task_ethercat.o
    0x08000ab0   0x08000ab0   0x00000004   Code   RO         1749    i.APPL_StartInputHandler  task_ethercat.o
    0x08000ab4   0x08000ab4   0x00000004   Code   RO         1750    i.APPL_StartMailboxHandler  task_ethercat.o
    0x08000ab8   0x08000ab8   0x00000004   Code   RO         1751    i.APPL_StartOutputHandler  task_ethercat.o
    0x08000abc   0x08000abc   0x00000004   Code   RO         1752    i.APPL_StopInputHandler  task_ethercat.o
    0x08000ac0   0x08000ac0   0x00000004   Code   RO         1753    i.APPL_StopMailboxHandler  task_ethercat.o
    0x08000ac4   0x08000ac4   0x00000004   Code   RO         1754    i.APPL_StopOutputHandler  task_ethercat.o
    0x08000ac8   0x08000ac8   0x00000088   Code   RO          489    i.AddObjectsToObjDictionary  coeappl.o
    0x08000b50   0x08000b50   0x00000002   Code   RO         1596    i.BusFault_Handler  stm32f4xx_it.o
    0x08000b52   0x08000b52   0x00000002   PAD
    0x08000b54   0x08000b54   0x0000005c   Code   RO          491    i.COE_ClearObjDictionary  coeappl.o
    0x08000bb0   0x08000bb0   0x00000048   Code   RO          729    i.COE_ContinueInd   ecatcoe.o
    0x08000bf8   0x08000bf8   0x0000000c   Code   RO          492    i.COE_GetObjectDictionary  coeappl.o
    0x08000c04   0x08000c04   0x00000014   Code   RO          730    i.COE_Init          ecatcoe.o
    0x08000c18   0x08000c18   0x000000c0   Code   RO          493    i.COE_Main          coeappl.o
    0x08000cd8   0x08000cd8   0x000000b8   Code   RO          495    i.COE_ObjInit       coeappl.o
    0x08000d90   0x08000d90   0x00000026   Code   RO          731    i.COE_ServiceInd    ecatcoe.o
    0x08000db6   0x08000db6   0x00000002   PAD
    0x08000db8   0x08000db8   0x00000050   Code   RO          769    i.CheckIfEcatError  ecatslv.o
    0x08000e08   0x08000e08   0x000001ec   Code   RO          770    i.CheckSmSettings   ecatslv.o
    0x08000ff4   0x08000ff4   0x00000002   Code   RO         1597    i.DebugMon_Handler  stm32f4xx_it.o
    0x08000ff6   0x08000ff6   0x00000032   Code   RO          771    i.DisableSyncManChannel  ecatslv.o
    0x08001028   0x08001028   0x000000e0   Code   RO          772    i.ECAT_Init         ecatslv.o
    0x08001108   0x08001108   0x0000012c   Code   RO          773    i.ECAT_Main         ecatslv.o
    0x08001234   0x08001234   0x00000004   Code   RO         1598    i.EXTI3_IRQHandler  stm32f4xx_it.o
    0x08001238   0x08001238   0x0000000c   Code   RO         2100    i.EXTI_ClearITPendingBit  Stm32f4xxLib.lib(stm32f4xx_exti.o)
    0x08001244   0x08001244   0x00000018   Code   RO         2104    i.EXTI_GetITStatus  Stm32f4xxLib.lib(stm32f4xx_exti.o)
    0x0800125c   0x0800125c   0x00000094   Code   RO         2105    i.EXTI_Init         Stm32f4xxLib.lib(stm32f4xx_exti.o)
    0x080012f0   0x080012f0   0x00000030   Code   RO          775    i.EnableSyncManChannel  ecatslv.o
    0x08001320   0x08001320   0x00000090   Code   RO         2166    i.GPIO_Init         Stm32f4xxLib.lib(stm32f4xx_gpio.o)
    0x080013b0   0x080013b0   0x00000046   Code   RO         2167    i.GPIO_PinAFConfig  Stm32f4xxLib.lib(stm32f4xx_gpio.o)
    0x080013f6   0x080013f6   0x00000026   Code   RO          920    i.GetOutOfMbxQueue  mailbox.o
    0x0800141c   0x0800141c   0x0000001c   Code   RO          776    i.GetSyncMan        ecatslv.o
    0x08001438   0x08001438   0x00000070   Code   RO         1197    i.HW_EscRead        if_ethercat.o
    0x080014a8   0x080014a8   0x0000005c   Code   RO         1198    i.HW_EscReadIsr     if_ethercat.o
    0x08001504   0x08001504   0x00000064   Code   RO         1199    i.HW_EscWrite       if_ethercat.o
    0x08001568   0x08001568   0x00000050   Code   RO         1200    i.HW_EscWriteIsr    if_ethercat.o
    0x080015b8   0x080015b8   0x00000060   Code   RO         1201    i.HW_GetALEventRegister  if_ethercat.o
    0x08001618   0x08001618   0x00000058   Code   RO         1202    i.HW_GetALEventRegister_Isr  if_ethercat.o
    0x08001670   0x08001670   0x00000064   Code   RO          639    i.HandleBusCycleCalculation  ecatappl.o
    0x080016d4   0x080016d4   0x000000c8   Code   RO         1599    i.Hard_Fault_Handler  stm32f4xx_it.o
    0x0800179c   0x0800179c   0x000000d4   Code   RO          921    i.MBX_CheckAndCopyMailbox  mailbox.o
    0x08001870   0x08001870   0x000000c0   Code   RO          922    i.MBX_CopyToSendMailbox  mailbox.o
    0x08001930   0x08001930   0x00000070   Code   RO          923    i.MBX_Init          mailbox.o
    0x080019a0   0x080019a0   0x00000064   Code   RO          924    i.MBX_MailboxReadInd  mailbox.o
    0x08001a04   0x08001a04   0x00000040   Code   RO          925    i.MBX_MailboxRepeatReq  mailbox.o
    0x08001a44   0x08001a44   0x00000098   Code   RO          926    i.MBX_MailboxSendReq  mailbox.o
    0x08001adc   0x08001adc   0x0000008c   Code   RO          927    i.MBX_MailboxWriteInd  mailbox.o
    0x08001b68   0x08001b68   0x00000078   Code   RO          928    i.MBX_Main          mailbox.o
    0x08001be0   0x08001be0   0x00000074   Code   RO          929    i.MBX_StartMailboxHandler  mailbox.o
    0x08001c54   0x08001c54   0x000000e4   Code   RO          930    i.MBX_StopMailboxHandler  mailbox.o
    0x08001d38   0x08001d38   0x00000020   Code   RO          640    i.MainInit          ecatappl.o
    0x08001d58   0x08001d58   0x000000dc   Code   RO          641    i.MainLoop          ecatappl.o
    0x08001e34   0x08001e34   0x00000002   Code   RO         1600    i.MemManage_Handler  stm32f4xx_it.o
    0x08001e36   0x08001e36   0x00000002   Code   RO         1601    i.NMI_Handler       stm32f4xx_it.o
    0x08001e38   0x08001e38   0x00000078   Code   RO         2051    i.NVIC_Init         Stm32f4xxLib.lib(misc.o)
    0x08001eb0   0x08001eb0   0x00000014   Code   RO         2052    i.NVIC_PriorityGroupConfig  Stm32f4xxLib.lib(misc.o)
    0x08001ec4   0x08001ec4   0x00000128   Code   RO         1032    i.OBJ_GetDesc       objdef.o
    0x08001fec   0x08001fec   0x0000001e   Code   RO         1033    i.OBJ_GetEntryDesc  objdef.o
    0x0800200a   0x0800200a   0x000000e2   Code   RO         1034    i.OBJ_GetEntryOffset  objdef.o
    0x080020ec   0x080020ec   0x00000072   Code   RO         1035    i.OBJ_GetNoOfObjects  objdef.o
    0x0800215e   0x0800215e   0x00000004   Code   RO         1036    i.OBJ_GetObjDesc    objdef.o
    0x08002162   0x08002162   0x0000001c   Code   RO         1037    i.OBJ_GetObjectHandle  objdef.o
    0x0800217e   0x0800217e   0x000000aa   Code   RO         1038    i.OBJ_GetObjectLength  objdef.o
    0x08002228   0x08002228   0x000000b8   Code   RO         1039    i.OBJ_GetObjectList  objdef.o
    0x080022e0   0x080022e0   0x000003f8   Code   RO         1040    i.OBJ_Read          objdef.o
    0x080026d8   0x080026d8   0x0000046c   Code   RO         1041    i.OBJ_Write         objdef.o
    0x08002b44   0x08002b44   0x0000010c   Code   RO          642    i.PDI_Isr           ecatappl.o
    0x08002c50   0x08002c50   0x00000028   Code   RO          643    i.PDO_InputMapping  ecatappl.o
    0x08002c78   0x08002c78   0x00000002   Code   RO         1602    i.PendSV_Handler    stm32f4xx_it.o
    0x08002c7a   0x08002c7a   0x00000002   PAD
    0x08002c7c   0x08002c7c   0x00000020   Code   RO         2278    i.RCC_APB1PeriphResetCmd  Stm32f4xxLib.lib(stm32f4xx_rcc.o)
    0x08002c9c   0x08002c9c   0x00000020   Code   RO         2281    i.RCC_APB2PeriphResetCmd  Stm32f4xxLib.lib(stm32f4xx_rcc.o)
    0x08002cbc   0x08002cbc   0x00000440   Code   RO         1132    i.SDOS_SdoInd       sdoserv.o
    0x080030fc   0x080030fc   0x0000028c   Code   RO         1133    i.SDOS_SdoInfoInd   sdoserv.o
    0x08003388   0x08003388   0x000000a4   Code   RO         1134    i.SDOS_SdoRes       sdoserv.o
    0x0800342c   0x0800342c   0x00000018   Code   RO         2611    i.SPI_Cmd           Stm32f4xxLib.lib(stm32f4xx_spi.o)
    0x08003444   0x08003444   0x00000012   Code   RO         2619    i.SPI_I2S_GetFlagStatus  Stm32f4xxLib.lib(stm32f4xx_spi.o)
    0x08003456   0x08003456   0x00000006   Code   RO         2622    i.SPI_I2S_ReceiveData  Stm32f4xxLib.lib(stm32f4xx_spi.o)
    0x0800345c   0x0800345c   0x00000004   Code   RO         2623    i.SPI_I2S_SendData  Stm32f4xxLib.lib(stm32f4xx_spi.o)
    0x08003460   0x08003460   0x0000003c   Code   RO         2624    i.SPI_Init          Stm32f4xxLib.lib(stm32f4xx_spi.o)
    0x0800349c   0x0800349c   0x00000002   Code   RO         1603    i.SVC_Handler       stm32f4xx_it.o
    0x0800349e   0x0800349e   0x00000002   PAD
    0x080034a0   0x080034a0   0x00000040   Code   RO         2776    i.SYSCFG_EXTILineConfig  Stm32f4xxLib.lib(stm32f4xx_syscfg.o)
    0x080034e0   0x080034e0   0x000001bc   Code   RO         1135    i.SdoDownloadSegmentInd  sdoserv.o
    0x0800369c   0x0800369c   0x000000c0   Code   RO         1136    i.SdoRes            sdoserv.o
    0x0800375c   0x0800375c   0x00000040   Code   RO          779    i.SetALStatus       ecatslv.o
    0x0800379c   0x0800379c   0x0000027c   Code   RO          780    i.StartInputHandler  ecatslv.o
    0x08003a18   0x08003a18   0x0000005c   Code   RO          782    i.StopInputHandler  ecatslv.o
    0x08003a74   0x08003a74   0x00000028   Code   RO         2055    i.SysTick_CLKSourceConfig  Stm32f4xxLib.lib(misc.o)
    0x08003a9c   0x08003a9c   0x00000002   Code   RO         1604    i.SysTick_Handler   stm32f4xx_it.o
    0x08003a9e   0x08003a9e   0x00000002   PAD
    0x08003aa0   0x08003aa0   0x00000084   Code   RO         1702    i.SystemCoreClockUpdate  system_stm32f4xx.o
    0x08003b24   0x08003b24   0x0000011c   Code   RO         1703    i.SystemInit        system_stm32f4xx.o
    0x08003c40   0x08003c40   0x00000004   Code   RO         1605    i.TIM5_IRQHandler   stm32f4xx_it.o
    0x08003c44   0x08003c44   0x00000004   Code   RO         1606    i.TIM6_DAC_IRQHandler  stm32f4xx_it.o
    0x08003c48   0x08003c48   0x00000004   Code   RO         1607    i.TIM7_IRQHandler   stm32f4xx_it.o
    0x08003c4c   0x08003c4c   0x00000006   Code   RO         2844    i.TIM_ClearITPendingBit  Stm32f4xxLib.lib(stm32f4xx_tim.o)
    0x08003c52   0x08003c52   0x00000018   Code   RO         2849    i.TIM_Cmd           Stm32f4xxLib.lib(stm32f4xx_tim.o)
    0x08003c6a   0x08003c6a   0x00000002   PAD
    0x08003c6c   0x08003c6c   0x00000190   Code   RO         2854    i.TIM_DeInit        Stm32f4xxLib.lib(stm32f4xx_tim.o)
    0x08003dfc   0x08003dfc   0x00000006   Code   RO         2867    i.TIM_GetCapture4   Stm32f4xxLib.lib(stm32f4xx_tim.o)
    0x08003e02   0x08003e02   0x00000022   Code   RO         2870    i.TIM_GetITStatus   Stm32f4xxLib.lib(stm32f4xx_tim.o)
    0x08003e24   0x08003e24   0x00000012   Code   RO         2874    i.TIM_ITConfig      Stm32f4xxLib.lib(stm32f4xx_tim.o)
    0x08003e36   0x08003e36   0x00000002   PAD
    0x08003e38   0x08003e38   0x00000084   Code   RO         2921    i.TIM_TimeBaseInit  Stm32f4xxLib.lib(stm32f4xx_tim.o)
    0x08003ebc   0x08003ebc   0x0000001a   Code   RO         3406    i.USART_GetFlagStatus  Stm32f4xxLib.lib(stm32f4xx_usart.o)
    0x08003ed6   0x08003ed6   0x00000008   Code   RO         3420    i.USART_SendData    Stm32f4xxLib.lib(stm32f4xx_usart.o)
    0x08003ede   0x08003ede   0x00000002   Code   RO         1608    i.UsageFault_Handler  stm32f4xx_it.o
    0x08003ee0   0x08003ee0   0x00000020   Code   RO         3730    i.__0printf$5       mc_w.l(printf5.o)
    0x08003f00   0x08003f00   0x0000000a   Code   RO         1010    i.__ARM_common_memclr4_10  mailbox.o
    0x08003f0a   0x08003f0a   0x00000008   Code   RO         1958    i.__ARM_common_memclr4_8  task_sys.o
    0x08003f12   0x08003f12   0x0000000e   Code   RO         3938    i.__scatterload_copy  mc_w.l(handlers.o)
    0x08003f20   0x08003f20   0x00000002   Code   RO         3939    i.__scatterload_null  mc_w.l(handlers.o)
    0x08003f22   0x08003f22   0x0000000e   Code   RO         3940    i.__scatterload_zeroinit  mc_w.l(handlers.o)
    0x08003f30   0x08003f30   0x000002c0   Code   RO         3737    i._printf_core      mc_w.l(printf5.o)
    0x080041f0   0x080041f0   0x00000070   Code   RO         1755    i.cbAPPL_Application  task_ethercat.o
    0x08004260   0x08004260   0x00000024   Code   RO         1499    i.fputc             if_ucom.o
    0x08004284   0x08004284   0x00000050   Code   RO         3858    i.free              mc_w.l(malloc.o)
    0x080042d4   0x080042d4   0x00000068   Code   RO         1542    i.gbIF_ADC_ChnSet   if_addamodule.o
    0x0800433c   0x0800433c   0x00000034   Code   RO         1266    i.gbIF_SPI_EtherCatReadWrite  if_spi.o
    0x08004370   0x08004370   0x0000000c   Code   RO         1756    i.geTask_EthercatStatusRtn  task_ethercat.o
    0x0800437c   0x0800437c   0x0000000c   Code   RO         1893    i.geTask_SysStatusRtn  task_sys.o
    0x08004388   0x08004388   0x0000000c   Code   RO         1970    i.geTask_TimerStatusRtn  task_timer.o
    0x08004394   0x08004394   0x00000008   Code   RO         1543    i.gpbIF_ADC_ResultBuffRtn  if_addamodule.o
    0x0800439c   0x0800439c   0x00000024   Code   RO          320    i.gvCtrl_EthercatMain  ctrl_ethercat.o
    0x080043c0   0x080043c0   0x00000034   Code   RO          266    i.gvCtrl_MainFun    ctrl.o
    0x080043f4   0x080043f4   0x00000010   Code   RO          267    i.gvCtrl_RequestSet  ctrl.o
    0x08004404   0x08004404   0x00000024   Code   RO          394    i.gvCtrl_SysMain    ctrl_sys.o
    0x08004428   0x08004428   0x00000004   Code   RO         1267    i.gvIF_AdcSpiCmd    if_spi.o
    0x0800442c   0x0800442c   0x00000070   Code   RO         1544    i.gvIF_DAC_Output   if_addamodule.o
    0x0800449c   0x0800449c   0x00000198   Code   RO         1268    i.gvIF_SPIAdcConfig  if_spi.o
    0x08004634   0x08004634   0x000000f4   Code   RO         1269    i.gvIF_SPIDacConfig  if_spi.o
    0x08004728   0x08004728   0x000000f8   Code   RO         1270    i.gvIF_SPIEtherCatConfig  if_spi.o
    0x08004820   0x08004820   0x000000f0   Code   RO         1334    i.gvIF_SysClockUpdate  if_system.o
    0x08004910   0x08004910   0x00000046   Code   RO         1336    i.gvIF_SysInterruptionConfig  if_system.o
    0x08004956   0x08004956   0x00000002   PAD
    0x08004958   0x08004958   0x000000a0   Code   RO         1403    i.gvIF_Timer6Init   if_timer.o
    0x080049f8   0x080049f8   0x0000005c   Code   RO         1404    i.gvIF_Timer7Init   if_timer.o
    0x08004a54   0x08004a54   0x0000003c   Code   RO         1406    i.gvIF_TimerBlockingDelayUs  if_timer.o
    0x08004a90   0x08004a90   0x0000004c   Code   RO         1757    i.gvTask_EthercatBusInit  task_ethercat.o
    0x08004adc   0x08004adc   0x00000014   Code   RO         1758    i.gvTask_EthercatCycleSet  task_ethercat.o
    0x08004af0   0x08004af0   0x00000030   Code   RO         1759    i.gvTask_EthercatHWInit  task_ethercat.o
    0x08004b20   0x08004b20   0x00000014   Code   RO         1760    i.gvTask_EthercatMainInit  task_ethercat.o
    0x08004b34   0x08004b34   0x00000010   Code   RO         1761    i.gvTask_EthercatProcess  task_ethercat.o
    0x08004b44   0x08004b44   0x00000090   Code   RO         1894    i.gvTask_SysAdcDacModuleInit  task_sys.o
    0x08004bd4   0x08004bd4   0x00000020   Code   RO         1895    i.gvTask_SysConfiguration  task_sys.o
    0x08004bf4   0x08004bf4   0x00000034   Code   RO         1897    i.gvTask_SysPorcess  task_sys.o
    0x08004c28   0x08004c28   0x00000010   Code   RO         1898    i.gvTask_System     task_sys.o
    0x08004c38   0x08004c38   0x00000020   Code   RO         1971    i.gvTask_TimerClockOutput  task_timer.o
    0x08004c58   0x08004c58   0x00000018   Code   RO         1974    i.gvTask_TimerInit  task_timer.o
    0x08004c70   0x08004c70   0x00000038   Code   RO         1545    i.gvcbIF_ADC_DrdyIRQHandler  if_addamodule.o
    0x08004ca8   0x08004ca8   0x00000004   Code   RO         1337    i.gvcbIF_SysOutputIOConfig  if_system.o
    0x08004cac   0x08004cac   0x0000005c   Code   RO         1338    i.gvcbIF_TIM5_IRQHandler  if_system.o
    0x08004d08   0x08004d08   0x00000058   Code   RO         1410    i.gvcbIF_Timer6_IRQHandler  if_timer.o
    0x08004d60   0x08004d60   0x00000048   Code   RO         1411    i.gvcbIF_Timer7_IRQHandler  if_timer.o
    0x08004da8   0x08004da8   0x00000044   Code   RO         1271    i.gwIF_SPI_AdcRead  if_spi.o
    0x08004dec   0x08004dec   0x00000038   Code   RO         1272    i.gyIF_SPI_DacWrite  if_spi.o
    0x08004e24   0x08004e24   0x00000028   Code   RO         1413    i.gyIF_TimerEventSet  if_timer.o
    0x08004e4c   0x08004e4c   0x00000038   Code   RO         1899    i.luTask_SysDacValueGet  task_sys.o
    0x08004e84   0x08004e84   0x00000018   Code   RO          321    i.lvCtrl_EscBusInit  ctrl_ethercat.o
    0x08004e9c   0x08004e9c   0x00000028   Code   RO          322    i.lvCtrl_EscBusInitEnd  ctrl_ethercat.o
    0x08004ec4   0x08004ec4   0x00000020   Code   RO          323    i.lvCtrl_EscBusResult  ctrl_ethercat.o
    0x08004ee4   0x08004ee4   0x00000018   Code   RO          324    i.lvCtrl_EscBusStart  ctrl_ethercat.o
    0x08004efc   0x08004efc   0x00000018   Code   RO          325    i.lvCtrl_EscHWInit  ctrl_ethercat.o
    0x08004f14   0x08004f14   0x00000020   Code   RO          326    i.lvCtrl_EscHWInitEnd  ctrl_ethercat.o
    0x08004f34   0x08004f34   0x00000018   Code   RO          327    i.lvCtrl_EscMainInit  ctrl_ethercat.o
    0x08004f4c   0x08004f4c   0x00000020   Code   RO          328    i.lvCtrl_EscMainInitEnd  ctrl_ethercat.o
    0x08004f6c   0x08004f6c   0x0000001c   Code   RO          395    i.lvCtrl_SysInit    ctrl_sys.o
    0x08004f88   0x08004f88   0x00000020   Code   RO          396    i.lvCtrl_SysInitEnd  ctrl_sys.o
    0x08004fa8   0x08004fa8   0x00000018   Code   RO          397    i.lvCtrl_SysModuleInit  ctrl_sys.o
    0x08004fc0   0x08004fc0   0x00000020   Code   RO          398    i.lvCtrl_SysModuleInitEnd  ctrl_sys.o
    0x08004fe0   0x08004fe0   0x00000018   Code   RO          399    i.lvCtrl_SysMontior  ctrl_sys.o
    0x08004ff8   0x08004ff8   0x00000020   Code   RO          400    i.lvCtrl_SysMontiorResult  ctrl_sys.o
    0x08005018   0x08005018   0x00000018   Code   RO          401    i.lvCtrl_SysTimerInit  ctrl_sys.o
    0x08005030   0x08005030   0x00000020   Code   RO          402    i.lvCtrl_SysTimerInitEnd  ctrl_sys.o
    0x08005050   0x08005050   0x000000b8   Code   RO         1339    i.lvIF_SysOutputIOConfig  if_system.o
    0x08005108   0x08005108   0x00000010   Code   RO         1975    i.lvTask_ClockOutputByGpio  task_timer.o
    0x08005118   0x08005118   0x00000018   Code   RO         1762    i.lvTask_ESC_Monitor  task_ethercat.o
    0x08005130   0x08005130   0x000001a4   Code   RO         1900    i.lvTask_SysNormalWork  task_sys.o
    0x080052d4   0x080052d4   0x00000010   Code   RO         1901    i.lvTask_SysStateLed  task_sys.o
    0x080052e4   0x080052e4   0x00000014   Code   RO            4    i.main              main.o
    0x080052f8   0x080052f8   0x0000006c   Code   RO         3859    i.malloc            mc_w.l(malloc.o)
    0x08005364   0x08005364   0x00000156   Data   RO          497    .constdata          coeappl.o
    0x080054ba   0x080054ba   0x000002f6   Data   RO          498    .constdata          coeappl.o
    0x080057b0   0x080057b0   0x00000156   Data   RO          499    .constdata          coeappl.o
    0x08005906   0x08005906   0x000002f5   Data   RO          500    .constdata          coeappl.o
    0x08005bfb   0x08005bfb   0x00000001   PAD
    0x08005bfc   0x08005bfc   0x0000000c   Data   RO          501    .constdata          coeappl.o
    0x08005c08   0x08005c08   0x0000001b   Data   RO          502    .constdata          coeappl.o
    0x08005c23   0x08005c23   0x00000001   PAD
    0x08005c24   0x08005c24   0x0000000c   Data   RO          503    .constdata          coeappl.o
    0x08005c30   0x08005c30   0x0000001b   Data   RO          504    .constdata          coeappl.o
    0x08005c4b   0x08005c4b   0x00000001   PAD
    0x08005c4c   0x08005c4c   0x00000156   Data   RO          505    .constdata          coeappl.o
    0x08005da2   0x08005da2   0x000002b2   Data   RO          506    .constdata          coeappl.o
    0x08006054   0x08006054   0x00000156   Data   RO          507    .constdata          coeappl.o
    0x080061aa   0x080061aa   0x000002eb   Data   RO          508    .constdata          coeappl.o
    0x08006495   0x08006495   0x00000001   PAD
    0x08006496   0x08006496   0x00000006   Data   RO          509    .constdata          coeappl.o
    0x0800649c   0x0800649c   0x0000000c   Data   RO          510    .constdata          coeappl.o
    0x080064a8   0x080064a8   0x00000006   Data   RO          511    .constdata          coeappl.o
    0x080064ae   0x080064ae   0x0000000f   Data   RO          512    .constdata          coeappl.o
    0x080064bd   0x080064bd   0x00000001   PAD
    0x080064be   0x080064be   0x00000006   Data   RO          513    .constdata          coeappl.o
    0x080064c4   0x080064c4   0x0000000c   Data   RO          514    .constdata          coeappl.o
    0x080064d0   0x080064d0   0x00000006   Data   RO          515    .constdata          coeappl.o
    0x080064d6   0x080064d6   0x00000011   Data   RO          516    .constdata          coeappl.o
    0x080064e7   0x080064e7   0x00000001   PAD
    0x080064e8   0x080064e8   0x00000006   Data   RO          517    .constdata          coeappl.o
    0x080064ee   0x080064ee   0x00000011   Data   RO          518    .constdata          coeappl.o
    0x080064ff   0x080064ff   0x00000001   PAD
    0x08006500   0x08006500   0x0000001e   Data   RO          519    .constdata          coeappl.o
    0x0800651e   0x0800651e   0x00000039   Data   RO          520    .constdata          coeappl.o
    0x08006557   0x08006557   0x00000001   PAD
    0x08006558   0x08006558   0x00000012   Data   RO          521    .constdata          coeappl.o
    0x0800656a   0x0800656a   0x0000003f   Data   RO          522    .constdata          coeappl.o
    0x080065a9   0x080065a9   0x00000001   PAD
    0x080065aa   0x080065aa   0x0000000c   Data   RO          523    .constdata          coeappl.o
    0x080065b6   0x080065b6   0x00000012   Data   RO          524    .constdata          coeappl.o
    0x080065c8   0x080065c8   0x000000c6   Data   RO          525    .constdata          coeappl.o
    0x0800668e   0x0800668e   0x00000100   Data   RO          526    .constdata          coeappl.o
    0x0800678e   0x0800678e   0x000000ff   Data   RO          527    .constdata          coeappl.o
    0x0800688d   0x0800688d   0x00000001   PAD
    0x0800688e   0x0800688e   0x00000020   Data   RO         1043    .constdata          objdef.o
    0x080068ae   0x080068ae   0x00000002   PAD
    0x080068b0   0x080068b0   0x00000078   Data   RO         1138    .constdata          sdoserv.o
    0x08006928   0x08006928   0x00000020   Data   RO         3936    Region$$Table       anon$$obj.o


    Execution Region RW_IRAM1 (Exec base: 0x20000000, Load base: 0x08006948, Size: 0x00001e60, Max: 0x00020000, ABSOLUTE, COMPRESSED[0x000002d0])

    Exec Addr    Load Addr    Size         Type   Attr      Idx    E Section Name        Object

    0x20000000   COMPRESSED   0x00000010   Data   RW          268    .data               ctrl.o
    0x20000010   COMPRESSED   0x00000004   Data   RW          329    .data               ctrl_ethercat.o
    0x20000014   COMPRESSED   0x00000004   Data   RW          403    .data               ctrl_sys.o
    0x20000018   COMPRESSED   0x000002d4   Data   RW          528    .data               coeappl.o
    0x200002ec   COMPRESSED   0x00000004   Data   RW          529    .data               coeappl.o
    0x200002f0   COMPRESSED   0x00000002   Data   RW          530    .data               coeappl.o
    0x200002f2   COMPRESSED   0x0000000e   Data   RW          531    .data               coeappl.o
    0x20000300   COMPRESSED   0x00000005   Data   RW          532    .data               coeappl.o
    0x20000305   COMPRESSED   0x00000005   Data   RW          533    .data               coeappl.o
    0x2000030a   COMPRESSED   0x00000002   PAD
    0x2000030c   COMPRESSED   0x00000014   Data   RW          534    .data               coeappl.o
    0x20000320   COMPRESSED   0x00000006   Data   RW          535    .data               coeappl.o
    0x20000326   COMPRESSED   0x00000002   PAD
    0x20000328   COMPRESSED   0x00000008   Data   RW          646    .data               ecatappl.o
    0x20000330   COMPRESSED   0x00000004   Data   RW          732    .data               ecatcoe.o
    0x20000334   COMPRESSED   0x0000002e   Data   RW          785    .data               ecatslv.o
    0x20000362   COMPRESSED   0x00000002   PAD
    0x20000364   COMPRESSED   0x00000020   Data   RW          934    .data               mailbox.o
    0x20000384   COMPRESSED   0x0000000c   Data   RW         1044    .data               objdef.o
    0x20000390   COMPRESSED   0x0000000e   Data   RW         1045    .data               objdef.o
    0x2000039e   COMPRESSED   0x00000002   Data   RW         1046    .data               objdef.o
    0x200003a0   COMPRESSED   0x00000034   Data   RW         1139    .data               sdoserv.o
    0x200003d4   COMPRESSED   0x00000004   Data   RW         1140    .data               sdoserv.o
    0x200003d8   COMPRESSED   0x00000002   Data   RW         1204    .data               if_ethercat.o
    0x200003da   COMPRESSED   0x00000008   Data   RW         1340    .data               if_system.o
    0x200003e2   COMPRESSED   0x00000004   Data   RW         1415    .data               if_timer.o
    0x200003e6   COMPRESSED   0x00000001   Data   RW         1547    .data               if_addamodule.o
    0x200003e7   COMPRESSED   0x00000001   PAD
    0x200003e8   COMPRESSED   0x00000014   Data   RW         1704    .data               system_stm32f4xx.o
    0x200003fc   COMPRESSED   0x000000e4   Data   RW         1764    .data               task_ethercat.o
    0x200004e0   COMPRESSED   0x000000e4   Data   RW         1765    .data               task_ethercat.o
    0x200005c4   COMPRESSED   0x0000003c   Data   RW         1766    .data               task_ethercat.o
    0x20000600   COMPRESSED   0x0000000c   Data   RW         1902    .data               task_sys.o
    0x2000060c   COMPRESSED   0x00000001   Data   RW         1976    .data               task_timer.o
    0x2000060d   COMPRESSED   0x00000003   PAD
    0x20000610   COMPRESSED   0x00000004   Data   RW         3906    .data               mc_w.l(stdout.o)
    0x20000614   COMPRESSED   0x00000004   Data   RW         3911    .data               mc_w.l(mvars.o)
    0x20000618   COMPRESSED   0x00000004   Data   RW         3912    .data               mc_w.l(mvars.o)
    0x2000061c        -       0x00000088   Zero   RW          645    .bss                ecatappl.o
    0x200006a4        -       0x00000268   Zero   RW          933    .bss                mailbox.o
    0x2000090c        -       0x00000088   Zero   RW         1042    .bss                objdef.o
    0x20000994        -       0x0000000e   Zero   RW         1137    .bss                sdoserv.o
    0x200009a2   COMPRESSED   0x00000002   PAD
    0x200009a4        -       0x00000078   Zero   RW         1414    .bss                if_timer.o
    0x20000a1c        -       0x0000000c   Zero   RW         1546    .bss                if_addamodule.o
    0x20000a28        -       0x00000034   Zero   RW         1763    .bss                task_ethercat.o
    0x20000a5c   COMPRESSED   0x00000004   PAD
    0x20000a60        -       0x00000400   Zero   RW         1736    HEAP                startup_stm32f40_41xxx.o
    0x20000e60        -       0x00001000   Zero   RW         1735    STACK               startup_stm32f40_41xxx.o


==============================================================================

Image component sizes


      Code (inc. data)   RO Data    RW Data    ZI Data      Debug   Object Name

       616        108       5408        780          0      29175   coeappl.o
        68         16          0         16          0       2241   ctrl.o
       268        104          0          4          0       4566   ctrl_ethercat.o
       264        104          0          4          0       4453   ctrl_sys.o
       660        148          0          8        136       5469   ecatappl.o
       130         28          0          4          0       3115   ecatcoe.o
      3426        142          0         46          0      14604   ecatslv.o
       280         32          0          1         12       3852   if_addamodule.o
       568         48          0          2          0       6468   if_ethercat.o
      1080        102          0          0          0       6006   if_spi.o
       590         72          0          8          0       4032   if_system.o
       512         56          0          4        120       5485   if_timer.o
        36          6          0          0          0       2516   if_ucom.o
      1484         96          0         32        616      12063   mailbox.o
        20          0          0          0          0     295409   main.o
      3200        130         32         28        136      19857   objdef.o
      2540         68        120         56         14      23563   sdoserv.o
        44         12        392          0       5120        956   startup_stm32f40_41xxx.o
       260        126          0          0          0       5992   stm32f4xx_it.o
       416         54          0         20          0       2229   system_stm32f4xx.o
       674         76          0        516         52      16617   task_ethercat.o
       756         90          0         12          0       5461   task_sys.o
        84         26          0          1          0       1953   task_timer.o

    ----------------------------------------------------------------------
     17990       1644       5996       1552       6212     476082   Object Totals
         0          0         32          0          0          0   (incl. Generated)
        14          0         12         10          6          0   (incl. Padding)

    ----------------------------------------------------------------------

      Code (inc. data)   RO Data    RW Data    ZI Data      Debug   Library Member Name

       180         24          0          0          0       2617   misc.o
       184         16          0          0          0       2632   stm32f4xx_exti.o
       214          0          0          0          0       2227   stm32f4xx_gpio.o
        64         12          0          0          0       1330   stm32f4xx_rcc.o
       112          0          0          0          0       4178   stm32f4xx_spi.o
        64          4          0          0          0        728   stm32f4xx_syscfg.o
       620         82          0          0          0       5829   stm32f4xx_tim.o
        34          0          0          0          0       2319   stm32f4xx_usart.o
        86          0          0          0          0          0   __dczerorl2.o
         0          0          0          0          0          0   entry.o
         0          0          0          0          0          0   entry10a.o
         0          0          0          0          0          0   entry11a.o
         8          4          0          0          0          0   entry2.o
         4          0          0          0          0          0   entry5.o
         0          0          0          0          0          0   entry7b.o
         0          0          0          0          0          0   entry8b.o
         8          4          0          0          0          0   entry9a.o
        30          0          0          0          0          0   handlers.o
        36          8          0          0          0         68   init.o
         0          0          0          0          0          0   iusefp.o
        30          0          0          0          0         68   llshl.o
        32          0          0          0          0         68   llushr.o
       188         20          0          0          0        160   malloc.o
        36          0          0          0          0         68   memcpya.o
         0          0          0          8          0          0   mvars.o
       736         56          0          0          0        184   printf5.o
         0          0          0          4          0          0   stdout.o
        14          0          0          0          0         68   strlen.o
        98          0          0          0          0         92   uldiv.o
       110          0          0          0          0        168   fepilogue.o
        40          0          0          0          0         68   ffixui.o
        10          0          0          0          0         68   ffltui.o
        24          0          0          0          0         68   fscalb.o

    ----------------------------------------------------------------------
      2966        230          0         12          0      23008   Library Totals
         4          0          0          0          0          0   (incl. Padding)

    ----------------------------------------------------------------------

      Code (inc. data)   RO Data    RW Data    ZI Data      Debug   Library Name

      1472        138          0          0          0      21860   Stm32f4xxLib.lib
      1306         92          0         12          0        776   mc_w.l
       184          0          0          0          0        372   mf_w.l

    ----------------------------------------------------------------------
      2966        230          0         12          0      23008   Library Totals

    ----------------------------------------------------------------------

==============================================================================


      Code (inc. data)   RO Data    RW Data    ZI Data      Debug   

     20956       1874       5996       1564       6212     489962   Grand Totals
     20956       1874       5996        720       6212     489962   ELF Image Totals (compressed)
     20956       1874       5996        720          0          0   ROM Totals

==============================================================================

    Total RO  Size (Code + RO Data)                26952 (  26.32kB)
    Total RW  Size (RW Data + ZI Data)              7776 (   7.59kB)
    Total ROM Size (Code + RO Data + RW Data)      27672 (  27.02kB)

==============================================================================

