:020000040800F2
:1000000000200010FD3900089337000891370008E0
:10001000953700089737000899370008000000005E
:100020000000000000000000000000009B370008F6
:100030009D370008000000009F370008A137000826
:10004000453A0008493A00084D3A0008513A00087C
:10005000553A0008593A00085D3A0008613A00082C
:10006000653A0008D1370008693A00086D3A00087F
:10007000713A0008753A0008793A00087D3A00089C
:10008000813A0008A5370008853A0008893A000837
:100090008D3A0008913A0008953A0008993A00080C
:1000A0009D3A0008A13A0008A53A0008A93A0008BC
:1000B000A7370008AF370008AD3A0008B13A00088A
:1000C000B53A0008B93A0008BD3A0008C13A00083C
:1000D000C53A0008C9370008C1370008C93A000806
:1000E000CD3A0008D13A0008D53A0008D93A0008BC
:1000F000DD3A0008E13A0008E53A0008E93A00086C
:10010000ED3A0008F13A0008F53A0008F93A00081B
:10011000FD3A0008013B0008B7370008B93700086E
:10012000053B0008093B00080D3B0008113B000897
:10013000153B0008193B00081D3B0008213B000847
:10014000253B0008293B00082D3B0008313B0008F7
:10015000353B0008393B0008A33700083D3B000849
:10016000413B0008453B0008493B00084D3B000867
:10017000513B0008553B0008593B00085D3B000817
:10018000613B0008653B000880B5DFF81C1488421D
:1001900008D10121012000F00DFC0021012000F018
:1001A00009FCAEE0B0F1804F08D10121012000F040
:1001B000F3FB0021012000F0EFFBA2E0DFF8EC13DD
:1001C000884208D10121022000F0E6FB0021022034
:1001D00000F0E2FB95E0DFF8D813884208D1012156
:1001E000042000F0D9FB0021042000F0D5FB88E0BA
:1001F000DFF8C013884208D10121082000F0CCFBB1
:100200000021082000F0C8FB7BE0DFF8AC13884237
:1002100008D10121102000F0BFFB0021102000F0C8
:10022000BBFB6EE0DFF89413884208D10121202047
:1002300000F0B2FB0021202000F0AEFB61E0DFF80F
:100240008013884208D10121022000F0B3FB002175
:10025000022000F0AFFB54E0DFF8681388420AD1B7
:1002600001215FF4803000F0A5FB00215FF48030B5
:1002700000F0A0FB45E0DFF8501388420AD10121CD
:100280005FF4003000F096FB00215FF4003000F0D6
:1002900091FB36E0DFF8341388420AD101215FF484
:1002A000802000F087FB00215FF4802000F082FBBB
:1002B00027E0DFF81C13884208D10121402000F01C
:1002C0006BFB0021402000F067FB1AE0DFF804130D
:1002D000884208D10121802000F05EFB00218020AF
:1002E00000F05AFB0DE0DFF8F012884209D101213D
:1002F0004FF4807000F050FB00214FF4807000F04C
:100300004BFB01BD10B400220488A74B98420ED0CD
:10031000AB4A90420BD0B0F1804F08D0A34A904234
:1003200005D0A34A904202D0A24A904204D14FF68F
:100330008F7214404A8814439F4A904207D09F4AC4
:10034000904204D04FF6FF4214400A8914430480BF
:100350004A68C2620A880285984202D0984A90424E
:1003600001D1897A01860121818210BC70475FF03A
:10037000FF31416000210180002101810021418085
:1003800000218172704741627047C9B2002904D0D0
:10039000018851F08001018004E002884FF67F71EE
:1003A0000A4002807047C9B2002904D0018851F088
:1003B0000101018004E002884FF6FE710A400280CC
:1003C000704730B4002200220022038C4FF6FE72E8
:1003D00013400384058C8388048B4FF68F7214407E
:1003E0004FF6FC7214400A8814434FF6FD72154014
:1003F0008A8915434A8815436B4A904202D0704A55
:10040000904213D14FF6F7721540CA8915434FF643
:10041000FB7215408A8815434FF6FF6213404FF672
:10042000FF5213400A8A13434A8A1343838004838A
:1004300089684163058430BC704730B400220022D3
:100440000022038C4FF6EF7213400384058C8388DF
:10045000048B48F6FF7214404FF6FF4214400A889E
:1004600054EA02244FF6DF7215408A8955EA0215D4
:100470004A8855EA02154C4A904202D0504A9042AE
:1004800017D14FF67F721540CA8955EA02154FF60B
:10049000BF7215408A8855EA02154FF6FF321340A5
:1004A0004FF2FF7213400A8A53EA82034A8A53EAE0
:1004B00082038380048389688163058430BC70472C
:1004C00030B4002200220022038C4FF6FF6213405A
:1004D0000384058C8388848B4FF68F7214404FF60B
:1004E000FC7214400A8814434FF6FF5215408A8963
:1004F00055EA02254A8855EA02252B4A904202D045
:100500002F4A904217D14FF2FF721540CA8955EA1F
:1005100002254FF6FF3215408A8855EA02254EF62D
:10052000FF7213404DF6FF7213400A8A53EA02131A
:100530004A8A53EA0213838084838968C1630584ED
:1005400030BC704730B4002200220022038C4EF6EB
:10055000FF7213400384048C8588838B48F6FF72F6
:1005600013404FF6FF4213400A8853EA02234DF628
:10057000FF7214408A8954EA02344A8854EA0234E9
:10058000094A904202D00E4A904205D14BF6FF72C2
:1005900015400A8A55EA821585808383896801643B
:1005A000048430BC7047000000000140000400409B
:1005B00000080040000C0040001000400014004003
:1005C0000004014000400140004401400048014057
:1005D00000180040001C00400020004041637047AC
:1005E00081637047C1637047016470470022038BC9
:1005F0004FF6F77213401943018370470022038BB3
:100600004FF2FF72134053EA012303837047002225
:10061000838B4FF6F7721340194381837047002292
:10062000838B4FF2FF72134053EA01238383704799
:1006300038B504000D00288800280AD12B89AA8823
:100640006988200000F0B0F8E988200000F033F855
:1006500025E0288804280AD12B89AA8869882000E7
:1006600000F0BCF8E988200000F02EF817E0288898
:1006700008280AD12B89AA886988200000F0CBF8C5
:10068000E988200000F02AF809E02B89AA88698807
:10069000200000F0DCF8E988200000F028F831BDE7
:1006A0000021018000214180012181800021C18041
:1006B000002101817047038B4FF6F37213400383CF
:1006C000028B114301837047038B4FF2FF321340BB
:1006D0000383028B52EA012202837047838B4FF619
:1006E000F37213408383828B114381837047838B22
:1006F0004FF2FF3213408383828B52EA01228283BE
:100700007047C9B2002906D0B0F8441051F4004136
:10071000A0F8441005E0B0F844104904490CA0F8D2
:1007200044107047D2B2002A03D0828911438181DC
:1007300003E0828932EA01018181704789B2C943AD
:1007400001827047002200220022028A0A4080892A
:10075000014092B2002A04D089B2002901D00120C0
:1007600000E00020C0B2704789B2C94301827047DF
:10077000F0B40024002400240589068B078C4FF672
:10078000F874254029434FF6FC44264040F20114FA
:1007900026434FF6DD74274052EA03123A430181A3
:1007A00006830284F0BC704770B400240024058CDA
:1007B0004FF6FE7425400584058B068C4FF60C74AD
:1007C000254052EA03122A434FF6F5731E4051F0BA
:1007D000010131430283018470BC704770B400246E
:1007E00000240024058C4FF6EF7425400584058B0A
:1007F000068C090140F6FF44254055EA033555EAC9
:1008000002254FF65F72164051F010013143058307
:10081000018470BC704770B4002400240024058C4F
:100820004FF6FF6425400584858B068C09024FF640
:100830000C74254052EA03122A434FF2FF531E4024
:1008400051F4807131438283018470BC704770B46D
:10085000002400240024058C4EF6FF7425400584F6
:10086000858B068C090340F6FF44254055EA022596
:1008700055EA033545F6FF72164051F48051314375
:100880008583018470BC704710B4002100210021D1
:10089000022100210221DFF83821116811F00C013A
:1008A000002904D0042906D0082908D02BE0DFF85D
:1008B000281101602AE0DFF82411016026E0DFF84A
:1008C00014412168C1F38051236813F03F030029CC
:1008D00008D0DFF80811B1FBF3F32168C1F38811E8
:1008E0004B4307E0DFF8F010B1FBF3F32168C1F3ED
:1008F00088114B432168C1F30141491C4900B3FBF6
:10090000F1F1016002E0DFF8D0100160116811F030
:10091000F0010909DFF8C830595C0468CC40446034
:10092000116811F4E051890A595C4468CC40846034
:10093000116811F46041490B595C4268CA40C260B9
:1009400010BC7047C9B2002904D026490A68104378
:10095000086004E023490A6832EA00000860704732
:10096000C9B2002904D020490A681043086004E095
:100970001D490A6832EA000008607047C9B20029C0
:1009800004D01A490A681043086004E017490A684D
:1009900032EA000008607047C9B2002904D0144947
:1009A0000A681043086004E011490A6832EA00004E
:1009B00008607047C9B2002904D00E490A68104384
:1009C000086004E00B490A6832EA000008607047DA
:1009D00008380240043802400024F40000127A0073
:1009E000480000203038024040380240443802407D
:1009F0002038024024380240DFF890060078704723
:100A000080B5DFF88C160868002801D00868804798
:100A100001BD10B500F06AFB002300220021002078
:100A200000F066FC00F0ABFC18210022DFF8644601
:100A3000200000F069FD0220DFF85016087010BD9C
:100A400080B500F0E5FA00F006FB0221DFF8480669
:100A500000F016FE0220DFF83416087001BD80B5E4
:100A60003220DFF8381608803220DFF8341608808C
:100A7000DFF8300600F030FE0023002200210020C5
:100A800000F036FC00F002FA01230FF201420621C9
:100A9000002000F0FBFE01230FF29D32062104200E
:100AA00000F0F4FE0FF21100DFF8E41508600220F8
:100AB000DFF8D815087001BD80B500F092FA0FF28A
:100AC0001500DFF8CC1508600020DFF8C0150870AD
:100AD00001BD0000F8B52DED028B002201204FF47E
:100AE0007A704FF4A0734FF4D2640020DFF8B80599
:100AF0000178012904D10120DFF8B015087006E063
:100B00000078022803D10120DFF8A4150870DFF86F
:100B1000A455688A010089B2B1F5997F01D10222FA
:100B200005E040F29E6180B2884200D10122A88A8D
:100B300080B2B0F57A7F01DA012000E00020EE8873
:100B400031001F0089B2BFB2B94200D23300210088
:100B5000370089B2BFB2B94200D23400B6B2190030
:100B600089B2761A00EE106AB8EEC00AA4B29BB23F
:100B7000E31A00EE903AF8EEE00A80EE200AF7EE73
:100B8000000A30EEC08AAC882D89C0B2002831D06E
:100B90001000C0B2012826D10221DFF8FC0400F0C9
:100BA00063FD002806D000F0FCFB022000F0C0F935
:100BB0000028FAD0DFF8E81408880988D1F1640128
:100BC00000EE101AB8EEC00A20EE080ABDEEC00A08
:100BD00010EE101A081800230200D2B20021C0B291
:100BE00000F086FB1EE1D2B2022A40F01B8100F029
:100BF000C6FB17E1DFF8A41408880988D1F1640165
:100C000000EE101AB8EEC00A20EE080ABDEEC00AC7
:100C100010EE101A08180200D2B2210089B2B1F504
:100C2000C87F7CDA290089B2B1F5C87F0CDADFF819
:100C30007C140978002907D100230200D2B20021D8
:100C4000C0B200F00DFBDBE0290089B240F2416345
:100C500099420DDBDFF854140978002908D103000C
:100C6000DBB200220100C9B2002000F0F9FAC7E0AF
:100C7000290089B2A1F2533140F22B1399420CD2D0
:100C8000DFF828140978002907D10300DBB200221D
:100C90000021C0B200F0E4FAB2E040F2C113290032
:100CA00089B2A1F29111994219D2DFF800140978A2
:100CB000002914D1290089B2B1F599714FF42F732D
:100CC00091FBF3F1D1F1010112FB01F60300DBB25C
:100CD000002200213000C0B200F0C2FA90E02900EA
:100CE00089B2A1F27F41994280F08A80DFF8BC137B
:100CF0000978002940F08480290089B2B1F57A7121
:100D00004FF42F7391FBF3F1D1F1010112FB01F3C9
:100D1000DBB200220021C0B200F0A2FA70E040F283
:100D20004162210089B2914239DB290089B2B1F5D3
:100D3000C87F0DDADFF878130978002908D103009D
:100D4000DBB200220100C9B2002000F089FA57E0AE
:100D5000290089B291420CDBDFF85413097800298D
:100D600007D100230200D2B20021C0B200F078FA0D
:100D700046E0290089B2A1F2533140F22B12914290
:100D80003ED2DFF82C130978002939D10023020064
:100D9000D2B20100C9B2002000F062FA30E02100B6
:100DA00089B2A1F2911140F2C113994228D32100D6
:100DB00089B2A1F2533140F22B13994220D229007B
:100DC00089B2B1F5C87F0BDAB9490978002907D192
:100DD00000230200D2B25A215A2000F041FA0FE05B
:100DE000290089B291420BDBB1490978002907D16A
:100DF0005A235A220100C9B2002000F031FAFFE75D
:100E000040F22D10A4B2A4F2523484420AD2ADB200
:100E1000A5F25235854205D25A235A225A215A2028
:100E200000F01EFAA4489A49086005209749087006
:100E3000BDEC028BF1BD000070B5A04C022000F0AB
:100E400002FD404220809E4D032000F0FCFC404209
:100E50002880B4F9000000F013FE0600994CB5F9A3
:100E6000000000F00DFE86192680B4F90000022172
:100E700090FBF1F0208094480078012804D1934938
:100E80000A78208882180A7070BD000038B50024E6
:100E90008F4D0121280000F0E7FB002806D04FF419
:100EA00000518C4800F0E0FB002834D101212800DB
:100EB00000F0DAFB002800D101244FF400518548EE
:100EC00000F0D2FB002800D10224834801780129D8
:100ED0000FD17D4901220A707C4A13781E2B26DB34
:100EE00000230B7000211170002101707B480470F9
:100EF0001DE001210170794821000278C9B29142B8
:100F000015D169490C700021017001205F490870FA
:100F1000FFF7E0FD0BE00020644908700020644901
:100F2000087000206849087000206849087031BDC9
:100F3000F8B505000221584800F096FB002849D179
:100F4000002410E04FF4E04000F031FA4FF4E040AC
:100F500000F075FA300080B200F029FA300080B25B
:100F600000F06DFA641C2000C0B20A2832DA4FF497
:100F7000004000F01CFA07004FF4004000F05FFA58
:100F8000290089B2002905D002290CD006D30329F3
:100F90000ED012E048F20101012612E048F20111E0
:100FA00040F201160DE048F2012140F2012608E06E
:100FB00048F2013140F2013603E048F2013140F2DB
:100FC00001360A0092B2BFB2BA42BBD189B280B236
:100FD0008142B7D1E4B20A2C01D1002000E0012007
:100FE000F2BD80B53E480078022190FBF1F201FB92
:100FF0001200002808D13B480178012907D10021BF
:10100000017000F037F802E001203649087001BD98
:1010100010B5354C05220021200000F087FE1D4848
:10102000217801700178FF290ED100210170012182
:1010300041705321C1705321C17364214174052251
:10104000002100F085FE05E0A178C170E178C17350
:101050002179417410BD10B5234C052200212000D8
:1010600000F064FE0B48A178C170E178C17321796A
:10107000417410BD80B507484178012905D1002190
:1010800041700522002100F063FE01BD190300201C
:10109000EC020020B4020020000C024000030020FB
:1010A00002030020C43900081803002013030020A5
:1010B000140300204C020020B90A00080603002097
:1010C0000803002004030020100300201703002061
:1010D0000014024000080240110300201603002003
:1010E0001503002012030020E40200202DE9F04740
:1010F00088B0002003AC03AD6E466F46DFF8DC839A
:101100004046FFF741F8DFF8D8934846FFF73CF830
:1011100001210120FFF732FCDFF8D00300684CF218
:101120005031B0FBF1FA0120308000207080504631
:1011300080B27060002030810020B07231004046E3
:10114000FFF7E0F870202080012060800020A08060
:10115000504680B2401EA0600220A0810020E081A5
:10116000002020820020608221004046FFF729F9FC
:1011700021004046FFF761F921004046FFF7A0F942
:1011800021004046FFF7DEF908214046FFF72EFA1E
:1011900008214046FFF732FA08214046FFF737FAA8
:1011A00008214046FFF73BFA01214046FFF7EDF8E2
:1011B00001214046FFF7A5FA01214046FFF7F3F869
:1011C00001210420FFF7CCFB00203880002078802C
:1011D000504680B27860002038810020B872390013
:1011E0004846FFF78FF870202880012068801FFA9A
:1011F0008AFABAF1010AC5F808A00220A8810020E5
:10120000288229004846FFF7DCF829004846FFF706
:1012100014F929004846FFF753F929004846FFF71B
:1012200091F908214846FFF7E1F908214846FFF700
:10123000E5F908214846FFF7EAF908214846FFF793
:10124000EEF901214846FFF7A0F801214846FFF7D3
:1012500058FA01214846FFF7A6F808B0BDE8F08724
:10126000F8B52DED028B0C0015001E009B4F9FED75
:10127000A08BC0B200F07EFD53EC182B00F088FD6F
:1012800000F058FE80B201003800FFF7A7F9E4B281
:10129000200000F06FFD53EC182B00F079FD00F0FA
:1012A00049FE80B201003800FFF79AF9EDB228003C
:1012B00000F060FD53EC182B00F06AFD00F03AFEE0
:1012C00080B201003800FFF78DF9F6B2300000F06F
:1012D00051FD53EC182B00F05BFD00F02BFE80B2AB
:1012E00001003800FFF780F9BDEC028BF1BD000072
:1012F000F8B52DED028B0C0015001E00784F9FED08
:101300007C8BC0B200F036FD53EC182B00F040FD92
:1013100000F010FE80B201003800FFF75FF9E4B280
:10132000200000F027FD53EC182B00F031FD00F0F9
:1013300001FE80B201003800FFF752F9EDB228003B
:1013400000F018FD53EC182B00F022FD00F0F2FD28
:1013500080B201003800FFF745F9F6B2300000F026
:1013600009FD53EC182B00F013FD00F0E3FD80B2F3
:1013700001003800FFF738F9BDEC028BF1BD80B5F4
:101380005A235A225A215A20FFF76AFF00230022CB
:1013900000210020FFF7ACFF0221574800F06EF952
:1013A00001BD80B50221544800F06AF901BDF8B5CD
:1013B0000400002000264B4F1021380000F05EF999
:1013C00010252DE04021380000F05AF911E04FF4CB
:1013D000C87000F093F82021380000F051F94FF464
:1013E000C87000F08BF82004ECD54021380000F0E4
:1013F00045F964004FF4C87000F080F820213800EF
:1014000000F03CF94FF4C87000F078F876004FF423
:101410000041354800F028F9002800D0761C6D1EE8
:101420002800C0B20028D2D14FF4C87000F066F88E
:101430001021380000F024F9300080B2F2BDF8B578
:10144000040000200026284F4FF48051380000F09F
:1014500015F9102531E04FF48041380000F010F903
:1014600013E04FF4C87000F049F84FF40051380011
:1014700000F006F94FF4C87000F040F82004EAD5F7
:101480004FF48041380000F0F9F864004FF4C87060
:1014900000F034F84FF40051380000F0EFF84FF44A
:1014A000C87000F02BF876004FF40071124800F07D
:1014B000DBF8002800D0761C6D1E2800C0B2002882
:1014C000CFD14FF4C87000F019F84FF480513800B4
:1014D00000F0D6F8300080B2F2BD000000000140FC
:1014E0000008004000180240000402408000002074
:1014F000EC51B81E85CB4040000C02400100481E54
:1015000089B20029FAD1704762F30F2262F31F42B9
:10151000401810F0030308D0C91A1FD3DB0748BFD7
:1015200000F8012D28BF20F8022D130030B4144616
:101530001546103928BF20E93C00FAD8490728BFD2
:1015400020E90C0048BF40F8042D890028BF20F88E
:10155000022D48BF00F8012D30BC7047C91818BFD4
:1015600000F8012DCB0728BF00F8012D704730B4DB
:10157000002513E050F8042BD30744BFA9F1010361
:101580009A18091F042942F8045BFAD213468C0703
:1015900044BF15809B1CC90748BF1D7050F8041B31
:1015A0000029E7D130BC7047F0B4002200220022AD
:1015B000002349E0012414FA03F20D681540954216
:1015C00041D1032502681E00F6B2760015FA06F630
:1015D000B243026006680F791A00D2B252009740F7
:1015E0003E4306600A79012A02D00A79022A1AD1FA
:1015F00082681E00F6B2760015FA06F6B2438260E3
:1016000086684F791A00D2B2520097403E438660F6
:1016100042689C4032EA0404446042688C799C40F1
:10162000A4B222434260C4681A00D2B2520095406C
:1016300034EA0505C560C468CD791A00D2B25200FB
:1016400095402C43C4605B1C102BB3D3F0BC704797
:101650004FF6FF71016000210171002141710021ED
:1016600081710021C17170470022006989B208426E
:1016700001D0012000E00020C0B270470183704714
:101680004183704770B400230023D2B211F00703E6
:10169000DBB29B009A400B009BB2DB1000EB830493
:1016A0000B009BB2DB1000EB83031D6A0F2611F0C9
:1016B0000703DBB29B009E40B54325620B009BB243
:1016C000DB1000EB83031B6A1A4389B2C91000EBDD
:1016D0008100026270BC70470EB4C0B5024603A818
:1016E00000210190009101AB0121044878440C30A5
:1016F00000F049FC06BC5DF810FB00BF1923000098
:1017000080B586B06846FEF732FE0020ADF80000D6
:101710005FF0FF3001900020ADF808000020ADF828
:10172000020069465FF08040FEF7ECFD0A230A22C2
:1017300003215FF08040FFF71BF803A8FEF7B0FF1E
:101740000020ADF8140003A95FF08040FEF770FFA1
:1017500001215FF08040FEF7F1FF012201215FF0DF
:101760008040FEF7DFFF00215FF08040FEF70BFEB8
:1017700001215FF08040FEF716FE07B000BD10B5F6
:1017800086B0B24C2000FEF7FFFC6846FEF7EFFD86
:101790000020ADF800004FF6FF7001900020ADF87A
:1017A00008000020ADF8020069462000FEF7AAFDFF
:1017B0000023002203212000FEF7DAFF03A8FEF732
:1017C0006FFF0020ADF8140003A92000FEF730FFE2
:1017D00001212000FEF7B2FF012201212000FEF7C7
:1017E000A1FF00212000FEF7CEFD01212000FEF721
:1017F000DAFD06B010BD30B585B000F00DF902ACD1
:10180000934D2800FEF7C0FC9248016851F020017A
:1018100001600020019000200090002341F2670247
:101820006321200000F0ECF821002800FEF76AFD9B
:10183000012201212800FEF775FF01212800FEF793
:10184000B2FD05B030BDC0B2022802D0032805D0D9
:1018500009E08149086800220A6005E07F490868BC
:1018600000220A6000E0002000B270477C4908882E
:101870000A884FF6FE7002400A807047794908884E
:101880000A884FF6FE7002400A80704730B40400A8
:10189000E4B2092C15DA744C0500EDB22D0161514A
:1018A0000100C9B2090121448A60DBB2012B01D1D8
:1018B000012100E00021C0B2000120440173012099
:1018C00000E0002030BC704738B5614C0121200099
:1018D000FEF738FF00282BD000251CE02801084423
:1018E0004068401C2A011144486013E02801084464
:1018F00040682A018A589042F0D300202A010A4405
:101900005060280108448068002803D0280108445A
:10191000806880476D1C092D06D253492801084470
:10192000007B0028E2D1F5E701212000FEF71CFF33
:1019300031BD10B504007FF0040000F0EDFB4B4812
:10194000A4B2E408048000884FF47A7110FB01F01F
:101950004749088010BD002817D0444909884843EA
:1019600044490860444900200860444A106850F027
:1019700001001060106810F001100128FAD0106802
:1019800040084000106000200860704780B238496D
:101990000988484337490860374900200860374ABA
:1019A000106850F001001060106810F0011001285C
:1019B000FAD01068400840001060002008607047AE
:1019C00038B54FF40771B0FBF1F44FF40771B0FB79
:1019D000F1F501FB1505002805D110E04FF4077063
:1019E000FFF7D4FF641E2000C0B20028F6D1280003
:1019F00080B2002803D0280080B2FFF7C7FF31BDB6
:101A000030B4002806D0039C029D018042604380D0
:101A10000581847230BC704780B5002010E0124907
:101A200002220301CA50002203010B445A60002223
:101A300003010B449A600022030119440A73401CFD
:101A40000928ECD3A820FFF774FF01BD0004004073
:101A500000140040403802402400004024040040AC
:101A6000100000401004004084000020F802002014
:101A7000FA02002014E000E018E000E010E000E0CE
:101A8000002848BF4042704738B57948016831F4B2
:101A900040610160016851F480610160754C012072
:101AA0002060754D012028600520FFF754FF0020BD
:101AB00020600520FFF74FFF0020286031BD38B5BA
:101AC0006B48016831F440610160016851F4806144
:101AD0000160694C00202060664D002028600520D0
:101AE000FFF739FF01202060012028600520FFF763
:101AF00032FF31BD38B500245D48016831F44061E2
:101B00000160016801605C4D002028600520FFF73E
:101B100022FF0120286002E00520FFF71CFF574844
:101B20000068002808D0641C2000C0B23328F3DB12
:101B3000FFF7C5FF012008E00520FFF70CFF00209C
:101B4000286000204B490860002032BD38B5484865
:101B5000016831F440610160016851F48061016005
:101B6000454C00202060434D002028600520FFF7F1
:101B7000F2FE012020600520FFF7EDFE002020602E
:101B80000120286031BD38B53948016831F4406121
:101B90000160016851F480610160374C00202060D1
:101BA000344D012028600520FFF7D5FE012020607C
:101BB0000520FFF7D0FE002020600120286031BD05
:101BC00070B504002A48016831F440610160016881
:101BD00051F480610160284D00202860002614E047
:101BE0002000C0B2C009C0B22249086064000220CF
:101BF000FFF7B1FE012028600520FFF7ACFE0020B2
:101C000028600320FFF7A7FE761C3000C0B208282A
:101C1000E6DB70BDF8B5040000251548016831F415
:101C20004061016001680160002611E0124F002050
:101C300038600520FFF78FFE012038606D000F48E7
:101C40000068002800D06D1C0520FFF784FE761C7C
:101C50003000C0B20828E9DBE4B2002C02D1FFF763
:101C600092FF01E0FFF772FF2800C0B2F2BD000052
:101C7000000802409402414298024042140241424C
:101C800010B504000020FFF7FFFEA020FFF798FF2B
:101C9000FFF730FFC0B2012801D1002020E0200072
:101CA000C0B2FFF78DFFFFF725FFC0B2012801D1B9
:101CB000002015E0FFF7E8FEA120FFF781FFFFF706
:101CC00019FFC0B2012801D1002009E00020FFF770
:101CD000A1FF0400FFF757FFFFF7F1FE2000C0B29D
:101CE00010BD38B504000D00FFF7CEFEA020FFF7B1
:101CF00067FFFFF7FFFEC0B2012816D02000C0B278
:101D0000FFF75EFFFFF7F6FEC0B201280DD02800F6
:101D1000C0B2FFF755FFFFF7EDFEC0B2012804D0B7
:101D2000FFF7CDFE0A20FFF74BFE31BD70B5040072
:101D30000D00160007E0280080B2FFF7A1FF6D1C20
:101D40002070641C761E300080B20028F3D170BD74
:101D500070B504000D00160006E02178280080B25E
:101D6000FFF7BFFF6D1C641C3000461E80B20028C8
:101D7000F3D170BD014648B1B0FA80F18840C91C6A
:101D8000C1F58461090501EBD021400570470000D1
:101D9000B0B581EA030C0CF0004C40F2FF7515EA77
:101DA00011541DBF15EA1357AC42AF4239E0E41994
:101DB00023EA455343F48013C90241F0004141EA4C
:101DC000505EC7021100A7FB020200284FF000007E
:101DD000EEFB01204FF00001E3FB072118BF42F0AA
:101DE0000102401800214941E3FB0E01A4F5806483
:101DF0000F0302D252004041494154F101046CDD0D
:101E0000470872F1004250F1000051EB0451A1F576
:101E100080115CBF41EA0C01B0BD4CEA05510020C5
:101E2000B0BD05EA1357AC4214BFAF4241E050EADF
:101E3000410E1CBF52EA430E02E061460020B0BDD5
:101E400024423C441BD15FEA070EF6D0090302BFCF
:101E500001460020AEF1140EB1FA81F7AEEB070493
:101E600001FA07FE0C37C7F1200100FA07F7C84056
:101E70004EEA000E23EA455343F48013A2E733F001
:101E80000043B3FA83F704BFB2FA82FE77440B3FF4
:101E9000E41BB7F1200E2FBF02FA0EF3BB40C7F1CF
:101EA000200E22FA0EFE38BF43EA0E03BA40641C2D
:101EB00082E750EA410E14BF52EA430E6FF0000170
:101EC0004FF4001717EB430F8ABF194617EB410F6A
:101ED000B5E74CEA05510020B0BDD4F10104B4F1DE
:101EE00020070FDAC4F12007520828BF42F0010290
:101EF00010FA07F501FA07F7E1BF2A43E04038433B
:101F0000E1400FE0352C98DCC7F1200452EA400292
:101F100020FA07F218BF42F0010231FA07F0A1409F
:101F20000A43002172F1004250F1000051EB0C0114
:101F3000B0BD0000C1F30A5340F2FE329B1A14DD1B
:101F4000D3F120034FEAE17208DDC90241EA5051A2
:101F500041F00040D84080185040704703F2E13013
:101F600010B1D24382F0004070470020704770B536
:101F700005461C000846164604D016F8011BA84763
:101F8000641EFAD170BD2DE9FC4383B081468846BA
:101F900017461D4607E001233A4641464846FFF7EB
:101FA000E6FF80467F1C3878E0B12528F3D17978A8
:101FB000BF1C252912D058295AD0632915D064296D
:101FC00018BF692918D06F2952D0702956D07329AB
:101FD0005BD0752918BF78294AD0E4E74046C84746
:101FE0008046E0E705B0BDE8F0832868286050F837
:101FF000041B2860C9B2F1E72868286050F8046B18
:102000002860002E03D52D214046C8478046642114
:102010006F2908BF082205D041F02000782814BF9E
:102020000A2210220B246429304602D1002E48BF18
:102030004042B0FBF2FC02FB1C003030641EC3B215
:102040003A2BA4BFA1F1510630180DF804005FEA45
:102050000C0001D0002CECDC0DEB0406D4F10B04D9
:102060004046BDD016F8011BC847641EFAD1B7E739
:102070002868286050F8046B2860C9E72868286041
:10208000782150F8046B2860C2E72868286050F86F
:10209000046B2860304600F059F8040040469FD099
:1020A00016F8011BC847641EFAD199E72149084375
:1020B000214908607047002100210F23C1780029C1
:1020C0001FD01D49096811F4E061D1F5E061090AEA
:1020D000D1F10402DBB20B41417811FA02F28178AE
:1020E0000B401A43120115490378CA5401210278A2
:1020F00012F01F029140124A0078401142F820105D
:1021000009E00121027812F01F0291400D4A007887
:10211000401142F820107047042805D10A48016890
:1021200051F00401016004E00748016831F0040146
:10213000016070470000FA050CED00E000E400E0EB
:1021400000E100E080E100E010E000E000F10103C8
:10215000810704D010F8011B820781B1FAD102680F
:10216000A2F10131914311F0803104BF50F8042FE6
:10217000F6E709BAB1FA81F100EBD100401CC01AB0
:1021800070470000704780B500F09BF800F062F8DF
:1021900000F02DFA01BD1CB54FF4A060FFF786FFDB
:1021A0006C4626202070012060700120A070012064
:1021B000E0702000FFF77FFF252020700320607073
:1021C0000320A0700120E0702000FFF774FF35208D
:1021D0002070012060700320A0700120E0702000BA
:1021E000FFF769FF112020700120E070022060706D
:1021F0000120A0702000FFF75EFF46202070012024
:10220000E070022060700220A0702000FFF753FFF2
:1022100037202070012060700420A0700120E07041
:102220002000FFF748FF1D20207003206070012070
:10223000A0700120E0702000FFF73DFF1C202070FF
:10224000032060700220A0700120E0702000FFF7E2
:1022500032FF13BD10B58AB001214FF48060FEF744
:102260008DFB01214FF48060FEF7A4FB00214FF4A9
:102270008060FEF79FFB002000900020039000206C
:1022800002905FF480300190684600F096FA0020DA
:10229000049000208DF8140000208DF81500002017
:1022A00006900020089001208DF82400B24C04A96B
:1022B000200000F05DFA0121200000F08FFA0AB042
:1022C00010BD2DE9FC470121FF20FEF73BFB01215A
:1022D0004FF48040FEF752FB6C462000FFF7B8F940
:1022E00001202071022060710020A0710120E071A6
:1022F0004FF400602060A14D21002800FFF754F941
:102300004FF400612800FFF7BBF9022020609C4FCA
:1023100021003800FFF748F902213800FFF7AEF935
:102320001220206021002800FFF73EF9022128003A
:10233000FFF7A6F910212800FFF7A2F9012020716C
:10234000022060710020A0710120E07170202060E7
:10235000DFF8308221004046FFF726F94FF4E040D5
:102360002060894E21003000FFF71EF91021404601
:10237000FFF786F920214046FFF780F940214046CB
:10238000FFF77CF94FF480513000FFF779F94FF4F3
:1023900000513000FFF772F94FF480413000FFF731
:1023A0006DF9012020710020A0710120E07103204F
:1023B00060710420206021003800FFF7F5F84FF429
:1023C00080502060DFF8C48121004046FFF7ECF820
:1023D00004213800FFF754F94FF480514046FFF7CD
:1023E0004FF9012020710120A0710220607140206E
:1023F000206021002800FFF7D7F82020206021006E
:102400004046FFF7D1F800202071022060710020C3
:10241000A0710020E0714FF440702060210038006E
:10242000FFF7C2F84FF40047276021003000FFF7A4
:10243000BBF82760DFF8589121004846FFF7B4F851
:102440006020206021004846FFF7AEF84FF40050AE
:10245000206021004046FFF7A7F81F202060DFF82A
:1024600034A121005046FFF79FF820202060032070
:102470002071022060710020E07121005046FFF7BA
:1024800093F802202071032060710020A0710120C8
:10249000E071022206213000FFF7F4F80222072142
:1024A0003000FFF7EFF8022208213000FFF7EAF8CA
:1024B000022209213000FFF7E5F8012209214846F0
:1024C000FFF7E0F801220B214846FFF7DBF8012275
:1024D0000D214846FFF7D6F801220E214846FFF7A6
:1024E000D1F84FF47070206021003000FFF75CF8E5
:1024F0004FF4D440206021004846FFF755F80121F1
:102500000120FEF72DFA01210220FEF729FA022010
:102510002071032060710020E071022206214046F4
:10252000FFF7B0F8022207214046FFF7ABF801227F
:1025300003213000FFF7A6F801220F212800FFF742
:10254000A1F8C220206021004046FFF72DF80820A6
:10255000206021003000FFF727F8276021002800C5
:10256000FFF722F84FF48060206021005046FFF70B
:102570001BF8BDE8F3870000002201400000024084
:10258000000C024000180240000402400008024013
:10259000001002400014024080B56348016851F405
:1025A000700101606149086850F001000860604AEC
:1025B000002010600B685F4803400B605E485F4B73
:1025C0001860086830F48020086000205C490860CA
:1025D00011685C480140116011685B48014311605B
:1025E00000F04CF85FF000605849086001BD002021
:1025F00000200220002002204D49086810F00C0045
:10260000002804D0042806D0082808D029E0504823
:10261000504A106028E050484E4A106024E0474B72
:102620001868C0F380501A6812F03F02002807D0E3
:102630004948B0FBF2F21868C0F38810424306E044
:102640004348B0FBF2F21868C0F3881042431868A0
:10265000C0F30140401C4000B2FBF0F03D4A106066
:1026600002E03B483B4A106008683C49C0F3031055
:10267000085C38490A68C2400A60704782B000208E
:102680000190002000902949086850F480300860CB
:10269000086810F4003000900198401C01900098E8
:1026A000002803D10198B0F5A04FF1D1086880034C
:1026B00002D50120009001E0002000900098012840
:1026C0002FD12748026852F08052026025480268E4
:1026D00052F440420260164802680260026852F4F6
:1026E00000420260026852F4A05202601E4A134B7C
:1026F0001A600A6852F080720A600A689201FCD57A
:1027000040F20571194A1160016889088900016069
:10271000016851F002010160016811F00C01082903
:10272000FAD102B07047000088ED00E000380240A6
:1027300008380240FFFFF6FE103000240438024043
:102740000C380240FFFF9F000000603608ED00E0FB
:102750000024F4008000002000127A0058000020BD
:10276000403802400070004008544007003C0240DE
:1027700030B40022002344681F4A14400A790D68CF
:1027800055EA02252C43446084681C4A14400D69B4
:10279000CA6815438A6815434A7955EA42052C43AD
:1027A0008460C26A32F47002097D491E0B43DBB2B9
:1027B00052EA0352C26230BC704710B40021104B81
:1027C0001A6810490A40046841680C4381680C4348
:1027D000C068044322431A6010BC7047C9B2002984
:1027E00004D0816851F00101816003E081684908EB
:1027F0004900816070470000FFFEFFFCFDF7FFC04D
:1028000004230140E030FCFFDFF8E4030078704768
:1028100080B5DFF8E0130868002801D00868804719
:1028200001BD10B500F0F8F90C210022DFF8C84313
:102830002000FEF769FE32210022DFF8C0432000AD
:10284000FEF762FE0220DFF8A813087010BD80B505
:1028500000F028FBDFF8A803FEF73EFF0FF211009F
:10286000DFF8901308600220DFF88413087001BDC0
:1028700038B5DFF890432078002803D0022841D0F3
:1028800010D351E000F051F8002806D00020DFF806
:10289000601308700120207003E00520DFF850135A
:1028A000087041E000F0B5F80100C9B2002903D07A
:1028B0000100C9B2012903D10120CD49087020E0EF
:1028C0000100C9B2032905D1022020700120C849A6
:1028D000087016E0C0B2022813D10020CA4908804F
:1028E0000C210022C44D2800FEF70EFE32210022EA
:1028F000C24D2800FEF708FE002020700620BC49CB
:10290000087011E00C210022BB4D2800FEF7FCFDF1
:1029100032210022B94D2800FEF7F6FD002020707C
:102920000620B3490870FFE731BD2DE9F8435FF099
:102930000009002600200024002500F07BF98046D5
:10294000B14F3888192821D1002100E0491C080026
:1029500080B219281ADA2000C0B200280ED108006F
:1029600080B218F800000F2808D1012489462800F9
:10297000C0B2002802D1012511F118062000C0B212
:102980000028E3D02800C0B20028DFD0E4B2002C39
:102990003CD0EDB2002D39D04846310080B289B22A
:1029A00088420DD2B6EB0906761C320092B21FFAAD
:1029B00089F908EB0901914C200000F0ABFA15E011
:1029C000D9F11904220092B21FFA89F908EB090122
:1029D0008A4DA946484600F09DFAB6B2761C3200F0
:1029E0004146A4B22C44200000F094FA3221002287
:1029F0004046FEF789FD8048002101701821417092
:102A00007E49816000203880012000E00020BDE880
:102A1000F28310B57D4C2178002903D0022911D012
:102A200004D310E00120207000200CE000F00DF82D
:102A3000002803D000202070022002E00020207037
:102A4000032000E0FFE7C0B210BD38B500206B4C9A
:102A5000200000F028F80100088BB0F5806F11D13C
:102A6000488BB0F5806F0DD1888BB0F5806F09D1A0
:102A7000C88BB0F5806F05D12022654C200000F096
:102A800049FA0DE00C2100225B4D2800FEF73CFDC9
:102A9000322100222000FEF737FD00205A4908802D
:102AA0000120C0B232BD5B49027B437B52EA032264
:102AB0005205520D0A82427BD2B2D208D2B2837B37
:102AC00052EA43125205520D4A82C278D2B292099A
:102AD000D2B2037952EA8302437952EA8322520541
:102AE000520D8A808278D2B2D208D2B2C37852EA2A
:102AF00043125205520D4A804279D2B25208D2B2E4
:102B0000837952EAC3125205520DCA804278837803
:102B100052EA03225205520D0A808279D2B212097A
:102B2000D2B2C37952EA03125205520D0A81C27918
:102B3000D2B2D209D2B2037A52EA4302437A52EABB
:102B400043225205520D4A81427AD2B29208D2B241
:102B5000837A52EA83125205520D8A81827AD2B266
:102B60005209D2B2C37A52EAC302CA81827BD2B27C
:102B70009209D2B2C37B52EA8302037C52EA8322D7
:102B80005205520D8A82027CD2B25208D2B2437CE4
:102B900052EAC3125205520DCA82427CD2B21209C5
:102BA000D2B2837C52EA03125205520D0A83827C10
:102BB000D2B2D209D2B2C37C52EA4302037D52EAB6
:102BC00043225205520D4A83027DD2B29208D2B2FC
:102BD000437D52EA83125205520D8A83427DD2B25E
:102BE0005209D2B2807D52EAC002CA8308007047FF
:102BF0001F030020F4020020D80200201802002049
:102C0000E03900081D0300204C0200201E030020B4
:102C10004E0200209402002080B55FF4E13000F005
:102C200046F8934800F08CF800F0D3F80020914962
:102C3000087001BD9048704738B5FF20904C40F2B5
:102C400025552900200000F076FA002815D0200034
:102C500000F02AFA8C49884A0B88D0540B881A4411
:102C600050760888401C088008881A2801DB00205C
:102C700008802900200000F090FA40F22665290023
:102C8000200000F058FA00280FD000217D4800F005
:102C90005FFB00222900200000F016FA0020754991
:102CA00008702900200000F078FA31BD704770B537
:102CB00086B004007548016851F010010160744845
:102CC000016851F00101016004AD724E0722092133
:102CD0003000FEF7D7FC07220A213000FEF7D2FCB5
:102CE0004FF4C06028600220287102206871002023
:102CF000A8710120E87129003000FEF755FC00940E
:102D00000020ADF804000020ADF806000020ADF86A
:102D100008000020ADF80C000C20ADF80A005E4C55
:102D20006946200000F04AF90121200000F0AAF9CC
:102D3000012240F22551200000F0C6F906B070BD16
:102D4000F8B586B005006E4602AC5148016851F0F6
:102D5000010101605148016851F4003101604D4F9B
:102D6000072202213800FEF78DFC072203213800DC
:102D7000FEF788FC0C203060022030710220707158
:102D80000020B0710120F07131003800FEF70CFC1A
:102D900025600020A0800020E0800020208100200D
:102DA000A0810C206081364D2100280000F006F93A
:102DB0000121280000F066F9012240F22551280087
:102DC00000F082F901228021280000F071F907B09B
:102DD000F0BD30B58FB06C4601215FF40010FDF7F7
:102DE000B1FD284D280000F0E9F9280000F0BDFAF7
:102DF0000028FAD14020E060002060614FF480603C
:102E0000A0610020E06100202062002060625FF489
:102E10008030A0620020E062032020630020606315
:102E20000020A0635FF0006020601D4860601348D0
:102E3000A060802020612100280000F05FFA0122BC
:102E40001021280000F09AFA0FB030BD38B5040008
:102E5000114D4021280000F061F90028F8D0210030
:102E6000C9B289B2280000F01BF9200032BD000071
:102E7000A08601000F030020E401002014010020BF
:102E800000440040A06002404C0200204438024050
:102E9000303802400000024000100140403802403B
:102EA0000444004070B5124804880C221149124DA8
:102EB0002E00300000F02EF81048FEF70DFCAB6835
:102EC0006A6829680E48FEF707FCA4B221000D4885
:102ED000FEF702FC0C48FEF7FFFB0023082201214D
:102EE0000A48FEF7F9FB0A48FEF7F6FB70BD000042
:102EF000227AFF1F107AFF1FCC020020D43700086F
:102F000040390008A839000854380008D4380008AF
:102F10001438000862B38B0708D0521E11F8013B29
:102F200000F8013B00F024808B07F6D1830740F0C6
:102F3000208000BF103A07D330B4B1E83810103AFF
:102F4000A0E83810F9D230BC530724BFB1E808100C
:102F5000A0E8081044BF51F8043B40F8043BD207F6
:102F600024BF31F8022B20F8022B44BF0B780370EA
:102F70007047121F17D35B0009D151F8043B20F8AA
:102F8000023B1B0C121F20F8023BF6D20BE051F85B
:102F9000043B00F8013B1B0A20F8023B1B0C121FEC
:102FA00000F8013BF3D238BF121D521E24BF11F8A6
:102FB000013B00F8013BF8D87047000038B584B0F9
:102FC00005000C000020002000200020A08900281F
:102FD000298A31F44051E08801432982A98928488F
:102FE0000140A28820890243608902431143A981DC
:102FF000A98A31F44071A0890143A9826846FDF78E
:1030000043FC1D48854202D01C48854201D10399EA
:1030100000E00299A889000406D5192041432068E0
:103020004000B1FBF0F205E0192041432068800028
:10303000B1FBF0F26420B2FBF0F109010B001B09B7
:10304000642000FB1322A889000408D5D000323088
:103050006422B0FBF2F010F00700014307E010011A
:1030600032306422B0FBF2F010F00F0001432981EE
:1030700005B030BD00000000001001400014014008
:10308000F3E9FFFFC9B2002904D0818951F400514E
:10309000818104E082894DF6FF710A408281704788
:1030A000C905C90D818070478088C005C00D704773
:1030B000D2B2002A03D0828A1143818203E0828A3D
:1030C00032EA01018182704710B4002300230023FB
:1030D00000230B0040F66A149BB2A3420B00DBB244
:1030E0005B09DBB289B211F01F01012414FA01F16E
:1030F000012B01D10C3004E0022B01D1103000E093
:103100001430D2B2002A03D002681143016003E0F8
:10311000026832EA0101016010BC704700220A0017
:1031200092B2B2F5007F0088084201D0012000E091
:103130000020C0B2704710B40022002200220022FA
:103140000A0040F66A1392B29A420B00DBB25B09A6
:10315000DBB20A0092B212F01F02012414FA02F24A
:10316000012B02D183891A4006E0022B02D1038A87
:103170001A4001E0838A1A4089B2090A89B214FA16
:1031800001F100880140002A03D0002901D001206C
:1031900000E00020C0B210BC7047002200220A00EC
:1031A00040F66A1392B29A4289B2090A012212FACF
:1031B00001F189B2C94301807047000001684908E4
:1031C000490001600021016000214160002181600F
:1031D0000021C1600021016121214161DFF8E0117E
:1031E000884204D13D20DFF8DC11086085E0DFF87B
:1031F000D811884205D14FF47460DFF8C811086017
:103200007BE0DFF8C811884205D15FF47410DFF865
:10321000B411086071E0DFF8B811884205D15FF0A1
:103220007460DFF8A011086067E0DFF8A811884239
:1032300005D1DFF8A401DFF8A41108605DE0DFF834
:10324000A011884205D1DFF89C01DFF890110860D9
:1032500053E0DFF89411884205D1DFF89001DFF8E0
:103260007C11086049E0DFF88811884205D15FF0E1
:103270003D50DFF8681108603FE0DFF878118842C0
:1032800004D13D20DFF87011086036E0DFF86C11E2
:10329000884205D14FF47460DFF85C1108602CE0BF
:1032A000DFF85C11884204D15FF474105249086061
:1032B00023E05449884204D15FF074604E490860AD
:1032C0001BE05149884203D143485049086014E04B
:1032D0004F49884203D143484C4908600DE04D49AD
:1032E000884203D141484949086006E04A4988427A
:1032F00003D15FF03D5045490860704710B400228B
:103300000368464A13400C68CA6814434A69144368
:103310008A691443CA6914430A6A14434A6A144303
:103320008A6A14434A6B14438A6B14432343036031
:103330004369DB08DB00CC6A0A6B14432343436117
:103340000A6942604A6882608968C16010BC70473F
:10335000C9B2002904D0016851F00101016003E005
:103360000168490849000160704700210068C007F2
:1033700001D5012000E00020C0B270470B060CD53B
:103380001300DBB2002B04D0436953F08003436188
:1033900003E0436933F08003436180290ED0D2B249
:1033A000002A05D0026811F01E011143016005E0FA
:1033B000026811F01E0132EA01010160704700004D
:1033C00010600240086002402860024040600240F5
:1033D00058600240706002403D0000200C600240D6
:1033E00088600240400F0020A060024000003D20A5
:1033F000B860024010640240086402402864024041
:103400004064024058640240706402400C64024010
:1034100088640240A0640240B86402403F801CF00F
:1034200040480078704780B53F490868002801D0BF
:103430000868804701BD10B5FEF7A5FE00203B4996
:103440000870FEF7A8FE22210022394C2000FEF76A
:103450005BF822210022374C2000FEF755F800F0DF
:103460003EF802202F49087010BD80B5FEF748F9DC
:10347000FEF7C1F9FEF783F902202A49087001BD61
:1034800010B52A4C2078002808D101230FF28902B8
:10349000C8210520FEF7FAF9012020700FF20D0077
:1034A0002149086002201F49087010BD2248017898
:1034B000002902D0012906D00BE00521194A11701C
:1034C000012101700AE00221164A117000210170E9
:1034D00004E00521134A117000210170704715485E
:1034E00000210170052141700F218170FE21C17002
:1034F000032101712D2141725A2181728121C172F2
:10350000A121017300210177AA2180F82010FF2159
:1035100080F82110704700000848016891F40061AC
:10352000016070471C030020F00200201A030020F5
:103530004C020020700200201B03002014000240F7
:1035400080B523480068804700F001F801BD80B5D0
:1035500020480078052802D1002000F056F801BD6F
:1035600080B5FDF756FA0FF209001949086001BD50
:1035700018480078022803D10FF2090014490860A6
:103580007047000080B5FDF75BFA1248007802280A
:1035900003D10FF209000E49086001BD0D48007803
:1035A000022803D10FF209000949086070470000A2
:1035B00080B5FDF754FA0FF209000549086001BD16
:1035C00004480078022802D1034801490860704786
:1035D000740000200E030020B135000880B5FFF70D
:1035E0001FFF0D490870FFF70FF90C490870FDF730
:1035F00003FA0B4908700B480178032904DA0A49D9
:10360000007851F82000804701BD06490A78074B31
:103610001A700870704700000C0300200D03002092
:103620000E0300200A030020680000200B03002086
:1036300080B521480068804700F001F801BD80B5E1
:103640001E480078052802D10120FFF7DEFF01BDEA
:1036500080B5FFF7F0FE0FF209001749086001BDC1
:1036600016480078022803D10FF2090012490860B9
:103670007047000080B5FFF7F8FE0FF209000E4911
:10368000086001BD0D480078022803D10FF209003F
:10369000094908607047000080B5FFF7F1FE0FF29E
:1036A00009000549086001BD04480078052802D1D9
:1036B0000348014908607047780000200C0300208F
:1036C0009936000880B518480068804700F001F876
:1036D00001BD80B515480078052802D10220FFF70A
:1036E00094FF01BD80B5FFF79CF80FF209000E4969
:1036F000086001BD0D480078022803D10FF20900CF
:10370000094908607047000080B5FFF7A0F80FF284
:1037100009000549086001BD04480078022802D16B
:1037200003480149086070477C0000200D03002019
:103730001937000810B50020FFF767FFFFF74EFFAD
:10374000FFF771FEFFF764F8FDF75AF94FF4704088
:10375000FDF72DFE0C4908804FF47040FDF76FFE19
:103760000A4908804FF4E040FDF721FE4FF4E040A5
:10377000FDF765FE46F6AF742000FDF718FE200049
:10378000FDF75DFEDAE700BFFC020020FE0200202C
:10379000FEE77047FEE7FEE7FEE7704770477047B9
:1037A00070477047704780B5FEF760F801BD80B57F
:1037B000FEF764F801BD704780B5FEF785F801BDDE
:1037C00080B5FFF739FA01BD80B5FFF76FFA01BD8B
:1037D000704700000A2A2A2A2A2A2A2A2A2A2A2A5A
:1037E0002A2A2A2A2A2A2A2A2A2A2A2A2A2A2A2A39
:1037F0002A2A2A2A2A2A2A2A2A2A2A2A2A2A2A2A29
:103800002A2A2A2A2A2A2A2A2A2A2A2A2A2A200A42
:10381000000000002A2A2A2A2A2A2A2A2A2A2A2AB0
:103820002A2A2A2A2A2A2A2A2A2A2A2A2A2A2A2AF8
:103830002A2A2A2A2A2A2A2A2A2A2A2A2A2A2A2AE8
:103840002A2A2A2A2A2A2A2A2A2A2A2A2A2A2A20E2
:103850000A0000002A2A2AD0BEC6ACC9D5C2BCC8FC
:10386000D5C6DA3A20417567203234203230323101
:10387000202D2031383A34393A3538200A000000FA
:1038800030B450F8041B79B1026843680244083030
:10389000DC0744BFA9F10104E31852F8045B43F8C4
:1038A000045B091FF9D1ECE730BC704710B507493C
:1038B00079441831064C7C44163404E00A68081D2B
:1038C000114488470146A142F8D110BD50000000C4
:1038D000700000002A2A2AD0BEC6ACB4FAC2EBB9E6
:1038E000CCBCFEBFE2B0E6B1BE3A5625642E2564DC
:1038F0002E2564200A0000004EF68851CEF2000109
:10390000086840F470000860BFF34F8FBFF36F8FFB
:103910004FF00070E1EE100A7047000053DCFFFF2B
:103920009C020000840000200000000055FFFFFF03
:1039300084000000340200000000002000000000AD
:103940002A2A2AD0BEC6ACB5C4CEA8D2BB4944CE22
:10395000AA3A25582D25582D2558200A0000000088
:1039600000F00DF8002801D0FFF7A0FFAFF30080B2
:103970000020AFF30080FFF7DDFE00F002F8012029
:10398000704700F001B800000746384600F002F822
:10399000FBE7000080B5AFF30080024A1100182059
:1039A000ABBEFBE7260002002A2A2AD0BEC6AC66C0
:1039B0006C617368B5C4C8DDC1BFCEAA3A25644B3B
:1039C000200A00000A20A1A4A1A4A1A4B5E7BBFA83
:1039D000B3F5CABCBBAFCDEAB3C921200A000000D1
:1039E0000A20A1A4A1A4A1A4B4AEBFDAB3F5CABCB5
:1039F000BBAFCDEAB3C921200A00000002488047CE
:103A000002488047024800479925000885210008A0
:103A1000393A000838B504460D46284600F006F845
:103A2000A84218BF0024204632BD00000149FFF71C
:103A30000DBA00BF00000020AFF30080FFF75CFF6D
:103A4000FFF78EFFFFF7FEBFFFF7FEBFFFF7FEBFDA
:103A5000FFF7FEBFFFF7FEBFFFF7FEBFFFF7FEBF9A
:103A6000FFF7FEBFFFF7FEBFFFF7FEBFFFF7FEBF8A
:103A7000FFF7FEBFFFF7FEBFFFF7FEBFFFF7FEBF7A
:103A8000FFF7FEBFFFF7FEBFFFF7FEBFFFF7FEBF6A
:103A9000FFF7FEBFFFF7FEBFFFF7FEBFFFF7FEBF5A
:103AA000FFF7FEBFFFF7FEBFFFF7FEBFFFF7FEBF4A
:103AB000FFF7FEBFFFF7FEBFFFF7FEBFFFF7FEBF3A
:103AC000FFF7FEBFFFF7FEBFFFF7FEBFFFF7FEBF2A
:103AD000FFF7FEBFFFF7FEBFFFF7FEBFFFF7FEBF1A
:103AE000FFF7FEBFFFF7FEBFFFF7FEBFFFF7FEBF0A
:103AF000FFF7FEBFFFF7FEBFFFF7FEBFFFF7FEBFFA
:103B0000FFF7FEBFFFF7FEBFFFF7FEBFFFF7FEBFE9
:103B1000FFF7FEBFFFF7FEBFFFF7FEBFFFF7FEBFD9
:103B2000FFF7FEBFFFF7FEBFFFF7FEBFFFF7FEBFC9
:103B3000FFF7FEBFFFF7FEBFFFF7FEBFFFF7FEBFB9
:103B4000FFF7FEBFFFF7FEBFFFF7FEBFFFF7FEBFA9
:103B5000FFF7FEBFFFF7FEBFFFF7FEBFFFF7FEBF99
:103B6000FFF7FEBFFFF7FEBF020401019401002032
:103B7000E4010020940100209401002000000000D6
:103B800094010020000000004400002030000020CC
:103B90000000000000000000000000000000000025
:103BA0000000000000000000000000000000000015
:103BB00000000000010203040102030406070809D3
:103BC00000000000000000000102030406070809CD
:103BD00031360008C5360008413500086135000857
:0C3BE00051360008E5360008007A030AA0
:0400000508003A397C
:00000001FF
