:020000040800F2
:10000000601E0020B9010008371E00089D0100088D
:10001000351E0008510B0008DF3E000800000000FC
:100020000000000000000000000000009D340008F7
:10003000F50F000800000000792C00089D3A000828
:10004000D7010008D7010008D7010008D701000830
:10005000D7010008D7010008D7010008D701000820
:10006000D701000835120008D7010008D7010008A1
:10007000D7010008D7010008D7010008D701000800
:10008000D7010008D7010008D7010008D7010008F0
:10009000D7010008D7010008D7010008D7010008E0
:1000A000D7010008D7010008D7010008D7010008D0
:1000B000D7010008D7010008D7010008D7010008C0
:1000C000D7010008D7010008D7010008D7010008B0
:1000D000D7010008D7010008D7010008D7010008A0
:1000E000D7010008D7010008D7010008D701000890
:1000F000D7010008D7010008D7010008D701000880
:10010000D7010008D7010008413C0008D7010008CA
:10011000D7010008D7010008453C0008493C000809
:10012000D7010008D7010008D7010008D70100084F
:10013000D7010008D7010008D7010008D70100083F
:10014000D7010008D7010008D7010008D70100082F
:10015000D7010008D7010008D7010008D70100081F
:10016000D7010008D7010008D7010008D70100080F
:10017000D7010008D7010008D7010008D7010008FF
:10018000D7010008D7010008DFF80CD000F0D0F844
:1001900000480047E5520008601E00200420714618
:1001A000084202D0EFF3098001E0EFF308807146C6
:1001B000004A1047D516000807488047074880477F
:1001C00007480047FEE7FEE7FEE7FEE7FEE7FEE73B
:1001D000FEE7FEE7FEE7FEE7253B0008A94C000826
:1001E0008901000840EA01039B0703D009E008C920
:1001F000121F08C0042AFAD203E011F8013B00F8EC
:10020000013B521EF9D27047421C10F8011B002915
:10021000FBD1801A7047420005D0C0F3C75252424A
:10022000914201DC0020704700EBC15070479623DB
:100230000022114600F04EB820F00040C10DC0F37E
:10024000160040F400007F2901DA0020704796294B
:1002500003DCC1F19601C840704796398840704769
:100260002DE9F05F0546002092469B4688460646EB
:10027000814640241BE0284641464746224600F07E
:1002800078F853465A46C01A914110D31146184681
:10029000224600F05FF82D1A67EB01084F46224610
:1002A0000120002100F056F817EB00094E41201EF6
:1002B000A4F10104DFDC484631462A464346BDE846
:1002C000F09F0029A8BF7047401C490008BF20F0DC
:1002D0000100704710B4B0FA80FC00FA0CF050EA4C
:1002E000010404BF10BC704749B1CCF1200421FACD
:1002F00004F411FA0CF118BF012121430843A3EBC8
:100300000C01CB1D4FEA00614FEA102042BF0020D4
:1003100010BC704700EBC35010440029A4BF10BCB0
:100320007047401C490008BF20F0010010BC704716
:10033000064C074D06E0E06840F0010394E8070032
:1003400098471034AC42F6D3FFF722FF2869000823
:1003500048690008202A04DB203A00FA02F1002054
:1003600070479140C2F1200320FA03F319439040F3
:100370007047202A04DB203A21FA02F0002170475E
:1003800021FA02F3D040C2F12002914008431946FD
:10039000704770B58C1810F8015B15F0070301D198
:1003A00010F8013B2A1106D110F8012B03E010F8D8
:1003B000016B01F8016B5B1EF9D12B0705D40023FB
:1003C000521E0DD401F8013BFAE710F8013BCB1A9D
:1003D000921C03E013F8015B01F8015B521EF9D592
:1003E000A142D8D3002070BD2DE9F84F89460024E2
:1003F000DFF800840146601EA8F810004FF0010BE2
:10040000404688F809B0007BA24611F0100F1CBFCF
:100410004FF0010A20F0100014D088F80C0001F011
:100420000F05000605EB1050C6B20027442E29D058
:1004300013DC122E18BF222E18D0242E1CD0422ED0
:1004400014D031E010F0100F1BBF01F00F02012A91
:1004500000F00F00BDE8F88FDFE7482E12D0822EA3
:1004600004D0842E18BF882E0CD01DE04FF002005F
:1004700000F0CAFC04460AE0DF49881E00F078FA62
:10048000040005D198F80B0000F0BEFC04465CB1F6
:1004900098F80C00022800F03781042800F0308121
:1004A000082800F02781FFE0A8F81470342E00F02F
:1004B0001D8125DC222E6FD015DC142E00F0168154
:1004C0000CDC112E04BFCD48077065D0122E35D03C
:1004D000132E08BF132400F0238109E1182E72D0D7
:1004E000212E71D004E1282E6DD004DC232E6AD099
:1004F000242E52D0FCE0312E1CD0322E63D0F7E0F7
:10050000482E7CD00CDC422E76D004DC382E5AD01B
:10051000412E72D0ECE0432E55D0442E3CD0E7E083
:10052000A6F18100082869D2DFE800F0A08EE087FC
:10053000E2E2E2C1B14813240770F1E0ADF80070C7
:10054000022240F20251684600F076FFBDF800003A
:10055000ADF8000010F4C05F1ABF88F80070512495
:1005600088F800B046D101F03BFB040009D188F8BF
:10057000097000F09FFA040004BFA14880F800B0A1
:1005800038D0FF2C71D098F80900002808BF00F07F
:1005900097FA01F05FFBC3E089E003F0FFF8040085
:1005A00006D188F80970974800F082FA04000CD050
:1005B000FF2C5AD098F80900002808BF00F07EFAF6
:1005C00003F02AFAACE091E067E0B8F8226002227A
:1005D0004FF40171684600F02FFFBDF800000222C1
:1005E0003043ADF800004FF40171684600F08AFF17
:1005F00088F802B094E002E030E043E078E098F858
:100600000800FF24002818BFB8F8124044B988F841
:10061000097000F051FA040008BF88F801B07FD0DB
:10062000FF2C22D098F80900002808BF00F04AFAF1
:1006300088F8037088F8017072E000F043FA88F8D7
:10064000037088F801700DE000F03CFA88F8037040
:1006500088F80170040088F8097025D100F02EFA9E
:1006600003F0DAF988F809705AE08DE000F02AFA10
:1006700088F8037088F80170040088F8097008BFD2
:10068000412611D100F01AFA044603F0C5F988F8A2
:100690000970002C08BF212606D101F0DBFA00F01A
:1006A0000FFA044655480770FF2C6DD038E0BAF1B8
:1006B000000F1CBF304600F059F998F8080060B9E7
:1006C00098F80C0010F00C0F07D0B8F818000028AC
:1006D00018BF022003D000F00BFEFE2420E0B8F883
:1006E0001600002818BF0320F5D1F6E7112417E003
:1006F000122415E000F0E6F988F8037088F801701C
:1007000000F0DCF903F088F9162C1CBF022088F8F1
:100710000C00C9D101F09EFA00F0D2F988F80CB0B3
:1007200098F80C0000F00F01A9425BD054EA0901CF
:100730001CBF284310F0080F10D098F8010028B112
:1007400000F0C0F988F8037088F80170B8F8180054
:10075000002818BF022035D000F04DFC8CB398F86B
:100760000C00082804BF042088F80C00C0B240F038
:10077000100088F80C0088F80A70214698F80C00E0
:10078000BDE8F84F02F0EABF88F80AB0A8F8146094
:10079000122E14BF132E4FF4FA600FD0242E17BF61
:1007A000482E42F22830C820A8F8100006D080B2A7
:1007B000A0F13200A8F81000BDE8F88FA8F81000EA
:1007C000F5E706E0B8F81600002818BF0320C3D1EB
:1007D000C4E7B9F1000F1CBF4C4645F0100588F87E
:1007E0000C50C8E788F80A70BDE8F84F002102F005
:1007F000B5BF0000340300204C030020900300200C
:1008000066030020560300202DE9F041544FB87ACA
:10081000002808BFBDE8F0810025388A4FF00108A4
:100820000028B88A2E4627D0122818BF132856D081
:1008300024287CD0482818BFBDE8F081787A0028A9
:1008400008BFBDE8F081388B20B1F878002808BFD8
:10085000BDE8F08100F030F9002804BF87F801807E
:10086000082459D0FF2808BFBDE8F08100F02AF91C
:10087000FE707E70BDE8F081C0F30714122818BF27
:10088000132804D024280FD0482818D040E0787AC4
:10089000002808BF00F014F901F0DCF9387A08B13B
:1008A0007D8A35E0012533E0787A002808BF00F022
:1008B00005F903F0B1F8387A0028F3D0F0E7388B67
:1008C000002804BF082487F8018025D0787A1B25EA
:1008D000002808BF00F0F6F8FE707E7018E0787A05
:1008E000002808BFBDE8F0817E7200F0E3F848B14F
:1008F000FF2808BFBDE8F08100F0E2F8BDE8F04154
:1009000001F0A8B9174880F80080387D00F00F0486
:10091000002C08BFBDE8F081BE72002D18BF44F066
:10092000100429462046BDE8F04102F017BF787A4E
:10093000002808BFBDE8F0817E720B4800F0B8F8CF
:10094000002804BF87F802800424E5D0FF2808BFF0
:10095000BDE8F08100F0B2F8BDE8F04103F05CB80A
:100960003403002066030020560300207047000077
:100970002DE9F35FDFF8E8B04FF0000A5446BBF80A
:10098000000055465646002825D90BEB4600408806
:1009900001F0E7FB070025D0B869B0F8008000201F
:1009A000B8F1000F11D900F1010909F0FF00394633
:1009B00001F02BFBB96901EBD000006855FA80F01B
:1009C00085B21FFA89F08045EDD8701C86B2BBF85D
:1009D0000000B042D9D8E81D4FEAD00BBAF1000FA1
:1009E0002FD103E000254FF0250AF4E7DFF87490DB
:1009F0000025B9F80000002823D909EB45004088FC
:100A000001F0AFFB060027D0B06907880020002F57
:100A100011D900F1010808F0FF00314601F0F5FAA4
:100A2000B16901EBD000006854FA80F084B21FFA7B
:100A300088F08742EDD8681C85B2B9F80000A8425A
:100A4000DBD80099E01DC00808800198A0F800B02C
:100A500002B05046BDE8F09F00244FF0240AF0E7B2
:100A6000C6050020CA050020064951F8022F026081
:100A70004A6842608A688260CA68C260098A0182E4
:100A800070470000D8050020084930F8022B4A8042
:100A900030F8022B8A8030F8022BCA80283902688D
:100AA000436880680A63C1E90D307047EC05002097
:100AB00000207047002070470020704700207047DA
:100AC0000020704700207047F0B4018900224FF6E3
:100AD000FF76B14236D01D4D01270024002808BF03
:100AE00001222AD0296859B10B89B0F808C06345A2
:100AF0000AD90460296841600860286000221CE06F
:100B0000286044600460F9E70A89624501D13A46E9
:100B100013E009D90B68C0E900310A68002A18BF40
:100B200050602246086008E04B68002B18BF194649
:100B3000EAD148604460224601601AB9018E28302B
:100B4000B142CBD1F0BC1046704700001800002025
:100B5000FEE70000DFF854C010B4DCF800100024F9
:100B6000F9B10A894968DCF80000C0B103899342F1
:100B700012D1D0E90032002B18BF5A60002A18BFEA
:100B8000136004604460DCF8003000891B899842DF
:100B900008BFCCF8002002E040680028E6D1002918
:100BA000DFD1CCF8004010BC7047000018000020D6
:100BB00010B50F4C206828B1002100F043FF002041
:100BC000206012E04FF4807004F096FB002804BF10
:100BD000072010BD07490A6802604A6842608A68B7
:100BE00082608989818102F089FA002010BD0000AD
:100BF000300300209409002001480068704700007D
:100C0000180000200249002008600249088070474F
:100C100030030020AC0300202DE9F84F264CD4F817
:100C200000C0BCF1000F08BFBDE8F88FDFF88C8072
:100C3000234D244E98F800000090DFF88C90DFF8E8
:100C40008CA02B6899F80010BAF800003268E047D1
:100C50000446FF2808BFBDE8F88FDFF874B000270E
:100C60009BF8000001280DD0022804D0032818BFEB
:100C700004280DD011E01749086818B103F002FBF1
:100C80001448076000221146204602F07DFB04E074
:100C90002A682046316802F077FB8BF80070AAF8CA
:100CA000007089F80070376003482F6088F8007082
:100CB0000760BDE8F88F0000BC030020A2030020FD
:100CC000B8030020B4030020A3030020AA030020DF
:100CD000A1030020C003002010B51F4820220024DB
:100CE00002804480446044F20301846081811B4B94
:100CF000C0E904348483046280F8404018480280CC
:100D00004480446084608181C0E904348483046247
:100D100080F84040134804701348046000F58E705A
:100D2000FFF7D2FE002804BF1048FFF7CDFE0028D1
:100D300018BFFFF70FFF0E4804700E4804800E48DE
:100D400004700E4804600E4804600E4804600E48AB
:100D500004700E48046010BD0C09002020A107009B
:100D60005009002090030020180000201C000020E3
:100D7000A1030020AA030020A3030020B403002045
:100D8000B8030020BC030020A2030020C003002001
:100D9000C188090B09290CD2DFE801F00B0905090C
:100DA00009090909070001F089BF02F0A7B9042069
:100DB000704705207047000038B5124CA08B002802
:100DC00008BF38BD0025ADF8005002224FF48861FD
:100DD000684600F031FBBDF80000ADF8000010F0EF
:100DE000010F18BF38BD208B002808BF38BD6078C0
:100DF000002804BFE57038BD1B210420FFF7F4FA7A
:100E000038BD0000340300202DE9F05F774F06461F
:100E10000025788B42F6FF7188423CBF1420BDE864
:100E2000F09F4FF4006A51460822714800F004FB1D
:100E3000DFF8BC914C46B9F80200B9F8002010F078
:100E4000010F08BF12F0010F74D1A17911F0010F49
:100E500012D0A18801F00C03042B0DD111F0020F68
:100E60000AD0222808D3B0F5807F05D8B2F5805F7C
:100E700002D3B2F5405F01D31625B4E040F6080175
:100E800008225B4800F0D8FA6188208811F0010F31
:100E900008BF10F0010F63D1A27912F0010FEBD05F
:100EA000A28812F00C0FE7D112F0020FE4D0222931
:100EB000E2D3B1F5807FDFD8B0F5805FDCD3B0F549
:100EC000405FD9D24FF0010B4FF00008032E37D905
:100ED00087F807B040F618010822454800F0ACFA40
:100EE0006088218810F0010F08BF11F0010F37D181
:100EF000A27912F0010F1ED000B3FA8A90421DD1E0
:100F0000E2B144289CBFA08810F00C0F16D13A7BA8
:100F1000022A08D03A8C914210D110F0020F18BF6B
:100F200087F807800CE0B1F5805F07D3B1F5405F2B
:100F3000F3D303E014E0F98A084301D01E2552E000
:100F4000022E3FD94FF401610822294800F074FABB
:100F50006088218810F0010F08BF11F0010F02D046
:100F60001720BDE8F09FA27912F0010F25D018B329
:100F70003A8B904224D1FAB1442821D8A08800F0BD
:100F80000C02042A1CD13A7B022A0FD0FA8B914220
:100F900016D110F0400F14BF87F804B087F8048012
:100FA00010F0020F18BF87F807800BE0B1F5805FE3
:100FB00006D3B1F5405FECD302E0398B084301D092
:100FC0001D2510E0F87A86420DD20AEBC6010822F0
:100FD000074800F031FAB9F80600F881701CC6B273
:100FE000F87A8642F1D32846BDE8F09F340300200A
:100FF0005A030020704738B54FF48071ADF80010E7
:1010000040F6060101EBC00402222146684600F0CA
:1010100079FA02222146684600F00EFABDF8000077
:1010200010F4807FF5D038BD2DE9F84F0027ADF8DA
:10103000007002220421684600F0FEF9BDF80000AD
:10104000304EADF80000000AF07202220621684618
:1010500000F0F2F9BDF800004FF47C4101EA802075
:1010600000F6FF707083ADF80070022240F202516A
:10107000684600F0E1F9BDF80000ADF8000010F49A
:10108000C05F4FF0010814BF377086F8008000245D
:10109000F07A002884BF4FF4807940F6060A17D909
:1010A000ADF800900AEBC40502222946684600F01C
:1010B00029FA02222946684600F0BEF9BDF8002050
:1010C00012F4807FF5D0601CC4B2F07AA042E7D859
:1010D00000F02EFC7772B772F7707770B7703771C7
:1010E000B7833772778277843783F782404686F8F2
:1010F0000C80002102F032FBB782B771BDE8F84FD7
:10110000FFF780BD34030020F0B583B00026012036
:10111000ADF80460ADF8000000F026FD404F3878CF
:1011200048B1022240F60E01684600F085F9BDF88C
:101130000000ADF8000000F03FFA3A4D044610F010
:10114000010F11D0A87A78B902224FF4907101A84A
:1011500000F072F9BDF80400ADF8040024F01104A9
:10116000C0B20021FFF740F914F0100F10D0A87A98
:1011700080B9287B10F0100F0ED120F0100101294A
:101180000AD024F0100400F00F000021FFF72CF922
:10119000A87A08B1FFF738FB3878002804BF03B0FD
:1011A000F0BDBDF8000010F0010F05D1287B002133
:1011B00000F00F00FFF718F914F4007F08D0AE8498
:1011C000194802220188194800F09CF900F0E8FB58
:1011D000BDF80000164C10F0020F207801D008B1C5
:1011E00014E098B100F00EFC20780028BDF8000053
:1011F00014BF40F4007020F4007080B2ADF800001D
:10120000022240F60E01684600F07CF900F0D4F9A5
:1012100010F4807F18BF00F0C1FA03B0F0BD0000E9
:1012200066030020340300207203002058030020CE
:101230006703002003F01CBD0149086070470000EF
:10124000143C014001460020034A12680A400AB1DA
:10125000012000E000207047143C01400021234998
:101260008279002A3AD00A46126803689A430B46EC
:101270001A600A1D126803689A430B1D1A600279EE
:1012800011440A6803681A430A60184A083212684F
:1012900003689A43154B08331A601A1D12680368D5
:1012A0009A43124B0C331A604279102A0ED11A1F3E
:1012B000126803681A430D4B08331A601A1D12682E
:1012C00003681A43094B0C331A600DE00749427951
:1012D00011440A6803681A430A6005E00279114460
:1012E0000A6803689A430A6070470000003C0140A6
:1012F00038B50021ADF8001040F6060101EBC0043E
:1013000002222146684600F0FDF802222146684686
:1013100000F092F8BDF8000010F4807FF5D138BDE0
:10132000F0B50A4600210023002400BF3DE001255E
:1013300005FA01F3156805EA03049C4234D10568F7
:101340004F000326BE40B543056015794E00B540F9
:101350000668354305601579012D02D01579022DF7
:1013600016D185684F000326BE40B5438560557988
:101370004E00B540866835438560456801268E403D
:10138000B5434560456896798E40B6B235434560B1
:10139000C5684F000326BE40B543C560D5794E00F1
:1013A000B540C6683543C560491C1029BFD3F0BDA0
:1013B000F0B5002300244D07ED0E02FA05F3CE1020
:1013C00000F1200555F826504E07F70E0F26BE40B7
:1013D000B543CF1000F1200646F82750CE1000F19B
:1013E000200555F8265045EA0304CE1000F12005EB
:1013F00045F82640F0BD01884288914208BF00228E
:101400000AD000EB8102491C926889B2018083886E
:10141000994204BF00210180104670474FF40061DB
:1014200010B501EBC0010822024800F005F80148A0
:1014300010BD00005A0300202DE9F05F0546501E44
:101440000E464FF0000B84B238BFBDE8F09FDFF8C6
:1014500050A0DFF850904FF01008A9F81A80022031
:1014600040EAC60087B2380A02F068FF8AF8000036
:10147000F8B202F063FF8AF80100002C08BF4FF0B9
:10148000FF0B584602F05AFF05F8010B701C86B29C
:10149000A9F81880611E8CB2DFD2BDE8F09F000071
:1014A000D8030020000002402DE9F843DFF8508007
:1014B0000026102791460546A8F81A70022040EA37
:1014C000C10084B2200A02F039FF8DF80000E0B2BA
:1014D00002F034FF8DF80000B9F1010084B20AD3A4
:1014E000002C08BFFF26304602F028FF611E05F8D9
:1014F000010B8CB2F4D2A8F81870BDE8F883000094
:10150000000002402DE9F84F0446501E0E4685B2F9
:1015100038BFBDE8F88F4FF0100ADFF84480DFF8DD
:101520004490A8F81AA0042040EAC60087B2380AFE
:1015300002F004FF89F80000F8B202F0FFFE89F81B
:10154000010014F8010B02F0F9FE8DF80000A8F874
:1015500018A0701C691E86B28DB2E2D2BDE8F88F69
:1015600000000240D80300202DE9F843114F102657
:10157000904604467E83042040EAC10085B2280AD2
:1015800002F0DCFE8DF80000E8B202F0D7FE8DF824
:101590000000B8F1010085B209D3207802F0CEFE38
:1015A0008DF80000691E8DB204F10104F5D23E836E
:1015B000BDE8F883000002402DE9F04383B000202D
:1015C0008DF8000002208DF80100FF20DFF8409028
:1015D0008DF802004FF0100801AD6F460326A9F800
:1015E0001A800024385D02F0A9FE2855601C84B2E0
:1015F000B442F7D3A9F8188006489DF8041001708A
:101600009DF805104170008803B0BDE8F08300002C
:1016100000000240D80300202DE9F04383B00020F1
:10162000DFF844908DF804008DF805004FF01008A5
:101630006D4601AF0226A9F81A800446385D02F013
:101640007DFE2855601C84B2B442F7D3A9F81880F7
:1016500006489DF8001001709DF801104170008847
:1016600003B0BDE8F083000000000240D803002072
:1016700013480078002818BF7047124800780028E7
:1016800008BF7047104B0021DFF840C0988B104A0C
:1016900001280BD05078012818BF704700205860EF
:1016A000CCF80400518051605170704759609983A3
:1016B000CCF80410ACF81C10518001205070704719
:1016C000390300203A0300200C09002050090020B3
:1016D0002803002010B5044612A002F001FC17A058
:1016E000216802F0FDFB18A0616802F0F9FB19A067
:1016F000A16802F0F5FB1AA0E16802F0F1FB1BA063
:10170000216902F0EDFB1CA0616902F0E9FB1DA05C
:10171000A16902F0E5FBE169BDE810401CA002F000
:10172000DFBB0000496E2048617264204661756C21
:10173000742048616E646C65720A0000723020206B
:101740003D20307825780A00723120203D20307805
:1017500025780A00723220203D20307825780A0052
:10176000723320203D20307825780A0072313220F3
:101770003D20307825780A006C7220203D2030789A
:1017800025780A00706320203D20307825780A00F3
:10179000707372203D20307825780A0070B5324D84
:1017A00082B00222A9896846FFF746FEBDF8000014
:1017B000ADF80000E8790126012816D10A2003F0CF
:1017C0009BFD040011D002F09BFB04202080A08828
:1017D000002120F47060A080E68007202081204650
:1017E00000F030F9204602F04DFDBDF80000801DEC
:1017F00081B2ADF800106878AA79104302D02E703B
:1018000002B070BD00242C706889814288BFADF899
:10181000000003F071FD28610028F0D0BDF8002021
:10182000A989FFF709FEADF80440022240F6040141
:1018300001A8FFF701FEBDF80400ADF80400BDF8F3
:10184000040010F4006F0AD008480480A889698950
:1018500002220844801E81B20448FFF7EDFD28698A
:1018600000F03CF902B070BD640300205803002072
:101870002DE9F84304462A48007800F00F000128BB
:1018800023D0284FB87800B3787800281CBF0720F1
:10189000BDE8F8832588F989AE1DB2B22046FFF76E
:1018A00031FE4FF00008ADF80080022240F60C0136
:1018B0006846FFF7C1FDBDF80000ADF80000BDF8B7
:1018C000000010F4006F1DD102E0F020BDE8F883A5
:1018D000387A1549401B801FC0B2A1F80080022849
:1018E00007D226F00101C0F1020221440E48FEF7A2
:1018F00079FCF889398902220844801E81B20A489D
:10190000FFF700FE7869002818BFC7F8108001D1E2
:101910000648386101207C6178700020BDE8F883BA
:10192000400300206403002058030020A407002087
:1019300038B5194D2220002468814FF48070288129
:101940000001A881E88115480A2102220480448010
:10195000818034380480448081802C61AC616C616A
:10196000EC61EC70ADF8004040F60E016846FFF700
:1019700063FDBDF80000022220F40070ADF8000005
:1019800040F60E016846FFF7BDFDAC706C702C7020
:10199000AC712C716C7138BD64030020D808002034
:1019A00070B5164C00256570A06920B1E16911B9C8
:1019B00002F068FCA5616069A061E06918B1FFF7F9
:1019C00057FFE56106E00E48FFF715FD002818BF38
:1019D000FFF74EFFA079002814BF10F0020F70BD72
:1019E00020F00200A0712069FFF7E2F8002808BF8C
:1019F00070BDA07940F00200A07170BD64030020AA
:101A0000A408002070B50E4DAC698CB16878002632
:101A100050B1E86940B90120FFF7EDFA6869E86163
:101A20000120FFF765FC6E702046FFF721FFAE61D5
:101A3000E87800280CBF01200020E87070BD00008D
:101A4000640300202DE9F0410446214800260D469C
:101A5000007800F00F00012804BFF020BDE8F081FD
:101A6000A0881C4F20F47040A080797911F0070FF6
:101A700004BF01217971797940EA0130A0802046C4
:101A8000FFF7F6FEB0B1144A5088411C8BB2918822
:101A9000994208BF00231188994208BF072604D045
:101AA00002EB8000002684605380002E18BF45F0B2
:101AB000800502D17879401C787115F0800F04D030
:101AC000B97905F07F000843B8713046BDE8F08170
:101AD0004003002064030020A408002030B4828862
:101AE0000388110B01244FF0040CB3F5807F0BD950
:101AF000A0F800C022F470618180C48008210181B7
:101B000030BC0021FFF79EBF154A11B113799942ED
:101B100022D0117113494B888D885A1C92B295427C
:101B200008BF00220D88954208BF072104D001EBB1
:101B3000830398604A800021002904BF30BC7047AD
:101B4000A0F800C0828822F470628280C480018183
:101B500030BC0021FFF776BF30BC02F093BB000021
:101B600064030020D80800202DE9F0410025042658
:101B70000127194801884288914208BF002409D0F2
:101B800000EB8102491C89B29468018082889142ED
:101B900008BF0580B4B12046A188C1F30321032901
:101BA00014BF0220FFF7F4F850B12680A18821F479
:101BB0007061A180E780208100212046FFF742FF6D
:101BC000002CD6D105480078002808BFBDE8F08178
:101BD000BDE8F041FFF7E2BDD80800206403002013
:101BE00070B500252846FFF719FC194C4188618122
:101BF0000088A0810120FFF711FC41882181008825
:101C0000E081A28963891344834281BF08449042E2
:101C1000162070BD0020FFF76BFB0120FFF768FB6B
:101C2000608903F069FB206128B10021E17102F0B5
:101C300029FB284670BD0120E0710A2003F05CFBFF
:101C40002061002808BF022502F01CFBF1E700001C
:101C50006403002038B5354D00242046AC70FFF7F2
:101C6000CAF90120FFF7C7F9A869002818BF02F0D8
:101C700009FBE86900281EBFA969884202F002FB3F
:101C8000686900281CBFA969884204D0E9698842B4
:101C900018BF02F0F7FAAC616C61EC61EC70ADF862
:101CA0000040022240F60E016846FFF7C5FBBDF872
:101CB0000000022220F40070ADF8000040F60E0192
:101CC0006846FFF71FFC6C702C70AC7118492C71C2
:101CD0006C710A884888824208BF002009D001EB55
:101CE0008200521C806892B20A808B889A4208BF98
:101CF0000C80002818BF02F0C5FA0E490A884888EF
:101D0000824208BF002009D001EB8200521C80688B
:101D100092B20A808B889A4208BF0C80002808BFC4
:101D200038BDBDE8384002F0ADBA000064030020C1
:101D3000D8080020A408002010B5FFF775F9FEF7B9
:101D4000CBFF0449002001224880486048700A7097
:101D500010BD00002803002070B5284C2078002812
:101D600008BF70BD2648274D007810B12878E0B133
:101D70002AE0FFF721FC244910F4806F4FF00102A4
:101D80000DD022482A70007878B121480A8801884D
:101D90002048FFF789FB1F48FEF776FE05E009881B
:101DA00019B910F4006F18BF2A7002F021FA1A480E
:101DB000007848B11948FEF757FE194802881948BB
:101DC00001881648FFF7D0FB1748406810B96088B3
:101DD000401C60801548007830B11549B1F9000009
:101DE0000028C4BF401E088000F0ACFEFFF78CF94D
:101DF000FEF712FFBDE87040FEF7DEBF28030020AB
:101E00003A030020370300204C0300203503002054
:101E1000520300201C06002036030020600600202C
:101E20004A030020540300200C0900203E03002038
:101E300044030020FEE7704770B5002100230F2205
:101E4000C4781CB3174C246804F4E064C4F5E0645F
:101E5000C4F30721C1F10404E3B20A4144789C4071
:101E6000E1B28478144021430C07210E0E4C057812
:101E70006155047804F01F050124AC4005786D110C
:101E8000AD0005F1E025C5F8004109E0047804F053
:101E90001F050124AC40054D0678761145F8264013
:101EA00070BD00000CED00E000E400E080E100E027
:101EB00002490143024A1160704700000000FA0520
:101EC0000CED00E02DE9F0419089556984B0984609
:101ED0000F004FF00006C0F3032018BF072802D000
:101EE00009280DD030E02846FEF78EF986B2B8F109
:101EF000000F70D0324629464046FEF773F96AE07B
:101F000001242846FEF780F92844451C13E0BC4212
:101F100009D12846FEF778F986B2B8F1000F18BF4C
:101F2000002EE7D110E004F1010084B22846FEF74C
:101F30006BF92844451CBC4204D82878FF2818BFF8
:101F4000FE28E4D1002E46D10C26B8F1000F42D075
:101F50002348D0F801100091D0F805100191D0F875
:101F600009100291407B8DF80C0007EBC7009DF82B
:101F7000091000EB471001EB10308DF809001948EB
:101F8000A0FB071040096FF01801484307EB8000E1
:101F9000C0B2CD2110FB01F19DF80A2002EBD12146
:101FA0008DF80A101049A1FB0021C908494201EB34
:101FB000810100EB410030308DF80B000098C8F82B
:101FC00000000198C8F804000298C8F808009DF8BD
:101FD0000C0088F80C0004B03046BDE8F081000029
:101FE000900300201F85EB51CDCCCCCC82890069B9
:101FF000C2F30322082A1EBF01EB410100EB41009E
:102000007047002918BF801D70472DE9F0038A89A9
:102010005FEA000C4FF00000C2F3032618BF102047
:10202000072E02BF0020BDE8F00370470122BCF17B
:10203000010F3CBFBDE8F003704740F262270D6915
:1020400040F26328082E0EBFAB1D02EB420105EBE8
:10205000410319881F2935D00ADCA1F10304092C9A
:1020600010D2DFE804F02F210F2F21210F0F2F00B6
:10207000B1F5187F26D011DC202915D02E2921D0CA
:102080002F2911D0624502D25988084480B2511CD0
:102090008AB26245D6D9BDE8F0037047A1F5007455
:1020A000623C18BF012CEDD100F11F0020F01F0091
:1020B00020F480306245EAD2B9421CBF414520304D
:1020C000E4D1E1E700F10F0020F00F0020F48030B0
:1020D0006245DCD20B2918BFB1F5187F02D15988AF
:1020E000084480B200F1100080B2D0E72DE9F04141
:1020F00006462020B04085B2FEF77EFD4FF0000876
:1021000028B30189B1F5805F1ED3340018D0B0F830
:102110000CC000210CF0FF07B94215D8CCF3032303
:10212000CAB2082B16D0036902EB420203EB42024B
:1021300092882A4218BF0024491C89B2002CEBD196
:1021400008F101011FFA81F840680028D9D1404602
:10215000BDE8F081002A026918BF921DE8E70A3045
:10216000704710B50446FEF747FD30B10189A14222
:1021700008BF10BD40680028F8D1002010BD30B461
:10218000B2F80CC00225CCF303200CF0FF044FF092
:10219000000C5BB3072802BF002030BC7047082842
:1021A00018D00120012C28BF126909D300EB40038D
:1021B00005EB4303D35A401CC0B29C448442F5D281
:1021C0000CF10700C00800291CBF30BC7047801C00
:1021D00030BC704790691269007812895043C01D65
:1021E000C00800291CBF30BC7047F0E7072810D09A
:1021F000002902BF012030BC7047082810690ED0AA
:1022000001EB410105EB4101405A30BCC01DC00843
:1022100070471069408830BCC01DC00870470089F5
:1022200030BCC01DC00870472DE9F05F0746202074
:10223000B84086B20888DFF8A490DDF828A01D46D3
:1022400014468846B0F5805F04D0D9F80000002815
:102250003BD030E0FEF7D0FC68BBBAF1000F1CBFEA
:102260001B218AF8001030E0B0F808B0BBF5805FA1
:102270001FD33A0019D083894FF0000C03F0FF0AF6
:10228000D44516D8C3F30321082918D001690CEBF3
:102290004C0E01EB4E018988314218BF00220CF12F
:1022A000010101F0FF0C002AEAD1A11E25F802BBB2
:1022B0008CB2406848B1012CD6D8018907E0016989
:1022C000BCF1000F18BF891DE5E74FF6FF71A8F8B4
:1022D0000010C9F800002046BDE8F09FD40300209C
:1022E0002DE9F04F824685B098890F46DDE90E480A
:1022F0000D46C0F30321CDE901711E46934600F05F
:10230000FF09072905D0BAF5805F02D3B06990F8BC
:102310000090EF4BB8F1000F0AD0072900F07E8142
:10232000BAF5805F28BFCDF804901DD200F076B9D1
:102330004F4582BF112005B0BDE8F08F29463046D9
:10234000FFF754FE808878B1197800F0070201F099
:102350000F01B1EB420F07D910F0070F0CBF062099
:102360001A2005B0BDE8F08FD6F81CC0BCF1000FF4
:1023700009D023465A4639465046CDF80080E047FA
:1023800005B0BDE8F08FBAF5805F3FD297B339460C
:102390003046B569FFF72AFE4088C01DC30805EB2B
:1023A000870050F8042C12F0010F24D0C2F34E0025
:1023B00000214000B1EB530F0ED230F8022B491C24
:1023C000120A228090F800C089B242EA0C2224F856
:1023D000022BB1EB530FF0D313F0010F00F03E814D
:1023E000218801F47F412180008841EA102020806B
:1023F00000F034B90AE01088208050886080111DF8
:10240000201D1A1FFDF7EEFE00F028B900200390F2
:1024100000900198854200F25781D6F818B000214B
:102420003DB1BAF5805F04D3E8B23146FFF7EDFD68
:1024300001460809B2890BEB4003C2F30322E8B25C
:10244000082A19D0326900EB400002EB400BA0488B
:102450009BF80420007802F0070200F00F00B0EBB8
:10246000420F00F20381BD4204D0B8F1000F75D0D5
:10247000BD4273D375B907E000281ABF306900F177
:10248000060BD6F810B0E2E70298072818BF24F828
:10249000029B63D1BBF80000B0F5E06F0ED3BBF830
:1024A0000220082A9CBF02F12F0080B206D9102A10
:1024B00008BF062002D0202A08BF07201F2876D098
:1024C00013DC1F2872D2DFE800F0374A4A72784ADC
:1024D000727878A69292CDCDCDCDCD82CDCDCD8264
:1024E000CDCDCDCDCD82CDCD4A00342837D011DC35
:1024F000302834D008DC20285FD02D282FD02E287B
:1025000055D02F2859D0ADE031281CBF32283328B0
:102510004CD124E0B0F5187F69D005DC35281CBF0C
:102520003628372842D11AE0A0F5007061381CBF68
:10253000012802283AD15AE0B8F1000F36D0BBF892
:10254000020010F00F0F04D0014411F00F0F08BF6C
:10255000A41CC0F3031004EB400475E076E0BBF864
:1025600002205C48B3F800C030F8122011F00F00D0
:1025700002FA00F292B204BF002323802388238052
:10258000B8F1000F19BF0CEA020018430CEA02026E
:1025900022FA00F008BF184320809BF8020008448C
:1025A00010F00F0F08BFA41C4EE000E05AE011F03D
:1025B0000F0F08BF188831D106E011F00F0F2DD191
:1025C000188824F8020B588824F8020B3CE011F01C
:1025D0000F0F23D1188824F8020B588824F8020B17
:1025E000988824F8040BD88824F8020C2CE011F009
:1025F0000F0F13D1BBF802001946C01DC2082046B8
:10260000FDF7F0FDBBF80200010904EB410410F0F6
:102610000F0F17D118E011F00F0F03D005B00520F0
:10262000BDE8F08FBBF802001946C01DC208204665
:10263000FDF7D8FDBBF80200010904EB410410F0DE
:102640000F0F01D02078208001200390681C85B2F4
:102650000198A842BFF4E1AE0398A0B305B00020F2
:10266000BDE8F08F05B01820BDE8F08F002011F014
:102670000F0F04BF00222280BBF8022012F00F0FC0
:1026800006D0114411F00F0F02D1002124F8021FCF
:102690009BF80210C1F30311002988BF002109D95A
:1026A00024F8021F9BF80220401CC0B2C2F30312A0
:1026B0008242F5D89BF8040010F0070F0CBF0620EB
:1026C0001A200090C2E7FFE7009805B0BDE8F08F40
:1026D000400300208E6800082DE9F04F8A460E4620
:1026E000998987B017468146DDE9104BC1F3032273
:1026F000C9B2002006919846CDE9000AA9F5D05349
:10270000A3F50471CDE90312A9F5B055072A0ED03F
:10271000D8F81800007810F0FF0008D11F2905D95B
:10272000B5F5007F28BFB3F5007F00D20698BBF156
:10273000000F0AD0072A00F0BE81BAF1000F02D1C3
:10274000002F18BF207801901BE0824582BF112026
:1027500007B0BDE8F08F51464046FFF747FC808840
:102760000E2101EA9002F049097801F00F0191422F
:1027700007D910F0380F0CBF07201A2007B0BDE8AA
:10278000F08FBAF1000F10D003981F2805D9B5F5C6
:10279000007F28BFB3F5007F07D2D8F81800007873
:1027A00010F0FF0F1CBF01200090D8F820C0BCF132
:1027B000000F09D023463A4651464846CDF800B0AE
:1027C000E04707B0BDE8F08F002005900720029099
:1027D000002F00F0A0810198864200F2A081B8F895
:1027E0000C10D8F81850C1F30321F0B2082925D0F5
:1027F000D8F8101000EB400001EB4007F0B2414662
:10280000FFF703FC0146BA880E2000EA9202C64890
:10281000007800F00F008242C0F06381002E1CBFE0
:10282000080905EB4005564506D0BBF1000F00F046
:102830006A815645C0F06781A6B907E000281ABF33
:10284000D8F81000871DD8F81070D7E7049807282B
:1028500008D02088069AC1B28A4275D207B01320E8
:10286000BDE8F08F3888B0F5E06F0DD37A88082A7C
:102870009CBF02F12F0080B206D9102A08BF0620A3
:1028800002D0202A08BF07201F2870D014DC1F2880
:1028900080F02381DFE800F03746466BD3466BD3E8
:1028A000D3FDA1A1A0A0A0A0A0ECA0A0A0ECA0A0FE
:1028B000A0A0A0ECA0A04600342833D011DC302822
:1028C00030D008DC20286ED02D282BD02E284ED0DA
:1028D0002F2868D001E131281CBF322833287BD152
:1028E00020E0B0F5187F78D005DC35281CBF3628ED
:1028F000372871D116E0A0F5007061381CBF01289F
:10290000022869D1D4E0BBF1000F65D0788810F0BF
:102910000F0F04D0014411F00F0F08BFA41CC0F327
:102920000310C2E07A88814801F00F0C2B8830F840
:10293000120000FA0CF292B29343BBF1000F04D0E4
:1029400020881040184309E076E0228832EA000E21
:1029500025D1104000FA0CF0184380B22880B878D6
:10296000084410F00F0F08BFA41CB3E0FFE711F0FC
:102970000F0F75D10099208800291CBF298881423A
:102980006AD103991F290FD8A0F5B051B1F5007F86
:1029900024BFA0F5D051B1F5007F05D320B107B019
:1029A0001220BDE8F08F4AE041F6324189451ABF56
:1029B000A9F5E052B2F13302012E3DD12A888242BC
:1029C00037D068B3012809D0222804BFA9F5E05206
:1029D000B2F133021CD025E07FE069E0894507D1E0
:1029E0005349098821B15349097B11F0020F17D1CE
:1029F000A9F5E052333A15D14F49097B11F0020F86
:102A000010D04B49098869B94C49098841B909E096
:102A10004949097B11F0020F04D04549098809B1E1
:102A2000002100E01221029119B107B00846BDE86B
:102A3000F08F434A012111702880A41C4AE011F054
:102A40000F0F38D1009860B128882188884203D1BF
:102A500068886188884204D007B01C20BDE8F08FE8
:102A600029E034F8020B288034F8020B688031E04A
:102A700011F00F0F1FD134F8020B288034F8020B2D
:102A8000688034F8040BA88034F8020CE88021E058
:102A9000FFE711F00F0F0ED178882146C01DC20844
:102AA0002846FDF79FFB7888000904EB400411E0FD
:102AB00011F00F0F03D007B00520BDE8F08F788824
:102AC0002146C01DC2082846FDF78CFB7888000906
:102AD00004EB40040120059015E007B01820BDE884
:102AE000F08F002E08BFA41C0BD0788810F00F0FB9
:102AF00004D0014411F00F0F08BFA41C000904EB1F
:102B0000400418200290701C86B20198B042BFF4B5
:102B100066AE059818B107B00020BDE8F08F0298A6
:102B200007B0BDE8F08F0000400300208E68000869
:102B30004C0300200C090020500900204A0300200B
:102B40009003002035480078002808BF70472DE921
:102B5000F041FEF761FD324E324C054610F4806FB5
:102B60001ED0FEF785FD3049012008702F480078FF
:102B700040B1228831882E48FEF796FC2C48FDF79C
:102B800083FF0DE0022231882A48FEF78DFC308851
:102B9000218802220844801E81B22648FEF784FC68
:102BA00015F4006F04D02088002808BFFEF760FDF0
:102BB000214F7888012808BF01F01AFB1F48204DDB
:102BC000007870B16888012818BF222809D11D48F3
:102BD000FDF74AFF1C4802881C4801881948FEF787
:102BE000C3FCFEF719FD10F4806F08BFBDE8F0814B
:102BF000788D4FF0020200F10100788568853188F8
:102C00000C48FEF751FC30882188BDE8F0410844AB
:102C1000801E81B202220748FEF746BC3A0300201C
:102C2000520300204C03002037030020350300200E
:102C30001C060020580300200C0900203603002049
:102C400050090020600600204A03002054030020A1
:102C500010B50648FDF708FF0548028805480188B9
:102C6000BDE810400148FEF77FBC00006006002070
:102C70004A030020540300207047000029B1064A8F
:102C800012680243044B1A6004E0034A126882434C
:102C9000014B1A60704700002038024029B1064AF3
:102CA00012680243044B1A6004E0034A126882432C
:102CB000014B1A6070470000243802402DE9F04FA4
:102CC000044685B0008921880091FE494FF0000A32
:102CD000C7B2097807F0E009D346D0465546002927
:102CE0001EBF092005B0BDE8F08FB9F1000F00F05C
:102CF0004D81B9F1200F18BFB9F1400F05D0B9F1DE
:102D0000600F00F0438100F0F6B961894FF6FF7261
:102D100002EA012202EB102080B20490080A03901C
:102D20000498FFF71EFA0290002808BF4FF0080A27
:102D300000F0D78100260196DDE9031007F01003AB
:102D4000029AFFF71CFA80464546B9F1400F05D0BC
:102D500007F00200B9F1200F19D043E000980A28CB
:102D600034D1B8F1040F08D8B8F1000F05D0002015
:102D7000A08104F10C06E08134E0D3480088A0F182
:102D80001005454528BF04F110062BD228E048B1B4
:102D900000980A281AD1C7F38100C0F1040504F194
:102DA0000C061FE0A089E18900EB0145C74805F149
:102DB00010010088814204D90099801F814205D109
:102DC00008E0009805F10A01884203D005B0082008
:102DD000BDE8F08F009804F110060A38854201D949
:102DE0000120019017F0100F04D003984FF0010B51
:102DF00001283BD80198002870D0B24E0120B9F1CB
:102E0000400F7071307286F806B0049830820398D3
:102E1000F071029830630CBFC6F82C80F562306AFE
:102E200018B101F02FFA00203062F06A401C20F047
:102E3000010002F061FA306288B1B9F1400F19D097
:102E40000099A1F10A0204F11001FDF7CBF900206D
:102E500030710098A0F10A05B56200F03EB9BBF1EF
:102E6000000F08BF4FF0040A00F03B814FF0050A45
:102E700000F037B9CDE9000BDDE903104246029BB3
:102E8000FFF72EFA5FEA000A1ED0BAF1FF0FE3D176
:102E90000420707086F802B00398F0700498708176
:102EA000C6F81480306AB061029807F0F001C0697A
:102EB000F061012030707462208920F0FF00084327
:102EC0002081602030715DE02A4604F11000316AF3
:102ED000FDF788F960203071BEE7FFE7B8F1000F19
:102EE00006D17848049901820399C171029901635E
:102EF000CDE9006B029BB9F1400F08D0DDE903106A
:102F00002A46FFF7E9FB8246FF2824D0E9E0DDE905
:102F100003104246FFF7E4F98246FF2877D169485B
:102F20000321417080F802B00399C1700499418176
:102F3000C0E905860299C969C16101210170446235
:102F4000208907F0F00120F0FF000843208105B040
:102F50000020BDE8F08F5B480121417080F802B08D
:102F6000039AC270049A4281C0E90556029A126A15
:102F7000C26101704462208907F0F00120F0FF0077
:102F80000843208105B00020BDE8F08FDFF834B1A0
:102F90009BF8041089457DD1B9F1000F38D0217A12
:102FA0009BF8082001F010014FF0000A914208BF81
:102FB0004FF0010A6FD0444A12888BF80810093A82
:102FC000DBF828C096B2DBF82C100CEB06028A4224
:102FD00086BFA1EB0C06002101218BF805103949B1
:102FE00020F47F4323810A6A896A1CF0010F21F0D3
:102FF000010112D0505A00F47F4003438818811C0D
:103000002381721E04F10A00FDF7ECF827E068E066
:10301000204600F065FA82465FE0515C4FF47F4243
:1030200002EA0121002043EA01024FEA5C0C2281FE
:10303000B0EB560F13D2DBF8201000EB0C0231F886
:10304000123001EB42011B0A897843EA012204EBAA
:103050004001401C80B24A81B0EB560FEBD3E088B0
:1030600020F4704040F44051E180208920F0FF00BE
:1030700020819BF805109BF80820002908BF42F02A
:10308000010202432281072E24BFF01C20800AD2B5
:103090000A2201E02FE020E022802089C6F1070209
:1030A00040EA42002081012912D0DBF8200001F023
:1030B000E9F80020CBF82000CBF828008BF80400BA
:1030C0000BE00000A00300206C0300206E03002032
:1030D000DBF828003044CBF82800BAF1FF0F3FF4AA
:1030E00051AFCDE90084ABB207F01002494650461B
:1030F00000F0D4FA46E74FF0030AF2E72DE9F04F6B
:1031000083B0002604468DF80460007A4FF0020870
:1031100000F07F052088052D05D0082805D203B0D2
:103120000620BDE8F08F0A28F9D3DFF84492914FCA
:10313000012D23D0032D1CBF052D03207DD08DF83C
:1031400004004FF00A002080208920F07F0040F02A
:1031500007002081668188489DF8041050F82100FE
:10316000E060BE8141462046FEF76CFC00281CBF93
:1031700082480460002003B0BDE8F08FA0890528D4
:10318000F0D8C1B27E482268026062684260A268DC
:103190008260A2898281481EC5B23CBFBE810025E3
:1031A0000BD22846FEF7A2FF04EB4501C881681C3C
:1031B000C5B2052DF5D3122036E0B88950B1B9F863
:1031C000001004F10C030C398AB2F989ADF808102B
:1031D000401E1AE02846FEF789FF01464FF4805052
:1031E000ADF80800B9F8000004F10E030E3882B201
:1031F000B2EB410F28BFBE8108D2901C80B2C2EB57
:1032000041010144491E91FBF0F0B88101A80090F2
:1032100002A92846FFF708F8BDF80810F981B9F8A7
:103220000010081A801F80B220809DF8040000283A
:1032300087D1208920F07F0000E00CE040F0020000
:103240002081B989618100298CD040F080002081E3
:103250004FF0820886E7A089ADF80800B0F5805FDE
:1032600038BF0520FFF46BAFFEF77BFF5FEA000B72
:1032700008BF08203FF463AF032D4BD094F80EA095
:103280005846FEF76CFF8078824588BF11203FF6D4
:1032900056AF51465846FEF7A9FE01682161808865
:1032A000A082E08920F47F40E0815846FEF757FF76
:1032B0004088C0F30320082814BF0928BAF1000F82
:1032C00047D04FF000035A465146BDF80800FEF7BC
:1032D000F9FDB9F80010103080B2891F884288BF0C
:1032E000102009D804F116035A465146BDF80800CB
:1032F000FEF7E8FD103080B29DF8041000297FF43D
:1033000020AF668120802089691C20F07F0008435F
:10331000208127E7FEF723FF0068C4F80E00002392
:103320005A461946BDF80800FEF7CCFDB9F8001062
:103330000C3080B2891F884288BF0C20DCD804F191
:1033400012035A460021BDF80800FEF7BBFD0C3001
:10335000D1E70C480168C4F816104168C4F81A1087
:103360008168C4F81E10007B84F822001C20C3E78B
:103370006C030020A0030020B06800083003002088
:1033800094090020910300202DE9F043254E814649
:103390000025307883B013460C46002804BF03B0E4
:1033A000BDE8F083D6F824C09CF8080000F0E008DF
:1033B00000F01007B8F1400F25D11B4800881038E5
:1033C00085B2A5420FD2012070713072B7716020B2
:1033D000F46230712A4619460CF110003362FCF792
:1033E00001FFB5620FE0601E032804D80CF10C0049
:1033F000834204D107E00CF11000834203D00A4657
:103400001946FCF7EFFE00203070706A2B46CDE9BC
:1034100000403A464146484600F040F903B0BDE856
:10342000F0830000A00300206C03002021B102887B
:1034300042F04002028004E002884FF6BF731A4057
:10344000028070470246002013890B400BB1012017
:1034500000E00020704701468889704781817047ED
:1034600010B50022028802F441520B884C88234395
:103470008C882343CC8823430C8923434C892343E2
:103480008C892343CC8923431A430280838B4FF2D8
:10349000FF74234083830B8A038210BD70470000B2
:1034A00030B500228B071C0F0F2303FA04F20B4BDD
:1034B0008C1053F824309343084C8D1044F8253079
:1034C00023468C1053F824308C07240F00FA04F4A0
:1034D0002343024C8D1044F8253030BD083801409C
:1034E0002DE9F0476B4F044602890026387A02F036
:1034F000100182B0B046814208BF012643D0664821
:10350000008839720938396A80B2002908BF032659
:1035100079D0D7E90A3CACEB030512F0010F4FF06C
:10352000010931D085422DD82088C01E854205D89A
:10353000C2F3420CCCF1070CAC4503D0072D21D9C6
:1035400085421FD187F80580524813F0010F806A29
:1035500020F001001FD00A5A22F47F420A52238928
:10356000B86A03F47F4320F001001A430A52B86A94
:103570006A1E20F00100084404F10A01801CFCF7D7
:1035800031FE2BE00E263EE087F80590854288BF8D
:103590000546F7D9D8E794F80AC04FF47F4303EA09
:1035A0000C2C4CEA12220A52012005F1010AB0EB60
:1035B0005A0F13D204EB400292F80AC0128903EAB0
:1035C0000C2C4CEA1222D7F828C000EB5C0C401CF3
:1035D00080B221F81C20B0EB5A0FEBD3787988B970
:1035E000B979386ACDE90001D7E90B23F979388A2E
:1035F000FFF772F80646FF2815D0386A00F042FE41
:10360000C7F820805EB387F8058087F80480386AA1
:1036100018B100F037FEC7F82080C7F8288002B044
:103620003046BDE8F08702207870B879B870F87934
:10363000F870388A7881F86A7861386AB861386BCE
:10364000006AF86187F800907C6287F8058087F847
:103650000480C7F8288002B0FF20BDE8F0870A2068
:103660002080E08820F4704040F44050E080387AB8
:10367000002814BF302020202081787901281CBF29
:10368000C7F8288087F80480C9D1B86A2844B8628E
:10369000C5E70000A00300206E03002070B50546BA
:1036A000DDE90404602918BF002905D0B4F808C07A
:1036B0000CF47F4CA4F808C0B4F806C04FF00A061A
:1036C0002CF4704CA5B126804CF40050E0804FF0F3
:1036D000800020811F4850F82500E0604FF0020173
:1036E0002046FEF7AFF900281CBF1B48046070BDE0
:1036F0004CF4405CA4F806C0402907D021B36029EF
:10370000ECD02680208940F060001BE0411E032998
:103710000AD826802189C0B21143C0F10400432297
:1037200042EA800008430DE0984294BF00F10A018C
:1037300003F10A012180A081000CE081208942F080
:10374000410108432081C9E72680208940F02000FC
:10375000F8E70000B06800083003002038B50E4CD0
:10376000ADF80010227B824218BF2073A1F57F4282
:10377000FF3A07D0ADF8001002224FF49A71684664
:10378000FDF7C0FE207BADF8000002224FF49871D7
:103790006846FDF7B7FE38BD340300202DE9F04F31
:1037A00083B00025934EADF80050ADF804504FF0B3
:1037B000030A7584D1468E4FF5704FF400684FF4BC
:1037C0000161082206F12600FDF736FE06F1260407
:1037D0002088F083207910F0020F18BF4FF0010904
:1037E00040F6180108228448FDF726FE2088308420
:1037F000217911F0020F18BF4FF0010AF48A7F4AB5
:1038000004FB0A011388DFF8F8B1994204DDBBF824
:1038100000201A4482420AD87A4ADFF8ECA11288C2
:10382000914208DDBAF800101144814203D903B077
:103830001E20BDE8F08FF18BB6F818C00CFB091CF8
:103840009C4504DDBBF800904B448B420BD894455B
:1038500004DDBAF800301A448A4204D8844506DDF3
:103860002044884203D903B01D20BDE8F08F022216
:103870004FF4186102A8FDF7DFFDBDF80820634B87
:10388000ADF808207988588812F4106F0ED1604A7C
:1038900092F800C00122BCF1000F0CD0022918BF21
:1038A000032903D0022818BF03280DD103B04FF01D
:1038B0003000BDE8F08F308BF8B1F08A4FF0010195
:1038C000002818BF2220BA8396F807C0BCF1000F69
:1038D0001BD051EA000C0ABF96F806C0B271BCF1C9
:1038E000000F21D0B6F818C0BCF1000F1CBF4FF478
:1038F000806CA6F822C010D016E0F08A4FF00001CC
:10390000002814BF01200020DDE7002914BF002893
:103910002920DED103B0BDE8F08FB6F816C0BCF1A7
:10392000000F18BFA6F82280022918BF032903D070
:10393000022818BF032804D17271328B002A08BFF5
:10394000758479805880334802224FF48461058061
:1039500001A8FDF771FDBDF80400ADF80400318B3E
:10396000002914BF0028ADF8005020D04FF002020B
:103970004FF480616846FDF75FFDBDF80000ADF8CB
:103980000000002808BFADF8045010D0BDF80410A6
:10399000801C484346F2A7110844491CB0FBF1F0D3
:1039A0000004000CB08303D0307918B106E0B58371
:1039B000307918B103B01F20BDE8F08FB07900282E
:1039C000308B05D040B1708C40F48060708400E092
:1039D00010B10220FDF78CFCF08A00281CBF0320E8
:1039E000FDF786FCFFF734F903B00020BDE8F08F47
:1039F0000C090020340300205A0300207203002029
:103A00006C030020700300206E030020500900208A
:103A1000900300209E03002038B5144C208B002812
:103A20001CBF0220FDF7E7FAE08A00281CBF032034
:103A3000FDF7E1FA4FF2F33502224FF401716846C7
:103A4000FDF7FAFCBDF8000002222840ADF80000A6
:103A50004FF401716846FDF755FD0020E070A0713C
:103A600003492071A070087038BD000034030020A5
:103A700090030020042808D14FF0E021096941F0AB
:103A800004014FF0E022116107E04FF0E0210969E5
:103A900021F004014FF0E0221161704770470000EF
:103AA00030B41B4C20681B4D1B4910F00C0008D093
:103AB0004FEA650C042808BFC1F800C002D00828EE
:103AC0000BD00D602068154AC0F30310105C0A6823
:103AD00022FA00F0086030BC7047114A1068C0F349
:103AE00080531068002B00F03F0014BFBCFBF0F0C7
:103AF000B5FBF0F013681268C3F388135843C2F3A0
:103B00000142521C5200B0FBF2F00860DAE70000FC
:103B1000083802400024F400E8030020EC030020F1
:103B2000043802403E4982B0086840F00100086055
:103B30003C484FF0000CC0F800C00A6822F4102284
:103B400022F080720A60031F374A1A600A6822F462
:103B500080220A60021DC2F800C0026822F0FB52F7
:103B600022F060420260026842F0B35242F000521A
:103B70000260CDF800C0CDF804C00A6842F480327B
:103B80000A600A6802F400320192009A521C009204
:103B9000019A1AB9009AB2F5A04FF2D10A6812F44C
:103BA000003F08BFCDF804C034D0012201921F4A63
:103BB000D2F800C04CF0805CC2F800C01C4AD2F8B9
:103BC00000C04CF4404CC2F800C0026802600268B9
:103BD00042F400420260026842F4A0520260154AB8
:103BE0001A600A6842F080720A600A6812F0007F68
:103BF000FBD0114940F205720A60016821F003010F
:103C00000160016841F002010160016801F00C01EE
:103C10000829FAD109494FF00060086002B07047E6
:103C2000003802400838024010300024403802407A
:103C30000070004008544007003C024008ED00E0DE
:103C400001F034B801F060B801F08AB8CA430282CA
:103C5000704721B1028842F00102028004E002882C
:103C60004FF6FE731A4002807047000010B50446FC
:103C70005548844208D101210846FFF70FF800217A
:103C80000120FFF70BF89DE0B4F1804F08D101212E
:103C90000846FEF7F3FF00210120FEF7EFFF91E059
:103CA0004A48844208D101210220FEF7E7FF0021A3
:103CB0000220FEF7E3FF85E04548844208D1012158
:103CC0000420FEF7DBFF00210420FEF7D7FF79E098
:103CD0004048844208D101210820FEF7CFFF00218F
:103CE0000820FEF7CBFF6DE03B48844208D101215C
:103CF0001020FEF7C3FF00211020FEF7BFFF61E098
:103D00003648844208D101212020FEF7B7FF002168
:103D10002020FEF7B3FF55E03148844208D101214D
:103D20000220FEF7BBFF00210220FEF7B7FF49E0AB
:103D30002C48844209D101210804FEF7AFFF00217D
:103D40004FF48030FEF7AAFF3CE02748844209D1B7
:103D500001214804FEF7A2FF00214FF40030FEF7D6
:103D60009DFF2FE02148844209D101218804FEF7FC
:103D700095FF00214FF48020FEF790FF22E01C48C1
:103D8000844208D101214020FEF778FF0021402025
:103D9000FEF774FF16E01748844208D10121802005
:103DA000FEF76CFF00218020FEF768FF0AE0124852
:103DB000844207D101218015FEF760FF0021A01584
:103DC000FEF75CFF10BD0000000001400004004051
:103DD00000080040000C00400010004000140040AB
:103DE00000040140004001400044014000480140FF
:103DF00000180040001C0040002000400146086CF4
:103E0000704730B50246002000230024158A05EAD9
:103E10000103958905EA010413B10CB1012000E00A
:103E2000002030BD1AB183890B43838102E083896E
:103E30008B4383817047000000220288184B984210
:103E40000ED0184B98420BD0B0F1804F08D0164BD3
:103E5000984205D0154B984202D0154B984204D198
:103E60004FF68F731A404B881A43124B984207D073
:103E7000114B984204D04FF6FF431A400B891A4366
:103E800002804B68C3620B880385054B984202D0C1
:103E9000044B984201D18B7A0386012383827047B9
:103EA0000000014000040140000400400008004000
:103EB000000C0040001000400014004002460020AA
:103EC000B1F5007F00D100BF13880B400BB101207A
:103ED00000E000207047C1F3080282807047FEE7CF
:103EE0000FB4054B10B503A9044A029800F020F85E
:103EF00010BC5DF814FB00006142000810060020B1
:103F00000021016041600181704700210160416032
:103F1000704702E008C8121F08C1002AFAD1704792
:103F20007047002001E001C1121F002AFBD1704739
:103F30002DE9FF4F8DB09B460F460446002606E054
:103F400025280BD05A460F999047641C761C207880
:103F50000028F5D111B03046BDE8F08F0025A84605
:103F60000122984900E0054314F8013F203B02FA82
:103F700003F00842F7D120782E2817D114F8010F4A
:103F800045F004052A280ED06FF02F022078A0F10A
:103F9000300109290AD808EB880102EB410100EB46
:103FA0000108641CF2E757F8048B641C20786C2825
:103FB0000DD004DC4C2812D06A2811D104E07428FA
:103FC0000DD07A280CD10AE045F4001507E061789D
:103FD00045F48015814202D1641C05F58015641CEE
:103FE0002278692A45D008DC002AB3D0582A69D043
:103FF000632A10D0642A08D13BE0702A67D0732A64
:1040000013D0752A5CD0782A5CD010465A460F9996
:104010009047761CD3E017F8040B8DF800000020C1
:104020008DF80100E946012003E057F8049B4FF0AA
:10403000FF3069074FF0000501D40AE06D1C4545CB
:104040000DDA8542FADB19F805100029F6D106E0F1
:104050006D1C8542FCDB19F805100029F8D12E44AF
:1040600004E019F8010B5A460F9990476D1EF8D2DB
:10407000A5E00A200021CDE90801C5F3025002287D
:104080000DD001CFC117031E71F100030DDA4FF0FF
:10409000000CD0EB0C006CEB01012D2308E0FF1DA0
:1040A00027F00707F7E80201EDE72B0504D52B23DE
:1040B0008DF8283001233BE0EB0739D02023F7E7C8
:1040C0000A2000E010200021CDE9080107E01020BF
:1040D000002145F00405CDE908014FF00808C5F3BB
:1040E000025002280FD001CF00214FF0000A2B0709
:1040F0001FD5702A0DD0DDE908C38CF0100C5CEAE6
:10410000030C0CD015E0FF1D27F00707F7E80201AC
:10411000EBE740228DF828204FF0010A0BE050EA2F
:10412000010306D030238DF828308DF82920022392
:104130009A46582A04D024A20DF120090B9209E0D6
:1041400026A2F9E7DDE90823FCF78AF80B9B9B5CC4
:1041500009F8013D50EA0102F4D1ADEB090020302D
:104160000890680701D44FF001080899884502DDDE
:10417000A8EB010000E000208046002506E00AA828
:104180005A46405D0F9990476D1C761C5545F6DBED
:1041900004E030205A460F999047761CB8F1000190
:1041A000A8F10108F5DC05E019F8010B5A460F9952
:1041B0009047761C0899481E08900029F4DC641C7E
:1041C000C5E6000009280100303132333435363776
:1041D0003839616263646566000000003031323353
:1041E00034353637383941424344454600000000F3
:1041F00017480023017AA1B1037202681549D2F869
:1042000000C0C1F802C0D2F804C0C1F806C0D2F89C
:1042100008C0C1F80AC0D2F80CC0C1F80EC0128A9A
:104220004A820D490A69B2F57A7F98BF70470B61DF
:1042300042680A4951F8023F13604B6853608B682B
:104240009360CB68D360098A118201214172704763
:10425000280A0020D8050020C4050020EC05002015
:1042600070B5074D044680212846FFF727FE012838
:10427000F9D1E1B22846FFF72EFE204670BD0000BE
:104280000010014010B5002821D0114B0022001F62
:10429000196803E0814203D80A4649680029F9D128
:1042A00052B11368841A9C4204D10068184410600B
:1042B000104602E0506000E0186039B102680B1A45
:1042C000934203D10B681A4402604968416010BDF3
:1042D00014060020F0B4014615484FF4804CA0F8B5
:1042E00000C04FF400430380124A01265683022582
:1042F00055830420104C11F0010F1CBFA4F800C01E
:10430000032011F0020F02D02380401EC0B211F032
:10431000040F02D01683401EC0B211F0080F04BF74
:10432000F0BC70471583F0BC401EC0B2704700005F
:104330001A1C024000200240181C024070B50B4CB1
:10434000054602212046FFF77DF80028F9D02946CE
:104350002046FFF783F801212046FFF773F8002875
:10436000F9D02046FFF777F8C0B270BD00300140A9
:104370000148007870470000C4050020014800781B
:1043800070470000000600200148007870470000D8
:104390000C060020004870471C0A0020064810B593
:1043A0000068804705480078052818BF10BD002028
:1043B000BDE8104000F01EB81000002003000020EF
:1043C00010B5FFF7DBFF094C6070FFF7DDFFA07051
:1043D000FFF7CEFFE0702078022828BF10BD044907
:1043E00051F82000BDE81040004700000000002008
:1043F0000800002002490A780A710870704700001E
:1044000000000020064810B5006880470548007885
:10441000052818BF10BD0120BDE81040FFF7EABF16
:104420001400002001000020FFF700B82DE9F84F2C
:104430000746481E0D46042828BFBDE8F88F4FF4F4
:104440008079DFF85480A8F80090002408F1020A6F
:10445000002D88BF4FF4007615D907EB4400008883
:10446000ADF8000080B200F0C1FC012000F0F2FACB
:10447000AAF80060012000F0EDFAA8F80060601CC6
:10448000C4B2A542E9D8AAF80090012000F0E2FAEF
:10449000A8F80090BDE8F88F180C02402DE9F04F05
:1044A00087B003A806905948CDF808D00DF1100B3D
:1044B000016841F482710160016841F4C2710160D8
:1044C0005348016841F480410160DFF848810622C9
:1044D0000A214046FCF76CFF06220B214046FCF700
:1044E00067FF02278DF804704FF003094FF4406016
:1044F0008DF80590002500908DF8065001248DF868
:10450000074040460299FCF70BFF26038DF8044054
:1045100000968DF8074040460299FCF701FFDFF84E
:10452000F8804FF0080ACDF800A08DF804504046FE
:104530000299FCF7F5FE4FF4404000908DF80440DE
:1045400036480299FCF7ECFE3549A003088040008C
:10455000891E0880CDF8009040460299FCF7E0FEE5
:10456000A8F81840A8F8187003210820FEF798FF53
:104570008DF814500C208DF81500CDF810A08DF892
:1045800016405846FCF76AFE09208DF80C008DF89D
:104590000D508DF80E408DF80F400698FDF74CFC3D
:1045A00020480680801E06801F486946026842F443
:1045B000004202601D48026842F400420260026844
:1045C00022F400420260ADF800504FF48270ADF862
:1045D0000200ADF808406002ADF80A001020ADF806
:1045E0000C000720124CADF80450ADF81000ADF8E7
:1045F0000670ADF80E502046FEF732FF002120462F
:10460000FEF714FF07B0BDE8F08F0000303802401D
:10461000443802400008024000200240001C0240D2
:104620001A1C02401A08024040380240203802405A
:10463000003C00402DE9F041354C86B06F462068C3
:1046400040F002002060DFF8CC8005220D214046BA
:10465000FCF7AEFE05220F214046FCF7A9FE4FF401
:104660002040022100908DF8041003208DF80500F1
:1046700000268DF8066001258DF807503946404622
:10468000FCF74EFE206840F0080020604FF4E06028
:1046900000908DF8045039461F48FCF741FEA015E4
:1046A0001E4C208047002780A01C4FF48068A0F893
:1046B00000800A2000F0CEF9A4F80080184869466E
:1046C000026842F4804202604FF48270ADF802004A
:1046D0000720ADF810004FF44040ADF80000E014A2
:1046E000ADF80400ADF80E6008200E4CADF80A706D
:1046F000ADF80C00ADF80660ADF808502046FEF7A6
:10470000AFFE01212046FEF791FE06B0BDE8F08124
:104710003038024000040240000C0240180C0240F5
:1047200040380240003800402DE9F043374885B05A
:10473000E846016841F001010160DFF8D4900522EC
:1047400011464846FCF734FE052206214846FCF790
:104750002FFE052207214846FCF72AFEE02002270B
:1047600000908DF8047003208DF8050000258DF869
:10477000065001248DF8074041464846FCF7D0FD1D
:1047800010268DF8044000968DF8074041464846B3
:10479000FCF7C6FDA9F81860082000908DF80450B9
:1047A0008DF8074041464846FCF7BAFD194869466E
:1047B000026842F4805202601748026842F4805254
:1047C0000260026822F480520260ADF800504FF49B
:1047D0008270ADF80200ADF808406002ADF80A0042
:1047E00007200E4CADF80450ADF80C60ADF8100089
:1047F000ADF80670ADF80E502046FEF731FE0121EF
:104800002046FEF713FE05B0BDE8F08330380240C5
:104810000000024044380240243802400030014089
:104820002DE9F04383B000F013FC324CE8462068D9
:1048300040F04A00206000258DF804500326FF2038
:104840008DF8056000908DF8065002278DF80770EE
:1048500041462948FCF764FD4FF47E4000904146F4
:104860002648FCF75DFD2020009041462448FCF7D7
:1048700057FD2068E94640F010002060206840F0B5
:10488000D800206001208DF804008DF805608DF8B7
:1048900006501C4D4FF010088DF80700CDF8008031
:1048A00049462846FCF73CFD206840F005002060A2
:1048B000154E002208213046FCF77AFD134C0022E9
:1048C00009212046FCF774FDA01500908DF80470B6
:1048D00049463046FCF724FD6015009049462046C5
:1048E000FCF71EFDA5F8188003B0BDE8F043FFF704
:1048F000D7B8000030380240000C024000180240D7
:104900000004024000100240000002400008024083
:10491000F8B54FF4A060FDF7CBFA36208DF8000013
:1049200000268DF8016002216C468DF802100125E9
:104930008DF803502046FDF77FFA37218DF80010DF
:104940008DF8016003218DF802108DF80350204688
:10495000FDF772FAF8BD000070B584B0002022495E
:104960006C4603464FF0140C01EB0012401CC2E9E8
:1049700000C3936013730528F6D36FF00400FFF7AC
:1049800079F81A4915200880088800EB4002C2EB2C
:10499000C0104FF6FF7202EAC0004880144E304645
:1049A000FFF764F91348016841F01001016009251F
:1049B000002341F2670C1A4619462CB12580C4F831
:1049C00004C063802281A17221463046FFF734FA89
:1049D000012211463046FFF725FA01213046FFF744
:1049E00038F904B070BD0000CC090020E2030020BB
:1049F0000010004040380240F0B5144E83B06F46BE
:104A00003046FFF733F91248016841F02001016098
:104A10004FF0000C632541F26704ADF80050ADF88B
:104A200008C00194ADF802C08DF80AC0394630467E
:104A3000FFF702FA012211463046FFF7F3F9012190
:104A40003046FFF706F903B0F0BD00000014004047
:104A500040380240002808BF70470C490988484385
:104A60004FF0E021486100238B61086940F00100AC
:104A70000861086910F0010F02D010F4803FF8D0EF
:104A8000086920F0010008618B617047E203002093
:104A9000F8B5114C02260025607820B101280CBF22
:104AA00026706570F8BD9320009002224FF40171CA
:104AB0006846FCF727FD009502224FF40171684615
:104AC000FCF7BAFC009893281EBF03202070F8BDA5
:104AD000012060702670F8BDC4050020034802491B
:104AE000C16005210170704719510008C4050020FC
:104AF00010B50948094C00F10C01016000F12001DA
:104B0000416000210172417221616170FFF70CFE6A
:104B10000220207010BD0000280A0020C4050020DB
:104B200010B5FDF709F902490220087010BD000018
:104B3000C40500200248C068002808BF704700472D
:104B4000C405002000B5204983B000200870FFF79D
:104B5000A5FC0E20FFF7BEFB01211C48FFF764FCFB
:104B6000FFF768FD4FF40041032000F06FF9029059
:104B7000BDF80800ADF800004FF40041022000F03D
:104B800065F90290BDF80800ADF802004FF400414D
:104B9000012000F05BF90290BDF80800ADF80400B8
:104BA0004FF40041002000F051F90290BDF80800D8
:104BB000ADF8060004216846FFF738FC04490220DE
:104BC000087003B000BD0000E6030020003C004078
:104BD0000006002010B5FFF723FEFFF799FE0448FA
:104BE00000218170417081600221017010BD0000C0
:104BF0000006002010B5094CA07838B90123084AF6
:104C0000C821022000F00EF90120A0700020607081
:104C1000044860600220207010BD000000060020E3
:104C2000D55200083151000802484068002808BFEA
:104C3000704700470006002010B50123044AC82130
:104C4000042000F0EFF803490220087010BD0000B6
:104C5000095100080C06002010B5FFF77DFEFFF794
:104C6000CBFE02490220087010BD00000C06002097
:104C700070B50820FCF7E6FA002808BF70BD0820D0
:104C8000FCF7DAFA0024064D00F08EF82855601C77
:104C9000C4B20C2CF8D303490120087070BD000089
:104CA0001C0A0020E603002000F0D2B970B5144EB3
:104CB00010213046FFF7A5F8002808BF70BD304628
:104CC000FFF79CF80F4D29782C1D04EB4102491C7D
:104CD0002970108010213046FEF7B8FF287802288E
:104CE00038BF70BD608821884FF6FF72511A491C89
:104CF000084468803046BDE87040FEF7B7BF00004A
:104D0000000C0040DA0300202DE9F041124F012190
:104D10003846FFF776F8002808BFBDE8F081002488
:104D20000E4D264605EB0411087B58B1D1E900026F
:104D300082423CBF501C486004D34E608968002901
:104D400018BF8847641C052CECD33846BDE8F041F9
:104D50000121FEF77BBF000000100040CC090020BD
:104D60002DE9F0410E4F01213846FFF74AF800289F
:104D700008BFBDE8F08100240A4D05F1140655F87E
:104D8000241000291CBF56F824008847601CC4B2B8
:104D9000052CF4D33846BDE8F0410121FEF756BF9B
:104DA00000140040A409002070B50F4D0024641CBD
:104DB000102C05D202212846FEF744FB0028F6D02D
:104DC000FF212846FEF74AFB0024641C102C05D264
:104DD00001212846FEF736FB0028F6D02846BDE81C
:104DE0007040FEF738BB0000003C00402DE9F04168
:104DF0000B4E002407462546641C102C05D20221C8
:104E00003046FEF71FFB0028F6D039463046FEF745
:104E100025FB102C38BF01252846BDE8F081000095
:104E200000380040052824BF00207047DFF818C074
:104E3000012B0CEB0010826001600CBF01210021EE
:104E40000173012070470000CC09002038B50446EA
:104E500001F5004080B2FBF7EAF96FF00F01FBF7B4
:104E6000DAF90C21FBF7D7F9FBF7E6F9BDF80010EA
:104E700060F30B0121F4405064F38F30ADF8000073
:104E800080B238BD10B5FFF703FE03490148086042
:104E900010BD00009D4E000810000020064800785C
:104EA000022804D0032818BF7047FFF7F1BD04495A
:104EB000024808607047000003000020354F0008DA
:104EC0001000002004480078052818BF70470348E8
:104ED000034908607047000003000020E54E000809
:104EE0001000002010B5FFF7F9FD034901480860E4
:104EF00010BD0000C54E00081000002010B5FFF7DF
:104F0000F7FD03490148086010BD0000154F000877
:104F10001000002004480078022818BF704703489A
:104F2000034908607047000003000020854E000818
:104F30001000002010B5FFF7F3FD03490148086099
:104F400010BD00004D4F00081000002004480078FC
:104F5000022818BF704703480349086070470000E3
:104F600003000020E54E00081000002010B5FFF7F8
:104F700031FEFFF771FE03490148086010BD0000D3
:104F8000894F00081400002004480078022818BF48
:104F90007047034803490860704700000100002083
:104FA000195000081400002010B5FFF7CBFD03498D
:104FB0000148086010BD0000C14F00081400002027
:104FC00004480078022818BF704703480349086066
:104FD0007047000001000020E14F0008140000208D
:104FE00010B5FFF707FE03490148086010BD000037
:104FF000F94F00081400002004480078022818BF68
:105000007047034803490860704700000100002012
:10501000E14F00081400002010B5FFF70DFE034912
:105020000148086010BD0000315000081400002045
:1050300004480078022818BF7047034803490860F5
:105040007047000002000020A94F00081400002053
:1050500030B5254883B06D46026842F0D802026040
:105060004FF68070009001208DF8040003218DF828
:10507000051000218DF806101C4C8DF807002946FC
:105080002046FCF74DF94FF4FE5000902946184891
:10509000FCF746F94FF47040009029461548FCF79C
:1050A0003FF93C20009029461348FCF739F9606924
:1050B0006FF3CF106061606960611048016821F48E
:1050C000FE510160016801600D48016821F47041E2
:1050D0000160016801600B48016821F03C0101603A
:1050E0000168016003B030BD30380240001002405A
:1050F000001C0240000C024000180240141C024038
:10510000140C0240141802400248416981F0040165
:10511000416170470010024010B5FCF71DFE0348C6
:105120000169491C01610221017010BDC405002004
:105130002DE9F04186B05E4D0026ADF808605B4C6D
:105140006878052720B1012818BF2F7045D0A8E046
:10515000DFF8608198F80000D8B1FFF71BF900680C
:105160000104C0F3072241EA0221C0F307400843CB
:10517000C0F31600FBF75BF86FF01601FBF74BF876
:105180000F21FBF748F8FBF757F8ADF8080088F84F
:105190000060494800684949C0B2096801F47E418D
:1051A00040EA510046490968012601F0200140EA21
:1051B00051002672216808802068801CFEF7A5FE39
:1051C0002168BDF80800C1F80A00401CC1F80E00B3
:1051D0002F706E7006B0BDE8F081607A00285ED056
:1051E0006168384A086853696FF3CF135361536994
:1051F000C0F3080C43EACC135361334A136823F419
:10520000FE53136013684FF4FE5C0CEAD00C43EAC3
:105210000C0313602D4A136823F470431360136862
:105220004FF4704C0CEA101C43EA0C031360284A3C
:10523000136823F03C03136013684FF03C0C0CEA36
:1052400090401843106049890320FFF7FFFD049048
:10525000BDF81000ADF800004FF400410220FFF748
:10526000F5FD0390BDF80C00ADF802004FF40041CD
:105270000120FFF7EBFD0390BDF80C00ADF8040032
:105280004FF400410020FFF7E1FD0390BDF80C0052
:10529000ADF8060004216846FFF7C8F866720220E0
:1052A00028706E7006B0BDE8F0810000280A00206A
:1052B00000060020E6030020100C024010180240F7
:1052C0001004024000100240141C0240140C024062
:1052D000141802400248416981F010014161704791
:1052E000001002400020FFF785F8FFF769F8FFF78C
:1052F0009BFCFFF71FFCF8E7F0B50B30154D20F0D5
:1053000007010024144A0FE003688B420BD38B4241
:1053100005D95E1A43184768C3E9006700E043688F
:10532000136002C004E0021D10680028ECD1204682
:10533000002802D1286808B10020F0BD064A0748BD
:105340001060074A121A22F00702C0E90024012067
:105350002860D7E71806002014060020640A002001
:10536000600E00200500080007000700200007006D
:1053700007002000070007002000070007002000AA
:1053800007000700200007000700200007000700B3
:10539000200007000700200007000700200007008A
:1053A000070020000700070020000700070020007A
:1053B0000700070020000700070020000700070083
:1053C000200007000700200007000700200007005A
:1053D000070020000700070020000700070020004A
:1053E0000700070020000700070020000700070053
:1053F000200007000700200007000700200007002A
:105400000700200007000700200007000700200019
:105410000700070020000700070020000700070022
:1054200020000700070020000700070020000700F9
:1054300007002000070007002000070007002000E9
:1054400007000700200007000700200007000700F2
:1054500020000700070020000700070020000700C9
:1054600007002000070007002000070007002000B9
:1054700007000700200007000700200007000700C2
:105480002000070007002000070007002000070099
:105490000700200007000700200007000700200089
:1054A0000700070020000700070020000700070092
:1054B000200007000700200007004F757470757406
:1054C0002070726F636573732064617461206D6115
:1054D0007070696E6700537562496E64657820303C
:1054E000303100537562496E646578203030320087
:1054F000537562496E6465782030303300537562AD
:10550000496E6465782030303400537562496E64AA
:1055100065782030303500537562496E64657820B7
:1055200030303600537562496E646578203030370C
:1055300000537562496E64657820303038005375C9
:1055400062496E6465782030303900537562496E67
:105550006465782030313000537562496E64657837
:105560002030313100537562496E646578203031E6
:105570003200537562496E646578203031330053D0
:105580007562496E64657820303134005375624924
:105590006E6465782030313500537562496E6465FC
:1055A000782030313600537562496E64657820305A
:1055B000313700537562496E6465782030313800A8
:1055C000537562496E6465782030313900537562D5
:1055D000496E6465782030323000537562496E64DC
:1055E00065782030323100537562496E64657820E9
:1055F00030323200537562496E6465782030323340
:1056000000537562496E64657820303234005375FA
:1056100062496E6465782030323500537562496E98
:105620006465782030323600537562496E6465785F
:105630002030323700537562496E6465782030320D
:105640003800537562496E646578203032390053F2
:105650007562496E64657820303330005375624955
:105660006E6465782030333100537562496E64652D
:10567000782030333200537562496E64657820308B
:10568000333300537562496E6465782030333400DB
:10569000537562496E646578203033350053756206
:1056A000496E6465782030333600537562496E6404
:1056B00065782030333700537562496E6465782011
:1056C00030333800537562496E6465782030333961
:1056D00000537562496E646578203034300053752C
:1056E00062496E6465782030343100537562496ECA
:1056F0006465782030343200537562496E64657891
:105700002030343300537562496E6465782030343C
:105710003400537562496E64657820303435005327
:105720007562496E6465782030343600537562497D
:105730006E6465782030343700537562496E646555
:10574000782030343800537562496E6465782030B3
:10575000343900537562496E646578203035300005
:10576000537562496E646578203035310053756237
:10577000496E6465782030353200537562496E6435
:1057800065782030353300537562496E6465782042
:1057900030353400537562496E6465782030353594
:1057A00000537562496E6465782030353600FF001D
:1057B0000500080007000700200007000700200080
:1057C000070007002000070007002000070007006F
:1057D0002000070007002000070007002000070046
:1057E0000700200007000700200007000700200036
:1057F000070007002000070007002000070007003F
:105800002000070007002000070007002000070015
:105810000700200007000700200007000700200005
:10582000070007002000070007002000070007000E
:1058300020000700070020000700070020000700E5
:1058400007002000070007002000070007002000D5
:1058500007000700200007000700200007000700DE
:1058600020000700070020000700070020000700B5
:1058700007002000070007002000070007002000A5
:1058800007000700200007000700200007000700AE
:105890002000070007002000070007002000070085
:1058A0000700200007000700200007000700200075
:1058B000070007002000070007002000070007007E
:1058C0002000070007002000070007002000070055
:1058D0000700200007000700200007000700200045
:1058E000070007002000070007002000070007004E
:1058F0002000070007002000070007002000070025
:10590000070020000700496E7075742070726F6385
:105910006573732064617461206D617070696E6776
:1059200000537562496E64657820303031005375DC
:1059300062496E6465782030303200537562496E7A
:105940006465782030303300537562496E64657841
:105950002030303400537562496E646578203030F1
:105960003500537562496E646578203030360053D7
:105970007562496E6465782030303700537562492E
:105980006E6465782030303800537562496E646506
:10599000782030303900537562496E646578203064
:1059A000313000537562496E6465782030313100C2
:1059B000537562496E6465782030313200537562E8
:1059C000496E6465782030313300537562496E64E6
:1059D00065782030313400537562496E64657820F3
:1059E00030313500537562496E6465782030313648
:1059F00000537562496E6465782030313700537505
:105A000062496E6465782030313800537562496EA2
:105A10006465782030313900537562496E64657869
:105A20002030323000537562496E64657820303220
:105A30003100537562496E6465782030323200530C
:105A40007562496E6465782030323300537562495F
:105A50006E6465782030323400537562496E646537
:105A6000782030323500537562496E646578203095
:105A7000323600537562496E6465782030323700E3
:105A8000537562496E646578203032380053756210
:105A9000496E6465782030323900537562496E640E
:105AA00065782030333000537562496E6465782024
:105AB00030333100537562496E646578203033327B
:105AC00000537562496E6465782030333300537536
:105AD00062496E6465782030333400537562496ED4
:105AE0006465782030333500537562496E6465789B
:105AF0002030333600537562496E64657820303348
:105B00003700537562496E6465782030333800532E
:105B10007562496E64657820303339005375624987
:105B20006E6465782030343000537562496E646568
:105B3000782030343100537562496E6465782030C6
:105B4000343200537562496E646578203034330016
:105B5000537562496E646578203034340053756241
:105B6000496E6465782030343500537562496E643F
:105B700065782030343600537562496E646578204C
:105B800030343700537562496E646578203034389C
:105B900000537562496E646578203034390053755E
:105BA00062496E6465782030353000537562496E05
:105BB0006465782030353100537562496E646578CC
:105BC0002030353200537562496E64657820303577
:105BD0003300537562496E64657820303534005364
:105BE0007562496E646578203035350053756249B9
:105BF0006E6465782030353600FF0000050008002F
:105C0000070006001000070053796E634D616E6156
:105C100067657220322061737369676E6D656E749B
:105C200000FF000005000800070006001000070044
:105C300053796E634D616E616765722033206173C5
:105C40007369676E6D656E7400FF000005000800E3
:105C5000070001000100870001000100870001002A
:105C6000010087000100010087000100010087009A
:105C70000100010087000100010087000100010010
:105C8000870001000100870001000100870001007A
:105C9000010087000100010087000100010087006A
:105CA00001000100870001000100870001000100E0
:105CB000870001000100870001000100870001004A
:105CC000010087000100010087000100010087003A
:105CD00001000100870001000100870001000100B0
:105CE000870001000100870001000100870001001A
:105CF000010087000100010087000100010087000A
:105D0000010001008700010001008700010001007F
:105D100087000100010087000100010087000100E9
:105D200001008700010001008700010001008700D9
:105D3000010001008700010001008700010001004F
:105D400087000100010087000100010087000100B9
:105D500001008700010001008700010001008700A9
:105D6000010001008700010001008700010001001F
:105D700087001E00080087001E00080087001E0024
:105D8000080087001E00080087000300100087003D
:105D900003001000870003001000870003001000BC
:105DA0008700496E707574004279746530496E7071
:105DB000757431004279746530496E7075743200C3
:105DC0004279746530496E70757433004279746538
:105DD00030496E70757434004279746530496E7064
:105DE000757435004279746530496E70757436008B
:105DF0004279746530496E70757437004279746504
:105E000030496E70757438004279746531496E702E
:105E1000757431004279746531496E707574320061
:105E20004279746531496E707574330042797465D6
:105E300031496E70757434004279746531496E7001
:105E4000757435004279746531496E707574360029
:105E50004279746531496E707574370042797465A2
:105E600031496E70757438004279746532496E70CC
:105E7000757431004279746532496E707574320000
:105E80004279746532496E70757433004279746575
:105E900032496E70757434004279746532496E709F
:105EA000757435004279746532496E7075743600C8
:105EB0004279746532496E70757437004279746541
:105EC00032496E70757438004279746533496E706A
:105ED000757431004279746533496E70757432009F
:105EE0004279746533496E70757433004279746514
:105EF00033496E70757434004279746533496E703D
:105F0000757435004279746533496E707574360066
:105F10004279746533496E707574370042797465DF
:105F200033496E70757438004279746534496E7007
:105F3000757431004279746534496E70757432003D
:105F40004279746534496E707574330042797465B2
:105F500034496E70757434004279746534496E70DA
:105F6000757435004279746534496E707574360005
:105F70004279746534496E7075743700427974657E
:105F800034496E70757438004279746535496E70A5
:105F9000757431004279746535496E7075743200DC
:105FA0004279746535496E70757433004279746551
:105FB00035496E70757434004279746535496E7078
:105FC000757435004279746535496E7075743600A4
:105FD0004279746535496E7075743700427974651D
:105FE00035496E70757438004279746536496E7043
:105FF000757431004279746536496E70757432007B
:106000004279746537496E707574310042797465F0
:1060100037496E7075743200416E616C6F67384934
:106020006E7075743100416E616C6F6739496E70C6
:1060300075743100416E616C6F673130496E7075F7
:10604000743100416E616C6F673131496E707574E7
:106050003100FF00050008000700010001007F007B
:10606000010001007F00010001007F00010001002C
:106070007F00010001007F00010001007F0001009E
:1060800001007F00010001007F00010001007F008E
:10609000010001007F00010001007F0001000100FC
:1060A0007F00010001007F00010001007F0001006E
:1060B00001007F00010001007F00010001007F005E
:1060C000010001007F00010001007F0001000100CC
:1060D0007F00010001007F00010001007F0001003E
:1060E00001007F00010001007F00010001007F002E
:1060F000010001007F00010001007F00010001009C
:106100007F00010001007F00010001007F0001000D
:1061100001007F00010001007F00010001007F00FD
:10612000010001007F00010001007F00010001006B
:106130007F00010001007F00010001007F000100DD
:1061400001007F00010001007F00010001007F00CD
:10615000010001007F00010001007F00010001003B
:106160007F00010001007F00010001007F000100AD
:1061700001007F00010001007F001E0008007F0079
:106180001E0008007F001E0008007F001E0008009F
:106190007F00030010007F00030010007F00030059
:1061A00010007F00030010007F004F75747075743D
:1061B0000042797465304F7574707574310042799E
:1061C0007465304F7574707574320042797465303F
:1061D0004F7574707574330042797465304F7574FF
:1061E000707574340042797465304F7574707574CD
:1061F000350042797465304F75747075743600429D
:10620000797465304F7574707574370042797465B0
:10621000304F7574707574380042797465314F75FC
:1062200074707574310042797465314F757470758E
:1062300074320042797465314F757470757433002F
:1062400042797465314F7574707574340042797495
:1062500065314F7574707574350042797465314FCE
:106260007574707574360042797465314F75747049
:106270007574370042797465314F75747075743870
:106280000042797465324F757470757431004279CB
:106290007465324F7574707574320042797465326A
:1062A0004F7574707574330042797465324F75742C
:1062B000707574340042797465324F7574707574FA
:1062C000350042797465324F7574707574360042CA
:1062D000797465324F7574707574370042797465DE
:1062E000324F7574707574380042797465334F7528
:1062F00074707574310042797465334F75747075BC
:1063000074320042797465334F757470757433005C
:1063100042797465334F75747075743400427974C2
:1063200065334F7574707574350042797465334FF9
:106330007574707574360042797465334F75747076
:106340007574370042797465334F7574707574389D
:106350000042797465344F757470757431004279F8
:106360007465344F75747075743200427974653495
:106370004F7574707574330042797465344F757459
:10638000707574340042797465344F757470757427
:10639000350042797465344F7574707574360042F7
:1063A000797465344F75747075743700427974650B
:1063B000344F7574707574380042797465354F7553
:1063C00074707574310042797465354F75747075E9
:1063D00074320042797465354F757470757433008A
:1063E00042797465354F75747075743400427974F0
:1063F00065354F7574707574350042797465354F25
:106400007574707574360042797465354F757470A3
:106410007574370042797465354F757470757438CA
:106420000042797465364F75747075743100427925
:106430007465364F757470757432004279746537BF
:106440004F7574707574310042797465374F757487
:106450007075743200416E616C6F67384F7574707F
:1064600075743100416E616C6F67394F757470756A
:10647000743100416E616C6F6731304F75747075A7
:10648000743100416E616C6F6731314F7574707596
:10649000743100FF000007002000070044657669A2
:1064A0006365207479706500050008000700457277
:1064B000726F7220726567697374657200000900FB
:1064C00068000700446576696365206E616D65004C
:1064D00009002000070048617264776172652076C8
:1064E000657273696F6E0000090020000700536F2A
:1064F0006674776172652076657273696F6E0000ED
:106500000500080007000700200007000700200022
:10651000070007002000070007002000070049646B
:10652000656E746974790056656E646F72204944B3
:106530000050726F6475637420636F646500526508
:10654000766973696F6E0053657269616C206E7550
:106550006D62657200FF000005000800070007007B
:1065600020003F00060010003F004572726F72204D
:1065700053657474696E6773004C6F63616C20457A
:1065800072726F72205265616374696F6E00537925
:106590006E63204572726F7220436F756E74657200
:1065A000204C696D697400FF0000050008000700B9
:1065B00005000800070053796E63206D616E616706
:1065C00065722074797065000500080007000600F8
:1065D00010000F000700200007000000200000004E
:1065E0000600100007000700200007000700200039
:1065F0000700000020000000060010003F00070018
:1066000020000700070020003F00060010000700E0
:10661000060010000700000010000000000010003D
:10662000000000002000000000002000000000002A
:10663000200000000000200000000000000000001A
:10664000000000000000000000000000000000004A
:10665000000000000000000000000000000000003A
:10666000000000000000000000000000000000002A
:10667000000000000000000000000000000000001A
:106680000000000000000000010001000700534D61
:10669000206F757470757420706172616D657465BA
:1066A000720053796E6368726F6E697A6174696F94
:1066B0006E2054797065004379636C652054696D70
:1066C00065000053796E6368726F6E697A617469F0
:1066D0006F6E20547970657320737570706F72746B
:1066E0006564004D696E696D756D204379636C65F5
:1066F0002054696D650043616C6320616E642043C2
:106700006F70792054696D65000047657420437986
:10671000636C652054696D650044656C6179205433
:10672000696D650053796E6330204379636C652031
:1067300054696D6500534D2D4576656E74204D6925
:1067400073736564004379636C652054696D6520DB
:10675000546F6F20536D616C6C00536869667420D0
:1067600054696D6520546F6F2053686F7274000018
:106770000000000000000000000000000000000019
:106780000053796E63204572726F7200FF00534DA3
:1067900020696E70757420706172616D65746572C8
:1067A0000053796E6368726F6E697A6174696F6E97
:1067B0002054797065004379636C652054696D6578
:1067C000000053796E6368726F6E697A6174696FE5
:1067D0006E20547970657320737570706F72746574
:1067E00064004D696E696D756D204379636C652039
:1067F00054696D650043616C6320616E6420436F72
:1068000070792054696D6500004765742043796391
:106810006C652054696D650044656C61792054692C
:106820006D650053796E6330204379636C65205445
:10683000696D6500534D2D4576656E74204D697305
:10684000736564004379636C652054696D652054F9
:106850006F6F20536D616C6C0053686966742054CF
:10686000696D6520546F6F2053686F72740000006B
:106870000000000000000000000000000000000018
:1068800053796E63204572726F7200FF0000000042
:106890000100030007000F001F003F007F00FF0002
:1068A000FF01FF03FF07FF0FFF1FFF3FFF7F0000F8
:1068B00000000000000003050000040501000405BD
:1068C00005000405000001060100010602000106A2
:1068D00000000206410004064200040643000406CC
:1068E000470004060000060610000706120007060F
:1068F00013000706110009063000090631000906D9
:1069000032000906330009063600090600000008B7
:1069100020000008210000082200000823000008D1
:106920000300010604000106486900080000002079
:106930001C06000092030008186C00081C060020CA
:1069400044180000223F00088113054414089D43A9
:106950001408FD4E14086D4FD20813162123380970
:106960001364531408BA541408FC030215204A1A7D
:106970002813B057140806590C1408E00428141200
:106980001C061A016213FC5B1408085C0C1408C690
:1069900005285A13281A24241A30040A15CA281163
:1069A0003B602A781A4C2413A25D0B1608D8284A9B
:1069B00070281354601408AA610B1508EC280327EB
:1069C000FFFF23100719031396641B089C040B1484
:1069D000EC02503C011005281AA8241AAE040A152E
:1069E000F0281B08109D19281ABE241AC4040A1581
:1069F000F2285A09281AD0241AD604110A14032896
:106A00005A0A281AE8241AEE040A15052814181040
:106A1000231A042B1112651B081E040A150C2814D6
:106A2000F1102A1A02281A58241A6A040A1584280E
:106A300011131C052304081AAA241AB6040A1520E7
:106A40002814321C291A20501AC8241B8E66780A72
:106A5000140928AA332812670B15085028031EFFB3
:106A6000FF438913100E4D794170706C6963617436
:106A7000696F6E156E2E612E35352E313132041A46
:106A8000B668855230482612042C01020319015BB6
:106A900032025A018011000D4C537562496E6465D3
:106AA0007820303030847A030A29D22E060708096C
:106AB000380C12011C700102041A03041A04041A8F
:106AC00005041A06041A07041A08041A09041A0A03
:106AD000041A0B041A0C041A0D041A0E041A0F04DB
:106AE0001A10041A11041A12041A13041A14041A9C
:106AF00015041A16041A17041A18041A19041A1A73
:106B0000041A1B041A1C041A1D041A1E041A1F045A
:106B10001A20041A21041A22041A23041A24041A1B
:106B200025041A26041A27041A28041A29041A2AE2
:106B3000041A2B041A2C041A2D041A2E041A2F04DA
:106B400012301C700831041A32041A330412341C37
:106B5000701035041A36041A370412385A70E41AC1
:106B600060E41A60E41A60E41A60E41A60E41A60EF
:106B7000E41A60E41A60E41A60E41A60E41A60E45B
:106B80001A60E41A60E41A60E41A60E41A60E41A15
:106B900060E41A60E41A60E41A60E41A60E41A60BF
:106BA000E41A60E41A60E41A60E41A60E41A60E42B
:106BB0001A60E41A60E41A60E41A60E41A60E41AE5
:106BC00060E41A60E41A60E41A60E41A60E41A608F
:106BD000E41A60E41A60E41A60E41A60E41A60E4FB
:106BE0001A60E41A60E41A60E41A60E41A60E41AB5
:106BF00060E41A60E41A60E41A60E41A60E41A605F
:106C0000E41A60E41A60E2211A1604A21A29F801B3
:086C100010091214011C000020
:040000050800018965
:00000001FF
