###############################################################################
#
# IAR ANSI C/C++ Compiler V8.30.1.114/W32 for ARM         22/Jul/2020  13:36:43
# Copyright 1999-2018 IAR Systems AB.
#
#    Cpu mode     =  thumb
#    Endian       =  little
#    Source file  =  
#        E:\DESKTOP\@@@\@@@@\Intergrated\EtherCatLib\coeappl.c
#    Command line =  
#        -f C:\Users\wfc0628\AppData\Local\Temp\EW941C.tmp
#        (E:\DESKTOP\@@@\@@@@\Intergrated\EtherCatLib\coeappl.c
#        -D USE_STDPERIPH_DRIVER -D STM32F40_41xxx -D _DLIB_FILE_DESCRIPTOR -lC
#        E:\DESKTOP\@@@\@@@@\Intergrated\Project\IAR\Debug\List
#        -lA
#        E:\DESKTOP\@@@\@@@@\Intergrated\Project\IAR\Debug\List
#        -o E:\DESKTOP\@@@\@@@@\Intergrated\Project\IAR\Debug\Obj
#        --no_cse --no_unroll --no_inline --no_code_motion --no_tbaa
#        --no_clustering --no_scheduling --debug --endian=little
#        --cpu=Cortex-M4 -e --fpu=VFPv4_sp --dlib_config "C:\Program Files
#        (x86)\IAR Systems\Embedded Workbench 8.1\arm\inc\c\DLib_Config_Full.h"
#        -I
#        E:\DESKTOP\@@@\@@@@\Intergrated\Project\IAR\..\..\STM32F4xx_DSP_StdPeriph_Lib_V1.8.0\Libraries\STM32F4xx_StdPeriph_Driver\inc\
#        -I
#        E:\DESKTOP\@@@\@@@@\Intergrated\Project\IAR\..\..\STM32F4xx_DSP_StdPeriph_Lib_V1.8.0\Libraries\CMSIS\Include\
#        -I
#        E:\DESKTOP\@@@\@@@@\Intergrated\Project\IAR\..\..\STM32F4xx_DSP_StdPeriph_Lib_V1.8.0\Libraries\CMSIS\Device\ST\STM32F4xx\Include\
#        -I
#        E:\DESKTOP\@@@\@@@@\Intergrated\Project\IAR\..\..\SourceCodes\
#        -I
#        E:\DESKTOP\@@@\@@@@\Intergrated\Project\IAR\..\..\EtherCatLib\
#        -I E:\DESKTOP\@@@\@@@@\Intergrated\Project\IAR\ -Ol
#        --use_c++_inline)
#    Locale       =  C
#    List file    =  
#        E:\DESKTOP\@@@\@@@@\Intergrated\Project\IAR\Debug\List\coeappl.lst
#    Object file  =  
#        E:\DESKTOP\@@@\@@@@\Intergrated\Project\IAR\Debug\Obj\coeappl.o
#
###############################################################################

E:\DESKTOP\@@@\@@@@\Intergrated\EtherCatLib\coeappl.c
      1          /**
Warning[Ms014]: some characters could not be correctly encoded in
          "E:\DESKTOP\@@@\@@@@\Intergrated\Project\IAR\Debug\List\coeappl.s",
          and have been replaced with '@'. The first such character has unicode
          code point 0x79d1 ("@")
      2          \addtogroup CoE CAN Application Profile over EtherCAT
      3          @{
      4          */
      5          
      6          /**
      7          \file coeappl.c
      8          \author EthercatSSC@beckhoff.com
      9          \brief Implementation
     10          This file contains an example for CoE services and the CoE object dictionary
     11          
     12          \version 5.11
     13          
     14          <br>Changes to version V5.10:<br>
     15          V5.11 COE1: update invalid end entry in the object dictionaries (error with some compilers)<br>
     16          V5.11 COE3: change 0x10F3.2 (Sync Error limit) from UINT32 to UINT16 (according to the ETG.1020)<br>
     17          V5.11 ECAT10: change PROTO handling to prevent compiler errors<br>
     18          V5.11 ECAT4: enhance SM/Sync monitoring for input/output only slaves<br>
     19          <br>Changes to version V5.01:<br>
     20          V5.10 COE1: Define one entry description for all 0x1C3x objects and change data type of SI11,12,13 to UINT16 (according ETG.1020)<br>
     21          V5.10 COE2: Change return value of Get ObjectSize to UINT32<br>
     22                      Change object size to UINT32<br>
     23          V5.10 ECAT13: Update Synchronisation handling (FreeRun,SM Sync, Sync0, Sync1)<br>
     24                        Compare DC UINT configuration (by ESC Config data) vs. DC activation register settings<br>
     25                        Update 0x1C3x entries<br>
     26          <br>Changes to version V5.0:<br>
     27          V5.01 APPL3: Include library demo application<br>
     28          V5.01 COE1: Remove alignment entry (SI33) from objects 0x1C32/0x1C33<br>
     29          V5.01 EL9800 1: Read/Write functions for setting object 0x8020 moved to el9800appl.c<br>
     30          V5.01 EL9800 2: Add TxPdo Parameter object 0x1802<br>
     31          V5.01 SDO6: Update SDO response interface handling. (used if the object access function returns "ABORTIDX_WORKING" and SDO_RES_INTERFACE is active)<br>
     32          <br>Changes to version V4.40:<br>
     33          V5.0 TEST1: Add test application. See Application Note ET9300 for more details.<br>
     34          V5.0 COE1: Add reserved Subindex7 to object 0x1C32 and 0x1C33.<br>
     35          V5.0 COE4: Create object dictionary on device startup.<br>
     36          V5.0 COE6: Update entry descriptions for object with the code ARRAY.<br>
     37          V5.0 ECAT2: Reference to application specific object dictionary is set to "ApplicationObjDic".<br>
     38          <br>Changes to version V4.30:<br>
     39          V4.40 COE 6: change dynamic object dictionary handling<br>
     40          V4.40 CiA402 2: enable freerun Sync Mode for CiA402 Device (The motion controller application will only be triggered if DC Synchronisation is disabled)<br>
     41          V4.40 COE5: move identification and synchronisation object values to ecat_def.h<br>
     42          V4.40 DIAG1: Add diagnosis object 0x10F3<br>
     43          V4.40 OBJ3: Update the global object dictionary pointer if a new list head is added<br>
     44          V4.40 COE4: Prevent access NULL pointer<br>
     45          V4.40 SYNC1: Initialize 0x1C3x objects<br>
     46          V4.40 HW1: Add (adapt) objects for FC1100 support<br>
     47          <br>Changes to version V4.20:<br>
     48          V4.30 OBJ 3: Handle object dictionary in double link list<br>
     49          V4.30 OBJ 2: General EtherCAT device objects are moved from chnappl.h to coeappl.c<br>
     50          V4.30 SYNC: set 0x1C32:05; 0x1C33:05 (minCyleTime) to MIN_PD_CYCLE_TIME
     51                              (should be set dynamic if required)<br>
     52          V4.30 PDO: rename PDO specific function calls
     53                              (PDO specific functions are moved to ecatappl.c)<br>
     54          V4.20 PIC24: Add EL9800_4 (PIC24) required source code<br>
     55          V4.11 ECAT 1: C166: MinDelayTime renamed in CalcAndCopyTime<br>
     56          <br>Changes to version V4.07:<br>
     57          V4.10 ECAT 1: To save and restore arrays in the object directory.<br>
     58                      The code to get the size of an array entry was changed.<br>
     59          V4.10 COE 1:  The SM-Parameter were extended<br>
     60          <br>Changes to version V4.06:<br>
     61          V4.07 COEAPPL 1: The PDO numbers were adapted according top the modular device profile,<br>
     62                     the PDO numbers increment now with every module (in chnappl.h)<br>
     63          V4.07 COEAPPL 2: The example is working for the NIOS with the evaluation board DBC2C20 V1.2<br>
     64                      which is available by Altera<br>
     65          V4.07 ECAT 1: The sources for SPI and MCI were merged (in ecat_def.h<br>
     66                      set the switch MCI_HW to 1 when using the MCI,<br>
     67                      set the switch SPI_HW to 1 when using the SPI<br>
     68          <br>Changes to version V4.03:<br>
     69          V4.04 SDO 1: The SDO interface was changed in that way that a SDO response<br>
     70                      could be sent by the application to a later time. In that case<br>
     71                      the functions OBJ_Read and OBJ_Write shall return the value<br>
     72                      ABORTIDX_WORKING. To send the SDO response the new function SDOS_SdoRes<br>
     73                      has to be called by the application. While waiting for the call<br>
     74                      of SDOS_SdoRes the SDO interface will answer to another SDO request<br>
     75                      with the error MBXERR_SERVICEINWORK in the mailbox protocol.<br>
     76                      In this example the reading and writing of object 0x8020 is delayed,<br>
     77                      the function SDOS_SdoRes will be called from COE_Main.<br>
     78          <br>Changes to version V4.00:<br>
     79          V4.01 COEAPPL 1: The object dictionary and the mapping functions are now defined<br>
     80                       in chnappl.h (chnappl.inc made problems with some developing tools)<br>
     81          <br>Changes to version V3.20:<br>
     82          V4.00 COEAPPL 1: The object dictionary and the mapping functions are now defined<br>
     83                      in chnappl.c and were adapted to the modular device profile<br>
     84          V4.00 COEAPPL 2: The handling of backup parameters was included according to<br>
     85                      the EtherCAT Guidelines and Protocol Enhancements Specification<br>
     86          V4.00 COEAPPL 3: The handling of the TxPDO Toggle was included according to<br>
     87                       the EtherCAT Guidelines and Protocol Enhancements Specification<br>
     88          V4.00 COEAPPL 4: The handling of the TxPDO State was included according to<br>
     89                      the EtherCAT Guidelines and Protocol Enhancements Specification<br>
     90          V4.00 ECAT 1: The handling of the Sync Manager Parameter was included according to<br>
     91                      the EtherCAT Guidelines and Protocol Enhancements Specification
     92          */
     93          
     94          /*-----------------------------------------------------------------------------------------
     95          ------
     96          ------    Includes
     97          ------
     98          -----------------------------------------------------------------------------------------*/
     99          
    100          #include "ecat_def.h"
    101          
    102          
    103          #include "ecatslv.h"
    104          
    105          #define _COEAPPL_    1
    106          #include "coeappl.h"
    107          #undef _COEAPPL_
    108          /* ECATCHANGE_START(V5.11) ECAT10*/
    109          /*remove definition of _COEAPPL_ (#ifdef is used in coeappl.h)*/
    110          /* ECATCHANGE_END(V5.11) ECAT10*/
    111          
    112          #define _OBJD_
    113          
    114          /*Add Application specific Objects*/
    115          #include "Task_Ethercat.h"

   \                                 In section .rodata, align 4
   \   __absolute TSDOINFOENTRYDESC const asEntryDesc0x1600[57]
   \                     asEntryDesc0x1600:
   \        0x0   0x0005 0x0008      DC16 5, 8, 7, 7, 32, 7, 7, 32, 7, 7, 32, 7, 7, 32, 7, 7, 32, 7, 7, 32
   \               0x0007 0x000
   \              7 0x0020 0x00
   \              07 0x0007 0x0
   \              020 0x0007 0x
   \              0007 0x0020 0
   \              x0007 0x0007 
   \              0x0020 0x0007
   \               0x0007 0x002
   \              0 0x0007 0x00
   \              07 0x0020    
   \       0x28   0x0007 0x0007      DC16 7, 7, 32, 7, 7, 32, 7, 7, 32, 7, 7, 32, 7, 7, 32, 7, 7, 32, 7, 7
   \               0x0020 0x000
   \              7 0x0007 0x00
   \              20 0x0007 0x0
   \              007 0x0020 0x
   \              0007 0x0007 0
   \              x0020 0x0007 
   \              0x0007 0x0020
   \               0x0007 0x000
   \              7 0x0020 0x00
   \              07 0x0007    
   \       0x50   0x0020 0x0007      DC16 32, 7, 7, 32, 7, 7, 32, 7, 7, 32, 7, 7, 32, 7, 7, 32, 7, 7, 32, 7
   \               0x0007 0x002
   \              0 0x0007 0x00
   \              07 0x0020 0x0
   \              007 0x0007 0x
   \              0020 0x0007 0
   \              x0007 0x0020 
   \              0x0007 0x0007
   \               0x0020 0x000
   \              7 0x0007 0x00
   \              20 0x0007    
   \       0x78   0x0007 0x0020      DC16 7, 32, 7, 7, 32, 7, 7, 32, 7, 7, 32, 7, 7, 32, 7, 7, 32, 7, 7, 32
   \               0x0007 0x000
   \              7 0x0020 0x00
   \              07 0x0007 0x0
   \              020 0x0007 0x
   \              0007 0x0020 0
   \              x0007 0x0007 
   \              0x0020 0x0007
   \               0x0007 0x002
   \              0 0x0007 0x00
   \              07 0x0020    
   \       0xA0   0x0007 0x0007      DC16 7, 7, 32, 7, 7, 32, 7, 7, 32, 7, 7, 32, 7, 7, 32, 7, 7, 32, 7, 7
   \               0x0020 0x000
   \              7 0x0007 0x00
   \              20 0x0007 0x0
   \              007 0x0020 0x
   \              0007 0x0007 0
   \              x0020 0x0007 
   \              0x0007 0x0020
   \               0x0007 0x000
   \              7 0x0020 0x00
   \              07 0x0007    
   \       0xC8   0x0020 0x0007      DC16 32, 7, 7, 32, 7, 7, 32, 7, 7, 32, 7, 7, 32, 7, 7, 32, 7, 7, 32, 7
   \               0x0007 0x002
   \              0 0x0007 0x00
   \              07 0x0020 0x0
   \              007 0x0007 0x
   \              0020 0x0007 0
   \              x0007 0x0020 
   \              0x0007 0x0007
   \               0x0020 0x000
   \              7 0x0007 0x00
   \              20 0x0007    
   \       0xF0   0x0007 0x0020      DC16 7, 32, 7, 7, 32, 7, 7, 32, 7, 7, 32, 7, 7, 32, 7, 7, 32, 7, 7, 32
   \               0x0007 0x000
   \              7 0x0020 0x00
   \              07 0x0007 0x0
   \              020 0x0007 0x
   \              0007 0x0020 0
   \              x0007 0x0007 
   \              0x0020 0x0007
   \               0x0007 0x002
   \              0 0x0007 0x00
   \              07 0x0020    
   \      0x118   0x0007 0x0007      DC16 7, 7, 32, 7, 7, 32, 7, 7, 32, 7, 7, 32, 7, 7, 32, 7, 7, 32, 7, 7
   \               0x0020 0x000
   \              7 0x0007 0x00
   \              20 0x0007 0x0
   \              007 0x0020 0x
   \              0007 0x0007 0
   \              x0020 0x0007 
   \              0x0007 0x0020
   \               0x0007 0x000
   \              7 0x0020 0x00
   \              07 0x0007    
   \      0x140   0x0020 0x0007      DC16 32, 7, 7, 32, 7, 7, 32, 7, 7, 32, 7
   \               0x0007 0x002
   \              0 0x0007 0x00
   \              07 0x0020 0x0
   \              007 0x0007 0x
   \              0020 0x0007  
   \      0x156   0x00 0x00          DC8 0, 0

   \                                 In section .rodata, align 4
   \   __absolute unsigned char const aName0x1600[758]
   \                     aName0x1600:
   \        0x0   0x4F 0x75          DC8 4FH, 75H, 74H, 70H, 75H, 74H, 20H, 70H
   \              0x74 0x70    
   \              0x75 0x74    
   \              0x20 0x70    
   \        0x8   0x72 0x6F          DC8 72H, 6FH, 63H, 65H, 73H, 73H, 20H, 64H
   \              0x63 0x65    
   \              0x73 0x73    
   \              0x20 0x64    
   \       0x10   0x61 0x74          DC8 61H, 74H, 61H, 20H, 6DH, 61H, 70H, 70H
   \              0x61 0x20    
   \              0x6D 0x61    
   \              0x70 0x70    
   \       0x18   0x69 0x6E          DC8 69H, 6EH, 67H, 0, 53H, 75H, 62H, 49H
   \              0x67 0x00    
   \              0x53 0x75    
   \              0x62 0x49    
   \       0x20   0x6E 0x64          DC8 6EH, 64H, 65H, 78H, 20H, 30H, 30H, 31H
   \              0x65 0x78    
   \              0x20 0x30    
   \              0x30 0x31    
   \       0x28   0x00 0x53          DC8 0, 53H, 75H, 62H, 49H, 6EH, 64H, 65H
   \              0x75 0x62    
   \              0x49 0x6E    
   \              0x64 0x65    
   \       0x30   0x78 0x20          DC8 78H, 20H, 30H, 30H, 32H, 0, 53H, 75H
   \              0x30 0x30    
   \              0x32 0x00    
   \              0x53 0x75    
   \       0x38   0x62 0x49          DC8 62H, 49H, 6EH, 64H, 65H, 78H, 20H, 30H
   \              0x6E 0x64    
   \              0x65 0x78    
   \              0x20 0x30    
   \       0x40   0x30 0x33          DC8 30H, 33H, 0, 53H, 75H, 62H, 49H, 6EH
   \              0x00 0x53    
   \              0x75 0x62    
   \              0x49 0x6E    
   \       0x48   0x64 0x65          DC8 64H, 65H, 78H, 20H, 30H, 30H, 34H, 0
   \              0x78 0x20    
   \              0x30 0x30    
   \              0x34 0x00    
   \       0x50   0x53 0x75          DC8 53H, 75H, 62H, 49H, 6EH, 64H, 65H, 78H
   \              0x62 0x49    
   \              0x6E 0x64    
   \              0x65 0x78    
   \       0x58   0x20 0x30          DC8 20H, 30H, 30H, 35H, 0, 53H, 75H, 62H
   \              0x30 0x35    
   \              0x00 0x53    
   \              0x75 0x62    
   \       0x60   0x49 0x6E          DC8 49H, 6EH, 64H, 65H, 78H, 20H, 30H, 30H
   \              0x64 0x65    
   \              0x78 0x20    
   \              0x30 0x30    
   \       0x68   0x36 0x00          DC8 36H, 0, 53H, 75H, 62H, 49H, 6EH, 64H
   \              0x53 0x75    
   \              0x62 0x49    
   \              0x6E 0x64    
   \       0x70   0x65 0x78          DC8 65H, 78H, 20H, 30H, 30H, 37H, 0, 53H
   \              0x20 0x30    
   \              0x30 0x37    
   \              0x00 0x53    
   \       0x78   0x75 0x62          DC8 75H, 62H, 49H, 6EH, 64H, 65H, 78H, 20H
   \              0x49 0x6E    
   \              0x64 0x65    
   \              0x78 0x20    
   \       0x80   0x30 0x30          DC8 30H, 30H, 38H, 0, 53H, 75H, 62H, 49H
   \              0x38 0x00    
   \              0x53 0x75    
   \              0x62 0x49    
   \       0x88   0x6E 0x64          DC8 6EH, 64H, 65H, 78H, 20H, 30H, 30H, 39H
   \              0x65 0x78    
   \              0x20 0x30    
   \              0x30 0x39    
   \       0x90   0x00 0x53          DC8 0, 53H, 75H, 62H, 49H, 6EH, 64H, 65H
   \              0x75 0x62    
   \              0x49 0x6E    
   \              0x64 0x65    
   \       0x98   0x78 0x20          DC8 78H, 20H, 30H, 31H, 30H, 0, 53H, 75H
   \              0x30 0x31    
   \              0x30 0x00    
   \              0x53 0x75    
   \       0xA0   0x62 0x49          DC8 62H, 49H, 6EH, 64H, 65H, 78H, 20H, 30H
   \              0x6E 0x64    
   \              0x65 0x78    
   \              0x20 0x30    
   \       0xA8   0x31 0x31          DC8 31H, 31H, 0, 53H, 75H, 62H, 49H, 6EH
   \              0x00 0x53    
   \              0x75 0x62    
   \              0x49 0x6E    
   \       0xB0   0x64 0x65          DC8 64H, 65H, 78H, 20H, 30H, 31H, 32H, 0
   \              0x78 0x20    
   \              0x30 0x31    
   \              0x32 0x00    
   \       0xB8   0x53 0x75          DC8 53H, 75H, 62H, 49H, 6EH, 64H, 65H, 78H
   \              0x62 0x49    
   \              0x6E 0x64    
   \              0x65 0x78    
   \       0xC0   0x20 0x30          DC8 20H, 30H, 31H, 33H, 0, 53H, 75H, 62H
   \              0x31 0x33    
   \              0x00 0x53    
   \              0x75 0x62    
   \       0xC8   0x49 0x6E          DC8 49H, 6EH, 64H, 65H, 78H, 20H, 30H, 31H
   \              0x64 0x65    
   \              0x78 0x20    
   \              0x30 0x31    
   \       0xD0   0x34 0x00          DC8 34H, 0, 53H, 75H, 62H, 49H, 6EH, 64H
   \              0x53 0x75    
   \              0x62 0x49    
   \              0x6E 0x64    
   \       0xD8   0x65 0x78          DC8 65H, 78H, 20H, 30H, 31H, 35H, 0, 53H
   \              0x20 0x30    
   \              0x31 0x35    
   \              0x00 0x53    
   \       0xE0   0x75 0x62          DC8 75H, 62H, 49H, 6EH, 64H, 65H, 78H, 20H
   \              0x49 0x6E    
   \              0x64 0x65    
   \              0x78 0x20    
   \       0xE8   0x30 0x31          DC8 30H, 31H, 36H, 0, 53H, 75H, 62H, 49H
   \              0x36 0x00    
   \              0x53 0x75    
   \              0x62 0x49    
   \       0xF0   0x6E 0x64          DC8 6EH, 64H, 65H, 78H, 20H, 30H, 31H, 37H
   \              0x65 0x78    
   \              0x20 0x30    
   \              0x31 0x37    
   \       0xF8   0x00 0x53          DC8 0, 53H, 75H, 62H, 49H, 6EH, 64H, 65H
   \              0x75 0x62    
   \              0x49 0x6E    
   \              0x64 0x65    
   \      0x100   0x78 0x20          DC8 78H, 20H, 30H, 31H, 38H, 0, 53H, 75H
   \              0x30 0x31    
   \              0x38 0x00    
   \              0x53 0x75    
   \      0x108   0x62 0x49          DC8 62H, 49H, 6EH, 64H, 65H, 78H, 20H, 30H
   \              0x6E 0x64    
   \              0x65 0x78    
   \              0x20 0x30    
   \      0x110   0x31 0x39          DC8 31H, 39H, 0, 53H, 75H, 62H, 49H, 6EH
   \              0x00 0x53    
   \              0x75 0x62    
   \              0x49 0x6E    
   \      0x118   0x64 0x65          DC8 64H, 65H, 78H, 20H, 30H, 32H, 30H, 0
   \              0x78 0x20    
   \              0x30 0x32    
   \              0x30 0x00    
   \      0x120   0x53 0x75          DC8 53H, 75H, 62H, 49H, 6EH, 64H, 65H, 78H
   \              0x62 0x49    
   \              0x6E 0x64    
   \              0x65 0x78    
   \      0x128   0x20 0x30          DC8 20H, 30H, 32H, 31H, 0, 53H, 75H, 62H
   \              0x32 0x31    
   \              0x00 0x53    
   \              0x75 0x62    
   \      0x130   0x49 0x6E          DC8 49H, 6EH, 64H, 65H, 78H, 20H, 30H, 32H
   \              0x64 0x65    
   \              0x78 0x20    
   \              0x30 0x32    
   \      0x138   0x32 0x00          DC8 32H, 0, 53H, 75H, 62H, 49H, 6EH, 64H
   \              0x53 0x75    
   \              0x62 0x49    
   \              0x6E 0x64    
   \      0x140   0x65 0x78          DC8 65H, 78H, 20H, 30H, 32H, 33H, 0, 53H
   \              0x20 0x30    
   \              0x32 0x33    
   \              0x00 0x53    
   \      0x148   0x75 0x62          DC8 75H, 62H, 49H, 6EH, 64H, 65H, 78H, 20H
   \              0x49 0x6E    
   \              0x64 0x65    
   \              0x78 0x20    
   \      0x150   0x30 0x32          DC8 30H, 32H, 34H, 0, 53H, 75H, 62H, 49H
   \              0x34 0x00    
   \              0x53 0x75    
   \              0x62 0x49    
   \      0x158   0x6E 0x64          DC8 6EH, 64H, 65H, 78H, 20H, 30H, 32H, 35H
   \              0x65 0x78    
   \              0x20 0x30    
   \              0x32 0x35    
   \      0x160   0x00 0x53          DC8 0, 53H, 75H, 62H, 49H, 6EH, 64H, 65H
   \              0x75 0x62    
   \              0x49 0x6E    
   \              0x64 0x65    
   \      0x168   0x78 0x20          DC8 78H, 20H, 30H, 32H, 36H, 0, 53H, 75H
   \              0x30 0x32    
   \              0x36 0x00    
   \              0x53 0x75    
   \      0x170   0x62 0x49          DC8 62H, 49H, 6EH, 64H, 65H, 78H, 20H, 30H
   \              0x6E 0x64    
   \              0x65 0x78    
   \              0x20 0x30    
   \      0x178   0x32 0x37          DC8 32H, 37H, 0, 53H, 75H, 62H, 49H, 6EH
   \              0x00 0x53    
   \              0x75 0x62    
   \              0x49 0x6E    
   \      0x180   0x64 0x65          DC8 64H, 65H, 78H, 20H, 30H, 32H, 38H, 0
   \              0x78 0x20    
   \              0x30 0x32    
   \              0x38 0x00    
   \      0x188   0x53 0x75          DC8 53H, 75H, 62H, 49H, 6EH, 64H, 65H, 78H
   \              0x62 0x49    
   \              0x6E 0x64    
   \              0x65 0x78    
   \      0x190   0x20 0x30          DC8 20H, 30H, 32H, 39H, 0, 53H, 75H, 62H
   \              0x32 0x39    
   \              0x00 0x53    
   \              0x75 0x62    
   \      0x198   0x49 0x6E          DC8 49H, 6EH, 64H, 65H, 78H, 20H, 30H, 33H
   \              0x64 0x65    
   \              0x78 0x20    
   \              0x30 0x33    
   \      0x1A0   0x30 0x00          DC8 30H, 0, 53H, 75H, 62H, 49H, 6EH, 64H
   \              0x53 0x75    
   \              0x62 0x49    
   \              0x6E 0x64    
   \      0x1A8   0x65 0x78          DC8 65H, 78H, 20H, 30H, 33H, 31H, 0, 53H
   \              0x20 0x30    
   \              0x33 0x31    
   \              0x00 0x53    
   \      0x1B0   0x75 0x62          DC8 75H, 62H, 49H, 6EH, 64H, 65H, 78H, 20H
   \              0x49 0x6E    
   \              0x64 0x65    
   \              0x78 0x20    
   \      0x1B8   0x30 0x33          DC8 30H, 33H, 32H, 0, 53H, 75H, 62H, 49H
   \              0x32 0x00    
   \              0x53 0x75    
   \              0x62 0x49    
   \      0x1C0   0x6E 0x64          DC8 6EH, 64H, 65H, 78H, 20H, 30H, 33H, 33H
   \              0x65 0x78    
   \              0x20 0x30    
   \              0x33 0x33    
   \      0x1C8   0x00 0x53          DC8 0, 53H, 75H, 62H, 49H, 6EH, 64H, 65H
   \              0x75 0x62    
   \              0x49 0x6E    
   \              0x64 0x65    
   \      0x1D0   0x78 0x20          DC8 78H, 20H, 30H, 33H, 34H, 0, 53H, 75H
   \              0x30 0x33    
   \              0x34 0x00    
   \              0x53 0x75    
   \      0x1D8   0x62 0x49          DC8 62H, 49H, 6EH, 64H, 65H, 78H, 20H, 30H
   \              0x6E 0x64    
   \              0x65 0x78    
   \              0x20 0x30    
   \      0x1E0   0x33 0x35          DC8 33H, 35H, 0, 53H, 75H, 62H, 49H, 6EH
   \              0x00 0x53    
   \              0x75 0x62    
   \              0x49 0x6E    
   \      0x1E8   0x64 0x65          DC8 64H, 65H, 78H, 20H, 30H, 33H, 36H, 0
   \              0x78 0x20    
   \              0x30 0x33    
   \              0x36 0x00    
   \      0x1F0   0x53 0x75          DC8 53H, 75H, 62H, 49H, 6EH, 64H, 65H, 78H
   \              0x62 0x49    
   \              0x6E 0x64    
   \              0x65 0x78    
   \      0x1F8   0x20 0x30          DC8 20H, 30H, 33H, 37H, 0, 53H, 75H, 62H
   \              0x33 0x37    
   \              0x00 0x53    
   \              0x75 0x62    
   \      0x200   0x49 0x6E          DC8 49H, 6EH, 64H, 65H, 78H, 20H, 30H, 33H
   \              0x64 0x65    
   \              0x78 0x20    
   \              0x30 0x33    
   \      0x208   0x38 0x00          DC8 38H, 0, 53H, 75H, 62H, 49H, 6EH, 64H
   \              0x53 0x75    
   \              0x62 0x49    
   \              0x6E 0x64    
   \      0x210   0x65 0x78          DC8 65H, 78H, 20H, 30H, 33H, 39H, 0, 53H
   \              0x20 0x30    
   \              0x33 0x39    
   \              0x00 0x53    
   \      0x218   0x75 0x62          DC8 75H, 62H, 49H, 6EH, 64H, 65H, 78H, 20H
   \              0x49 0x6E    
   \              0x64 0x65    
   \              0x78 0x20    
   \      0x220   0x30 0x34          DC8 30H, 34H, 30H, 0, 53H, 75H, 62H, 49H
   \              0x30 0x00    
   \              0x53 0x75    
   \              0x62 0x49    
   \      0x228   0x6E 0x64          DC8 6EH, 64H, 65H, 78H, 20H, 30H, 34H, 31H
   \              0x65 0x78    
   \              0x20 0x30    
   \              0x34 0x31    
   \      0x230   0x00 0x53          DC8 0, 53H, 75H, 62H, 49H, 6EH, 64H, 65H
   \              0x75 0x62    
   \              0x49 0x6E    
   \              0x64 0x65    
   \      0x238   0x78 0x20          DC8 78H, 20H, 30H, 34H, 32H, 0, 53H, 75H
   \              0x30 0x34    
   \              0x32 0x00    
   \              0x53 0x75    
   \      0x240   0x62 0x49          DC8 62H, 49H, 6EH, 64H, 65H, 78H, 20H, 30H
   \              0x6E 0x64    
   \              0x65 0x78    
   \              0x20 0x30    
   \      0x248   0x34 0x33          DC8 34H, 33H, 0, 53H, 75H, 62H, 49H, 6EH
   \              0x00 0x53    
   \              0x75 0x62    
   \              0x49 0x6E    
   \      0x250   0x64 0x65          DC8 64H, 65H, 78H, 20H, 30H, 34H, 34H, 0
   \              0x78 0x20    
   \              0x30 0x34    
   \              0x34 0x00    
   \      0x258   0x53 0x75          DC8 53H, 75H, 62H, 49H, 6EH, 64H, 65H, 78H
   \              0x62 0x49    
   \              0x6E 0x64    
   \              0x65 0x78    
   \      0x260   0x20 0x30          DC8 20H, 30H, 34H, 35H, 0, 53H, 75H, 62H
   \              0x34 0x35    
   \              0x00 0x53    
   \              0x75 0x62    
   \      0x268   0x49 0x6E          DC8 49H, 6EH, 64H, 65H, 78H, 20H, 30H, 34H
   \              0x64 0x65    
   \              0x78 0x20    
   \              0x30 0x34    
   \      0x270   0x36 0x00          DC8 36H, 0, 53H, 75H, 62H, 49H, 6EH, 64H
   \              0x53 0x75    
   \              0x62 0x49    
   \              0x6E 0x64    
   \      0x278   0x65 0x78          DC8 65H, 78H, 20H, 30H, 34H, 37H, 0, 53H
   \              0x20 0x30    
   \              0x34 0x37    
   \              0x00 0x53    
   \      0x280   0x75 0x62          DC8 75H, 62H, 49H, 6EH, 64H, 65H, 78H, 20H
   \              0x49 0x6E    
   \              0x64 0x65    
   \              0x78 0x20    
   \      0x288   0x30 0x34          DC8 30H, 34H, 38H, 0, 53H, 75H, 62H, 49H
   \              0x38 0x00    
   \              0x53 0x75    
   \              0x62 0x49    
   \      0x290   0x6E 0x64          DC8 6EH, 64H, 65H, 78H, 20H, 30H, 34H, 39H
   \              0x65 0x78    
   \              0x20 0x30    
   \              0x34 0x39    
   \      0x298   0x00 0x53          DC8 0, 53H, 75H, 62H, 49H, 6EH, 64H, 65H
   \              0x75 0x62    
   \              0x49 0x6E    
   \              0x64 0x65    
   \      0x2A0   0x78 0x20          DC8 78H, 20H, 30H, 35H, 30H, 0, 53H, 75H
   \              0x30 0x35    
   \              0x30 0x00    
   \              0x53 0x75    
   \      0x2A8   0x62 0x49          DC8 62H, 49H, 6EH, 64H, 65H, 78H, 20H, 30H
   \              0x6E 0x64    
   \              0x65 0x78    
   \              0x20 0x30    
   \      0x2B0   0x35 0x31          DC8 35H, 31H, 0, 53H, 75H, 62H, 49H, 6EH
   \              0x00 0x53    
   \              0x75 0x62    
   \              0x49 0x6E    
   \      0x2B8   0x64 0x65          DC8 64H, 65H, 78H, 20H, 30H, 35H, 32H, 0
   \              0x78 0x20    
   \              0x30 0x35    
   \              0x32 0x00    
   \      0x2C0   0x53 0x75          DC8 53H, 75H, 62H, 49H, 6EH, 64H, 65H, 78H
   \              0x62 0x49    
   \              0x6E 0x64    
   \              0x65 0x78    
   \      0x2C8   0x20 0x30          DC8 20H, 30H, 35H, 33H, 0, 53H, 75H, 62H
   \              0x35 0x33    
   \              0x00 0x53    
   \              0x75 0x62    
   \      0x2D0   0x49 0x6E          DC8 49H, 6EH, 64H, 65H, 78H, 20H, 30H, 35H
   \              0x64 0x65    
   \              0x78 0x20    
   \              0x30 0x35    
   \      0x2D8   0x34 0x00          DC8 34H, 0, 53H, 75H, 62H, 49H, 6EH, 64H
   \              0x53 0x75    
   \              0x62 0x49    
   \              0x6E 0x64    
   \      0x2E0   0x65 0x78          DC8 65H, 78H, 20H, 30H, 35H, 35H, 0, 53H
   \              0x20 0x30    
   \              0x35 0x35    
   \              0x00 0x53    
   \      0x2E8   0x75 0x62          DC8 75H, 62H, 49H, 6EH, 64H, 65H, 78H, 20H, 30H, 35H, 36H, 0, 0FFH, 0
   \              0x49 0x6E    
   \              0x64 0x65    
   \              0x78 0x20    
   \              0x30 0x35    
   \              0x36 0x00    
   \              0xFF 0x00    
   \      0x2F6   0x00 0x00          DC8 0, 0

   \                                 In section .rodata, align 4
   \   __absolute TSDOINFOENTRYDESC const asEntryDesc0x1A00[57]
   \                     asEntryDesc0x1A00:
   \        0x0   0x0005 0x0008      DC16 5, 8, 7, 7, 32, 7, 7, 32, 7, 7, 32, 7, 7, 32, 7, 7, 32, 7, 7, 32
   \               0x0007 0x000
   \              7 0x0020 0x00
   \              07 0x0007 0x0
   \              020 0x0007 0x
   \              0007 0x0020 0
   \              x0007 0x0007 
   \              0x0020 0x0007
   \               0x0007 0x002
   \              0 0x0007 0x00
   \              07 0x0020    
   \       0x28   0x0007 0x0007      DC16 7, 7, 32, 7, 7, 32, 7, 7, 32, 7, 7, 32, 7, 7, 32, 7, 7, 32, 7, 7
   \               0x0020 0x000
   \              7 0x0007 0x00
   \              20 0x0007 0x0
   \              007 0x0020 0x
   \              0007 0x0007 0
   \              x0020 0x0007 
   \              0x0007 0x0020
   \               0x0007 0x000
   \              7 0x0020 0x00
   \              07 0x0007    
   \       0x50   0x0020 0x0007      DC16 32, 7, 7, 32, 7, 7, 32, 7, 7, 32, 7, 7, 32, 7, 7, 32, 7, 7, 32, 7
   \               0x0007 0x002
   \              0 0x0007 0x00
   \              07 0x0020 0x0
   \              007 0x0007 0x
   \              0020 0x0007 0
   \              x0007 0x0020 
   \              0x0007 0x0007
   \               0x0020 0x000
   \              7 0x0007 0x00
   \              20 0x0007    
   \       0x78   0x0007 0x0020      DC16 7, 32, 7, 7, 32, 7, 7, 32, 7, 7, 32, 7, 7, 32, 7, 7, 32, 7, 7, 32
   \               0x0007 0x000
   \              7 0x0020 0x00
   \              07 0x0007 0x0
   \              020 0x0007 0x
   \              0007 0x0020 0
   \              x0007 0x0007 
   \              0x0020 0x0007
   \               0x0007 0x002
   \              0 0x0007 0x00
   \              07 0x0020    
   \       0xA0   0x0007 0x0007      DC16 7, 7, 32, 7, 7, 32, 7, 7, 32, 7, 7, 32, 7, 7, 32, 7, 7, 32, 7, 7
   \               0x0020 0x000
   \              7 0x0007 0x00
   \              20 0x0007 0x0
   \              007 0x0020 0x
   \              0007 0x0007 0
   \              x0020 0x0007 
   \              0x0007 0x0020
   \               0x0007 0x000
   \              7 0x0020 0x00
   \              07 0x0007    
   \       0xC8   0x0020 0x0007      DC16 32, 7, 7, 32, 7, 7, 32, 7, 7, 32, 7, 7, 32, 7, 7, 32, 7, 7, 32, 7
   \               0x0007 0x002
   \              0 0x0007 0x00
   \              07 0x0020 0x0
   \              007 0x0007 0x
   \              0020 0x0007 0
   \              x0007 0x0020 
   \              0x0007 0x0007
   \               0x0020 0x000
   \              7 0x0007 0x00
   \              20 0x0007    
   \       0xF0   0x0007 0x0020      DC16 7, 32, 7, 7, 32, 7, 7, 32, 7, 7, 32, 7, 7, 32, 7, 7, 32, 7, 7, 32
   \               0x0007 0x000
   \              7 0x0020 0x00
   \              07 0x0007 0x0
   \              020 0x0007 0x
   \              0007 0x0020 0
   \              x0007 0x0007 
   \              0x0020 0x0007
   \               0x0007 0x002
   \              0 0x0007 0x00
   \              07 0x0020    
   \      0x118   0x0007 0x0007      DC16 7, 7, 32, 7, 7, 32, 7, 7, 32, 7, 7, 32, 7, 7, 32, 7, 7, 32, 7, 7
   \               0x0020 0x000
   \              7 0x0007 0x00
   \              20 0x0007 0x0
   \              007 0x0020 0x
   \              0007 0x0007 0
   \              x0020 0x0007 
   \              0x0007 0x0020
   \               0x0007 0x000
   \              7 0x0020 0x00
   \              07 0x0007    
   \      0x140   0x0020 0x0007      DC16 32, 7, 7, 32, 7, 7, 32, 7, 7, 32, 7
   \               0x0007 0x002
   \              0 0x0007 0x00
   \              07 0x0020 0x0
   \              007 0x0007 0x
   \              0020 0x0007  
   \      0x156   0x00 0x00          DC8 0, 0

   \                                 In section .rodata, align 4
   \   __absolute unsigned char const aName0x1A00[757]
   \                     aName0x1A00:
   \        0x0   0x49 0x6E          DC8 49H, 6EH, 70H, 75H, 74H, 20H, 70H, 72H
   \              0x70 0x75    
   \              0x74 0x20    
   \              0x70 0x72    
   \        0x8   0x6F 0x63          DC8 6FH, 63H, 65H, 73H, 73H, 20H, 64H, 61H
   \              0x65 0x73    
   \              0x73 0x20    
   \              0x64 0x61    
   \       0x10   0x74 0x61          DC8 74H, 61H, 20H, 6DH, 61H, 70H, 70H, 69H
   \              0x20 0x6D    
   \              0x61 0x70    
   \              0x70 0x69    
   \       0x18   0x6E 0x67          DC8 6EH, 67H, 0, 53H, 75H, 62H, 49H, 6EH
   \              0x00 0x53    
   \              0x75 0x62    
   \              0x49 0x6E    
   \       0x20   0x64 0x65          DC8 64H, 65H, 78H, 20H, 30H, 30H, 31H, 0
   \              0x78 0x20    
   \              0x30 0x30    
   \              0x31 0x00    
   \       0x28   0x53 0x75          DC8 53H, 75H, 62H, 49H, 6EH, 64H, 65H, 78H
   \              0x62 0x49    
   \              0x6E 0x64    
   \              0x65 0x78    
   \       0x30   0x20 0x30          DC8 20H, 30H, 30H, 32H, 0, 53H, 75H, 62H
   \              0x30 0x32    
   \              0x00 0x53    
   \              0x75 0x62    
   \       0x38   0x49 0x6E          DC8 49H, 6EH, 64H, 65H, 78H, 20H, 30H, 30H
   \              0x64 0x65    
   \              0x78 0x20    
   \              0x30 0x30    
   \       0x40   0x33 0x00          DC8 33H, 0, 53H, 75H, 62H, 49H, 6EH, 64H
   \              0x53 0x75    
   \              0x62 0x49    
   \              0x6E 0x64    
   \       0x48   0x65 0x78          DC8 65H, 78H, 20H, 30H, 30H, 34H, 0, 53H
   \              0x20 0x30    
   \              0x30 0x34    
   \              0x00 0x53    
   \       0x50   0x75 0x62          DC8 75H, 62H, 49H, 6EH, 64H, 65H, 78H, 20H
   \              0x49 0x6E    
   \              0x64 0x65    
   \              0x78 0x20    
   \       0x58   0x30 0x30          DC8 30H, 30H, 35H, 0, 53H, 75H, 62H, 49H
   \              0x35 0x00    
   \              0x53 0x75    
   \              0x62 0x49    
   \       0x60   0x6E 0x64          DC8 6EH, 64H, 65H, 78H, 20H, 30H, 30H, 36H
   \              0x65 0x78    
   \              0x20 0x30    
   \              0x30 0x36    
   \       0x68   0x00 0x53          DC8 0, 53H, 75H, 62H, 49H, 6EH, 64H, 65H
   \              0x75 0x62    
   \              0x49 0x6E    
   \              0x64 0x65    
   \       0x70   0x78 0x20          DC8 78H, 20H, 30H, 30H, 37H, 0, 53H, 75H
   \              0x30 0x30    
   \              0x37 0x00    
   \              0x53 0x75    
   \       0x78   0x62 0x49          DC8 62H, 49H, 6EH, 64H, 65H, 78H, 20H, 30H
   \              0x6E 0x64    
   \              0x65 0x78    
   \              0x20 0x30    
   \       0x80   0x30 0x38          DC8 30H, 38H, 0, 53H, 75H, 62H, 49H, 6EH
   \              0x00 0x53    
   \              0x75 0x62    
   \              0x49 0x6E    
   \       0x88   0x64 0x65          DC8 64H, 65H, 78H, 20H, 30H, 30H, 39H, 0
   \              0x78 0x20    
   \              0x30 0x30    
   \              0x39 0x00    
   \       0x90   0x53 0x75          DC8 53H, 75H, 62H, 49H, 6EH, 64H, 65H, 78H
   \              0x62 0x49    
   \              0x6E 0x64    
   \              0x65 0x78    
   \       0x98   0x20 0x30          DC8 20H, 30H, 31H, 30H, 0, 53H, 75H, 62H
   \              0x31 0x30    
   \              0x00 0x53    
   \              0x75 0x62    
   \       0xA0   0x49 0x6E          DC8 49H, 6EH, 64H, 65H, 78H, 20H, 30H, 31H
   \              0x64 0x65    
   \              0x78 0x20    
   \              0x30 0x31    
   \       0xA8   0x31 0x00          DC8 31H, 0, 53H, 75H, 62H, 49H, 6EH, 64H
   \              0x53 0x75    
   \              0x62 0x49    
   \              0x6E 0x64    
   \       0xB0   0x65 0x78          DC8 65H, 78H, 20H, 30H, 31H, 32H, 0, 53H
   \              0x20 0x30    
   \              0x31 0x32    
   \              0x00 0x53    
   \       0xB8   0x75 0x62          DC8 75H, 62H, 49H, 6EH, 64H, 65H, 78H, 20H
   \              0x49 0x6E    
   \              0x64 0x65    
   \              0x78 0x20    
   \       0xC0   0x30 0x31          DC8 30H, 31H, 33H, 0, 53H, 75H, 62H, 49H
   \              0x33 0x00    
   \              0x53 0x75    
   \              0x62 0x49    
   \       0xC8   0x6E 0x64          DC8 6EH, 64H, 65H, 78H, 20H, 30H, 31H, 34H
   \              0x65 0x78    
   \              0x20 0x30    
   \              0x31 0x34    
   \       0xD0   0x00 0x53          DC8 0, 53H, 75H, 62H, 49H, 6EH, 64H, 65H
   \              0x75 0x62    
   \              0x49 0x6E    
   \              0x64 0x65    
   \       0xD8   0x78 0x20          DC8 78H, 20H, 30H, 31H, 35H, 0, 53H, 75H
   \              0x30 0x31    
   \              0x35 0x00    
   \              0x53 0x75    
   \       0xE0   0x62 0x49          DC8 62H, 49H, 6EH, 64H, 65H, 78H, 20H, 30H
   \              0x6E 0x64    
   \              0x65 0x78    
   \              0x20 0x30    
   \       0xE8   0x31 0x36          DC8 31H, 36H, 0, 53H, 75H, 62H, 49H, 6EH
   \              0x00 0x53    
   \              0x75 0x62    
   \              0x49 0x6E    
   \       0xF0   0x64 0x65          DC8 64H, 65H, 78H, 20H, 30H, 31H, 37H, 0
   \              0x78 0x20    
   \              0x30 0x31    
   \              0x37 0x00    
   \       0xF8   0x53 0x75          DC8 53H, 75H, 62H, 49H, 6EH, 64H, 65H, 78H
   \              0x62 0x49    
   \              0x6E 0x64    
   \              0x65 0x78    
   \      0x100   0x20 0x30          DC8 20H, 30H, 31H, 38H, 0, 53H, 75H, 62H
   \              0x31 0x38    
   \              0x00 0x53    
   \              0x75 0x62    
   \      0x108   0x49 0x6E          DC8 49H, 6EH, 64H, 65H, 78H, 20H, 30H, 31H
   \              0x64 0x65    
   \              0x78 0x20    
   \              0x30 0x31    
   \      0x110   0x39 0x00          DC8 39H, 0, 53H, 75H, 62H, 49H, 6EH, 64H
   \              0x53 0x75    
   \              0x62 0x49    
   \              0x6E 0x64    
   \      0x118   0x65 0x78          DC8 65H, 78H, 20H, 30H, 32H, 30H, 0, 53H
   \              0x20 0x30    
   \              0x32 0x30    
   \              0x00 0x53    
   \      0x120   0x75 0x62          DC8 75H, 62H, 49H, 6EH, 64H, 65H, 78H, 20H
   \              0x49 0x6E    
   \              0x64 0x65    
   \              0x78 0x20    
   \      0x128   0x30 0x32          DC8 30H, 32H, 31H, 0, 53H, 75H, 62H, 49H
   \              0x31 0x00    
   \              0x53 0x75    
   \              0x62 0x49    
   \      0x130   0x6E 0x64          DC8 6EH, 64H, 65H, 78H, 20H, 30H, 32H, 32H
   \              0x65 0x78    
   \              0x20 0x30    
   \              0x32 0x32    
   \      0x138   0x00 0x53          DC8 0, 53H, 75H, 62H, 49H, 6EH, 64H, 65H
   \              0x75 0x62    
   \              0x49 0x6E    
   \              0x64 0x65    
   \      0x140   0x78 0x20          DC8 78H, 20H, 30H, 32H, 33H, 0, 53H, 75H
   \              0x30 0x32    
   \              0x33 0x00    
   \              0x53 0x75    
   \      0x148   0x62 0x49          DC8 62H, 49H, 6EH, 64H, 65H, 78H, 20H, 30H
   \              0x6E 0x64    
   \              0x65 0x78    
   \              0x20 0x30    
   \      0x150   0x32 0x34          DC8 32H, 34H, 0, 53H, 75H, 62H, 49H, 6EH
   \              0x00 0x53    
   \              0x75 0x62    
   \              0x49 0x6E    
   \      0x158   0x64 0x65          DC8 64H, 65H, 78H, 20H, 30H, 32H, 35H, 0
   \              0x78 0x20    
   \              0x30 0x32    
   \              0x35 0x00    
   \      0x160   0x53 0x75          DC8 53H, 75H, 62H, 49H, 6EH, 64H, 65H, 78H
   \              0x62 0x49    
   \              0x6E 0x64    
   \              0x65 0x78    
   \      0x168   0x20 0x30          DC8 20H, 30H, 32H, 36H, 0, 53H, 75H, 62H
   \              0x32 0x36    
   \              0x00 0x53    
   \              0x75 0x62    
   \      0x170   0x49 0x6E          DC8 49H, 6EH, 64H, 65H, 78H, 20H, 30H, 32H
   \              0x64 0x65    
   \              0x78 0x20    
   \              0x30 0x32    
   \      0x178   0x37 0x00          DC8 37H, 0, 53H, 75H, 62H, 49H, 6EH, 64H
   \              0x53 0x75    
   \              0x62 0x49    
   \              0x6E 0x64    
   \      0x180   0x65 0x78          DC8 65H, 78H, 20H, 30H, 32H, 38H, 0, 53H
   \              0x20 0x30    
   \              0x32 0x38    
   \              0x00 0x53    
   \      0x188   0x75 0x62          DC8 75H, 62H, 49H, 6EH, 64H, 65H, 78H, 20H
   \              0x49 0x6E    
   \              0x64 0x65    
   \              0x78 0x20    
   \      0x190   0x30 0x32          DC8 30H, 32H, 39H, 0, 53H, 75H, 62H, 49H
   \              0x39 0x00    
   \              0x53 0x75    
   \              0x62 0x49    
   \      0x198   0x6E 0x64          DC8 6EH, 64H, 65H, 78H, 20H, 30H, 33H, 30H
   \              0x65 0x78    
   \              0x20 0x30    
   \              0x33 0x30    
   \      0x1A0   0x00 0x53          DC8 0, 53H, 75H, 62H, 49H, 6EH, 64H, 65H
   \              0x75 0x62    
   \              0x49 0x6E    
   \              0x64 0x65    
   \      0x1A8   0x78 0x20          DC8 78H, 20H, 30H, 33H, 31H, 0, 53H, 75H
   \              0x30 0x33    
   \              0x31 0x00    
   \              0x53 0x75    
   \      0x1B0   0x62 0x49          DC8 62H, 49H, 6EH, 64H, 65H, 78H, 20H, 30H
   \              0x6E 0x64    
   \              0x65 0x78    
   \              0x20 0x30    
   \      0x1B8   0x33 0x32          DC8 33H, 32H, 0, 53H, 75H, 62H, 49H, 6EH
   \              0x00 0x53    
   \              0x75 0x62    
   \              0x49 0x6E    
   \      0x1C0   0x64 0x65          DC8 64H, 65H, 78H, 20H, 30H, 33H, 33H, 0
   \              0x78 0x20    
   \              0x30 0x33    
   \              0x33 0x00    
   \      0x1C8   0x53 0x75          DC8 53H, 75H, 62H, 49H, 6EH, 64H, 65H, 78H
   \              0x62 0x49    
   \              0x6E 0x64    
   \              0x65 0x78    
   \      0x1D0   0x20 0x30          DC8 20H, 30H, 33H, 34H, 0, 53H, 75H, 62H
   \              0x33 0x34    
   \              0x00 0x53    
   \              0x75 0x62    
   \      0x1D8   0x49 0x6E          DC8 49H, 6EH, 64H, 65H, 78H, 20H, 30H, 33H
   \              0x64 0x65    
   \              0x78 0x20    
   \              0x30 0x33    
   \      0x1E0   0x35 0x00          DC8 35H, 0, 53H, 75H, 62H, 49H, 6EH, 64H
   \              0x53 0x75    
   \              0x62 0x49    
   \              0x6E 0x64    
   \      0x1E8   0x65 0x78          DC8 65H, 78H, 20H, 30H, 33H, 36H, 0, 53H
   \              0x20 0x30    
   \              0x33 0x36    
   \              0x00 0x53    
   \      0x1F0   0x75 0x62          DC8 75H, 62H, 49H, 6EH, 64H, 65H, 78H, 20H
   \              0x49 0x6E    
   \              0x64 0x65    
   \              0x78 0x20    
   \      0x1F8   0x30 0x33          DC8 30H, 33H, 37H, 0, 53H, 75H, 62H, 49H
   \              0x37 0x00    
   \              0x53 0x75    
   \              0x62 0x49    
   \      0x200   0x6E 0x64          DC8 6EH, 64H, 65H, 78H, 20H, 30H, 33H, 38H
   \              0x65 0x78    
   \              0x20 0x30    
   \              0x33 0x38    
   \      0x208   0x00 0x53          DC8 0, 53H, 75H, 62H, 49H, 6EH, 64H, 65H
   \              0x75 0x62    
   \              0x49 0x6E    
   \              0x64 0x65    
   \      0x210   0x78 0x20          DC8 78H, 20H, 30H, 33H, 39H, 0, 53H, 75H
   \              0x30 0x33    
   \              0x39 0x00    
   \              0x53 0x75    
   \      0x218   0x62 0x49          DC8 62H, 49H, 6EH, 64H, 65H, 78H, 20H, 30H
   \              0x6E 0x64    
   \              0x65 0x78    
   \              0x20 0x30    
   \      0x220   0x34 0x30          DC8 34H, 30H, 0, 53H, 75H, 62H, 49H, 6EH
   \              0x00 0x53    
   \              0x75 0x62    
   \              0x49 0x6E    
   \      0x228   0x64 0x65          DC8 64H, 65H, 78H, 20H, 30H, 34H, 31H, 0
   \              0x78 0x20    
   \              0x30 0x34    
   \              0x31 0x00    
   \      0x230   0x53 0x75          DC8 53H, 75H, 62H, 49H, 6EH, 64H, 65H, 78H
   \              0x62 0x49    
   \              0x6E 0x64    
   \              0x65 0x78    
   \      0x238   0x20 0x30          DC8 20H, 30H, 34H, 32H, 0, 53H, 75H, 62H
   \              0x34 0x32    
   \              0x00 0x53    
   \              0x75 0x62    
   \      0x240   0x49 0x6E          DC8 49H, 6EH, 64H, 65H, 78H, 20H, 30H, 34H
   \              0x64 0x65    
   \              0x78 0x20    
   \              0x30 0x34    
   \      0x248   0x33 0x00          DC8 33H, 0, 53H, 75H, 62H, 49H, 6EH, 64H
   \              0x53 0x75    
   \              0x62 0x49    
   \              0x6E 0x64    
   \      0x250   0x65 0x78          DC8 65H, 78H, 20H, 30H, 34H, 34H, 0, 53H
   \              0x20 0x30    
   \              0x34 0x34    
   \              0x00 0x53    
   \      0x258   0x75 0x62          DC8 75H, 62H, 49H, 6EH, 64H, 65H, 78H, 20H
   \              0x49 0x6E    
   \              0x64 0x65    
   \              0x78 0x20    
   \      0x260   0x30 0x34          DC8 30H, 34H, 35H, 0, 53H, 75H, 62H, 49H
   \              0x35 0x00    
   \              0x53 0x75    
   \              0x62 0x49    
   \      0x268   0x6E 0x64          DC8 6EH, 64H, 65H, 78H, 20H, 30H, 34H, 36H
   \              0x65 0x78    
   \              0x20 0x30    
   \              0x34 0x36    
   \      0x270   0x00 0x53          DC8 0, 53H, 75H, 62H, 49H, 6EH, 64H, 65H
   \              0x75 0x62    
   \              0x49 0x6E    
   \              0x64 0x65    
   \      0x278   0x78 0x20          DC8 78H, 20H, 30H, 34H, 37H, 0, 53H, 75H
   \              0x30 0x34    
   \              0x37 0x00    
   \              0x53 0x75    
   \      0x280   0x62 0x49          DC8 62H, 49H, 6EH, 64H, 65H, 78H, 20H, 30H
   \              0x6E 0x64    
   \              0x65 0x78    
   \              0x20 0x30    
   \      0x288   0x34 0x38          DC8 34H, 38H, 0, 53H, 75H, 62H, 49H, 6EH
   \              0x00 0x53    
   \              0x75 0x62    
   \              0x49 0x6E    
   \      0x290   0x64 0x65          DC8 64H, 65H, 78H, 20H, 30H, 34H, 39H, 0
   \              0x78 0x20    
   \              0x30 0x34    
   \              0x39 0x00    
   \      0x298   0x53 0x75          DC8 53H, 75H, 62H, 49H, 6EH, 64H, 65H, 78H
   \              0x62 0x49    
   \              0x6E 0x64    
   \              0x65 0x78    
   \      0x2A0   0x20 0x30          DC8 20H, 30H, 35H, 30H, 0, 53H, 75H, 62H
   \              0x35 0x30    
   \              0x00 0x53    
   \              0x75 0x62    
   \      0x2A8   0x49 0x6E          DC8 49H, 6EH, 64H, 65H, 78H, 20H, 30H, 35H
   \              0x64 0x65    
   \              0x78 0x20    
   \              0x30 0x35    
   \      0x2B0   0x31 0x00          DC8 31H, 0, 53H, 75H, 62H, 49H, 6EH, 64H
   \              0x53 0x75    
   \              0x62 0x49    
   \              0x6E 0x64    
   \      0x2B8   0x65 0x78          DC8 65H, 78H, 20H, 30H, 35H, 32H, 0, 53H
   \              0x20 0x30    
   \              0x35 0x32    
   \              0x00 0x53    
   \      0x2C0   0x75 0x62          DC8 75H, 62H, 49H, 6EH, 64H, 65H, 78H, 20H
   \              0x49 0x6E    
   \              0x64 0x65    
   \              0x78 0x20    
   \      0x2C8   0x30 0x35          DC8 30H, 35H, 33H, 0, 53H, 75H, 62H, 49H
   \              0x33 0x00    
   \              0x53 0x75    
   \              0x62 0x49    
   \      0x2D0   0x6E 0x64          DC8 6EH, 64H, 65H, 78H, 20H, 30H, 35H, 34H
   \              0x65 0x78    
   \              0x20 0x30    
   \              0x35 0x34    
   \      0x2D8   0x00 0x53          DC8 0, 53H, 75H, 62H, 49H, 6EH, 64H, 65H
   \              0x75 0x62    
   \              0x49 0x6E    
   \              0x64 0x65    
   \      0x2E0   0x78 0x20          DC8 78H, 20H, 30H, 35H, 35H, 0, 53H, 75H
   \              0x30 0x35    
   \              0x35 0x00    
   \              0x53 0x75    
   \      0x2E8   0x62 0x49          DC8 62H, 49H, 6EH, 64H, 65H, 78H, 20H, 30H, 35H, 36H, 0, 0FFH, 0
   \              0x6E 0x64    
   \              0x65 0x78    
   \              0x20 0x30    
   \              0x35 0x36    
   \              0x00 0xFF    
   \              0x00         
   \      0x2F5   0x00 0x00          DC8 0, 0, 0
   \              0x00         

   \                                 In section .rodata, align 4
   \   __absolute TSDOINFOENTRYDESC const asEntryDesc0x1C12[2]
   \                     asEntryDesc0x1C12:
   \        0x0   0x0005 0x0008      DC16 5, 8, 7, 6, 16, 7
   \               0x0007 0x000
   \              6 0x0010 0x00
   \              07           

   \                                 In section .rodata, align 4
   \   __absolute unsigned char const aName0x1C12[27]
   \                     aName0x1C12:
   \        0x0   0x53 0x79          DC8 53H, 79H, 6EH, 63H, 4DH, 61H, 6EH, 61H
   \              0x6E 0x63    
   \              0x4D 0x61    
   \              0x6E 0x61    
   \        0x8   0x67 0x65          DC8 67H, 65H, 72H, 20H, 32H, 20H, 61H, 73H
   \              0x72 0x20    
   \              0x32 0x20    
   \              0x61 0x73    
   \       0x10   0x73 0x69          DC8 73H, 69H, 67H, 6EH, 6DH, 65H, 6EH, 74H, 0, 0FFH, 0, 0
   \              0x67 0x6E    
   \              0x6D 0x65    
   \              0x6E 0x74    
   \              0x00 0xFF    
   \              0x00 0x00    

   \                                 In section .rodata, align 4
   \   __absolute TSDOINFOENTRYDESC const asEntryDesc0x1C13[2]
   \                     asEntryDesc0x1C13:
   \        0x0   0x0005 0x0008      DC16 5, 8, 7, 6, 16, 7
   \               0x0007 0x000
   \              6 0x0010 0x00
   \              07           

   \                                 In section .rodata, align 4
   \   __absolute unsigned char const aName0x1C13[27]
   \                     aName0x1C13:
   \        0x0   0x53 0x79          DC8 53H, 79H, 6EH, 63H, 4DH, 61H, 6EH, 61H
   \              0x6E 0x63    
   \              0x4D 0x61    
   \              0x6E 0x61    
   \        0x8   0x67 0x65          DC8 67H, 65H, 72H, 20H, 33H, 20H, 61H, 73H
   \              0x72 0x20    
   \              0x33 0x20    
   \              0x61 0x73    
   \       0x10   0x73 0x69          DC8 73H, 69H, 67H, 6EH, 6DH, 65H, 6EH, 74H, 0, 0FFH, 0, 0
   \              0x67 0x6E    
   \              0x6D 0x65    
   \              0x6E 0x74    
   \              0x00 0xFF    
   \              0x00 0x00    

   \                                 In section .rodata, align 4
   \   __absolute TSDOINFOENTRYDESC const asEntryDesc0x6000[57]
   \                     asEntryDesc0x6000:
   \        0x0   0x0005 0x0008      DC16 5, 8, 7, 1, 1, 135, 1, 1, 135, 1, 1, 135, 1, 1, 135, 1, 1, 135, 1
   \               0x0007 0x000
   \              1 0x0001 0x00
   \              87 0x0001 0x0
   \              001 0x0087 0x
   \              0001 0x0001 0
   \              x0087 0x0001 
   \              0x0001 0x0087
   \               0x0001 0x000
   \              1 0x0087 0x00
   \              01           
   \       0x26   0x0001 0x0087      DC16 1, 135, 1, 1, 135, 1, 1, 135, 1, 1, 135, 1, 1, 135, 1, 1, 135, 1
   \               0x0001 0x000
   \              1 0x0087 0x00
   \              01 0x0001 0x0
   \              087 0x0001 0x
   \              0001 0x0087 0
   \              x0001 0x0001 
   \              0x0087 0x0001
   \               0x0001 0x008
   \              7 0x0001     
   \       0x4A   0x0001 0x0087      DC16 1, 135, 1, 1, 135, 1, 1, 135, 1, 1, 135, 1, 1, 135, 1, 1, 135, 1
   \               0x0001 0x000
   \              1 0x0087 0x00
   \              01 0x0001 0x0
   \              087 0x0001 0x
   \              0001 0x0087 0
   \              x0001 0x0001 
   \              0x0087 0x0001
   \               0x0001 0x008
   \              7 0x0001     
   \       0x6E   0x0001 0x0087      DC16 1, 135, 1, 1, 135, 1, 1, 135, 1, 1, 135, 1, 1, 135, 1, 1, 135, 1
   \               0x0001 0x000
   \              1 0x0087 0x00
   \              01 0x0001 0x0
   \              087 0x0001 0x
   \              0001 0x0087 0
   \              x0001 0x0001 
   \              0x0087 0x0001
   \               0x0001 0x008
   \              7 0x0001     
   \       0x92   0x0001 0x0087      DC16 1, 135, 1, 1, 135, 1, 1, 135, 1, 1, 135, 1, 1, 135, 1, 1, 135, 1
   \               0x0001 0x000
   \              1 0x0087 0x00
   \              01 0x0001 0x0
   \              087 0x0001 0x
   \              0001 0x0087 0
   \              x0001 0x0001 
   \              0x0087 0x0001
   \               0x0001 0x008
   \              7 0x0001     
   \       0xB6   0x0001 0x0087      DC16 1, 135, 1, 1, 135, 1, 1, 135, 1, 1, 135, 1, 1, 135, 1, 1, 135, 1
   \               0x0001 0x000
   \              1 0x0087 0x00
   \              01 0x0001 0x0
   \              087 0x0001 0x
   \              0001 0x0087 0
   \              x0001 0x0001 
   \              0x0087 0x0001
   \               0x0001 0x008
   \              7 0x0001     
   \       0xDA   0x0001 0x0087      DC16 1, 135, 1, 1, 135, 1, 1, 135, 1, 1, 135, 1, 1, 135, 1, 1, 135, 1
   \               0x0001 0x000
   \              1 0x0087 0x00
   \              01 0x0001 0x0
   \              087 0x0001 0x
   \              0001 0x0087 0
   \              x0001 0x0001 
   \              0x0087 0x0001
   \               0x0001 0x008
   \              7 0x0001     
   \       0xFE   0x0001 0x0087      DC16 1, 135, 1, 1, 135, 1, 1, 135, 1, 1, 135, 1, 1, 135, 1, 1, 135, 1
   \               0x0001 0x000
   \              1 0x0087 0x00
   \              01 0x0001 0x0
   \              087 0x0001 0x
   \              0001 0x0087 0
   \              x0001 0x0001 
   \              0x0087 0x0001
   \               0x0001 0x008
   \              7 0x0001     
   \      0x122   0x0001 0x0087      DC16 1, 135, 30, 8, 135, 30, 8, 135, 30, 8, 135, 30, 8, 135, 3, 16, 135
   \               0x001E 0x000
   \              8 0x0087 0x00
   \              1E 0x0008 0x0
   \              087 0x001E 0x
   \              0008 0x0087 0
   \              x001E 0x0008 
   \              0x0087 0x0003
   \               0x0010 0x008
   \              7            
   \      0x144   0x0003 0x0010      DC16 3, 16, 135, 3, 16, 135, 3, 16, 135
   \               0x0087 0x000
   \              3 0x0010 0x00
   \              87 0x0003 0x0
   \              010 0x0087   
   \      0x156   0x00 0x00          DC8 0, 0

   \                                 In section .rodata, align 4
   \   __absolute unsigned char const aName0x6000[690]
   \                     aName0x6000:
   \        0x0   0x49 0x6E          DC8 49H, 6EH, 70H, 75H, 74H, 0, 42H, 79H
   \              0x70 0x75    
   \              0x74 0x00    
   \              0x42 0x79    
   \        0x8   0x74 0x65          DC8 74H, 65H, 30H, 49H, 6EH, 70H, 75H, 74H
   \              0x30 0x49    
   \              0x6E 0x70    
   \              0x75 0x74    
   \       0x10   0x31 0x00          DC8 31H, 0, 42H, 79H, 74H, 65H, 30H, 49H
   \              0x42 0x79    
   \              0x74 0x65    
   \              0x30 0x49    
   \       0x18   0x6E 0x70          DC8 6EH, 70H, 75H, 74H, 32H, 0, 42H, 79H
   \              0x75 0x74    
   \              0x32 0x00    
   \              0x42 0x79    
   \       0x20   0x74 0x65          DC8 74H, 65H, 30H, 49H, 6EH, 70H, 75H, 74H
   \              0x30 0x49    
   \              0x6E 0x70    
   \              0x75 0x74    
   \       0x28   0x33 0x00          DC8 33H, 0, 42H, 79H, 74H, 65H, 30H, 49H
   \              0x42 0x79    
   \              0x74 0x65    
   \              0x30 0x49    
   \       0x30   0x6E 0x70          DC8 6EH, 70H, 75H, 74H, 34H, 0, 42H, 79H
   \              0x75 0x74    
   \              0x34 0x00    
   \              0x42 0x79    
   \       0x38   0x74 0x65          DC8 74H, 65H, 30H, 49H, 6EH, 70H, 75H, 74H
   \              0x30 0x49    
   \              0x6E 0x70    
   \              0x75 0x74    
   \       0x40   0x35 0x00          DC8 35H, 0, 42H, 79H, 74H, 65H, 30H, 49H
   \              0x42 0x79    
   \              0x74 0x65    
   \              0x30 0x49    
   \       0x48   0x6E 0x70          DC8 6EH, 70H, 75H, 74H, 36H, 0, 42H, 79H
   \              0x75 0x74    
   \              0x36 0x00    
   \              0x42 0x79    
   \       0x50   0x74 0x65          DC8 74H, 65H, 30H, 49H, 6EH, 70H, 75H, 74H
   \              0x30 0x49    
   \              0x6E 0x70    
   \              0x75 0x74    
   \       0x58   0x37 0x00          DC8 37H, 0, 42H, 79H, 74H, 65H, 30H, 49H
   \              0x42 0x79    
   \              0x74 0x65    
   \              0x30 0x49    
   \       0x60   0x6E 0x70          DC8 6EH, 70H, 75H, 74H, 38H, 0, 42H, 79H
   \              0x75 0x74    
   \              0x38 0x00    
   \              0x42 0x79    
   \       0x68   0x74 0x65          DC8 74H, 65H, 31H, 49H, 6EH, 70H, 75H, 74H
   \              0x31 0x49    
   \              0x6E 0x70    
   \              0x75 0x74    
   \       0x70   0x31 0x00          DC8 31H, 0, 42H, 79H, 74H, 65H, 31H, 49H
   \              0x42 0x79    
   \              0x74 0x65    
   \              0x31 0x49    
   \       0x78   0x6E 0x70          DC8 6EH, 70H, 75H, 74H, 32H, 0, 42H, 79H
   \              0x75 0x74    
   \              0x32 0x00    
   \              0x42 0x79    
   \       0x80   0x74 0x65          DC8 74H, 65H, 31H, 49H, 6EH, 70H, 75H, 74H
   \              0x31 0x49    
   \              0x6E 0x70    
   \              0x75 0x74    
   \       0x88   0x33 0x00          DC8 33H, 0, 42H, 79H, 74H, 65H, 31H, 49H
   \              0x42 0x79    
   \              0x74 0x65    
   \              0x31 0x49    
   \       0x90   0x6E 0x70          DC8 6EH, 70H, 75H, 74H, 34H, 0, 42H, 79H
   \              0x75 0x74    
   \              0x34 0x00    
   \              0x42 0x79    
   \       0x98   0x74 0x65          DC8 74H, 65H, 31H, 49H, 6EH, 70H, 75H, 74H
   \              0x31 0x49    
   \              0x6E 0x70    
   \              0x75 0x74    
   \       0xA0   0x35 0x00          DC8 35H, 0, 42H, 79H, 74H, 65H, 31H, 49H
   \              0x42 0x79    
   \              0x74 0x65    
   \              0x31 0x49    
   \       0xA8   0x6E 0x70          DC8 6EH, 70H, 75H, 74H, 36H, 0, 42H, 79H
   \              0x75 0x74    
   \              0x36 0x00    
   \              0x42 0x79    
   \       0xB0   0x74 0x65          DC8 74H, 65H, 31H, 49H, 6EH, 70H, 75H, 74H
   \              0x31 0x49    
   \              0x6E 0x70    
   \              0x75 0x74    
   \       0xB8   0x37 0x00          DC8 37H, 0, 42H, 79H, 74H, 65H, 31H, 49H
   \              0x42 0x79    
   \              0x74 0x65    
   \              0x31 0x49    
   \       0xC0   0x6E 0x70          DC8 6EH, 70H, 75H, 74H, 38H, 0, 42H, 79H
   \              0x75 0x74    
   \              0x38 0x00    
   \              0x42 0x79    
   \       0xC8   0x74 0x65          DC8 74H, 65H, 32H, 49H, 6EH, 70H, 75H, 74H
   \              0x32 0x49    
   \              0x6E 0x70    
   \              0x75 0x74    
   \       0xD0   0x31 0x00          DC8 31H, 0, 42H, 79H, 74H, 65H, 32H, 49H
   \              0x42 0x79    
   \              0x74 0x65    
   \              0x32 0x49    
   \       0xD8   0x6E 0x70          DC8 6EH, 70H, 75H, 74H, 32H, 0, 42H, 79H
   \              0x75 0x74    
   \              0x32 0x00    
   \              0x42 0x79    
   \       0xE0   0x74 0x65          DC8 74H, 65H, 32H, 49H, 6EH, 70H, 75H, 74H
   \              0x32 0x49    
   \              0x6E 0x70    
   \              0x75 0x74    
   \       0xE8   0x33 0x00          DC8 33H, 0, 42H, 79H, 74H, 65H, 32H, 49H
   \              0x42 0x79    
   \              0x74 0x65    
   \              0x32 0x49    
   \       0xF0   0x6E 0x70          DC8 6EH, 70H, 75H, 74H, 34H, 0, 42H, 79H
   \              0x75 0x74    
   \              0x34 0x00    
   \              0x42 0x79    
   \       0xF8   0x74 0x65          DC8 74H, 65H, 32H, 49H, 6EH, 70H, 75H, 74H
   \              0x32 0x49    
   \              0x6E 0x70    
   \              0x75 0x74    
   \      0x100   0x35 0x00          DC8 35H, 0, 42H, 79H, 74H, 65H, 32H, 49H
   \              0x42 0x79    
   \              0x74 0x65    
   \              0x32 0x49    
   \      0x108   0x6E 0x70          DC8 6EH, 70H, 75H, 74H, 36H, 0, 42H, 79H
   \              0x75 0x74    
   \              0x36 0x00    
   \              0x42 0x79    
   \      0x110   0x74 0x65          DC8 74H, 65H, 32H, 49H, 6EH, 70H, 75H, 74H
   \              0x32 0x49    
   \              0x6E 0x70    
   \              0x75 0x74    
   \      0x118   0x37 0x00          DC8 37H, 0, 42H, 79H, 74H, 65H, 32H, 49H
   \              0x42 0x79    
   \              0x74 0x65    
   \              0x32 0x49    
   \      0x120   0x6E 0x70          DC8 6EH, 70H, 75H, 74H, 38H, 0, 42H, 79H
   \              0x75 0x74    
   \              0x38 0x00    
   \              0x42 0x79    
   \      0x128   0x74 0x65          DC8 74H, 65H, 33H, 49H, 6EH, 70H, 75H, 74H
   \              0x33 0x49    
   \              0x6E 0x70    
   \              0x75 0x74    
   \      0x130   0x31 0x00          DC8 31H, 0, 42H, 79H, 74H, 65H, 33H, 49H
   \              0x42 0x79    
   \              0x74 0x65    
   \              0x33 0x49    
   \      0x138   0x6E 0x70          DC8 6EH, 70H, 75H, 74H, 32H, 0, 42H, 79H
   \              0x75 0x74    
   \              0x32 0x00    
   \              0x42 0x79    
   \      0x140   0x74 0x65          DC8 74H, 65H, 33H, 49H, 6EH, 70H, 75H, 74H
   \              0x33 0x49    
   \              0x6E 0x70    
   \              0x75 0x74    
   \      0x148   0x33 0x00          DC8 33H, 0, 42H, 79H, 74H, 65H, 33H, 49H
   \              0x42 0x79    
   \              0x74 0x65    
   \              0x33 0x49    
   \      0x150   0x6E 0x70          DC8 6EH, 70H, 75H, 74H, 34H, 0, 42H, 79H
   \              0x75 0x74    
   \              0x34 0x00    
   \              0x42 0x79    
   \      0x158   0x74 0x65          DC8 74H, 65H, 33H, 49H, 6EH, 70H, 75H, 74H
   \              0x33 0x49    
   \              0x6E 0x70    
   \              0x75 0x74    
   \      0x160   0x35 0x00          DC8 35H, 0, 42H, 79H, 74H, 65H, 33H, 49H
   \              0x42 0x79    
   \              0x74 0x65    
   \              0x33 0x49    
   \      0x168   0x6E 0x70          DC8 6EH, 70H, 75H, 74H, 36H, 0, 42H, 79H
   \              0x75 0x74    
   \              0x36 0x00    
   \              0x42 0x79    
   \      0x170   0x74 0x65          DC8 74H, 65H, 33H, 49H, 6EH, 70H, 75H, 74H
   \              0x33 0x49    
   \              0x6E 0x70    
   \              0x75 0x74    
   \      0x178   0x37 0x00          DC8 37H, 0, 42H, 79H, 74H, 65H, 33H, 49H
   \              0x42 0x79    
   \              0x74 0x65    
   \              0x33 0x49    
   \      0x180   0x6E 0x70          DC8 6EH, 70H, 75H, 74H, 38H, 0, 42H, 79H
   \              0x75 0x74    
   \              0x38 0x00    
   \              0x42 0x79    
   \      0x188   0x74 0x65          DC8 74H, 65H, 34H, 49H, 6EH, 70H, 75H, 74H
   \              0x34 0x49    
   \              0x6E 0x70    
   \              0x75 0x74    
   \      0x190   0x31 0x00          DC8 31H, 0, 42H, 79H, 74H, 65H, 34H, 49H
   \              0x42 0x79    
   \              0x74 0x65    
   \              0x34 0x49    
   \      0x198   0x6E 0x70          DC8 6EH, 70H, 75H, 74H, 32H, 0, 42H, 79H
   \              0x75 0x74    
   \              0x32 0x00    
   \              0x42 0x79    
   \      0x1A0   0x74 0x65          DC8 74H, 65H, 34H, 49H, 6EH, 70H, 75H, 74H
   \              0x34 0x49    
   \              0x6E 0x70    
   \              0x75 0x74    
   \      0x1A8   0x33 0x00          DC8 33H, 0, 42H, 79H, 74H, 65H, 34H, 49H
   \              0x42 0x79    
   \              0x74 0x65    
   \              0x34 0x49    
   \      0x1B0   0x6E 0x70          DC8 6EH, 70H, 75H, 74H, 34H, 0, 42H, 79H
   \              0x75 0x74    
   \              0x34 0x00    
   \              0x42 0x79    
   \      0x1B8   0x74 0x65          DC8 74H, 65H, 34H, 49H, 6EH, 70H, 75H, 74H
   \              0x34 0x49    
   \              0x6E 0x70    
   \              0x75 0x74    
   \      0x1C0   0x35 0x00          DC8 35H, 0, 42H, 79H, 74H, 65H, 34H, 49H
   \              0x42 0x79    
   \              0x74 0x65    
   \              0x34 0x49    
   \      0x1C8   0x6E 0x70          DC8 6EH, 70H, 75H, 74H, 36H, 0, 42H, 79H
   \              0x75 0x74    
   \              0x36 0x00    
   \              0x42 0x79    
   \      0x1D0   0x74 0x65          DC8 74H, 65H, 34H, 49H, 6EH, 70H, 75H, 74H
   \              0x34 0x49    
   \              0x6E 0x70    
   \              0x75 0x74    
   \      0x1D8   0x37 0x00          DC8 37H, 0, 42H, 79H, 74H, 65H, 34H, 49H
   \              0x42 0x79    
   \              0x74 0x65    
   \              0x34 0x49    
   \      0x1E0   0x6E 0x70          DC8 6EH, 70H, 75H, 74H, 38H, 0, 42H, 79H
   \              0x75 0x74    
   \              0x38 0x00    
   \              0x42 0x79    
   \      0x1E8   0x74 0x65          DC8 74H, 65H, 35H, 49H, 6EH, 70H, 75H, 74H
   \              0x35 0x49    
   \              0x6E 0x70    
   \              0x75 0x74    
   \      0x1F0   0x31 0x00          DC8 31H, 0, 42H, 79H, 74H, 65H, 35H, 49H
   \              0x42 0x79    
   \              0x74 0x65    
   \              0x35 0x49    
   \      0x1F8   0x6E 0x70          DC8 6EH, 70H, 75H, 74H, 32H, 0, 42H, 79H
   \              0x75 0x74    
   \              0x32 0x00    
   \              0x42 0x79    
   \      0x200   0x74 0x65          DC8 74H, 65H, 35H, 49H, 6EH, 70H, 75H, 74H
   \              0x35 0x49    
   \              0x6E 0x70    
   \              0x75 0x74    
   \      0x208   0x33 0x00          DC8 33H, 0, 42H, 79H, 74H, 65H, 35H, 49H
   \              0x42 0x79    
   \              0x74 0x65    
   \              0x35 0x49    
   \      0x210   0x6E 0x70          DC8 6EH, 70H, 75H, 74H, 34H, 0, 42H, 79H
   \              0x75 0x74    
   \              0x34 0x00    
   \              0x42 0x79    
   \      0x218   0x74 0x65          DC8 74H, 65H, 35H, 49H, 6EH, 70H, 75H, 74H
   \              0x35 0x49    
   \              0x6E 0x70    
   \              0x75 0x74    
   \      0x220   0x35 0x00          DC8 35H, 0, 42H, 79H, 74H, 65H, 35H, 49H
   \              0x42 0x79    
   \              0x74 0x65    
   \              0x35 0x49    
   \      0x228   0x6E 0x70          DC8 6EH, 70H, 75H, 74H, 36H, 0, 42H, 79H
   \              0x75 0x74    
   \              0x36 0x00    
   \              0x42 0x79    
   \      0x230   0x74 0x65          DC8 74H, 65H, 35H, 49H, 6EH, 70H, 75H, 74H
   \              0x35 0x49    
   \              0x6E 0x70    
   \              0x75 0x74    
   \      0x238   0x37 0x00          DC8 37H, 0, 42H, 79H, 74H, 65H, 35H, 49H
   \              0x42 0x79    
   \              0x74 0x65    
   \              0x35 0x49    
   \      0x240   0x6E 0x70          DC8 6EH, 70H, 75H, 74H, 38H, 0, 42H, 79H
   \              0x75 0x74    
   \              0x38 0x00    
   \              0x42 0x79    
   \      0x248   0x74 0x65          DC8 74H, 65H, 36H, 49H, 6EH, 70H, 75H, 74H
   \              0x36 0x49    
   \              0x6E 0x70    
   \              0x75 0x74    
   \      0x250   0x31 0x00          DC8 31H, 0, 42H, 79H, 74H, 65H, 36H, 49H
   \              0x42 0x79    
   \              0x74 0x65    
   \              0x36 0x49    
   \      0x258   0x6E 0x70          DC8 6EH, 70H, 75H, 74H, 32H, 0, 42H, 79H
   \              0x75 0x74    
   \              0x32 0x00    
   \              0x42 0x79    
   \      0x260   0x74 0x65          DC8 74H, 65H, 37H, 49H, 6EH, 70H, 75H, 74H
   \              0x37 0x49    
   \              0x6E 0x70    
   \              0x75 0x74    
   \      0x268   0x31 0x00          DC8 31H, 0, 42H, 79H, 74H, 65H, 37H, 49H
   \              0x42 0x79    
   \              0x74 0x65    
   \              0x37 0x49    
   \      0x270   0x6E 0x70          DC8 6EH, 70H, 75H, 74H, 32H, 0, 41H, 6EH
   \              0x75 0x74    
   \              0x32 0x00    
   \              0x41 0x6E    
   \      0x278   0x61 0x6C          DC8 61H, 6CH, 6FH, 67H, 38H, 49H, 6EH, 70H
   \              0x6F 0x67    
   \              0x38 0x49    
   \              0x6E 0x70    
   \      0x280   0x75 0x74          DC8 75H, 74H, 31H, 0, 41H, 6EH, 61H, 6CH
   \              0x31 0x00    
   \              0x41 0x6E    
   \              0x61 0x6C    
   \      0x288   0x6F 0x67          DC8 6FH, 67H, 39H, 49H, 6EH, 70H, 75H, 74H
   \              0x39 0x49    
   \              0x6E 0x70    
   \              0x75 0x74    
   \      0x290   0x31 0x00          DC8 31H, 0, 41H, 6EH, 61H, 6CH, 6FH, 67H
   \              0x41 0x6E    
   \              0x61 0x6C    
   \              0x6F 0x67    
   \      0x298   0x31 0x30          DC8 31H, 30H, 49H, 6EH, 70H, 75H, 74H, 31H
   \              0x49 0x6E    
   \              0x70 0x75    
   \              0x74 0x31    
   \      0x2A0   0x00 0x41          DC8 0, 41H, 6EH, 61H, 6CH, 6FH, 67H, 31H
   \              0x6E 0x61    
   \              0x6C 0x6F    
   \              0x67 0x31    
   \      0x2A8   0x31 0x49          DC8 31H, 49H, 6EH, 70H, 75H, 74H, 31H, 0, 0FFH, 0, 0, 0
   \              0x6E 0x70    
   \              0x75 0x74    
   \              0x31 0x00    
   \              0xFF 0x00    
   \              0x00 0x00    

   \                                 In section .rodata, align 4
   \   __absolute TSDOINFOENTRYDESC const asEntryDesc0x7000[57]
   \                     asEntryDesc0x7000:
   \        0x0   0x0005 0x0008      DC16 5, 8, 7, 1, 1, 127, 1, 1, 127, 1, 1, 127, 1, 1, 127, 1, 1, 127, 1
   \               0x0007 0x000
   \              1 0x0001 0x00
   \              7F 0x0001 0x0
   \              001 0x007F 0x
   \              0001 0x0001 0
   \              x007F 0x0001 
   \              0x0001 0x007F
   \               0x0001 0x000
   \              1 0x007F 0x00
   \              01           
   \       0x26   0x0001 0x007F      DC16 1, 127, 1, 1, 127, 1, 1, 127, 1, 1, 127, 1, 1, 127, 1, 1, 127, 1
   \               0x0001 0x000
   \              1 0x007F 0x00
   \              01 0x0001 0x0
   \              07F 0x0001 0x
   \              0001 0x007F 0
   \              x0001 0x0001 
   \              0x007F 0x0001
   \               0x0001 0x007
   \              F 0x0001     
   \       0x4A   0x0001 0x007F      DC16 1, 127, 1, 1, 127, 1, 1, 127, 1, 1, 127, 1, 1, 127, 1, 1, 127, 1
   \               0x0001 0x000
   \              1 0x007F 0x00
   \              01 0x0001 0x0
   \              07F 0x0001 0x
   \              0001 0x007F 0
   \              x0001 0x0001 
   \              0x007F 0x0001
   \               0x0001 0x007
   \              F 0x0001     
   \       0x6E   0x0001 0x007F      DC16 1, 127, 1, 1, 127, 1, 1, 127, 1, 1, 127, 1, 1, 127, 1, 1, 127, 1
   \               0x0001 0x000
   \              1 0x007F 0x00
   \              01 0x0001 0x0
   \              07F 0x0001 0x
   \              0001 0x007F 0
   \              x0001 0x0001 
   \              0x007F 0x0001
   \               0x0001 0x007
   \              F 0x0001     
   \       0x92   0x0001 0x007F      DC16 1, 127, 1, 1, 127, 1, 1, 127, 1, 1, 127, 1, 1, 127, 1, 1, 127, 1
   \               0x0001 0x000
   \              1 0x007F 0x00
   \              01 0x0001 0x0
   \              07F 0x0001 0x
   \              0001 0x007F 0
   \              x0001 0x0001 
   \              0x007F 0x0001
   \               0x0001 0x007
   \              F 0x0001     
   \       0xB6   0x0001 0x007F      DC16 1, 127, 1, 1, 127, 1, 1, 127, 1, 1, 127, 1, 1, 127, 1, 1, 127, 1
   \               0x0001 0x000
   \              1 0x007F 0x00
   \              01 0x0001 0x0
   \              07F 0x0001 0x
   \              0001 0x007F 0
   \              x0001 0x0001 
   \              0x007F 0x0001
   \               0x0001 0x007
   \              F 0x0001     
   \       0xDA   0x0001 0x007F      DC16 1, 127, 1, 1, 127, 1, 1, 127, 1, 1, 127, 1, 1, 127, 1, 1, 127, 1
   \               0x0001 0x000
   \              1 0x007F 0x00
   \              01 0x0001 0x0
   \              07F 0x0001 0x
   \              0001 0x007F 0
   \              x0001 0x0001 
   \              0x007F 0x0001
   \               0x0001 0x007
   \              F 0x0001     
   \       0xFE   0x0001 0x007F      DC16 1, 127, 1, 1, 127, 1, 1, 127, 1, 1, 127, 1, 1, 127, 1, 1, 127, 1
   \               0x0001 0x000
   \              1 0x007F 0x00
   \              01 0x0001 0x0
   \              07F 0x0001 0x
   \              0001 0x007F 0
   \              x0001 0x0001 
   \              0x007F 0x0001
   \               0x0001 0x007
   \              F 0x0001     
   \      0x122   0x0001 0x007F      DC16 1, 127, 30, 8, 127, 30, 8, 127, 30, 8, 127, 30, 8, 127, 3, 16, 127
   \               0x001E 0x000
   \              8 0x007F 0x00
   \              1E 0x0008 0x0
   \              07F 0x001E 0x
   \              0008 0x007F 0
   \              x001E 0x0008 
   \              0x007F 0x0003
   \               0x0010 0x007
   \              F            
   \      0x144   0x0003 0x0010      DC16 3, 16, 127, 3, 16, 127, 3, 16, 127
   \               0x007F 0x000
   \              3 0x0010 0x00
   \              7F 0x0003 0x0
   \              010 0x007F   
   \      0x156   0x00 0x00          DC8 0, 0

   \                                 In section .rodata, align 4
   \   __absolute unsigned char const aName0x7000[747]
   \                     aName0x7000:
   \        0x0   0x4F 0x75          DC8 4FH, 75H, 74H, 70H, 75H, 74H, 0, 42H
   \              0x74 0x70    
   \              0x75 0x74    
   \              0x00 0x42    
   \        0x8   0x79 0x74          DC8 79H, 74H, 65H, 30H, 4FH, 75H, 74H, 70H
   \              0x65 0x30    
   \              0x4F 0x75    
   \              0x74 0x70    
   \       0x10   0x75 0x74          DC8 75H, 74H, 31H, 0, 42H, 79H, 74H, 65H
   \              0x31 0x00    
   \              0x42 0x79    
   \              0x74 0x65    
   \       0x18   0x30 0x4F          DC8 30H, 4FH, 75H, 74H, 70H, 75H, 74H, 32H
   \              0x75 0x74    
   \              0x70 0x75    
   \              0x74 0x32    
   \       0x20   0x00 0x42          DC8 0, 42H, 79H, 74H, 65H, 30H, 4FH, 75H
   \              0x79 0x74    
   \              0x65 0x30    
   \              0x4F 0x75    
   \       0x28   0x74 0x70          DC8 74H, 70H, 75H, 74H, 33H, 0, 42H, 79H
   \              0x75 0x74    
   \              0x33 0x00    
   \              0x42 0x79    
   \       0x30   0x74 0x65          DC8 74H, 65H, 30H, 4FH, 75H, 74H, 70H, 75H
   \              0x30 0x4F    
   \              0x75 0x74    
   \              0x70 0x75    
   \       0x38   0x74 0x34          DC8 74H, 34H, 0, 42H, 79H, 74H, 65H, 30H
   \              0x00 0x42    
   \              0x79 0x74    
   \              0x65 0x30    
   \       0x40   0x4F 0x75          DC8 4FH, 75H, 74H, 70H, 75H, 74H, 35H, 0
   \              0x74 0x70    
   \              0x75 0x74    
   \              0x35 0x00    
   \       0x48   0x42 0x79          DC8 42H, 79H, 74H, 65H, 30H, 4FH, 75H, 74H
   \              0x74 0x65    
   \              0x30 0x4F    
   \              0x75 0x74    
   \       0x50   0x70 0x75          DC8 70H, 75H, 74H, 36H, 0, 42H, 79H, 74H
   \              0x74 0x36    
   \              0x00 0x42    
   \              0x79 0x74    
   \       0x58   0x65 0x30          DC8 65H, 30H, 4FH, 75H, 74H, 70H, 75H, 74H
   \              0x4F 0x75    
   \              0x74 0x70    
   \              0x75 0x74    
   \       0x60   0x37 0x00          DC8 37H, 0, 42H, 79H, 74H, 65H, 30H, 4FH
   \              0x42 0x79    
   \              0x74 0x65    
   \              0x30 0x4F    
   \       0x68   0x75 0x74          DC8 75H, 74H, 70H, 75H, 74H, 38H, 0, 42H
   \              0x70 0x75    
   \              0x74 0x38    
   \              0x00 0x42    
   \       0x70   0x79 0x74          DC8 79H, 74H, 65H, 31H, 4FH, 75H, 74H, 70H
   \              0x65 0x31    
   \              0x4F 0x75    
   \              0x74 0x70    
   \       0x78   0x75 0x74          DC8 75H, 74H, 31H, 0, 42H, 79H, 74H, 65H
   \              0x31 0x00    
   \              0x42 0x79    
   \              0x74 0x65    
   \       0x80   0x31 0x4F          DC8 31H, 4FH, 75H, 74H, 70H, 75H, 74H, 32H
   \              0x75 0x74    
   \              0x70 0x75    
   \              0x74 0x32    
   \       0x88   0x00 0x42          DC8 0, 42H, 79H, 74H, 65H, 31H, 4FH, 75H
   \              0x79 0x74    
   \              0x65 0x31    
   \              0x4F 0x75    
   \       0x90   0x74 0x70          DC8 74H, 70H, 75H, 74H, 33H, 0, 42H, 79H
   \              0x75 0x74    
   \              0x33 0x00    
   \              0x42 0x79    
   \       0x98   0x74 0x65          DC8 74H, 65H, 31H, 4FH, 75H, 74H, 70H, 75H
   \              0x31 0x4F    
   \              0x75 0x74    
   \              0x70 0x75    
   \       0xA0   0x74 0x34          DC8 74H, 34H, 0, 42H, 79H, 74H, 65H, 31H
   \              0x00 0x42    
   \              0x79 0x74    
   \              0x65 0x31    
   \       0xA8   0x4F 0x75          DC8 4FH, 75H, 74H, 70H, 75H, 74H, 35H, 0
   \              0x74 0x70    
   \              0x75 0x74    
   \              0x35 0x00    
   \       0xB0   0x42 0x79          DC8 42H, 79H, 74H, 65H, 31H, 4FH, 75H, 74H
   \              0x74 0x65    
   \              0x31 0x4F    
   \              0x75 0x74    
   \       0xB8   0x70 0x75          DC8 70H, 75H, 74H, 36H, 0, 42H, 79H, 74H
   \              0x74 0x36    
   \              0x00 0x42    
   \              0x79 0x74    
   \       0xC0   0x65 0x31          DC8 65H, 31H, 4FH, 75H, 74H, 70H, 75H, 74H
   \              0x4F 0x75    
   \              0x74 0x70    
   \              0x75 0x74    
   \       0xC8   0x37 0x00          DC8 37H, 0, 42H, 79H, 74H, 65H, 31H, 4FH
   \              0x42 0x79    
   \              0x74 0x65    
   \              0x31 0x4F    
   \       0xD0   0x75 0x74          DC8 75H, 74H, 70H, 75H, 74H, 38H, 0, 42H
   \              0x70 0x75    
   \              0x74 0x38    
   \              0x00 0x42    
   \       0xD8   0x79 0x74          DC8 79H, 74H, 65H, 32H, 4FH, 75H, 74H, 70H
   \              0x65 0x32    
   \              0x4F 0x75    
   \              0x74 0x70    
   \       0xE0   0x75 0x74          DC8 75H, 74H, 31H, 0, 42H, 79H, 74H, 65H
   \              0x31 0x00    
   \              0x42 0x79    
   \              0x74 0x65    
   \       0xE8   0x32 0x4F          DC8 32H, 4FH, 75H, 74H, 70H, 75H, 74H, 32H
   \              0x75 0x74    
   \              0x70 0x75    
   \              0x74 0x32    
   \       0xF0   0x00 0x42          DC8 0, 42H, 79H, 74H, 65H, 32H, 4FH, 75H
   \              0x79 0x74    
   \              0x65 0x32    
   \              0x4F 0x75    
   \       0xF8   0x74 0x70          DC8 74H, 70H, 75H, 74H, 33H, 0, 42H, 79H
   \              0x75 0x74    
   \              0x33 0x00    
   \              0x42 0x79    
   \      0x100   0x74 0x65          DC8 74H, 65H, 32H, 4FH, 75H, 74H, 70H, 75H
   \              0x32 0x4F    
   \              0x75 0x74    
   \              0x70 0x75    
   \      0x108   0x74 0x34          DC8 74H, 34H, 0, 42H, 79H, 74H, 65H, 32H
   \              0x00 0x42    
   \              0x79 0x74    
   \              0x65 0x32    
   \      0x110   0x4F 0x75          DC8 4FH, 75H, 74H, 70H, 75H, 74H, 35H, 0
   \              0x74 0x70    
   \              0x75 0x74    
   \              0x35 0x00    
   \      0x118   0x42 0x79          DC8 42H, 79H, 74H, 65H, 32H, 4FH, 75H, 74H
   \              0x74 0x65    
   \              0x32 0x4F    
   \              0x75 0x74    
   \      0x120   0x70 0x75          DC8 70H, 75H, 74H, 36H, 0, 42H, 79H, 74H
   \              0x74 0x36    
   \              0x00 0x42    
   \              0x79 0x74    
   \      0x128   0x65 0x32          DC8 65H, 32H, 4FH, 75H, 74H, 70H, 75H, 74H
   \              0x4F 0x75    
   \              0x74 0x70    
   \              0x75 0x74    
   \      0x130   0x37 0x00          DC8 37H, 0, 42H, 79H, 74H, 65H, 32H, 4FH
   \              0x42 0x79    
   \              0x74 0x65    
   \              0x32 0x4F    
   \      0x138   0x75 0x74          DC8 75H, 74H, 70H, 75H, 74H, 38H, 0, 42H
   \              0x70 0x75    
   \              0x74 0x38    
   \              0x00 0x42    
   \      0x140   0x79 0x74          DC8 79H, 74H, 65H, 33H, 4FH, 75H, 74H, 70H
   \              0x65 0x33    
   \              0x4F 0x75    
   \              0x74 0x70    
   \      0x148   0x75 0x74          DC8 75H, 74H, 31H, 0, 42H, 79H, 74H, 65H
   \              0x31 0x00    
   \              0x42 0x79    
   \              0x74 0x65    
   \      0x150   0x33 0x4F          DC8 33H, 4FH, 75H, 74H, 70H, 75H, 74H, 32H
   \              0x75 0x74    
   \              0x70 0x75    
   \              0x74 0x32    
   \      0x158   0x00 0x42          DC8 0, 42H, 79H, 74H, 65H, 33H, 4FH, 75H
   \              0x79 0x74    
   \              0x65 0x33    
   \              0x4F 0x75    
   \      0x160   0x74 0x70          DC8 74H, 70H, 75H, 74H, 33H, 0, 42H, 79H
   \              0x75 0x74    
   \              0x33 0x00    
   \              0x42 0x79    
   \      0x168   0x74 0x65          DC8 74H, 65H, 33H, 4FH, 75H, 74H, 70H, 75H
   \              0x33 0x4F    
   \              0x75 0x74    
   \              0x70 0x75    
   \      0x170   0x74 0x34          DC8 74H, 34H, 0, 42H, 79H, 74H, 65H, 33H
   \              0x00 0x42    
   \              0x79 0x74    
   \              0x65 0x33    
   \      0x178   0x4F 0x75          DC8 4FH, 75H, 74H, 70H, 75H, 74H, 35H, 0
   \              0x74 0x70    
   \              0x75 0x74    
   \              0x35 0x00    
   \      0x180   0x42 0x79          DC8 42H, 79H, 74H, 65H, 33H, 4FH, 75H, 74H
   \              0x74 0x65    
   \              0x33 0x4F    
   \              0x75 0x74    
   \      0x188   0x70 0x75          DC8 70H, 75H, 74H, 36H, 0, 42H, 79H, 74H
   \              0x74 0x36    
   \              0x00 0x42    
   \              0x79 0x74    
   \      0x190   0x65 0x33          DC8 65H, 33H, 4FH, 75H, 74H, 70H, 75H, 74H
   \              0x4F 0x75    
   \              0x74 0x70    
   \              0x75 0x74    
   \      0x198   0x37 0x00          DC8 37H, 0, 42H, 79H, 74H, 65H, 33H, 4FH
   \              0x42 0x79    
   \              0x74 0x65    
   \              0x33 0x4F    
   \      0x1A0   0x75 0x74          DC8 75H, 74H, 70H, 75H, 74H, 38H, 0, 42H
   \              0x70 0x75    
   \              0x74 0x38    
   \              0x00 0x42    
   \      0x1A8   0x79 0x74          DC8 79H, 74H, 65H, 34H, 4FH, 75H, 74H, 70H
   \              0x65 0x34    
   \              0x4F 0x75    
   \              0x74 0x70    
   \      0x1B0   0x75 0x74          DC8 75H, 74H, 31H, 0, 42H, 79H, 74H, 65H
   \              0x31 0x00    
   \              0x42 0x79    
   \              0x74 0x65    
   \      0x1B8   0x34 0x4F          DC8 34H, 4FH, 75H, 74H, 70H, 75H, 74H, 32H
   \              0x75 0x74    
   \              0x70 0x75    
   \              0x74 0x32    
   \      0x1C0   0x00 0x42          DC8 0, 42H, 79H, 74H, 65H, 34H, 4FH, 75H
   \              0x79 0x74    
   \              0x65 0x34    
   \              0x4F 0x75    
   \      0x1C8   0x74 0x70          DC8 74H, 70H, 75H, 74H, 33H, 0, 42H, 79H
   \              0x75 0x74    
   \              0x33 0x00    
   \              0x42 0x79    
   \      0x1D0   0x74 0x65          DC8 74H, 65H, 34H, 4FH, 75H, 74H, 70H, 75H
   \              0x34 0x4F    
   \              0x75 0x74    
   \              0x70 0x75    
   \      0x1D8   0x74 0x34          DC8 74H, 34H, 0, 42H, 79H, 74H, 65H, 34H
   \              0x00 0x42    
   \              0x79 0x74    
   \              0x65 0x34    
   \      0x1E0   0x4F 0x75          DC8 4FH, 75H, 74H, 70H, 75H, 74H, 35H, 0
   \              0x74 0x70    
   \              0x75 0x74    
   \              0x35 0x00    
   \      0x1E8   0x42 0x79          DC8 42H, 79H, 74H, 65H, 34H, 4FH, 75H, 74H
   \              0x74 0x65    
   \              0x34 0x4F    
   \              0x75 0x74    
   \      0x1F0   0x70 0x75          DC8 70H, 75H, 74H, 36H, 0, 42H, 79H, 74H
   \              0x74 0x36    
   \              0x00 0x42    
   \              0x79 0x74    
   \      0x1F8   0x65 0x34          DC8 65H, 34H, 4FH, 75H, 74H, 70H, 75H, 74H
   \              0x4F 0x75    
   \              0x74 0x70    
   \              0x75 0x74    
   \      0x200   0x37 0x00          DC8 37H, 0, 42H, 79H, 74H, 65H, 34H, 4FH
   \              0x42 0x79    
   \              0x74 0x65    
   \              0x34 0x4F    
   \      0x208   0x75 0x74          DC8 75H, 74H, 70H, 75H, 74H, 38H, 0, 42H
   \              0x70 0x75    
   \              0x74 0x38    
   \              0x00 0x42    
   \      0x210   0x79 0x74          DC8 79H, 74H, 65H, 35H, 4FH, 75H, 74H, 70H
   \              0x65 0x35    
   \              0x4F 0x75    
   \              0x74 0x70    
   \      0x218   0x75 0x74          DC8 75H, 74H, 31H, 0, 42H, 79H, 74H, 65H
   \              0x31 0x00    
   \              0x42 0x79    
   \              0x74 0x65    
   \      0x220   0x35 0x4F          DC8 35H, 4FH, 75H, 74H, 70H, 75H, 74H, 32H
   \              0x75 0x74    
   \              0x70 0x75    
   \              0x74 0x32    
   \      0x228   0x00 0x42          DC8 0, 42H, 79H, 74H, 65H, 35H, 4FH, 75H
   \              0x79 0x74    
   \              0x65 0x35    
   \              0x4F 0x75    
   \      0x230   0x74 0x70          DC8 74H, 70H, 75H, 74H, 33H, 0, 42H, 79H
   \              0x75 0x74    
   \              0x33 0x00    
   \              0x42 0x79    
   \      0x238   0x74 0x65          DC8 74H, 65H, 35H, 4FH, 75H, 74H, 70H, 75H
   \              0x35 0x4F    
   \              0x75 0x74    
   \              0x70 0x75    
   \      0x240   0x74 0x34          DC8 74H, 34H, 0, 42H, 79H, 74H, 65H, 35H
   \              0x00 0x42    
   \              0x79 0x74    
   \              0x65 0x35    
   \      0x248   0x4F 0x75          DC8 4FH, 75H, 74H, 70H, 75H, 74H, 35H, 0
   \              0x74 0x70    
   \              0x75 0x74    
   \              0x35 0x00    
   \      0x250   0x42 0x79          DC8 42H, 79H, 74H, 65H, 35H, 4FH, 75H, 74H
   \              0x74 0x65    
   \              0x35 0x4F    
   \              0x75 0x74    
   \      0x258   0x70 0x75          DC8 70H, 75H, 74H, 36H, 0, 42H, 79H, 74H
   \              0x74 0x36    
   \              0x00 0x42    
   \              0x79 0x74    
   \      0x260   0x65 0x35          DC8 65H, 35H, 4FH, 75H, 74H, 70H, 75H, 74H
   \              0x4F 0x75    
   \              0x74 0x70    
   \              0x75 0x74    
   \      0x268   0x37 0x00          DC8 37H, 0, 42H, 79H, 74H, 65H, 35H, 4FH
   \              0x42 0x79    
   \              0x74 0x65    
   \              0x35 0x4F    
   \      0x270   0x75 0x74          DC8 75H, 74H, 70H, 75H, 74H, 38H, 0, 42H
   \              0x70 0x75    
   \              0x74 0x38    
   \              0x00 0x42    
   \      0x278   0x79 0x74          DC8 79H, 74H, 65H, 36H, 4FH, 75H, 74H, 70H
   \              0x65 0x36    
   \              0x4F 0x75    
   \              0x74 0x70    
   \      0x280   0x75 0x74          DC8 75H, 74H, 31H, 0, 42H, 79H, 74H, 65H
   \              0x31 0x00    
   \              0x42 0x79    
   \              0x74 0x65    
   \      0x288   0x36 0x4F          DC8 36H, 4FH, 75H, 74H, 70H, 75H, 74H, 32H
   \              0x75 0x74    
   \              0x70 0x75    
   \              0x74 0x32    
   \      0x290   0x00 0x42          DC8 0, 42H, 79H, 74H, 65H, 37H, 4FH, 75H
   \              0x79 0x74    
   \              0x65 0x37    
   \              0x4F 0x75    
   \      0x298   0x74 0x70          DC8 74H, 70H, 75H, 74H, 31H, 0, 42H, 79H
   \              0x75 0x74    
   \              0x31 0x00    
   \              0x42 0x79    
   \      0x2A0   0x74 0x65          DC8 74H, 65H, 37H, 4FH, 75H, 74H, 70H, 75H
   \              0x37 0x4F    
   \              0x75 0x74    
   \              0x70 0x75    
   \      0x2A8   0x74 0x32          DC8 74H, 32H, 0, 41H, 6EH, 61H, 6CH, 6FH
   \              0x00 0x41    
   \              0x6E 0x61    
   \              0x6C 0x6F    
   \      0x2B0   0x67 0x38          DC8 67H, 38H, 4FH, 75H, 74H, 70H, 75H, 74H
   \              0x4F 0x75    
   \              0x74 0x70    
   \              0x75 0x74    
   \      0x2B8   0x31 0x00          DC8 31H, 0, 41H, 6EH, 61H, 6CH, 6FH, 67H
   \              0x41 0x6E    
   \              0x61 0x6C    
   \              0x6F 0x67    
   \      0x2C0   0x39 0x4F          DC8 39H, 4FH, 75H, 74H, 70H, 75H, 74H, 31H
   \              0x75 0x74    
   \              0x70 0x75    
   \              0x74 0x31    
   \      0x2C8   0x00 0x41          DC8 0, 41H, 6EH, 61H, 6CH, 6FH, 67H, 31H
   \              0x6E 0x61    
   \              0x6C 0x6F    
   \              0x67 0x31    
   \      0x2D0   0x30 0x4F          DC8 30H, 4FH, 75H, 74H, 70H, 75H, 74H, 31H
   \              0x75 0x74    
   \              0x70 0x75    
   \              0x74 0x31    
   \      0x2D8   0x00 0x41          DC8 0, 41H, 6EH, 61H, 6CH, 6FH, 67H, 31H
   \              0x6E 0x61    
   \              0x6C 0x6F    
   \              0x67 0x31    
   \      0x2E0   0x31 0x4F          DC8 31H, 4FH, 75H, 74H, 70H, 75H, 74H, 31H, 0, 0FFH, 0, 0
   \              0x75 0x74    
   \              0x70 0x75    
   \              0x74 0x31    
   \              0x00 0xFF    
   \              0x00 0x00    

   \                                 In section .data, align 4
   \   __absolute TOBJECT ApplicationObjDic[7]
   \                     ApplicationObjDic:
   \        0x0   0x0000'0000        DC32 0H, 0H
   \              0x0000'0000  
   \        0x8   0x1600 0x0021      DC16 5632, 33, 2360
   \               0x0938      
   \        0xE   0x00 0x00          DC8 0, 0
   \       0x10   0x....'....        DC32 asEntryDesc0x1600, aName0x1600, OutputProcessDataMapping0x1600, 0H
   \              0x....'....  
   \              0x....'....  
   \              0x0000'0000  
   \       0x20   0x0000'0000        DC32 0H
   \       0x24   0x0000             DC16 0
   \       0x26   0x00 0x00          DC8 0, 0
   \       0x28   0x0000'0000        DC32 0H, 0H
   \              0x0000'0000  
   \       0x30   0x1A00 0x0021      DC16 6656, 33, 2360
   \               0x0938      
   \       0x36   0x00 0x00          DC8 0, 0
   \       0x38   0x....'....        DC32 asEntryDesc0x1A00, aName0x1A00, InputProcessDataMapping0x1A00, 0H
   \              0x....'....  
   \              0x....'....  
   \              0x0000'0000  
   \       0x48   0x0000'0000        DC32 0H
   \       0x4C   0x0000             DC16 0
   \       0x4E   0x00 0x00          DC8 0, 0
   \       0x50   0x0000'0000        DC32 0H, 0H
   \              0x0000'0000  
   \       0x58   0x1C12 0x0006      DC16 7186, 6, 2049
   \               0x0801      
   \       0x5E   0x00 0x00          DC8 0, 0
   \       0x60   0x....'....        DC32 asEntryDesc0x1C12, aName0x1C12, sRxPDOassign, 0H, 0H
   \              0x....'....  
   \              0x....'....  
   \              0x0000'0000  
   \              0x0000'0000  
   \       0x74   0x0000             DC16 0
   \       0x76   0x00 0x00          DC8 0, 0
   \       0x78   0x0000'0000        DC32 0H, 0H
   \              0x0000'0000  
   \       0x80   0x1C13 0x0006      DC16 7187, 6, 2049
   \               0x0801      
   \       0x86   0x00 0x00          DC8 0, 0
   \       0x88   0x....'....        DC32 asEntryDesc0x1C13, aName0x1C13, sTxPDOassign, 0H, 0H
   \              0x....'....  
   \              0x....'....  
   \              0x0000'0000  
   \              0x0000'0000  
   \       0x9C   0x0000             DC16 0
   \       0x9E   0x00 0x00          DC8 0, 0
   \       0xA0   0x0000'0000        DC32 0H, 0H
   \              0x0000'0000  
   \       0xA8   0x6000 0x002A      DC16 24576, 42, 2360
   \               0x0938      
   \       0xAE   0x00 0x00          DC8 0, 0
   \       0xB0   0x....'....        DC32 asEntryDesc0x6000, aName0x6000, Input0x6000, 0H, 0H
   \              0x....'....  
   \              0x....'....  
   \              0x0000'0000  
   \              0x0000'0000  
   \       0xC4   0x0000             DC16 0
   \       0xC6   0x00 0x00          DC8 0, 0
   \       0xC8   0x0000'0000        DC32 0H, 0H
   \              0x0000'0000  
   \       0xD0   0x7000 0x002A      DC16 28672, 42, 2360
   \               0x0938      
   \       0xD6   0x00 0x00          DC8 0, 0
   \       0xD8   0x....'....        DC32 asEntryDesc0x7000, aName0x7000, Output0x7000, 0H, 0H
   \              0x....'....  
   \              0x....'....  
   \              0x0000'0000  
   \              0x0000'0000  
   \       0xEC   0x0000             DC16 0
   \       0xEE   0x00 0x00          DC8 0, 0
   \       0xF0   0x0000'0000        DC32 0H, 0H
   \              0x0000'0000  
   \       0xF8   0xFFFF 0x0000      DC16 65535, 0, 0
   \               0x0000      
   \       0xFE   0x00 0x00          DC8 0, 0
   \      0x100   0x0000'0000        DC32 0H, 0H, 0H, 0H
   \              0x0000'0000  
   \              0x0000'0000  
   \              0x0000'0000  
   \      0x110   0x00 0x00          DC8 0, 0, 0, 0, 0, 0, 0, 0
   \              0x00 0x00    
   \              0x00 0x00    
   \              0x00 0x00    
    116          
    117          
    118          #undef _OBJD_
    119          /*-----------------------------------------------------------------------------------------
    120          ------
    121          ------    Backup Parameter
    122          ------
    123          -----------------------------------------------------------------------------------------*/
    124          
    125          /*-----------------------------------------------------------------------------------------
    126          ------
    127          ------    Generic EtherCAT device object
    128          ------
    129          -----------------------------------------------------------------------------------------*/
    130          
    131          /*---------------------------------------------
    132          -    0x1000
    133          -----------------------------------------------*/
    134          /**
    135           * \brief 0x1000 (Device type) variable to handle the object data
    136           */

   \                                 In section .data, align 4
    137          UINT32 u32Devicetype = (DEVICE_PROFILE_TYPE);
   \                     u32Devicetype:
   \        0x0   0x0000'1389        DC32 5001
    138          
    139          /**
    140           * \brief 0x1000 (Device type) entry description
    141           */

   \                                 In section .rodata, align 4
    142          OBJCONST TSDOINFOENTRYDESC    OBJMEM sEntryDesc0x1000 = {DEFTYPE_UNSIGNED32, 0x20, ACCESS_READ};
   \                     sEntryDesc0x1000:
   \        0x0   0x0007 0x0020      DC16 7, 32, 7
   \               0x0007      
   \        0x6   0x00 0x00          DC8 0, 0
    143          
    144          /**
    145           * \brief 0x1000 (Device type) object name
    146           */

   \                                 In section .rodata, align 4
    147          OBJCONST UCHAR OBJMEM aName0x1000[] = "Device type";
   \                     aName0x1000:
   \        0x0   0x44 0x65          DC8 "Device type"
   \              0x76 0x69    
   \              0x63 0x65    
   \              0x20 0x74    
   \              0x79 0x70    
   \              0x65 0x00    
    148          
    149          
    150          /*---------------------------------------------
    151          -    0x1001
    152          -----------------------------------------------*/
    153          /**
    154           * \brief 0x1001 (Error Register) variable to handle the object data
    155           */

   \                                 In section .bss, align 2
    156          UINT16 u16ErrorRegister = 0x0;
   \                     u16ErrorRegister:
   \        0x0                      DS8 2
    157          
    158          /**
    159           * \brief 0x1001 (Error Register) entry description
    160           */

   \                                 In section .rodata, align 4
    161          OBJCONST TSDOINFOENTRYDESC    OBJMEM sEntryDesc0x1001 = {DEFTYPE_UNSIGNED8, 0x08, ACCESS_READ};
   \                     sEntryDesc0x1001:
   \        0x0   0x0005 0x0008      DC16 5, 8, 7
   \               0x0007      
   \        0x6   0x00 0x00          DC8 0, 0
    162          
    163          /**
    164           * \brief 0x1001 (Error Register) object name
    165           */

   \                                 In section .rodata, align 4
    166          OBJCONST UCHAR OBJMEM aName0x1001[] = "Error register";
   \                     aName0x1001:
   \        0x0   0x45 0x72          DC8 "Error register"
   \              0x72 0x6F    
   \              0x72 0x20    
   \              0x72 0x65    
   \              0x67 0x69    
   \              0x73 0x74    
   \              0x65 0x72    
   \              0x00         
   \        0xF   0x00               DC8 0
    167          
    168          
    169          /*---------------------------------------------
    170          -    0x1008
    171          -----------------------------------------------*/
    172          /**
    173           * \brief 0x1008 (Device name) variable to handle the object data
    174           */

   \                                 In section .data, align 4
    175          CHAR acDevicename[] = DEVICE_NAME;
   \                     acDevicename:
   \        0x0   0x4D 0x79          DC8 "MyApplication"
   \              0x41 0x70    
   \              0x70 0x6C    
   \              0x69 0x63    
   \              0x61 0x74    
   \              0x69 0x6F    
   \              0x6E 0x00    
   \        0xE   0x00 0x00          DC8 0, 0
    176          
    177          /**
    178           * \brief 0x1008 (Device name) entry description
    179           */

   \                                 In section .rodata, align 4
    180          OBJCONST TSDOINFOENTRYDESC    OBJMEM sEntryDesc0x1008 = {DEFTYPE_VISIBLESTRING, BYTE2BIT(DEVICE_NAME_LEN), ACCESS_READ};
   \                     sEntryDesc0x1008:
   \        0x0   0x0009 0x0068      DC16 9, 104, 7
   \               0x0007      
   \        0x6   0x00 0x00          DC8 0, 0
    181          
    182          /**
    183           * \brief 0x1008 (Device name) object name
    184           */

   \                                 In section .rodata, align 4
    185          OBJCONST UCHAR OBJMEM aName0x1008[] = "Device name";
   \                     aName0x1008:
   \        0x0   0x44 0x65          DC8 "Device name"
   \              0x76 0x69    
   \              0x63 0x65    
   \              0x20 0x6E    
   \              0x61 0x6D    
   \              0x65 0x00    
    186          
    187          
    188          /*---------------------------------------------
    189          -    0x1009
    190          -----------------------------------------------*/
    191          /**
    192           * \brief 0x1009 (Hardware version) variable to handle the object data
    193           */

   \                                 In section .data, align 4
    194          CHAR acHardwareversion[] = DEVICE_HW_VERSION;
   \                     acHardwareversion:
   \        0x0   0x6E 0x2E          DC8 "n.a."
   \              0x61 0x2E    
   \              0x00         
   \        0x5   0x00 0x00          DC8 0, 0, 0
   \              0x00         
    195          
    196          /**
    197           * \brief 0x1009 (Hardware version) entry description
    198           */

   \                                 In section .rodata, align 4
    199          OBJCONST TSDOINFOENTRYDESC    OBJMEM sEntryDesc0x1009 = {DEFTYPE_VISIBLESTRING,BYTE2BIT(DEVICE_HW_VERSION_LEN), ACCESS_READ};
   \                     sEntryDesc0x1009:
   \        0x0   0x0009 0x0020      DC16 9, 32, 7
   \               0x0007      
   \        0x6   0x00 0x00          DC8 0, 0
    200          
    201          /**
    202           * \brief 0x1009 (Hardware version) object name
    203           */

   \                                 In section .rodata, align 4
    204          OBJCONST UCHAR OBJMEM aName0x1009[] = "Hardware version";
   \                     aName0x1009:
   \        0x0   0x48 0x61          DC8 "Hardware version"
   \              0x72 0x64    
   \              0x77 0x61    
   \              0x72 0x65    
   \              0x20 0x76    
   \              0x65 0x72    
   \              0x73 0x69    
   \              0x6F 0x6E    
   \              0x00         
   \       0x11   0x00 0x00          DC8 0, 0, 0
   \              0x00         
    205          
    206          
    207          /*---------------------------------------------
    208          -    0x100A
    209          -----------------------------------------------*/
    210          /**
    211           * \brief 0x100A (Software version) variable to handle the object data
    212           */

   \                                 In section .data, align 4
    213          CHAR acSoftwareversion[] = DEVICE_SW_VERSION;
   \                     acSoftwareversion:
   \        0x0   0x35 0x2E          DC8 "5.11"
   \              0x31 0x31    
   \              0x00         
   \        0x5   0x00 0x00          DC8 0, 0, 0
   \              0x00         
    214          
    215          /**
    216           * \brief 0x1009 (Hardware version) entry description
    217           */

   \                                 In section .rodata, align 4
    218          OBJCONST TSDOINFOENTRYDESC    OBJMEM sEntryDesc0x100A = {DEFTYPE_VISIBLESTRING,BYTE2BIT(DEVICE_SW_VERSION_LEN), ACCESS_READ};
   \                     sEntryDesc0x100A:
   \        0x0   0x0009 0x0020      DC16 9, 32, 7
   \               0x0007      
   \        0x6   0x00 0x00          DC8 0, 0
    219          
    220          /**
    221           * \brief 0x1009 (Hardware version) object name
    222           */

   \                                 In section .rodata, align 4
    223          OBJCONST UCHAR OBJMEM aName0x100A[] = "Software version";
   \                     aName0x100A:
   \        0x0   0x53 0x6F          DC8 "Software version"
   \              0x66 0x74    
   \              0x77 0x61    
   \              0x72 0x65    
   \              0x20 0x76    
   \              0x65 0x72    
   \              0x73 0x69    
   \              0x6F 0x6E    
   \              0x00         
   \       0x11   0x00 0x00          DC8 0, 0, 0
   \              0x00         
    224          
    225          
    226          
    227          
    228          /*---------------------------------------------
    229          -    0x1018
    230          -----------------------------------------------*/
    231          /**
    232           * \brief 0x1018 (Identity) object structure
    233           */
    234          typedef struct OBJ_STRUCT_PACKED_START {
    235             UINT16   u16SubIndex0; /**< \brief SubIndex 0*/
    236             UINT32   u32VendorID; /**< \brief EtherCAT vendor ID */
    237             UINT32   u32Productcode; /**< \brief Product code*/
    238             UINT32   u32Revision; /**< \brief Revision number*/
    239             UINT32   u32Serialnumber; /**< \brief Serial number*/
    240          } OBJ_STRUCT_PACKED_END
    241          TOBJ1018;
    242          
    243          /**
    244           * \brief 0x1018 (Identity) variable to handle the object data
    245           */

   \                                 In section .data, align 4
    246          TOBJ1018 sIdentity = {4, (VENDOR_ID), (PRODUCT_CODE), (REVISION_NUMBER), (SERIAL_NUMBER)};
   \                     sIdentity:
   \        0x0   0x0004             DC16 4
   \        0x2   0x00 0x00          DC8 0, 0
   \        0x4   0x0000'09B6        DC32 2486, 642265170, 0, 0
   \              0x2648'3052  
   \              0x0000'0000  
   \              0x0000'0000  
    247          
    248          /**
    249           * \brief 0x1018 (Identity) entry descriptions
    250           * 
    251           * Subindex 000
    252           * SubIndex 001: Vendor ID
    253           * SubIndex 002: Product code
    254           * SubIndex 003: Revision
    255           * SubIndex 004: Serial number
    256           */

   \                                 In section .rodata, align 4
    257          OBJCONST TSDOINFOENTRYDESC    OBJMEM asEntryDesc0x1018[] = {
   \                     asEntryDesc0x1018:
   \        0x0   0x0005 0x0008      DC16 5, 8, 7, 7, 32, 7, 7, 32, 7, 7, 32, 7, 7, 32, 7
   \               0x0007 0x000
   \              7 0x0020 0x00
   \              07 0x0007 0x0
   \              020 0x0007 0x
   \              0007 0x0020 0
   \              x0007 0x0007 
   \              0x0020 0x0007
   \       0x1E   0x00 0x00          DC8 0, 0
    258             {DEFTYPE_UNSIGNED8, 0x8, ACCESS_READ },
    259             {DEFTYPE_UNSIGNED32, 0x20, ACCESS_READ}, 
    260             {DEFTYPE_UNSIGNED32, 0x20, ACCESS_READ}, 
    261             {DEFTYPE_UNSIGNED32, 0x20, ACCESS_READ}, 
    262             {DEFTYPE_UNSIGNED32, 0x20, ACCESS_READ}};
    263          
    264          /**
    265           * \brief 0x1018 (Identity) object and entry names
    266           */

   \                                 In section .rodata, align 4
    267          OBJCONST UCHAR OBJMEM aName0x1018[] = "Identity\000Vendor ID\000Product code\000Revision\000Serial number\000\377";
   \                     aName0x1018:
   \        0x0   0x49 0x64          DC8 49H, 64H, 65H, 6EH, 74H, 69H, 74H, 79H
   \              0x65 0x6E    
   \              0x74 0x69    
   \              0x74 0x79    
   \        0x8   0x00 0x56          DC8 0, 56H, 65H, 6EH, 64H, 6FH, 72H, 20H
   \              0x65 0x6E    
   \              0x64 0x6F    
   \              0x72 0x20    
   \       0x10   0x49 0x44          DC8 49H, 44H, 0, 50H, 72H, 6FH, 64H, 75H
   \              0x00 0x50    
   \              0x72 0x6F    
   \              0x64 0x75    
   \       0x18   0x63 0x74          DC8 63H, 74H, 20H, 63H, 6FH, 64H, 65H, 0
   \              0x20 0x63    
   \              0x6F 0x64    
   \              0x65 0x00    
   \       0x20   0x52 0x65          DC8 52H, 65H, 76H, 69H, 73H, 69H, 6FH, 6EH
   \              0x76 0x69    
   \              0x73 0x69    
   \              0x6F 0x6E    
   \       0x28   0x00 0x53          DC8 0, 53H, 65H, 72H, 69H, 61H, 6CH, 20H
   \              0x65 0x72    
   \              0x69 0x61    
   \              0x6C 0x20    
   \       0x30   0x6E 0x75          DC8 6EH, 75H, 6DH, 62H, 65H, 72H, 0, 0FFH, 0, 0, 0, 0
   \              0x6D 0x62    
   \              0x65 0x72    
   \              0x00 0xFF    
   \              0x00 0x00    
   \              0x00 0x00    
    268          
    269          
    270          
    271          /*---------------------------------------------
    272          -    0x10F1
    273          -----------------------------------------------*/
    274          /**
    275           * \brief 0x10F1 (Error settings) entry description
    276           * Subindex 000
    277           * SubIndex 001: Local Error Reaction
    278           * SubIndex 002: Sync Error Counter Limit
    279           */

   \                                 In section .rodata, align 4
    280          OBJCONST TSDOINFOENTRYDESC    OBJMEM asEntryDesc0x10F1[] = {
   \                     asEntryDesc0x10F1:
   \        0x0   0x0005 0x0008      DC16 5, 8, 7, 7, 32, 63, 6, 16, 63
   \               0x0007 0x000
   \              7 0x0020 0x00
   \              3F 0x0006 0x0
   \              010 0x003F   
   \       0x12   0x00 0x00          DC8 0, 0
    281             {DEFTYPE_UNSIGNED8, 0x8, ACCESS_READ },
    282             {DEFTYPE_UNSIGNED32, 0x20, ACCESS_READWRITE}, 
    283          /*ECATCHANGE_START(V5.11) COE3*/
    284             {DEFTYPE_UNSIGNED16, 0x10, ACCESS_READWRITE}};
    285          /*ECATCHANGE_END(V5.11) COE3*/
    286          
    287          /**
    288           * \brief 0x10F1 (Error settings) object and entry names
    289           */   

   \                                 In section .rodata, align 4
    290          OBJCONST UCHAR OBJMEM aName0x10F1[] = "Error Settings\000Local Error Reaction\000Sync Error Counter Limit\000\377";
   \                     aName0x10F1:
   \        0x0   0x45 0x72          DC8 45H, 72H, 72H, 6FH, 72H, 20H, 53H, 65H
   \              0x72 0x6F    
   \              0x72 0x20    
   \              0x53 0x65    
   \        0x8   0x74 0x74          DC8 74H, 74H, 69H, 6EH, 67H, 73H, 0, 4CH
   \              0x69 0x6E    
   \              0x67 0x73    
   \              0x00 0x4C    
   \       0x10   0x6F 0x63          DC8 6FH, 63H, 61H, 6CH, 20H, 45H, 72H, 72H
   \              0x61 0x6C    
   \              0x20 0x45    
   \              0x72 0x72    
   \       0x18   0x6F 0x72          DC8 6FH, 72H, 20H, 52H, 65H, 61H, 63H, 74H
   \              0x20 0x52    
   \              0x65 0x61    
   \              0x63 0x74    
   \       0x20   0x69 0x6F          DC8 69H, 6FH, 6EH, 0, 53H, 79H, 6EH, 63H
   \              0x6E 0x00    
   \              0x53 0x79    
   \              0x6E 0x63    
   \       0x28   0x20 0x45          DC8 20H, 45H, 72H, 72H, 6FH, 72H, 20H, 43H
   \              0x72 0x72    
   \              0x6F 0x72    
   \              0x20 0x43    
   \       0x30   0x6F 0x75          DC8 6FH, 75H, 6EH, 74H, 65H, 72H, 20H, 4CH
   \              0x6E 0x74    
   \              0x65 0x72    
   \              0x20 0x4C    
   \       0x38   0x69 0x6D          DC8 69H, 6DH, 69H, 74H, 0, 0FFH, 0, 0
   \              0x69 0x74    
   \              0x00 0xFF    
   \              0x00 0x00    
    291          
    292          
    293          //object declaration and initialization in objdef.h
    294          
    295          
    296          /*---------------------------------------------
    297          -    0x1C00
    298          -----------------------------------------------*/
    299          /**
    300           * \brief 0x1C00 (Sync manager type) object structure
    301           */
    302          typedef struct OBJ_STRUCT_PACKED_START {
    303             UINT16   u16SubIndex0; /**< \brief SubIndex 0*/
    304             UINT8   aEntries[4]; /**< \brief Entry buffer (one for each SyncManager)*/
    305          } OBJ_STRUCT_PACKED_END
    306          TOBJ1C00;
    307          
    308          /**
    309           * \brief 0x1C00 (Sync manager type) variable to handle the object data
    310           *
    311           * SI 0 : 4 (4 SyncManagers available)
    312           * SI1 (SM0): Mailbox Out (0x1)
    313           * SI2 (SM1): Mailbox In (0x2)
    314           * SI3 (SM2): Process data Out (0x3)
    315           * SI4 (SM3): Process data In (0x4)
    316           *
    317           */

   \                                 In section .data, align 4
    318          TOBJ1C00 sSyncmanagertype = {0x04, {0x01, 0x02, 0x03, 0x04}};
   \                     sSyncmanagertype:
   \        0x0   0x0004             DC16 4
   \        0x2   0x01 0x02          DC8 1, 2, 3, 4, 0, 0
   \              0x03 0x04    
   \              0x00 0x00    
    319          
    320          
    321          /**
    322           * \brief 0x1C00 (Sync manager type) entry descriptions
    323           *
    324           * The object is an array so only the first entry is described (which is used for all entries).
    325           */

   \                                 In section .rodata, align 4
    326          OBJCONST TSDOINFOENTRYDESC    OBJMEM asEntryDesc0x1C00[2] = {
   \                     asEntryDesc0x1C00:
   \        0x0   0x0005 0x0008      DC16 5, 8, 7, 5, 8, 7
   \               0x0007 0x000
   \              5 0x0008 0x00
   \              07           
    327             {DEFTYPE_UNSIGNED8, 0x08, ACCESS_READ},
    328             {DEFTYPE_UNSIGNED8, 0x08, ACCESS_READ}};
    329          
    330          /**
    331           * \brief 0x1C00 (Sync manager type) object name
    332           */

   \                                 In section .rodata, align 4
    333          OBJCONST UCHAR OBJMEM aName0x1C00[] = "Sync manager type";
   \                     aName0x1C00:
   \        0x0   0x53 0x79          DC8 "Sync manager type"
   \              0x6E 0x63    
   \              0x20 0x6D    
   \              0x61 0x6E    
   \              0x61 0x67    
   \              0x65 0x72    
   \              0x20 0x74    
   \              0x79 0x70    
   \              0x65 0x00    
   \       0x12   0x00 0x00          DC8 0, 0
    334          
    335          
    336          /*---------------------------------------------
    337          -    0x1C3x
    338          -----------------------------------------------*/
    339          /**
    340           * \brief 0x1C3x (SyncManager parameter) entry description
    341           *
    342           * The entry descriptions are used for 0x1C32 and 0x1C33
    343           */

   \                                 In section .rodata, align 4
    344          OBJCONST TSDOINFOENTRYDESC    OBJMEM asEntryDesc0x1C3x[] = {
   \                     asEntryDesc0x1C3x:
   \        0x0   0x0005 0x0008      DC16 5, 8, 7, 6, 16, 15, 7, 32, 7, 0, 32, 0, 6, 16, 7, 7, 32, 7, 7, 32
   \               0x0007 0x000
   \              6 0x0010 0x00
   \              0F 0x0007 0x0
   \              020 0x0007 0x
   \              0000 0x0020 0
   \              x0000 0x0006 
   \              0x0010 0x0007
   \               0x0007 0x002
   \              0 0x0007 0x00
   \              07 0x0020    
   \       0x28   0x0007 0x0000      DC16 7, 0, 32, 0, 6, 16, 63, 7, 32, 7, 7, 32, 63, 6, 16, 7, 6, 16, 7, 0
   \               0x0020 0x000
   \              0 0x0006 0x00
   \              10 0x003F 0x0
   \              007 0x0020 0x
   \              0007 0x0007 0
   \              x0020 0x003F 
   \              0x0006 0x0010
   \               0x0007 0x000
   \              6 0x0010 0x00
   \              07 0x0000    
   \       0x50   0x0010 0x0000      DC16 16, 0, 0, 16, 0, 0, 32, 0, 0, 32, 0, 0, 32, 0, 0, 32, 0, 0, 0, 0
   \               0x0000 0x001
   \              0 0x0000 0x00
   \              00 0x0020 0x0
   \              000 0x0000 0x
   \              0020 0x0000 0
   \              x0000 0x0020 
   \              0x0000 0x0000
   \               0x0020 0x000
   \              0 0x0000 0x00
   \              00 0x0000    
   \       0x78   0x0000 0x0000      DC16 0, 0, 0, 0, 0, 0, 0, 0, 0, 0, 0, 0, 0, 0, 0, 0, 0, 0, 0, 0, 0, 0
   \               0x0000 0x000
   \              0 0x0000 0x00
   \              00 0x0000 0x0
   \              000 0x0000 0x
   \              0000 0x0000 0
   \              x0000 0x0000 
   \              0x0000 0x0000
   \               0x0000 0x000
   \              0 0x0000 0x00
   \              00 0x0000 0x0
   \              000 0x0000   
   \       0xA4   0x0000 0x0000      DC16 0, 0, 0, 0, 0, 0, 0, 0, 0, 0, 0, 0, 0, 0, 1, 1, 7
   \               0x0000 0x000
   \              0 0x0000 0x00
   \              00 0x0000 0x0
   \              000 0x0000 0x
   \              0000 0x0000 0
   \              x0000 0x0000 
   \              0x0000 0x0001
   \               0x0001 0x000
   \              7            
   \       0xC6   0x00 0x00          DC8 0, 0
    345             {DEFTYPE_UNSIGNED8, 0x8, ACCESS_READ }, /* Subindex 000 */
    346             {DEFTYPE_UNSIGNED16, 0x10, (ACCESS_READ | ACCESS_WRITE_PREOP)}, /* SubIndex 001: Synchronization Type */
    347             {DEFTYPE_UNSIGNED32, 0x20, ACCESS_READ}, /* SubIndex 002: Cycle Time */
    348             {0x0000, 0x20, 0}, /* SubIndex 003: Shift Time (not supported)*/
    349             {DEFTYPE_UNSIGNED16, 0x10, ACCESS_READ}, /* SubIndex 004: Synchronization Types supported */
    350             {DEFTYPE_UNSIGNED32, 0x20, ACCESS_READ}, /* SubIndex 005: Minimum Cycle Time */
    351             {DEFTYPE_UNSIGNED32, 0x20, ACCESS_READ}, /* SubIndex 006: Calc and Copy Time */
    352             {0x0000, 0x20, 0}, /* Subindex 007 Minimum Delay Time (not supported)*/
    353             {DEFTYPE_UNSIGNED16, 0x10, ACCESS_READWRITE}, /* SubIndex 008: Get Cycle Time */
    354             {DEFTYPE_UNSIGNED32, 0x20, ACCESS_READ}, /* SubIndex 009: Delay Time */
    355             {DEFTYPE_UNSIGNED32, 0x20, ACCESS_READWRITE}, /* SubIndex 010: Sync0 Cycle Time */
    356             {DEFTYPE_UNSIGNED16, 0x10, ACCESS_READ}, /* SubIndex 011: SM-Event Missed */
    357             {DEFTYPE_UNSIGNED16, 0x10, ACCESS_READ}, /* SubIndex 012: Cycle Time Too Small */
    358             {0x0000, 0x10, 0}, /* SubIndex 013: Shift Too Short Counter (not supported)*/
    359             {0x0000, 0x10, 0}, /* Subindex 014: RxPDO Toggle Failed (not supported)*/
    360             {0x0000, 0x20, 0}, /* Subindex 015: Minimum Cycle Distance (not supported)*/
    361             {0x0000, 0x20, 0}, /* Subindex 016: Maximum Cycle Distance (not supported)*/
    362             {0x0000, 0x20, 0}, /* Subindex 017: Minimum SM Sync Distance (not supported)*/
    363             {0x0000, 0x20, 0}, /* Subindex 018: Maximum SM Sync Distance (not supported)*/
    364             {0x0000, 0, 0}, /* Subindex 019 doesn't exist */
    365             {0x0000, 0, 0}, /* Subindex 020 doesn't exist */
    366             {0x0000, 0, 0}, /* Subindex 021 doesn't exist */
    367             {0x0000, 0, 0}, /* Subindex 022 doesn't exist */
    368             {0x0000, 0, 0}, /* Subindex 023 doesn't exist */
    369             {0x0000, 0, 0}, /* Subindex 024 doesn't exist */
    370             {0x0000, 0, 0}, /* Subindex 025 doesn't exist */
    371             {0x0000, 0, 0}, /* Subindex 026 doesn't exist */
    372             {0x0000, 0, 0}, /* Subindex 027 doesn't exist */
    373             {0x0000, 0, 0}, /* Subindex 028 doesn't exist */
    374             {0x0000, 0, 0}, /* Subindex 029 doesn't exist */
    375             {0x0000, 0, 0}, /* Subindex 030 doesn't exist */
    376             {0x0000, 0, 0}, /* Subindex 031 doesn't exist */
    377             {DEFTYPE_BOOLEAN, 0x01, ACCESS_READ}}; /* SubIndex 032: Sync error */
    378          
    379          /*ECATCHANGE_START(V5.11) ECAT4*/
    380          /**
    381           * \brief 0x1C32 (SyncManager 2 parameter) object and entry names
    382           */

   \                                 In section .rodata, align 4
    383          OBJCONST UCHAR OBJMEM aName0x1C32[] = "SM output parameter\000Synchronization Type\000Cycle Time\000\000Synchronization Types supported\000Minimum Cycle Time\000Calc and Copy Time\000\000Get Cycle Time\000Delay Time\000Sync0 Cycle Time\000SM-Event Missed\000Cycle Time Too Small\000Shift Time Too Short\000\000\000\000\000\000\000\000\000\000\000\000\000\000\000\000\000\000\000Sync Error\000\377";
   \                     aName0x1C32:
   \        0x0   0x53 0x4D          DC8 53H, 4DH, 20H, 6FH, 75H, 74H, 70H, 75H
   \              0x20 0x6F    
   \              0x75 0x74    
   \              0x70 0x75    
   \        0x8   0x74 0x20          DC8 74H, 20H, 70H, 61H, 72H, 61H, 6DH, 65H
   \              0x70 0x61    
   \              0x72 0x61    
   \              0x6D 0x65    
   \       0x10   0x74 0x65          DC8 74H, 65H, 72H, 0, 53H, 79H, 6EH, 63H
   \              0x72 0x00    
   \              0x53 0x79    
   \              0x6E 0x63    
   \       0x18   0x68 0x72          DC8 68H, 72H, 6FH, 6EH, 69H, 7AH, 61H, 74H
   \              0x6F 0x6E    
   \              0x69 0x7A    
   \              0x61 0x74    
   \       0x20   0x69 0x6F          DC8 69H, 6FH, 6EH, 20H, 54H, 79H, 70H, 65H
   \              0x6E 0x20    
   \              0x54 0x79    
   \              0x70 0x65    
   \       0x28   0x00 0x43          DC8 0, 43H, 79H, 63H, 6CH, 65H, 20H, 54H
   \              0x79 0x63    
   \              0x6C 0x65    
   \              0x20 0x54    
   \       0x30   0x69 0x6D          DC8 69H, 6DH, 65H, 0, 0, 53H, 79H, 6EH
   \              0x65 0x00    
   \              0x00 0x53    
   \              0x79 0x6E    
   \       0x38   0x63 0x68          DC8 63H, 68H, 72H, 6FH, 6EH, 69H, 7AH, 61H
   \              0x72 0x6F    
   \              0x6E 0x69    
   \              0x7A 0x61    
   \       0x40   0x74 0x69          DC8 74H, 69H, 6FH, 6EH, 20H, 54H, 79H, 70H
   \              0x6F 0x6E    
   \              0x20 0x54    
   \              0x79 0x70    
   \       0x48   0x65 0x73          DC8 65H, 73H, 20H, 73H, 75H, 70H, 70H, 6FH
   \              0x20 0x73    
   \              0x75 0x70    
   \              0x70 0x6F    
   \       0x50   0x72 0x74          DC8 72H, 74H, 65H, 64H, 0, 4DH, 69H, 6EH
   \              0x65 0x64    
   \              0x00 0x4D    
   \              0x69 0x6E    
   \       0x58   0x69 0x6D          DC8 69H, 6DH, 75H, 6DH, 20H, 43H, 79H, 63H
   \              0x75 0x6D    
   \              0x20 0x43    
   \              0x79 0x63    
   \       0x60   0x6C 0x65          DC8 6CH, 65H, 20H, 54H, 69H, 6DH, 65H, 0
   \              0x20 0x54    
   \              0x69 0x6D    
   \              0x65 0x00    
   \       0x68   0x43 0x61          DC8 43H, 61H, 6CH, 63H, 20H, 61H, 6EH, 64H
   \              0x6C 0x63    
   \              0x20 0x61    
   \              0x6E 0x64    
   \       0x70   0x20 0x43          DC8 20H, 43H, 6FH, 70H, 79H, 20H, 54H, 69H
   \              0x6F 0x70    
   \              0x79 0x20    
   \              0x54 0x69    
   \       0x78   0x6D 0x65          DC8 6DH, 65H, 0, 0, 47H, 65H, 74H, 20H
   \              0x00 0x00    
   \              0x47 0x65    
   \              0x74 0x20    
   \       0x80   0x43 0x79          DC8 43H, 79H, 63H, 6CH, 65H, 20H, 54H, 69H
   \              0x63 0x6C    
   \              0x65 0x20    
   \              0x54 0x69    
   \       0x88   0x6D 0x65          DC8 6DH, 65H, 0, 44H, 65H, 6CH, 61H, 79H
   \              0x00 0x44    
   \              0x65 0x6C    
   \              0x61 0x79    
   \       0x90   0x20 0x54          DC8 20H, 54H, 69H, 6DH, 65H, 0, 53H, 79H
   \              0x69 0x6D    
   \              0x65 0x00    
   \              0x53 0x79    
   \       0x98   0x6E 0x63          DC8 6EH, 63H, 30H, 20H, 43H, 79H, 63H, 6CH
   \              0x30 0x20    
   \              0x43 0x79    
   \              0x63 0x6C    
   \       0xA0   0x65 0x20          DC8 65H, 20H, 54H, 69H, 6DH, 65H, 0, 53H
   \              0x54 0x69    
   \              0x6D 0x65    
   \              0x00 0x53    
   \       0xA8   0x4D 0x2D          DC8 4DH, 2DH, 45H, 76H, 65H, 6EH, 74H, 20H
   \              0x45 0x76    
   \              0x65 0x6E    
   \              0x74 0x20    
   \       0xB0   0x4D 0x69          DC8 4DH, 69H, 73H, 73H, 65H, 64H, 0, 43H
   \              0x73 0x73    
   \              0x65 0x64    
   \              0x00 0x43    
   \       0xB8   0x79 0x63          DC8 79H, 63H, 6CH, 65H, 20H, 54H, 69H, 6DH
   \              0x6C 0x65    
   \              0x20 0x54    
   \              0x69 0x6D    
   \       0xC0   0x65 0x20          DC8 65H, 20H, 54H, 6FH, 6FH, 20H, 53H, 6DH
   \              0x54 0x6F    
   \              0x6F 0x20    
   \              0x53 0x6D    
   \       0xC8   0x61 0x6C          DC8 61H, 6CH, 6CH, 0, 53H, 68H, 69H, 66H
   \              0x6C 0x00    
   \              0x53 0x68    
   \              0x69 0x66    
   \       0xD0   0x74 0x20          DC8 74H, 20H, 54H, 69H, 6DH, 65H, 20H, 54H
   \              0x54 0x69    
   \              0x6D 0x65    
   \              0x20 0x54    
   \       0xD8   0x6F 0x6F          DC8 6FH, 6FH, 20H, 53H, 68H, 6FH, 72H, 74H, 0, 0, 0, 0, 0, 0, 0, 0
   \              0x20 0x53    
   \              0x68 0x6F    
   \              0x72 0x74    
   \              0x00 0x00    
   \              0x00 0x00    
   \              0x00 0x00    
   \              0x00 0x00    
   \       0xE8   0x00 0x00          DC8 0, 0, 0, 0, 0, 0, 0, 0, 0, 0, 0, 53H, 79H, 6EH, 63H, 20H
   \              0x00 0x00    
   \              0x00 0x00    
   \              0x00 0x00    
   \              0x00 0x00    
   \              0x00 0x53    
   \              0x79 0x6E    
   \              0x63 0x20    
   \       0xF8   0x45 0x72          DC8 45H, 72H, 72H, 6FH, 72H, 0, 0FFH, 0
   \              0x72 0x6F    
   \              0x72 0x00    
   \              0xFF 0x00    
    384          /*ECATCHANGE_END(V5.11) ECAT4*/
    385          
    386          /*ECATCHANGE_START(V5.11) ECAT4*/
    387          /**
    388           * \brief 0x1C33 (SyncManager 3 parameter) object and entry names
    389           */

   \                                 In section .rodata, align 4
    390          OBJCONST UCHAR OBJMEM aName0x1C33[] = "SM input parameter\000Synchronization Type\000Cycle Time\000\000Synchronization Types supported\000Minimum Cycle Time\000Calc and Copy Time\000\000Get Cycle Time\000Delay Time\000Sync0 Cycle Time\000SM-Event Missed\000Cycle Time Too Small\000Shift Time Too Short\000\000\000\000\000\000\000\000\000\000\000\000\000\000\000\000\000\000\000Sync Error\000\377";
   \                     aName0x1C33:
   \        0x0   0x53 0x4D          DC8 53H, 4DH, 20H, 69H, 6EH, 70H, 75H, 74H
   \              0x20 0x69    
   \              0x6E 0x70    
   \              0x75 0x74    
   \        0x8   0x20 0x70          DC8 20H, 70H, 61H, 72H, 61H, 6DH, 65H, 74H
   \              0x61 0x72    
   \              0x61 0x6D    
   \              0x65 0x74    
   \       0x10   0x65 0x72          DC8 65H, 72H, 0, 53H, 79H, 6EH, 63H, 68H
   \              0x00 0x53    
   \              0x79 0x6E    
   \              0x63 0x68    
   \       0x18   0x72 0x6F          DC8 72H, 6FH, 6EH, 69H, 7AH, 61H, 74H, 69H
   \              0x6E 0x69    
   \              0x7A 0x61    
   \              0x74 0x69    
   \       0x20   0x6F 0x6E          DC8 6FH, 6EH, 20H, 54H, 79H, 70H, 65H, 0
   \              0x20 0x54    
   \              0x79 0x70    
   \              0x65 0x00    
   \       0x28   0x43 0x79          DC8 43H, 79H, 63H, 6CH, 65H, 20H, 54H, 69H
   \              0x63 0x6C    
   \              0x65 0x20    
   \              0x54 0x69    
   \       0x30   0x6D 0x65          DC8 6DH, 65H, 0, 0, 53H, 79H, 6EH, 63H
   \              0x00 0x00    
   \              0x53 0x79    
   \              0x6E 0x63    
   \       0x38   0x68 0x72          DC8 68H, 72H, 6FH, 6EH, 69H, 7AH, 61H, 74H
   \              0x6F 0x6E    
   \              0x69 0x7A    
   \              0x61 0x74    
   \       0x40   0x69 0x6F          DC8 69H, 6FH, 6EH, 20H, 54H, 79H, 70H, 65H
   \              0x6E 0x20    
   \              0x54 0x79    
   \              0x70 0x65    
   \       0x48   0x73 0x20          DC8 73H, 20H, 73H, 75H, 70H, 70H, 6FH, 72H
   \              0x73 0x75    
   \              0x70 0x70    
   \              0x6F 0x72    
   \       0x50   0x74 0x65          DC8 74H, 65H, 64H, 0, 4DH, 69H, 6EH, 69H
   \              0x64 0x00    
   \              0x4D 0x69    
   \              0x6E 0x69    
   \       0x58   0x6D 0x75          DC8 6DH, 75H, 6DH, 20H, 43H, 79H, 63H, 6CH
   \              0x6D 0x20    
   \              0x43 0x79    
   \              0x63 0x6C    
   \       0x60   0x65 0x20          DC8 65H, 20H, 54H, 69H, 6DH, 65H, 0, 43H
   \              0x54 0x69    
   \              0x6D 0x65    
   \              0x00 0x43    
   \       0x68   0x61 0x6C          DC8 61H, 6CH, 63H, 20H, 61H, 6EH, 64H, 20H
   \              0x63 0x20    
   \              0x61 0x6E    
   \              0x64 0x20    
   \       0x70   0x43 0x6F          DC8 43H, 6FH, 70H, 79H, 20H, 54H, 69H, 6DH
   \              0x70 0x79    
   \              0x20 0x54    
   \              0x69 0x6D    
   \       0x78   0x65 0x00          DC8 65H, 0, 0, 47H, 65H, 74H, 20H, 43H
   \              0x00 0x47    
   \              0x65 0x74    
   \              0x20 0x43    
   \       0x80   0x79 0x63          DC8 79H, 63H, 6CH, 65H, 20H, 54H, 69H, 6DH
   \              0x6C 0x65    
   \              0x20 0x54    
   \              0x69 0x6D    
   \       0x88   0x65 0x00          DC8 65H, 0, 44H, 65H, 6CH, 61H, 79H, 20H
   \              0x44 0x65    
   \              0x6C 0x61    
   \              0x79 0x20    
   \       0x90   0x54 0x69          DC8 54H, 69H, 6DH, 65H, 0, 53H, 79H, 6EH
   \              0x6D 0x65    
   \              0x00 0x53    
   \              0x79 0x6E    
   \       0x98   0x63 0x30          DC8 63H, 30H, 20H, 43H, 79H, 63H, 6CH, 65H
   \              0x20 0x43    
   \              0x79 0x63    
   \              0x6C 0x65    
   \       0xA0   0x20 0x54          DC8 20H, 54H, 69H, 6DH, 65H, 0, 53H, 4DH
   \              0x69 0x6D    
   \              0x65 0x00    
   \              0x53 0x4D    
   \       0xA8   0x2D 0x45          DC8 2DH, 45H, 76H, 65H, 6EH, 74H, 20H, 4DH
   \              0x76 0x65    
   \              0x6E 0x74    
   \              0x20 0x4D    
   \       0xB0   0x69 0x73          DC8 69H, 73H, 73H, 65H, 64H, 0, 43H, 79H
   \              0x73 0x65    
   \              0x64 0x00    
   \              0x43 0x79    
   \       0xB8   0x63 0x6C          DC8 63H, 6CH, 65H, 20H, 54H, 69H, 6DH, 65H
   \              0x65 0x20    
   \              0x54 0x69    
   \              0x6D 0x65    
   \       0xC0   0x20 0x54          DC8 20H, 54H, 6FH, 6FH, 20H, 53H, 6DH, 61H
   \              0x6F 0x6F    
   \              0x20 0x53    
   \              0x6D 0x61    
   \       0xC8   0x6C 0x6C          DC8 6CH, 6CH, 0, 53H, 68H, 69H, 66H, 74H
   \              0x00 0x53    
   \              0x68 0x69    
   \              0x66 0x74    
   \       0xD0   0x20 0x54          DC8 20H, 54H, 69H, 6DH, 65H, 20H, 54H, 6FH
   \              0x69 0x6D    
   \              0x65 0x20    
   \              0x54 0x6F    
   \       0xD8   0x6F 0x20          DC8 6FH, 20H, 53H, 68H, 6FH, 72H, 74H, 0, 0, 0, 0, 0, 0, 0, 0, 0
   \              0x53 0x68    
   \              0x6F 0x72    
   \              0x74 0x00    
   \              0x00 0x00    
   \              0x00 0x00    
   \              0x00 0x00    
   \              0x00 0x00    
   \       0xE8   0x00 0x00          DC8 0, 0, 0, 0, 0, 0, 0, 0, 0, 0, 53H, 79H, 6EH, 63H, 20H, 45H
   \              0x00 0x00    
   \              0x00 0x00    
   \              0x00 0x00    
   \              0x00 0x00    
   \              0x53 0x79    
   \              0x6E 0x63    
   \              0x20 0x45    
   \       0xF8   0x72 0x72          DC8 72H, 72H, 6FH, 72H, 0, 0FFH, 0, 0
   \              0x6F 0x72    
   \              0x00 0xFF    
   \              0x00 0x00    
    391          
    392          /******************************************************************************
    393          ** Object Dictionary
    394          ******************************************************************************/
    395          /**
    396           * \brief Object dictionary pointer
    397           */

   \                                 In section .bss, align 4
    398          TOBJECT    OBJMEM * ObjDicList = NULL;
   \                     ObjDicList:
   \        0x0                      DS8 4
    399          
    400          /**
    401           * \brief List of generic application independent objects
    402           */

   \                                 In section .data, align 4
    403          TOBJECT    OBJMEM GenObjDic[] = {
   \                     GenObjDic:
   \        0x0   0x0000'0000        DC32 0H, 0H
   \              0x0000'0000  
   \        0x8   0x1000 0x0007      DC16 4096, 7, 1792
   \               0x0700      
   \        0xE   0x00 0x00          DC8 0, 0
   \       0x10   0x....'....        DC32 sEntryDesc0x1000, aName0x1000, u32Devicetype, 0H, 0H
   \              0x....'....  
   \              0x....'....  
   \              0x0000'0000  
   \              0x0000'0000  
   \       0x24   0x0000             DC16 0
   \       0x26   0x00 0x00          DC8 0, 0
   \       0x28   0x0000'0000        DC32 0H, 0H
   \              0x0000'0000  
   \       0x30   0x1001 0x0005      DC16 4097, 5, 1792
   \               0x0700      
   \       0x36   0x00 0x00          DC8 0, 0
   \       0x38   0x....'....        DC32 sEntryDesc0x1001, aName0x1001, u16ErrorRegister, 0H, 0H
   \              0x....'....  
   \              0x....'....  
   \              0x0000'0000  
   \              0x0000'0000  
   \       0x4C   0x0000             DC16 0
   \       0x4E   0x00 0x00          DC8 0, 0
   \       0x50   0x0000'0000        DC32 0H, 0H
   \              0x0000'0000  
   \       0x58   0x1008 0x0009      DC16 4104, 9, 1792
   \               0x0700      
   \       0x5E   0x00 0x00          DC8 0, 0
   \       0x60   0x....'....        DC32 sEntryDesc0x1008, aName0x1008, acDevicename, 0H, 0H
   \              0x....'....  
   \              0x....'....  
   \              0x0000'0000  
   \              0x0000'0000  
   \       0x74   0x0000             DC16 0
   \       0x76   0x00 0x00          DC8 0, 0
   \       0x78   0x0000'0000        DC32 0H, 0H
   \              0x0000'0000  
   \       0x80   0x1009 0x0009      DC16 4105, 9, 1792
   \               0x0700      
   \       0x86   0x00 0x00          DC8 0, 0
   \       0x88   0x....'....        DC32 sEntryDesc0x1009, aName0x1009, acHardwareversion, 0H, 0H
   \              0x....'....  
   \              0x....'....  
   \              0x0000'0000  
   \              0x0000'0000  
   \       0x9C   0x0000             DC16 0
   \       0x9E   0x00 0x00          DC8 0, 0
   \       0xA0   0x0000'0000        DC32 0H, 0H
   \              0x0000'0000  
   \       0xA8   0x100A 0x0009      DC16 4106, 9, 1792
   \               0x0700      
   \       0xAE   0x00 0x00          DC8 0, 0
   \       0xB0   0x....'....        DC32 sEntryDesc0x100A, aName0x100A, acSoftwareversion, 0H, 0H
   \              0x....'....  
   \              0x....'....  
   \              0x0000'0000  
   \              0x0000'0000  
   \       0xC4   0x0000             DC16 0
   \       0xC6   0x00 0x00          DC8 0, 0
   \       0xC8   0x0000'0000        DC32 0H, 0H
   \              0x0000'0000  
   \       0xD0   0x1018 0x0023      DC16 4120, 35, 2308
   \               0x0904      
   \       0xD6   0x00 0x00          DC8 0, 0
   \       0xD8   0x....'....        DC32 asEntryDesc0x1018, aName0x1018, sIdentity, 0H, 0H
   \              0x....'....  
   \              0x....'....  
   \              0x0000'0000  
   \              0x0000'0000  
   \       0xEC   0x0000             DC16 0
   \       0xEE   0x00 0x00          DC8 0, 0
   \       0xF0   0x0000'0000        DC32 0H, 0H
   \              0x0000'0000  
   \       0xF8   0x10F1 0x002A      DC16 4337, 42, 2306
   \               0x0902      
   \       0xFE   0x00 0x00          DC8 0, 0
   \      0x100   0x....'....        DC32 asEntryDesc0x10F1, aName0x10F1, sErrorSettings, 0H, 0H
   \              0x....'....  
   \              0x....'....  
   \              0x0000'0000  
   \              0x0000'0000  
   \      0x114   0x0000             DC16 0
   \      0x116   0x00 0x00          DC8 0, 0
   \      0x118   0x0000'0000        DC32 0H, 0H
   \              0x0000'0000  
   \      0x120   0x1C00 0x0005      DC16 7168, 5, 2052
   \               0x0804      
   \      0x126   0x00 0x00          DC8 0, 0
   \      0x128   0x....'....        DC32 asEntryDesc0x1C00, aName0x1C00, sSyncmanagertype, 0H, 0H
   \              0x....'....  
   \              0x....'....  
   \              0x0000'0000  
   \              0x0000'0000  
   \      0x13C   0x0000             DC16 0
   \      0x13E   0x00 0x00          DC8 0, 0
   \      0x140   0x0000'0000        DC32 0H, 0H
   \              0x0000'0000  
   \      0x148   0x1C32 0x0029      DC16 7218, 41, 2336
   \               0x0920      
   \      0x14E   0x00 0x00          DC8 0, 0
   \      0x150   0x....'....        DC32 asEntryDesc0x1C3x, aName0x1C32, sSyncManOutPar, 0H, 0H
   \              0x....'....  
   \              0x....'....  
   \              0x0000'0000  
   \              0x0000'0000  
   \      0x164   0x0000             DC16 0
   \      0x166   0x00 0x00          DC8 0, 0
   \      0x168   0x0000'0000        DC32 0H, 0H
   \              0x0000'0000  
   \      0x170   0x1C33 0x0029      DC16 7219, 41, 2336
   \               0x0920      
   \      0x176   0x00 0x00          DC8 0, 0
   \      0x178   0x....'....        DC32 asEntryDesc0x1C3x, aName0x1C33, sSyncManInPar, 0H, 0H
   \              0x....'....  
   \              0x....'....  
   \              0x0000'0000  
   \              0x0000'0000  
   \      0x18C   0x0000             DC16 0
   \      0x18E   0x00 0x00          DC8 0, 0
   \      0x190   0x0000'0000        DC32 0H, 0H
   \              0x0000'0000  
   \      0x198   0xFFFF 0x0000      DC16 65535, 0, 0
   \               0x0000      
   \      0x19E   0x00 0x00          DC8 0, 0
   \      0x1A0   0x0000'0000        DC32 0H, 0H, 0H, 0H, 0H
   \              0x0000'0000  
   \              0x0000'0000  
   \              0x0000'0000  
   \              0x0000'0000  
   \      0x1B4   0x0000             DC16 0
   \      0x1B6   0x00 0x00          DC8 0, 0
    404              /* Object 0x1000 */
    405             {NULL,NULL,  0x1000, {DEFTYPE_UNSIGNED32, 0 | (OBJCODE_VAR << 8)}, &sEntryDesc0x1000, aName0x1000, &u32Devicetype, NULL, NULL, 0x0000 },
    406             /* Object 0x1001 */
    407             {NULL,NULL,  0x1001, {DEFTYPE_UNSIGNED8, 0 | (OBJCODE_VAR << 8)}, &sEntryDesc0x1001, aName0x1001, &u16ErrorRegister, NULL, NULL, 0x0000 },
    408          /* Object 0x1008 */
    409             {NULL,NULL,  0x1008, {DEFTYPE_VISIBLESTRING, 0 | (OBJCODE_VAR << 8)}, &sEntryDesc0x1008, aName0x1008, acDevicename, NULL, NULL, 0x0000 },
    410             /* Object 0x1009 */
    411             {NULL,NULL,  0x1009, {DEFTYPE_VISIBLESTRING, 0 | (OBJCODE_VAR << 8)}, &sEntryDesc0x1009, aName0x1009, acHardwareversion, NULL, NULL, 0x0000 },
    412             /* Object 0x100A */
    413             {NULL,NULL,  0x100A, {DEFTYPE_VISIBLESTRING, 0 | (OBJCODE_VAR << 8)}, &sEntryDesc0x100A, aName0x100A, acSoftwareversion, NULL, NULL, 0x0000 },
    414             /* Object 0x1018 */
    415             {NULL,NULL,  0x1018, {DEFTYPE_IDENTITY, 4 | (OBJCODE_REC << 8)}, asEntryDesc0x1018, aName0x1018, &sIdentity, NULL, NULL, 0x0000 },
    416              /* Object 0x10F1 */
    417             {NULL,NULL,  0x10F1, {DEFTYPE_RECORD, 2 | (OBJCODE_REC << 8)}, asEntryDesc0x10F1, aName0x10F1, &sErrorSettings, NULL, NULL, 0x0000 },
    418             /* Object 0x1C00 */
    419             {NULL,NULL, 0x1C00, {DEFTYPE_UNSIGNED8, 4 | (OBJCODE_ARR << 8)}, asEntryDesc0x1C00, aName0x1C00, &sSyncmanagertype, NULL, NULL, 0x0000 },
    420             /* Object 0x1C32 */
    421             {NULL,NULL, 0x1C32, {DEFTYPE_SMPAR, 32 | (OBJCODE_REC << 8)}, asEntryDesc0x1C3x, aName0x1C32, &sSyncManOutPar, NULL, NULL, 0x0000 },
    422             /* Object 0x1C33 */
    423             {NULL,NULL, 0x1C33, {DEFTYPE_SMPAR, 32 | (OBJCODE_REC << 8)}, asEntryDesc0x1C3x, aName0x1C33, &sSyncManInPar, NULL, NULL, 0x0000 },
    424             
    425            /*end of entries*/
    426          /*ECATCHANGE_START(V5.11) COE1*/
    427            {NULL,NULL, 0xFFFF, {0, 0}, NULL, NULL, NULL, NULL, NULL, 0x000}};
    428          /*ECATCHANGE_END(V5.11) COE1*/
    429          
    430          
    431          /*-----------------------------------------------------------------------------------------
    432          ------
    433          ------    Functions
    434          ------
    435          -----------------------------------------------------------------------------------------*/
    436          
    437          /////////////////////////////////////////////////////////////////////////////////////////
    438          /**
    439          
    440           \brief    returns the pointer to the object dictionary
    441          *////////////////////////////////////////////////////////////////////////////////////////

   \                                 In section .text, align 2, keep-with-next
    442          OBJCONST TOBJECT OBJMEM * COE_GetObjectDictionary(void)
    443          {
    444              return (OBJCONST TOBJECT OBJMEM *) ObjDicList;
   \                     COE_GetObjectDictionary: (+1)
   \        0x0   0x....             LDR.N    R0,??DataTable6
   \        0x2   0x6800             LDR      R0,[R0, #+0]
   \        0x4   0x4770             BX       LR               ;; return
    445          }
    446          
    447          
    448          /////////////////////////////////////////////////////////////////////////////////////////
    449          /**
    450           \brief     This function initialize the several objects
    451          *////////////////////////////////////////////////////////////////////////////////////////
    452          

   \                                 In section .text, align 2, keep-with-next
    453          void COE_ObjInit(void)
    454          {
   \                     COE_ObjInit: (+1)
   \        0x0   0xB580             PUSH     {R7,LR}
    455              UINT16 result;
    456              /* initialize the Sync Manager Output parameter object 0x1C32 */
    457          
    458              sSyncManOutPar.subindex0         = 32;
   \        0x2   0x....             LDR.N    R0,??DataTable6_1
   \        0x4   0x2120             MOVS     R1,#+32
   \        0x6   0x8001             STRH     R1,[R0, #+0]
    459              /*
    460              subindex 1 contains the actual synchronization mode, it could be written
    461                from the master to switch between ECAT FreeRun and ECAT Synchron Mode
    462                  if the slave supports both modes,
    463                  in DC mode (selected by the DC registers) this value will be overwritten
    464                  with SYNCTYPE_DCSYNC0 or SYNCTYPE_DCSYNC1 */
    465               /*default mode is ECAT Synchron Mode */
    466              sSyncManOutPar.u16SyncType     = SYNCTYPE_FREERUN;
   \        0x8   0x2100             MOVS     R1,#+0
   \        0xA   0x8041             STRH     R1,[R0, #+2]
    467          
    468              /* subindex 2 contains the cycle time of the application,
    469                 in ECAT FreeRun mode it could be used for a timer interrupt to run the application,
    470                  in ECAT Synchron mode it could be written from the master with its local cycle time
    471                  that the slave can check if this cycle time is supported,
    472                  in DC Mode this value will be overwritten with the DC cycle time register */
    473              sSyncManOutPar.u32CycleTime     = 0;
   \        0xC   0x2100             MOVS     R1,#+0
   \        0xE   0x6041             STR      R1,[R0, #+4]
    474              /* only for DC Mode important: the subindex 3 contains the time shift between the
    475                 SYNC0 (SYNC1) signal and when the outputs are put to the hardware to allow the
    476                  master a very exactly calculation of delay times*/
    477              sSyncManOutPar.u32ShiftTime     = 0;
   \       0x10   0x2100             MOVS     R1,#+0
   \       0x12   0x6081             STR      R1,[R0, #+8]
    478          
    479              /* the subindex 4 contains the supported synchronization types */
    480          
    481              sSyncManOutPar.u16SyncTypesSupported    = SYNCTYPE_FREERUNSUPP            /* ECAT FreeRun Mode is supported */
    482                                                        | SYNCTYPE_TIMESVARIABLE        /* the execution times depend on the connected modules */
    483                                                        | SYNCTYPE_SYNCHRONSUPP         /* ECAT Synchron Mode is supported */
    484              ;
   \       0x14   0xF244 0x0103      MOVW     R1,#+16387
   \       0x18   0x8181             STRH     R1,[R0, #+12]
    485          
    486              /* subindex 5 contains the minimum cycle time the slave is able to support,
    487                 will be calculated dynamically because it depends on the connected modules
    488                  (in this example we will make an online measurement in the ESC Interrupt Routine).
    489                  For the sample application this value is set to MIN_PD_CYCLE_TIME */
    490              sSyncManOutPar.u32MinCycleTime = MIN_PD_CYCLE_TIME;
   \       0x1A   0x....             LDR.N    R1,??DataTable6_2  ;; 0x7a120
   \       0x1C   0x6101             STR      R1,[R0, #+16]
    491              /* only for DC Mode important: subindex 6 contains the minimum delay time the slave
    492                 needs after receiving the SM2-event before the SYNC0(SYNC1) can be received without delays
    493                 will be calculated dynamically because it depends on the connected modules
    494                  (in this example we will make an online measurement in the ESC Interrupt Routine) */
    495              sSyncManOutPar.u32CalcAndCopyTime = (PD_OUTPUT_CALC_AND_COPY_TIME);
   \       0x1E   0x2200             MOVS     R2,#+0
   \       0x20   0x6142             STR      R2,[R0, #+20]
    496          
    497              /*subindex 8: trigger cycle time measurement*/
    498              sSyncManOutPar.u16GetCycleTime = 0;
   \       0x22   0x2200             MOVS     R2,#+0
   \       0x24   0x8382             STRH     R2,[R0, #+28]
    499          
    500              /*subindex 9: time from start driving outputs until outputs are valid*/
    501              sSyncManOutPar.u32DelayTime = (PD_OUTPUT_DELAY_TIME);
   \       0x26   0x2200             MOVS     R2,#+0
   \       0x28   0x6202             STR      R2,[R0, #+32]
    502          
    503              /*subindex 32: indicates if a synchronisation error has occurred*/
    504              sSyncManOutPar.u8SyncError = 0;
   \       0x2A   0x2200             MOVS     R2,#+0
   \       0x2C   0xF880 0x2040      STRB     R2,[R0, #+64]
    505          
    506          /*ECATCHANGE_START(V5.11) ECAT4*/
    507              /* initialize the Sync Manager Input parameter object 0x1C33 */
    508              sSyncManInPar.subindex0         = 32;
   \       0x30   0x....             LDR.N    R2,??DataTable6_3
   \       0x32   0x2320             MOVS     R3,#+32
   \       0x34   0x8013             STRH     R3,[R2, #+0]
    509              /* default mode is ECAT Synchron Mode, if output size > 0 the inputs are updated with the SM2-event */
    510              sSyncManInPar.u16SyncType       = SYNCTYPE_FREERUN;
   \       0x36   0x2300             MOVS     R3,#+0
   \       0x38   0x8053             STRH     R3,[R2, #+2]
    511          
    512              /* subindex 2: same as 0x1C32:02 */
    513              sSyncManInPar.u32CycleTime     = sSyncManOutPar.u32CycleTime;
   \       0x3A   0x6843             LDR      R3,[R0, #+4]
   \       0x3C   0x6053             STR      R3,[R2, #+4]
    514              /* only for DC Mode important: subindex 3 contains the time shift between the
    515                 SYNC0 (SYNC1) signal and when the inputs are got to the hardware to allow the
    516                  master a very exactly calculation of delay times,
    517                 will be calculated dynamically because it depends on the connected modules
    518                  (in this example we will make an online measurement in the ESC Interrupt Routine) */
    519              sSyncManInPar.u32ShiftTime     = 0;
   \       0x3E   0x2300             MOVS     R3,#+0
   \       0x40   0x6093             STR      R3,[R2, #+8]
    520              /* subindex 4: same as 0x1C32:04 */
    521              sSyncManInPar.u16SyncTypesSupported    = sSyncManOutPar.u16SyncTypesSupported;
   \       0x42   0x8980             LDRH     R0,[R0, #+12]
   \       0x44   0x8190             STRH     R0,[R2, #+12]
    522          
    523              /* subindex 5: same as 0x1C32:05 */
    524              sSyncManInPar.u32MinCycleTime = MIN_PD_CYCLE_TIME;
   \       0x46   0x6111             STR      R1,[R2, #+16]
    525              /* subindex 6: delay read inputs, calculation and copy to SM buffer*/
    526              sSyncManInPar.u32CalcAndCopyTime = (PD_INPUT_CALC_AND_COPY_TIME);
   \       0x48   0x2000             MOVS     R0,#+0
   \       0x4A   0x6150             STR      R0,[R2, #+20]
    527              /*subindex 8: trigger cycle time measurement*/
    528              sSyncManInPar.u16GetCycleTime = 0;
   \       0x4C   0x2000             MOVS     R0,#+0
   \       0x4E   0x8390             STRH     R0,[R2, #+28]
    529              /*subindex 9: delay to prepare input latch*/
    530              sSyncManInPar.u32DelayTime = (PD_INPUT_DELAY_TIME);
   \       0x50   0x2000             MOVS     R0,#+0
   \       0x52   0x6210             STR      R0,[R2, #+32]
    531          
    532              /*subindex 32: incremented if a synchronisation error has occurred*/
    533              sSyncManInPar.u8SyncError = 0;
   \       0x54   0x2000             MOVS     R0,#+0
   \       0x56   0xF882 0x0040      STRB     R0,[R2, #+64]
    534          /*ECATCHANGE_END(V5.11) ECAT4*/
    535          
    536              /*Indicate no user specified Sync mode*/
    537              bSyncSetByUser = FALSE;
   \       0x5A   0x2000             MOVS     R0,#+0
   \       0x5C   0x....             LDR.N    R1,??DataTable6_4
   \       0x5E   0x7008             STRB     R0,[R1, #+0]
    538          
    539          
    540              result = COE_ObjDictionaryInit();
   \       0x60   0x.... 0x....      BL       COE_ObjDictionaryInit
    541              if(result != 0)
   \       0x64   0xB280             UXTH     R0,R0            ;; ZeroExt  R0,R0,#+16,#+16
   \       0x66   0x2800             CMP      R0,#+0
   \       0x68   0xD001             BEQ.N    ??COE_ObjInit_0
    542              {
    543                  /*clear already linked objects*/
    544                  COE_ClearObjDictionary();
   \       0x6A   0x.... 0x....      BL       COE_ClearObjDictionary
    545              }
    546          
    547          
    548              u8PendingSdo     = 0;
   \                     ??COE_ObjInit_0: (+1)
   \       0x6E   0x2000             MOVS     R0,#+0
   \       0x70   0x....             LDR.N    R1,??DataTable6_5
   \       0x72   0x7008             STRB     R0,[R1, #+0]
    549              u16StoreIndex    = 0;
   \       0x74   0x2000             MOVS     R0,#+0
   \       0x76   0x....             LDR.N    R1,??DataTable6_6
   \       0x78   0x8008             STRH     R0,[R1, #+0]
    550              u8StoreSubindex  = 0;
   \       0x7A   0x2000             MOVS     R0,#+0
   \       0x7C   0x....             LDR.N    R1,??DataTable6_7
   \       0x7E   0x7008             STRB     R0,[R1, #+0]
    551              u32StoreDataSize = 0;
   \       0x80   0x2000             MOVS     R0,#+0
   \       0x82   0x....             LDR.N    R1,??DataTable6_8
   \       0x84   0x6008             STR      R0,[R1, #+0]
    552              pStoreData       = NULL;
   \       0x86   0x2000             MOVS     R0,#+0
   \       0x88   0x....             LDR.N    R1,??DataTable6_9
   \       0x8A   0x6008             STR      R0,[R1, #+0]
    553              pSdoPendFunc     = NULL;
   \       0x8C   0x2000             MOVS     R0,#+0
   \       0x8E   0x....             LDR.N    R1,??DataTable6_10
   \       0x90   0x6008             STR      R0,[R1, #+0]
    554              bStoreCompleteAccess = FALSE;
   \       0x92   0x2000             MOVS     R0,#+0
   \       0x94   0x....             LDR.N    R1,??DataTable6_11
   \       0x96   0x7008             STRB     R0,[R1, #+0]
    555          
    556              pSdoSegData = NULL;
   \       0x98   0x2000             MOVS     R0,#+0
   \       0x9A   0x....             LDR.N    R1,??DataTable6_12
   \       0x9C   0x6008             STR      R0,[R1, #+0]
    557          }
   \       0x9E   0xBD01             POP      {R0,PC}          ;; return
    558          
    559          /////////////////////////////////////////////////////////////////////////////////////////
    560          /**
    561           \return    0               object successful added to object dictionary
    562                      ALSTATUSCODE_XX add object failed
    563          
    564           \brief    This function adds an object to the object dictionary
    565           *////////////////////////////////////////////////////////////////////////////////////////

   \                                 In section .text, align 2, keep-with-next
    566          UINT16 COE_AddObjectToDic(TOBJECT OBJMEM * pNewObjEntry)
    567          {
    568              if(pNewObjEntry != NULL)
   \                     COE_AddObjectToDic: (+1)
   \        0x0   0x2800             CMP      R0,#+0
   \        0x2   0xD03D             BEQ.N    ??COE_AddObjectToDic_0
    569              {
    570                  if(ObjDicList == NULL)
   \        0x4   0x....             LDR.N    R2,??DataTable6
   \        0x6   0x6811             LDR      R1,[R2, #+0]
   \        0x8   0x2900             CMP      R1,#+0
   \        0xA   0xD108             BNE.N    ??COE_AddObjectToDic_1
    571                  {
    572                      /* Object dictionary is empty */
    573                      ObjDicList = pNewObjEntry;
   \        0xC   0x6010             STR      R0,[R2, #+0]
    574                      ObjDicList->pNext = NULL;
   \        0xE   0x2000             MOVS     R0,#+0
   \       0x10   0x6811             LDR      R1,[R2, #+0]
   \       0x12   0x6048             STR      R0,[R1, #+4]
    575                      ObjDicList->pPrev = NULL;
   \       0x14   0x2000             MOVS     R0,#+0
   \       0x16   0x6811             LDR      R1,[R2, #+0]
   \       0x18   0x6008             STR      R0,[R1, #+0]
    576                      return 0;
   \       0x1A   0x2000             MOVS     R0,#+0
   \       0x1C   0xE031             B.N      ??COE_AddObjectToDic_2
    577                  }
    578                  else if(ObjDicList->Index > pNewObjEntry->Index)
   \                     ??COE_AddObjectToDic_1: (+1)
   \       0x1E   0x8901             LDRH     R1,[R0, #+8]
   \       0x20   0x6813             LDR      R3,[R2, #+0]
   \       0x22   0x891B             LDRH     R3,[R3, #+8]
   \       0x24   0x4299             CMP      R1,R3
   \       0x26   0xD208             BCS.N    ??COE_AddObjectToDic_3
    579                  {
    580                      /*insert new object dictionary head*/
    581                      pNewObjEntry->pPrev = NULL;
   \       0x28   0x2100             MOVS     R1,#+0
   \       0x2A   0x6001             STR      R1,[R0, #+0]
    582                      pNewObjEntry->pNext = ObjDicList;
   \       0x2C   0x6811             LDR      R1,[R2, #+0]
   \       0x2E   0x6041             STR      R1,[R0, #+4]
    583                      ObjDicList->pPrev = pNewObjEntry;
   \       0x30   0x6811             LDR      R1,[R2, #+0]
   \       0x32   0x6008             STR      R0,[R1, #+0]
    584                      ObjDicList = pNewObjEntry;
   \       0x34   0x6010             STR      R0,[R2, #+0]
    585                      return 0;
   \       0x36   0x2000             MOVS     R0,#+0
   \       0x38   0xE023             B.N      ??COE_AddObjectToDic_2
    586                  }
    587                  else
    588                  {
    589                      TOBJECT    OBJMEM * pDicEntry = ObjDicList;
   \                     ??COE_AddObjectToDic_3: (+1)
   \       0x3A   0x6812             LDR      R2,[R2, #+0]
   \       0x3C   0xE007             B.N      ??COE_AddObjectToDic_4
    590                      while(pDicEntry != NULL)
    591                      {
    592                          if(pDicEntry->Index == pNewObjEntry->Index)
    593                          {
    594                              /*object already exists in object dictionary*/
    595                              return ALSTATUSCODE_UNSPECIFIEDERROR;
    596                          }
    597                          else if(pDicEntry->Index > pNewObjEntry->Index)
   \                     ??COE_AddObjectToDic_5: (+1)
   \       0x3E   0x8901             LDRH     R1,[R0, #+8]
   \       0x40   0x8913             LDRH     R3,[R2, #+8]
   \       0x42   0x4299             CMP      R1,R3
   \       0x44   0xD30B             BCC.N    ??COE_AddObjectToDic_6
    598                          {
    599                              pNewObjEntry->pPrev = pDicEntry->pPrev;
    600                              pNewObjEntry->pNext = pDicEntry;
    601          
    602                              if(pDicEntry->pPrev != NULL)
    603                                  pDicEntry->pPrev->pNext = pNewObjEntry;
    604          
    605                              pDicEntry->pPrev = pNewObjEntry;
    606          
    607                              return 0;
    608                          }
    609                          else if(pDicEntry->pNext == NULL)
   \                     ??COE_AddObjectToDic_7: (+1)
   \       0x46   0x6851             LDR      R1,[R2, #+4]
   \       0x48   0x2900             CMP      R1,#+0
   \       0x4A   0xD013             BEQ.N    ??COE_AddObjectToDic_8
    610                          {
    611                              /*Last entry reached => add object to list tail*/
    612                              pDicEntry->pNext = pNewObjEntry;
    613                              pNewObjEntry->pPrev = pDicEntry;
    614                              pNewObjEntry->pNext = NULL;
    615                              return 0;
    616                          }
    617                          else
    618                          {
    619                              /*The new object index is smaller than the current index. Get next object handle.*/
    620                              pDicEntry = pDicEntry->pNext;
   \                     ??COE_AddObjectToDic_9: (+1)
   \       0x4C   0x6852             LDR      R2,[R2, #+4]
    621                          }
   \                     ??COE_AddObjectToDic_4: (+1)
   \       0x4E   0x2A00             CMP      R2,#+0
   \       0x50   0xD016             BEQ.N    ??COE_AddObjectToDic_0
   \       0x52   0x8911             LDRH     R1,[R2, #+8]
   \       0x54   0x8903             LDRH     R3,[R0, #+8]
   \       0x56   0x4299             CMP      R1,R3
   \       0x58   0xD1F1             BNE.N    ??COE_AddObjectToDic_5
   \       0x5A   0x2001             MOVS     R0,#+1
   \       0x5C   0xE011             B.N      ??COE_AddObjectToDic_2
   \                     ??COE_AddObjectToDic_6: (+1)
   \       0x5E   0x6811             LDR      R1,[R2, #+0]
   \       0x60   0x6001             STR      R1,[R0, #+0]
   \       0x62   0x6042             STR      R2,[R0, #+4]
   \       0x64   0x6811             LDR      R1,[R2, #+0]
   \       0x66   0x2900             CMP      R1,#+0
   \       0x68   0xD001             BEQ.N    ??COE_AddObjectToDic_10
   \       0x6A   0x6811             LDR      R1,[R2, #+0]
   \       0x6C   0x6048             STR      R0,[R1, #+4]
   \                     ??COE_AddObjectToDic_10: (+1)
   \       0x6E   0x6010             STR      R0,[R2, #+0]
   \       0x70   0x2000             MOVS     R0,#+0
   \       0x72   0xE006             B.N      ??COE_AddObjectToDic_2
   \                     ??COE_AddObjectToDic_8: (+1)
   \       0x74   0x6050             STR      R0,[R2, #+4]
   \       0x76   0x6002             STR      R2,[R0, #+0]
   \       0x78   0x2100             MOVS     R1,#+0
   \       0x7A   0x6041             STR      R1,[R0, #+4]
   \       0x7C   0x2000             MOVS     R0,#+0
   \       0x7E   0xE000             B.N      ??COE_AddObjectToDic_2
    622                      }
    623                  }
    624              }
    625              return ALSTATUSCODE_UNSPECIFIEDERROR;
   \                     ??COE_AddObjectToDic_0: (+1)
   \       0x80   0x2001             MOVS     R0,#+1
   \                     ??COE_AddObjectToDic_2: (+1)
   \       0x82   0x4770             BX       LR               ;; return
    626          }
    627          /////////////////////////////////////////////////////////////////////////////////////////
    628          /**
    629          
    630           \brief    This function removes an object to the object dictionary
    631          *////////////////////////////////////////////////////////////////////////////////////////

   \                                 In section .text, align 2, keep-with-next
    632          void COE_RemoveDicEntry(UINT16 index)
    633          {
   \                     COE_RemoveDicEntry: (+1)
   \        0x0   0xB410             PUSH     {R4}
    634              TOBJECT    OBJMEM * pDicEntry = ObjDicList;
   \        0x2   0x....             LDR.N    R3,??DataTable6
   \        0x4   0x6819             LDR      R1,[R3, #+0]
   \        0x6   0xE000             B.N      ??COE_RemoveDicEntry_0
    635          
    636              while(pDicEntry != NULL)
    637              {
    638                  if(pDicEntry->Index == index)
    639                  {
    640                      TOBJECT OBJMEM *pPrevEntry = pDicEntry->pPrev;
    641                      TOBJECT OBJMEM *pNextEntry = pDicEntry->pNext;
    642          
    643                      if(pPrevEntry != NULL)
    644                          pPrevEntry->pNext = pNextEntry;
    645          
    646                      if(pNextEntry != NULL)
    647                          pNextEntry->pPrev = pPrevEntry;
    648          
    649                      pDicEntry->pPrev = NULL;
    650                      pDicEntry->pNext = NULL;
    651                      /*Update Object dictionary pointer if list head was removed*/
    652                      if(pDicEntry->Index == ObjDicList->Index)
    653                      {
    654                          ObjDicList = pNextEntry;
    655                      }
    656                      return;
    657                  }
    658          
    659                  pDicEntry = pDicEntry->pNext;
   \                     ??COE_RemoveDicEntry_1: (+1)
   \        0x8   0x6849             LDR      R1,[R1, #+4]
   \                     ??COE_RemoveDicEntry_0: (+1)
   \        0xA   0x2900             CMP      R1,#+0
   \        0xC   0xD017             BEQ.N    ??COE_RemoveDicEntry_2
   \        0xE   0x890A             LDRH     R2,[R1, #+8]
   \       0x10   0x0004             MOVS     R4,R0
   \       0x12   0xB2A4             UXTH     R4,R4            ;; ZeroExt  R4,R4,#+16,#+16
   \       0x14   0x42A2             CMP      R2,R4
   \       0x16   0xD1F7             BNE.N    ??COE_RemoveDicEntry_1
   \       0x18   0x680A             LDR      R2,[R1, #+0]
   \       0x1A   0x6848             LDR      R0,[R1, #+4]
   \       0x1C   0x2A00             CMP      R2,#+0
   \       0x1E   0xD000             BEQ.N    ??COE_RemoveDicEntry_3
   \       0x20   0x6050             STR      R0,[R2, #+4]
   \                     ??COE_RemoveDicEntry_3: (+1)
   \       0x22   0x2800             CMP      R0,#+0
   \       0x24   0xD000             BEQ.N    ??COE_RemoveDicEntry_4
   \       0x26   0x6002             STR      R2,[R0, #+0]
   \                     ??COE_RemoveDicEntry_4: (+1)
   \       0x28   0x2200             MOVS     R2,#+0
   \       0x2A   0x600A             STR      R2,[R1, #+0]
   \       0x2C   0x2200             MOVS     R2,#+0
   \       0x2E   0x604A             STR      R2,[R1, #+4]
   \       0x30   0x8909             LDRH     R1,[R1, #+8]
   \       0x32   0x681A             LDR      R2,[R3, #+0]
   \       0x34   0x8912             LDRH     R2,[R2, #+8]
   \       0x36   0x4291             CMP      R1,R2
   \       0x38   0xD100             BNE.N    ??COE_RemoveDicEntry_5
   \       0x3A   0x6018             STR      R0,[R3, #+0]
   \                     ??COE_RemoveDicEntry_5: (+1)
   \       0x3C   0xE7FF             B.N      ??COE_RemoveDicEntry_6
    660              }
    661          }
   \                     ??COE_RemoveDicEntry_2: (+1)
   \                     ??COE_RemoveDicEntry_6: (+1)
   \       0x3E   0xBC10             POP      {R4}
   \       0x40   0x4770             BX       LR               ;; return
    662          /////////////////////////////////////////////////////////////////////////////////////////
    663          /**
    664          
    665           \brief    This function clear the object dictionary
    666          *////////////////////////////////////////////////////////////////////////////////////////

   \                                 In section .text, align 2, keep-with-next
    667          void COE_ClearObjDictionary(void)
    668          {
   \                     COE_ClearObjDictionary: (+1)
   \        0x0   0xB538             PUSH     {R3-R5,LR}
    669              TOBJECT OBJMEM * pObjEntry = (TOBJECT OBJMEM *) ObjDicList;
   \        0x2   0x....             LDR.N    R5,??DataTable6
   \        0x4   0x682C             LDR      R4,[R5, #+0]
    670              UINT16 Index = 0;
   \        0x6   0x2000             MOVS     R0,#+0
   \        0x8   0xE004             B.N      ??COE_ClearObjDictionary_0
    671          
    672              while(pObjEntry != NULL)
    673              {
    674                  Index     = pObjEntry->Index;
   \                     ??COE_ClearObjDictionary_1: (+1)
   \        0xA   0x8920             LDRH     R0,[R4, #+8]
    675                  pObjEntry = pObjEntry->pNext;
   \        0xC   0x6864             LDR      R4,[R4, #+4]
    676          
    677                  COE_RemoveDicEntry(Index);
   \        0xE   0xB280             UXTH     R0,R0            ;; ZeroExt  R0,R0,#+16,#+16
   \       0x10   0x.... 0x....      BL       COE_RemoveDicEntry
    678              }
   \                     ??COE_ClearObjDictionary_0: (+1)
   \       0x14   0x2C00             CMP      R4,#+0
   \       0x16   0xD1F8             BNE.N    ??COE_ClearObjDictionary_1
    679              ObjDicList = NULL;
   \       0x18   0x2000             MOVS     R0,#+0
   \       0x1A   0x6028             STR      R0,[R5, #+0]
    680          }
   \       0x1C   0xBD31             POP      {R0,R4,R5,PC}    ;; return
    681          
    682          

   \                                 In section .text, align 2, keep-with-next
    683          UINT16 AddObjectsToObjDictionary(TOBJECT OBJMEM * pObjEntry)
    684          {
   \                     AddObjectsToObjDictionary: (+1)
   \        0x0   0xB510             PUSH     {R4,LR}
   \        0x2   0x0004             MOVS     R4,R0
    685              UINT16 result = 0;
   \        0x4   0x2000             MOVS     R0,#+0
    686              TOBJECT OBJMEM * pEntry = (TOBJECT OBJMEM *)pObjEntry;
   \        0x6   0xE000             B.N      ??AddObjectsToObjDictionary_0
    687          
    688              while(pEntry->Index != 0xFFFF)
    689              {
    690                  result = COE_AddObjectToDic(pEntry);
    691          
    692                  if(result != 0)
    693                      return result;
    694          
    695                  pEntry++;
   \                     ??AddObjectsToObjDictionary_1: (+1)
   \        0x8   0x3428             ADDS     R4,R4,#+40
   \                     ??AddObjectsToObjDictionary_0: (+1)
   \        0xA   0x8921             LDRH     R1,[R4, #+8]
   \        0xC   0xF64F 0x72FF      MOVW     R2,#+65535
   \       0x10   0x4291             CMP      R1,R2
   \       0x12   0xD008             BEQ.N    ??AddObjectsToObjDictionary_2
   \       0x14   0x0020             MOVS     R0,R4
   \       0x16   0x.... 0x....      BL       COE_AddObjectToDic
   \       0x1A   0x0001             MOVS     R1,R0
   \       0x1C   0xB289             UXTH     R1,R1            ;; ZeroExt  R1,R1,#+16,#+16
   \       0x1E   0x2900             CMP      R1,#+0
   \       0x20   0xD0F2             BEQ.N    ??AddObjectsToObjDictionary_1
   \       0x22   0xB280             UXTH     R0,R0            ;; ZeroExt  R0,R0,#+16,#+16
   \       0x24   0xE000             B.N      ??AddObjectsToObjDictionary_3
    696              }
    697          
    698              return result;
   \                     ??AddObjectsToObjDictionary_2: (+1)
   \       0x26   0xB280             UXTH     R0,R0            ;; ZeroExt  R0,R0,#+16,#+16
   \                     ??AddObjectsToObjDictionary_3: (+1)
   \       0x28   0xBD10             POP      {R4,PC}          ;; return
    699          
    700          }
    701          /////////////////////////////////////////////////////////////////////////////////////////
    702          /**
    703           \return    0               object dictionary created successful
    704                      ALSTATUSCODE_XX create object dictionary failed
    705          
    706           \brief    This function initialize the object dictionary
    707          *////////////////////////////////////////////////////////////////////////////////////////

   \                                 In section .text, align 2, keep-with-next
    708          UINT16 COE_ObjDictionaryInit(void)
    709          {
   \                     COE_ObjDictionaryInit: (+1)
   \        0x0   0xB580             PUSH     {R7,LR}
    710              UINT16 result = 0;
   \        0x2   0x2000             MOVS     R0,#+0
    711          
    712              /*Reset object dictionary pointer*/
    713              ObjDicList = NULL;
   \        0x4   0x2000             MOVS     R0,#+0
   \        0x6   0x....             LDR.N    R1,??DataTable6
   \        0x8   0x6008             STR      R0,[R1, #+0]
    714          
    715              result = AddObjectsToObjDictionary((TOBJECT OBJMEM *) GenObjDic);
   \        0xA   0x....             LDR.N    R0,??DataTable6_13
   \        0xC   0x.... 0x....      BL       AddObjectsToObjDictionary
    716          
    717              if(result != 0)
   \       0x10   0x0001             MOVS     R1,R0
   \       0x12   0xB289             UXTH     R1,R1            ;; ZeroExt  R1,R1,#+16,#+16
   \       0x14   0x2900             CMP      R1,#+0
   \       0x16   0xD001             BEQ.N    ??COE_ObjDictionaryInit_0
    718                  return result;
   \       0x18   0xB280             UXTH     R0,R0            ;; ZeroExt  R0,R0,#+16,#+16
   \       0x1A   0xE003             B.N      ??COE_ObjDictionaryInit_1
    719              if(ApplicationObjDic != NULL)
    720              {
    721                  result = AddObjectsToObjDictionary((TOBJECT OBJMEM *) ApplicationObjDic);
   \                     ??COE_ObjDictionaryInit_0: (+1)
   \       0x1C   0x....             LDR.N    R0,??DataTable6_14
   \       0x1E   0x.... 0x....      BL       AddObjectsToObjDictionary
    722              }
    723          
    724              return result;
   \       0x22   0xB280             UXTH     R0,R0            ;; ZeroExt  R0,R0,#+16,#+16
   \                     ??COE_ObjDictionaryInit_1: (+1)
   \       0x24   0xBD02             POP      {R1,PC}          ;; return
    725          }
    726          
    727          
    728          /////////////////////////////////////////////////////////////////////////////////////////
    729          /**
    730          
    731           \brief    is called for background calculations which should not influence the
    732                       ECAT_Application in synchronous modes
    733          *////////////////////////////////////////////////////////////////////////////////////////
    734          

   \                                 In section .text, align 2, keep-with-next
    735          void COE_Main(void)
    736          {
   \                     COE_Main: (+1)
   \        0x0   0xE92D 0x4FF8      PUSH     {R3-R11,LR}
    737               UINT8 abort = 0;
   \        0x4   0x2000             MOVS     R0,#+0
    738              if(pSdoPendFunc != NULL)
   \        0x6   0x....             LDR.N    R4,??DataTable6_10
   \        0x8   0x6820             LDR      R0,[R4, #+0]
   \        0xA   0x2800             CMP      R0,#+0
   \        0xC   0xD04C             BEQ.N    ??COE_Main_0
    739              {
    740                  abort = pSdoPendFunc(u16StoreIndex,u8StoreSubindex,u32StoreDataSize,pStoreData,bStoreCompleteAccess);
   \        0xE   0x....             LDR.N    R5,??DataTable6_7
   \       0x10   0x....             LDR.N    R6,??DataTable6_8
   \       0x12   0x....             LDR.N    R7,??DataTable6_9
   \       0x14   0x.... 0x....      LDR.W    R8,??DataTable6_11
   \       0x18   0xF898 0x0000      LDRB     R0,[R8, #+0]
   \       0x1C   0x9000             STR      R0,[SP, #+0]
   \       0x1E   0x683B             LDR      R3,[R7, #+0]
   \       0x20   0x6832             LDR      R2,[R6, #+0]
   \       0x22   0x7829             LDRB     R1,[R5, #+0]
   \       0x24   0x....             LDR.N    R0,??DataTable6_6
   \       0x26   0x8800             LDRH     R0,[R0, #+0]
   \       0x28   0xF8D4 0xC000      LDR      R12,[R4, #+0]
   \       0x2C   0x47E0             BLX      R12
   \       0x2E   0x4681             MOV      R9,R0
    741          
    742                  if(abort != ABORTIDX_WORKING)
   \       0x30   0x4648             MOV      R0,R9
   \       0x32   0xB2C0             UXTB     R0,R0            ;; ZeroExt  R0,R0,#+24,#+24
   \       0x34   0x28FF             CMP      R0,#+255
   \       0x36   0xD037             BEQ.N    ??COE_Main_0
    743                  {
    744                      switch(u8PendingSdo)
   \       0x38   0x.... 0x....      LDR.W    R10,??DataTable6_5
   \       0x3C   0xF89A 0x0000      LDRB     R0,[R10, #+0]
   \       0x40   0x2801             CMP      R0,#+1
   \       0x42   0xD013             BEQ.N    ??COE_Main_1
   \       0x44   0xD31F             BCC.N    ??COE_Main_2
   \       0x46   0x2803             CMP      R0,#+3
   \       0x48   0xD017             BEQ.N    ??COE_Main_3
   \       0x4A   0xD302             BCC.N    ??COE_Main_4
   \       0x4C   0x2804             CMP      R0,#+4
   \       0x4E   0xD014             BEQ.N    ??COE_Main_3
   \       0x50   0xE019             B.N      ??COE_Main_2
    745                      {
    746                          case SDO_PENDING_SEG_WRITE:
    747                              if(pSdoSegData)
   \                     ??COE_Main_4: (+1)
   \       0x52   0x.... 0x....      LDR.W    R11,??DataTable6_12
   \       0x56   0xF8DB 0x0000      LDR      R0,[R11, #+0]
   \       0x5A   0x2800             CMP      R0,#+0
   \       0x5C   0xD006             BEQ.N    ??COE_Main_1
    748                              {
    749                                  /* the allocated buffer can be released */
    750                                  FREEMEM( (UINT16 VARMEM *) pSdoSegData );
   \       0x5E   0xF8DB 0x0000      LDR      R0,[R11, #+0]
   \       0x62   0x.... 0x....      BL       free
    751                                  pSdoSegData = NULL;
   \       0x66   0x2000             MOVS     R0,#+0
   \       0x68   0xF8CB 0x0000      STR      R0,[R11, #+0]
    752                              }
    753                          case SDO_PENDING_WRITE:
    754                               /*send SDO Download Response*/
    755                              SDOS_SdoRes(abort, 0, NULL);
   \                     ??COE_Main_1: (+1)
   \       0x6C   0x2200             MOVS     R2,#+0
   \       0x6E   0x2100             MOVS     R1,#+0
   \       0x70   0x4648             MOV      R0,R9
   \       0x72   0xB2C0             UXTB     R0,R0            ;; ZeroExt  R0,R0,#+24,#+24
   \       0x74   0x.... 0x....      BL       SDOS_SdoRes
    756                          break;
   \       0x78   0xE005             B.N      ??COE_Main_2
    757          
    758                          case SDO_PENDING_SEG_READ:
    759                          case SDO_PENDING_READ:
    760                              /* send SDO upload response */
    761                                SDOS_SdoRes(abort, u32StoreDataSize, pStoreData);
   \                     ??COE_Main_3: (+1)
   \       0x7A   0x683A             LDR      R2,[R7, #+0]
   \       0x7C   0x6831             LDR      R1,[R6, #+0]
   \       0x7E   0x4648             MOV      R0,R9
   \       0x80   0xB2C0             UXTB     R0,R0            ;; ZeroExt  R0,R0,#+24,#+24
   \       0x82   0x.... 0x....      BL       SDOS_SdoRes
    762                              break;
    763          
    764                      }
    765          
    766                      u8PendingSdo = 0;
   \                     ??COE_Main_2: (+1)
   \       0x86   0x2000             MOVS     R0,#+0
   \       0x88   0xF88A 0x0000      STRB     R0,[R10, #+0]
    767                      u16StoreIndex = 0;
   \       0x8C   0x2000             MOVS     R0,#+0
   \       0x8E   0x....             LDR.N    R1,??DataTable6_6
   \       0x90   0x8008             STRH     R0,[R1, #+0]
    768                      u8StoreSubindex = 0;
   \       0x92   0x2000             MOVS     R0,#+0
   \       0x94   0x7028             STRB     R0,[R5, #+0]
    769                      u32StoreDataSize = 0;
   \       0x96   0x2000             MOVS     R0,#+0
   \       0x98   0x6030             STR      R0,[R6, #+0]
    770                      pStoreData = NULL;
   \       0x9A   0x2000             MOVS     R0,#+0
   \       0x9C   0x6038             STR      R0,[R7, #+0]
    771                      bStoreCompleteAccess = 0;
   \       0x9E   0x2000             MOVS     R0,#+0
   \       0xA0   0xF888 0x0000      STRB     R0,[R8, #+0]
    772                      pSdoPendFunc = NULL;
   \       0xA4   0x2000             MOVS     R0,#+0
   \       0xA6   0x6020             STR      R0,[R4, #+0]
    773                  }
    774              }
    775          }
   \                     ??COE_Main_0: (+1)
   \       0xA8   0xE8BD 0x8FF1      POP      {R0,R4-R11,PC}   ;; return

   \                                 In section .text, align 4, keep-with-next
   \                     ??DataTable6:
   \        0x0   0x....'....        DC32     ObjDicList

   \                                 In section .text, align 4, keep-with-next
   \                     ??DataTable6_1:
   \        0x0   0x....'....        DC32     sSyncManOutPar

   \                                 In section .text, align 4, keep-with-next
   \                     ??DataTable6_2:
   \        0x0   0x0007'A120        DC32     0x7a120

   \                                 In section .text, align 4, keep-with-next
   \                     ??DataTable6_3:
   \        0x0   0x....'....        DC32     sSyncManInPar

   \                                 In section .text, align 4, keep-with-next
   \                     ??DataTable6_4:
   \        0x0   0x....'....        DC32     bSyncSetByUser

   \                                 In section .text, align 4, keep-with-next
   \                     ??DataTable6_5:
   \        0x0   0x....'....        DC32     u8PendingSdo

   \                                 In section .text, align 4, keep-with-next
   \                     ??DataTable6_6:
   \        0x0   0x....'....        DC32     u16StoreIndex

   \                                 In section .text, align 4, keep-with-next
   \                     ??DataTable6_7:
   \        0x0   0x....'....        DC32     u8StoreSubindex

   \                                 In section .text, align 4, keep-with-next
   \                     ??DataTable6_8:
   \        0x0   0x....'....        DC32     u32StoreDataSize

   \                                 In section .text, align 4, keep-with-next
   \                     ??DataTable6_9:
   \        0x0   0x....'....        DC32     pStoreData

   \                                 In section .text, align 4, keep-with-next
   \                     ??DataTable6_10:
   \        0x0   0x....'....        DC32     pSdoPendFunc

   \                                 In section .text, align 4, keep-with-next
   \                     ??DataTable6_11:
   \        0x0   0x....'....        DC32     bStoreCompleteAccess

   \                                 In section .text, align 4, keep-with-next
   \                     ??DataTable6_12:
   \        0x0   0x....'....        DC32     pSdoSegData

   \                                 In section .text, align 4, keep-with-next
   \                     ??DataTable6_13:
   \        0x0   0x....'....        DC32     GenObjDic

   \                                 In section .text, align 4, keep-with-next
   \                     ??DataTable6_14:
   \        0x0   0x....'....        DC32     ApplicationObjDic
    776          
    777          /** @} */

   Maximum stack usage in bytes:

   .cstack Function
   ------- --------
       8   AddObjectsToObjDictionary
         8   -> COE_AddObjectToDic
       0   COE_AddObjectToDic
      16   COE_ClearObjDictionary
        16   -> COE_RemoveDicEntry
       0   COE_GetObjectDictionary
      40   COE_Main
        40   -- Indirect call
        40   -> SDOS_SdoRes
        40   -> free
       8   COE_ObjDictionaryInit
         8   -> AddObjectsToObjDictionary
       8   COE_ObjInit
         8   -> COE_ClearObjDictionary
         8   -> COE_ObjDictionaryInit
       4   COE_RemoveDicEntry


   Section sizes:

   Bytes  Function/Label
   -----  --------------
       4  ??DataTable6
       4  ??DataTable6_1
       4  ??DataTable6_10
       4  ??DataTable6_11
       4  ??DataTable6_12
       4  ??DataTable6_13
       4  ??DataTable6_14
       4  ??DataTable6_2
       4  ??DataTable6_3
       4  ??DataTable6_4
       4  ??DataTable6_5
       4  ??DataTable6_6
       4  ??DataTable6_7
       4  ??DataTable6_8
       4  ??DataTable6_9
      42  AddObjectsToObjDictionary
     280  ApplicationObjDic
     132  COE_AddObjectToDic
      30  COE_ClearObjDictionary
       6  COE_GetObjectDictionary
     172  COE_Main
      38  COE_ObjDictionaryInit
     160  COE_ObjInit
      66  COE_RemoveDicEntry
     440  GenObjDic
       4  ObjDicList
      12  aName0x1000
      16  aName0x1001
      12  aName0x1008
      20  aName0x1009
      20  aName0x100A
      60  aName0x1018
      64  aName0x10F1
     760  aName0x1600
     760  aName0x1A00
      20  aName0x1C00
      28  aName0x1C12
      28  aName0x1C13
     256  aName0x1C32
     256  aName0x1C33
     692  aName0x6000
     748  aName0x7000
      16  acDevicename
       8  acHardwareversion
       8  acSoftwareversion
      32  asEntryDesc0x1018
      20  asEntryDesc0x10F1
     344  asEntryDesc0x1600
     344  asEntryDesc0x1A00
      12  asEntryDesc0x1C00
      12  asEntryDesc0x1C12
      12  asEntryDesc0x1C13
     200  asEntryDesc0x1C3x
     344  asEntryDesc0x6000
     344  asEntryDesc0x7000
       8  sEntryDesc0x1000
       8  sEntryDesc0x1001
       8  sEntryDesc0x1008
       8  sEntryDesc0x1009
       8  sEntryDesc0x100A
      20  sIdentity
       8  sSyncmanagertype
       2  u16ErrorRegister
       4  u32Devicetype

 
     6 bytes in section .bss
   784 bytes in section .data
 5 456 bytes in section .rodata
   706 bytes in section .text
 
   706 bytes of CODE  memory
 5 456 bytes of CONST memory
   790 bytes of DATA  memory

Errors: none
Warnings: 1
