###############################################################################
#
# IAR ANSI C/C++ Compiler V8.30.1.114/W32 for ARM         22/Jul/2020  13:36:44
# Copyright 1999-2018 IAR Systems AB.
#
#    Cpu mode     =  thumb
#    Endian       =  little
#    Source file  =  
#        E:\DESKTOP\@@@\@@@@\Intergrated\EtherCatLib\ecatcoe.c
#    Command line =  
#        -f C:\Users\wfc0628\AppData\Local\Temp\EW9903.tmp
#        (E:\DESKTOP\@@@\@@@@\Intergrated\EtherCatLib\ecatcoe.c
#        -D USE_STDPERIPH_DRIVER -D STM32F40_41xxx -D _DLIB_FILE_DESCRIPTOR -lC
#        E:\DESKTOP\@@@\@@@@\Intergrated\Project\IAR\Debug\List
#        -lA
#        E:\DESKTOP\@@@\@@@@\Intergrated\Project\IAR\Debug\List
#        -o E:\DESKTOP\@@@\@@@@\Intergrated\Project\IAR\Debug\Obj
#        --no_cse --no_unroll --no_inline --no_code_motion --no_tbaa
#        --no_clustering --no_scheduling --debug --endian=little
#        --cpu=Cortex-M4 -e --fpu=VFPv4_sp --dlib_config "C:\Program Files
#        (x86)\IAR Systems\Embedded Workbench 8.1\arm\inc\c\DLib_Config_Full.h"
#        -I
#        E:\DESKTOP\@@@\@@@@\Intergrated\Project\IAR\..\..\STM32F4xx_DSP_StdPeriph_Lib_V1.8.0\Libraries\STM32F4xx_StdPeriph_Driver\inc\
#        -I
#        E:\DESKTOP\@@@\@@@@\Intergrated\Project\IAR\..\..\STM32F4xx_DSP_StdPeriph_Lib_V1.8.0\Libraries\CMSIS\Include\
#        -I
#        E:\DESKTOP\@@@\@@@@\Intergrated\Project\IAR\..\..\STM32F4xx_DSP_StdPeriph_Lib_V1.8.0\Libraries\CMSIS\Device\ST\STM32F4xx\Include\
#        -I
#        E:\DESKTOP\@@@\@@@@\Intergrated\Project\IAR\..\..\SourceCodes\
#        -I
#        E:\DESKTOP\@@@\@@@@\Intergrated\Project\IAR\..\..\EtherCatLib\
#        -I E:\DESKTOP\@@@\@@@@\Intergrated\Project\IAR\ -Ol
#        --use_c++_inline)
#    Locale       =  C
#    List file    =  
#        E:\DESKTOP\@@@\@@@@\Intergrated\Project\IAR\Debug\List\ecatcoe.lst
#    Object file  =  
#        E:\DESKTOP\@@@\@@@@\Intergrated\Project\IAR\Debug\Obj\ecatcoe.o
#
###############################################################################

E:\DESKTOP\@@@\@@@@\Intergrated\EtherCatLib\ecatcoe.c
      1          /**
Warning[Ms014]: some characters could not be correctly encoded in
          "E:\DESKTOP\@@@\@@@@\Intergrated\Project\IAR\Debug\List\ecatcoe.s",
          and have been replaced with '@'. The first such character has unicode
          code point 0x79d1 ("@")
      2          \addtogroup CoE CAN Application Profile over EtherCAT
      3          @{
      4          */
      5          
      6          /**
      7          \file ecatcoe.c
      8          \author EthercatSSC@beckhoff.com
      9          \brief Implementation
     10          This file contains the CoE mailbox interface
     11          
     12          \version 5.11
     13          
     14          <br>Changes to version V5.0:<br>
     15          V5.11 COE4: "change prototype of ""COE_ContinueInd()"" return <> 0 if a failure occurred"<br>
     16          V5.11 ECAT10: change PROTO handling to prevent compiler errors<br>
     17          V5.11 TEST6: add test object to trigger Slave-to-Slave communication<br>
     18          V5.11 TEST7: add test behaviour to send an emergency on every SDO request (in SafeOP)<br>
     19          <br>Changes to version V4.40:<br>
     20          V5.0 SDO7: "SDOS_SdoInfoInd()" never return pending SDO Info service. Delete "NOERROR_INWORK" handling.<br>
     21          <br>Changes to version V4.08:<br>
     22          V4.40 SDO1: add initial value for "nSdoInfoFragmentsLeft"<br>
     23          V4.40 MBX6: change return value if no mailbox buffer is available<br>
     24          V4.08 MBX 1: If the switch MAILBOX_QUEUE was set, we have to put all SDO Info Responses in the Send Queue
     25          */
     26          
     27          /*---------------------------------------------------------------------------------------
     28          ------
     29          ------    Includes
     30          ------
     31          ---------------------------------------------------------------------------------------*/
     32          
     33          #include "ecat_def.h"
     34          
     35          
     36          #include "sdoserv.h"
     37          #define  _ECATCOE_    1
     38          #include "ecatcoe.h"

   \                                 In section .bss, align 4
   \   __absolute TMBX *pCoeSendStored
   \                     pCoeSendStored:
   \        0x0                      DS8 4
     39          #undef   _ECATCOE_
     40          /* ECATCHANGE_START(V5.11) ECAT10*/
     41          /*remove definition of _ECATCOE_ (#ifdef is used in ecatcoe.h)*/
     42          /* ECATCHANGE_END(V5.11) ECAT10*/
     43          
     44          
     45          
     46          /*---------------------------------------------------------------------------------------
     47          ------
     48          ------    internal Types and Defines
     49          ------
     50          ---------------------------------------------------------------------------------------*/
     51          
     52          #define    ECATCOE        0x4300
     53          #define    ECATCOEMAX     0x02
     54          
     55          /*---------------------------------------------------------------------------------------
     56          ------
     57          ------    static variables
     58          ------
     59          ---------------------------------------------------------------------------------------*/
     60          
     61          /*---------------------------------------------------------------------------------------
     62          ------
     63          ------    static functions
     64          ------
     65          ---------------------------------------------------------------------------------------*/
     66          
     67          /*---------------------------------------------------------------------------------------
     68          ------
     69          ------    functions
     70          ------
     71          ---------------------------------------------------------------------------------------*/
     72          
     73          /////////////////////////////////////////////////////////////////////////////////////////
     74          /**
     75          
     76           \brief    This function intialize the CoE Interface.
     77          *////////////////////////////////////////////////////////////////////////////////////////
     78          

   \                                 In section .text, align 2, keep-with-next
     79          void COE_Init(void)
     80          {
     81              pCoeSendStored        = 0;
   \                     COE_Init: (+1)
   \        0x0   0x2000             MOVS     R0,#+0
   \        0x2   0x....             LDR.N    R1,??DataTable1
   \        0x4   0x6008             STR      R0,[R1, #+0]
     82              nSdoInfoFragmentsLeft = 0;
   \        0x6   0x2000             MOVS     R0,#+0
   \        0x8   0x....             LDR.N    R1,??DataTable1_1
   \        0xA   0x8008             STRH     R0,[R1, #+0]
     83          }
   \        0xC   0x4770             BX       LR               ;; return
     84          
     85          /////////////////////////////////////////////////////////////////////////////////////////
     86          /**
     87           \param     pCoeMbx      Pointer to the received mailbox data from the master.
     88          
     89           \return    result of the operation (0 (success) or mailbox error code (MBXERR_.... defined in
     90                      mailbox.h))
     91          
     92           \brief    This function is called when a CoE (CAN application layer over EtherCAT) service is received from
     93                       the master.
     94          *////////////////////////////////////////////////////////////////////////////////////////
     95          

   \                                 In section .text, align 2, keep-with-next
     96          UINT8 COE_ServiceInd(TCOEMBX MBXMEM *pCoeMbx)
     97          {
   \                     COE_ServiceInd: (+1)
   \        0x0   0xB580             PUSH     {R7,LR}
     98              UINT8 result = 0;
   \        0x2   0x2100             MOVS     R1,#+0
     99          
    100              switch ((pCoeMbx->CoeHeader & COEHEADER_COESERVICEMASK) >> COEHEADER_COESERVICESHIFT)
   \        0x4   0x88C1             LDRH     R1,[R0, #+6]
   \        0x6   0xB289             UXTH     R1,R1            ;; ZeroExt  R1,R1,#+16,#+16
   \        0x8   0x0B09             LSRS     R1,R1,#+12
   \        0xA   0xB2C9             UXTB     R1,R1            ;; ZeroExt  R1,R1,#+24,#+24
   \        0xC   0x1E49             SUBS     R1,R1,#+1
   \        0xE   0xD00D             BEQ.N    ??COE_ServiceInd_0
   \       0x10   0x1E49             SUBS     R1,R1,#+1
   \       0x12   0xD005             BEQ.N    ??COE_ServiceInd_1
   \       0x14   0x1E49             SUBS     R1,R1,#+1
   \       0x16   0x2904             CMP      R1,#+4
   \       0x18   0xD908             BLS.N    ??COE_ServiceInd_0
   \       0x1A   0x1F49             SUBS     R1,R1,#+5
   \       0x1C   0xD003             BEQ.N    ??COE_ServiceInd_2
   \       0x1E   0xE007             B.N      ??COE_ServiceInd_3
    101              {
    102              case COESERVICE_SDOREQUEST:
    103                  /* SDO-Request received, call SDOS_SdoInd to process the SDO-Request
    104                     if an existing SDO-Stack shall be used, the corresponding function
    105                      should be called */
    106                  result = SDOS_SdoInd( (TINITSDOMBX MBXMEM *) pCoeMbx );
   \                     ??COE_ServiceInd_1: (+1)
   \       0x20   0x.... 0x....      BL       SDOS_SdoInd
    107                  break;
   \       0x24   0xE005             B.N      ??COE_ServiceInd_4
    108          
    109              case COESERVICE_SDOINFO:
    110                  /* SDO-Information Request received, call SDOS_SdoInfoInd to process the SDO-Request */
    111                  result = SDOS_SdoInfoInd( (TSDOINFORMATION MBXMEM *) pCoeMbx );
   \                     ??COE_ServiceInd_2: (+1)
   \       0x26   0x.... 0x....      BL       SDOS_SdoInfoInd
    112                  /*NOERROR_INWORK is never returned by SDOS_SdoInfoInd() => delete return code handling*/
    113                  break;
   \       0x2A   0xE002             B.N      ??COE_ServiceInd_4
    114          
    115          
    116              case COESERVICE_SDORESPONSE:
    117              case COESERVICE_EMERGENCY:
    118              case COESERVICE_TXPDO:
    119              case COESERVICE_RXPDO:
    120              case COESERVICE_TXPDOREMREQ:
    121              case COESERVICE_RXPDOREMREQ:
    122                  /* these CoE services are not supported yet */
    123                  result = MBXERR_SERVICENOTSUPPORTED;
   \                     ??COE_ServiceInd_0: (+1)
   \       0x2C   0x2004             MOVS     R0,#+4
    124                  break;
   \       0x2E   0xE000             B.N      ??COE_ServiceInd_4
    125          
    126              default:
    127                  result = MBXERR_INVALIDHEADER;
   \                     ??COE_ServiceInd_3: (+1)
   \       0x30   0x2005             MOVS     R0,#+5
    128                  break;
    129              }
    130              return result;
   \                     ??COE_ServiceInd_4: (+1)
   \       0x32   0xB2C0             UXTB     R0,R0            ;; ZeroExt  R0,R0,#+24,#+24
   \       0x34   0xBD02             POP      {R1,PC}          ;; return
    131          }
    132          
    133          /////////////////////////////////////////////////////////////////////////////////////////
    134          /**
    135           \param     pMbx      Pointer to the free mailbox to sent.
    136          
    137           \return    result of the operation (0 (success)
    138          
    139           \brief    This function is called when a CoE service to be sent is stored and can
    140           \brief  be put in the send mailbox.
    141          *////////////////////////////////////////////////////////////////////////////////////////
    142          
    143          /*ECATCHANGE_START(V5.11) COE4*/

   \                                 In section .text, align 2, keep-with-next
    144          UINT8 COE_ContinueInd(TMBX MBXMEM * pMbx)
    145          /*ECATCHANGE_END(V5.11) COE4*/
    146          {
   \                     COE_ContinueInd: (+1)
   \        0x0   0xB538             PUSH     {R3-R5,LR}
    147              if (pCoeSendStored)
   \        0x2   0x....             LDR.N    R4,??DataTable1
   \        0x4   0x6820             LDR      R0,[R4, #+0]
   \        0x6   0x2800             CMP      R0,#+0
   \        0x8   0xD006             BEQ.N    ??COE_ContinueInd_0
    148              {
    149                  /* send the stored CoE service which could not be sent before */
    150                  MBX_MailboxSendReq(pCoeSendStored, 0);
   \        0xA   0x2100             MOVS     R1,#+0
   \        0xC   0x6820             LDR      R0,[R4, #+0]
   \        0xE   0x.... 0x....      BL       MBX_MailboxSendReq
    151                  pCoeSendStored = 0;
   \       0x12   0x2000             MOVS     R0,#+0
   \       0x14   0x6020             STR      R0,[R4, #+0]
   \       0x16   0xE011             B.N      ??COE_ContinueInd_1
    152              }
    153              else
    154              {
    155                  /* send the next fragment of the last CoE service (only for SDO-Information possible) */
    156                  /* in mailbox queue mode pMbx is always 0, so a mailbox buffer shall be get */
    157                  pMbx = (TMBX MBXMEM *) APPL_AllocMailboxBuffer(SIZEOF(TMBX));
   \                     ??COE_ContinueInd_0: (+1)
   \       0x18   0xF44F 0x7080      MOV      R0,#+256
   \       0x1C   0x.... 0x....      BL       malloc
   \       0x20   0x0004             MOVS     R4,R0
    158                  /* it shall be checked if a valid pointer was returned */
    159          /*ECATCHANGE_START(V5.11) COE4*/
    160                  if (pMbx == NULL)
   \       0x22   0x2C00             CMP      R4,#+0
   \       0x24   0xD101             BNE.N    ??COE_ContinueInd_2
    161                  {
    162                      return MBXERR_NOMOREMEMORY;
   \       0x26   0x2007             MOVS     R0,#+7
   \       0x28   0xE009             B.N      ??COE_ContinueInd_3
    163                  }
    164                  else
    165          /*ECATCHANGE_END(V5.11) COE4*/
    166                  {
    167                      /* copy the stored SDO-Info-Header in the request */
    168                      MBXMEMCPY(pMbx, aSdoInfoHeader, SDO_INFO_HEADER_BYTE_SIZE);
   \                     ??COE_ContinueInd_2: (+1)
   \       0x2A   0x220E             MOVS     R2,#+14
   \       0x2C   0x....             LDR.N    R1,??DataTable1_2
   \       0x2E   0x0025             MOVS     R5,R4
   \       0x30   0x0028             MOVS     R0,R5
   \       0x32   0x.... 0x....      BL       __aeabi_memcpy
    169                      /* call SDOS_SdoInfoInd to generate and send the next fragment */
    170                      SDOS_SdoInfoInd( (TSDOINFORMATION MBXMEM *) pMbx );
   \       0x36   0x0020             MOVS     R0,R4
   \       0x38   0x.... 0x....      BL       SDOS_SdoInfoInd
    171                  }
    172              }
    173          
    174              return 0;
   \                     ??COE_ContinueInd_1: (+1)
   \       0x3C   0x2000             MOVS     R0,#+0
   \                     ??COE_ContinueInd_3: (+1)
   \       0x3E   0xBD32             POP      {R1,R4,R5,PC}    ;; return
    175          }

   \                                 In section .text, align 4, keep-with-next
   \                     ??DataTable1:
   \        0x0   0x....'....        DC32     pCoeSendStored

   \                                 In section .text, align 4, keep-with-next
   \                     ??DataTable1_1:
   \        0x0   0x....'....        DC32     nSdoInfoFragmentsLeft

   \                                 In section .text, align 4, keep-with-next
   \                     ??DataTable1_2:
   \        0x0   0x....'....        DC32     aSdoInfoHeader
    176          
    177          /** @} */
    178          
    179          
    180          

   Maximum stack usage in bytes:

   .cstack Function
   ------- --------
      16   COE_ContinueInd
        16   -> MBX_MailboxSendReq
        16   -> SDOS_SdoInfoInd
        16   -> __aeabi_memcpy
        16   -> malloc
       0   COE_Init
       8   COE_ServiceInd
         8   -> SDOS_SdoInd
         8   -> SDOS_SdoInfoInd


   Section sizes:

   Bytes  Function/Label
   -----  --------------
       4  ??DataTable1
       4  ??DataTable1_1
       4  ??DataTable1_2
      64  COE_ContinueInd
      14  COE_Init
      54  COE_ServiceInd
       4  pCoeSendStored

 
   4 bytes in section .bss
 144 bytes in section .text
 
 144 bytes of CODE memory
   4 bytes of DATA memory

Errors: none
Warnings: 1
