###############################################################################
#
# IAR ANSI C/C++ Compiler V8.30.1.114/W32 for ARM         22/Jul/2020  13:36:45
# Copyright 1999-2018 IAR Systems AB.
#
#    Cpu mode     =  thumb
#    Endian       =  little
#    Source file  =  
#        E:\DESKTOP\@@@\@@@@\Intergrated\EtherCatLib\ecatslv.c
#    Command line =  
#        -f C:\Users\wfc0628\AppData\Local\Temp\EW9914.tmp
#        (E:\DESKTOP\@@@\@@@@\Intergrated\EtherCatLib\ecatslv.c
#        -D USE_STDPERIPH_DRIVER -D STM32F40_41xxx -D _DLIB_FILE_DESCRIPTOR -lC
#        E:\DESKTOP\@@@\@@@@\Intergrated\Project\IAR\Debug\List
#        -lA
#        E:\DESKTOP\@@@\@@@@\Intergrated\Project\IAR\Debug\List
#        -o E:\DESKTOP\@@@\@@@@\Intergrated\Project\IAR\Debug\Obj
#        --no_cse --no_unroll --no_inline --no_code_motion --no_tbaa
#        --no_clustering --no_scheduling --debug --endian=little
#        --cpu=Cortex-M4 -e --fpu=VFPv4_sp --dlib_config "C:\Program Files
#        (x86)\IAR Systems\Embedded Workbench 8.1\arm\inc\c\DLib_Config_Full.h"
#        -I
#        E:\DESKTOP\@@@\@@@@\Intergrated\Project\IAR\..\..\STM32F4xx_DSP_StdPeriph_Lib_V1.8.0\Libraries\STM32F4xx_StdPeriph_Driver\inc\
#        -I
#        E:\DESKTOP\@@@\@@@@\Intergrated\Project\IAR\..\..\STM32F4xx_DSP_StdPeriph_Lib_V1.8.0\Libraries\CMSIS\Include\
#        -I
#        E:\DESKTOP\@@@\@@@@\Intergrated\Project\IAR\..\..\STM32F4xx_DSP_StdPeriph_Lib_V1.8.0\Libraries\CMSIS\Device\ST\STM32F4xx\Include\
#        -I
#        E:\DESKTOP\@@@\@@@@\Intergrated\Project\IAR\..\..\SourceCodes\
#        -I
#        E:\DESKTOP\@@@\@@@@\Intergrated\Project\IAR\..\..\EtherCatLib\
#        -I E:\DESKTOP\@@@\@@@@\Intergrated\Project\IAR\ -Ol
#        --use_c++_inline)
#    Locale       =  C
#    List file    =  
#        E:\DESKTOP\@@@\@@@@\Intergrated\Project\IAR\Debug\List\ecatslv.lst
#    Object file  =  
#        E:\DESKTOP\@@@\@@@@\Intergrated\Project\IAR\Debug\Obj\ecatslv.o
#
###############################################################################

E:\DESKTOP\@@@\@@@@\Intergrated\EtherCatLib\ecatslv.c
      1          /**
      2          \addtogroup ESM EtherCAT State Machine
      3          @{
      4          */
      5          
      6          /**
      7          \file ecatslv.c
      8          \author EthercatSSC@beckhoff.com
      9          \brief Implementation
     10          This file contains the EtherCAT State Machine.
     11          
     12          \version 5.11
     13          
     14          <br>Changes to version V5.10:<br>
     15          V5.11 COE3: change 0x10F3.2 (Sync Error limit) from UINT32 to UINT16 (according to the ETG.1020)<br>
     16          V5.11 DIAG4: change parameter handling in DIAG_CreateNewMessage()<br>
     17          V5.11 ECAT10: change PROTO handling to prevent compiler errors<br>
     18          V5.11 ECAT4: enhance SM/Sync monitoring for input/output only slaves<br>
     19          V5.11 ECAT5: "Add missing ""bEscAlEventEnbaled"" initialization if ""AL_EVENT_ENBALED"" is 0"""<br>
     20          V5.11 ECAT7: add missing big endian swapping<br>
     21          V5.11 ESC1: update max address calculation<br>
     22          V5.11 ESM1: update calculation of subordinated cycles<br>
     23          V5.11 ESM2: DC_SUPPORTED, Sync0 is not supported and Sync0 is generated according register values the state transition to SafeOP shall be rejected<br>
     24          V5.11 ESM3: update checking of the user configured sync type<br>
     25          V5.11 ESM4: prevent to go from ErrSafeOP to OP without re enabling Sync0/1<br>
     26          V5.11 ESM5: DPRAM range was double checked<br>
     27          V5.11 ESM6: in the SO transition wait by default until the master has send process data<br>
     28          V5.11 HW1: "move hardware independent functions ""HW_DisableSyncManChannel()"", ""HW_EnableSyncManChannel()"", ""HW_GetSyncMan()"", ""HW_ResetALEventMask()"", ""HW_SetALEventMask()"" to ecatalv.c"<br>
     29          V5.11 HW2: check during ESM handling if the SM address and length is aligned according the ESC access<br>
     30          V5.11 TEST9: "add behaviour 0x2020.7 (SDO requests on 0x3006.0 are set to pending until an FoE read request on ""UnlockSdoResp"" is received or in case that no mbx queue is supported when a new mbx request was received)"<br>
     31          <br>Changes to version V5.01:<br>
     32          V5.10 COE1: Define one entry description for all 0x1C3x objects and change data type of SI11,12,13 to UINT16 (according ETG.1020)<br>
     33          V5.10 DIAG1: Define diagmessage textIDs<br>
     34          V5.10 ECAT13: Update Synchronisation handling (FreeRun,SM Sync, Sync0, Sync1)<br>
     35                        Compare DC UINT configuration (by ESC Config data) vs. DC activation register settings<br>
     36                        Update 0x1C3x entries<br>
     37          V5.10 ESC2: Check if defined SM settings do not exceed the available DPRAM range (in error case AL Status 0x14 is returned)<br>
     38          V5.10 ESC3: Handle DC cControl register values in case of 32Bit ESC access (a Sync activation mask need to defined/used)<br>
     39          V5.10 ESC4: Mask lower 4 Bit of AL status to get Run led value<br>
     40                      Invalid RunLed code was calculated if ESC set ECAT Run Led<br>
     41          V5.10 ESC5: Add missing swapping<br>
     42          V5.10 ESM2: Update "bApplEsmPending" flag during a transition to a lower state<br>
     43          V5.10 ESM3: Add "volatile" directive for ESM dummy variables<br>
     44          V5.10 HW5: Block ESC interrupts during Timer ISR<br>
     45          V5.10 TEST9: Add option to prevent SM3 unlock during PS<br>
     46          <br>Changes to version V5.0:<br>
     47          V5.01 APPL3: Include library demo application<br>
     48          V5.01 ESC2: Add missed value swapping<br>
     49          V5.01 ESM1: Don't overwrite the error reason in case of an failed PS transition<br>
     50          V5.01 ESM2: Don't check the "appl trigger" flag in case on an regular transition to a lower state (OS, SP, PI).<br>
     51          V5.01 ESM3: Call Error acknowledge indication only if error was acknowledged by the master<br>
     52          V5.01 HW3: Update blink code of an SM watchdog error<br>
     53          <br>Changes to version V4.42:<br>
     54          V5.0 ECAT1: Support Explicit Device ID.<br>
     55          V5.0 ECAT2: Application specific functions are moved to application files.<br>
     56          V5.0 ECAT3: Global dummy variables used for dummy ESC operations.<br>
     57          V5.0 ESC1: ESC 32Bit Access added.<br>
     58          V5.0 ESC2: Support ESC EtherCAT LED Indication.<br>
     59          V5.0 ESC3: Support EEPROM Emulation.<br>
     60          V5.0 ESM1: Update "LocalErrorFlag" handling.<br>
     61          V5.0 ESM2: Update Error Acknowledge by ALControl INIT (without error acknowledge)<br>
     62          V5.0 ESM3: Handle pending ESM transition<br>
     63          V5.0 ESM4: ECAT_StateChange() will only be called form application. In case of an communication error AL_ControlInd is called.<br>
     64          V5.0 MBX1: Support configuration without mailbox protocol support.<br>
     65          V5.0 TEST1: Add test application. See Application Note ET9300 for more details.<br>
     66          <br>Changes to version V4.40:<br>
     67          V4.42 ESM1: Reset local error flag if master set the acknowledge bit (0x120.4)<br>
     68          <br>Changes to version V4.30:<br>
     69          V4.40 ESM5: Enable output SyncManager if local error acknowledged<br>
     70          V4.40 HW0: Use common hardware access functions<br>
     71          V4.40 PDO3: Add support if only input process data is used<br>
     72          V4.40 ECAT4: Add read SM activation register to acknowledge SM Change event<br>
     73          V4.40 PDO2: Check if max process data size was exceed<br>
     74          V4.40 DIAG1: add diagnosis message support<br>
     75          V4.40 ESM4: Change Check WD setup; add define OP_PD_REQUIRED (defines if process data required in state change to OP)<br>
     76          V4.40 WD1: change WD behaviour depending if process data required in OP state<br>
     77          V4.40 MBX4: Change processing order of mailbox SyncManager flags<br>
     78          V4.40 ECAT1: Merge content of HW_Main (spihw.c /mcihw.c) to ECAT_Main<br>
     79          V4.40 ECAT2: Added CheckIfLocalError() to check local flags and set ALStatus /Al Status code if required. This function is called cyclic from MainLoop.<br>
     80          V4.40 ESM2: Add AL_ControlRes() to complete pending state requests. Change SafeOP to OP state response<br>
     81          V4.40 ESM1: Prevent double call of StopOutputHandler()<br>
     82          V4.40 BOOT1: Enable Mailbox SyncManger on state change to BOOT state (to enable FoE)<br>
     83          V4.40 ESM3: Change State machine behaviour according to ETG.1000 V1.0.2 (state change #26)<br>
     84          V4.40 LED1: Set error blink code<br>
     85          V4.40 TIMER1: Added DC_CheckWatchdog() triggered from ECAT_CheckTimer(). Change local Sync0 watchdog variables. Change bus cycle calculation<br>
     86          V4.40 WD1: Change check process data watchdog settings<br>
     87          <br>Changes to version V4.20:<br>
     88          V4.30 OBJ 3: initialize the object dictionary in state change INIT->PREOP; clear object dictionary in state change PREOP->INIT<br>
     89          V4.30 SYNC: add 0x1C32:10; 0x1C33:10 (Sync0 cycle), change synchronisation control functionality<br>
     90          V4.30 CiA402: add CiA402_Init() call in state change from PREOP to SAFEOP if DC synchronisation is enabled,<br>
     91                             else the Init function is called when bus cycle time is calculated [CalcSMCycleTime() ].<br>
     92                             trigger error handling if the EtherCAT state machine gets a transition from OP to an "lower" state<br>
     93          V4.20 ECAT 1: add LEGACY_MODE behaviour in ECAT_CheckWatchdog()<br>
     94          V4.20 DC 1: Add DC pending state machine handling and Dc watchdog functionality<br>
     95          V4.20 ESM 2: Add State transition from BOOT to INIT<br>
     96          V4.20 ESM 1: Non LEGACY_MODE State change handling<br>
     97          V4.11 Renamed the function parameter "code" of Function "SendSmFailedEmergency() to avoid<br>
     98          problems with some compilers"<br>
     99          V4.11 ECAT 1: Fixed a possible problem with state change Init -> SafeOP. The output syncmanager<br>
    100          was enabled by the state change-flag and not by the actual state<br>
    101          V4.11 LED 1: Clear the error LED during error acknowledgement<br>
    102          V4.11 ESC 1: fixed size of MBXHEADER in the TFOEMBX struct <br>
    103          <br>Changes to version V4.08:<br>
    104          V4.10 ECAT 1: clear bEcatOutputsReceived in startMailboxhandler()<br>
    105          V4.10 ECAT 2: clear bEcatOutputsReceived in stopMailboxhandler()<br>
    106          V4.10 ECAT 3: when switching from INIT to BOOT the SM settings shall be checked<br>
    107          V4.10 ECAT 4: APPL_StartInputHandler shall always be called and bEcatInputUpdateRunning shall always be set<br>
    108                        in StartInputHandler independent of the input size<br>
    109          V4.10 ECAT 5: AL_ControlInd: the error acknowledge behaviour was changed<br>
    110                        according to the protocol enhancements and the conformance test<br>
    111          V4.10 ECAT 6: AL_ControlInd: if a state transitions failed the corresponding stop function is<br>
    112                        called to get a consistent set of variables<br>
    113          V4.10 ECAT 7: the local application requested to leave the state OP so we have to disable the SM2<br>
    114                             and make the state change from OP to SAFEOP by calling StopOutputHandler<br>
    115          V4.10 ECAT 8: the AL Status Code has to be reset if the error was acknowledged by the master<br>
    116          V4.10 ECAT 9: ECAT_StateChange: when waiting for a State Change response from the application the<br>
    117                        AL Status shall only be written if the final state was reached<br>
    118          <br>Changes to version V4.07:<br>
    119          V4.08 ECAT 1: The watchdog value was not rounded up<br>
    120          V4.08 ECAT 2: The value of u16WdValue was not set 0 if the register 0x420 is 0<br>
    121          V4.08 ECAT 3: The AlStatusCode is changed as parameter of the function AL_ControlInd<br>
    122          V4.08 ECAT 4: In a state transition OP2PREOP, SAFEOP2INIT or OP2INIT is requested,<br>
    123                        this was not working correctly if one of the application functions<br>
    124                        APPL_StopInputHandler or APPL_StopOutputHandler were returning NOERROR_INWORK<br>
    125                        (because only the first state transition was made in that case)<br>
    126          V4.08 AOE 1:    AoE was added<br>
    127          <br>Changes to version V4.06:<br>
    128          V4.07 ECAT 1: The sources for SPI and MCI were merged (in ecat_def.h<br>
    129                             set the switch MCI_HW to 1 when using the MCI,<br>
    130                             set the switch SPI_HW to 1 when using the SPI<br>
    131          <br>Changes to version V4.00:<br>
    132          V4.01 ECAT 1: The Output sync Manager was not disabled when the state OP was left<br>
    133                        by a local request (watchdog or io error)<br>
    134          V4.01 ECAT 2: APPL_StopOutputHandler returns an UINT16<br>
    135          V4.01 ECAT 3: TwinCAT compatibility mode: The state transition to OP is allowed when the<br>
    136                              WD-Trigger-Bit of the SM2-Control-Byte (0x814.6) is FALSE, in that case the<br>
    137                              watchdog will not be started before the outputs were received the first time<br>
    138          V4.01 ECAT 4: "else" was too much<br>
    139          <br>Changes to version V3.20:<br>
    140          V4.00 ECAT 1: The handling of the Sync Manager Parameter was included according to<br>
    141                        the EtherCAT Guidelines and Protocol Enhancements Specification<br>
    142          V4.00 ECAT 2: The output sync manager is initialized during the state transition<br>
    143                        from PREOP to SAFEOP that the master can check if the slave could update<br>
    144                        inputs and outputs before switching the slave to OP<br>
    145                        behaviour according to the EtherCAT Guidelines and Protocol Enhancements Specification<br>
    146          V4.00 ECAT 3: The watchdog will be enabled in SAFE-OP that it can be checked if the last SM event<br>
    147                        was received during the watchdog time before switching to OP<br>
    148          V4.00 ECAT 4: The function CheckSmChannelParameters is included in the function<br>
    149                        CheckSmSettings to get a better overview<br>
    150          V4.00 ECAT 5: In synchronous mode the slave should support 1- and 3-buffer mode, 3-buffer mode<br>
    151                        should be the standard setting, because the controlling if the process data was updated<br>
    152                        should be done with the TxPDO Toggle, but the 1-buffer mode should be setable too,<br>
    153                        that the master could easily check if all slaves are synchronous by checking the<br>
    154                        the working counter (if the outputs were not read or the inputs were not written<br>
    155                        the ESC of the slave would not increment the working counter with expected value<br>
    156                        if the 1-buffer mode is running)<br>
    157          V4.00 ECAT 6: The function ECAT_StateChange was added, which the application should call if a local error<br>
    158                             is detected (with the parameters alStatus = STATE_SAFEOP, alStatusCode = error code (> 0x1000))<br>
    159                             or gone (with the parameters alStatus = STATE_OP, alStatusCode = 0)<br>
    160                             or if one of the functions APPL_StartMailboxHandler, APPL_StopMailboxHandler, APPL_StartInputHandler,<br>
    161                             APPL_StopInputHandler, APPL_StartOutputHandler, APPL_StopOutputHandler has returned NOERROR_INWORK<br>
    162                             to acknowledge the last state transition (with the parameters alStatus = new AL-Status, alStatusCode =<br>
    163                             new AL-Status-Code)<br>
    164          V4.00 ECAT 7: The return values for the AL-StatusCode were changed to UINT16
    165          */
    166          
    167          /*-----------------------------------------------------------------------------------------
    168          ------
    169          ------    Includes
    170          ------
    171          -----------------------------------------------------------------------------------------*/
    172          
    173          #define   _ECATSLV_    1
    174          #include "ecatslv.h"

   \                                 In section .bss, align 1
   \   __absolute unsigned char bEcatOutputUpdateRunning
   \                     bEcatOutputUpdateRunning:
   \        0x0                      DS8 1

   \                                 In section .bss, align 1
   \   __absolute unsigned char bEcatInputUpdateRunning
   \                     bEcatInputUpdateRunning:
   \        0x0                      DS8 1

   \                                 In section .bss, align 1
   \   __absolute unsigned char bEcatFirstOutputsReceived
   \                     bEcatFirstOutputsReceived:
   \        0x0                      DS8 1

   \                                 In section .bss, align 1
   \   __absolute unsigned char bWdTrigger
   \                     bWdTrigger:
   \        0x0                      DS8 1

   \                                 In section .bss, align 1
   \   __absolute unsigned char bDcSyncActive
   \                     bDcSyncActive:
   \        0x0                      DS8 1

   \                                 In section .bss, align 2
   \   __absolute short EsmTimeoutCounter
   \                     EsmTimeoutCounter:
   \        0x0                      DS8 2

   \                                 In section .bss, align 1
   \   __absolute unsigned char bEscIntEnabled
   \                     bEscIntEnabled:
   \        0x0                      DS8 1

   \                                 In section .bss, align 1
   \   __absolute unsigned char b3BufferMode
   \                     b3BufferMode:
   \        0x0                      DS8 1

   \                                 In section .bss, align 1
   \   __absolute unsigned char bLocalErrorFlag
   \                     bLocalErrorFlag:
   \        0x0                      DS8 1

   \                                 In section .bss, align 2
   \   __absolute unsigned short u16LocalErrorCode
   \                     u16LocalErrorCode:
   \        0x0                      DS8 2

   \                                 In section .bss, align 1
   \   __absolute unsigned char bApplEsmPending
   \                     bApplEsmPending:
   \        0x0                      DS8 1

   \                                 In section .bss, align 1
   \   __absolute unsigned char bEcatWaitForAlControlRes
   \                     bEcatWaitForAlControlRes:
   \        0x0                      DS8 1

   \                                 In section .bss, align 2
   \   __absolute unsigned short nEcatStateTrans
   \                     nEcatStateTrans:
   \        0x0                      DS8 2

   \                                 In section .bss, align 2
   \   __absolute unsigned short nPdInputSize
   \                     nPdInputSize:
   \        0x0                      DS8 2

   \                                 In section .bss, align 2
   \   __absolute unsigned short nPdOutputSize
   \                     nPdOutputSize:
   \        0x0                      DS8 2

   \                                 In section .bss, align 1
   \   __absolute unsigned char nMaxSyncMan
   \                     nMaxSyncMan:
   \        0x0                      DS8 1

   \                                 In section .bss, align 2
   \   __absolute unsigned short nMaxEscAddress
   \                     nMaxEscAddress:
   \        0x0                      DS8 2

   \                                 In section .bss, align 1
   \   __absolute unsigned char nAlStatus
   \                     nAlStatus:
   \        0x0                      DS8 1

   \                                 In section .bss, align 2
   \   __absolute unsigned short EcatWdValue
   \                     EcatWdValue:
   \        0x0                      DS8 2

   \                                 In section .bss, align 2
   \   __absolute unsigned short nEscAddrOutputData
   \                     nEscAddrOutputData:
   \        0x0                      DS8 2

   \                                 In section .bss, align 2
   \   __absolute unsigned short nEscAddrInputData
   \                     nEscAddrInputData:
   \        0x0                      DS8 2
    175          #undef    _ECATSLV_
    176          /* ECATCHANGE_START(V5.11) ECAT10*/
    177          /*remove definition of _ECATSLV_ (#ifdef is used in ecatslv.h)*/
    178          /* ECATCHANGE_END(V5.11) ECAT10*/
    179          
    180          #include "ecatappl.h"
    181          
    182          
    183          
    184          
    185          #include "mailbox.h"
    186          
    187          #include "ecatcoe.h"
    188          #include "objdef.h"
    189          
    190          
    191          
    192          #include "Task_Ethercat.h"
    193          
    194          /*--------------------------------------------------------------------------------------
    195          ------
    196          ------    local Types and Defines
    197          ------
    198          --------------------------------------------------------------------------------------*/
    199          
    200          
    201          /*-----------------------------------------------------------------------------------------
    202          ------
    203          ------    local variables and constants
    204          ------
    205          -----------------------------------------------------------------------------------------*/

   \                                 In section .bss, align 2
    206          UINT16    u16ALEventMask;                      // Value which will be written to the 0x204 register (AL event mask) during the state transition PreOP to SafeOP
   \                     u16ALEventMask:
   \        0x0                      DS8 2
    207          
    208          /*Dummy variable to trigger read or writes events in the ESC*/

   \                                 In section .bss, align 2
    209          VARVOLATILE UINT16    u16dummy;
   \                     u16dummy:
   \        0x0                      DS8 2
    210          
    211          

   \                                 In section .bss, align 2
    212          VARVOLATILE UINT16 SMActivate = 0;
   \                     SMActivate:
   \        0x0                      DS8 2
    213          
    214          /*ECATCHANGE_START(V5.11) HW1*/

   \                                 In section .bss, align 4
    215          TSYNCMAN		SyncManInfo;
   \                     SyncManInfo:
   \        0x0                      DS8 8
    216          
    217          //indicates if the EEPORM was loaded correct

   \                                 In section .bss, align 1
    218          BOOL EepromLoaded = FALSE;
   \                     EepromLoaded:
   \        0x0                      DS8 1
    219          /*-----------------------------------------------------------------------------------------
    220          ------
    221          ------    local functions
    222          ------
    223          -----------------------------------------------------------------------------------------*/
    224          /////////////////////////////////////////////////////////////////////////////////////////
    225          /**
    226           \param    intMask        interrupt mask (disabled interrupt shall be zero)
    227          
    228           \brief    This function makes an logical and with the AL Event Mask register (0x204)
    229          *////////////////////////////////////////////////////////////////////////////////////////

   \                                 In section .text, align 2, keep-with-next
    230          void ResetALEventMask(UINT16 intMask)
    231          {
   \                     ResetALEventMask: (+1)
   \        0x0   0xB51C             PUSH     {R2-R4,LR}
   \        0x2   0x0004             MOVS     R4,R0
    232              UINT16 mask;
    233              HW_EscReadWord(mask, ESC_AL_EVENTMASK_OFFSET);
   \        0x4   0x2202             MOVS     R2,#+2
   \        0x6   0xF44F 0x7101      MOV      R1,#+516
   \        0xA   0x4668             MOV      R0,SP
   \        0xC   0x.... 0x....      BL       HW_EscRead
    234              
    235              mask &= intMask;
   \       0x10   0xF8BD 0x0000      LDRH     R0,[SP, #+0]
   \       0x14   0x4004             ANDS     R4,R4,R0
   \       0x16   0xF8AD 0x4000      STRH     R4,[SP, #+0]
    236          
    237             // DISABLE_ESC_INT();
    238          
    239          
    240              HW_EscWriteWord(mask, ESC_AL_EVENTMASK_OFFSET);
   \       0x1A   0x2202             MOVS     R2,#+2
   \       0x1C   0xF44F 0x7101      MOV      R1,#+516
   \       0x20   0x4668             MOV      R0,SP
   \       0x22   0x.... 0x....      BL       HW_EscWrite
    241              //ENABLE_ESC_INT();
    242          }
   \       0x26   0xBD13             POP      {R0,R1,R4,PC}    ;; return
    243          
    244          /////////////////////////////////////////////////////////////////////////////////////////
    245          /**
    246           \param    intMask        interrupt mask (enabled interrupt shall be one)
    247          
    248            \brief    This function makes an logical or with the AL Event Mask register (0x204)
    249          *////////////////////////////////////////////////////////////////////////////////////////

   \                                 In section .text, align 2, keep-with-next
    250          void SetALEventMask(UINT16 intMask)
    251          {
   \                     SetALEventMask: (+1)
   \        0x0   0xB51C             PUSH     {R2-R4,LR}
   \        0x2   0x0004             MOVS     R4,R0
    252              UINT16 mask;
    253              HW_EscReadWord(mask, ESC_AL_EVENTMASK_OFFSET);
   \        0x4   0x2202             MOVS     R2,#+2
   \        0x6   0xF44F 0x7101      MOV      R1,#+516
   \        0xA   0x4668             MOV      R0,SP
   \        0xC   0x.... 0x....      BL       HW_EscRead
    254              
    255              mask |= intMask;
   \       0x10   0xF8BD 0x0000      LDRH     R0,[SP, #+0]
   \       0x14   0x4304             ORRS     R4,R4,R0
   \       0x16   0xF8AD 0x4000      STRH     R4,[SP, #+0]
    256          
    257              //DISABLE_ESC_INT();
    258          
    259          
    260              HW_EscWriteWord(mask, ESC_AL_EVENTMASK_OFFSET);
   \       0x1A   0x2202             MOVS     R2,#+2
   \       0x1C   0xF44F 0x7101      MOV      R1,#+516
   \       0x20   0x4668             MOV      R0,SP
   \       0x22   0x.... 0x....      BL       HW_EscWrite
    261              //ENABLE_ESC_INT();
    262          }
   \       0x26   0xBD13             POP      {R0,R1,R4,PC}    ;; return
    263          
    264          
    265          /////////////////////////////////////////////////////////////////////////////////////////
    266          /**
    267          
    268          \brief    This function reads the EEPROM loaded state
    269          *////////////////////////////////////////////////////////////////////////////////////////

   \                                 In section .text, align 2, keep-with-next
    270          void UpdateEEPROMLoadedState(void)
    271          {
   \                     UpdateEEPROMLoadedState: (+1)
   \        0x0   0xB580             PUSH     {R7,LR}
    272              {
    273                 UINT16 TmpVar = 0;
   \        0x2   0x2000             MOVS     R0,#+0
   \        0x4   0xF8AD 0x0000      STRH     R0,[SP, #+0]
    274                 //read EEPROM loaded information
    275                 HW_EscReadWord(TmpVar, ESC_EEPROM_CONTROL_OFFSET);
   \        0x8   0x2202             MOVS     R2,#+2
   \        0xA   0xF240 0x5102      MOVW     R1,#+1282
   \        0xE   0x4668             MOV      R0,SP
   \       0x10   0x.... 0x....      BL       HW_EscRead
    276                 TmpVar = SWAPWORD(TmpVar);
    277          
    278                 if (((TmpVar & ESC_EEPROM_ERROR_CRC) > 0)
    279                    || ((TmpVar & ESC_EEPROM_ERROR_LOAD) > 0))
   \       0x14   0xF8BD 0x0000      LDRH     R0,[SP, #+0]
   \       0x18   0xF410 0x6000      ANDS     R0,R0,#0x800
   \       0x1C   0x2801             CMP      R0,#+1
   \       0x1E   0xDA05             BGE.N    ??UpdateEEPROMLoadedState_0
   \       0x20   0xF8BD 0x0000      LDRH     R0,[SP, #+0]
   \       0x24   0xF410 0x5080      ANDS     R0,R0,#0x1000
   \       0x28   0x2801             CMP      R0,#+1
   \       0x2A   0xDB04             BLT.N    ??UpdateEEPROMLoadedState_1
    280                 {
    281                    EepromLoaded = FALSE;
   \                     ??UpdateEEPROMLoadedState_0: (+1)
   \       0x2C   0x2000             MOVS     R0,#+0
   \       0x2E   0x.... 0x....      LDR.W    R1,??DataTable9
   \       0x32   0x7008             STRB     R0,[R1, #+0]
   \       0x34   0xE003             B.N      ??UpdateEEPROMLoadedState_2
    282                 }
    283                 else
    284                 {
    285                    EepromLoaded = TRUE;
   \                     ??UpdateEEPROMLoadedState_1: (+1)
   \       0x36   0x2001             MOVS     R0,#+1
   \       0x38   0x.... 0x....      LDR.W    R1,??DataTable9
   \       0x3C   0x7008             STRB     R0,[R1, #+0]
    286                 }
    287              }
    288          }
   \                     ??UpdateEEPROMLoadedState_2: (+1)
   \       0x3E   0xBD01             POP      {R0,PC}          ;; return
    289          
    290          
    291          /*-----------------------------------------------------------------------------------------
    292          ------
    293          ------    functions
    294          ------
    295          -----------------------------------------------------------------------------------------*/
    296          
    297          
    298          /////////////////////////////////////////////////////////////////////////////////////////
    299          /**
    300           \param     channel        Sync Manager channel
    301          
    302           \return     pPdSyncMan        Pointer to the settings of requested SYNC Manager channel
    303          
    304           \brief    This function is called to read the SYNC Manager channel descriptions of the
    305                       process data SYNC Managers.
    306          *////////////////////////////////////////////////////////////////////////////////////////
    307          

   \                                 In section .text, align 2, keep-with-next
    308          TSYNCMAN ESCMEM * GetSyncMan( UINT8 channel )
    309          {
   \                     GetSyncMan: (+1)
   \        0x0   0xB510             PUSH     {R4,LR}
    310              HW_EscRead((MEM_ADDR_EC *)&SyncManInfo, ESC_SYNCMAN_REG_OFFSET + (channel * SIZEOF_SM_REGISTER), SIZEOF_SM_REGISTER );
   \        0x2   0x.... 0x....      LDR.W    R4,??DataTable9_1
   \        0x6   0x2208             MOVS     R2,#+8
   \        0x8   0xB2C0             UXTB     R0,R0            ;; ZeroExt  R0,R0,#+24,#+24
   \        0xA   0x00C0             LSLS     R0,R0,#+3
   \        0xC   0xF510 0x6000      ADDS     R0,R0,#+2048
   \       0x10   0x0001             MOVS     R1,R0
   \       0x12   0xB289             UXTH     R1,R1            ;; ZeroExt  R1,R1,#+16,#+16
   \       0x14   0x0020             MOVS     R0,R4
   \       0x16   0x.... 0x....      BL       HW_EscRead
    311          
    312          
    313              return &SyncManInfo;
   \       0x1A   0x0020             MOVS     R0,R4
   \       0x1C   0xBD10             POP      {R4,PC}          ;; return
    314          }
    315          
    316          /////////////////////////////////////////////////////////////////////////////////////////
    317          /**
    318           \param     channel        Sync Manager channel
    319          
    320           \brief    This function disables a Sync Manager channel
    321          *////////////////////////////////////////////////////////////////////////////////////////

   \                                 In section .text, align 2, keep-with-next
    322          void DisableSyncManChannel(UINT8 channel)
    323          {
   \                     DisableSyncManChannel: (+1)
   \        0x0   0xB51C             PUSH     {R2-R4,LR}
    324              UINT16 Offset;
    325              //The register 0x806 is only readable from PDI => writing 0 is valid
    326              VARVOLATILE UINT16 smStatus = SM_SETTING_PDI_DISABLE;
   \        0x2   0xF44F 0x7180      MOV      R1,#+256
   \        0x6   0xF8AD 0x1000      STRH     R1,[SP, #+0]
    327              Offset = (ESC_SYNCMAN_ACTIVE_OFFSET + (SIZEOF_SM_REGISTER * channel));
   \        0xA   0xB2C0             UXTB     R0,R0            ;; ZeroExt  R0,R0,#+24,#+24
   \        0xC   0x00C4             LSLS     R4,R0,#+3
   \        0xE   0xF604 0x0406      ADDW     R4,R4,#+2054
    328          
    329          
    330              HW_EscWriteWord(smStatus,Offset);
   \       0x12   0x2202             MOVS     R2,#+2
   \       0x14   0x0021             MOVS     R1,R4
   \       0x16   0xB289             UXTH     R1,R1            ;; ZeroExt  R1,R1,#+16,#+16
   \       0x18   0x4668             MOV      R0,SP
   \       0x1A   0x.... 0x....      BL       HW_EscWrite
    331              
    332              /*wait until SyncManager is disabled*/
    333              do
    334              {
    335                  HW_EscReadWord(smStatus, Offset);
   \                     ??DisableSyncManChannel_0: (+1)
   \       0x1E   0x2202             MOVS     R2,#+2
   \       0x20   0x0021             MOVS     R1,R4
   \       0x22   0xB289             UXTH     R1,R1            ;; ZeroExt  R1,R1,#+16,#+16
   \       0x24   0x4668             MOV      R0,SP
   \       0x26   0x.... 0x....      BL       HW_EscRead
    336              }while(!(smStatus & SM_SETTING_PDI_DISABLE));
   \       0x2A   0xF8BD 0x0000      LDRH     R0,[SP, #+0]
   \       0x2E   0x05C0             LSLS     R0,R0,#+23
   \       0x30   0xD5F5             BPL.N    ??DisableSyncManChannel_0
    337          }
   \       0x32   0xBD13             POP      {R0,R1,R4,PC}    ;; return
    338          
    339          /////////////////////////////////////////////////////////////////////////////////////////
    340          /**
    341           \param     channel        Sync Manager channel
    342          
    343           \brief    This function enables a Sync Manager channel
    344          *////////////////////////////////////////////////////////////////////////////////////////

   \                                 In section .text, align 2, keep-with-next
    345          void EnableSyncManChannel(UINT8 channel)
    346          {
   \                     EnableSyncManChannel: (+1)
   \        0x0   0xB51C             PUSH     {R2-R4,LR}
    347              UINT16 Offset;
    348              //The register 0x806 is only readable from PDI => writing 0 is valid
    349              VARVOLATILE UINT16 smStatus = 0x0000;
   \        0x2   0x2100             MOVS     R1,#+0
   \        0x4   0xF8AD 0x1000      STRH     R1,[SP, #+0]
    350              Offset = (ESC_SYNCMAN_ACTIVE_OFFSET + (SIZEOF_SM_REGISTER*channel));
   \        0x8   0xB2C0             UXTB     R0,R0            ;; ZeroExt  R0,R0,#+24,#+24
   \        0xA   0x00C4             LSLS     R4,R0,#+3
   \        0xC   0xF604 0x0406      ADDW     R4,R4,#+2054
    351          
    352          
    353              HW_EscWriteWord(smStatus,Offset);
   \       0x10   0x2202             MOVS     R2,#+2
   \       0x12   0x0021             MOVS     R1,R4
   \       0x14   0xB289             UXTH     R1,R1            ;; ZeroExt  R1,R1,#+16,#+16
   \       0x16   0x4668             MOV      R0,SP
   \       0x18   0x.... 0x....      BL       HW_EscWrite
    354              
    355              /*wait until SyncManager is enabled*/
    356              do
    357              {
    358                  HW_EscReadWord(smStatus,Offset);
   \                     ??EnableSyncManChannel_0: (+1)
   \       0x1C   0x2202             MOVS     R2,#+2
   \       0x1E   0x0021             MOVS     R1,R4
   \       0x20   0xB289             UXTH     R1,R1            ;; ZeroExt  R1,R1,#+16,#+16
   \       0x22   0x4668             MOV      R0,SP
   \       0x24   0x.... 0x....      BL       HW_EscRead
    359          
    360              }while((smStatus & SM_SETTING_PDI_DISABLE));
   \       0x28   0xF8BD 0x0000      LDRH     R0,[SP, #+0]
   \       0x2C   0x05C0             LSLS     R0,R0,#+23
   \       0x2E   0xD4F5             BMI.N    ??EnableSyncManChannel_0
    361          }
   \       0x30   0xBD13             POP      {R0,R1,R4,PC}    ;; return
    362          /*ECATCHANGE_END(V5.11) HW1*/
    363          
    364          
    365          
    366          /////////////////////////////////////////////////////////////////////////////////////////
    367          /**
    368           \param  maxChannel    last SM channel which should be checked
    369          
    370           \return                 0: okay else AL Status Code
    371          
    372           \brief    This function checks all SM channels
    373          
    374          *////////////////////////////////////////////////////////////////////////////////////////
    375          

   \                                 In section .text, align 2, keep-with-next
    376          UINT8    CheckSmSettings(UINT8 maxChannel)
    377          {
   \                     CheckSmSettings: (+1)
   \        0x0   0xB5F8             PUSH     {R3-R7,LR}
   \        0x2   0x0005             MOVS     R5,R0
    378              UINT8 i;
    379              UINT8 result = 0;
   \        0x4   0x2400             MOVS     R4,#+0
    380              TSYNCMAN ESCMEM *pSyncMan;
    381              UINT16 SMLength = 0;
   \        0x6   0x2000             MOVS     R0,#+0
    382              UINT16 SMAddress = 0;
   \        0x8   0x2000             MOVS     R0,#+0
    383          
    384              //Check if max address defines are within the available ESC address range
    385              if((nMaxEscAddress < MAX_PD_WRITE_ADDRESS)
    386                  ||(nMaxEscAddress < MAX_PD_READ_ADDRESS)
                         ^
Warning[Pa134]: left and right operands are identical
Warning[Ms014]: some characters could not be correctly encoded in
          "E:\DESKTOP\@@@\@@@@\Intergrated\Project\IAR\Debug\List\ecatslv.s",
          and have been replaced with '@'. The first such character has unicode
          code point 0x79d1 ("@")
    387          /*ECATCHANGE_START(V5.11) ESM5*/
    388                  ||(nMaxEscAddress < MAX_MBX_WRITE_ADDRESS)
    389          /*ECATCHANGE_END(V5.11) ESM5*/
    390                  ||(nMaxEscAddress < MAX_MBX_READ_ADDRESS))
   \        0xA   0xF642 0x70FF      MOVW     R0,#+12287
   \        0xE   0x.... 0x....      LDR.W    R1,??DataTable9_2
   \       0x12   0x880A             LDRH     R2,[R1, #+0]
   \       0x14   0x4282             CMP      R2,R0
   \       0x16   0xDB08             BLT.N    ??CheckSmSettings_0
   \       0x18   0x880A             LDRH     R2,[R1, #+0]
   \       0x1A   0x4282             CMP      R2,R0
   \       0x1C   0xDB05             BLT.N    ??CheckSmSettings_0
   \       0x1E   0x880A             LDRH     R2,[R1, #+0]
   \       0x20   0x4282             CMP      R2,R0
   \       0x22   0xDB02             BLT.N    ??CheckSmSettings_0
   \       0x24   0x8809             LDRH     R1,[R1, #+0]
   \       0x26   0x4281             CMP      R1,R0
   \       0x28   0xDA01             BGE.N    ??CheckSmSettings_1
    391              {
    392                  /*The defines for maximum SM addresses are invalid for the used ESC (change the defines in the file ecat_def.h or the SSC Tool)
    393                  It may be also required to adapt the SM settings in the ESI file*/
    394          
    395                  return ALSTATUSCODE_NOVALIDFIRMWARE;
   \                     ??CheckSmSettings_0: (+1)
   \       0x2A   0x2014             MOVS     R0,#+20
   \       0x2C   0xE17F             B.N      ??CheckSmSettings_2
    396              }
    397          
    398              /* check the Sync Manager Parameter for the Receive Mailbox (Sync Manager Channel 0) */
    399          /*ECATCHANGE_START(V5.11) HW1*/
    400              pSyncMan = GetSyncMan(MAILBOX_WRITE);
   \                     ??CheckSmSettings_1: (+1)
   \       0x2E   0x2000             MOVS     R0,#+0
   \       0x30   0x.... 0x....      BL       GetSyncMan
    401          /*ECATCHANGE_END(V5.11) HW1*/
    402          
    403              SMLength = pSyncMan->Length;
   \       0x34   0x8842             LDRH     R2,[R0, #+2]
    404              SMAddress = pSyncMan->PhysicalStartAddress;
   \       0x36   0x8801             LDRH     R1,[R0, #+0]
    405          
    406          /* ECATCHANGE_START(V5.11) HW2*/
    407              //Check if the start address and length are even 16Bit addresses
    408              if ((SMLength & 0x1) > 0)
   \       0x38   0x0013             MOVS     R3,R2
   \       0x3A   0xB29B             UXTH     R3,R3            ;; ZeroExt  R3,R3,#+16,#+16
   \       0x3C   0xF013 0x0301      ANDS     R3,R3,#0x1
   \       0x40   0x2B01             CMP      R3,#+1
   \       0x42   0xDB01             BLT.N    ??CheckSmSettings_3
    409                  return ALSTATUSCODE_INVALIDSMCFG;
   \       0x44   0x2017             MOVS     R0,#+23
   \       0x46   0xE172             B.N      ??CheckSmSettings_2
    410          
    411              if ((SMAddress & 0x1) > 0)
   \                     ??CheckSmSettings_3: (+1)
   \       0x48   0x000B             MOVS     R3,R1
   \       0x4A   0xB29B             UXTH     R3,R3            ;; ZeroExt  R3,R3,#+16,#+16
   \       0x4C   0xF013 0x0301      ANDS     R3,R3,#0x1
   \       0x50   0x2B01             CMP      R3,#+1
   \       0x52   0xDB01             BLT.N    ??CheckSmSettings_4
    412                  return ALSTATUSCODE_INVALIDSMCFG;
   \       0x54   0x2017             MOVS     R0,#+23
   \       0x56   0xE16A             B.N      ??CheckSmSettings_2
    413          /* ECATCHANGE_END(V5.11) HW2*/
    414          
    415              if (!(pSyncMan->Settings[SM_SETTING_ACTIVATE_OFFSET] & SM_SETTING_ENABLE_VALUE))
   \                     ??CheckSmSettings_4: (+1)
   \       0x58   0x7983             LDRB     R3,[R0, #+6]
   \       0x5A   0x07DB             LSLS     R3,R3,#+31
   \       0x5C   0xD401             BMI.N    ??CheckSmSettings_5
    416                  /* receive mailbox is not enabled */
    417                  result = ALSTATUSCODE_INVALIDMBXCFGINPREOP;
   \       0x5E   0x2416             MOVS     R4,#+22
   \       0x60   0xE024             B.N      ??CheckSmSettings_6
    418              else if ( (pSyncMan->Settings[SM_SETTING_CONTROL_OFFSET] & SM_SETTING_DIRECTION_MASK) != SM_SETTING_DIRECTION_WRITE_VALUE)
   \                     ??CheckSmSettings_5: (+1)
   \       0x62   0x7903             LDRB     R3,[R0, #+4]
   \       0x64   0xF013 0x030C      ANDS     R3,R3,#0xC
   \       0x68   0x2B04             CMP      R3,#+4
   \       0x6A   0xD001             BEQ.N    ??CheckSmSettings_7
    419                 /* receive mailbox is not writable by the master*/
    420                  result = ALSTATUSCODE_INVALIDMBXCFGINPREOP;
   \       0x6C   0x2416             MOVS     R4,#+22
   \       0x6E   0xE01D             B.N      ??CheckSmSettings_6
    421              else if ( (pSyncMan->Settings[SM_SETTING_CONTROL_OFFSET] & SM_SETTING_MODE_MASK) != SM_SETTING_MODE_ONE_BUFFER_VALUE )
   \                     ??CheckSmSettings_7: (+1)
   \       0x70   0x7900             LDRB     R0,[R0, #+4]
   \       0x72   0x0780             LSLS     R0,R0,#+30
   \       0x74   0xD401             BMI.N    ??CheckSmSettings_8
    422                  /* receive mailbox is not in one buffer mode */
    423                  result = ALSTATUSCODE_INVALIDMBXCFGINPREOP;
   \       0x76   0x2416             MOVS     R4,#+22
   \       0x78   0xE018             B.N      ??CheckSmSettings_6
    424              else if ( SMLength < MIN_MBX_SIZE )
   \                     ??CheckSmSettings_8: (+1)
   \       0x7A   0x0010             MOVS     R0,R2
   \       0x7C   0xB280             UXTH     R0,R0            ;; ZeroExt  R0,R0,#+16,#+16
   \       0x7E   0x2822             CMP      R0,#+34
   \       0x80   0xDA01             BGE.N    ??CheckSmSettings_9
    425                  /* receive mailbox size is too small */
    426                  result = ALSTATUSCODE_INVALIDMBXCFGINPREOP;
   \       0x82   0x2416             MOVS     R4,#+22
   \       0x84   0xE012             B.N      ??CheckSmSettings_6
    427              else if ( SMLength > MAX_MBX_SIZE )
   \                     ??CheckSmSettings_9: (+1)
   \       0x86   0xB292             UXTH     R2,R2            ;; ZeroExt  R2,R2,#+16,#+16
   \       0x88   0xF240 0x1001      MOVW     R0,#+257
   \       0x8C   0x4282             CMP      R2,R0
   \       0x8E   0xDB01             BLT.N    ??CheckSmSettings_10
    428                  /* receive mailbox size is too great */
    429                  result = ALSTATUSCODE_INVALIDMBXCFGINPREOP;
   \       0x90   0x2416             MOVS     R4,#+22
   \       0x92   0xE00B             B.N      ??CheckSmSettings_6
    430               else if ( SMAddress < MIN_MBX_WRITE_ADDRESS )
   \                     ??CheckSmSettings_10: (+1)
   \       0x94   0x0008             MOVS     R0,R1
   \       0x96   0xB280             UXTH     R0,R0            ;; ZeroExt  R0,R0,#+16,#+16
   \       0x98   0xF5B0 0x5F80      CMP      R0,#+4096
   \       0x9C   0xDA01             BGE.N    ??CheckSmSettings_11
    431                  /* receive mailbox address is too small */
    432                  result = ALSTATUSCODE_INVALIDMBXCFGINPREOP;
   \       0x9E   0x2416             MOVS     R4,#+22
   \       0xA0   0xE004             B.N      ??CheckSmSettings_6
    433              else if ( SMAddress > MAX_MBX_WRITE_ADDRESS)
   \                     ??CheckSmSettings_11: (+1)
   \       0xA2   0xB289             UXTH     R1,R1            ;; ZeroExt  R1,R1,#+16,#+16
   \       0xA4   0xF5B1 0x5F40      CMP      R1,#+12288
   \       0xA8   0xDB00             BLT.N    ??CheckSmSettings_6
    434                  /* receive mailbox address is too great */
    435                  result = ALSTATUSCODE_INVALIDMBXCFGINPREOP;
   \       0xAA   0x2416             MOVS     R4,#+22
    436          
    437          
    438              if ( result == 0 )
   \                     ??CheckSmSettings_6: (+1)
   \       0xAC   0x0020             MOVS     R0,R4
   \       0xAE   0xB2C0             UXTB     R0,R0            ;; ZeroExt  R0,R0,#+24,#+24
   \       0xB0   0x2800             CMP      R0,#+0
   \       0xB2   0xD13D             BNE.N    ??CheckSmSettings_12
    439              {
    440                  /* check the Sync Manager Parameter for the Send Mailbox (Sync Manager Channel 1) */
    441          /*ECATCHANGE_START(V5.11) HW1*/
    442                  pSyncMan = GetSyncMan(MAILBOX_READ);
   \       0xB4   0x2001             MOVS     R0,#+1
   \       0xB6   0x.... 0x....      BL       GetSyncMan
    443          /*ECATCHANGE_END(V5.11) HW1*/
    444          
    445              SMLength = pSyncMan->Length;
   \       0xBA   0x8842             LDRH     R2,[R0, #+2]
    446              SMAddress = pSyncMan->PhysicalStartAddress;
   \       0xBC   0x8801             LDRH     R1,[R0, #+0]
    447          
    448          /* ECATCHANGE_START(V5.11) HW2*/
    449              //Check if the start address and length are even 16Bit addresses
    450              if ((SMLength & 0x1) > 0)
   \       0xBE   0x0013             MOVS     R3,R2
   \       0xC0   0xB29B             UXTH     R3,R3            ;; ZeroExt  R3,R3,#+16,#+16
   \       0xC2   0xF013 0x0301      ANDS     R3,R3,#0x1
   \       0xC6   0x2B01             CMP      R3,#+1
   \       0xC8   0xDB01             BLT.N    ??CheckSmSettings_13
    451                  return ALSTATUSCODE_INVALIDSMCFG;
   \       0xCA   0x2017             MOVS     R0,#+23
   \       0xCC   0xE12F             B.N      ??CheckSmSettings_2
    452          
    453              if ((SMAddress & 0x1) > 0)
   \                     ??CheckSmSettings_13: (+1)
   \       0xCE   0x000B             MOVS     R3,R1
   \       0xD0   0xB29B             UXTH     R3,R3            ;; ZeroExt  R3,R3,#+16,#+16
   \       0xD2   0xF013 0x0301      ANDS     R3,R3,#0x1
   \       0xD6   0x2B01             CMP      R3,#+1
   \       0xD8   0xDB01             BLT.N    ??CheckSmSettings_14
    454                  return ALSTATUSCODE_INVALIDSMCFG;
   \       0xDA   0x2017             MOVS     R0,#+23
   \       0xDC   0xE127             B.N      ??CheckSmSettings_2
    455          /* ECATCHANGE_END(V5.11) HW2*/
    456          
    457                if (!(pSyncMan->Settings[SM_SETTING_ACTIVATE_OFFSET] & SM_SETTING_ENABLE_VALUE))
   \                     ??CheckSmSettings_14: (+1)
   \       0xDE   0x7983             LDRB     R3,[R0, #+6]
   \       0xE0   0x07DB             LSLS     R3,R3,#+31
   \       0xE2   0xD401             BMI.N    ??CheckSmSettings_15
    458                      /* send mailbox is not enabled */
    459                      result = ALSTATUSCODE_INVALIDMBXCFGINPREOP;
   \       0xE4   0x2416             MOVS     R4,#+22
   \       0xE6   0xE023             B.N      ??CheckSmSettings_12
    460                  else if ( (pSyncMan->Settings[SM_SETTING_CONTROL_OFFSET] & SM_SETTING_DIRECTION_MASK) != SM_SETTING_DIRECTION_READ_VALUE)
   \                     ??CheckSmSettings_15: (+1)
   \       0xE8   0x7903             LDRB     R3,[R0, #+4]
   \       0xEA   0xF013 0x0F0C      TST      R3,#0xC
   \       0xEE   0xD001             BEQ.N    ??CheckSmSettings_16
    461                     /* receive mailbox is not readable by the master*/
    462                      result = ALSTATUSCODE_INVALIDMBXCFGINPREOP;
   \       0xF0   0x2416             MOVS     R4,#+22
   \       0xF2   0xE01D             B.N      ??CheckSmSettings_12
    463                  else if ( (pSyncMan->Settings[SM_SETTING_CONTROL_OFFSET] & SM_SETTING_MODE_MASK) != SM_SETTING_MODE_ONE_BUFFER_VALUE )
   \                     ??CheckSmSettings_16: (+1)
   \       0xF4   0x7900             LDRB     R0,[R0, #+4]
   \       0xF6   0x0780             LSLS     R0,R0,#+30
   \       0xF8   0xD401             BMI.N    ??CheckSmSettings_17
    464                      /* receive mailbox is not in one buffer mode */
    465                      result = ALSTATUSCODE_INVALIDMBXCFGINPREOP;
   \       0xFA   0x2416             MOVS     R4,#+22
   \       0xFC   0xE018             B.N      ??CheckSmSettings_12
    466                  else if ( SMLength < MIN_MBX_SIZE )
   \                     ??CheckSmSettings_17: (+1)
   \       0xFE   0x0010             MOVS     R0,R2
   \      0x100   0xB280             UXTH     R0,R0            ;; ZeroExt  R0,R0,#+16,#+16
   \      0x102   0x2822             CMP      R0,#+34
   \      0x104   0xDA01             BGE.N    ??CheckSmSettings_18
    467                      /* send mailbox size is too small */
    468                      result = ALSTATUSCODE_INVALIDMBXCFGINPREOP;
   \      0x106   0x2416             MOVS     R4,#+22
   \      0x108   0xE012             B.N      ??CheckSmSettings_12
    469                  else if ( SMLength > MAX_MBX_SIZE )
   \                     ??CheckSmSettings_18: (+1)
   \      0x10A   0xB292             UXTH     R2,R2            ;; ZeroExt  R2,R2,#+16,#+16
   \      0x10C   0xF240 0x1001      MOVW     R0,#+257
   \      0x110   0x4282             CMP      R2,R0
   \      0x112   0xDB01             BLT.N    ??CheckSmSettings_19
    470                      /* send mailbox size is too great */
    471                      result = ALSTATUSCODE_INVALIDMBXCFGINPREOP;
   \      0x114   0x2416             MOVS     R4,#+22
   \      0x116   0xE00B             B.N      ??CheckSmSettings_12
    472                   else if ( SMAddress < MIN_MBX_READ_ADDRESS )
   \                     ??CheckSmSettings_19: (+1)
   \      0x118   0x0008             MOVS     R0,R1
   \      0x11A   0xB280             UXTH     R0,R0            ;; ZeroExt  R0,R0,#+16,#+16
   \      0x11C   0xF5B0 0x5F80      CMP      R0,#+4096
   \      0x120   0xDA01             BGE.N    ??CheckSmSettings_20
    473                      /* send mailbox address is too small */
    474                      result = ALSTATUSCODE_INVALIDMBXCFGINPREOP;
   \      0x122   0x2416             MOVS     R4,#+22
   \      0x124   0xE004             B.N      ??CheckSmSettings_12
    475                  else if ( SMAddress > MAX_MBX_READ_ADDRESS )
   \                     ??CheckSmSettings_20: (+1)
   \      0x126   0xB289             UXTH     R1,R1            ;; ZeroExt  R1,R1,#+16,#+16
   \      0x128   0xF5B1 0x5F40      CMP      R1,#+12288
   \      0x12C   0xDB00             BLT.N    ??CheckSmSettings_12
    476                      /* send mailbox address is too great */
    477                      result = ALSTATUSCODE_INVALIDMBXCFGINPREOP;
   \      0x12E   0x2416             MOVS     R4,#+22
    478          
    479              }
    480          
    481              if ( result == 0 && maxChannel > PROCESS_DATA_IN )
   \                     ??CheckSmSettings_12: (+1)
   \      0x130   0x0020             MOVS     R0,R4
   \      0x132   0xB2C0             UXTB     R0,R0            ;; ZeroExt  R0,R0,#+24,#+24
   \      0x134   0x2800             CMP      R0,#+0
   \      0x136   0xD16A             BNE.N    ??CheckSmSettings_21
   \      0x138   0x0028             MOVS     R0,R5
   \      0x13A   0xB2C0             UXTB     R0,R0            ;; ZeroExt  R0,R0,#+24,#+24
   \      0x13C   0x2804             CMP      R0,#+4
   \      0x13E   0xDB66             BLT.N    ??CheckSmSettings_21
    482              {
    483                  /* b3BufferMode is only set, if inputs and outputs are running in 3-Buffer-Mode when leaving this function */
    484                  b3BufferMode = TRUE;
   \      0x140   0x.... 0x....      LDR.W    R6,??DataTable10
   \      0x144   0x2001             MOVS     R0,#+1
   \      0x146   0x7030             STRB     R0,[R6, #+0]
    485                  /* check the Sync Manager Parameter for the Inputs (Sync Manager Channel 2) */
    486          /*ECATCHANGE_START(V5.11) HW1*/
    487                  pSyncMan = GetSyncMan(PROCESS_DATA_IN);
   \      0x148   0x2003             MOVS     R0,#+3
   \      0x14A   0x.... 0x....      BL       GetSyncMan
   \      0x14E   0x0001             MOVS     R1,R0
    488          /*ECATCHANGE_END(V5.11) HW1*/
    489          
    490                  SMLength = pSyncMan->Length;
   \      0x150   0x884B             LDRH     R3,[R1, #+2]
    491                  SMAddress = pSyncMan->PhysicalStartAddress;
   \      0x152   0x880A             LDRH     R2,[R1, #+0]
    492          
    493          /* ECATCHANGE_START(V5.11) HW2*/
    494                  //Check if the start address and length are even 16Bit addresses
    495                  if ((SMLength & 0x1) > 0)
   \      0x154   0x0018             MOVS     R0,R3
   \      0x156   0xB280             UXTH     R0,R0            ;; ZeroExt  R0,R0,#+16,#+16
   \      0x158   0xF010 0x0001      ANDS     R0,R0,#0x1
   \      0x15C   0x2801             CMP      R0,#+1
   \      0x15E   0xDB01             BLT.N    ??CheckSmSettings_22
    496                      return ALSTATUSCODE_INVALIDSMCFG;
   \      0x160   0x2017             MOVS     R0,#+23
   \      0x162   0xE0E4             B.N      ??CheckSmSettings_2
    497          
    498                  if ((SMAddress & 0x1) > 0)
   \                     ??CheckSmSettings_22: (+1)
   \      0x164   0x0010             MOVS     R0,R2
   \      0x166   0xB280             UXTH     R0,R0            ;; ZeroExt  R0,R0,#+16,#+16
   \      0x168   0xF010 0x0001      ANDS     R0,R0,#0x1
   \      0x16C   0x2801             CMP      R0,#+1
   \      0x16E   0xDB01             BLT.N    ??CheckSmSettings_23
    499                      return ALSTATUSCODE_INVALIDSMCFG;
   \      0x170   0x2017             MOVS     R0,#+23
   \      0x172   0xE0DC             B.N      ??CheckSmSettings_2
    500          /* ECATCHANGE_END(V5.11) HW2*/
    501          
    502                  if ((pSyncMan->Settings[SM_SETTING_ACTIVATE_OFFSET] & SM_SETTING_ENABLE_VALUE) != 0 && SMLength == 0 )
   \                     ??CheckSmSettings_23: (+1)
   \      0x174   0x7988             LDRB     R0,[R1, #+6]
   \      0x176   0x07C0             LSLS     R0,R0,#+31
   \      0x178   0xD505             BPL.N    ??CheckSmSettings_24
   \      0x17A   0x0018             MOVS     R0,R3
   \      0x17C   0xB280             UXTH     R0,R0            ;; ZeroExt  R0,R0,#+16,#+16
   \      0x17E   0x2800             CMP      R0,#+0
   \      0x180   0xD101             BNE.N    ??CheckSmSettings_24
    503                      /* the SM3 size is 0 and the SM3 is active */
    504                      result = SYNCMANCHSETTINGS+1;
   \      0x182   0x2404             MOVS     R4,#+4
   \      0x184   0xE03E             B.N      ??CheckSmSettings_25
    505                  else if (pSyncMan->Settings[SM_SETTING_ACTIVATE_OFFSET] & SM_SETTING_ENABLE_VALUE)
   \                     ??CheckSmSettings_24: (+1)
   \      0x186   0x7988             LDRB     R0,[R1, #+6]
   \      0x188   0x07C0             LSLS     R0,R0,#+31
   \      0x18A   0xD532             BPL.N    ??CheckSmSettings_26
    506                  {
    507                      /* Sync Manager Channel 3 is active, input size has to greater 0 */
    508                      if ( SMLength != nPdInputSize || nPdInputSize == 0 || SMLength > MAX_PD_INPUT_SIZE)
   \      0x18C   0x.... 0x....      LDR.W    R0,??DataTable10_1
   \      0x190   0x001F             MOVS     R7,R3
   \      0x192   0xF8B0 0xC000      LDRH     R12,[R0, #+0]
   \      0x196   0xB2BF             UXTH     R7,R7            ;; ZeroExt  R7,R7,#+16,#+16
   \      0x198   0x4567             CMP      R7,R12
   \      0x19A   0xD105             BNE.N    ??CheckSmSettings_27
   \      0x19C   0x8800             LDRH     R0,[R0, #+0]
   \      0x19E   0x2800             CMP      R0,#+0
   \      0x1A0   0xD002             BEQ.N    ??CheckSmSettings_27
   \      0x1A2   0xB29B             UXTH     R3,R3            ;; ZeroExt  R3,R3,#+16,#+16
   \      0x1A4   0x2B45             CMP      R3,#+69
   \      0x1A6   0xDB01             BLT.N    ??CheckSmSettings_28
    509                          /* sizes don't match */
    510                          result = SYNCMANCHSIZE+1;
   \                     ??CheckSmSettings_27: (+1)
   \      0x1A8   0x2403             MOVS     R4,#+3
   \      0x1AA   0xE02B             B.N      ??CheckSmSettings_25
    511                      else
    512                          /* sizes matches */
    513                      if ( (pSyncMan->Settings[SM_SETTING_CONTROL_OFFSET] & SM_SETTING_DIRECTION_MASK) == SM_SETTING_DIRECTION_READ_VALUE )
   \                     ??CheckSmSettings_28: (+1)
   \      0x1AC   0x7908             LDRB     R0,[R1, #+4]
   \      0x1AE   0xF010 0x0F0C      TST      R0,#0xC
   \      0x1B2   0xD11C             BNE.N    ??CheckSmSettings_29
    514                      {
    515                          /* settings match */
    516                          if ( ( ( nAlStatus == STATE_PREOP )&&( SMAddress >= MIN_PD_READ_ADDRESS )&&( SMAddress <= MAX_PD_READ_ADDRESS ) )
    517                             ||( ( nAlStatus != STATE_PREOP )&&( SMAddress == nEscAddrInputData ) )
    518                              )
   \      0x1B4   0x.... 0x....      LDR.W    R0,??DataTable10_2
   \      0x1B8   0x7803             LDRB     R3,[R0, #+0]
   \      0x1BA   0x2B02             CMP      R3,#+2
   \      0x1BC   0xD106             BNE.N    ??CheckSmSettings_30
   \      0x1BE   0x0013             MOVS     R3,R2
   \      0x1C0   0xB29B             UXTH     R3,R3            ;; ZeroExt  R3,R3,#+16,#+16
   \      0x1C2   0xF5B3 0x5380      SUBS     R3,R3,#+4096
   \      0x1C6   0xF5B3 0x5F00      CMP      R3,#+8192
   \      0x1CA   0xD308             BCC.N    ??CheckSmSettings_31
   \                     ??CheckSmSettings_30: (+1)
   \      0x1CC   0x7800             LDRB     R0,[R0, #+0]
   \      0x1CE   0x2802             CMP      R0,#+2
   \      0x1D0   0xD00B             BEQ.N    ??CheckSmSettings_32
   \      0x1D2   0x.... 0x....      LDR.W    R0,??DataTable10_3
   \      0x1D6   0x8800             LDRH     R0,[R0, #+0]
   \      0x1D8   0xB292             UXTH     R2,R2            ;; ZeroExt  R2,R2,#+16,#+16
   \      0x1DA   0x4282             CMP      R2,R0
   \      0x1DC   0xD105             BNE.N    ??CheckSmSettings_32
    519                          {
    520                              /* addresses match */
    521          
    522                              if ( (pSyncMan->Settings[SM_SETTING_CONTROL_OFFSET] & SM_SETTING_MODE_MASK) == SM_SETTING_MODE_ONE_BUFFER_VALUE )
   \                     ??CheckSmSettings_31: (+1)
   \      0x1DE   0x7908             LDRB     R0,[R1, #+4]
   \      0x1E0   0x0780             LSLS     R0,R0,#+30
   \      0x1E2   0xD50F             BPL.N    ??CheckSmSettings_25
    523                                  /* inputs are running in 1-Buffer-Mode, reset flag b3BufferMode */
    524                                  b3BufferMode = FALSE;
   \      0x1E4   0x2000             MOVS     R0,#+0
   \      0x1E6   0x7030             STRB     R0,[R6, #+0]
   \      0x1E8   0xE00C             B.N      ??CheckSmSettings_25
    525                          }
    526                          else
    527                              /* input address is out of the allowed area or has changed in SAFEOP or OP */
    528                              result = SYNCMANCHADDRESS+1;
   \                     ??CheckSmSettings_32: (+1)
   \      0x1EA   0x2402             MOVS     R4,#+2
   \      0x1EC   0xE00A             B.N      ??CheckSmSettings_25
    529                      }
    530                      else
    531                          /* input settings do not match */
    532                          result = SYNCMANCHSETTINGS+1;
   \                     ??CheckSmSettings_29: (+1)
   \      0x1EE   0x2404             MOVS     R4,#+4
   \      0x1F0   0xE008             B.N      ??CheckSmSettings_25
    533                  }
    534                  else if ( SMLength != 0 || nPdInputSize != 0 )
   \                     ??CheckSmSettings_26: (+1)
   \      0x1F2   0xB29B             UXTH     R3,R3            ;; ZeroExt  R3,R3,#+16,#+16
   \      0x1F4   0x2B00             CMP      R3,#+0
   \      0x1F6   0xD104             BNE.N    ??CheckSmSettings_33
   \      0x1F8   0x.... 0x....      LDR.W    R0,??DataTable10_1
   \      0x1FC   0x8800             LDRH     R0,[R0, #+0]
   \      0x1FE   0x2800             CMP      R0,#+0
   \      0x200   0xD000             BEQ.N    ??CheckSmSettings_25
    535                  {
    536                      /* input size is not zero although the SM3 channel is not enabled */
    537                      result = SYNCMANCHSIZE+1;
   \                     ??CheckSmSettings_33: (+1)
   \      0x202   0x2403             MOVS     R4,#+3
    538                  }
    539          
    540          
    541          
    542                  if ( result != 0 )
   \                     ??CheckSmSettings_25: (+1)
   \      0x204   0x0020             MOVS     R0,R4
   \      0x206   0xB2C0             UXTB     R0,R0            ;; ZeroExt  R0,R0,#+24,#+24
   \      0x208   0x2800             CMP      R0,#+0
   \      0x20A   0xD000             BEQ.N    ??CheckSmSettings_21
    543                  {
    544                      result = ALSTATUSCODE_INVALIDSMINCFG;
   \      0x20C   0x241E             MOVS     R4,#+30
    545                  }
    546              }
    547          
    548          
    549          //    else
    550              if ( result == 0 && maxChannel > PROCESS_DATA_OUT )
   \                     ??CheckSmSettings_21: (+1)
   \      0x20E   0x0020             MOVS     R0,R4
   \      0x210   0xB2C0             UXTB     R0,R0            ;; ZeroExt  R0,R0,#+24,#+24
   \      0x212   0x2800             CMP      R0,#+0
   \      0x214   0xD174             BNE.N    ??CheckSmSettings_34
   \      0x216   0x0028             MOVS     R0,R5
   \      0x218   0xB2C0             UXTB     R0,R0            ;; ZeroExt  R0,R0,#+24,#+24
   \      0x21A   0x2803             CMP      R0,#+3
   \      0x21C   0xDB70             BLT.N    ??CheckSmSettings_34
    551              {
    552                  /* check the Sync Manager Parameter for the Outputs (Sync Manager Channel 2) */
    553          /*ECATCHANGE_START(V5.11) HW1*/
    554                  pSyncMan = GetSyncMan(PROCESS_DATA_OUT);
   \      0x21E   0x2002             MOVS     R0,#+2
   \      0x220   0x.... 0x....      BL       GetSyncMan
   \      0x224   0x0001             MOVS     R1,R0
    555          /*ECATCHANGE_END(V5.11) HW1*/
    556          
    557                  SMLength = pSyncMan->Length;
   \      0x226   0x884B             LDRH     R3,[R1, #+2]
    558                  SMAddress = pSyncMan->PhysicalStartAddress;
   \      0x228   0x880A             LDRH     R2,[R1, #+0]
    559          
    560          /* ECATCHANGE_START(V5.11) HW2*/
    561                  //Check if the start address and length are even 16Bit addresses
    562                  if ((SMLength & 0x1) > 0)
   \      0x22A   0x0018             MOVS     R0,R3
   \      0x22C   0xB280             UXTH     R0,R0            ;; ZeroExt  R0,R0,#+16,#+16
   \      0x22E   0xF010 0x0001      ANDS     R0,R0,#0x1
   \      0x232   0x2801             CMP      R0,#+1
   \      0x234   0xDB01             BLT.N    ??CheckSmSettings_35
    563                      return ALSTATUSCODE_INVALIDSMCFG;
   \      0x236   0x2017             MOVS     R0,#+23
   \      0x238   0xE079             B.N      ??CheckSmSettings_2
    564          
    565                  if ((SMAddress & 0x1) > 0)
   \                     ??CheckSmSettings_35: (+1)
   \      0x23A   0x0010             MOVS     R0,R2
   \      0x23C   0xB280             UXTH     R0,R0            ;; ZeroExt  R0,R0,#+16,#+16
   \      0x23E   0xF010 0x0001      ANDS     R0,R0,#0x1
   \      0x242   0x2801             CMP      R0,#+1
   \      0x244   0xDB01             BLT.N    ??CheckSmSettings_36
    566                      return ALSTATUSCODE_INVALIDSMCFG;
   \      0x246   0x2017             MOVS     R0,#+23
   \      0x248   0xE071             B.N      ??CheckSmSettings_2
    567          /* ECATCHANGE_END(V5.11) HW2*/
    568          
    569                  if ( (pSyncMan->Settings[SM_SETTING_ACTIVATE_OFFSET] & SM_SETTING_ENABLE_VALUE) != 0 && SMLength == 0 )
   \                     ??CheckSmSettings_36: (+1)
   \      0x24A   0x7988             LDRB     R0,[R1, #+6]
   \      0x24C   0x07C0             LSLS     R0,R0,#+31
   \      0x24E   0xD505             BPL.N    ??CheckSmSettings_37
   \      0x250   0x0018             MOVS     R0,R3
   \      0x252   0xB280             UXTH     R0,R0            ;; ZeroExt  R0,R0,#+16,#+16
   \      0x254   0x2800             CMP      R0,#+0
   \      0x256   0xD101             BNE.N    ??CheckSmSettings_37
    570                          /* the SM2 size is 0 and the SM2 is active */
    571                          result = SYNCMANCHSETTINGS+1;
   \      0x258   0x2404             MOVS     R4,#+4
   \      0x25A   0xE04C             B.N      ??CheckSmSettings_38
    572                  else if (pSyncMan->Settings[SM_SETTING_ACTIVATE_OFFSET] & SM_SETTING_ENABLE_VALUE)
   \                     ??CheckSmSettings_37: (+1)
   \      0x25C   0x7988             LDRB     R0,[R1, #+6]
   \      0x25E   0x07C0             LSLS     R0,R0,#+31
   \      0x260   0xD540             BPL.N    ??CheckSmSettings_39
    573                  {
    574                      /* Sync Manager Channel 2 is active, output size has to greater 0 */
    575                      if ( SMLength == nPdOutputSize && nPdOutputSize != 0 && SMLength <= ((UINT16)MAX_PD_OUTPUT_SIZE))
   \      0x262   0x.... 0x....      LDR.W    R0,??DataTable10_4
   \      0x266   0x001E             MOVS     R6,R3
   \      0x268   0x8807             LDRH     R7,[R0, #+0]
   \      0x26A   0xB2B6             UXTH     R6,R6            ;; ZeroExt  R6,R6,#+16,#+16
   \      0x26C   0x42BE             CMP      R6,R7
   \      0x26E   0xD137             BNE.N    ??CheckSmSettings_40
   \      0x270   0x8800             LDRH     R0,[R0, #+0]
   \      0x272   0x2800             CMP      R0,#+0
   \      0x274   0xD034             BEQ.N    ??CheckSmSettings_40
   \      0x276   0xB29B             UXTH     R3,R3            ;; ZeroExt  R3,R3,#+16,#+16
   \      0x278   0x2B45             CMP      R3,#+69
   \      0x27A   0xDA31             BGE.N    ??CheckSmSettings_40
    576          
    577                      {
    578                          /* sizes match */
    579                          if ( (pSyncMan->Settings[SM_SETTING_CONTROL_OFFSET] & SM_SETTING_DIRECTION_MASK) == SM_SETTING_DIRECTION_WRITE_VALUE )
   \      0x27C   0x7908             LDRB     R0,[R1, #+4]
   \      0x27E   0xF010 0x000C      ANDS     R0,R0,#0xC
   \      0x282   0x2804             CMP      R0,#+4
   \      0x284   0xD12A             BNE.N    ??CheckSmSettings_41
    580                          {
    581                              /* settings match */
    582                              if ( ( ( nAlStatus == STATE_PREOP )&&( SMAddress >= MIN_PD_WRITE_ADDRESS )&&( SMAddress <= MAX_PD_WRITE_ADDRESS ) )
    583                                 ||( ( nAlStatus != STATE_PREOP )&&( SMAddress == nEscAddrOutputData ) )
    584                                  )
   \      0x286   0x.... 0x....      LDR.W    R0,??DataTable10_2
   \      0x28A   0x7803             LDRB     R3,[R0, #+0]
   \      0x28C   0x2B02             CMP      R3,#+2
   \      0x28E   0xD106             BNE.N    ??CheckSmSettings_42
   \      0x290   0x0013             MOVS     R3,R2
   \      0x292   0xB29B             UXTH     R3,R3            ;; ZeroExt  R3,R3,#+16,#+16
   \      0x294   0xF5B3 0x5380      SUBS     R3,R3,#+4096
   \      0x298   0xF5B3 0x5F00      CMP      R3,#+8192
   \      0x29C   0xD308             BCC.N    ??CheckSmSettings_43
   \                     ??CheckSmSettings_42: (+1)
   \      0x29E   0x7800             LDRB     R0,[R0, #+0]
   \      0x2A0   0x2802             CMP      R0,#+2
   \      0x2A2   0xD019             BEQ.N    ??CheckSmSettings_44
   \      0x2A4   0x.... 0x....      LDR.W    R0,??DataTable10_5
   \      0x2A8   0x8800             LDRH     R0,[R0, #+0]
   \      0x2AA   0xB292             UXTH     R2,R2            ;; ZeroExt  R2,R2,#+16,#+16
   \      0x2AC   0x4282             CMP      R2,R0
   \      0x2AE   0xD113             BNE.N    ??CheckSmSettings_44
    585                              {
    586                                  /* addresses match */
    587                                  {
    588                                      /* check, if watchdog trigger is enabled */
    589                                      if (pSyncMan->Settings[SM_SETTING_CONTROL_OFFSET] & SM_SETTING_WATCHDOG_VALUE)
   \                     ??CheckSmSettings_43: (+1)
   \      0x2B0   0x7908             LDRB     R0,[R1, #+4]
   \      0x2B2   0x0640             LSLS     R0,R0,#+25
   \      0x2B4   0xD504             BPL.N    ??CheckSmSettings_45
    590                                      {
    591                                          bWdTrigger = TRUE;
   \      0x2B6   0x2001             MOVS     R0,#+1
   \      0x2B8   0x.... 0x....      LDR.W    R2,??DataTable10_6
   \      0x2BC   0x7010             STRB     R0,[R2, #+0]
   \      0x2BE   0xE003             B.N      ??CheckSmSettings_46
    592                                      }
    593                                      else
    594                                      {
    595                                          bWdTrigger = FALSE;
   \                     ??CheckSmSettings_45: (+1)
   \      0x2C0   0x2000             MOVS     R0,#+0
   \      0x2C2   0x.... 0x....      LDR.W    R2,??DataTable10_6
   \      0x2C6   0x7010             STRB     R0,[R2, #+0]
    596                                      }
    597          
    598                                      if ( (pSyncMan->Settings[SM_SETTING_CONTROL_OFFSET] & SM_SETTING_MODE_MASK) == SM_SETTING_MODE_ONE_BUFFER_VALUE )
   \                     ??CheckSmSettings_46: (+1)
   \      0x2C8   0x7908             LDRB     R0,[R1, #+4]
   \      0x2CA   0x0780             LSLS     R0,R0,#+30
   \      0x2CC   0xD513             BPL.N    ??CheckSmSettings_38
    599                                          /* outputs are running in 1-Buffer-Mode, reset flag b3BufferMode */
    600                                          b3BufferMode = FALSE;
   \      0x2CE   0x2000             MOVS     R0,#+0
   \      0x2D0   0x.... 0x....      LDR.W    R1,??DataTable10
   \      0x2D4   0x7008             STRB     R0,[R1, #+0]
   \      0x2D6   0xE00E             B.N      ??CheckSmSettings_38
    601                                  }
    602                              }
    603                              else
    604                                  /* output address is out of the allowed area or has changed in SAFEOP or OP */
    605                                  result = SYNCMANCHADDRESS+1;
   \                     ??CheckSmSettings_44: (+1)
   \      0x2D8   0x2402             MOVS     R4,#+2
   \      0x2DA   0xE00C             B.N      ??CheckSmSettings_38
    606                          }
    607                          else
    608                              /* output settings do not match */
    609                              result = SYNCMANCHSETTINGS+1;
   \                     ??CheckSmSettings_41: (+1)
   \      0x2DC   0x2404             MOVS     R4,#+4
   \      0x2DE   0xE00A             B.N      ??CheckSmSettings_38
    610                      }
    611                      else
    612                          /* output sizes don't match */
    613                          result = SYNCMANCHSIZE+1;
   \                     ??CheckSmSettings_40: (+1)
   \      0x2E0   0x2403             MOVS     R4,#+3
   \      0x2E2   0xE008             B.N      ??CheckSmSettings_38
    614                  }
    615                  else if ( SMLength != 0 || nPdOutputSize != 0 )
   \                     ??CheckSmSettings_39: (+1)
   \      0x2E4   0xB29B             UXTH     R3,R3            ;; ZeroExt  R3,R3,#+16,#+16
   \      0x2E6   0x2B00             CMP      R3,#+0
   \      0x2E8   0xD104             BNE.N    ??CheckSmSettings_47
   \      0x2EA   0x.... 0x....      LDR.W    R0,??DataTable10_4
   \      0x2EE   0x8800             LDRH     R0,[R0, #+0]
   \      0x2F0   0x2800             CMP      R0,#+0
   \      0x2F2   0xD000             BEQ.N    ??CheckSmSettings_38
    616                      /* output size is not zero although the SM2 channel is not enabled */
    617                      result = SYNCMANCHSIZE+1;
   \                     ??CheckSmSettings_47: (+1)
   \      0x2F4   0x2403             MOVS     R4,#+3
    618          
    619                  if ( result != 0 )
   \                     ??CheckSmSettings_38: (+1)
   \      0x2F6   0x0020             MOVS     R0,R4
   \      0x2F8   0xB2C0             UXTB     R0,R0            ;; ZeroExt  R0,R0,#+24,#+24
   \      0x2FA   0x2800             CMP      R0,#+0
   \      0x2FC   0xD000             BEQ.N    ??CheckSmSettings_34
    620                  {
    621                      result = ALSTATUSCODE_INVALIDSMOUTCFG;
   \      0x2FE   0x241D             MOVS     R4,#+29
    622                  }
    623              }
    624          
    625          
    626              if ( result == 0 )
   \                     ??CheckSmSettings_34: (+1)
   \      0x300   0x0020             MOVS     R0,R4
   \      0x302   0xB2C0             UXTB     R0,R0            ;; ZeroExt  R0,R0,#+24,#+24
   \      0x304   0x2800             CMP      R0,#+0
   \      0x306   0xD110             BNE.N    ??CheckSmSettings_48
    627              {
    628                  /* the Enable-Byte of the rest of the SM channels has to be read to acknowledge the SM-Change-Interrupt */
    629                  for (i = maxChannel; i < nMaxSyncMan; i++)
   \      0x308   0xE008             B.N      ??CheckSmSettings_49
    630                  {
    631          /*ECATCHANGE_START(V5.11) HW1*/
    632                      pSyncMan = GetSyncMan(i);
   \                     ??CheckSmSettings_50: (+1)
   \      0x30A   0x0028             MOVS     R0,R5
   \      0x30C   0xB2C0             UXTB     R0,R0            ;; ZeroExt  R0,R0,#+24,#+24
   \      0x30E   0x.... 0x....      BL       GetSyncMan
    633          /*ECATCHANGE_END(V5.11) HW1*/
    634                      SMActivate = pSyncMan->Settings[SM_SETTING_ACTIVATE_OFFSET];
   \      0x312   0x88C0             LDRH     R0,[R0, #+6]
   \      0x314   0x.... 0x....      LDR.W    R1,??DataTable10_7
   \      0x318   0x8008             STRH     R0,[R1, #+0]
    635                  }
   \      0x31A   0x1C6D             ADDS     R5,R5,#+1
   \                     ??CheckSmSettings_49: (+1)
   \      0x31C   0x0028             MOVS     R0,R5
   \      0x31E   0x.... 0x....      LDR.W    R1,??DataTable12
   \      0x322   0x7809             LDRB     R1,[R1, #+0]
   \      0x324   0xB2C0             UXTB     R0,R0            ;; ZeroExt  R0,R0,#+24,#+24
   \      0x326   0x4288             CMP      R0,R1
   \      0x328   0xD3EF             BCC.N    ??CheckSmSettings_50
    636              }
    637              return result;
   \                     ??CheckSmSettings_48: (+1)
   \      0x32A   0x0020             MOVS     R0,R4
   \      0x32C   0xB2C0             UXTB     R0,R0            ;; ZeroExt  R0,R0,#+24,#+24
   \                     ??CheckSmSettings_2: (+1)
   \      0x32E   0xBDF2             POP      {R1,R4-R7,PC}    ;; return
    638          }
    639          
    640          /////////////////////////////////////////////////////////////////////////////////////////
    641          /**
    642           \return    AL Status Code (see ecatslv.h ALSTATUSCODE_....)
    643          
    644           \brief    This function is called in case of the state transition from PREOP to SAFEOP.
    645           |brief  the areas of the Sync Managers will be checked for overlapping,
    646           \brief  the synchronization mode (Free Run, Synchron, Distributed Clocks) is selected,
    647           \brief  the requested cycle time will be checked, the watchdog is started
    648           \brief  and the AL Event Mask register will be set
    649          
    650          *////////////////////////////////////////////////////////////////////////////////////////
    651          

   \                                 In section .text, align 2, keep-with-next
    652          UINT16 StartInputHandler(void)
    653          {
   \                     StartInputHandler: (+1)
   \        0x0   0xE92D 0x4FFE      PUSH     {R1-R11,LR}
    654              TSYNCMAN ESCMEM * pSyncMan;
    655              UINT16        dcControl;
    656              UINT16     wdiv = 0;
   \        0x4   0x2000             MOVS     R0,#+0
   \        0x6   0xF8AD 0x0002      STRH     R0,[SP, #+2]
    657          /*ECATCHANGE_START(V5.11) ECAT4*/
    658              UINT16     wd = 0;
   \        0xA   0x2000             MOVS     R0,#+0
   \        0xC   0xF8AD 0x0000      STRH     R0,[SP, #+0]
    659          /*ECATCHANGE_END(V5.11) ECAT4*/
    660          
    661              UINT16    nPdInputBuffer = 3;
   \       0x10   0xF05F 0x0803      MOVS     R8,#+3
    662              UINT16    nPdOutputBuffer = 3;
   \       0x14   0xF05F 0x0A03      MOVS     R10,#+3
    663          
    664              UINT16 SyncType0x1C32 = 0; /* Helper variable for sync type for SM2 (required if no CoE is supported or no output process data available)*/
   \       0x18   0x2000             MOVS     R0,#+0
    665              UINT16 SyncType0x1C33 = 0; /* Helper variable for sync type for SM3 (required if no CoE is supported or no input process data available)*/
   \       0x1A   0x2000             MOVS     R0,#+0
    666          
    667              UINT16 u16MinSuppSyncType = 0xFFFF;  /* Minimum supported Sync Types */
   \       0x1C   0xF64F 0x71FF      MOVW     R1,#+65535
    668          
    669              u16MinSuppSyncType &= sSyncManOutPar.u16SyncTypesSupported;
   \       0x20   0x.... 0x....      LDR.W    R4,??DataTable11
   \       0x24   0x89A0             LDRH     R0,[R4, #+12]
   \       0x26   0x4001             ANDS     R1,R0,R1
    670              u16MinSuppSyncType &= sSyncManInPar.u16SyncTypesSupported;
   \       0x28   0x.... 0x....      LDR.W    R5,??DataTable11_1
   \       0x2C   0x89A8             LDRH     R0,[R5, #+12]
   \       0x2E   0x4001             ANDS     R1,R0,R1
    671          
    672              u16ALEventMask = 0;
   \       0x30   0x.... 0x....      LDR.W    R6,??DataTable11_2
   \       0x34   0x2000             MOVS     R0,#+0
   \       0x36   0x8030             STRH     R0,[R6, #+0]
    673          
    674              /* 
    675                  --- Check if SyncManager areas overlapping --- 
    676              */
    677              bEcatFirstOutputsReceived = FALSE;
   \       0x38   0x2000             MOVS     R0,#+0
   \       0x3A   0x.... 0x....      LDR.W    R1,??DataTable11_3
   \       0x3E   0x7008             STRB     R0,[R1, #+0]
    678          
    679              /* get a pointer to the Sync Manager Channel 2 (Outputs) */
    680          /*ECATCHANGE_START(V5.11) HW1*/
    681              pSyncMan = GetSyncMan(PROCESS_DATA_OUT);
   \       0x40   0x2002             MOVS     R0,#+2
   \       0x42   0x.... 0x....      BL       GetSyncMan
    682          /*ECATCHANGE_END(V5.11) HW1*/
    683              /* store the address of the Sync Manager Channel 2 (Outputs) */
    684              nEscAddrOutputData = pSyncMan->PhysicalStartAddress;
   \       0x46   0x.... 0x....      LDR.W    R9,??DataTable10_5
   \       0x4A   0x8801             LDRH     R1,[R0, #+0]
   \       0x4C   0xF8A9 0x1000      STRH     R1,[R9, #+0]
    685              /* get the number of output buffer used for calculating the address areas */
    686              if (pSyncMan->Settings[SM_SETTING_CONTROL_OFFSET] & SM_SETTING_MODE_ONE_BUFFER_VALUE)
   \       0x50   0x7900             LDRB     R0,[R0, #+4]
   \       0x52   0x0780             LSLS     R0,R0,#+30
   \       0x54   0xD501             BPL.N    ??StartInputHandler_0
    687              {
    688                 nPdOutputBuffer = 1;
   \       0x56   0xF05F 0x0A01      MOVS     R10,#+1
    689              }
    690          
    691          
    692              /* get a pointer to the Sync Manager Channel 3 (Inputs) */
    693          /*ECATCHANGE_START(V5.11) HW1*/
    694              pSyncMan = GetSyncMan(PROCESS_DATA_IN);
   \                     ??StartInputHandler_0: (+1)
   \       0x5A   0x2003             MOVS     R0,#+3
   \       0x5C   0x.... 0x....      BL       GetSyncMan
    695          /*ECATCHANGE_END(V5.11) HW1*/
    696              /* store the address of the Sync Manager Channel 3 (Inputs)*/
    697              nEscAddrInputData = pSyncMan->PhysicalStartAddress;
   \       0x60   0x.... 0x....      LDR.W    R1,??DataTable10_3
   \       0x64   0x8802             LDRH     R2,[R0, #+0]
   \       0x66   0x800A             STRH     R2,[R1, #+0]
    698              
    699              /* get the number of input buffer used for calculating the address areas */
    700              if ( pSyncMan->Settings[SM_SETTING_CONTROL_OFFSET] & SM_SETTING_MODE_ONE_BUFFER_VALUE )
   \       0x68   0x7900             LDRB     R0,[R0, #+4]
   \       0x6A   0x0780             LSLS     R0,R0,#+30
   \       0x6C   0xD501             BPL.N    ??StartInputHandler_1
    701                  nPdInputBuffer = 1;
   \       0x6E   0xF05F 0x0801      MOVS     R8,#+1
    702          
    703              /* it has be checked if the Sync Manager memory areas for Inputs and Outputs will not overlap
    704                 the Sync Manager memory areas for the Mailbox */
    705          
    706              if (((nEscAddrInputData + nPdInputSize * nPdInputBuffer) > u16EscAddrSendMbx && (nEscAddrInputData < (u16EscAddrSendMbx + u16SendMbxSize)))
    707                 || ((nEscAddrInputData + nPdInputSize * nPdInputBuffer) > u16EscAddrReceiveMbx && (nEscAddrInputData < (u16EscAddrReceiveMbx + u16ReceiveMbxSize)))
    708                  )
   \                     ??StartInputHandler_1: (+1)
   \       0x72   0x.... 0x....      LDR.W    R7,??DataTable10_1
   \       0x76   0x.... 0x....      LDR.W    R2,??DataTable12_1
   \       0x7A   0x8813             LDRH     R3,[R2, #+0]
   \       0x7C   0xF8B1 0xC000      LDRH     R12,[R1, #+0]
   \       0x80   0xF8B7 0xE000      LDRH     LR,[R7, #+0]
   \       0x84   0x4640             MOV      R0,R8
   \       0x86   0xB280             UXTH     R0,R0            ;; ZeroExt  R0,R0,#+16,#+16
   \       0x88   0xFB00 0xFE0E      MUL      LR,R0,LR
   \       0x8C   0xFA1E 0xF08C      UXTAH    R0,LR,R12
   \       0x90   0x4283             CMP      R3,R0
   \       0x92   0xDA09             BGE.N    ??StartInputHandler_2
   \       0x94   0x8808             LDRH     R0,[R1, #+0]
   \       0x96   0x8813             LDRH     R3,[R2, #+0]
   \       0x98   0x.... 0x....      LDR.W    R12,??DataTable12_2
   \       0x9C   0xF8BC 0xC000      LDRH     R12,[R12, #+0]
   \       0xA0   0xFA1C 0xF383      UXTAH    R3,R12,R3
   \       0xA4   0x4298             CMP      R0,R3
   \       0xA6   0xDB19             BLT.N    ??StartInputHandler_3
   \                     ??StartInputHandler_2: (+1)
   \       0xA8   0x.... 0x....      LDR.W    R3,??DataTable12_3
   \       0xAC   0x8818             LDRH     R0,[R3, #+0]
   \       0xAE   0xF8B1 0xC000      LDRH     R12,[R1, #+0]
   \       0xB2   0xF8B7 0xE000      LDRH     LR,[R7, #+0]
   \       0xB6   0xFA1F 0xF888      UXTH     R8,R8            ;; ZeroExt  R8,R8,#+16,#+16
   \       0xBA   0xFB08 0xF80E      MUL      R8,R8,LR
   \       0xBE   0xFA18 0xFC8C      UXTAH    R12,R8,R12
   \       0xC2   0x4560             CMP      R0,R12
   \       0xC4   0xDA0C             BGE.N    ??StartInputHandler_4
   \       0xC6   0x8808             LDRH     R0,[R1, #+0]
   \       0xC8   0xF8B3 0xC000      LDRH     R12,[R3, #+0]
   \       0xCC   0x.... 0x....      LDR.W    LR,??DataTable12_4
   \       0xD0   0xF8BE 0xE000      LDRH     LR,[LR, #+0]
   \       0xD4   0xFA1E 0xFC8C      UXTAH    R12,LR,R12
   \       0xD8   0x4560             CMP      R0,R12
   \       0xDA   0xDA01             BGE.N    ??StartInputHandler_4
    709              {
    710                  return ALSTATUSCODE_INVALIDSMINCFG;
   \                     ??StartInputHandler_3: (+1)
   \       0xDC   0x201E             MOVS     R0,#+30
   \       0xDE   0xE13C             B.N      ??StartInputHandler_5
    711              }
    712          
    713              if (
    714                  ((nEscAddrOutputData + nPdOutputSize * nPdOutputBuffer) > u16EscAddrSendMbx && (nEscAddrOutputData < (u16EscAddrSendMbx + u16SendMbxSize)))
    715                  ||((nEscAddrOutputData + nPdOutputSize * nPdOutputBuffer) > u16EscAddrReceiveMbx && (nEscAddrOutputData < (u16EscAddrReceiveMbx + u16ReceiveMbxSize)))
    716                  ||
    717                  ((nEscAddrOutputData + nPdOutputSize * nPdOutputBuffer) > nEscAddrInputData && (nEscAddrOutputData < (nEscAddrInputData + nPdInputSize)))
    718                  )
   \                     ??StartInputHandler_4: (+1)
   \       0xE0   0x.... 0x....      LDR.W    R8,??DataTable10_4
   \       0xE4   0xF8B2 0xC000      LDRH     R12,[R2, #+0]
   \       0xE8   0xF8B9 0xE000      LDRH     LR,[R9, #+0]
   \       0xEC   0xF8B8 0xB000      LDRH     R11,[R8, #+0]
   \       0xF0   0x4650             MOV      R0,R10
   \       0xF2   0xB280             UXTH     R0,R0            ;; ZeroExt  R0,R0,#+16,#+16
   \       0xF4   0xFB00 0xFB0B      MUL      R11,R0,R11
   \       0xF8   0xFA1B 0xF08E      UXTAH    R0,R11,LR
   \       0xFC   0x4584             CMP      R12,R0
   \       0xFE   0xDA0A             BGE.N    ??StartInputHandler_6
   \      0x100   0xF8B9 0x0000      LDRH     R0,[R9, #+0]
   \      0x104   0x8812             LDRH     R2,[R2, #+0]
   \      0x106   0x.... 0x....      LDR.W    R12,??DataTable12_2
   \      0x10A   0xF8BC 0xC000      LDRH     R12,[R12, #+0]
   \      0x10E   0xFA1C 0xF282      UXTAH    R2,R12,R2
   \      0x112   0x4290             CMP      R0,R2
   \      0x114   0xDB2B             BLT.N    ??StartInputHandler_7
   \                     ??StartInputHandler_6: (+1)
   \      0x116   0x881A             LDRH     R2,[R3, #+0]
   \      0x118   0xF8B9 0xC000      LDRH     R12,[R9, #+0]
   \      0x11C   0xF8B8 0xE000      LDRH     LR,[R8, #+0]
   \      0x120   0x4650             MOV      R0,R10
   \      0x122   0xB280             UXTH     R0,R0            ;; ZeroExt  R0,R0,#+16,#+16
   \      0x124   0xFB00 0xFE0E      MUL      LR,R0,LR
   \      0x128   0xFA1E 0xF08C      UXTAH    R0,LR,R12
   \      0x12C   0x4282             CMP      R2,R0
   \      0x12E   0xDA09             BGE.N    ??StartInputHandler_8
   \      0x130   0xF8B9 0x0000      LDRH     R0,[R9, #+0]
   \      0x134   0x881A             LDRH     R2,[R3, #+0]
   \      0x136   0x.... 0x....      LDR.W    R3,??DataTable12_4
   \      0x13A   0x881B             LDRH     R3,[R3, #+0]
   \      0x13C   0xFA13 0xF282      UXTAH    R2,R3,R2
   \      0x140   0x4290             CMP      R0,R2
   \      0x142   0xDB14             BLT.N    ??StartInputHandler_7
   \                     ??StartInputHandler_8: (+1)
   \      0x144   0x8808             LDRH     R0,[R1, #+0]
   \      0x146   0xF8B9 0x2000      LDRH     R2,[R9, #+0]
   \      0x14A   0xF8B8 0x3000      LDRH     R3,[R8, #+0]
   \      0x14E   0xFA1F 0xFA8A      UXTH     R10,R10          ;; ZeroExt  R10,R10,#+16,#+16
   \      0x152   0xFB0A 0xFA03      MUL      R10,R10,R3
   \      0x156   0xFA1A 0xF282      UXTAH    R2,R10,R2
   \      0x15A   0x4290             CMP      R0,R2
   \      0x15C   0xDA09             BGE.N    ??StartInputHandler_9
   \      0x15E   0xF8B9 0x0000      LDRH     R0,[R9, #+0]
   \      0x162   0x8809             LDRH     R1,[R1, #+0]
   \      0x164   0x883A             LDRH     R2,[R7, #+0]
   \      0x166   0xFA12 0xF181      UXTAH    R1,R2,R1
   \      0x16A   0x4288             CMP      R0,R1
   \      0x16C   0xDA01             BGE.N    ??StartInputHandler_9
    719              {
    720                  /* Sync Manager Channel 2 memory area (Outputs) overlaps the Sync Manager memory areas for the Mailbox
    721                     or the Sync Manager Channel 3 memory area (Inputs) */
    722                  return ALSTATUSCODE_INVALIDSMOUTCFG;
   \                     ??StartInputHandler_7: (+1)
   \      0x16E   0x201D             MOVS     R0,#+29
   \      0x170   0xE0F3             B.N      ??StartInputHandler_5
    723              }
    724          
    725              /* 
    726                  --- Check configured synchronisation ---
    727              */
    728          
    729              /* Get the DC Control/Activation register value*/
    730              /*Read registers 0x980:0x981 (corresponding masks are adapted)*/
    731              HW_EscReadWord(dcControl, ESC_DC_UNIT_CONTROL_OFFSET);
   \                     ??StartInputHandler_9: (+1)
   \      0x172   0x2202             MOVS     R2,#+2
   \      0x174   0xF44F 0x6118      MOV      R1,#+2432
   \      0x178   0xA801             ADD      R0,SP,#+4
   \      0x17A   0x.... 0x....      BL       HW_EscRead
    732              dcControl = SWAPWORD(dcControl);
    733          
    734          
    735          
    736              SyncType0x1C32 = sSyncManOutPar.u16SyncType;
   \      0x17E   0x8861             LDRH     R1,[R4, #+2]
    737              SyncType0x1C33 = sSyncManInPar.u16SyncType;
   \      0x180   0x886A             LDRH     R2,[R5, #+2]
    738          
    739          
    740          
    741              /* check general DC register plausibility and if configuration is supported
    742                 - 0x981 DC Active
    743                 - 0x9A0:0x9A3 Sync0 Cycle
    744                 - 0x9A4:0x9A7 Sync1 Cycle
    745              */
    746              /*DC out unit shall not be active because no DC supported*/
    747              if((dcControl & (ESC_DC_SYNC_UNIT_ACTIVE_MASK | ESC_DC_SYNC_UNIT_AUTO_ACTIVE_MASK)) != 0)
   \      0x182   0xF8BD 0x0004      LDRH     R0,[SP, #+4]
   \      0x186   0xF410 0x6F10      TST      R0,#0x900
   \      0x18A   0xD001             BEQ.N    ??StartInputHandler_10
    748              {
    749          
    750                  return ALSTATUSCODE_DCINVALIDSYNCCFG;
   \      0x18C   0x2030             MOVS     R0,#+48
   \      0x18E   0xE0E4             B.N      ??StartInputHandler_5
    751              }
    752          
    753              /*
    754                  Check if the user configured Sync Type matches the DC register values (if the Sync Type is supported was already checked in the object write function)
    755              */
    756              if(bSyncSetByUser)
   \                     ??StartInputHandler_10: (+1)
   \      0x190   0x.... 0x....      LDR.W    R0,??DataTable12_5
   \      0x194   0x7800             LDRB     R0,[R0, #+0]
   \      0x196   0x2800             CMP      R0,#+0
   \      0x198   0xD011             BEQ.N    ??StartInputHandler_11
    757              {
    758                  {
    759                      /* DC out unit not enabled => no DC mode shall be set */
    760                      if((SyncType0x1C32 == SYNCTYPE_DCSYNC0) || (SyncType0x1C32 == SYNCTYPE_DCSYNC1)
    761                          ||(SyncType0x1C33 == SYNCTYPE_DCSYNC0) || (SyncType0x1C33 == SYNCTYPE_DCSYNC1))
   \      0x19A   0x0008             MOVS     R0,R1
   \      0x19C   0xB280             UXTH     R0,R0            ;; ZeroExt  R0,R0,#+16,#+16
   \      0x19E   0x2802             CMP      R0,#+2
   \      0x1A0   0xD00B             BEQ.N    ??StartInputHandler_12
   \      0x1A2   0x0008             MOVS     R0,R1
   \      0x1A4   0xB280             UXTH     R0,R0            ;; ZeroExt  R0,R0,#+16,#+16
   \      0x1A6   0x2803             CMP      R0,#+3
   \      0x1A8   0xD007             BEQ.N    ??StartInputHandler_12
   \      0x1AA   0x0010             MOVS     R0,R2
   \      0x1AC   0xB280             UXTH     R0,R0            ;; ZeroExt  R0,R0,#+16,#+16
   \      0x1AE   0x2802             CMP      R0,#+2
   \      0x1B0   0xD003             BEQ.N    ??StartInputHandler_12
   \      0x1B2   0x0010             MOVS     R0,R2
   \      0x1B4   0xB280             UXTH     R0,R0            ;; ZeroExt  R0,R0,#+16,#+16
   \      0x1B6   0x2803             CMP      R0,#+3
   \      0x1B8   0xD117             BNE.N    ??StartInputHandler_13
    762                      {
    763                          return ALSTATUSCODE_DCINVALIDSYNCCFG;
   \                     ??StartInputHandler_12: (+1)
   \      0x1BA   0x2030             MOVS     R0,#+48
   \      0x1BC   0xE0CD             B.N      ??StartInputHandler_5
    764                      }
    765                  } //if((dcControl & (ESC_DC_SYNC_UNIT_ACTIVE_MASK | ESC_DC_SYNC_UNIT_AUTO_ACTIVE_MASK)) == 0)
    766              {
    767          
    768                  }
    769              } //if(bSyncSetByUser)
    770              else
    771              {
    772                  /* No Sync Type selected by user => Configure Sync Type based on DC register values*/
    773                  {
    774                      /* Activation or auto activation of the Sync Out Unit is disabled => Free Run or SM Sync is configured*/
    775          
    776                      /* AL Event enabled => Configure SM Sync*/
    777                      if (nPdOutputSize > 0)
   \                     ??StartInputHandler_11: (+1)
   \      0x1BE   0xF8B8 0x0000      LDRH     R0,[R8, #+0]
   \      0x1C2   0x2800             CMP      R0,#+0
   \      0x1C4   0xD007             BEQ.N    ??StartInputHandler_14
    778                      {
    779                          SyncType0x1C32 = SYNCTYPE_SM_SYNCHRON;
   \      0x1C6   0x2101             MOVS     R1,#+1
    780                          
    781                          if (nPdInputSize > 0)
   \      0x1C8   0x8838             LDRH     R0,[R7, #+0]
   \      0x1CA   0x2800             CMP      R0,#+0
   \      0x1CC   0xD001             BEQ.N    ??StartInputHandler_15
    782                              SyncType0x1C33 = SYNCTYPE_SM2_SYNCHRON;
   \      0x1CE   0x2222             MOVS     R2,#+34
   \      0x1D0   0xE009             B.N      ??StartInputHandler_16
    783                          else
    784                              SyncType0x1C33 = SYNCTYPE_FREERUN;
   \                     ??StartInputHandler_15: (+1)
   \      0x1D2   0x2200             MOVS     R2,#+0
   \      0x1D4   0xE007             B.N      ??StartInputHandler_16
    785                      }
    786                      else if (nPdInputSize > 0)
   \                     ??StartInputHandler_14: (+1)
   \      0x1D6   0x8838             LDRH     R0,[R7, #+0]
   \      0x1D8   0x2800             CMP      R0,#+0
   \      0x1DA   0xD002             BEQ.N    ??StartInputHandler_17
    787                      {
    788                          SyncType0x1C32 = SYNCTYPE_FREERUN;
   \      0x1DC   0x2100             MOVS     R1,#+0
    789                          SyncType0x1C33 = SYNCTYPE_SM_SYNCHRON;
   \      0x1DE   0x2201             MOVS     R2,#+1
   \      0x1E0   0xE001             B.N      ??StartInputHandler_16
    790                      }
    791                      else
    792                      {
    793                          SyncType0x1C32 = SYNCTYPE_FREERUN;
   \                     ??StartInputHandler_17: (+1)
   \      0x1E2   0x2100             MOVS     R1,#+0
    794                          SyncType0x1C33 = SYNCTYPE_FREERUN;
   \      0x1E4   0x2200             MOVS     R2,#+0
    795                      }
    796                      sSyncManOutPar.u16GetCycleTime = 1;
   \                     ??StartInputHandler_16: (+1)
   \      0x1E6   0x2001             MOVS     R0,#+1
   \      0x1E8   0x83A0             STRH     R0,[R4, #+28]
    797          
    798                  }
    799              }
    800          
    801          
    802              /* Set global flags based on Sync Type */
    803              if ( !b3BufferMode )
   \                     ??StartInputHandler_13: (+1)
   \      0x1EA   0x.... 0x....      LDR.W    R0,??DataTable10
   \      0x1EE   0x7800             LDRB     R0,[R0, #+0]
   \      0x1F0   0x2800             CMP      R0,#+0
   \      0x1F2   0xD109             BNE.N    ??StartInputHandler_18
    804              {
    805                  /* 1-Buffer-Mode configured => For free run it shall be 3Buffer mode*/
    806                  if (( SyncType0x1C32 == SYNCTYPE_FREERUN ) || ( SyncType0x1C33 == SYNCTYPE_FREERUN ))
   \      0x1F4   0x0008             MOVS     R0,R1
   \      0x1F6   0xB280             UXTH     R0,R0            ;; ZeroExt  R0,R0,#+16,#+16
   \      0x1F8   0x2800             CMP      R0,#+0
   \      0x1FA   0xD003             BEQ.N    ??StartInputHandler_19
   \      0x1FC   0x0010             MOVS     R0,R2
   \      0x1FE   0xB280             UXTH     R0,R0            ;; ZeroExt  R0,R0,#+16,#+16
   \      0x200   0x2800             CMP      R0,#+0
   \      0x202   0xD101             BNE.N    ??StartInputHandler_18
    807                  {
    808                          return ALSTATUSCODE_FREERUNNEEDS3BUFFERMODE;
   \                     ??StartInputHandler_19: (+1)
   \      0x204   0x2029             MOVS     R0,#+41
   \      0x206   0xE0A8             B.N      ??StartInputHandler_5
    809                  }
    810              }
    811          
    812              /* If no free run is supported the EscInt is always enabled*/
    813                  if (( SyncType0x1C32 != SYNCTYPE_FREERUN ) || ( SyncType0x1C33 != SYNCTYPE_FREERUN ))
   \                     ??StartInputHandler_18: (+1)
   \      0x208   0x0008             MOVS     R0,R1
   \      0x20A   0xB280             UXTH     R0,R0            ;; ZeroExt  R0,R0,#+16,#+16
   \      0x20C   0x2800             CMP      R0,#+0
   \      0x20E   0xD103             BNE.N    ??StartInputHandler_20
   \      0x210   0x0010             MOVS     R0,R2
   \      0x212   0xB280             UXTH     R0,R0            ;; ZeroExt  R0,R0,#+16,#+16
   \      0x214   0x2800             CMP      R0,#+0
   \      0x216   0xD003             BEQ.N    ??StartInputHandler_21
    814                  {
    815                  /* ECAT Synchron Mode, the ESC interrupt is enabled */
    816                  bEscIntEnabled = TRUE;
   \                     ??StartInputHandler_20: (+1)
   \      0x218   0x2001             MOVS     R0,#+1
   \      0x21A   0x.... 0x....      LDR.W    R3,??DataTable13
   \      0x21E   0x7018             STRB     R0,[R3, #+0]
    817              }
    818          
    819                  /* Update value for AL Event Mask register (0x204) */
    820                  if(bEscIntEnabled)
   \                     ??StartInputHandler_21: (+1)
   \      0x220   0x.... 0x....      LDR.W    R9,??DataTable13
   \      0x224   0xF899 0x0000      LDRB     R0,[R9, #+0]
   \      0x228   0x2800             CMP      R0,#+0
   \      0x22A   0xD00D             BEQ.N    ??StartInputHandler_22
    821                  {
    822                      if(nPdOutputSize > 0)
   \      0x22C   0xF8B8 0x0000      LDRH     R0,[R8, #+0]
   \      0x230   0x2800             CMP      R0,#+0
   \      0x232   0xD003             BEQ.N    ??StartInputHandler_23
    823                      {
    824                          u16ALEventMask = PROCESS_OUTPUT_EVENT;
   \      0x234   0xF44F 0x6080      MOV      R0,#+1024
   \      0x238   0x8030             STRH     R0,[R6, #+0]
   \      0x23A   0xE005             B.N      ??StartInputHandler_22
    825                      }
    826                      else if(nPdInputSize > 0)
   \                     ??StartInputHandler_23: (+1)
   \      0x23C   0x8838             LDRH     R0,[R7, #+0]
   \      0x23E   0x2800             CMP      R0,#+0
   \      0x240   0xD002             BEQ.N    ??StartInputHandler_22
    827                      {
    828                          u16ALEventMask = PROCESS_INPUT_EVENT;
   \      0x242   0xF44F 0x6000      MOV      R0,#+2048
   \      0x246   0x8030             STRH     R0,[R6, #+0]
    829                      }
    830          
    831                  }
    832          
    833                  if ((SyncType0x1C32 == SYNCTYPE_DCSYNC0) || (SyncType0x1C32 == SYNCTYPE_DCSYNC1)
    834                      || (SyncType0x1C33 == SYNCTYPE_DCSYNC0) || (SyncType0x1C33 == SYNCTYPE_DCSYNC1))/* Sync to Sync0 or Sync1 is enabled*/
   \                     ??StartInputHandler_22: (+1)
   \      0x248   0x0008             MOVS     R0,R1
   \      0x24A   0xB280             UXTH     R0,R0            ;; ZeroExt  R0,R0,#+16,#+16
   \      0x24C   0x2802             CMP      R0,#+2
   \      0x24E   0xD00B             BEQ.N    ??StartInputHandler_24
   \      0x250   0x0008             MOVS     R0,R1
   \      0x252   0xB280             UXTH     R0,R0            ;; ZeroExt  R0,R0,#+16,#+16
   \      0x254   0x2803             CMP      R0,#+3
   \      0x256   0xD007             BEQ.N    ??StartInputHandler_24
   \      0x258   0x0010             MOVS     R0,R2
   \      0x25A   0xB280             UXTH     R0,R0            ;; ZeroExt  R0,R0,#+16,#+16
   \      0x25C   0x2802             CMP      R0,#+2
   \      0x25E   0xD003             BEQ.N    ??StartInputHandler_24
   \      0x260   0x0010             MOVS     R0,R2
   \      0x262   0xB280             UXTH     R0,R0            ;; ZeroExt  R0,R0,#+16,#+16
   \      0x264   0x2803             CMP      R0,#+3
   \      0x266   0xD109             BNE.N    ??StartInputHandler_25
    835                  {
    836                      /* slave is running in DC-mode */
    837                      bDcSyncActive = TRUE;
   \                     ??StartInputHandler_24: (+1)
   \      0x268   0x2001             MOVS     R0,#+1
   \      0x26A   0x.... 0x....      LDR.W    R3,??DataTable13_1
   \      0x26E   0x7018             STRB     R0,[R3, #+0]
    838          
    839          /*ECATCHANGE_START(V5.11) ECAT4*/
    840                      /*In case of an Input only application with DC no PDI Isr handling is required*/
    841                      if (nPdOutputSize == 0)
   \      0x270   0xF8B8 0x0000      LDRH     R0,[R8, #+0]
   \      0x274   0x2800             CMP      R0,#+0
   \      0x276   0xD101             BNE.N    ??StartInputHandler_25
    842                      {
    843                         u16ALEventMask = 0;
   \      0x278   0x2000             MOVS     R0,#+0
   \      0x27A   0x8030             STRH     R0,[R6, #+0]
    844                      }
    845          /*ECATCHANGE_END(V5.11) ECAT4*/
    846                  }
    847          
    848              sSyncManOutPar.u16SyncType = SyncType0x1C32;
   \                     ??StartInputHandler_25: (+1)
   \      0x27C   0x8061             STRH     R1,[R4, #+2]
    849              sSyncManInPar.u16SyncType = SyncType0x1C33;
   \      0x27E   0x806A             STRH     R2,[R5, #+2]
    850          
    851              /* Calculate number of Sync0 events within one SM cycle and the Sync0 events on which the inputs has to be latched*/
    852          
    853          
    854              /* reset the error counter indicating synchronization problems */
    855              sCycleDiag.syncFailedCounter = 0;
   \      0x280   0x2000             MOVS     R0,#+0
   \      0x282   0x.... 0x....      LDR.W    R1,??DataTable13_2
   \      0x286   0x8008             STRH     R0,[R1, #+0]
    856          
    857          
    858              /*
    859                  --- Check watchdog settings ---
    860              */
    861          
    862              /*get the watchdog time (register 0x420). if value is > 0 watchdog is active*/
    863          /*ECATCHANGE_START(V5.11) ECAT4*/
    864              HW_EscReadWord(wd, ESC_PD_WD_TIME);
   \      0x288   0x2202             MOVS     R2,#+2
   \      0x28A   0xF44F 0x6184      MOV      R1,#+1056
   \      0x28E   0x4668             MOV      R0,SP
   \      0x290   0x.... 0x....      BL       HW_EscRead
    865              wd = SWAPWORD(wd);
    866          /*ECATCHANGE_END(V5.11) ECAT4*/
    867          
    868              if (nPdOutputSize > 0 &&  wd != 0 )
   \      0x294   0xF8B8 0x0000      LDRH     R0,[R8, #+0]
   \      0x298   0x2800             CMP      R0,#+0
   \      0x29A   0xD027             BEQ.N    ??StartInputHandler_26
   \      0x29C   0xF8BD 0x0000      LDRH     R0,[SP, #+0]
   \      0x2A0   0x2800             CMP      R0,#+0
   \      0x2A2   0xD023             BEQ.N    ??StartInputHandler_26
    869              {
    870              /*get watchdog divider (register 0x400)*/
    871              HW_EscReadWord(wdiv, ESC_WD_DIVIDER_OFFSET);
   \      0x2A4   0x2202             MOVS     R2,#+2
   \      0x2A6   0xF44F 0x6180      MOV      R1,#+1024
   \      0x2AA   0xF10D 0x0002      ADD      R0,SP,#+2
   \      0x2AE   0x.... 0x....      BL       HW_EscRead
    872              wdiv = SWAPWORD(wdiv);
    873                  if ( wdiv != 0 )
   \      0x2B2   0xF8BD 0x0002      LDRH     R0,[SP, #+2]
   \      0x2B6   0x2800             CMP      R0,#+0
   \      0x2B8   0xD010             BEQ.N    ??StartInputHandler_27
    874                  {
    875                      /* the ESC subtracts 2 in register 0x400 so it has to be added here */
    876                      UINT32 d = wdiv+2;
   \      0x2BA   0xF8BD 0x1002      LDRH     R1,[SP, #+2]
   \      0x2BE   0x1C89             ADDS     R1,R1,#+2
    877          
    878                      d *= wd;
   \      0x2C0   0xF8BD 0x0000      LDRH     R0,[SP, #+0]
   \      0x2C4   0x4341             MULS     R1,R0,R1
    879                      /* store watchdog in ms in variable u16WdValue */
    880                      /* watchdog value has to be rounded up */
    881                      d += 24999;
   \      0x2C6   0xF501 0x41C2      ADD      R1,R1,#+24832
   \      0x2CA   0x31A7             ADDS     R1,R1,#+167
    882                      d /= 25000;
   \      0x2CC   0xF246 0x10A8      MOVW     R0,#+25000
   \      0x2D0   0xFBB1 0xF0F0      UDIV     R0,R1,R0
    883                      EcatWdValue = (UINT16) d;
   \      0x2D4   0x.... 0x....      LDR.W    R1,??DataTable13_3
   \      0x2D8   0x8008             STRH     R0,[R1, #+0]
   \      0x2DA   0xE00E             B.N      ??StartInputHandler_28
    884                  }
    885                  else
    886                  {
    887                      wd = 0;
   \                     ??StartInputHandler_27: (+1)
   \      0x2DC   0x2000             MOVS     R0,#+0
   \      0x2DE   0xF8AD 0x0000      STRH     R0,[SP, #+0]
    888                      /* wd value has to be set to zero, if the wd is 0 */
    889                      EcatWdValue = 0;
   \      0x2E2   0x2000             MOVS     R0,#+0
   \      0x2E4   0x.... 0x....      LDR.W    R1,??DataTable13_3
   \      0x2E8   0x8008             STRH     R0,[R1, #+0]
   \      0x2EA   0xE006             B.N      ??StartInputHandler_28
    890                  }
    891              }
    892              else
    893              {
    894                  /* the watchdog is deactivated or slave has no output process data*/
    895                  wdiv = 0;
   \                     ??StartInputHandler_26: (+1)
   \      0x2EC   0x2000             MOVS     R0,#+0
   \      0x2EE   0xF8AD 0x0002      STRH     R0,[SP, #+2]
    896                  EcatWdValue = 0;
   \      0x2F2   0x2000             MOVS     R0,#+0
   \      0x2F4   0x.... 0x....      LDR.W    R1,??DataTable13_3
   \      0x2F8   0x8008             STRH     R0,[R1, #+0]
    897              }
    898          
    899              if((EcatWdValue == 0 && bWdTrigger) || (EcatWdValue != 0 && !bWdTrigger))
   \                     ??StartInputHandler_28: (+1)
   \      0x2FA   0x.... 0x....      LDR.W    R1,??DataTable13_3
   \      0x2FE   0x8808             LDRH     R0,[R1, #+0]
   \      0x300   0x2800             CMP      R0,#+0
   \      0x302   0xD104             BNE.N    ??StartInputHandler_29
   \      0x304   0x.... 0x....      LDR.W    R0,??DataTable15
   \      0x308   0x7800             LDRB     R0,[R0, #+0]
   \      0x30A   0x2800             CMP      R0,#+0
   \      0x30C   0xD107             BNE.N    ??StartInputHandler_30
   \                     ??StartInputHandler_29: (+1)
   \      0x30E   0x8808             LDRH     R0,[R1, #+0]
   \      0x310   0x2800             CMP      R0,#+0
   \      0x312   0xD006             BEQ.N    ??StartInputHandler_31
   \      0x314   0x.... 0x....      LDR.W    R0,??DataTable15
   \      0x318   0x7800             LDRB     R0,[R0, #+0]
   \      0x31A   0x2800             CMP      R0,#+0
   \      0x31C   0xD101             BNE.N    ??StartInputHandler_31
    900              {
    901                  /* if the WD-Trigger in the Sync Manager Channel 2 Control-Byte is set (Bit 6 of Register 0x814)
    902                      an error has to be returned */
    903                  return ALSTATUSCODE_INVALIDWDCFG;
   \                     ??StartInputHandler_30: (+1)
   \      0x31E   0x201F             MOVS     R0,#+31
   \      0x320   0xE01B             B.N      ??StartInputHandler_5
    904              }
    905          
    906              if ( bEscIntEnabled && nPdOutputSize != 0 )
   \                     ??StartInputHandler_31: (+1)
   \      0x322   0xF899 0x0000      LDRB     R0,[R9, #+0]
   \      0x326   0x2800             CMP      R0,#+0
   \      0x328   0xD007             BEQ.N    ??StartInputHandler_32
   \      0x32A   0xF8B8 0x0000      LDRH     R0,[R8, #+0]
   \      0x32E   0x2800             CMP      R0,#+0
   \      0x330   0xD003             BEQ.N    ??StartInputHandler_32
    907              {
    908                  /* ECAT synchron Mode is active, the Sync Manager Channel 2 event
    909                     has to activated in the AL-Event mask register */
    910                  u16ALEventMask |= PROCESS_OUTPUT_EVENT;
   \      0x332   0x8830             LDRH     R0,[R6, #+0]
   \      0x334   0xF450 0x6080      ORRS     R0,R0,#0x400
   \      0x338   0x8030             STRH     R0,[R6, #+0]
    911              }
    912          /*The application ESM function is separated from this function to handle pending transitions*/
    913          
    914          
    915          
    916          
    917              if(nPdOutputSize > 0)
   \                     ??StartInputHandler_32: (+1)
   \      0x33A   0xF8B8 0x0000      LDRH     R0,[R8, #+0]
   \      0x33E   0x2800             CMP      R0,#+0
   \      0x340   0xD002             BEQ.N    ??StartInputHandler_33
    918              {
    919          /*ECATCHANGE_START(V5.11) HW1*/
    920                  EnableSyncManChannel(PROCESS_DATA_OUT);
   \      0x342   0x2002             MOVS     R0,#+2
   \      0x344   0x.... 0x....      BL       EnableSyncManChannel
    921          /*ECATCHANGE_END(V5.11) HW1*/
    922              }
    923          
    924              if(nPdInputSize > 0)
   \                     ??StartInputHandler_33: (+1)
   \      0x348   0x8838             LDRH     R0,[R7, #+0]
   \      0x34A   0x2800             CMP      R0,#+0
   \      0x34C   0xD002             BEQ.N    ??StartInputHandler_34
    925              {
    926          /*ECATCHANGE_START(V5.11) HW1*/
    927                  EnableSyncManChannel(PROCESS_DATA_IN);
   \      0x34E   0x2003             MOVS     R0,#+3
   \      0x350   0x.... 0x....      BL       EnableSyncManChannel
    928          /*ECATCHANGE_END(V5.11) HW1*/
    929              }
    930          
    931              /*write initial input data*/
    932              PDO_InputMapping();
   \                     ??StartInputHandler_34: (+1)
   \      0x354   0x.... 0x....      BL       PDO_InputMapping
    933          
    934              return ALSTATUSCODE_NOERROR;
   \      0x358   0x2000             MOVS     R0,#+0
   \                     ??StartInputHandler_5: (+1)
   \      0x35A   0xE8BD 0x8FFE      POP      {R1-R11,PC}      ;; return
    935          }
    936          
    937          /////////////////////////////////////////////////////////////////////////////////////////
    938          /**
    939           \return    AL Status Code (see ecatslv.h ALSTATUSCODE_....)
    940          
    941           \brief    This function is called in case of the state transition from SAFEOP to OP.
    942           \brief  It will be checked if outputs had to be received before switching to OP
    943           \brief  and the state transition would be refused if outputs are missing
    944          
    945          *////////////////////////////////////////////////////////////////////////////////////////
    946          

   \                                 In section .text, align 2, keep-with-next
    947          UINT16 StartOutputHandler(void)
    948          {
    949          /*ECATCHANGE_START(V5.11) ESM6*/
    950              /* by default the SO transition should be completed in AlControlRes().
    951                 required to support also masters which starts to send process data after the SO transition was triggered
    952                 (if the master don't send process data within "SAFEOP2OPTIMEOUT" the transition is rejected)*/
    953              UINT16 result = NOERROR_INWORK;
   \                     StartOutputHandler: (+1)
   \        0x0   0x20FF             MOVS     R0,#+255
    954          /*ECATCHANGE_END(V5.11) ESM6*/
    955              if(bLocalErrorFlag)
   \        0x2   0x.... 0x....      LDR.W    R1,??DataTable14
   \        0x6   0x7809             LDRB     R1,[R1, #+0]
   \        0x8   0x2900             CMP      R1,#+0
   \        0xA   0xD003             BEQ.N    ??StartOutputHandler_0
    956              {
    957                  /*Local error still exists => skip state request to OP and response with "u16LocalErrorCode"*/
    958                  return u16LocalErrorCode;
   \        0xC   0x.... 0x....      LDR.W    R0,??DataTable15_1
   \       0x10   0x8800             LDRH     R0,[R0, #+0]
   \       0x12   0xE000             B.N      ??StartOutputHandler_1
    959              }
    960          /*The application ESM function is separated from this function to handle pending transitions*/
    961          
    962          
    963          
    964              return result;
   \                     ??StartOutputHandler_0: (+1)
   \       0x14   0xB280             UXTH     R0,R0            ;; ZeroExt  R0,R0,#+16,#+16
   \                     ??StartOutputHandler_1: (+1)
   \       0x16   0x4770             BX       LR               ;; return
    965          }
    966          
    967          /////////////////////////////////////////////////////////////////////////////////////////
    968          /**
    969           \brief    This function is called in case of the state transition from OP to SAFEOP
    970           \brief  the outputs can be set to an application specific safe state,
    971           \brief  the state transition can be delayed by returning NOERROR_INWORK
    972          
    973          *////////////////////////////////////////////////////////////////////////////////////////
    974          

   \                                 In section .text, align 2, keep-with-next
    975          void StopOutputHandler(void)
    976          {
    977              /* reset the flags that outputs were received and that the slave is in OP */
    978              bEcatFirstOutputsReceived = FALSE;
   \                     StopOutputHandler: (+1)
   \        0x0   0x2000             MOVS     R0,#+0
   \        0x2   0x.... 0x....      LDR.W    R1,??DataTable11_3
   \        0x6   0x7008             STRB     R0,[R1, #+0]
    979              bEcatOutputUpdateRunning = FALSE;
   \        0x8   0x2000             MOVS     R0,#+0
   \        0xA   0x.... 0x....      LDR.W    R1,??DataTable15_2
   \        0xE   0x7008             STRB     R0,[R1, #+0]
    980          }
   \       0x10   0x4770             BX       LR               ;; return
    981          
    982          /////////////////////////////////////////////////////////////////////////////////////////
    983          /**
    984            \brief    This function is called in case of the state transition from SAFEOP to PREOP
    985          
    986          *////////////////////////////////////////////////////////////////////////////////////////
    987          

   \                                 In section .text, align 2, keep-with-next
    988          void StopInputHandler(void)
    989          {
   \                     StopInputHandler: (+1)
   \        0x0   0xB580             PUSH     {R7,LR}
    990              if(nPdOutputSize > 0)
   \        0x2   0x.... 0x....      LDR.W    R0,??DataTable10_4
   \        0x6   0x8800             LDRH     R0,[R0, #+0]
   \        0x8   0x2800             CMP      R0,#+0
   \        0xA   0xD002             BEQ.N    ??StopInputHandler_0
    991              {
    992                  /* disable the Sync Manager Channel 2 (outputs) */
    993          /*ECATCHANGE_END(V5.11) HW1*/
    994                  DisableSyncManChannel(PROCESS_DATA_OUT);
   \        0xC   0x2002             MOVS     R0,#+2
   \        0xE   0x.... 0x....      BL       DisableSyncManChannel
    995          /*ECATCHANGE_END(V5.11) HW1*/
    996              }
    997          
    998              if(nPdInputSize > 0)
   \                     ??StopInputHandler_0: (+1)
   \       0x12   0x.... 0x....      LDR.W    R0,??DataTable10_1
   \       0x16   0x8800             LDRH     R0,[R0, #+0]
   \       0x18   0x2800             CMP      R0,#+0
   \       0x1A   0xD002             BEQ.N    ??StopInputHandler_1
    999              {
   1000                  /*disable Sync Manager 3 (inputs) if no outputs available*/
   1001          /*ECATCHANGE_START(V5.11) HW1*/
   1002                  DisableSyncManChannel(PROCESS_DATA_IN);
   \       0x1C   0x2003             MOVS     R0,#+3
   \       0x1E   0x.... 0x....      BL       DisableSyncManChannel
   1003          /*ECATCHANGE_END(V5.11) HW1*/
   1004              }
   1005          
   1006              /* reset the events in the AL Event mask register (0x204) */
   1007              {
   1008                  UINT16 ResetMask = SYNC0_EVENT | SYNC1_EVENT;
   \                     ??StopInputHandler_1: (+1)
   \       0x22   0x200C             MOVS     R0,#+12
   1009                  ResetMask |= PROCESS_OUTPUT_EVENT;
   \       0x24   0xF450 0x6080      ORRS     R0,R0,#0x400
   1010                  ResetMask |= PROCESS_INPUT_EVENT;
   \       0x28   0xF450 0x6000      ORRS     R0,R0,#0x800
   1011          
   1012          /*ECATCHANGE_START(V5.11) HW1*/
   1013              ResetALEventMask( ~(ResetMask) );
   \       0x2C   0xB280             UXTH     R0,R0            ;; ZeroExt  R0,R0,#+16,#+16
   \       0x2E   0x43C0             MVNS     R0,R0
   \       0x30   0xB280             UXTH     R0,R0            ;; ZeroExt  R0,R0,#+16,#+16
   \       0x32   0x.... 0x....      BL       ResetALEventMask
   1014          /*ECATCHANGE_END(V5.11) HW1*/
   1015              }
   1016              /* reset the flags */
   1017              bEcatFirstOutputsReceived = FALSE;
   \       0x36   0x2000             MOVS     R0,#+0
   \       0x38   0x.... 0x....      LDR.W    R1,??DataTable11_3
   \       0x3C   0x7008             STRB     R0,[R1, #+0]
   1018              bEscIntEnabled = FALSE;
   \       0x3E   0x2000             MOVS     R0,#+0
   \       0x40   0x.... 0x....      LDR.W    R1,??DataTable13
   \       0x44   0x7008             STRB     R0,[R1, #+0]
   1019          /*The application ESM function is separated from this function to handle pending transitions*/
   1020          
   1021          
   1022              bWdTrigger = FALSE;
   \       0x46   0x2000             MOVS     R0,#+0
   \       0x48   0x.... 0x....      LDR.W    R1,??DataTable10_6
   \       0x4C   0x7008             STRB     R0,[R1, #+0]
   1023              bEcatInputUpdateRunning = FALSE;
   \       0x4E   0x2000             MOVS     R0,#+0
   \       0x50   0x.... 0x....      LDR.W    R1,??DataTable14_1
   \       0x54   0x7008             STRB     R0,[R1, #+0]
   1024          
   1025              /*Indicate no user specified Sync mode*/
   1026              bSyncSetByUser = FALSE;
   \       0x56   0x2000             MOVS     R0,#+0
   \       0x58   0x.... 0x....      LDR.W    R1,??DataTable12_5
   \       0x5C   0x7008             STRB     R0,[R1, #+0]
   1027          }
   \       0x5E   0xBD01             POP      {R0,PC}          ;; return
   1028          
   1029          /////////////////////////////////////////////////////////////////////////////////////////
   1030          /**
   1031          \brief    This function is called when a X to Init transition is completed
   1032          
   1033          *////////////////////////////////////////////////////////////////////////////////////////
   1034          

   \                                 In section .text, align 2, keep-with-next
   1035          void BackToInitTransition(void)
   1036          {
   1037              /* Reset indication that the user has written a sync mode*/
   1038              bSyncSetByUser = FALSE;
   \                     BackToInitTransition: (+1)
   \        0x0   0x2000             MOVS     R0,#+0
   \        0x2   0x.... 0x....      LDR.W    R1,??DataTable12_5
   \        0x6   0x7008             STRB     R0,[R1, #+0]
   1039          }
   \        0x8   0x4770             BX       LR               ;; return
   1040          
   1041          /////////////////////////////////////////////////////////////////////////////////////////
   1042          /**
   1043           \param alStatus        New AL Status (written to register 0x130)
   1044           \param alStatusCode    New AL Status Code (written to register 0x134)
   1045          
   1046            \brief  The function changes the state of the EtherCAT ASIC to the requested.
   1047          *////////////////////////////////////////////////////////////////////////////////////////

   \                                 In section .text, align 2, keep-with-next
   1048          void SetALStatus(UINT8 alStatus, UINT16 alStatusCode)
   1049          {
   \                     SetALStatus: (+1)
   \        0x0   0xB51C             PUSH     {R2-R4,LR}
   1050              UINT16 Value = alStatusCode;
   \        0x2   0xF8AD 0x1000      STRH     R1,[SP, #+0]
   1051          
   1052              /*update global status variable if required*/
   1053              if(nAlStatus != alStatus)
   \        0x6   0x.... 0x....      LDR.W    R4,??DataTable15_3
   \        0xA   0x7822             LDRB     R2,[R4, #+0]
   \        0xC   0x0003             MOVS     R3,R0
   \        0xE   0xB2DB             UXTB     R3,R3            ;; ZeroExt  R3,R3,#+24,#+24
   \       0x10   0x429A             CMP      R2,R3
   \       0x12   0xD000             BEQ.N    ??SetALStatus_0
   1054              {
   1055                  nAlStatus = alStatus;
   \       0x14   0x7020             STRB     R0,[R4, #+0]
   1056              }
   1057          
   1058          
   1059              if (alStatusCode != 0xFFFF)
   \                     ??SetALStatus_0: (+1)
   \       0x16   0xB289             UXTH     R1,R1            ;; ZeroExt  R1,R1,#+16,#+16
   \       0x18   0xF64F 0x70FF      MOVW     R0,#+65535
   \       0x1C   0x4281             CMP      R1,R0
   \       0x1E   0xD005             BEQ.N    ??SetALStatus_1
   1060              {
   1061                  Value = SWAPWORD(Value);
   1062          
   1063                  HW_EscWriteWord(Value,ESC_AL_STATUS_CODE_OFFSET);
   \       0x20   0x2202             MOVS     R2,#+2
   \       0x22   0xF44F 0x719A      MOV      R1,#+308
   \       0x26   0x4668             MOV      R0,SP
   \       0x28   0x.... 0x....      BL       HW_EscWrite
   1064              }
   1065          
   1066              Value = nAlStatus;
   \                     ??SetALStatus_1: (+1)
   \       0x2C   0x7820             LDRB     R0,[R4, #+0]
   \       0x2E   0xF8AD 0x0000      STRH     R0,[SP, #+0]
   1067              Value = SWAPWORD(Value);
   1068              HW_EscWriteWord(Value,ESC_AL_STATUS_OFFSET);
   \       0x32   0x2202             MOVS     R2,#+2
   \       0x34   0xF44F 0x7198      MOV      R1,#+304
   \       0x38   0x4668             MOV      R0,SP
   \       0x3A   0x.... 0x....      BL       HW_EscWrite
   1069          
   1070          }
   \       0x3E   0xBD13             POP      {R0,R1,R4,PC}    ;; return
   1071          
   1072          /////////////////////////////////////////////////////////////////////////////////////////
   1073          /**
   1074           \param    alControl        requested new state
   1075           \param alStatusCode    requested status code
   1076          
   1077           \brief    This function handles the EtherCAT State Machine. It is called
   1078                      * in case of an AL Control event (Bit 0 of AL-Event (Reg 0x220),
   1079                         when the Master has written the AL Control Register (from ECAT_Main),
   1080                        alControl contains the content of the AL Control (Reg 0x120)
   1081                      * in case of a SM-Change event (Bit 4 of AL-Event (Reg 0x220)),
   1082                        when an Activate SYNCM y register is written by the master (from ECAT_Main),
   1083                        alControl contains the actual state (Bit 0-3 of AL Status (Reg 0x130))
   1084                      * in case of a locally expired watchdog (from ECAT_Main),
   1085                        alControl contains the requested new state (SAFE_OP)
   1086                      * in case of an application specific event to change the EtherCAT state (from application),
   1087                        alControl contains the requested new state (INIT, PRE_OP or SAFE_OP)
   1088          
   1089          *////////////////////////////////////////////////////////////////////////////////////////
   1090          

   \                                 In section .text, align 2, keep-with-next
   1091          void AL_ControlInd(UINT8 alControl, UINT16 alStatusCode)
   1092          {
   \                     AL_ControlInd: (+1)
   \        0x0   0xE92D 0x4FF8      PUSH     {R3-R11,LR}
   \        0x4   0x000E             MOVS     R6,R1
   1093              UINT16        result = 0;
   \        0x6   0x2700             MOVS     R7,#+0
   1094              UINT8            bErrAck = 0;
   \        0x8   0x2400             MOVS     R4,#+0
   1095              UINT8         stateTrans;
   1096              /*deactivate ESM timeout counter*/
   1097              EsmTimeoutCounter = -1;
   \        0xA   0x.... 0x....      LDR.W    R8,??DataTable15_4
   \        0xE   0xF05F 0x31FF      MOVS     R1,#-1
   \       0x12   0xF8A8 0x1000      STRH     R1,[R8, #+0]
   1098              bApplEsmPending = TRUE;
   \       0x16   0x.... 0x....      LDR.W    R9,??DataTable15_5
   \       0x1A   0x2101             MOVS     R1,#+1
   \       0x1C   0xF889 0x1000      STRB     R1,[R9, #+0]
   1099          
   1100              /* reset the Error Flag in case of acknowledge by the Master */
   1101              if ( alControl & STATE_CHANGE )
   \       0x20   0x06C1             LSLS     R1,R0,#+27
   \       0x22   0xD507             BPL.N    ??AL_ControlInd_0
   1102              {
   1103                  bErrAck = 1;
   \       0x24   0x2401             MOVS     R4,#+1
   1104                  nAlStatus &= ~STATE_CHANGE;
   \       0x26   0x.... 0x....      LDR.W    R1,??DataTable10_2
   \       0x2A   0x780A             LDRB     R2,[R1, #+0]
   \       0x2C   0xF012 0x02EF      ANDS     R2,R2,#0xEF
   \       0x30   0x700A             STRB     R2,[R1, #+0]
   \       0x32   0xE00F             B.N      ??AL_ControlInd_1
   1105                  /*enable SM2 is moved to state transition block. First check SM Settings.*/
   1106              }
   1107              else if ( (nAlStatus & STATE_CHANGE)
   1108              // HBu 17.04.08: the error has to be acknowledged before when sending the same (or a higher) state
   1109              //               (the error was acknowledged with the same state before independent of the acknowledge flag)
   1110              /*Error Acknowledge with 0xX1 is allowed*/
   1111                     && (alControl & STATE_MASK) != STATE_INIT )
   \                     ??AL_ControlInd_0: (+1)
   \       0x34   0x.... 0x....      LDR.W    R1,??DataTable10_2
   \       0x38   0x780A             LDRB     R2,[R1, #+0]
   \       0x3A   0x06D2             LSLS     R2,R2,#+27
   \       0x3C   0xD506             BPL.N    ??AL_ControlInd_2
   \       0x3E   0x0002             MOVS     R2,R0
   \       0x40   0xB2D2             UXTB     R2,R2            ;; ZeroExt  R2,R2,#+24,#+24
   \       0x42   0xF012 0x020F      ANDS     R2,R2,#0xF
   \       0x46   0x2A01             CMP      R2,#+1
   \       0x48   0xF040 0x8226      BNE.W    ??AL_ControlInd_3
   1112                  /* the error flag (Bit 4) is set in the AL-Status and the ErrAck bit (Bit 4)
   1113                     is not set in the AL-Control, so the state cannot be set to a higher state
   1114                     and the new state request will be ignored */
   1115                  return;
   1116              else
   1117              {
   1118                  nAlStatus &= STATE_MASK;
   \                     ??AL_ControlInd_2: (+1)
   \       0x4C   0x780A             LDRB     R2,[R1, #+0]
   \       0x4E   0xF012 0x020F      ANDS     R2,R2,#0xF
   \       0x52   0x700A             STRB     R2,[R1, #+0]
   1119              }
   1120          
   1121              /* generate a variable for the state transition
   1122                (Bit 0-3: new state (AL Control), Bit 4-7: old state (AL Status) */
   1123              alControl &= STATE_MASK;
   \                     ??AL_ControlInd_1: (+1)
   \       0x54   0xF010 0x000F      ANDS     R0,R0,#0xF
   \       0x58   0x0005             MOVS     R5,R0
   1124              stateTrans = nAlStatus;
   \       0x5A   0x.... 0x....      LDR.W    R10,??DataTable10_2
   \       0x5E   0xF89A 0xB000      LDRB     R11,[R10, #+0]
   1125              stateTrans <<= 4;
   \       0x62   0xEA5F 0x1B0B      LSLS     R11,R11,#+4
   1126              stateTrans += alControl;
   \       0x66   0xEB15 0x0B0B      ADDS     R11,R5,R11
   1127          
   1128          
   1129              /* check the SYNCM settings depending on the state transition */
   1130              switch ( stateTrans )
   \       0x6A   0x4658             MOV      R0,R11
   \       0x6C   0xB2C0             UXTB     R0,R0            ;; ZeroExt  R0,R0,#+24,#+24
   \       0x6E   0x2812             CMP      R0,#+18
   \       0x70   0xD010             BEQ.N    ??AL_ControlInd_4
   \       0x72   0x2822             CMP      R0,#+34
   \       0x74   0xD00E             BEQ.N    ??AL_ControlInd_4
   \       0x76   0x2824             CMP      R0,#+36
   \       0x78   0xD011             BEQ.N    ??AL_ControlInd_5
   \       0x7A   0x2842             CMP      R0,#+66
   \       0x7C   0xD00A             BEQ.N    ??AL_ControlInd_4
   \       0x7E   0x2844             CMP      R0,#+68
   \       0x80   0xD018             BEQ.N    ??AL_ControlInd_6
   \       0x82   0x2848             CMP      R0,#+72
   \       0x84   0xD016             BEQ.N    ??AL_ControlInd_6
   \       0x86   0x2882             CMP      R0,#+130
   \       0x88   0xD004             BEQ.N    ??AL_ControlInd_4
   \       0x8A   0x2884             CMP      R0,#+132
   \       0x8C   0xD012             BEQ.N    ??AL_ControlInd_6
   \       0x8E   0x2888             CMP      R0,#+136
   \       0x90   0xD010             BEQ.N    ??AL_ControlInd_6
   \       0x92   0xE015             B.N      ??AL_ControlInd_7
   1131              {
   1132              case INIT_2_PREOP:
   1133              case OP_2_PREOP:
   1134              case SAFEOP_2_PREOP:
   1135              case PREOP_2_PREOP:
   1136                  /* in PREOP only the SYNCM settings for SYNCM0 and SYNCM1 (mailbox)
   1137                     are checked, if result is unequal 0, the slave will stay in or
   1138                     switch to INIT and set the ErrorInd Bit (bit 4) of the AL-Status */
   1139                  result = CheckSmSettings(MAILBOX_READ+1);
   \                     ??AL_ControlInd_4: (+1)
   \       0x94   0x2002             MOVS     R0,#+2
   \       0x96   0x.... 0x....      BL       CheckSmSettings
   \       0x9A   0x0007             MOVS     R7,R0
   1140                  break;
   \       0x9C   0xE010             B.N      ??AL_ControlInd_7
   1141              case PREOP_2_SAFEOP:
   1142                  {
   1143                  /* before checking the SYNCM settings for SYNCM2 and SYNCM3 (process data)
   1144                     the expected length of input data (nPdInputSize) and output data (nPdOutputSize)
   1145                      could be adapted (changed by PDO-Assign and/or PDO-Mapping)
   1146                      if result is unequal 0, the slave will stay in PREOP and set
   1147                      the ErrorInd Bit (bit 4) of the AL-Status */
   1148                  result = APPL_GenerateMapping(&nPdInputSize,&nPdOutputSize);
   \                     ??AL_ControlInd_5: (+1)
   \       0x9E   0x.... 0x....      LDR.W    R1,??DataTable10_4
   \       0xA2   0x.... 0x....      LDR.W    R0,??DataTable10_1
   \       0xA6   0x.... 0x....      BL       APPL_GenerateMapping
   \       0xAA   0x0007             MOVS     R7,R0
   1149          
   1150                  if (result != 0)
   \       0xAC   0x0038             MOVS     R0,R7
   \       0xAE   0xB280             UXTH     R0,R0            ;; ZeroExt  R0,R0,#+16,#+16
   \       0xB0   0x2800             CMP      R0,#+0
   \       0xB2   0xD105             BNE.N    ??AL_ControlInd_7
   1151                      break;
   1152                  }
   1153              case SAFEOP_2_OP:
   1154              case OP_2_SAFEOP:
   1155              case SAFEOP_2_SAFEOP:
   1156              case OP_2_OP:
   1157                  /* in SAFEOP or OP the SYNCM settings for all SYNCM are checked
   1158                     if result is unequal 0, the slave will stay in or
   1159                     switch to PREOP and set the ErrorInd Bit (bit 4) of the AL-Status */
   1160                  result = CheckSmSettings(nMaxSyncMan);
   \                     ??AL_ControlInd_6: (+1)
   \       0xB4   0x.... 0x....      LDR.W    R0,??DataTable12
   \       0xB8   0x7800             LDRB     R0,[R0, #+0]
   \       0xBA   0x.... 0x....      BL       CheckSmSettings
   \       0xBE   0x0007             MOVS     R7,R0
   1161                  break;
   1162              }
   1163          
   1164              if ( result == 0 )
   \                     ??AL_ControlInd_7: (+1)
   \       0xC0   0x0038             MOVS     R0,R7
   \       0xC2   0xB280             UXTH     R0,R0            ;; ZeroExt  R0,R0,#+16,#+16
   \       0xC4   0x2800             CMP      R0,#+0
   \       0xC6   0xF040 0x813F      BNE.W    ??AL_ControlInd_8
   1165              {
   1166                  /* execute the corresponding local management service(s) depending on the state transition */
   1167                  nEcatStateTrans = 0;
   \       0xCA   0x2000             MOVS     R0,#+0
   \       0xCC   0x.... 0x....      LDR.W    R1,??DataTable15_6
   \       0xD0   0x8008             STRH     R0,[R1, #+0]
   1168                  switch ( stateTrans )
   \       0xD2   0x4658             MOV      R0,R11
   \       0xD4   0xB2C0             UXTB     R0,R0            ;; ZeroExt  R0,R0,#+24,#+24
   \       0xD6   0x2811             CMP      R0,#+17
   \       0xD8   0xF000 0x810D      BEQ.W    ??AL_ControlInd_9
   \       0xDC   0x2812             CMP      R0,#+18
   \       0xDE   0xD044             BEQ.N    ??AL_ControlInd_10
   \       0xE0   0x2813             CMP      R0,#+19
   \       0xE2   0xD03C             BEQ.N    ??AL_ControlInd_11
   \       0xE4   0x2814             CMP      R0,#+20
   \       0xE6   0xF000 0x812B      BEQ.W    ??AL_ControlInd_12
   \       0xEA   0x2818             CMP      R0,#+24
   \       0xEC   0xF000 0x8128      BEQ.W    ??AL_ControlInd_12
   \       0xF0   0x2821             CMP      R0,#+33
   \       0xF2   0xF000 0x80F8      BEQ.W    ??AL_ControlInd_13
   \       0xF6   0x2822             CMP      R0,#+34
   \       0xF8   0xF000 0x80FF      BEQ.W    ??AL_ControlInd_14
   \       0xFC   0x2823             CMP      R0,#+35
   \       0xFE   0xF000 0x811F      BEQ.W    ??AL_ControlInd_12
   \      0x102   0x2824             CMP      R0,#+36
   \      0x104   0xD063             BEQ.N    ??AL_ControlInd_15
   \      0x106   0x2828             CMP      R0,#+40
   \      0x108   0xF000 0x811A      BEQ.W    ??AL_ControlInd_12
   \      0x10C   0x2831             CMP      R0,#+49
   \      0x10E   0xD028             BEQ.N    ??AL_ControlInd_16
   \      0x110   0x2832             CMP      R0,#+50
   \      0x112   0xF000 0x8115      BEQ.W    ??AL_ControlInd_12
   \      0x116   0x2834             CMP      R0,#+52
   \      0x118   0xF000 0x8112      BEQ.W    ??AL_ControlInd_12
   \      0x11C   0x2838             CMP      R0,#+56
   \      0x11E   0xF000 0x810F      BEQ.W    ??AL_ControlInd_12
   \      0x122   0x2841             CMP      R0,#+65
   \      0x124   0xF000 0x80D1      BEQ.W    ??AL_ControlInd_17
   \      0x128   0x2842             CMP      R0,#+66
   \      0x12A   0xF000 0x80B8      BEQ.W    ??AL_ControlInd_18
   \      0x12E   0x2843             CMP      R0,#+67
   \      0x130   0xF000 0x8106      BEQ.W    ??AL_ControlInd_12
   \      0x134   0x2844             CMP      R0,#+68
   \      0x136   0xF000 0x80E0      BEQ.W    ??AL_ControlInd_14
   \      0x13A   0x2848             CMP      R0,#+72
   \      0x13C   0xD073             BEQ.N    ??AL_ControlInd_19
   \      0x13E   0x2881             CMP      R0,#+129
   \      0x140   0xF000 0x80B5      BEQ.W    ??AL_ControlInd_20
   \      0x144   0x2882             CMP      R0,#+130
   \      0x146   0xF000 0x809C      BEQ.W    ??AL_ControlInd_21
   \      0x14A   0x2883             CMP      R0,#+131
   \      0x14C   0xF000 0x80F8      BEQ.W    ??AL_ControlInd_12
   \      0x150   0x2884             CMP      R0,#+132
   \      0x152   0xF000 0x808E      BEQ.W    ??AL_ControlInd_22
   \      0x156   0x2888             CMP      R0,#+136
   \      0x158   0xF000 0x80CF      BEQ.W    ??AL_ControlInd_14
   \      0x15C   0xE0F2             B.N      ??AL_ControlInd_23
   1169                  {
   1170                  case INIT_2_BOOT    :
   1171                      result = ALSTATUSCODE_BOOTNOTSUPP;
   \                     ??AL_ControlInd_11: (+1)
   \      0x15E   0x2713             MOVS     R7,#+19
   1172                      break;
   \      0x160   0xE111             B.N      ??AL_ControlInd_24
   1173          
   1174                  case BOOT_2_INIT    :
   1175                      result = ALSTATUSCODE_BOOTNOTSUPP;
   \                     ??AL_ControlInd_16: (+1)
   \      0x162   0x2713             MOVS     R7,#+19
   1176          
   1177                      BackToInitTransition();
   \      0x164   0x.... 0x....      BL       BackToInitTransition
   1178          
   1179                      break;
   \      0x168   0xE10D             B.N      ??AL_ControlInd_24
   1180                  case INIT_2_PREOP :
   1181          
   1182                     UpdateEEPROMLoadedState();
   \                     ??AL_ControlInd_10: (+1)
   \      0x16A   0x.... 0x....      BL       UpdateEEPROMLoadedState
   1183          
   1184                      if (EepromLoaded == FALSE)
   \      0x16E   0x.... 0x....      LDR.W    R0,??DataTable15_7
   \      0x172   0x7800             LDRB     R0,[R0, #+0]
   \      0x174   0x2800             CMP      R0,#+0
   \      0x176   0xD100             BNE.N    ??AL_ControlInd_25
   1185                      {
   1186                          //return an error if the EEPROM was not loaded correct  (device restart is required after the new EEPORM update)
   1187                          result = ALSTATUSCODE_EE_ERROR;
   \      0x178   0x2751             MOVS     R7,#+81
   1188                      }
   1189                      if (result == 0)
   \                     ??AL_ControlInd_25: (+1)
   \      0x17A   0x0038             MOVS     R0,R7
   \      0x17C   0xB280             UXTH     R0,R0            ;; ZeroExt  R0,R0,#+16,#+16
   \      0x17E   0x2800             CMP      R0,#+0
   \      0x180   0xD124             BNE.N    ??AL_ControlInd_26
   1190                      {
   1191                      /* MBX_StartMailboxHandler (in mailbox.c) checks if the areas of the mailbox
   1192                         sync managers SYNCM0 and SYNCM1 overlap each other
   1193                        if result is unequal 0, the slave will stay in INIT
   1194                        and sets the ErrorInd Bit (bit 4) of the AL-Status */
   1195                      result = MBX_StartMailboxHandler();
   \      0x182   0x.... 0x....      BL       MBX_StartMailboxHandler
   \      0x186   0x0007             MOVS     R7,R0
   1196                      if (result == 0)
   \      0x188   0x0038             MOVS     R0,R7
   \      0x18A   0xB280             UXTH     R0,R0            ;; ZeroExt  R0,R0,#+16,#+16
   \      0x18C   0x2800             CMP      R0,#+0
   \      0x18E   0xD10D             BNE.N    ??AL_ControlInd_27
   1197                      {
   1198                          bApplEsmPending = FALSE;
   \      0x190   0x2000             MOVS     R0,#+0
   \      0x192   0xF889 0x0000      STRB     R0,[R9, #+0]
   1199                          /* additionally there could be an application specific check (in ecatappl.c)
   1200                             if the state transition from INIT to PREOP should be done
   1201                           if result is unequal 0, the slave will stay in INIT
   1202                           and sets the ErrorInd Bit (bit 4) of the AL-Status */
   1203                          result = APPL_StartMailboxHandler();
   \      0x196   0x.... 0x....      BL       APPL_StartMailboxHandler
   \      0x19A   0x0007             MOVS     R7,R0
   1204                          if ( result == 0 )
   \      0x19C   0x0038             MOVS     R0,R7
   \      0x19E   0xB280             UXTH     R0,R0            ;; ZeroExt  R0,R0,#+16,#+16
   \      0x1A0   0x2800             CMP      R0,#+0
   \      0x1A2   0xD103             BNE.N    ??AL_ControlInd_27
   1205                          {
   1206                              bMbxRunning = TRUE;
   \      0x1A4   0x2001             MOVS     R0,#+1
   \      0x1A6   0x.... 0x....      LDR.W    R1,??DataTable15_8
   \      0x1AA   0x7008             STRB     R0,[R1, #+0]
   1207                          }
   1208                      }
   1209          
   1210                      if(result != 0 && result != NOERROR_INWORK)
   \                     ??AL_ControlInd_27: (+1)
   \      0x1AC   0x0038             MOVS     R0,R7
   \      0x1AE   0xB280             UXTH     R0,R0            ;; ZeroExt  R0,R0,#+16,#+16
   \      0x1B0   0x2800             CMP      R0,#+0
   \      0x1B2   0xD00B             BEQ.N    ??AL_ControlInd_26
   \      0x1B4   0x0038             MOVS     R0,R7
   \      0x1B6   0xB280             UXTH     R0,R0            ;; ZeroExt  R0,R0,#+16,#+16
   \      0x1B8   0x28FF             CMP      R0,#+255
   \      0x1BA   0xD007             BEQ.N    ??AL_ControlInd_26
   1211                      {
   1212                          /*Stop APPL Mbx handler if APPL Start Mbx handler was called before*/
   1213                          if(!bApplEsmPending)
   \      0x1BC   0xF899 0x0000      LDRB     R0,[R9, #+0]
   \      0x1C0   0x2800             CMP      R0,#+0
   \      0x1C2   0xD101             BNE.N    ??AL_ControlInd_28
   1214                              APPL_StopMailboxHandler();
   \      0x1C4   0x.... 0x....      BL       APPL_StopMailboxHandler
   1215          
   1216                           MBX_StopMailboxHandler();
   \                     ??AL_ControlInd_28: (+1)
   \      0x1C8   0x.... 0x....      BL       MBX_StopMailboxHandler
   1217                      }
   1218          
   1219                      }
   1220                      break;
   \                     ??AL_ControlInd_26: (+1)
   \      0x1CC   0xE0DB             B.N      ??AL_ControlInd_24
   1221          
   1222                  case PREOP_2_SAFEOP:
   1223                      /* start the input handler (function is defined above) */
   1224                      result = StartInputHandler();
   \                     ??AL_ControlInd_15: (+1)
   \      0x1CE   0x.... 0x....      BL       StartInputHandler
   \      0x1D2   0x0007             MOVS     R7,R0
   1225                      if ( result == 0 )
   \      0x1D4   0x0038             MOVS     R0,R7
   \      0x1D6   0xB280             UXTH     R0,R0            ;; ZeroExt  R0,R0,#+16,#+16
   \      0x1D8   0x2800             CMP      R0,#+0
   \      0x1DA   0xD113             BNE.N    ??AL_ControlInd_29
   1226                      {
   1227                          bApplEsmPending = FALSE;
   \      0x1DC   0x2000             MOVS     R0,#+0
   \      0x1DE   0xF889 0x0000      STRB     R0,[R9, #+0]
   1228                          result = APPL_StartInputHandler(&u16ALEventMask);
   \      0x1E2   0x.... 0x....      LDR.W    R4,??DataTable11_2
   \      0x1E6   0x0020             MOVS     R0,R4
   \      0x1E8   0x.... 0x....      BL       APPL_StartInputHandler
   \      0x1EC   0x0007             MOVS     R7,R0
   1229          
   1230                          if(result == 0)
   \      0x1EE   0x0038             MOVS     R0,R7
   \      0x1F0   0xB280             UXTH     R0,R0            ;; ZeroExt  R0,R0,#+16,#+16
   \      0x1F2   0x2800             CMP      R0,#+0
   \      0x1F4   0xD106             BNE.N    ??AL_ControlInd_29
   1231                          {
   1232                              /* initialize the AL Event Mask register (0x204) */
   1233          /*ECATCHANGE_START(V5.11) HW1*/
   1234                              SetALEventMask( u16ALEventMask );
   \      0x1F6   0x8820             LDRH     R0,[R4, #+0]
   \      0x1F8   0x.... 0x....      BL       SetALEventMask
   1235          /*ECATCHANGE_END(V5.11) HW1*/
   1236          
   1237                              bEcatInputUpdateRunning = TRUE;
   \      0x1FC   0x2001             MOVS     R0,#+1
   \      0x1FE   0x.... 0x....      LDR.W    R1,??DataTable14_1
   \      0x202   0x7008             STRB     R0,[R1, #+0]
   1238                          }
   1239                      }
   1240          
   1241                      /*if one start input handler returned an error stop the input handler*/
   1242                      if(result != 0 && result != NOERROR_INWORK)
   \                     ??AL_ControlInd_29: (+1)
   \      0x204   0x0038             MOVS     R0,R7
   \      0x206   0xB280             UXTH     R0,R0            ;; ZeroExt  R0,R0,#+16,#+16
   \      0x208   0x2800             CMP      R0,#+0
   \      0x20A   0xD00B             BEQ.N    ??AL_ControlInd_30
   \      0x20C   0x0038             MOVS     R0,R7
   \      0x20E   0xB280             UXTH     R0,R0            ;; ZeroExt  R0,R0,#+16,#+16
   \      0x210   0x28FF             CMP      R0,#+255
   \      0x212   0xD007             BEQ.N    ??AL_ControlInd_30
   1243                      {
   1244                          if(!bApplEsmPending)
   \      0x214   0xF899 0x0000      LDRB     R0,[R9, #+0]
   \      0x218   0x2800             CMP      R0,#+0
   \      0x21A   0xD101             BNE.N    ??AL_ControlInd_31
   1245                          {
   1246                              /*Call only the APPL stop handler if the APPL start handler was called before*/
   1247                              /*The application can react to the state transition in the function APPL_StopInputHandler */
   1248                              APPL_StopInputHandler();
   \      0x21C   0x.... 0x....      BL       APPL_StopInputHandler
   1249                          }
   1250          
   1251                          StopInputHandler();
   \                     ??AL_ControlInd_31: (+1)
   \      0x220   0x.... 0x....      BL       StopInputHandler
   1252                      }
   1253                      break;
   \                     ??AL_ControlInd_30: (+1)
   \      0x224   0xE0AF             B.N      ??AL_ControlInd_24
   1254          
   1255                  case SAFEOP_2_OP:
   1256                      /* start the output handler (function is defined above) */
   1257                      result = StartOutputHandler();
   \                     ??AL_ControlInd_19: (+1)
   \      0x226   0x.... 0x....      BL       StartOutputHandler
   \      0x22A   0x0007             MOVS     R7,R0
   1258                      if(result == 0)
   \      0x22C   0x0038             MOVS     R0,R7
   \      0x22E   0xB280             UXTH     R0,R0            ;; ZeroExt  R0,R0,#+16,#+16
   \      0x230   0x2800             CMP      R0,#+0
   \      0x232   0xD10D             BNE.N    ??AL_ControlInd_32
   1259                      {
   1260                          bApplEsmPending = FALSE;
   \      0x234   0x2000             MOVS     R0,#+0
   \      0x236   0xF889 0x0000      STRB     R0,[R9, #+0]
   1261                          result = APPL_StartOutputHandler();
   \      0x23A   0x.... 0x....      BL       APPL_StartOutputHandler
   \      0x23E   0x0007             MOVS     R7,R0
   1262          
   1263                          if(result == 0)
   \      0x240   0x0038             MOVS     R0,R7
   \      0x242   0xB280             UXTH     R0,R0            ;; ZeroExt  R0,R0,#+16,#+16
   \      0x244   0x2800             CMP      R0,#+0
   \      0x246   0xD103             BNE.N    ??AL_ControlInd_32
   1264                          {
   1265                              /*Device is in OPERATINAL*/
   1266                              bEcatOutputUpdateRunning = TRUE;
   \      0x248   0x2001             MOVS     R0,#+1
   \      0x24A   0x.... 0x....      LDR.W    R1,??DataTable15_2
   \      0x24E   0x7008             STRB     R0,[R1, #+0]
   1267                          }
   1268          
   1269                      }
   1270          
   1271                      if ( result != 0 && result != NOERROR_INWORK)
   \                     ??AL_ControlInd_32: (+1)
   \      0x250   0x0038             MOVS     R0,R7
   \      0x252   0xB280             UXTH     R0,R0            ;; ZeroExt  R0,R0,#+16,#+16
   \      0x254   0x2800             CMP      R0,#+0
   \      0x256   0xD00B             BEQ.N    ??AL_ControlInd_33
   \      0x258   0x0038             MOVS     R0,R7
   \      0x25A   0xB280             UXTH     R0,R0            ;; ZeroExt  R0,R0,#+16,#+16
   \      0x25C   0x28FF             CMP      R0,#+255
   \      0x25E   0xD007             BEQ.N    ??AL_ControlInd_33
   1272                      {
   1273                          if(!bApplEsmPending)
   \      0x260   0xF899 0x0000      LDRB     R0,[R9, #+0]
   \      0x264   0x2800             CMP      R0,#+0
   \      0x266   0xD101             BNE.N    ??AL_ControlInd_34
   1274                              APPL_StopOutputHandler();
   \      0x268   0x.... 0x....      BL       APPL_StopOutputHandler
   1275          
   1276                          StopOutputHandler();
   \                     ??AL_ControlInd_34: (+1)
   \      0x26C   0x.... 0x....      BL       StopOutputHandler
   1277                      }
   1278          
   1279                      break;
   \                     ??AL_ControlInd_33: (+1)
   \      0x270   0xE089             B.N      ??AL_ControlInd_24
   1280          
   1281                  case OP_2_SAFEOP:
   1282                      /* stop the output handler (function is defined above) */
   1283                      APPL_StopOutputHandler();
   \                     ??AL_ControlInd_22: (+1)
   \      0x272   0x.... 0x....      BL       APPL_StopOutputHandler
   1284          
   1285                      StopOutputHandler();
   \      0x276   0x.... 0x....      BL       StopOutputHandler
   1286          
   1287                      bApplEsmPending = FALSE;
   \      0x27A   0x2000             MOVS     R0,#+0
   \      0x27C   0xF889 0x0000      STRB     R0,[R9, #+0]
   1288          
   1289                      break;
   \      0x280   0xE081             B.N      ??AL_ControlInd_24
   1290          
   1291                  case OP_2_PREOP:
   1292                      /* stop the output handler (function is defined above) */
   1293                      result = APPL_StopOutputHandler();
   \                     ??AL_ControlInd_21: (+1)
   \      0x282   0x.... 0x....      BL       APPL_StopOutputHandler
   \      0x286   0x0007             MOVS     R7,R0
   1294          
   1295                      StopOutputHandler();
   \      0x288   0x.... 0x....      BL       StopOutputHandler
   1296          
   1297                      bApplEsmPending = FALSE;
   \      0x28C   0x2000             MOVS     R0,#+0
   \      0x28E   0xF889 0x0000      STRB     R0,[R9, #+0]
   1298          
   1299                      if (result != 0)
   \      0x292   0x0038             MOVS     R0,R7
   \      0x294   0xB280             UXTH     R0,R0            ;; ZeroExt  R0,R0,#+16,#+16
   \      0x296   0x2800             CMP      R0,#+0
   \      0x298   0xD175             BNE.N    ??AL_ControlInd_24
   1300                          break;
   1301          
   1302                      stateTrans = SAFEOP_2_PREOP;
   \                     ??AL_ControlInd_35: (+1)
   \      0x29A   0xF05F 0x0B42      MOVS     R11,#+66
   1303          
   1304                  case SAFEOP_2_PREOP:
   1305                      /* stop the input handler (function is defined above) */
   1306                      APPL_StopInputHandler();
   \                     ??AL_ControlInd_18: (+1)
   \      0x29E   0x.... 0x....      BL       APPL_StopInputHandler
   1307                     
   1308                      StopInputHandler();
   \      0x2A2   0x.... 0x....      BL       StopInputHandler
   1309          
   1310                      bApplEsmPending = FALSE;
   \      0x2A6   0x2000             MOVS     R0,#+0
   \      0x2A8   0xF889 0x0000      STRB     R0,[R9, #+0]
   1311          
   1312                      break;
   \      0x2AC   0xE06B             B.N      ??AL_ControlInd_24
   1313          
   1314                  case OP_2_INIT:
   1315                      /* stop the output handler (function is defined above) */
   1316                      result = APPL_StopOutputHandler();
   \                     ??AL_ControlInd_20: (+1)
   \      0x2AE   0x.... 0x....      BL       APPL_StopOutputHandler
   \      0x2B2   0x0007             MOVS     R7,R0
   1317          
   1318                      StopOutputHandler();
   \      0x2B4   0x.... 0x....      BL       StopOutputHandler
   1319          
   1320                      bApplEsmPending = FALSE;
   \      0x2B8   0x2000             MOVS     R0,#+0
   \      0x2BA   0xF889 0x0000      STRB     R0,[R9, #+0]
   1321          
   1322                      if (result != 0)
   \      0x2BE   0x0038             MOVS     R0,R7
   \      0x2C0   0xB280             UXTH     R0,R0            ;; ZeroExt  R0,R0,#+16,#+16
   \      0x2C2   0x2800             CMP      R0,#+0
   \      0x2C4   0xD15F             BNE.N    ??AL_ControlInd_24
   1323                          break;
   1324                      
   1325                      stateTrans = SAFEOP_2_INIT;
   \                     ??AL_ControlInd_36: (+1)
   \      0x2C6   0xF05F 0x0B41      MOVS     R11,#+65
   1326          
   1327                  case SAFEOP_2_INIT:
   1328                      /* stop the input handler (function is defined above) */
   1329                      result = APPL_StopInputHandler();
   \                     ??AL_ControlInd_17: (+1)
   \      0x2CA   0x.... 0x....      BL       APPL_StopInputHandler
   \      0x2CE   0x0007             MOVS     R7,R0
   1330                      
   1331                      StopInputHandler();
   \      0x2D0   0x.... 0x....      BL       StopInputHandler
   1332          
   1333                      bApplEsmPending = FALSE;
   \      0x2D4   0x2000             MOVS     R0,#+0
   \      0x2D6   0xF889 0x0000      STRB     R0,[R9, #+0]
   1334          
   1335                      if (result != 0)
   \      0x2DA   0x0038             MOVS     R0,R7
   \      0x2DC   0xB280             UXTH     R0,R0            ;; ZeroExt  R0,R0,#+16,#+16
   \      0x2DE   0x2800             CMP      R0,#+0
   \      0x2E0   0xD151             BNE.N    ??AL_ControlInd_24
   1336                          break;
   1337                      stateTrans = PREOP_2_INIT;
   \                     ??AL_ControlInd_37: (+1)
   \      0x2E2   0xF05F 0x0B21      MOVS     R11,#+33
   1338          
   1339                  case PREOP_2_INIT:
   1340                      MBX_StopMailboxHandler();
   \                     ??AL_ControlInd_13: (+1)
   \      0x2E6   0x.... 0x....      BL       MBX_StopMailboxHandler
   1341                      result = APPL_StopMailboxHandler();
   \      0x2EA   0x.... 0x....      BL       APPL_StopMailboxHandler
   \      0x2EE   0x0007             MOVS     R7,R0
   1342          
   1343                      BackToInitTransition();
   \      0x2F0   0x.... 0x....      BL       BackToInitTransition
   1344                      break;
   \      0x2F4   0xE047             B.N      ??AL_ControlInd_24
   1345          
   1346                  case INIT_2_INIT:
   1347                      BackToInitTransition();
   \                     ??AL_ControlInd_9: (+1)
   \      0x2F6   0x.... 0x....      BL       BackToInitTransition
   1348                  case PREOP_2_PREOP:
   1349                  case SAFEOP_2_SAFEOP:
   1350                  case OP_2_OP:
   1351                      if(bErrAck)
   \                     ??AL_ControlInd_14: (+1)
   \      0x2FA   0xB2E4             UXTB     R4,R4            ;; ZeroExt  R4,R4,#+24,#+24
   \      0x2FC   0x2C00             CMP      R4,#+0
   \      0x2FE   0xD004             BEQ.N    ??AL_ControlInd_38
   1352                          APPL_AckErrorInd(stateTrans);
   \      0x300   0x4658             MOV      R0,R11
   \      0x302   0xB2C0             UXTB     R0,R0            ;; ZeroExt  R0,R0,#+24,#+24
   \      0x304   0xB280             UXTH     R0,R0            ;; ZeroExt  R0,R0,#+16,#+16
   \      0x306   0x.... 0x....      BL       APPL_AckErrorInd
   1353          
   1354                      if(!bLocalErrorFlag)
   \                     ??AL_ControlInd_38: (+1)
   \      0x30A   0x.... 0x....      LDR.W    R0,??DataTable14
   \      0x30E   0x7800             LDRB     R0,[R0, #+0]
   \      0x310   0x2800             CMP      R0,#+0
   \      0x312   0xD113             BNE.N    ??AL_ControlInd_39
   1355                      {
   1356                          /*no local error flag is currently active, enable SM*/
   1357                          if ( nAlStatus & (STATE_SAFEOP | STATE_OP))
   \      0x314   0xF89A 0x0000      LDRB     R0,[R10, #+0]
   \      0x318   0xF010 0x0F0C      TST      R0,#0xC
   \      0x31C   0xD00E             BEQ.N    ??AL_ControlInd_39
   1358                          {
   1359                              if(nPdOutputSize > 0)
   \      0x31E   0x....             LDR.N    R0,??DataTable10_4
   \      0x320   0x8800             LDRH     R0,[R0, #+0]
   \      0x322   0x2800             CMP      R0,#+0
   \      0x324   0xD003             BEQ.N    ??AL_ControlInd_40
   1360                              {
   1361          /*ECATCHANGE_START(V5.11) HW1*/
   1362                                  EnableSyncManChannel(PROCESS_DATA_OUT);
   \      0x326   0x2002             MOVS     R0,#+2
   \      0x328   0x.... 0x....      BL       EnableSyncManChannel
   \      0x32C   0xE006             B.N      ??AL_ControlInd_39
   1363          /*ECATCHANGE_END(V5.11) HW1*/
   1364                              }
   1365                              else 
   1366                              if(nPdInputSize > 0)
   \                     ??AL_ControlInd_40: (+1)
   \      0x32E   0x....             LDR.N    R0,??DataTable10_1
   \      0x330   0x8800             LDRH     R0,[R0, #+0]
   \      0x332   0x2800             CMP      R0,#+0
   \      0x334   0xD002             BEQ.N    ??AL_ControlInd_39
   1367                              {
   1368          /*ECATCHANGE_START(V5.11) HW1*/
   1369                                  EnableSyncManChannel(PROCESS_DATA_IN);
   \      0x336   0x2003             MOVS     R0,#+3
   \      0x338   0x.... 0x....      BL       EnableSyncManChannel
   1370          /*ECATCHANGE_END(V5.11) HW1*/
   1371                              }
   1372                          }
   1373                      }
   1374                      result = NOERROR_NOSTATECHANGE;
   \                     ??AL_ControlInd_39: (+1)
   \      0x33C   0x27FE             MOVS     R7,#+254
   1375                      break;
   \      0x33E   0xE022             B.N      ??AL_ControlInd_24
   1376          
   1377                  case INIT_2_SAFEOP:
   1378                  case INIT_2_OP:
   1379                  case PREOP_2_OP:
   1380                  case PREOP_2_BOOT:
   1381                  case SAFEOP_2_BOOT:
   1382                  case OP_2_BOOT:
   1383                  case BOOT_2_PREOP:
   1384                  case BOOT_2_SAFEOP:
   1385                  case BOOT_2_OP:
   1386                      result = ALSTATUSCODE_INVALIDALCONTROL;
   \                     ??AL_ControlInd_12: (+1)
   \      0x340   0x2711             MOVS     R7,#+17
   1387                      break;
   \      0x342   0xE020             B.N      ??AL_ControlInd_24
   1388          
   1389                  default:
   1390                      result = ALSTATUSCODE_UNKNOWNALCONTROL;
   \                     ??AL_ControlInd_23: (+1)
   \      0x344   0x2712             MOVS     R7,#+18
   1391                      break;
   \      0x346   0xE01E             B.N      ??AL_ControlInd_24
   1392                  }
   1393              }
   1394              else
   1395              {
   1396                  /* the checking of the sync manager settings was not successful
   1397                      switch back the state to PREOP or INIT */
   1398                  switch (nAlStatus)
   \                     ??AL_ControlInd_8: (+1)
   \      0x348   0xF89A 0x0000      LDRB     R0,[R10, #+0]
   \      0x34C   0x2802             CMP      R0,#+2
   \      0x34E   0xD00B             BEQ.N    ??AL_ControlInd_41
   \      0x350   0x2804             CMP      R0,#+4
   \      0x352   0xD005             BEQ.N    ??AL_ControlInd_42
   \      0x354   0x2808             CMP      R0,#+8
   \      0x356   0xD116             BNE.N    ??AL_ControlInd_24
   1399                  {
   1400                  case STATE_OP:
   1401                      /* stop the output handler (function is defined above) */
   1402                      APPL_StopOutputHandler();
   \                     ??AL_ControlInd_43: (+1)
   \      0x358   0x.... 0x....      BL       APPL_StopOutputHandler
   1403                      StopOutputHandler();
   \      0x35C   0x.... 0x....      BL       StopOutputHandler
   1404                  case STATE_SAFEOP:
   1405                      /* stop the input handler (function is defined above) */
   1406                      APPL_StopInputHandler();
   \                     ??AL_ControlInd_42: (+1)
   \      0x360   0x.... 0x....      BL       APPL_StopInputHandler
   1407          
   1408                      StopInputHandler();
   \      0x364   0x.... 0x....      BL       StopInputHandler
   1409          
   1410                  case STATE_PREOP:
   1411          
   1412                      if ( result == ALSTATUSCODE_INVALIDMBXCFGINPREOP )
   \                     ??AL_ControlInd_41: (+1)
   \      0x368   0x0038             MOVS     R0,R7
   \      0x36A   0xB280             UXTH     R0,R0            ;; ZeroExt  R0,R0,#+16,#+16
   \      0x36C   0x2816             CMP      R0,#+22
   \      0x36E   0xD107             BNE.N    ??AL_ControlInd_44
   1413                      {
   1414                          /* the mailbox sync manager settings were wrong, switch back to INIT */
   1415                          MBX_StopMailboxHandler();
   \      0x370   0x.... 0x....      BL       MBX_StopMailboxHandler
   1416                          APPL_StopMailboxHandler();
   \      0x374   0x.... 0x....      BL       APPL_StopMailboxHandler
   1417          
   1418                          nAlStatus = STATE_INIT;
   \      0x378   0x2001             MOVS     R0,#+1
   \      0x37A   0xF88A 0x0000      STRB     R0,[R10, #+0]
   \      0x37E   0xE002             B.N      ??AL_ControlInd_45
   1419                      }
   1420                      else
   1421                          nAlStatus = STATE_PREOP;
   \                     ??AL_ControlInd_44: (+1)
   \      0x380   0x2002             MOVS     R0,#+2
   \      0x382   0xF88A 0x0000      STRB     R0,[R10, #+0]
   1422                  }
   1423              }
   1424          
   1425              if ( result == NOERROR_INWORK )
   \                     ??AL_ControlInd_45: (+1)
   \                     ??AL_ControlInd_24: (+1)
   \      0x386   0x0038             MOVS     R0,R7
   \      0x388   0xB280             UXTH     R0,R0            ;; ZeroExt  R0,R0,#+16,#+16
   \      0x38A   0x28FF             CMP      R0,#+255
   \      0x38C   0xD126             BNE.N    ??AL_ControlInd_46
   1426              {
   1427                  /* state transition is still in work
   1428                      ECAT_StateChange must be called from the application */
   1429                  bEcatWaitForAlControlRes = TRUE;
   \      0x38E   0x2001             MOVS     R0,#+1
   \      0x390   0x.... 0x....      LDR.W    R1,??DataTable15_9
   \      0x394   0x7008             STRB     R0,[R1, #+0]
   1430                  /* state transition has to be stored */
   1431                  nEcatStateTrans = stateTrans;
   \      0x396   0x.... 0x....      LDR.W    R0,??DataTable15_6
   \      0x39A   0xFA5F 0xFB8B      UXTB     R11,R11          ;; ZeroExt  R11,R11,#+24,#+24
   \      0x39E   0xF8A0 0xB000      STRH     R11,[R0, #+0]
   1432          
   1433                  /*Init ESM timeout counter (will be decremented with the local 1ms timer)*/
   1434                  switch(nEcatStateTrans)
   \      0x3A2   0x8800             LDRH     R0,[R0, #+0]
   \      0x3A4   0x2812             CMP      R0,#+18
   \      0x3A6   0xD006             BEQ.N    ??AL_ControlInd_47
   \      0x3A8   0x2813             CMP      R0,#+19
   \      0x3AA   0xD004             BEQ.N    ??AL_ControlInd_47
   \      0x3AC   0x2824             CMP      R0,#+36
   \      0x3AE   0xD007             BEQ.N    ??AL_ControlInd_48
   \      0x3B0   0x2848             CMP      R0,#+72
   \      0x3B2   0xD005             BEQ.N    ??AL_ControlInd_48
   \      0x3B4   0xE009             B.N      ??AL_ControlInd_49
   1435                  {
   1436                      case INIT_2_PREOP:
   1437                      case INIT_2_BOOT:
   1438                          EsmTimeoutCounter = PREOPTIMEOUT;
   \                     ??AL_ControlInd_47: (+1)
   \      0x3B6   0xF44F 0x60FA      MOV      R0,#+2000
   \      0x3BA   0xF8A8 0x0000      STRH     R0,[R8, #+0]
   1439                      break;
   \      0x3BE   0xE007             B.N      ??AL_ControlInd_50
   1440                      case PREOP_2_SAFEOP:
   1441                      case SAFEOP_2_OP:
   1442                          EsmTimeoutCounter = SAFEOP2OPTIMEOUT;
   \                     ??AL_ControlInd_48: (+1)
   \      0x3C0   0xF242 0x3028      MOVW     R0,#+9000
   \      0x3C4   0xF8A8 0x0000      STRH     R0,[R8, #+0]
   1443                          break;
   \      0x3C8   0xE002             B.N      ??AL_ControlInd_50
   1444                     default:
   1445                          EsmTimeoutCounter = 200; //Set default timeout value to 200ms
   \                     ??AL_ControlInd_49: (+1)
   \      0x3CA   0x20C8             MOVS     R0,#+200
   \      0x3CC   0xF8A8 0x0000      STRH     R0,[R8, #+0]
   1446                          break;
   1447                  }
   1448                  EsmTimeoutCounter -= 50; //subtract 50ms from the timeout to react before the master runs into a timeout.
   \                     ??AL_ControlInd_50: (+1)
   \      0x3D0   0xF8B8 0x0000      LDRH     R0,[R8, #+0]
   \      0x3D4   0x3832             SUBS     R0,R0,#+50
   \      0x3D6   0xF8A8 0x0000      STRH     R0,[R8, #+0]
   \      0x3DA   0xE05D             B.N      ??AL_ControlInd_51
   1449          
   1450              }
   1451              else if ( alControl != (nAlStatus & STATE_MASK) )
   \                     ??AL_ControlInd_46: (+1)
   \      0x3DC   0x0028             MOVS     R0,R5
   \      0x3DE   0xB2C0             UXTB     R0,R0            ;; ZeroExt  R0,R0,#+24,#+24
   \      0x3E0   0xF89A 0x1000      LDRB     R1,[R10, #+0]
   \      0x3E4   0xF011 0x010F      ANDS     R1,R1,#0xF
   \      0x3E8   0x4288             CMP      R0,R1
   \      0x3EA   0xD04C             BEQ.N    ??AL_ControlInd_52
   1452              {
   1453                  /* The slave state has changed */
   1454          
   1455                  if ( (result != 0 || alStatusCode != 0) && ((alControl | nAlStatus) & STATE_OP) )
   \      0x3EC   0x0038             MOVS     R0,R7
   \      0x3EE   0xB280             UXTH     R0,R0            ;; ZeroExt  R0,R0,#+16,#+16
   \      0x3F0   0x2800             CMP      R0,#+0
   \      0x3F2   0xD103             BNE.N    ??AL_ControlInd_53
   \      0x3F4   0x0030             MOVS     R0,R6
   \      0x3F6   0xB280             UXTH     R0,R0            ;; ZeroExt  R0,R0,#+16,#+16
   \      0x3F8   0x2800             CMP      R0,#+0
   \      0x3FA   0xD01E             BEQ.N    ??AL_ControlInd_54
   \                     ??AL_ControlInd_53: (+1)
   \      0x3FC   0x0029             MOVS     R1,R5
   \      0x3FE   0xB2C9             UXTB     R1,R1            ;; ZeroExt  R1,R1,#+24,#+24
   \      0x400   0xF89A 0x0000      LDRB     R0,[R10, #+0]
   \      0x404   0x4301             ORRS     R1,R0,R1
   \      0x406   0x0708             LSLS     R0,R1,#+28
   \      0x408   0xD517             BPL.N    ??AL_ControlInd_54
   1456                  {
   1457                      /* the local application requested to leave the state OP so we have to disable the SM2
   1458                         and make the state change from OP to SAFEOP by calling StopOutputHandler */
   1459          
   1460                      //only execute StopOutputHandler() if Output update is still running
   1461                      if(bEcatOutputUpdateRunning)
   \      0x40A   0x.... 0x....      LDR.W    R0,??DataTable15_2
   \      0x40E   0x7800             LDRB     R0,[R0, #+0]
   \      0x410   0x2800             CMP      R0,#+0
   \      0x412   0xD003             BEQ.N    ??AL_ControlInd_55
   1462                      {
   1463                          APPL_StopOutputHandler();
   \      0x414   0x.... 0x....      BL       APPL_StopOutputHandler
   1464          
   1465                          StopOutputHandler();
   \      0x418   0x.... 0x....      BL       StopOutputHandler
   1466                      }
   1467          
   1468                      if(nPdOutputSize > 0)
   \                     ??AL_ControlInd_55: (+1)
   \      0x41C   0x....             LDR.N    R0,??DataTable10_4
   \      0x41E   0x8800             LDRH     R0,[R0, #+0]
   \      0x420   0x2800             CMP      R0,#+0
   \      0x422   0xD003             BEQ.N    ??AL_ControlInd_56
   1469                      {
   1470                          /* disable the Sync Manager Channel 2 (outputs) */
   1471          /*ECATCHANGE_START(V5.11) HW1*/
   1472                          DisableSyncManChannel(PROCESS_DATA_OUT);
   \      0x424   0x2002             MOVS     R0,#+2
   \      0x426   0x.... 0x....      BL       DisableSyncManChannel
   \      0x42A   0xE006             B.N      ??AL_ControlInd_54
   1473          /*ECATCHANGE_END(V5.11) HW1*/
   1474                      }
   1475                      else
   1476                          if(nPdInputSize > 0)
   \                     ??AL_ControlInd_56: (+1)
   \      0x42C   0x....             LDR.N    R0,??DataTable10_1
   \      0x42E   0x8800             LDRH     R0,[R0, #+0]
   \      0x430   0x2800             CMP      R0,#+0
   \      0x432   0xD002             BEQ.N    ??AL_ControlInd_54
   1477                      {
   1478                          /*disable Sync Manager 3 (inputs) if no outputs available*/
   1479          /*ECATCHANGE_START(V5.11) HW1*/
   1480                          DisableSyncManChannel(PROCESS_DATA_IN);
   \      0x434   0x2003             MOVS     R0,#+3
   \      0x436   0x.... 0x....      BL       DisableSyncManChannel
   1481          /*ECATCHANGE_END(V5.11) HW1*/
   1482                      }
   1483          
   1484                  }
   1485                  if ( result != 0 )
   \                     ??AL_ControlInd_54: (+1)
   \      0x43A   0x0038             MOVS     R0,R7
   \      0x43C   0xB280             UXTH     R0,R0            ;; ZeroExt  R0,R0,#+16,#+16
   \      0x43E   0x2800             CMP      R0,#+0
   \      0x440   0xD00D             BEQ.N    ??AL_ControlInd_57
   1486                  {
   1487                      if ( nAlStatus == STATE_OP )
   \      0x442   0xF89A 0x0000      LDRB     R0,[R10, #+0]
   \      0x446   0x2808             CMP      R0,#+8
   \      0x448   0xD102             BNE.N    ??AL_ControlInd_58
   1488                          nAlStatus = STATE_SAFEOP;
   \      0x44A   0x2004             MOVS     R0,#+4
   \      0x44C   0xF88A 0x0000      STRB     R0,[R10, #+0]
   1489                      /* save the failed status to be able to decide, if the AL Status Code shall be
   1490                         reset in case of a coming successful state transition */
   1491                      nAlStatus |= STATE_CHANGE;
   \                     ??AL_ControlInd_58: (+1)
   \      0x450   0xF89A 0x0000      LDRB     R0,[R10, #+0]
   \      0x454   0xF050 0x0010      ORRS     R0,R0,#0x10
   \      0x458   0xF88A 0x0000      STRB     R0,[R10, #+0]
   \      0x45C   0xE008             B.N      ??AL_ControlInd_59
   1492                  }
   1493                  else
   1494                  {
   1495                      /* state transition was successful */
   1496                      if ( alStatusCode != 0 )
   \                     ??AL_ControlInd_57: (+1)
   \      0x45E   0x0030             MOVS     R0,R6
   \      0x460   0xB280             UXTH     R0,R0            ;; ZeroExt  R0,R0,#+16,#+16
   \      0x462   0x2800             CMP      R0,#+0
   \      0x464   0xD002             BEQ.N    ??AL_ControlInd_60
   1497                      {
   1498                          /* state change request from the user */
   1499                          result = alStatusCode;
   \      0x466   0x0037             MOVS     R7,R6
   1500                          alControl |= STATE_CHANGE;
   \      0x468   0xF055 0x0510      ORRS     R5,R5,#0x10
   1501                      }
   1502                      /* acknowledge the new state */
   1503                      nAlStatus = alControl;
   \                     ??AL_ControlInd_60: (+1)
   \      0x46C   0xF88A 0x5000      STRB     R5,[R10, #+0]
   1504                  }
   1505          
   1506                  bEcatWaitForAlControlRes = FALSE;
   \                     ??AL_ControlInd_59: (+1)
   \      0x470   0x2000             MOVS     R0,#+0
   \      0x472   0x.... 0x....      LDR.W    R1,??DataTable15_9
   \      0x476   0x7008             STRB     R0,[R1, #+0]
   1507          
   1508                  /* write the AL Status register */
   1509                  SetALStatus(nAlStatus, result);
   \      0x478   0x0039             MOVS     R1,R7
   \      0x47A   0xB289             UXTH     R1,R1            ;; ZeroExt  R1,R1,#+16,#+16
   \      0x47C   0xF89A 0x0000      LDRB     R0,[R10, #+0]
   \      0x480   0x.... 0x....      BL       SetALStatus
   \      0x484   0xE008             B.N      ??AL_ControlInd_51
   1510              }
   1511              else
   1512              {
   1513                  /* Error acknowledgement without a state transition */
   1514          
   1515                   bEcatWaitForAlControlRes = FALSE;
   \                     ??AL_ControlInd_52: (+1)
   \      0x486   0x2000             MOVS     R0,#+0
   \      0x488   0x.... 0x....      LDR.W    R1,??DataTable15_9
   \      0x48C   0x7008             STRB     R0,[R1, #+0]
   1516          
   1517                  /* AL-Status has to be updated and AL-Status-Code has to be reset
   1518                     if the the error bit was acknowledged */
   1519                  SetALStatus(nAlStatus, 0);
   \      0x48E   0x2100             MOVS     R1,#+0
   \      0x490   0xF89A 0x0000      LDRB     R0,[R10, #+0]
   \      0x494   0x.... 0x....      BL       SetALStatus
   1520              }
   1521          
   1522          }
   \                     ??AL_ControlInd_51: (+1)
   \                     ??AL_ControlInd_3: (+1)
   \      0x498   0xE8BD 0x8FF1      POP      {R0,R4-R11,PC}   ;; return
   1523          
   1524          /////////////////////////////////////////////////////////////////////////////////////////
   1525          /**
   1526          
   1527           \brief    This function is called cyclic if a state transition is pending (bEcatWaitForAlControlRes == TRUE)
   1528           \brief    If the ESM timeout is expired the state transition will be rejected. Otherwise the application specific state transition function is called.
   1529           \brief    If the pending state transition is triggered by the application the transition need to be completed by the application (ECAT_StateChange())
   1530            *////////////////////////////////////////////////////////////////////////////////////////

   \                                 In section .text, align 2, keep-with-next
   1531          void AL_ControlRes(void)
   1532          {
   \                     AL_ControlRes: (+1)
   \        0x0   0xB5F8             PUSH     {R3-R7,LR}
   1533              if(bEcatWaitForAlControlRes)
   \        0x2   0x.... 0x....      LDR.W    R4,??DataTable15_9
   \        0x6   0x7820             LDRB     R0,[R4, #+0]
   \        0x8   0x2800             CMP      R0,#+0
   \        0xA   0xF000 0x80D3      BEQ.W    ??AL_ControlRes_0
   1534              {
   1535                  UINT16 result = 0;
   \        0xE   0x2000             MOVS     R0,#+0
   1536                  UINT8 Status = 0;
   \       0x10   0x2500             MOVS     R5,#+0
   1537                  UINT16 StatusCode = 0;
   \       0x12   0x2600             MOVS     R6,#+0
   1538          
   1539                  if(EsmTimeoutCounter == 0)
   \       0x14   0x.... 0x....      LDR.W    R0,??DataTable15_4
   \       0x18   0xF9B0 0x0000      LDRSH    R0,[R0, #+0]
   \       0x1C   0x2800             CMP      R0,#+0
   \       0x1E   0xD151             BNE.N    ??AL_ControlRes_1
   1540                  {
   1541                      Status =  (UINT8)(nEcatStateTrans >> 4);
   \       0x20   0x.... 0x....      LDR.W    R0,??DataTable15_6
   \       0x24   0x8805             LDRH     R5,[R0, #+0]
   \       0x26   0xB2AD             UXTH     R5,R5            ;; ZeroExt  R5,R5,#+16,#+16
   \       0x28   0x092D             LSRS     R5,R5,#+4
   1542          
   1543                      /* ESM timeout expired*/
   1544                      switch(nEcatStateTrans)
   \       0x2A   0x8800             LDRH     R0,[R0, #+0]
   \       0x2C   0x2812             CMP      R0,#+18
   \       0x2E   0xD006             BEQ.N    ??AL_ControlRes_2
   \       0x30   0x2813             CMP      R0,#+19
   \       0x32   0xD004             BEQ.N    ??AL_ControlRes_2
   \       0x34   0x2824             CMP      R0,#+36
   \       0x36   0xD016             BEQ.N    ??AL_ControlRes_3
   \       0x38   0x2848             CMP      R0,#+72
   \       0x3A   0xD028             BEQ.N    ??AL_ControlRes_4
   \       0x3C   0xE0A8             B.N      ??AL_ControlRes_5
   1545                      {
   1546                          case INIT_2_PREOP:
   1547                          case INIT_2_BOOT:
   1548          
   1549                              if(!bApplEsmPending)
   \                     ??AL_ControlRes_2: (+1)
   \       0x3E   0x.... 0x....      LDR.W    R0,??DataTable15_5
   \       0x42   0x7800             LDRB     R0,[R0, #+0]
   \       0x44   0x2800             CMP      R0,#+0
   \       0x46   0xD101             BNE.N    ??AL_ControlRes_6
   1550                                  APPL_StopMailboxHandler();
   \       0x48   0x.... 0x....      BL       APPL_StopMailboxHandler
   1551          
   1552                              MBX_StopMailboxHandler();
   \                     ??AL_ControlRes_6: (+1)
   \       0x4C   0x.... 0x....      BL       MBX_StopMailboxHandler
   1553                              if(bLocalErrorFlag)
   \       0x50   0x.... 0x....      LDR.W    R0,??DataTable14
   \       0x54   0x7800             LDRB     R0,[R0, #+0]
   \       0x56   0x2800             CMP      R0,#+0
   \       0x58   0xD003             BEQ.N    ??AL_ControlRes_7
   1554                              {
   1555                                  /*Set application specified error*/
   1556                                  StatusCode = u16LocalErrorCode;
   \       0x5A   0x.... 0x....      LDR.W    R0,??DataTable15_1
   \       0x5E   0x8806             LDRH     R6,[R0, #+0]
   \       0x60   0xE000             B.N      ??AL_ControlRes_8
   1557                              }
   1558                              else
   1559                              {
   1560                                  /*Set unspecified error*/
   1561                                  StatusCode = ALSTATUSCODE_UNSPECIFIEDERROR;
   \                     ??AL_ControlRes_7: (+1)
   \       0x62   0x2601             MOVS     R6,#+1
   1562                              }
   1563                          break;
   \                     ??AL_ControlRes_8: (+1)
   \       0x64   0xE094             B.N      ??AL_ControlRes_5
   1564                          case PREOP_2_SAFEOP:
   1565                              if(!bApplEsmPending)
   \                     ??AL_ControlRes_3: (+1)
   \       0x66   0x.... 0x....      LDR.W    R0,??DataTable15_5
   \       0x6A   0x7800             LDRB     R0,[R0, #+0]
   \       0x6C   0x2800             CMP      R0,#+0
   \       0x6E   0xD101             BNE.N    ??AL_ControlRes_9
   1566                                  APPL_StopInputHandler();
   \       0x70   0x.... 0x....      BL       APPL_StopInputHandler
   1567          
   1568                              StopInputHandler();
   \                     ??AL_ControlRes_9: (+1)
   \       0x74   0x.... 0x....      BL       StopInputHandler
   1569                              
   1570                              if(bLocalErrorFlag)
   \       0x78   0x.... 0x....      LDR.W    R0,??DataTable14
   \       0x7C   0x7800             LDRB     R0,[R0, #+0]
   \       0x7E   0x2800             CMP      R0,#+0
   \       0x80   0xD003             BEQ.N    ??AL_ControlRes_10
   1571                              {
   1572                                  /*Set application specified error*/
   1573                                  StatusCode = u16LocalErrorCode;
   \       0x82   0x.... 0x....      LDR.W    R0,??DataTable15_1
   \       0x86   0x8806             LDRH     R6,[R0, #+0]
   \       0x88   0xE000             B.N      ??AL_ControlRes_11
   1574                              }
   1575                              else
   1576                              {
   1577                                  /*Set unspecified error*/
   1578                                  StatusCode = ALSTATUSCODE_UNSPECIFIEDERROR;
   \                     ??AL_ControlRes_10: (+1)
   \       0x8A   0x2601             MOVS     R6,#+1
   1579                              }
   1580                          break;
   \                     ??AL_ControlRes_11: (+1)
   \       0x8C   0xE080             B.N      ??AL_ControlRes_5
   1581                          case SAFEOP_2_OP:
   1582                              {
   1583          /*ECATCHANGE_START(V5.11) ECAT4*/
   1584                                  if (nPdOutputSize > 0)
   \                     ??AL_ControlRes_4: (+1)
   \       0x8E   0x.... 0x....      LDR.W    R0,??DataTable15_10
   \       0x92   0x8800             LDRH     R0,[R0, #+0]
   \       0x94   0x2800             CMP      R0,#+0
   \       0x96   0xD001             BEQ.N    ??AL_ControlRes_12
   1585                                  {
   1586                                      StatusCode = ALSTATUSCODE_SMWATCHDOG;
   \       0x98   0x261B             MOVS     R6,#+27
   \       0x9A   0xE005             B.N      ??AL_ControlRes_13
   1587                                  }
   1588                                  else
   1589          /*ECATCHANGE_END(V5.11) ECAT4*/
   1590                                  {
   1591                                      /*Set valid state transition even if timeout expired*/
   1592                                      Status = STATE_OP;
   \                     ??AL_ControlRes_12: (+1)
   \       0x9C   0x2508             MOVS     R5,#+8
   1593                                      StatusCode = 0;
   \       0x9E   0x2600             MOVS     R6,#+0
   1594                                      /* Slave is OPERATIONAL */
   1595                                      bEcatOutputUpdateRunning = TRUE;
   \       0xA0   0x2001             MOVS     R0,#+1
   \       0xA2   0x.... 0x....      LDR.W    R1,??DataTable15_2
   \       0xA6   0x7008             STRB     R0,[R1, #+0]
   1596                                  }
   1597                              }
   1598          
   1599                              /*Stop handler on failed transition*/
   1600                              if(StatusCode != 0)
   \                     ??AL_ControlRes_13: (+1)
   \       0xA8   0x0030             MOVS     R0,R6
   \       0xAA   0xB280             UXTH     R0,R0            ;; ZeroExt  R0,R0,#+16,#+16
   \       0xAC   0x2800             CMP      R0,#+0
   \       0xAE   0xD008             BEQ.N    ??AL_ControlRes_14
   1601                              {
   1602                                  if(!bApplEsmPending)
   \       0xB0   0x.... 0x....      LDR.W    R0,??DataTable15_5
   \       0xB4   0x7800             LDRB     R0,[R0, #+0]
   \       0xB6   0x2800             CMP      R0,#+0
   \       0xB8   0xD101             BNE.N    ??AL_ControlRes_15
   1603                                      APPL_StopOutputHandler();
   \       0xBA   0x.... 0x....      BL       APPL_StopOutputHandler
   1604          
   1605                                  StopOutputHandler();
   \                     ??AL_ControlRes_15: (+1)
   \       0xBE   0x.... 0x....      BL       StopOutputHandler
   1606                              }
   1607                          break;
   \                     ??AL_ControlRes_14: (+1)
   \       0xC2   0xE065             B.N      ??AL_ControlRes_5
   1608                      }
   1609                  } //ESM timeout
   1610                  else
   1611                  {
   1612                      /*Call application specific transition function and complete transition it the function returns 0*/
   1613                      switch(nEcatStateTrans)
   \                     ??AL_ControlRes_1: (+1)
   \       0xC4   0x.... 0x....      LDR.W    R7,??DataTable15_6
   \       0xC8   0x8838             LDRH     R0,[R7, #+0]
   \       0xCA   0x2812             CMP      R0,#+18
   \       0xCC   0xD006             BEQ.N    ??AL_ControlRes_16
   \       0xCE   0x2813             CMP      R0,#+19
   \       0xD0   0xD004             BEQ.N    ??AL_ControlRes_16
   \       0xD2   0x2824             CMP      R0,#+36
   \       0xD4   0xD01F             BEQ.N    ??AL_ControlRes_17
   \       0xD6   0x2848             CMP      R0,#+72
   \       0xD8   0xD039             BEQ.N    ??AL_ControlRes_18
   \       0xDA   0xE059             B.N      ??AL_ControlRes_5
   1614                      {
   1615                          case INIT_2_PREOP:
   1616                          case INIT_2_BOOT:
   1617                              if(bApplEsmPending)
   \                     ??AL_ControlRes_16: (+1)
   \       0xDC   0x.... 0x....      LDR.W    R1,??DataTable15_5
   \       0xE0   0x7808             LDRB     R0,[R1, #+0]
   \       0xE2   0x2800             CMP      R0,#+0
   \       0xE4   0xD016             BEQ.N    ??AL_ControlRes_19
   1618                              {
   1619                                  bApplEsmPending = FALSE;
   \       0xE6   0x2000             MOVS     R0,#+0
   \       0xE8   0x7008             STRB     R0,[R1, #+0]
   1620                                  /*APPL_StartMailboxHandler() need to be called*/
   1621                                  result = APPL_StartMailboxHandler();
   \       0xEA   0x.... 0x....      BL       APPL_StartMailboxHandler
   1622          
   1623                                  if(result == 0)
   \       0xEE   0x0001             MOVS     R1,R0
   \       0xF0   0xB289             UXTH     R1,R1            ;; ZeroExt  R1,R1,#+16,#+16
   \       0xF2   0x2900             CMP      R1,#+0
   \       0xF4   0xD107             BNE.N    ??AL_ControlRes_20
   1624                                  {
   1625                                      /*The application specific transition was successful => set active mailbox handler indication*/
   1626                                      bMbxRunning = TRUE;
   \       0xF6   0x2001             MOVS     R0,#+1
   \       0xF8   0x.... 0x....      LDR.W    R1,??DataTable15_8
   \       0xFC   0x7008             STRB     R0,[R1, #+0]
   1627                                      Status =  (UINT8)(nEcatStateTrans & STATE_MASK);
   \       0xFE   0x783D             LDRB     R5,[R7, #+0]
   \      0x100   0xF015 0x050F      ANDS     R5,R5,#0xF
   \      0x104   0xE006             B.N      ??AL_ControlRes_19
   1628                                  }
   1629                                  else
   1630                                  {
   1631                                      /*The application specific transition failed.
   1632                                      (In pending case the application need to complete the transition)*/
   1633          
   1634                                      if(result != NOERROR_INWORK)
   \                     ??AL_ControlRes_20: (+1)
   \      0x106   0xB280             UXTH     R0,R0            ;; ZeroExt  R0,R0,#+16,#+16
   \      0x108   0x28FF             CMP      R0,#+255
   \      0x10A   0xD003             BEQ.N    ??AL_ControlRes_19
   1635                                      {
   1636                                          APPL_StopMailboxHandler();
   \      0x10C   0x.... 0x....      BL       APPL_StopMailboxHandler
   1637                                          MBX_StopMailboxHandler();
   \      0x110   0x.... 0x....      BL       MBX_StopMailboxHandler
   1638                                      }
   1639                                  }
   1640                              }
   1641                          break;
   \                     ??AL_ControlRes_19: (+1)
   \      0x114   0xE03C             B.N      ??AL_ControlRes_5
   1642                          case PREOP_2_SAFEOP:
   1643                              if(bApplEsmPending)
   \                     ??AL_ControlRes_17: (+1)
   \      0x116   0x.... 0x....      LDR.W    R1,??DataTable15_5
   \      0x11A   0x7808             LDRB     R0,[R1, #+0]
   \      0x11C   0x2800             CMP      R0,#+0
   \      0x11E   0xD015             BEQ.N    ??AL_ControlRes_21
   1644                              {
   1645                                  bApplEsmPending = FALSE;
   \      0x120   0x2000             MOVS     R0,#+0
   \      0x122   0x7008             STRB     R0,[R1, #+0]
   1646                                  result = APPL_StartInputHandler(&u16ALEventMask);
   \      0x124   0x....             LDR.N    R0,??DataTable11_2
   \      0x126   0x.... 0x....      BL       APPL_StartInputHandler
   1647          
   1648                                  if(result == 0)
   \      0x12A   0x0001             MOVS     R1,R0
   \      0x12C   0xB289             UXTH     R1,R1            ;; ZeroExt  R1,R1,#+16,#+16
   \      0x12E   0x2900             CMP      R1,#+0
   \      0x130   0xD105             BNE.N    ??AL_ControlRes_22
   1649                                  {
   1650                                      bEcatInputUpdateRunning = TRUE;
   \      0x132   0x2001             MOVS     R0,#+1
   \      0x134   0x.... 0x....      LDR.W    R1,??DataTable14_1
   \      0x138   0x7008             STRB     R0,[R1, #+0]
   1651                                      Status = STATE_SAFEOP;
   \      0x13A   0x2504             MOVS     R5,#+4
   \      0x13C   0xE006             B.N      ??AL_ControlRes_21
   1652                                  }
   1653                                  else
   1654                                  {
   1655                                      /*The application specific transition failed.
