###############################################################################
#
# IAR ANSI C/C++ Compiler V8.30.1.114/W32 for ARM         22/Jul/2020  13:36:44
# Copyright 1999-2018 IAR Systems AB.
#
#    Cpu mode     =  thumb
#    Endian       =  little
#    Source file  =  
#        E:\DESKTOP\@@@\@@@@\Intergrated\EtherCatLib\ecatappl.c
#    Command line =  
#        -f C:\Users\wfc0628\AppData\Local\Temp\EW98E3.tmp
#        (E:\DESKTOP\@@@\@@@@\Intergrated\EtherCatLib\ecatappl.c
#        -D USE_STDPERIPH_DRIVER -D STM32F40_41xxx -D _DLIB_FILE_DESCRIPTOR -lC
#        E:\DESKTOP\@@@\@@@@\Intergrated\Project\IAR\Debug\List
#        -lA
#        E:\DESKTOP\@@@\@@@@\Intergrated\Project\IAR\Debug\List
#        -o E:\DESKTOP\@@@\@@@@\Intergrated\Project\IAR\Debug\Obj
#        --no_cse --no_unroll --no_inline --no_code_motion --no_tbaa
#        --no_clustering --no_scheduling --debug --endian=little
#        --cpu=Cortex-M4 -e --fpu=VFPv4_sp --dlib_config "C:\Program Files
#        (x86)\IAR Systems\Embedded Workbench 8.1\arm\inc\c\DLib_Config_Full.h"
#        -I
#        E:\DESKTOP\@@@\@@@@\Intergrated\Project\IAR\..\..\STM32F4xx_DSP_StdPeriph_Lib_V1.8.0\Libraries\STM32F4xx_StdPeriph_Driver\inc\
#        -I
#        E:\DESKTOP\@@@\@@@@\Intergrated\Project\IAR\..\..\STM32F4xx_DSP_StdPeriph_Lib_V1.8.0\Libraries\CMSIS\Include\
#        -I
#        E:\DESKTOP\@@@\@@@@\Intergrated\Project\IAR\..\..\STM32F4xx_DSP_StdPeriph_Lib_V1.8.0\Libraries\CMSIS\Device\ST\STM32F4xx\Include\
#        -I
#        E:\DESKTOP\@@@\@@@@\Intergrated\Project\IAR\..\..\SourceCodes\
#        -I
#        E:\DESKTOP\@@@\@@@@\Intergrated\Project\IAR\..\..\EtherCatLib\
#        -I E:\DESKTOP\@@@\@@@@\Intergrated\Project\IAR\ -Ol
#        --use_c++_inline)
#    Locale       =  C
#    List file    =  
#        E:\DESKTOP\@@@\@@@@\Intergrated\Project\IAR\Debug\List\ecatappl.lst
#    Object file  =  
#        E:\DESKTOP\@@@\@@@@\Intergrated\Project\IAR\Debug\Obj\ecatappl.o
#
###############################################################################

E:\DESKTOP\@@@\@@@@\Intergrated\EtherCatLib\ecatappl.c
      1          /**
Warning[Ms014]: some characters could not be correctly encoded in
          "E:\DESKTOP\@@@\@@@@\Intergrated\Project\IAR\Debug\List\ecatappl.s",
          and have been replaced with '@'. The first such character has unicode
          code point 0x79d1 ("@")
      2          \addtogroup EcatAppl EtherCAT application
      3          @{
      4          */
      5          
      6          
      7          /**
      8          \file ecatappl.c
      9          \author EthercatSSC@beckhoff.com
     10          \brief Implementation
     11          This file contains the Process Data interface
     12          
     13          \version 5.11
     14          
     15          <br>Changes to version V5.10.1:<br>
     16          V5.11 COE3: change 0x10F3.2 (Sync Error limit) from UINT32 to UINT16 (according to the ETG.1020)<br>
     17          V5.11 ECAT1: update EEPROM access reset operation<br>
     18          V5.11 ECAT10: change PROTO handling to prevent compiler errors<br>
     19          V5.11 ECAT11: create application interface function pointer, add eeprom emulation interface functions<br>
     20          V5.11 ECAT2: update EEPROM access retry cycle (add 10ms delay between two retry cycles)<br>
     21          V5.11 ECAT3: handle bus cycle calculation for input/output only devices and create warning diag message only if calculation failed<br>
     22          V5.11 ECAT4: enhance SM/Sync monitoring for input/output only slaves<br>
     23          V5.11 ECAT6: add function to calculate bus cycle time<br>
     24          V5.11 ECAT8: call PDO_InputMapping only once if DC is enabled and COE is not supported<br>
     25          V5.11 EEPROM1: fix compiler error during pEEPROM pointer initialization<br>
     26          V5.11 EEPROM2: write Station alias value to EEPROM data register on EEPROM reload command<br>
     27          V5.11 EEPROM3: clear EEPROM error bits<br>
     28          V5.11 EEPROM4: prevent the variable in the EEPROM busy loop to be removed by the compiler<br>
     29          V5.11 ESM7: "add Sync define for 0x22 (""SYNCTYPE_SM2_SYNCHRON""), support value 0x22 for 0x1C33.1 (SM2 sync)"<br>
     30          <br>Changes to version V5.01:<br>
     31          V5.10 COE1: Define one entry description for all 0x1C3x objects and change data type of SI11,12,13 to UINT16 (according ETG.1020)<br>
     32          V5.10 ECAT1: Correct calculation of blinking and flashing sequence<br>
     33          V5.10 ECAT13: Update Synchronisation handling (FreeRun,SM Sync, Sync0, Sync1)<br>
     34                        Compare DC UINT configuration (by ESC Config data) vs. DC activation register settings<br>
     35                        Update 0x1C3x entries<br>
     36          V5.10 ECAT2: Prevent EEPROM data null pointer access (if the pointer is null an command error is set)<br>
     37                       EEPROM emulation return command error if unknown command was received<br>
     38          V5.10 ECAT4: Update alignment marco for 8 to 15 bit alignments (16 and 32 Bit controllers)<br>
     39                       Bugfix calculate LED blink frequency<br>
     40          V5.10 ECAT7: Add "bInitFinished" to indicate if the initialization is complete<br>
     41          V5.10 HW2: Change HW_GetTimer return value to UINT32<br>
     42          <br>Changes to version V5.0:<br>
     43          V5.01 APPL3: Include library demo application<br>
     44          V5.01 ESC1: Change ESC access function (if EEPROM Emulation is active)<br>
     45          V5.01 ESC2: Add missed value swapping<br>
     46          <br>Changes to version V4.40:<br>
     47          V5.0 TEST1: Add test application. See Application Note ET9300 for more details.<br>
     48          V5.0 ECAT2: Application specific functions are moved to application files.<br>
     49          V5.0 ECAT3: Global dummy variables used for dummy ESC operations.<br>
     50          V5.0 ESC1: ESC 32Bit Access added.<br>
     51          V5.0 ESC3: Add EEPROM emulation support.<br>
     52          V5.0 ESM3: Handling pending ESM transitions.<br>
     53          V5.0 ESC5: Enhance EEPROM access handling.<br>
     54          V5.0 PDO1: AL Event flags are not rechecked in PDO_OutputMappping(). (Already checked before call function)<br>
     55          V5.0 SYNC1: Add missed SM event indication (0x1C32/0x1C33 SI11).<br>
     56          <br>Changes to version V4.30:<br>
     57          V4.40 DIAG1: add diagnosis message support<br>
     58          V4.40 PDO1: merge content of HW_InputMapping (spihw.c/mcihw.c) to PDO_InputMapping. merge content of HW_OutputMapping (spihw.c/mcihw.c) to PDO_OutputMapping.<br>
     59          V4.40 PDO2: Generic process data length calculation<br>
     60          V4.40 ECAT2: call cyclic CheckIfLocalError() to check the local flags<br>
     61          V4.40 HW0: Generic hardware access functions. Add Function (PDI_Isr()), content merged from spihw.c and mcihw.c.<br>
     62          V4.40 WD1: define (ESC_SM_WD_SUPPORTED) to choose ESC SyncManager watchdog or local watchdog<br>
     63          V4.40 ESM2: Change state transition behaviour from SafeOP to OP<br>
     64          V4.40 TIMER1: Change bus cycle time calculation and trigger of ECAT_CheckTimer() if ECAT_TIMER_INT is reset<br>
     65          V4.40 HW1: Add support for fc1100 hardware<br>
     66          <br>Changes to version V4.20:<br>
     67          V4.30 EL9800: EL9800_x cyclic application is moved to el9800.c<br>
     68          V4.30 OBJ 3:    add object dictionary initialization<br>
     69          V4.30 SYNC: add CalcSMCycleTime() (calculation of bus cycle time); change synchronisation control functions<br>
     70          V4.30 PDO: include PDO specific functions (moved from coeappl.c).<br>
     71                         xxx_InputMapping(); xxx_OutputMapping(); xxx_ReadInputs(); xxx_ResetOutputs(); xxx_Application()<br>
     72          V4.30 CiA402: Add CiA402_StateMachine() and CiA402_Application() call<br>
     73          V4.20 DC 1: Add DC pending Statemachine handling<br>
     74          V4.20 PIC24: Add EL9800_4 (PIC24) required source code<br>
     75          V4.20 LED 1: Modified LED Handling<br>
     76          V4.11 APPL 1: The checkWatchdog() function should not called in checkTimer() if this function is triggered by an Interrupt<br>
     77          <br>Changes to version V4.08:<br>
     78          V4.10 LED 1: The handling of the EtherCAT-Error-LED was added<br>
     79          V4.10 AOE 3: The AoE fragment size has to be initialized during the state transition<br>
     80                           from INIT to PREOP<br>
     81          <br>Changes to version V4.07:<br>
     82          V4.08 LED 1: The handling of the EtherCAT-LED can be (de-)selected by the switch LEDS_SUPPORTED<br>
     83                           because the ET1100 and ET1200 have an output port which could be connected directly.<br>
     84          <br>Changes to version V4.01:<br>
     85          V4.02 ECAT 1: The watchdog timer variables shall be initialized.<br>
     86          <br>Changes to version V4.00:<br>
     87          V4.01 APPL 1: If the application is running in synchron mode and no SM event<br>
     88                        is received, the application should be called from the main loop<br>
     89          V4.01 APPL 2: In FreeRun mode the output should only be copied if the slave is in OP<br>
     90          <br>Changes to version V3.20:<br>
     91          V4.00 APPL 1: The watchdog checking should be done by a microcontroller<br>
     92                           timer because the watchdog trigger of the ESC will be reset too<br>
     93                           if only a part of the sync manager data is written<br>
     94          V4.00 APPL 2: The setting of EtherCAT state LEDs were included<br>
     95          V4.00 APPL 3: The outputs should be reset to a safe state,<br>
     96                             when the state OP is left<br>
     97          V4.00 APPL 4: An example for the EEPROM access through the ESC is shown in<br>
     98                             the function APPL_StartMailboxHandler<br>
     99          V4.00 APPL 5: The inputs should be read once when the state transition<br>
    100                             from PREOP to SAFEOP is made<br>
    101          V4.00 APPL 6: The main function was split in MainInit and MainLoop
    102          */
    103          
    104          
    105          /*-----------------------------------------------------------------------------------------
    106          ------
    107          ------    Includes
    108          ------
    109          -----------------------------------------------------------------------------------------*/
    110          #include "ecatslv.h"
    111          
    112          #define  _ECATAPPL_ 1
    113          #include "ecatappl.h"

   \                                 In section .bss, align 1
   \   __absolute unsigned char bEcatWaitForInputUpdate
   \                     bEcatWaitForInputUpdate:
   \        0x0                      DS8 1

   \                                 In section .bss, align 1
   \   __absolute unsigned char bEtherCATRunLed
   \                     bEtherCATRunLed:
   \        0x0                      DS8 1

   \                                 In section .bss, align 1
   \   __absolute unsigned char bEtherCATErrorLed
   \                     bEtherCATErrorLed:
   \        0x0                      DS8 1

   \                                 In section .bss, align 1
   \   __absolute unsigned char bRunApplication
   \                     bRunApplication:
   \        0x0                      DS8 1
    114          #undef   _ECATAPPL_
    115          /* ECATCHANGE_START(V5.11) ECAT10*/
    116          /*remove definition of _ECATAPPL_ (#ifdef is used in ecatappl.h)*/
    117          /* ECATCHANGE_END(V5.11) ECAT10*/
    118          
    119          #include "coeappl.h"
    120          
    121          
    122          /* ECATCHANGE_START(V5.11) ECAT11*/
    123          #define _APPL_INTERFACE_ 1
    124          #include "applInterface.h"

   \                                 In section .bss, align 4
   \   __absolute unsigned short (*pAPPL_EEPROM_Read)(unsigned long)
   \                     pAPPL_EEPROM_Read:
   \        0x0                      DS8 4

   \                                 In section .bss, align 4
   \   __absolute unsigned short (*pAPPL_EEPROM_Write)(unsigned long)
   \                     pAPPL_EEPROM_Write:
   \        0x0                      DS8 4

   \                                 In section .bss, align 4
   \   __absolute unsigned short (*pAPPL_EEPROM_Reload)(void)
   \                     pAPPL_EEPROM_Reload:
   \        0x0                      DS8 4
    125          #undef _APPL_INTERFACE_
    126          /* ECATCHANGE_END(V5.11) ECAT11*/
    127          
    128          #include "Task_Ethercat.h"
    129          
    130          
    131          
    132          /*--------------------------------------------------------------------------------------
    133          ------
    134          ------    local Types and Defines
    135          ------
    136          --------------------------------------------------------------------------------------*/
    137          
    138          
    139          #ifndef ECAT_TIMER_INC_P_MS
    140          /**
    141           * \todo Define the timer ticks per ms
    142           */
    143          #warning "Define the timer ticks per ms"
    144          #endif /* #ifndef ECAT_TIMER_INC_P_MS */
    145          
    146          
    147          /*-----------------------------------------------------------------------------------------
    148          ------
    149          ------    local variables and constants
    150          ------
    151          -----------------------------------------------------------------------------------------*/
    152          /*variables only required to calculate values for SM Synchronisation objects (0x1C3x)*/

   \                                 In section .bss, align 2
    153          UINT16 u16BusCycleCntMs;        //used to calculate the bus cycle time in Ms
   \                     u16BusCycleCntMs:
   \        0x0                      DS8 2

   \                                 In section .bss, align 4
    154          UINT32 StartTimerCnt;    //variable to store the timer register value when get cycle time was triggered
   \                     StartTimerCnt:
   \        0x0                      DS8 4

   \                                 In section .bss, align 1
    155          BOOL bCycleTimeMeasurementStarted; // indicates if the bus cycle measurement is started
   \                     bCycleTimeMeasurementStarted:
   \        0x0                      DS8 1
    156          

   \                                 In section .bss, align 4
    157          UINT16             aPdOutputData[(MAX_PD_OUTPUT_SIZE>>1)];
   \                     aPdOutputData:
   \        0x0                      DS8 68

   \                                 In section .bss, align 4
    158          UINT16           aPdInputData[(MAX_PD_INPUT_SIZE>>1)];
   \                     aPdInputData:
   \        0x0                      DS8 68
    159          
    160          /*variables are declared in ecatslv.c*/
    161          extern VARVOLATILE UINT16    u16dummy;

   \                                 In section .bss, align 1
    162          BOOL bInitFinished = FALSE; /** < \brief indicates if the initialization is finished*/
   \                     bInitFinished:
   \        0x0                      DS8 1
    163          /*-----------------------------------------------------------------------------------------
    164          ------
    165          ------    local functions
    166          ------
    167          -----------------------------------------------------------------------------------------*/
    168          
    169          /*-----------------------------------------------------------------------------------------
    170          ------
    171          ------    Functions
    172          ------
    173          -----------------------------------------------------------------------------------------*/
    174          /////////////////////////////////////////////////////////////////////////////////////////
    175          /**
    176          \brief      This function will copies the inputs from the local memory to the ESC memory
    177                      to the hardware
    178          *////////////////////////////////////////////////////////////////////////////////////////

   \                                 In section .text, align 2, keep-with-next
    179          void PDO_InputMapping(void)
    180          {
   \                     PDO_InputMapping: (+1)
   \        0x0   0xB510             PUSH     {R4,LR}
    181              APPL_InputMapping((UINT16*)aPdInputData);
   \        0x2   0x....             LDR.N    R4,??DataTable6
   \        0x4   0x0020             MOVS     R0,R4
   \        0x6   0x.... 0x....      BL       APPL_InputMapping
    182              HW_EscWriteIsr(((MEM_ADDR_EC *) aPdInputData), nEscAddrInputData, nPdInputSize );
   \        0xA   0x....             LDR.N    R0,??DataTable6_1
   \        0xC   0x8802             LDRH     R2,[R0, #+0]
   \        0xE   0x....             LDR.N    R0,??DataTable6_2
   \       0x10   0x8801             LDRH     R1,[R0, #+0]
   \       0x12   0x0020             MOVS     R0,R4
   \       0x14   0x.... 0x....      BL       HW_EscWriteIsr
    183          }
   \       0x18   0xBD10             POP      {R4,PC}          ;; return
    184          /////////////////////////////////////////////////////////////////////////////////////////
    185          /**
    186          \brief    This function will copies the outputs from the ESC memory to the local memory
    187                    to the hardware. This function is only called in case of an SM2 
    188                    (output process data) event.
    189          *////////////////////////////////////////////////////////////////////////////////////////

   \                                 In section .text, align 2, keep-with-next
    190          void PDO_OutputMapping(void)
    191          {
   \                     PDO_OutputMapping: (+1)
   \        0x0   0xB510             PUSH     {R4,LR}
    192          
    193              HW_EscReadIsr(((MEM_ADDR_EC *)aPdOutputData), nEscAddrOutputData, nPdOutputSize );
   \        0x2   0x....             LDR.N    R4,??DataTable6_3
   \        0x4   0x....             LDR.N    R0,??DataTable6_4
   \        0x6   0x8802             LDRH     R2,[R0, #+0]
   \        0x8   0x....             LDR.N    R0,??DataTable6_5
   \        0xA   0x8801             LDRH     R1,[R0, #+0]
   \        0xC   0x0020             MOVS     R0,R4
   \        0xE   0x.... 0x....      BL       HW_EscReadIsr
    194          
    195              APPL_OutputMapping((UINT16*) aPdOutputData);
   \       0x12   0x0020             MOVS     R0,R4
   \       0x14   0x.... 0x....      BL       APPL_OutputMapping
    196          }
   \       0x18   0xBD10             POP      {R4,PC}          ;; return
    197          
    198          /////////////////////////////////////////////////////////////////////////////////////////
    199          /**
    200           \brief    This function shall be called every 1ms.
    201           \brief If the switch ECAT_TIMER_INT is 0, the watchdog control is implemented without using
    202           \brief interrupts. In this case a local timer register is checked every ECAT_Main cycle
    203           \brief and the function is triggered if 1 ms is elapsed
    204           *////////////////////////////////////////////////////////////////////////////////////////
    205          

   \                                 In section .text, align 2, keep-with-next
    206          void ECAT_CheckTimer(void)
    207          {
    208              if(sSyncManOutPar.u32CycleTime == 0)
   \                     ECAT_CheckTimer: (+1)
   \        0x0   0x....             LDR.N    R0,??DataTable6_6
   \        0x2   0x6840             LDR      R0,[R0, #+4]
   \        0x4   0x2800             CMP      R0,#+0
   \        0x6   0xD103             BNE.N    ??ECAT_CheckTimer_0
    209              {
    210                  u16BusCycleCntMs++;
   \        0x8   0x....             LDR.N    R0,??DataTable6_7
   \        0xA   0x8801             LDRH     R1,[R0, #+0]
   \        0xC   0x1C49             ADDS     R1,R1,#+1
   \        0xE   0x8001             STRH     R1,[R0, #+0]
    211              }
    212          
    213              /*decrement the state transition timeout counter*/
    214              if(bEcatWaitForAlControlRes &&  (EsmTimeoutCounter > 0))
   \                     ??ECAT_CheckTimer_0: (+1)
   \       0x10   0x....             LDR.N    R0,??DataTable6_8
   \       0x12   0x7800             LDRB     R0,[R0, #+0]
   \       0x14   0x2800             CMP      R0,#+0
   \       0x16   0xD007             BEQ.N    ??ECAT_CheckTimer_1
   \       0x18   0x....             LDR.N    R0,??DataTable6_9
   \       0x1A   0xF9B0 0x1000      LDRSH    R1,[R0, #+0]
   \       0x1E   0x2901             CMP      R1,#+1
   \       0x20   0xDB02             BLT.N    ??ECAT_CheckTimer_1
    215              {
    216                  EsmTimeoutCounter--;
   \       0x22   0x8801             LDRH     R1,[R0, #+0]
   \       0x24   0x1E49             SUBS     R1,R1,#+1
   \       0x26   0x8001             STRH     R1,[R0, #+0]
    217              }
    218          
    219          
    220          
    221          }
   \                     ??ECAT_CheckTimer_1: (+1)
   \       0x28   0x4770             BX       LR               ;; return
    222          
    223          /*ECATCHANGE_START(V5.11) ECAT6*/
    224          /////////////////////////////////////////////////////////////////////////////////////////
    225          /**
    226           \brief    This function is called from the PDI_Isr and is used to calculate the bus cycle time 
    227            *////////////////////////////////////////////////////////////////////////////////////////

   \                                 In section .text, align 2, keep-with-next
    228          void HandleBusCycleCalculation(void)
    229          {
    230              /*calculate the cycle time if device is in SM Sync mode and Cycle time was not calculated yet*/
    231              if ( !bDcSyncActive && bEscIntEnabled)
   \                     HandleBusCycleCalculation: (+1)
   \        0x0   0x....             LDR.N    R0,??DataTable6_10
   \        0x2   0x7800             LDRB     R0,[R0, #+0]
   \        0x4   0x2800             CMP      R0,#+0
   \        0x6   0xD12C             BNE.N    ??HandleBusCycleCalculation_0
   \        0x8   0x....             LDR.N    R0,??DataTable6_11
   \        0xA   0x7800             LDRB     R0,[R0, #+0]
   \        0xC   0x2800             CMP      R0,#+0
   \        0xE   0xD028             BEQ.N    ??HandleBusCycleCalculation_0
    232              {
    233                  BOOL bTiggerCalcCycleTime = FALSE;
   \       0x10   0x2000             MOVS     R0,#+0
    234          
    235                  if(sSyncManOutPar.u16GetCycleTime == 1)
   \       0x12   0x....             LDR.N    R1,??DataTable6_6
   \       0x14   0x8B8A             LDRH     R2,[R1, #+28]
   \       0x16   0x2A01             CMP      R2,#+1
   \       0x18   0xD100             BNE.N    ??HandleBusCycleCalculation_1
    236                      bTiggerCalcCycleTime = TRUE;
   \       0x1A   0x2001             MOVS     R0,#+1
    237                  if(bTiggerCalcCycleTime)
   \                     ??HandleBusCycleCalculation_1: (+1)
   \       0x1C   0xB2C0             UXTB     R0,R0            ;; ZeroExt  R0,R0,#+24,#+24
   \       0x1E   0x2800             CMP      R0,#+0
   \       0x20   0xD00F             BEQ.N    ??HandleBusCycleCalculation_2
    238                  {
    239                      /*get bus cycle time triggered */
    240                      sSyncManOutPar.u32CycleTime = 0;
   \       0x22   0x2000             MOVS     R0,#+0
   \       0x24   0x6048             STR      R0,[R1, #+4]
    241                      sSyncManOutPar.u16GetCycleTime = 0;
   \       0x26   0x2000             MOVS     R0,#+0
   \       0x28   0x8388             STRH     R0,[R1, #+28]
    242          
    243                      sSyncManInPar.u32CycleTime  = 0;
   \       0x2A   0x....             LDR.N    R0,??DataTable6_12
   \       0x2C   0x2100             MOVS     R1,#+0
   \       0x2E   0x6041             STR      R1,[R0, #+4]
    244                      sSyncManInPar.u16GetCycleTime = 0;
   \       0x30   0x2100             MOVS     R1,#+0
   \       0x32   0x8381             STRH     R1,[R0, #+28]
    245                      
    246                      u16BusCycleCntMs = 0;
   \       0x34   0x2000             MOVS     R0,#+0
   \       0x36   0x....             LDR.N    R1,??DataTable6_7
   \       0x38   0x8008             STRH     R0,[R1, #+0]
    247                      bCycleTimeMeasurementStarted = TRUE;
   \       0x3A   0x2001             MOVS     R0,#+1
   \       0x3C   0x....             LDR.N    R1,??DataTable6_13
   \       0x3E   0x7008             STRB     R0,[R1, #+0]
   \       0x40   0xE00F             B.N      ??HandleBusCycleCalculation_0
    248                      //StartTimerCnt = (UINT32) HW_GetTimer();
    249                  }
    250                  else
    251                  {
    252                      if(bCycleTimeMeasurementStarted == TRUE)
   \                     ??HandleBusCycleCalculation_2: (+1)
   \       0x42   0x....             LDR.N    R0,??DataTable6_13
   \       0x44   0x7802             LDRB     R2,[R0, #+0]
   \       0x46   0x2A01             CMP      R2,#+1
   \       0x48   0xD10B             BNE.N    ??HandleBusCycleCalculation_0
    253                      {
    254                          //UINT32 CurTimerCnt = (UINT32)HW_GetTimer();
    255          /*ECATCHANGE_START(V5.11) ECAT3*/
    256                          UINT32 CalcCycleTime = 0;
   \       0x4A   0x2200             MOVS     R2,#+0
    257          
    258          
    259          #if ECAT_TIMER_INC_P_MS
    260                          //CalcCycleTime = (UINT32)u16BusCycleCntMs * 1000000 + (((INT32)(CurTimerCnt-StartTimerCnt))*1000000/ECAT_TIMER_INC_P_MS);    //get elapsed cycle time in ns
    261          #endif
    262          
    263          /*ECATCHANGE_START(V5.11) ECAT4*/
    264                          sSyncManOutPar.u32CycleTime = CalcCycleTime;
   \       0x4C   0x604A             STR      R2,[R1, #+4]
    265          /*ECATCHANGE_END(V5.11) ECAT4*/
    266                          sSyncManInPar.u32CycleTime  = CalcCycleTime;
   \       0x4E   0x....             LDR.N    R1,??DataTable6_12
   \       0x50   0x604A             STR      R2,[R1, #+4]
    267                          u16BusCycleCntMs = 0;
   \       0x52   0x2100             MOVS     R1,#+0
   \       0x54   0x....             LDR.N    R2,??DataTable6_7
   \       0x56   0x8011             STRH     R1,[R2, #+0]
    268                          StartTimerCnt = 0;
   \       0x58   0x2100             MOVS     R1,#+0
   \       0x5A   0x....             LDR.N    R2,??DataTable6_14
   \       0x5C   0x6011             STR      R1,[R2, #+0]
    269                          bCycleTimeMeasurementStarted = FALSE;
   \       0x5E   0x2100             MOVS     R1,#+0
   \       0x60   0x7001             STRB     R1,[R0, #+0]
    270          
    271          /*ECATCHANGE_END(V5.11) ECAT3*/
    272                      /* CiA402 Motion controller cycle time is only set if DC Synchronisation is active*/
    273                      }
    274                  }
    275              }
    276          }
   \                     ??HandleBusCycleCalculation_0: (+1)
   \       0x62   0x4770             BX       LR               ;; return
    277          /*ECATCHANGE_END(V5.11) ECAT6*/
    278          

   \                                 In section .text, align 2, keep-with-next
    279          void PDI_Isr(void)
    280          {
   \                     PDI_Isr: (+1)
   \        0x0   0xB570             PUSH     {R4-R6,LR}
    281              if(bEscIntEnabled)
   \        0x2   0x....             LDR.N    R0,??DataTable6_11
   \        0x4   0x7800             LDRB     R0,[R0, #+0]
   \        0x6   0x2800             CMP      R0,#+0
   \        0x8   0xD057             BEQ.N    ??PDI_Isr_0
    282              {
    283                  /* get the AL event register */
    284                  UINT16  ALEvent = HW_GetALEventRegister_Isr();
   \        0xA   0x.... 0x....      BL       HW_GetALEventRegister_Isr
   \        0xE   0x0004             MOVS     R4,R0
    285                  ALEvent = SWAPWORD(ALEvent);
    286          
    287                  if ( ALEvent & PROCESS_OUTPUT_EVENT )
   \       0x10   0x0560             LSLS     R0,R4,#+21
   \       0x12   0xD51C             BPL.N    ??PDI_Isr_1
    288                  {
    289          
    290          /*ECATCHANGE_START(V5.11) ECAT6*/
    291                      //calculate the bus cycle time if required
    292                      HandleBusCycleCalculation();
   \       0x14   0x.... 0x....      BL       HandleBusCycleCalculation
    293          /*ECATCHANGE_END(V5.11) ECAT6*/
    294          
    295                  /* Outputs were updated, set flag for watchdog monitoring */
    296                  bEcatFirstOutputsReceived = TRUE;
   \       0x18   0x2001             MOVS     R0,#+1
   \       0x1A   0x....             LDR.N    R1,??DataTable6_15
   \       0x1C   0x7008             STRB     R0,[R1, #+0]
    297          
    298          
    299                  /*
    300                      handle output process data event
    301                  */
    302                  if ( bEcatOutputUpdateRunning )
   \       0x1E   0x....             LDR.N    R0,??DataTable6_16
   \       0x20   0x7800             LDRB     R0,[R0, #+0]
   \       0x22   0x2800             CMP      R0,#+0
   \       0x24   0xD002             BEQ.N    ??PDI_Isr_2
    303                  {
    304                      /* slave is in OP, update the outputs */
    305                      PDO_OutputMapping();
   \       0x26   0x.... 0x....      BL       PDO_OutputMapping
   \       0x2A   0xE010             B.N      ??PDI_Isr_1
    306                  }
    307                  else
    308                  {
    309                      /* Just acknowledge the process data event in the INIT,PreOP and SafeOP state */
    310                      HW_EscReadWordIsr(u16dummy,nEscAddrOutputData);
   \                     ??PDI_Isr_2: (+1)
   \       0x2C   0x....             LDR.N    R5,??DataTable6_17
   \       0x2E   0x....             LDR.N    R6,??DataTable6_5
   \       0x30   0x2202             MOVS     R2,#+2
   \       0x32   0x8831             LDRH     R1,[R6, #+0]
   \       0x34   0x0028             MOVS     R0,R5
   \       0x36   0x.... 0x....      BL       HW_EscReadIsr
    311                      HW_EscReadWordIsr(u16dummy,(nEscAddrOutputData+nPdOutputSize-2));
   \       0x3A   0x2202             MOVS     R2,#+2
   \       0x3C   0x8831             LDRH     R1,[R6, #+0]
   \       0x3E   0x....             LDR.N    R0,??DataTable6_4
   \       0x40   0x8800             LDRH     R0,[R0, #+0]
   \       0x42   0x1841             ADDS     R1,R0,R1
   \       0x44   0x1E89             SUBS     R1,R1,#+2
   \       0x46   0xB289             UXTH     R1,R1            ;; ZeroExt  R1,R1,#+16,#+16
   \       0x48   0x0028             MOVS     R0,R5
   \       0x4A   0x.... 0x....      BL       HW_EscReadIsr
    312                  }
    313                  }
    314          
    315          /*ECATCHANGE_START(V5.11) ECAT4*/
    316                  if (( ALEvent & PROCESS_INPUT_EVENT ) && (nPdOutputSize == 0))
   \                     ??PDI_Isr_1: (+1)
   \       0x4E   0x0520             LSLS     R0,R4,#+20
   \       0x50   0xD505             BPL.N    ??PDI_Isr_3
   \       0x52   0x....             LDR.N    R0,??DataTable6_4
   \       0x54   0x8800             LDRH     R0,[R0, #+0]
   \       0x56   0x2800             CMP      R0,#+0
   \       0x58   0xD101             BNE.N    ??PDI_Isr_3
    317                  {
    318                      //calculate the bus cycle time if required
    319                      HandleBusCycleCalculation();
   \       0x5A   0x.... 0x....      BL       HandleBusCycleCalculation
    320                  }
    321          /*ECATCHANGE_END(V5.11) ECAT4*/
    322          
    323                  /*
    324                      Call ECAT_Application() in SM Sync mode
    325                  */
    326                  if (sSyncManOutPar.u16SyncType == SYNCTYPE_SM_SYNCHRON)
   \                     ??PDI_Isr_3: (+1)
   \       0x5E   0x....             LDR.N    R4,??DataTable6_6
   \       0x60   0x8860             LDRH     R0,[R4, #+2]
   \       0x62   0x2801             CMP      R0,#+1
   \       0x64   0xD101             BNE.N    ??PDI_Isr_4
    327                  {
    328                      /* The Application is synchronized to process data Sync Manager event*/
    329                      ECAT_Application();
   \       0x66   0x.... 0x....      BL       ECAT_Application
    330                  }
    331          
    332              if ( bEcatInputUpdateRunning 
    333          /*ECATCHANGE_START(V5.11) ESM7*/
    334                 && ((sSyncManInPar.u16SyncType == SYNCTYPE_SM_SYNCHRON) || (sSyncManInPar.u16SyncType == SYNCTYPE_SM2_SYNCHRON))
    335          /*ECATCHANGE_END(V5.11) ESM7*/
    336                  )
   \                     ??PDI_Isr_4: (+1)
   \       0x6A   0x....             LDR.N    R0,??DataTable6_18
   \       0x6C   0x7800             LDRB     R0,[R0, #+0]
   \       0x6E   0x2800             CMP      R0,#+0
   \       0x70   0xD008             BEQ.N    ??PDI_Isr_5
   \       0x72   0x....             LDR.N    R0,??DataTable6_12
   \       0x74   0x8841             LDRH     R1,[R0, #+2]
   \       0x76   0x2901             CMP      R1,#+1
   \       0x78   0xD002             BEQ.N    ??PDI_Isr_6
   \       0x7A   0x8840             LDRH     R0,[R0, #+2]
   \       0x7C   0x2822             CMP      R0,#+34
   \       0x7E   0xD101             BNE.N    ??PDI_Isr_5
    337              {
    338                  /* EtherCAT slave is at least in SAFE-OPERATIONAL, update inputs */
    339                  PDO_InputMapping();
   \                     ??PDI_Isr_6: (+1)
   \       0x80   0x.... 0x....      BL       PDO_InputMapping
    340              }
    341          
    342              /*
    343                Check if cycle exceed
    344              */
    345              /*if next SM event was triggered during runtime increment cycle exceed counter*/
    346              ALEvent = HW_GetALEventRegister_Isr();
   \                     ??PDI_Isr_5: (+1)
   \       0x84   0x.... 0x....      BL       HW_GetALEventRegister_Isr
    347              ALEvent = SWAPWORD(ALEvent);
    348          
    349              if ( ALEvent & PROCESS_OUTPUT_EVENT )
   \       0x88   0x0540             LSLS     R0,R0,#+21
   \       0x8A   0xD516             BPL.N    ??PDI_Isr_0
    350              {
    351                  sSyncManOutPar.u16CycleExceededCounter++;
   \       0x8C   0x8D60             LDRH     R0,[R4, #+42]
   \       0x8E   0x1C40             ADDS     R0,R0,#+1
   \       0x90   0x8560             STRH     R0,[R4, #+42]
    352                  sSyncManInPar.u16CycleExceededCounter = sSyncManOutPar.u16CycleExceededCounter;
   \       0x92   0x8D60             LDRH     R0,[R4, #+42]
   \       0x94   0x....             LDR.N    R1,??DataTable6_12
   \       0x96   0x8548             STRH     R0,[R1, #+42]
    353          
    354                /* Acknowledge the process data event*/
    355                      HW_EscReadWordIsr(u16dummy,nEscAddrOutputData);
   \       0x98   0x....             LDR.N    R4,??DataTable6_17
   \       0x9A   0x....             LDR.N    R5,??DataTable6_5
   \       0x9C   0x2202             MOVS     R2,#+2
   \       0x9E   0x8829             LDRH     R1,[R5, #+0]
   \       0xA0   0x0020             MOVS     R0,R4
   \       0xA2   0x.... 0x....      BL       HW_EscReadIsr
    356                      HW_EscReadWordIsr(u16dummy,(nEscAddrOutputData+nPdOutputSize-2));
   \       0xA6   0x2202             MOVS     R2,#+2
   \       0xA8   0x8829             LDRH     R1,[R5, #+0]
   \       0xAA   0x....             LDR.N    R0,??DataTable6_4
   \       0xAC   0x8800             LDRH     R0,[R0, #+0]
   \       0xAE   0x1841             ADDS     R1,R0,R1
   \       0xB0   0x1E89             SUBS     R1,R1,#+2
   \       0xB2   0xB289             UXTH     R1,R1            ;; ZeroExt  R1,R1,#+16,#+16
   \       0xB4   0x0020             MOVS     R0,R4
   \       0xB6   0x.... 0x....      BL       HW_EscReadIsr
    357              }
    358              } //if(bEscIntEnabled)
    359          }
   \                     ??PDI_Isr_0: (+1)
   \       0xBA   0xBD70             POP      {R4-R6,PC}       ;; return
    360          
    361          /////////////////////////////////////////////////////////////////////////////////////////
    362          /**
    363          
    364           \brief    This function shall called within a 1ms cycle.
    365                  Set Run and Error Led depending on the Led state
    366          
    367          *////////////////////////////////////////////////////////////////////////////////////////
    368          /////////////////////////////////////////////////////////////////////////////////////////
    369          /**
    370           \param     pObjectDictionary   Pointer to application specific object dictionary.
    371                                          NULL if no specific object are available.
    372          \return     0 if initialization was successful
    373          
    374           \brief    This function initialize the EtherCAT Sample Code
    375          
    376          *////////////////////////////////////////////////////////////////////////////////////////
    377          

   \                                 In section .text, align 2, keep-with-next
    378          UINT16 MainInit(void)
    379          {
   \                     MainInit: (+1)
   \        0x0   0xB510             PUSH     {R4,LR}
    380              UINT16 Error = 0;
   \        0x2   0x2400             MOVS     R4,#+0
    381          /*Hardware init function need to be called from the application layer*/
    382          
    383          /*ECATCHANGE_START(V5.11) EEPROM1*/
    384          #ifdef SET_EEPROM_PTR
    385              SET_EEPROM_PTR
    386          #endif
    387          /*ECATCHANGE_END(V5.11) EEPROM1*/
    388          
    389              /* initialize the EtherCAT Slave Interface */
    390              ECAT_Init();
   \        0x4   0x.... 0x....      BL       ECAT_Init
    391              /* initialize the objects */
    392              COE_ObjInit();
   \        0x8   0x.... 0x....      BL       COE_ObjInit
    393          
    394          
    395              /*Timer initialization*/
    396              u16BusCycleCntMs = 0;
   \        0xC   0x2000             MOVS     R0,#+0
   \        0xE   0x....             LDR.N    R1,??DataTable6_7
   \       0x10   0x8008             STRH     R0,[R1, #+0]
    397              StartTimerCnt    = 0;
   \       0x12   0x2000             MOVS     R0,#+0
   \       0x14   0x....             LDR.N    R1,??DataTable6_14
   \       0x16   0x6008             STR      R0,[R1, #+0]
    398              bCycleTimeMeasurementStarted = FALSE;
   \       0x18   0x2000             MOVS     R0,#+0
   \       0x1A   0x....             LDR.N    R1,??DataTable6_13
   \       0x1C   0x7008             STRB     R0,[R1, #+0]
    399          
    400              /*indicate that the slave stack initialization finished*/
    401              bInitFinished = TRUE;
   \       0x1E   0x2001             MOVS     R0,#+1
   \       0x20   0x....             LDR.N    R1,??DataTable6_19
   \       0x22   0x7008             STRB     R0,[R1, #+0]
    402          
    403          /*Application Init need to be called from the application layer*/
    404               return Error;
   \       0x24   0x0020             MOVS     R0,R4
   \       0x26   0xB280             UXTH     R0,R0            ;; ZeroExt  R0,R0,#+16,#+16
   \       0x28   0xBD10             POP      {R4,PC}          ;; return
    405          }
    406          
    407          
    408          /////////////////////////////////////////////////////////////////////////////////////////
    409          /**
    410          
    411           \brief    This function shall be called cyclically from main
    412          
    413          *////////////////////////////////////////////////////////////////////////////////////////
    414          

   \                                 In section .text, align 2, keep-with-next
    415          void MainLoop(void)
    416          {
   \                     MainLoop: (+1)
   \        0x0   0xB580             PUSH     {R7,LR}
    417              /*return if initialization not finished */
    418              if(bInitFinished == FALSE)
   \        0x2   0x....             LDR.N    R0,??DataTable6_19
   \        0x4   0x7800             LDRB     R0,[R0, #+0]
   \        0x6   0x2800             CMP      R0,#+0
   \        0x8   0xD033             BEQ.N    ??MainLoop_0
    419                  return;
    420          
    421          
    422          
    423                  /* FreeRun-Mode:  bEscIntEnabled = FALSE, bDcSyncActive = FALSE
    424                     Synchron-Mode: bEscIntEnabled = TRUE, bDcSyncActive = FALSE
    425                     DC-Mode:       bEscIntEnabled = TRUE, bDcSyncActive = TRUE 
    426                  */
    427                  if (
    428                      (!bEscIntEnabled || !bEcatFirstOutputsReceived)     /* SM-Synchronous, but not SM-event received */
    429                      )
   \                     ??MainLoop_1: (+1)
   \        0xA   0x....             LDR.N    R1,??DataTable6_11
   \        0xC   0x7808             LDRB     R0,[R1, #+0]
   \        0xE   0x2800             CMP      R0,#+0
   \       0x10   0xD003             BEQ.N    ??MainLoop_2
   \       0x12   0x....             LDR.N    R0,??DataTable6_15
   \       0x14   0x7800             LDRB     R0,[R0, #+0]
   \       0x16   0x2800             CMP      R0,#+0
   \       0x18   0xD121             BNE.N    ??MainLoop_3
    430                  {
    431                      /* if the application is running in ECAT Synchron Mode the function ECAT_Application is called
    432                         from the ESC interrupt routine (in mcihw.c or spihw.c),
    433                         in ECAT Synchron Mode it should be additionally checked, if the SM-event is received
    434                         at least once (bEcatFirstOutputsReceived = 1), otherwise no interrupt is generated
    435                         and the function ECAT_Application has to be called here (with interrupts disabled,
    436                         because the SM-event could be generated while executing ECAT_Application) */
    437                      if ( !bEscIntEnabled )
   \                     ??MainLoop_2: (+1)
   \       0x1A   0x7808             LDRB     R0,[R1, #+0]
   \       0x1C   0x2800             CMP      R0,#+0
   \       0x1E   0xD116             BNE.N    ??MainLoop_4
    438                      {
    439                          /* application is running in ECAT FreeRun Mode,
    440                             first we have to check, if outputs were received */
    441                          UINT16 ALEvent = HW_GetALEventRegister();
   \       0x20   0x.... 0x....      BL       HW_GetALEventRegister
    442                          ALEvent = SWAPWORD(ALEvent);
    443          
    444                          if ( ALEvent & PROCESS_OUTPUT_EVENT )
   \       0x24   0x0541             LSLS     R1,R0,#+21
   \       0x26   0xD509             BPL.N    ??MainLoop_5
    445                          {
    446                              /* set the flag for the state machine behaviour */
    447                              bEcatFirstOutputsReceived = TRUE;
   \       0x28   0x2001             MOVS     R0,#+1
   \       0x2A   0x....             LDR.N    R1,??DataTable6_15
   \       0x2C   0x7008             STRB     R0,[R1, #+0]
    448                              if ( bEcatOutputUpdateRunning )
   \       0x2E   0x....             LDR.N    R0,??DataTable6_16
   \       0x30   0x7800             LDRB     R0,[R0, #+0]
   \       0x32   0x2800             CMP      R0,#+0
   \       0x34   0xD00B             BEQ.N    ??MainLoop_4
    449                              {
    450                                  /* update the outputs */
    451                                  PDO_OutputMapping();
   \       0x36   0x.... 0x....      BL       PDO_OutputMapping
   \       0x3A   0xE008             B.N      ??MainLoop_4
    452                              }
    453                          }
    454                          else if ( nPdOutputSize == 0 )
   \                     ??MainLoop_5: (+1)
   \       0x3C   0x....             LDR.N    R1,??DataTable6_4
   \       0x3E   0x8809             LDRH     R1,[R1, #+0]
   \       0x40   0x2900             CMP      R1,#+0
   \       0x42   0xD104             BNE.N    ??MainLoop_4
    455                          {
    456                              /* if no outputs are transmitted, the watchdog must be reset, when the inputs were read */
    457                              if ( ALEvent & PROCESS_INPUT_EVENT )
   \       0x44   0x0500             LSLS     R0,R0,#+20
   \       0x46   0xD502             BPL.N    ??MainLoop_4
    458                              {
    459                                  /* Outputs were updated, set flag for watchdog monitoring */
    460                                  bEcatFirstOutputsReceived = TRUE;
   \       0x48   0x2001             MOVS     R0,#+1
   \       0x4A   0x....             LDR.N    R1,??DataTable6_15
   \       0x4C   0x7008             STRB     R0,[R1, #+0]
    461                              }
    462                          }
    463                      }
    464          
    465                      //DISABLE_ESC_INT();
    466                      ECAT_Application();
   \                     ??MainLoop_4: (+1)
   \       0x4E   0x.... 0x....      BL       ECAT_Application
    467          
    468                      if ( bEcatInputUpdateRunning )
   \       0x52   0x....             LDR.N    R0,??DataTable6_18
   \       0x54   0x7800             LDRB     R0,[R0, #+0]
   \       0x56   0x2800             CMP      R0,#+0
   \       0x58   0xD001             BEQ.N    ??MainLoop_3
    469                      {
    470                          /* EtherCAT slave is at least in SAFE-OPERATIONAL, update inputs */
    471                          PDO_InputMapping();
   \       0x5A   0x.... 0x....      BL       PDO_InputMapping
    472                      }
    473                      //ENABLE_ESC_INT();
    474                  }
    475          
    476                  /* there is no interrupt routine for the hardware timer so check the timer register if the desired cycle elapsed*/
    477                  {
    478                      //UINT32 CurTimer = (UINT32)HW_GetTimer();
    479          
    480                      //if(CurTimer>= ECAT_TIMER_INC_P_MS)
    481                      {
    482                          ECAT_CheckTimer();
   \                     ??MainLoop_3: (+1)
   \       0x5E   0x.... 0x....      BL       ECAT_CheckTimer
    483          
    484                     //     HW_ClearTimer();
    485                      }
    486                  }
    487          
    488                  /* call EtherCAT functions */
    489                  PDI_Isr();
   \       0x62   0x.... 0x....      BL       PDI_Isr
    490                  ECAT_Main();
   \       0x66   0x.... 0x....      BL       ECAT_Main
    491          
    492                  /* call lower prior application part */
    493                 COE_Main();
   \       0x6A   0x.... 0x....      BL       COE_Main
    494                 CheckIfEcatError();
   \       0x6E   0x.... 0x....      BL       CheckIfEcatError
    495          
    496          }
   \                     ??MainLoop_0: (+1)
   \       0x72   0xBD01             POP      {R0,PC}          ;; return
    497          
    498          /*The main function was moved to the application files.*/
    499          /////////////////////////////////////////////////////////////////////////////////////////
    500          /**
    501           \brief    ECAT_Application (prev. SSC versions "COE_Application")
    502           this function calculates and the physical process signals and triggers the input mapping
    503          *////////////////////////////////////////////////////////////////////////////////////////

   \                                 In section .text, align 2, keep-with-next
    504          void ECAT_Application(void)
    505          {
   \                     ECAT_Application: (+1)
   \        0x0   0xB580             PUSH     {R7,LR}
    506              cbAPPL_Application();
   \        0x2   0x.... 0x....      BL       cbAPPL_Application
    507          /* PDO Input mapping is called from the specific trigger ISR */
    508          }
   \        0x6   0xBD01             POP      {R0,PC}          ;; return

   \                                 In section .text, align 4, keep-with-next
   \                     ??DataTable6:
   \        0x0   0x....'....        DC32     aPdInputData

   \                                 In section .text, align 4, keep-with-next
   \                     ??DataTable6_1:
   \        0x0   0x....'....        DC32     nPdInputSize

   \                                 In section .text, align 4, keep-with-next
   \                     ??DataTable6_2:
   \        0x0   0x....'....        DC32     nEscAddrInputData

   \                                 In section .text, align 4, keep-with-next
   \                     ??DataTable6_3:
   \        0x0   0x....'....        DC32     aPdOutputData

   \                                 In section .text, align 4, keep-with-next
   \                     ??DataTable6_4:
   \        0x0   0x....'....        DC32     nPdOutputSize

   \                                 In section .text, align 4, keep-with-next
   \                     ??DataTable6_5:
   \        0x0   0x....'....        DC32     nEscAddrOutputData

   \                                 In section .text, align 4, keep-with-next
   \                     ??DataTable6_6:
   \        0x0   0x....'....        DC32     sSyncManOutPar

   \                                 In section .text, align 4, keep-with-next
   \                     ??DataTable6_7:
   \        0x0   0x....'....        DC32     u16BusCycleCntMs

   \                                 In section .text, align 4, keep-with-next
   \                     ??DataTable6_8:
   \        0x0   0x....'....        DC32     bEcatWaitForAlControlRes

   \                                 In section .text, align 4, keep-with-next
   \                     ??DataTable6_9:
   \        0x0   0x....'....        DC32     EsmTimeoutCounter

   \                                 In section .text, align 4, keep-with-next
   \                     ??DataTable6_10:
   \        0x0   0x....'....        DC32     bDcSyncActive

   \                                 In section .text, align 4, keep-with-next
   \                     ??DataTable6_11:
   \        0x0   0x....'....        DC32     bEscIntEnabled

   \                                 In section .text, align 4, keep-with-next
   \                     ??DataTable6_12:
   \        0x0   0x....'....        DC32     sSyncManInPar

   \                                 In section .text, align 4, keep-with-next
   \                     ??DataTable6_13:
   \        0x0   0x....'....        DC32     bCycleTimeMeasurementStarted

   \                                 In section .text, align 4, keep-with-next
   \                     ??DataTable6_14:
   \        0x0   0x....'....        DC32     StartTimerCnt

   \                                 In section .text, align 4, keep-with-next
   \                     ??DataTable6_15:
   \        0x0   0x....'....        DC32     bEcatFirstOutputsReceived

   \                                 In section .text, align 4, keep-with-next
   \                     ??DataTable6_16:
   \        0x0   0x....'....        DC32     bEcatOutputUpdateRunning

   \                                 In section .text, align 4, keep-with-next
   \                     ??DataTable6_17:
   \        0x0   0x....'....        DC32     u16dummy

   \                                 In section .text, align 4, keep-with-next
   \                     ??DataTable6_18:
   \        0x0   0x....'....        DC32     bEcatInputUpdateRunning

   \                                 In section .text, align 4, keep-with-next
   \                     ??DataTable6_19:
   \        0x0   0x....'....        DC32     bInitFinished
    509          
    510          
    511          
    512          
    513          /** @} */
    514          

   Maximum stack usage in bytes:

   .cstack Function
   ------- --------
       8   ECAT_Application
         8   -> cbAPPL_Application
       0   ECAT_CheckTimer
       0   HandleBusCycleCalculation
       8   MainInit
         8   -> COE_ObjInit
         8   -> ECAT_Init
       8   MainLoop
         8   -> COE_Main
         8   -> CheckIfEcatError
         8   -> ECAT_Application
         8   -> ECAT_CheckTimer
         8   -> ECAT_Main
         8   -> HW_GetALEventRegister
         8   -> PDI_Isr
         8   -> PDO_InputMapping
         8   -> PDO_OutputMapping
      16   PDI_Isr
        16   -> ECAT_Application
        16   -> HW_EscReadIsr
        16   -> HW_GetALEventRegister_Isr
        16   -> HandleBusCycleCalculation
        16   -> PDO_InputMapping
        16   -> PDO_OutputMapping
       8   PDO_InputMapping
         8   -> APPL_InputMapping
         8   -> HW_EscWriteIsr
       8   PDO_OutputMapping
         8   -> APPL_OutputMapping
         8   -> HW_EscReadIsr


   Section sizes:

   Bytes  Function/Label
   -----  --------------
       4  ??DataTable6
       4  ??DataTable6_1
       4  ??DataTable6_10
       4  ??DataTable6_11
       4  ??DataTable6_12
       4  ??DataTable6_13
       4  ??DataTable6_14
       4  ??DataTable6_15
       4  ??DataTable6_16
       4  ??DataTable6_17
       4  ??DataTable6_18
       4  ??DataTable6_19
       4  ??DataTable6_2
       4  ??DataTable6_3
       4  ??DataTable6_4
       4  ??DataTable6_5
       4  ??DataTable6_6
       4  ??DataTable6_7
       4  ??DataTable6_8
       4  ??DataTable6_9
       8  ECAT_Application
      42  ECAT_CheckTimer
     100  HandleBusCycleCalculation
      42  MainInit
     116  MainLoop
     188  PDI_Isr
      26  PDO_InputMapping
      26  PDO_OutputMapping
       4  StartTimerCnt
      68  aPdInputData
      68  aPdOutputData
       1  bCycleTimeMeasurementStarted
       1  bEcatWaitForInputUpdate
       1  bEtherCATErrorLed
       1  bEtherCATRunLed
       1  bInitFinished
       1  bRunApplication
       4  pAPPL_EEPROM_Read
       4  pAPPL_EEPROM_Reload
       4  pAPPL_EEPROM_Write
       2  u16BusCycleCntMs

 
 160 bytes in section .bss
 628 bytes in section .text
 
 628 bytes of CODE memory
 160 bytes of DATA memory

Errors: none
Warnings: 1
