###############################################################################
#                                                                             #
# IAR ELF Linker V6.60.1.5097/W32 for ARM               09/Nov/2018  13:36:46 #
# Copyright 2007-2013 IAR Systems AB.                                         #
#                                                                             #
#    Output file  =  D:\codes\C80IntegratedBoard\Project\IAR\Debug\Exe\EtherC #
#                    atIndependent.out                                        #
#    Map file     =  D:\codes\C80IntegratedBoard\Project\IAR\Debug\List\Ether #
#                    CatIndependent.map                                       #
#    Command line =  D:\codes\C80IntegratedBoard\Project\IAR\Debug\Obj\coeapp #
#                    l.o D:\codes\C80IntegratedBoard\Project\IAR\Debug\Obj\Co #
#                    mmon.o D:\codes\C80IntegratedBoard\Project\IAR\Debug\Obj #
#                    \ecatappl.o D:\codes\C80IntegratedBoard\Project\IAR\Debu #
#                    g\Obj\ecatcoe.o D:\codes\C80IntegratedBoard\Project\IAR\ #
#                    Debug\Obj\ecatslv.o D:\codes\C80IntegratedBoard\Project\ #
#                    IAR\Debug\Obj\IF_EtherCat.o                              #
#                    D:\codes\C80IntegratedBoard\Project\IAR\Debug\Obj\IF_SPI #
#                    .o D:\codes\C80IntegratedBoard\Project\IAR\Debug\Obj\mai #
#                    lbox.o D:\codes\C80IntegratedBoard\Project\IAR\Debug\Obj #
#                    \main.o D:\codes\C80IntegratedBoard\Project\IAR\Debug\Ob #
#                    j\objdef.o D:\codes\C80IntegratedBoard\Project\IAR\Debug #
#                    \Obj\sdoserv.o D:\codes\C80IntegratedBoard\Project\IAR\D #
#                    ebug\Obj\startup_stm32f40_41xxx.o                        #
#                    D:\codes\C80IntegratedBoard\Project\IAR\Debug\Exe\stm32f #
#                    4Lib.a D:\codes\C80IntegratedBoard\Project\IAR\Debug\Obj #
#                    \stm32f4xx_it.o D:\codes\C80IntegratedBoard\Project\IAR\ #
#                    Debug\Obj\system_stm32f4xx.o                             #
#                    D:\codes\C80IntegratedBoard\Project\IAR\Debug\Obj\Task_E #
#                    thercat.o -o D:\codes\C80IntegratedBoard\Project\IAR\Deb #
#                    ug\Exe\EtherCatIndependent.out --map                     #
#                    D:\codes\C80IntegratedBoard\Project\IAR\Debug\List\Ether #
#                    CatIndependent.map --config "E:\Program Files (x86)\IAR  #
#                    Systems\Embedded Workbench 6.5\arm\config\linker\ST\stm3 #
#                    2f405xG.icf" --semihosting --entry __iar_program_start   #
#                    --vfe                                                    #
#                                                                             #
#                                                                             #
###############################################################################

*******************************************************************************
*** RUNTIME MODEL ATTRIBUTES
***

CppFlavor       = *
__Heap_Handler  = DLMalloc
__SystemLibrary = DLib


*******************************************************************************
*** PLACEMENT SUMMARY
***

"A1":  place at 0x08000000 { ro section .intvec };
"P1":  place in [from 0x08000000 to 0x080fffff] { ro };
"P2":  place in [from 0x20000000 to 0x2001ffff] { rw, block CSTACK, block HEAP };

  Section             Kind        Address    Size  Object
  -------             ----        -------    ----  ------
"A1":                                       0x188
  .intvec             ro code  0x08000000   0x188  startup_stm32f40_41xxx.o [1]
                             - 0x08000188   0x188

"P1":                                      0x8c40
  .text               ro code  0x08000188  0x14b4  dlmalloc.o [3]
  .text               ro code  0x0800163c     0x6  abort.o [3]
  .text               ro code  0x08001642    0x22  zero_init3.o [4]
  .text               ro code  0x08001664    0x2c  xgetmemchunk.o [3]
  .text               ro code  0x08001690    0x14  exit.o [5]
  .text               ro code  0x080016a4    0x6c  iarttio.o [5]
  .text               ro code  0x08001710     0x8  XShttio.o [3]
  .text               ro code  0x08001718  0x13c0  ecatslv.o [1]
  .text               ro code  0x08002ad8   0x3cc  IF_EtherCat.o [1]
  .text               ro code  0x08002ea4   0x290  ecatappl.o [1]
  .text               ro code  0x08003134   0x27c  Task_Ethercat.o [1]
  .text               ro code  0x080033b0   0x804  mailbox.o [1]
  .text               ro code  0x08003bb4    0xa4  ecatcoe.o [1]
  .text               ro code  0x08003c58   0x128  IF_SPI.o [1]
  .text               ro code  0x08003d80    0x88  misc.o [6]
  .text               ro code  0x08003e08   0x144  stm32f4xx_rcc.o [6]
  .text               ro code  0x08003f4c    0xf8  stm32f4xx_gpio.o [6]
  .text               ro code  0x08004044   0x1ee  stm32f4xx_usart.o [6]
  .text               ro code  0x08004234    0x36  stm32f4xx_tim.o [6]
  .text               ro code  0x0800426c   0x314  coeappl.o [1]
  .text               ro code  0x08004580  0x1034  objdef.o [1]
  .text               ro code  0x080055b4     0xc  memcpy.o [3]
  .text               ro code  0x080055c0    0x14  memset.o [3]
  .text               ro code  0x080055d4   0xf80  sdoserv.o [1]
  .text               ro code  0x08006554    0x78  stm32f4xx_spi.o [6]
  .text               ro code  0x080065cc    0x36  strlen.o [4]
  .text               ro code  0x08006604    0x76  ABImemcpy_unaligned.o [4]
  .text               ro code  0x0800667c    0x66  ABImemset.o [4]
  .rodata             const    0x080066e4   0x2f8  coeappl.o [1]
  .rodata             const    0x080069dc   0x2f8  coeappl.o [1]
  .rodata             const    0x08006cd4   0x2ec  coeappl.o [1]
  .rodata             const    0x08006fc0   0x2b4  coeappl.o [1]
  .text               ro code  0x08007274   0x1cc  lz77_init.o [4]
  .text               ro code  0x08007440   0x164  system_stm32f4xx.o [1]
  .rodata             const    0x080075a4   0x158  coeappl.o [1]
  .rodata             const    0x080076fc   0x158  coeappl.o [1]
  .rodata             const    0x08007854   0x158  coeappl.o [1]
  .rodata             const    0x080079ac   0x158  coeappl.o [1]
  .text               ro code  0x08007b04   0x144  xprintftiny.o [3]
  .rodata             const    0x08007c48   0x100  coeappl.o [1]
  .rodata             const    0x08007d48   0x100  coeappl.o [1]
  .text               ro code  0x08007e48    0xe0  XShHandles.o [3]
  .text               ro code  0x08007f28    0xd6  xfspos.o [3]
  .text               ro code  0x08008000    0xb0  fflush.o [3]
  .text               ro code  0x080080b0     0xc  xfgpos.o [3]
  .text               ro code  0x080080bc    0x4c  lseek.o [5]
  .text               ro code  0x08008108     0xc  errno.o [3]
  .text               ro code  0x08008114     0x4  xsyslock_nop.o [3]
  .text               ro code  0x08008118    0x10  write.o [5]
  .text               ro code  0x08008128     0x2  xtls.o [3]
  .text               ro code  0x0800812a    0x1e  dwrite.o [5]
  .text               ro code  0x08008148    0x20  iarwstd.o [5]
  .text               ro code  0x08008168    0x22  iarwrite.o [5]
  .rodata             const    0x0800818c    0xc8  coeappl.o [1]
  .text               ro code  0x08008254    0xba  stm32f4xx_it.o [1]
  .text               ro code  0x08008310    0x24  printf.o [3]
  .text               ro code  0x08008334    0xb6  xfwprep.o [3]
  .text               ro code  0x080083ea    0x22  fseek.o [3]
  .text               ro code  0x0800840c    0x7c  xfofind.o [3]
  .text               ro code  0x08008488    0x7a  fclose.o [3]
  .text               ro code  0x08008502    0x1a  close.o [5]
  .text               ro code  0x0800851c    0x16  remove.o [5]
  .rodata             const    0x08008534    0x78  sdoserv.o [1]
  .text               ro code  0x080085ac    0x58  xcloseall.o [3]
  .text               ro code  0x08008604    0x56  fputc.o [3]
  .rodata             const    0x0800865c    0x40  coeappl.o [1]
  .rodata             const    0x0800869c    0x3c  coeappl.o [1]
  .text               ro code  0x080086d8    0x28  data_init.o [4]
  .iar.init_table     const    0x08008700    0x2c  - Linker created -
  .rodata             const    0x0800872c    0x20  coeappl.o [1]
  .rodata             const    0x0800874c    0x20  objdef.o [1]
  .text               ro code  0x0800876c    0x20  main.o [1]
  .rodata             const    0x0800878c    0x1c  coeappl.o [1]
  .rodata             const    0x080087a8    0x1c  coeappl.o [1]
  .text               ro code  0x080087c4    0x1a  cmain.o [4]
  .text               ro code  0x080087de     0x4  low_level_init.o [3]
  .text               ro code  0x080087e2     0x4  exit.o [3]
  .text               ro code  0x080087e8     0xe  cexit.o [4]
  .rodata             const    0x080087f8    0x18  stm32f4xx_it.o [1]
  .text               ro code  0x08008810    0x16  xprout.o [3]
  .text               ro code  0x08008828     0xc  putchar.o [3]
  .rodata             const    0x08008834    0x14  coeappl.o [1]
  .rodata             const    0x08008848    0x14  coeappl.o [1]
  .rodata             const    0x0800885c    0x14  coeappl.o [1]
  .rodata             const    0x08008870    0x14  coeappl.o [1]
  .rodata             const    0x08008884    0x10  coeappl.o [1]
  .text               ro code  0x08008894    0x10  startup_stm32f40_41xxx.o [1]
  .rodata             const    0x080088a4     0xc  coeappl.o [1]
  .rodata             const    0x080088b0     0xc  coeappl.o [1]
  .rodata             const    0x080088bc     0xc  coeappl.o [1]
  .rodata             const    0x080088c8     0xc  coeappl.o [1]
  .rodata             const    0x080088d4     0xc  coeappl.o [1]
  .rodata             const    0x080088e0     0xc  stm32f4xx_it.o [1]
  .rodata             const    0x080088ec     0xc  stm32f4xx_it.o [1]
  .rodata             const    0x080088f8     0xc  stm32f4xx_it.o [1]
  .rodata             const    0x08008904     0xc  stm32f4xx_it.o [1]
  .rodata             const    0x08008910     0xc  stm32f4xx_it.o [1]
  .rodata             const    0x0800891c     0xc  stm32f4xx_it.o [1]
  .rodata             const    0x08008928     0xc  stm32f4xx_it.o [1]
  .rodata             const    0x08008934     0xc  stm32f4xx_it.o [1]
  .text               ro code  0x08008940     0xc  cstartup_M.o [4]
  .rodata             const    0x0800894c     0x8  coeappl.o [1]
  .rodata             const    0x08008954     0x8  coeappl.o [1]
  .rodata             const    0x0800895c     0x8  coeappl.o [1]
  .rodata             const    0x08008964     0x8  coeappl.o [1]
  .rodata             const    0x0800896c     0x8  coeappl.o [1]
  .text               ro code  0x08008974     0x4  startup_stm32f40_41xxx.o [1]
  .text               ro code  0x08008978     0x4  startup_stm32f40_41xxx.o [1]
  .text               ro code  0x0800897c     0x4  startup_stm32f40_41xxx.o [1]
  .text               ro code  0x08008980     0x4  startup_stm32f40_41xxx.o [1]
  .text               ro code  0x08008984     0x4  startup_stm32f40_41xxx.o [1]
  .text               ro code  0x08008988     0x4  startup_stm32f40_41xxx.o [1]
  .text               ro code  0x0800898c     0x4  startup_stm32f40_41xxx.o [1]
  .text               ro code  0x08008990     0x4  startup_stm32f40_41xxx.o [1]
  .text               ro code  0x08008994     0x4  startup_stm32f40_41xxx.o [1]
  .text               ro code  0x08008998     0x4  startup_stm32f40_41xxx.o [1]
  .text               ro code  0x0800899c     0x4  startup_stm32f40_41xxx.o [1]
  .text               ro code  0x080089a0     0x4  startup_stm32f40_41xxx.o [1]
  .text               ro code  0x080089a4     0x4  startup_stm32f40_41xxx.o [1]
  .text               ro code  0x080089a8     0x4  startup_stm32f40_41xxx.o [1]
  .text               ro code  0x080089ac     0x4  startup_stm32f40_41xxx.o [1]
  .text               ro code  0x080089b0     0x4  startup_stm32f40_41xxx.o [1]
  .text               ro code  0x080089b4     0x4  startup_stm32f40_41xxx.o [1]
  .text               ro code  0x080089b8     0x4  startup_stm32f40_41xxx.o [1]
  .text               ro code  0x080089bc     0x4  startup_stm32f40_41xxx.o [1]
  .text               ro code  0x080089c0     0x4  startup_stm32f40_41xxx.o [1]
  .text               ro code  0x080089c4     0x4  startup_stm32f40_41xxx.o [1]
  .text               ro code  0x080089c8     0x4  startup_stm32f40_41xxx.o [1]
  .text               ro code  0x080089cc     0x4  startup_stm32f40_41xxx.o [1]
  .text               ro code  0x080089d0     0x4  startup_stm32f40_41xxx.o [1]
  .text               ro code  0x080089d4     0x4  startup_stm32f40_41xxx.o [1]
  .text               ro code  0x080089d8     0x4  startup_stm32f40_41xxx.o [1]
  .text               ro code  0x080089dc     0x4  startup_stm32f40_41xxx.o [1]
  .text               ro code  0x080089e0     0x4  startup_stm32f40_41xxx.o [1]
  .text               ro code  0x080089e4     0x4  startup_stm32f40_41xxx.o [1]
  .text               ro code  0x080089e8     0x4  startup_stm32f40_41xxx.o [1]
  .text               ro code  0x080089ec     0x4  startup_stm32f40_41xxx.o [1]
  .text               ro code  0x080089f0     0x4  startup_stm32f40_41xxx.o [1]
  .text               ro code  0x080089f4     0x4  startup_stm32f40_41xxx.o [1]
  .text               ro code  0x080089f8     0x4  startup_stm32f40_41xxx.o [1]
  .text               ro code  0x080089fc     0x4  startup_stm32f40_41xxx.o [1]
  .text               ro code  0x08008a00     0x4  startup_stm32f40_41xxx.o [1]
  .text               ro code  0x08008a04     0x4  startup_stm32f40_41xxx.o [1]
  .text               ro code  0x08008a08     0x4  startup_stm32f40_41xxx.o [1]
  .text               ro code  0x08008a0c     0x4  startup_stm32f40_41xxx.o [1]
  .text               ro code  0x08008a10     0x4  startup_stm32f40_41xxx.o [1]
  .text               ro code  0x08008a14     0x4  startup_stm32f40_41xxx.o [1]
  .text               ro code  0x08008a18     0x4  startup_stm32f40_41xxx.o [1]
  .text               ro code  0x08008a1c     0x4  startup_stm32f40_41xxx.o [1]
  .text               ro code  0x08008a20     0x4  startup_stm32f40_41xxx.o [1]
  .text               ro code  0x08008a24     0x4  startup_stm32f40_41xxx.o [1]
  .text               ro code  0x08008a28     0x4  startup_stm32f40_41xxx.o [1]
  .text               ro code  0x08008a2c     0x4  startup_stm32f40_41xxx.o [1]
  .text               ro code  0x08008a30     0x4  startup_stm32f40_41xxx.o [1]
  .text               ro code  0x08008a34     0x4  startup_stm32f40_41xxx.o [1]
  .text               ro code  0x08008a38     0x4  startup_stm32f40_41xxx.o [1]
  .text               ro code  0x08008a3c     0x4  startup_stm32f40_41xxx.o [1]
  .text               ro code  0x08008a40     0x4  startup_stm32f40_41xxx.o [1]
  .text               ro code  0x08008a44     0x4  startup_stm32f40_41xxx.o [1]
  .text               ro code  0x08008a48     0x4  startup_stm32f40_41xxx.o [1]
  .text               ro code  0x08008a4c     0x4  startup_stm32f40_41xxx.o [1]
  .text               ro code  0x08008a50     0x4  startup_stm32f40_41xxx.o [1]
  .text               ro code  0x08008a54     0x4  startup_stm32f40_41xxx.o [1]
  .text               ro code  0x08008a58     0x4  startup_stm32f40_41xxx.o [1]
  .text               ro code  0x08008a5c     0x4  startup_stm32f40_41xxx.o [1]
  .text               ro code  0x08008a60     0x4  startup_stm32f40_41xxx.o [1]
  .text               ro code  0x08008a64     0x4  startup_stm32f40_41xxx.o [1]
  .text               ro code  0x08008a68     0x4  startup_stm32f40_41xxx.o [1]
  .text               ro code  0x08008a6c     0x4  startup_stm32f40_41xxx.o [1]
  .text               ro code  0x08008a70     0x4  startup_stm32f40_41xxx.o [1]
  .text               ro code  0x08008a74     0x4  startup_stm32f40_41xxx.o [1]
  .text               ro code  0x08008a78     0x4  startup_stm32f40_41xxx.o [1]
  .text               ro code  0x08008a7c     0x4  startup_stm32f40_41xxx.o [1]
  .text               ro code  0x08008a80     0x4  startup_stm32f40_41xxx.o [1]
  .text               ro code  0x08008a84     0x4  startup_stm32f40_41xxx.o [1]
  .text               ro code  0x08008a88     0x4  startup_stm32f40_41xxx.o [1]
  .text               ro code  0x08008a8c     0x4  startup_stm32f40_41xxx.o [1]
  .text               ro code  0x08008a90     0x4  startup_stm32f40_41xxx.o [1]
  .text               ro code  0x08008a94     0x4  startup_stm32f40_41xxx.o [1]
  .text               ro code  0x08008a98     0x4  startup_stm32f40_41xxx.o [1]
  .text               ro code  0x08008a9c     0x4  startup_stm32f40_41xxx.o [1]
  .text               ro code  0x08008aa0     0x4  startup_stm32f40_41xxx.o [1]
  .text               ro code  0x08008aa4     0x4  startup_stm32f40_41xxx.o [1]
  .text               ro code  0x08008aa8     0x0  cstart_closeall.o [4]
  .rodata             const    0x08008aa8     0x0  zero_init3.o [4]
  .rodata             const    0x08008aa8     0x0  lz77_init.o [4]
  Initializer bytes   ro data  0x08008aa8   0x31f  <for P2 s0>
                             - 0x08008dc7  0x8c3f

"P2", part 1 of 3:                          0x620
  P2 s0                        0x20000000   0x620  <Init block>
    .data             inited   0x20000000   0x1b8  coeappl.o [1]
    .data             inited   0x200001b8   0x118  coeappl.o [1]
    .data             inited   0x200002d0    0xe4  Task_Ethercat.o [1]
    .data             inited   0x200003b4    0xe4  Task_Ethercat.o [1]
    .data             inited   0x20000498    0x40  xfiles.o [3]
    .data             inited   0x200004d8    0x40  xfiles.o [3]
    .data             inited   0x20000518    0x40  xfiles.o [3]
    .data             inited   0x20000558    0x20  xfiles.o [3]
    .data             inited   0x20000578    0x14  coeappl.o [1]
    .data             inited   0x2000058c    0x14  Task_Ethercat.o [1]
    .data             inited   0x200005a0    0x14  Task_Ethercat.o [1]
    .data             inited   0x200005b4    0x10  coeappl.o [1]
    .data             inited   0x200005c4    0x10  objdef.o [1]
    .data             inited   0x200005d4    0x10  stm32f4xx_rcc.o [6]
    .data             inited   0x200005e4     0xc  objdef.o [1]
    .data             inited   0x200005f0     0x8  coeappl.o [1]
    .data             inited   0x200005f8     0x8  coeappl.o [1]
    .data             inited   0x20000600     0x8  coeappl.o [1]
    .data             inited   0x20000608     0x8  XShttio.o [3]
    .data             inited   0x20000610     0x4  coeappl.o [1]
    .data             inited   0x20000614     0x4  Task_Ethercat.o [1]
    .data             inited   0x20000618     0x4  Task_Ethercat.o [1]
    __DLIB_PERTHREAD  inited   0x2000061c     0x4  errno.o [3]
                             - 0x20000620   0x620

"P2", part 2 of 3:                          0x778
  .bss                zero     0x20000620   0x200  mailbox.o [1]
  .bss                zero     0x20000820   0x1d8  dlmalloc.o [3]
  .bss                zero     0x200009f8    0x80  XShHandles.o [3]
  .bss                zero     0x20000a78    0x50  xfiles.o [3]
  .bss                zero     0x20000ac8    0x50  xfiles.o [3]
  .bss                zero     0x20000b18    0x44  ecatappl.o [1]
  .bss                zero     0x20000b5c    0x44  ecatappl.o [1]
  .bss                zero     0x20000ba0    0x44  objdef.o [1]
  .bss                zero     0x20000be4    0x44  objdef.o [1]
  .bss                zero     0x20000c28    0x34  mailbox.o [1]
  .bss                zero     0x20000c5c    0x34  mailbox.o [1]
  .bss                zero     0x20000c90    0x18  IF_EtherCat.o [1]
  .bss                zero     0x20000ca8    0x18  Task_Ethercat.o [1]
  .bss                zero     0x20000cc0    0x18  dlmalloc.o [3]
  .bss                zero     0x20000cd8    0x10  sdoserv.o [1]
  .bss                zero     0x20000ce8     0x8  ecatslv.o [1]
  .bss                zero     0x20000cf0     0x4  coeappl.o [1]
  .bss                zero     0x20000cf4     0x4  ecatappl.o [1]
  .bss                zero     0x20000cf8     0x4  ecatcoe.o [1]
  .bss                zero     0x20000cfc     0x4  IF_EtherCat.o [1]
  .bss                zero     0x20000d00     0x4  IF_EtherCat.o [1]
  .bss                zero     0x20000d04     0x4  mailbox.o [1]
  .bss                zero     0x20000d08     0x4  mailbox.o [1]
  .bss                zero     0x20000d0c     0x4  mailbox.o [1]
  .bss                zero     0x20000d10     0x4  mailbox.o [1]
  .bss                zero     0x20000d14     0x4  objdef.o [1]
  .bss                zero     0x20000d18     0x4  sdoserv.o [1]
  .bss                zero     0x20000d1c     0x4  sdoserv.o [1]
  .bss                zero     0x20000d20     0x4  sdoserv.o [1]
  .bss                zero     0x20000d24     0x4  sdoserv.o [1]
  .bss                zero     0x20000d28     0x4  sdoserv.o [1]
  .bss                zero     0x20000d2c     0x4  sdoserv.o [1]
  .bss                zero     0x20000d30     0x4  sdoserv.o [1]
  .bss                zero     0x20000d34     0x4  sdoserv.o [1]
  .bss                zero     0x20000d38     0x4  sdoserv.o [1]
  .bss                zero     0x20000d3c     0x4  Task_Ethercat.o [1]
  .bss                zero     0x20000d40     0x4  xgetmemchunk.o [3]
  .bss                zero     0x20000d44     0x2  coeappl.o [1]
  .bss                zero     0x20000d46     0x2  ecatappl.o [1]
  .bss                zero     0x20000d48     0x2  ecatslv.o [1]
  .bss                zero     0x20000d4a     0x2  ecatslv.o [1]
  .bss                zero     0x20000d4c     0x2  ecatslv.o [1]
  .bss                zero     0x20000d4e     0x2  ecatslv.o [1]
  .bss                zero     0x20000d50     0x2  ecatslv.o [1]
  .bss                zero     0x20000d52     0x2  ecatslv.o [1]
  .bss                zero     0x20000d54     0x2  ecatslv.o [1]
  .bss                zero     0x20000d56     0x2  ecatslv.o [1]
  .bss                zero     0x20000d58     0x2  ecatslv.o [1]
  .bss                zero     0x20000d5a     0x2  ecatslv.o [1]
  .bss                zero     0x20000d5c     0x2  ecatslv.o [1]
  .bss                zero     0x20000d5e     0x2  ecatslv.o [1]
  .bss                zero     0x20000d60     0x2  mailbox.o [1]
  .bss                zero     0x20000d62     0x2  mailbox.o [1]
  .bss                zero     0x20000d64     0x2  mailbox.o [1]
  .bss                zero     0x20000d66     0x2  mailbox.o [1]
  .bss                zero     0x20000d68     0x2  sdoserv.o [1]
  .bss                zero     0x20000d6a     0x2  sdoserv.o [1]
  .bss                zero     0x20000d6c     0x2  sdoserv.o [1]
  .bss                zero     0x20000d6e     0x2  sdoserv.o [1]
  .bss                zero     0x20000d70     0x1  ecatappl.o [1]
  .bss                zero     0x20000d71     0x1  ecatappl.o [1]
  .bss                zero     0x20000d72     0x1  ecatslv.o [1]
  .bss                zero     0x20000d73     0x1  ecatslv.o [1]
  .bss                zero     0x20000d74     0x1  ecatslv.o [1]
  .bss                zero     0x20000d75     0x1  ecatslv.o [1]
  .bss                zero     0x20000d76     0x1  ecatslv.o [1]
  .bss                zero     0x20000d77     0x1  ecatslv.o [1]
  .bss                zero     0x20000d78     0x1  ecatslv.o [1]
  .bss                zero     0x20000d79     0x1  ecatslv.o [1]
  .bss                zero     0x20000d7a     0x1  ecatslv.o [1]
  .bss                zero     0x20000d7b     0x1  ecatslv.o [1]
  .bss                zero     0x20000d7c     0x1  ecatslv.o [1]
  .bss                zero     0x20000d7d     0x1  ecatslv.o [1]
  .bss                zero     0x20000d7e     0x1  ecatslv.o [1]
  .bss                zero     0x20000d7f     0x1  IF_EtherCat.o [1]
  .bss                zero     0x20000d80     0x1  mailbox.o [1]
  .bss                zero     0x20000d81     0x1  mailbox.o [1]
  .bss                zero     0x20000d82     0x1  mailbox.o [1]
  .bss                zero     0x20000d83     0x1  mailbox.o [1]
  .bss                zero     0x20000d84     0x1  mailbox.o [1]
  .bss                zero     0x20000d85     0x1  mailbox.o [1]
  .bss                zero     0x20000d86     0x1  mailbox.o [1]
  .bss                zero     0x20000d87     0x1  mailbox.o [1]
  .bss                zero     0x20000d88     0x1  objdef.o [1]
  .bss                zero     0x20000d89     0x1  sdoserv.o [1]
  .bss                zero     0x20000d8a     0x1  sdoserv.o [1]
  .bss                zero     0x20000d8b     0x1  sdoserv.o [1]
  .bss                zero     0x20000d8c     0x1  sdoserv.o [1]
  .bss                zero     0x20000d8d     0x1  sdoserv.o [1]
  .bss                zero     0x20000d8e     0x1  sdoserv.o [1]
  .bss                zero     0x20000d8f     0x1  sdoserv.o [1]
  .bss                zero     0x20000d90     0x1  sdoserv.o [1]
  .bss                zero     0x20000d91     0x1  sdoserv.o [1]
                             - 0x20000d92   0x772

"P2", part 3 of 3:                         0x4000
  CSTACK                       0x20000d98  0x2000  <Block>
    CSTACK            uninit   0x20000d98  0x2000  <Block tail>
  HEAP                         0x20002d98  0x2000  <Block>
    HEAP              uninit   0x20002d98  0x2000  <Block tail>
                             - 0x20004d98  0x4000


*******************************************************************************
*** INIT TABLE
***

          Address     Size
          -------     ----
Zero (__iar_zero_init3)
    1 destination range, total size 0x772:
          0x20000620  0x772

Copy/lz77 (__iar_lz77_init3)
    1 source range, total size 0x31f (50% of destination):
          0x08008aa8  0x31f
    1 destination range, total size 0x620:
          0x20000000  0x620



*******************************************************************************
*** MODULE SUMMARY
***

    Module                    ro code  ro data  rw data
    ------                    -------  -------  -------
D:\codes\C80IntegratedBoard\Project\IAR\Debug\Obj: [1]
    IF_EtherCat.o                 972                33
    IF_SPI.o                      296
    Task_Ethercat.o               636      257      532
    coeappl.o                     788    5 855      790
    ecatappl.o                    656               144
    ecatcoe.o                     164                 4
    ecatslv.o                   5 056                45
    mailbox.o                   2 052               648
    main.o                         32
    objdef.o                    4 148       46      169
    sdoserv.o                   3 968      120       69
    startup_stm32f40_41xxx.o      716
    stm32f4xx_it.o                186      120
    system_stm32f4xx.o            356
    ---------------------------------------------------
    Total:                     20 026    6 398    2 434

command line: [2]
    ---------------------------------------------------
    Total:

dl7M_tlf.a: [3]
    XShHandles.o                  224               128
    XShttio.o                       8        4        8
    abort.o                         6
    dlmalloc.o                  5 300               496
    errno.o                        12        3        4
    exit.o                          4
    fclose.o                      122
    fflush.o                      176
    fputc.o                        86
    fseek.o                        34
    low_level_init.o                4
    memcpy.o                       12
    memset.o                       20
    printf.o                       36
    putchar.o                      12
    xcloseall.o                    88
    xfgpos.o                       12
    xfiles.o                               114      384
    xfofind.o                     124
    xfspos.o                      214
    xfwprep.o                     182
    xgetmemchunk.o                 44                 4
    xprintftiny.o                 324
    xprout.o                       22
    xsyslock_nop.o                  4
    xtls.o                          2
    ---------------------------------------------------
    Total:                      7 072      121    1 024

rt7M_tl.a: [4]
    ABImemcpy_unaligned.o         118
    ABImemset.o                   102
    cexit.o                        14
    cmain.o                        26
    cstart_closeall.o
    cstartup_M.o                   12
    data_init.o                    40
    lz77_init.o                   460
    strlen.o                       54
    zero_init3.o                   34
    ---------------------------------------------------
    Total:                        860

shb_l.a: [5]
    close.o                        26
    dwrite.o                       30
    exit.o                         20
    iarttio.o                     108
    iarwrite.o                     34
    iarwstd.o                      32
    lseek.o                        76
    remove.o                       22
    write.o                        16
    ---------------------------------------------------
    Total:                        364

stm32f4Lib.a: [6]
    misc.o                        136
    stm32f4xx_gpio.o              248
    stm32f4xx_rcc.o               324        8       16
    stm32f4xx_spi.o               120
    stm32f4xx_tim.o                54
    stm32f4xx_usart.o             494
    ---------------------------------------------------
    Total:                      1 376        8       16

    Gaps                           16       10
    Linker created                          44   16 384
-------------------------------------------------------
    Grand Total:               29 714    6 581   19 858


*******************************************************************************
*** ENTRY LIST
***

Entry                      Address   Size  Type      Object
-----                      -------   ----  ----      ------
?main                   0x080087c5         Code  Gb  cmain.o [4]
AL_ControlInd           0x08002105  0x4c2  Code  Gb  ecatslv.o [1]
AL_ControlRes           0x080025e5  0x1da  Code  Gb  ecatslv.o [1]
APBAHBPrescTable        0x200005d4   0x10  Data  Lc  stm32f4xx_rcc.o [6]
APPL_AckErrorInd        0x08003135    0x2  Code  Gb  Task_Ethercat.o [1]
APPL_GenerateMapping    0x08003151  0x118  Code  Gb  Task_Ethercat.o [1]
APPL_InputMapping       0x08003269   0x16  Code  Gb  Task_Ethercat.o [1]
APPL_OutputMapping      0x0800327f   0x2a  Code  Gb  Task_Ethercat.o [1]
APPL_StartInputHandler  0x0800313f    0x6  Code  Gb  Task_Ethercat.o [1]
APPL_StartMailboxHandler
                        0x08003137    0x4  Code  Gb  Task_Ethercat.o [1]
APPL_StartOutputHandler
                        0x08003149    0x4  Code  Gb  Task_Ethercat.o [1]
APPL_StopInputHandler   0x08003145    0x4  Code  Gb  Task_Ethercat.o [1]
APPL_StopMailboxHandler
                        0x0800313b    0x4  Code  Gb  Task_Ethercat.o [1]
APPL_StopOutputHandler  0x0800314d    0x4  Code  Gb  Task_Ethercat.o [1]
AddObjectsToObjDictionary
                        0x0800443d   0x30  Code  Gb  coeappl.o [1]
AddressingEsc           0x08002b7f   0x2e  Code  Lc  IF_EtherCat.o [1]
ApplicationObjDic       0x200001b8  0x118  Data  Gb  coeappl.o [1]
BackToInitTransition    0x08002095    0xa  Code  Gb  ecatslv.o [1]
BusFault_Handler        0x080082fd    0x2  Code  Gb  stm32f4xx_it.o [1]
COE_AddObjectToDic      0x0800433f   0x96  Code  Gb  coeappl.o [1]
COE_ClearObjDictionary  0x08004419   0x24  Code  Gb  coeappl.o [1]
COE_ContinueInd         0x08003c09   0x44  Code  Gb  ecatcoe.o [1]
COE_GetObjectDictionary
                        0x0800426d    0x6  Code  Gb  coeappl.o [1]
COE_Init                0x08003bb5    0xe  Code  Gb  ecatcoe.o [1]
COE_Main                0x0800449f   0xa6  Code  Gb  coeappl.o [1]
COE_ObjDictionaryInit   0x0800446d   0x32  Code  Gb  coeappl.o [1]
COE_ObjInit             0x08004273   0xcc  Code  Gb  coeappl.o [1]
COE_RemoveDicEntry      0x080043d5   0x44  Code  Gb  coeappl.o [1]
COE_ServiceInd          0x08003bc3   0x46  Code  Gb  ecatcoe.o [1]
CSTACK$$Base            0x20000d98          --   Gb  - Linker created -
CSTACK$$Limit           0x20002d98          --   Gb  - Linker created -
CheckIfEcatError        0x080027c9   0x54  Code  Gb  ecatslv.o [1]
CheckSmSettings         0x08001841  0x3ce  Code  Gb  ecatslv.o [1]
CheckSyncTypeValue      0x08004a2d   0x9a  Code  Gb  objdef.o [1]
DMA1_Stream6_IRQHandler
                        0x0800830d    0x2  Code  Gb  stm32f4xx_it.o [1]
DebugMon_Handler        0x08008303    0x2  Code  Gb  stm32f4xx_it.o [1]
DisableSyncManChannel   0x080017d3   0x38  Code  Gb  ecatslv.o [1]
ECAT_Application        0x0800312d    0x8  Code  Gb  ecatappl.o [1]
ECAT_CheckTimer         0x08002ed5   0x30  Code  Gb  ecatappl.o [1]
ECAT_Init               0x0800284d   0xd4  Code  Gb  ecatslv.o [1]
ECAT_Main               0x0800292d  0x15a  Code  Gb  ecatslv.o [1]
EcatWdValue             0x20000d54    0x2  Data  Gb  ecatslv.o [1]
EepromLoaded            0x20000d7e    0x1  Data  Gb  ecatslv.o [1]
EnableSyncManChannel    0x0800180b   0x36  Code  Gb  ecatslv.o [1]
EscALEvent              0x20000d00    0x4  Data  Gb  IF_EtherCat.o [1]
EsmTimeoutCounter       0x20000d48    0x2  Data  Gb  ecatslv.o [1]
GPIO_Init               0x08003f4d   0xa6  Code  Gb  stm32f4xx_gpio.o [6]
GPIO_PinAFConfig        0x08003ff3   0x52  Code  Gb  stm32f4xx_gpio.o [6]
GenObjDic               0x20000000  0x1b8  Data  Gb  coeappl.o [1]
GetInterruptRegister    0x08002b19   0x3a  Code  Lc  IF_EtherCat.o [1]
GetOutOfMbxQueue        0x080033df   0x32  Code  Gb  mailbox.o [1]
GetSyncMan              0x080017b5   0x1e  Code  Gb  ecatslv.o [1]
Get_LR_and_Branch       0x080082d1    0x8  Code  Gb  stm32f4xx_it.o [1]
HEAP$$Base              0x20002d98          --   Gb  - Linker created -
HEAP$$Limit             0x20004d98          --   Gb  - Linker created -
HW_EscRead              0x08002bf1   0x58  Code  Gb  IF_EtherCat.o [1]
HW_EscReadIsr           0x08002c49   0x52  Code  Gb  IF_EtherCat.o [1]
HW_EscWrite             0x08002c9b   0x46  Code  Gb  IF_EtherCat.o [1]
HW_EscWriteIsr          0x08002ce1   0x46  Code  Gb  IF_EtherCat.o [1]
HW_GetALEventRegister   0x08002bd9    0xc  Code  Gb  IF_EtherCat.o [1]
HW_GetALEventRegister_Isr
                        0x08002be5    0xc  Code  Gb  IF_EtherCat.o [1]
HW_Init                 0x08002d51   0x1e  Code  Gb  IF_EtherCat.o [1]
HandleBusCycleCalculation
                        0x08002f05   0x70  Code  Gb  ecatappl.o [1]
HardFault_Handler       0x080082e5   0x14  Code  Gb  stm32f4xx_it.o [1]
Hard_Fault_Handler      0x0800829b   0x12  Code  Gb  stm32f4xx_it.o [1]
ISR_AddressingEsc       0x08002bad   0x2c  Code  Lc  IF_EtherCat.o [1]
ISR_GetInterruptRegister
                        0x08002b53   0x2c  Code  Lc  IF_EtherCat.o [1]
InStream_Read           0x08007275   0x22  Code  Lc  lz77_init.o [4]
Input0x6000             0x2000058c   0x14  Data  Gb  Task_Ethercat.o [1]
InputProcessDataMapping0x1A00
                        0x200003b4   0xe4  Data  Gb  Task_Ethercat.o [1]
MBX_CheckAndCopyMailbox
                        0x08003943  0x10c  Code  Gb  mailbox.o [1]
MBX_CopyToSendMailbox   0x08003a4f   0xc2  Code  Gb  mailbox.o [1]
MBX_Init                0x08003411   0xde  Code  Gb  mailbox.o [1]
MBX_MailboxReadInd      0x080037a9   0xb8  Code  Gb  mailbox.o [1]
MBX_MailboxRepeatReq    0x08003861   0x58  Code  Gb  mailbox.o [1]
MBX_MailboxSendReq      0x080038b9   0x8a  Code  Gb  mailbox.o [1]
MBX_MailboxWriteInd     0x0800371d   0x8c  Code  Gb  mailbox.o [1]
MBX_Main                0x08003b11   0x50  Code  Gb  mailbox.o [1]
MBX_StartMailboxHandler
                        0x080034ef   0xd8  Code  Gb  mailbox.o [1]
MBX_StopMailboxHandler  0x080035c7  0x132  Code  Gb  mailbox.o [1]
MailboxServiceInd       0x080036f9   0x24  Code  Gb  mailbox.o [1]
MainInit                0x0800303b   0x2a  Code  Gb  ecatappl.o [1]
MainLoop                0x08003065   0x78  Code  Gb  ecatappl.o [1]
MemManage_Handler       0x080082fb    0x2  Code  Gb  stm32f4xx_it.o [1]
NMI_Handler             0x080082f9    0x2  Code  Gb  stm32f4xx_it.o [1]
NVIC_Init               0x08003d8b   0x68  Code  Gb  misc.o [6]
NVIC_PriorityGroupConfig
                        0x08003d81    0xa  Code  Gb  misc.o [6]
OBJ_CopyNumberToString  0x0800465d   0x46  Code  Gb  objdef.o [1]
OBJ_GetDesc             0x080047f3   0xfe  Code  Gb  objdef.o [1]
OBJ_GetEntryDesc        0x080048f1   0x38  Code  Gb  objdef.o [1]
OBJ_GetEntryOffset      0x0800492d  0x100  Code  Gb  objdef.o [1]
OBJ_GetNoOfObjects      0x080046a3   0x7e  Code  Gb  objdef.o [1]
OBJ_GetObjDesc          0x08004929    0x4  Code  Gb  objdef.o [1]
OBJ_GetObjectHandle     0x08004581   0x22  Code  Gb  objdef.o [1]
OBJ_GetObjectLength     0x080045a3   0xba  Code  Gb  objdef.o [1]
OBJ_GetObjectList       0x08004721   0xd2  Code  Gb  objdef.o [1]
OBJ_Read                0x08004ac7  0x53e  Code  Gb  objdef.o [1]
OBJ_Write               0x08005009  0x58c  Code  Gb  objdef.o [1]
ObjDicList              0x20000cf0    0x4  Data  Gb  coeappl.o [1]
OutStream_Write         0x08007297   0x40  Code  Lc  lz77_init.o [4]
Output0x7000            0x200005a0   0x14  Data  Gb  Task_Ethercat.o [1]
OutputProcessDataMapping0x1600
                        0x200002d0   0xe4  Data  Gb  Task_Ethercat.o [1]
PDI_Isr                 0x08002f75   0xc6  Code  Gb  ecatappl.o [1]
PDO_InputMapping        0x08002ea5   0x18  Code  Gb  ecatappl.o [1]
PDO_OutputMapping       0x08002ebd   0x18  Code  Gb  ecatappl.o [1]
PendSV_Handler          0x08008305    0x2  Code  Gb  stm32f4xx_it.o [1]
PutInMbxQueue           0x080033b1   0x2e  Code  Gb  mailbox.o [1]
RCC_AHB1PeriphClockCmd  0x08003eef   0x20  Code  Gb  stm32f4xx_rcc.o [6]
RCC_APB1PeriphClockCmd  0x08003f0f   0x20  Code  Gb  stm32f4xx_rcc.o [6]
RCC_GetClocksFreq       0x08003e09   0xe6  Code  Gb  stm32f4xx_rcc.o [6]
RecBuff2                0x20000c90   0x18  Data  Gb  IF_EtherCat.o [1]
Recount                 0x20000cfc    0x4  Data  Gb  IF_EtherCat.o [1]
RecvFlag                0x20000d7f    0x1  Data  Gb  IF_EtherCat.o [1]
Region$$Table$$Base     0x08008700          --   Gb  - Linker created -
Region$$Table$$Limit    0x0800872c          --   Gb  - Linker created -
ResetALEventMask        0x08001719   0x2a  Code  Gb  ecatslv.o [1]
SDOS_SdoInd             0x08005bd5  0x4d2  Code  Gb  sdoserv.o [1]
SDOS_SdoInfoInd         0x080061dd  0x354  Code  Gb  sdoserv.o [1]
SDOS_SdoRes             0x080060a7   0xee  Code  Gb  sdoserv.o [1]
SMActivate              0x20000d5e    0x2  Data  Gb  ecatslv.o [1]
SPI_Cmd                 0x08006595   0x1c  Code  Gb  stm32f4xx_spi.o [6]
SPI_I2S_GetFlagStatus   0x080065b9   0x14  Code  Gb  stm32f4xx_spi.o [6]
SPI_I2S_ReceiveData     0x080065b1    0x4  Code  Gb  stm32f4xx_spi.o [6]
SPI_I2S_SendData        0x080065b5    0x4  Code  Gb  stm32f4xx_spi.o [6]
SPI_Init                0x08006555   0x40  Code  Gb  stm32f4xx_spi.o [6]
SVC_Handler             0x08008301    0x2  Code  Gb  stm32f4xx_it.o [1]
SdoDownloadSegmentInd   0x080055d5  0x308  Code  Lc  sdoserv.o [1]
SdoRes                  0x08005aa1  0x134  Code  Gb  sdoserv.o [1]
SdoUploadSegmentInd     0x080058dd  0x1c4  Code  Lc  sdoserv.o [1]
SendBuff                0x20000ca8   0x18  Data  Gb  Task_Ethercat.o [1]
SetALEventMask          0x08001743   0x2a  Code  Gb  ecatslv.o [1]
SetALStatus             0x0800209f   0x5a  Code  Gb  ecatslv.o [1]
SetSysClock             0x0800749f   0xce  Code  Lc  system_stm32f4xx.o [1]
Stack_Use_MSP           0x080082d9    0xa  Code  Gb  stm32f4xx_it.o [1]
StartInputHandler       0x08001c0f  0x3fa  Code  Gb  ecatslv.o [1]
StartOutputHandler      0x08002009   0x1a  Code  Gb  ecatslv.o [1]
StartTimerCnt           0x20000cf4    0x4  Data  Gb  ecatappl.o [1]
StopInputHandler        0x08002035   0x60  Code  Gb  ecatslv.o [1]
StopOutputHandler       0x08002023   0x12  Code  Gb  ecatslv.o [1]
SyncManInfo             0x20000ce8    0x8  Data  Gb  ecatslv.o [1]
SysTick_Handler         0x08008307    0x2  Code  Gb  stm32f4xx_it.o [1]
SystemInit              0x08007441   0x5e  Code  Gb  system_stm32f4xx.o [1]
TIM3_IRQHandler         0x08002e63   0x18  Code  Gb  IF_EtherCat.o [1]
TIM6_DAC_IRQHandler     0x08008309    0x2  Code  Gb  stm32f4xx_it.o [1]
TIM7_IRQHandler         0x0800830b    0x2  Code  Gb  stm32f4xx_it.o [1]
TIM_ClearITPendingBit   0x08004263    0x8  Code  Gb  stm32f4xx_tim.o [6]
TIM_GetITStatus         0x08004235   0x2e  Code  Gb  stm32f4xx_tim.o [6]
USART2_IRQHandler       0x08002e25   0x3e  Code  Gb  IF_EtherCat.o [1]
USART_ClearFlag         0x080041a1    0xc  Code  Gb  stm32f4xx_usart.o [6]
USART_ClearITPendingBit
                        0x08004211   0x22  Code  Gb  stm32f4xx_usart.o [6]
USART_Cmd               0x08004109   0x1c  Code  Gb  stm32f4xx_usart.o [6]
USART_GetFlagStatus     0x08004187   0x1a  Code  Gb  stm32f4xx_usart.o [6]
USART_GetITStatus       0x080041ad   0x64  Code  Gb  stm32f4xx_usart.o [6]
USART_ITConfig          0x08004135   0x52  Code  Gb  stm32f4xx_usart.o [6]
USART_Init              0x08004045   0xb6  Code  Gb  stm32f4xx_usart.o [6]
USART_ReceiveData       0x0800412d    0x8  Code  Gb  stm32f4xx_usart.o [6]
USART_SendData          0x08004125    0x8  Code  Gb  stm32f4xx_usart.o [6]
UpdateEEPROMLoadedState
                        0x0800176d   0x48  Code  Gb  ecatslv.o [1]
UsageFault_Handler      0x080082ff    0x2  Code  Gb  stm32f4xx_it.o [1]
Usart2_Init             0x08002d6f   0xb6  Code  Gb  IF_EtherCat.o [1]
_Close_all              0x080085ad   0x58  Code  Gb  xcloseall.o [3]
_Files                  0x20000558   0x20  Data  Gb  xfiles.o [3]
_Fofree                 0x0800840d   0x78  Code  Gb  xfofind.o [3]
_Fspos                  0x08007f29   0xd6  Code  Gb  xfspos.o [3]
_Fwprep                 0x08008335   0xb6  Code  Gb  xfwprep.o [3]
_Nnl                    0x080080b1    0xc  Code  Gb  xfgpos.o [3]
_PrintfTiny             0x08007b1d  0x12c  Code  Gb  xprintftiny.o [3]
_Prout                  0x08008811   0x16  Code  Gb  xprout.o [3]
__aeabi_errno_addr      0x08008109    0x6  Code  Gb  errno.o [3]
__aeabi_memset          0x0800667d         Code  Gb  ABImemset.o [4]
__cexit_closeall        0x080087eb         Code  Gb  cexit.o [4]
__close                 0x08008503   0x1a  Code  Gb  close.o [5]
__cmain                 0x080087c5         Code  Gb  cmain.o [4]
__cstart_closeall       0x08008aa8         Data  Gb  cstart_closeall.o [4]
__data_GetMemChunk      0x08001665   0x2c  Code  Gb  xgetmemchunk.o [3]
__dwrite                0x0800812b   0x1e  Code  Gb  dwrite.o [5]
__exit                  0x08001691   0x14  Code  Gb  exit.o [5]
__iar_Errno             0x2000061c    0x4  Data  Gb  errno.o [3]
__iar_Lockfilelock      0x08008115    0x2  Code  Gb  xsyslock_nop.o [3]
__iar_Memset            0x0800667d         Code  Gb  ABImemset.o [4]
__iar_Memset_word       0x08006685         Code  Gb  ABImemset.o [4]
__iar_Stderr            0x20000518   0x40  Data  Gb  xfiles.o [3]
__iar_Stdin             0x20000498   0x40  Data  Gb  xfiles.o [3]
__iar_Stdout            0x200004d8   0x40  Data  Gb  xfiles.o [3]
__iar_Unlockfilelock    0x08008117    0x2  Code  Gb  xsyslock_nop.o [3]
__iar_close_ttio        0x080016a5   0x2e  Code  Gb  iarttio.o [5]
__iar_data_init3        0x080086d9   0x28  Code  Gb  data_init.o [4]
__iar_dlfree            0x08001121  0x512  Code  Gb  dlmalloc.o [3]
__iar_dlib_perthread_access
                        0x08008129    0x2  Code  Gb  xtls.o [3]
__iar_dlmalloc          0x08000e6d  0x2a8  Code  Gb  dlmalloc.o [3]
__iar_get_ttio          0x080016d5   0x38  Code  Gb  iarttio.o [5]
__iar_gm_               0x20000820  0x1d8  Data  Gb  dlmalloc.o [3]
__iar_lookup_ttioh      0x08001711    0x8  Code  Gb  XShttio.o [3]
__iar_lz77_init3        0x080072d7  0x16a  Code  Gb  lz77_init.o [4]
__iar_program_start     0x08008941         Code  Gb  cstartup_M.o [4]
__iar_sh_Discard        0x08007e49   0x48  Code  Gb  XShHandles.o [3]
__iar_sh_Move           0x08007e91   0x4c  Code  Gb  XShHandles.o [3]
__iar_sh_Pos            0x08007edd   0x44  Code  Gb  XShHandles.o [3]
__iar_sh_stdout         0x08008149   0x20  Code  Gb  iarwstd.o [5]
__iar_sh_write          0x08008169   0x22  Code  Gb  iarwrite.o [5]
__iar_ttio_handles      0x20000608    0x8  Data  Lc  XShttio.o [3]
__iar_unaligned___aeabi_memcpy
                        0x08006605         Code  Gb  ABImemcpy_unaligned.o [4]
__iar_unaligned___aeabi_memcpy4
                        0x08006625         Code  Gb  ABImemcpy_unaligned.o [4]
__iar_unaligned___aeabi_memcpy8
                        0x08006625         Code  Gb  ABImemcpy_unaligned.o [4]
__iar_zero_init3        0x08001643   0x22  Code  Gb  zero_init3.o [4]
__low_level_init        0x080087df    0x4  Code  Gb  low_level_init.o [3]
__lseek                 0x080080bd   0x4c  Code  Gb  lseek.o [5]
__vector_table          0x08000000         Data  Gb  startup_stm32f40_41xxx.o [1]
__write                 0x08008119   0x10  Code  Gb  write.o [5]
_call_main              0x080087d1         Code  Gb  cmain.o [4]
_exit                   0x080087e9         Code  Gb  cexit.o [4]
_main                   0x080087db         Code  Gb  cmain.o [4]
aName0x1000             0x080088bc    0xc  Data  Gb  coeappl.o [1]
aName0x1001             0x08008884   0x10  Data  Gb  coeappl.o [1]
aName0x1008             0x080088c8    0xc  Data  Gb  coeappl.o [1]
aName0x1009             0x08008834   0x14  Data  Gb  coeappl.o [1]
aName0x100A             0x08008848   0x14  Data  Gb  coeappl.o [1]
aName0x1018             0x0800869c   0x3c  Data  Gb  coeappl.o [1]
aName0x10F1             0x0800865c   0x40  Data  Gb  coeappl.o [1]
aName0x1600             0x080066e4  0x2f8  Data  Gb  coeappl.o [1]
aName0x1A00             0x080069dc  0x2f8  Data  Gb  coeappl.o [1]
aName0x1C00             0x08008870   0x14  Data  Gb  coeappl.o [1]
aName0x1C12             0x0800878c   0x1c  Data  Gb  coeappl.o [1]
aName0x1C13             0x080087a8   0x1c  Data  Gb  coeappl.o [1]
aName0x1C32             0x08007c48  0x100  Data  Gb  coeappl.o [1]
aName0x1C33             0x08007d48  0x100  Data  Gb  coeappl.o [1]
aName0x6000             0x08006fc0  0x2b4  Data  Gb  coeappl.o [1]
aName0x7000             0x08006cd4  0x2ec  Data  Gb  coeappl.o [1]
aPdInputData            0x20000b5c   0x44  Data  Gb  ecatappl.o [1]
aPdOutputData           0x20000b18   0x44  Data  Gb  ecatappl.o [1]
aSdoInfoHeader          0x20000cd8   0x10  Data  Gb  sdoserv.o [1]
aSubindexDesc           0x200005c4   0x10  Data  Gb  objdef.o [1]
abort                   0x0800163d    0x6  Code  Gb  abort.o [3]
acDevicename            0x200005b4   0x10  Data  Gb  coeappl.o [1]
acHardwareversion       0x200005f0    0x8  Data  Gb  coeappl.o [1]
acSoftwareversion       0x200005f8    0x8  Data  Gb  coeappl.o [1]
asEntryDesc0x1018       0x0800872c   0x20  Data  Gb  coeappl.o [1]
asEntryDesc0x10F1       0x0800885c   0x14  Data  Gb  coeappl.o [1]
asEntryDesc0x1600       0x080075a4  0x158  Data  Gb  coeappl.o [1]
asEntryDesc0x1A00       0x080076fc  0x158  Data  Gb  coeappl.o [1]
asEntryDesc0x1C00       0x080088d4    0xc  Data  Gb  coeappl.o [1]
asEntryDesc0x1C12       0x080088a4    0xc  Data  Gb  coeappl.o [1]
asEntryDesc0x1C13       0x080088b0    0xc  Data  Gb  coeappl.o [1]
asEntryDesc0x1C3x       0x0800818c   0xc8  Data  Gb  coeappl.o [1]
asEntryDesc0x6000       0x08007854  0x158  Data  Gb  coeappl.o [1]
asEntryDesc0x7000       0x080079ac  0x158  Data  Gb  coeappl.o [1]
asMbx                   0x20000620  0x200  Data  Gb  mailbox.o [1]
b3BufferMode            0x20000d78    0x1  Data  Gb  ecatslv.o [1]
bApplEsmPending         0x20000d7a    0x1  Data  Gb  ecatslv.o [1]
bCycleTimeMeasurementStarted
                        0x20000d70    0x1  Data  Gb  ecatappl.o [1]
bDcSyncActive           0x20000d76    0x1  Data  Gb  ecatslv.o [1]
bEcatFirstOutputsReceived
                        0x20000d74    0x1  Data  Gb  ecatslv.o [1]
bEcatInputUpdateRunning
                        0x20000d73    0x1  Data  Gb  ecatslv.o [1]
bEcatOutputUpdateRunning
                        0x20000d72    0x1  Data  Gb  ecatslv.o [1]
bEcatWaitForAlControlRes
                        0x20000d7b    0x1  Data  Gb  ecatslv.o [1]
bEscIntEnabled          0x20000d77    0x1  Data  Gb  ecatslv.o [1]
bInitFinished           0x20000d71    0x1  Data  Gb  ecatappl.o [1]
bLocalErrorFlag         0x20000d79    0x1  Data  Gb  ecatslv.o [1]
bMbxRepeatToggle        0x20000d83    0x1  Data  Gb  mailbox.o [1]
bMbxRunning             0x20000d82    0x1  Data  Gb  mailbox.o [1]
bNoMbxMemoryAvailable   0x20000d87    0x1  Data  Gb  mailbox.o [1]
bReceiveMbxIsLocked     0x20000d80    0x1  Data  Gb  mailbox.o [1]
bSdoInWork              0x20000d8c    0x1  Data  Gb  sdoserv.o [1]
bSdoSegAccess           0x20000d8f    0x1  Data  Gb  sdoserv.o [1]
bSdoSegFollows          0x20000d8e    0x1  Data  Gb  sdoserv.o [1]
bSdoSegLastToggle       0x20000d91    0x1  Data  Gb  sdoserv.o [1]
bSendMbxIsFull          0x20000d81    0x1  Data  Gb  mailbox.o [1]
bStoreCompleteAccess    0x20000d8a    0x1  Data  Gb  sdoserv.o [1]
bSyncSetByUser          0x20000d88    0x1  Data  Gb  objdef.o [1]
bWdTrigger              0x20000d75    0x1  Data  Gb  ecatslv.o [1]
cAbortCode              0x08008534   0x78  Data  Gb  sdoserv.o [1]
cBitMask                0x0800874c   0x20  Data  Gb  objdef.o [1]
cbAPPL_Application      0x080032a9   0xca  Code  Gb  Task_Ethercat.o [1]
count_uart_refresh      0x20000d3c    0x4  Data  Gb  Task_Ethercat.o [1]
ebuf                    0x20000a78   0x50  Data  Lc  xfiles.o [3]
exit                    0x080087e3    0x4  Code  Gb  exit.o [3]
fclose                  0x08008489   0x7a  Code  Gb  fclose.o [3]
fflush                  0x08008077   0x34  Code  Gb  fflush.o [3]
fflushOne               0x08008001   0x76  Code  Lc  fflush.o [3]
fputc                   0x08008605   0x56  Code  Gb  fputc.o [3]
fseek                   0x080083eb   0x22  Code  Gb  fseek.o [3]
gvIF_SPIConfig          0x08003c59    0xc  Code  Gb  IF_SPI.o [1]
gvcbIF_ESC_PDIInit      0x08002d27   0x2a  Code  Gb  IF_EtherCat.o [1]
init_mparams            0x080001a3   0x34  Code  Lc  dlmalloc.o [3]
init_top                0x080001d7   0x34  Code  Lc  dlmalloc.o [3]
lbIF_SPI_EthercatReadWrite
                        0x08003c65   0x32  Code  Gb  IF_SPI.o [1]
lvIF_SPIEthercatConfig  0x08003cff   0x68  Code  Lc  IF_SPI.o [1]
lvIF_SPI_GPIOConfig     0x08003c97   0x68  Code  Lc  IF_SPI.o [1]
lvcbIF_ESC_GetDatas     0x08002ad9   0x40  Code  Lc  IF_EtherCat.o [1]
main                    0x0800876d   0x20  Code  Gb  main.o [1]
memcpy                  0x080055b5    0xc  Code  Gb  memcpy.o [3]
memset                  0x080055c1   0x14  Code  Gb  memset.o [3]
mparams                 0x20000cc0   0x18  Data  Lc  dlmalloc.o [3]
nAlStatus               0x20000d7d    0x1  Data  Gb  ecatslv.o [1]
nEcatStateTrans         0x20000d4c    0x2  Data  Gb  ecatslv.o [1]
nEscAddrInputData       0x20000d58    0x2  Data  Gb  ecatslv.o [1]
nEscAddrOutputData      0x20000d56    0x2  Data  Gb  ecatslv.o [1]
nMaxEscAddress          0x20000d52    0x2  Data  Gb  ecatslv.o [1]
nMaxSyncMan             0x20000d7c    0x1  Data  Gb  ecatslv.o [1]
nPdInputSize            0x20000d4e    0x2  Data  Gb  ecatslv.o [1]
nPdOutputSize           0x20000d50    0x2  Data  Gb  ecatslv.o [1]
nSdoInfoFragmentsLeft   0x20000d6a    0x2  Data  Gb  sdoserv.o [1]
nSdoInfoIndex           0x20000d6c    0x2  Data  Gb  sdoserv.o [1]
nSdoSegBytesToHandle    0x20000d30    0x4  Data  Gb  sdoserv.o [1]
nSdoSegCompleteSize     0x20000d34    0x4  Data  Gb  sdoserv.o [1]
nSdoSegIndex            0x20000d6e    0x2  Data  Gb  sdoserv.o [1]
nSdoSegService          0x20000d8d    0x1  Data  Gb  sdoserv.o [1]
nSdoSegSubindex         0x20000d90    0x1  Data  Gb  sdoserv.o [1]
obuf                    0x20000ac8   0x50  Data  Lc  xfiles.o [3]
out                     0x08007b05   0x18  Code  Lc  xprintftiny.o [3]
pCoeSendStored          0x20000cf8    0x4  Data  Gb  ecatcoe.o [1]
pSdoInfoObjEntry        0x20000d28    0x4  Data  Gb  sdoserv.o [1]
pSdoPendFunc            0x20000d20    0x4  Data  Gb  sdoserv.o [1]
pSdoResStored           0x20000d2c    0x4  Data  Gb  sdoserv.o [1]
pSdoSegData             0x20000d24    0x4  Data  Gb  sdoserv.o [1]
pSdoSegObjEntry         0x20000d38    0x4  Data  Gb  sdoserv.o [1]
pStoreData              0x20000d1c    0x4  Data  Gb  sdoserv.o [1]
prepend_alloc           0x0800020b  0x33c  Code  Lc  dlmalloc.o [3]
printf                  0x08008311   0x24  Code  Gb  printf.o [3]
psReadMbx               0x20000d08    0x4  Data  Gb  mailbox.o [1]
psRepeatMbx             0x20000d0c    0x4  Data  Gb  mailbox.o [1]
psStoreMbx              0x20000d10    0x4  Data  Gb  mailbox.o [1]
psWriteMbx              0x20000d04    0x4  Data  Gb  mailbox.o [1]
putchar                 0x08008829    0xc  Code  Gb  putchar.o [3]
remove                  0x0800851d   0x16  Code  Gb  remove.o [5]
sCycleDiag              0x20000d14    0x4  Data  Gb  objdef.o [1]
sEntryDesc0x1000        0x0800894c    0x8  Data  Gb  coeappl.o [1]
sEntryDesc0x1001        0x08008954    0x8  Data  Gb  coeappl.o [1]
sEntryDesc0x1008        0x0800895c    0x8  Data  Gb  coeappl.o [1]
sEntryDesc0x1009        0x08008964    0x8  Data  Gb  coeappl.o [1]
sEntryDesc0x100A        0x0800896c    0x8  Data  Gb  coeappl.o [1]
sErrorSettings          0x200005e4    0xc  Data  Gb  objdef.o [1]
sFileInfo               0x200009f8   0x80  Data  Lc  XShHandles.o [3]
sIdentity               0x20000578   0x14  Data  Gb  coeappl.o [1]
sMbxReceiveQueue        0x20000c5c   0x34  Data  Gb  mailbox.o [1]
sMbxSendQueue           0x20000c28   0x34  Data  Gb  mailbox.o [1]
sRxPDOassign            0x20000614    0x4  Data  Gb  Task_Ethercat.o [1]
sSyncManInPar           0x20000be4   0x44  Data  Gb  objdef.o [1]
sSyncManOutPar          0x20000ba0   0x44  Data  Gb  objdef.o [1]
sSyncmanagertype        0x20000600    0x8  Data  Gb  coeappl.o [1]
sTxPDOassign            0x20000618    0x4  Data  Gb  Task_Ethercat.o [1]
segment_holding         0x08000189   0x1a  Code  Lc  dlmalloc.o [3]
stackDump               0x08008255   0x46  Code  Lc  stm32f4xx_it.o [1]
strlen                  0x080065cd         Code  Gb  strlen.o [4]
sys_alloc               0x08000547  0x37e  Code  Lc  dlmalloc.o [3]
tmalloc_large           0x080008d1  0x38a  Code  Lc  dlmalloc.o [3]
tmalloc_small           0x08000c5b  0x204  Code  Lc  dlmalloc.o [3]
u16ALEventMask          0x20000d5a    0x2  Data  Gb  ecatslv.o [1]
u16BusCycleCntMs        0x20000d46    0x2  Data  Gb  ecatappl.o [1]
u16ErrorRegister        0x20000d44    0x2  Data  Gb  coeappl.o [1]
u16EscAddrReceiveMbx    0x20000d64    0x2  Data  Gb  mailbox.o [1]
u16EscAddrSendMbx       0x20000d66    0x2  Data  Gb  mailbox.o [1]
u16LocalErrorCode       0x20000d4a    0x2  Data  Gb  ecatslv.o [1]
u16ReceiveMbxSize       0x20000d62    0x2  Data  Gb  mailbox.o [1]
u16SendMbxSize          0x20000d60    0x2  Data  Gb  mailbox.o [1]
u16StoreIndex           0x20000d68    0x2  Data  Gb  sdoserv.o [1]
u16dummy                0x20000d5c    0x2  Data  Gb  ecatslv.o [1]
u32Devicetype           0x20000610    0x4  Data  Gb  coeappl.o [1]
u32StoreDataSize        0x20000d18    0x4  Data  Gb  sdoserv.o [1]
u8MailboxSendReqStored  0x20000d86    0x1  Data  Gb  mailbox.o [1]
u8MbxReadCounter        0x20000d85    0x1  Data  Gb  mailbox.o [1]
u8MbxWriteCounter       0x20000d84    0x1  Data  Gb  mailbox.o [1]
u8PendingSdo            0x20000d89    0x1  Data  Gb  sdoserv.o [1]
u8StoreSubindex         0x20000d8b    0x1  Data  Gb  sdoserv.o [1]


[1] = D:\codes\C80IntegratedBoard\Project\IAR\Debug\Obj
[2] = command line
[3] = dl7M_tlf.a
[4] = rt7M_tl.a
[5] = shb_l.a
[6] = stm32f4Lib.a

  29 714 bytes of readonly  code memory
   6 581 bytes of readonly  data memory
  19 858 bytes of readwrite data memory

Errors: none
Warnings: none
