###############################################################################
#
# IAR ANSI C/C++ Compiler V8.30.1.114/W32 for ARM         22/Jul/2020  13:36:45
# Copyright 1999-2018 IAR Systems AB.
#
#    Cpu mode     =  thumb
#    Endian       =  little
#    Source file  =  
#        E:\DESKTOP\@@@\@@@@\Intergrated\SourceCodes\IF_EtherCat.c
#    Command line =  
#        -f C:\Users\wfc0628\AppData\Local\Temp\EW9B0A.tmp
#        (E:\DESKTOP\@@@\@@@@\Intergrated\SourceCodes\IF_EtherCat.c
#        -D USE_STDPERIPH_DRIVER -D STM32F40_41xxx -D _DLIB_FILE_DESCRIPTOR -lC
#        E:\DESKTOP\@@@\@@@@\Intergrated\Project\IAR\Debug\List
#        -lA
#        E:\DESKTOP\@@@\@@@@\Intergrated\Project\IAR\Debug\List
#        -o E:\DESKTOP\@@@\@@@@\Intergrated\Project\IAR\Debug\Obj
#        --no_cse --no_unroll --no_inline --no_code_motion --no_tbaa
#        --no_clustering --no_scheduling --debug --endian=little
#        --cpu=Cortex-M4 -e --fpu=VFPv4_sp --dlib_config "C:\Program Files
#        (x86)\IAR Systems\Embedded Workbench 8.1\arm\inc\c\DLib_Config_Full.h"
#        -I
#        E:\DESKTOP\@@@\@@@@\Intergrated\Project\IAR\..\..\STM32F4xx_DSP_StdPeriph_Lib_V1.8.0\Libraries\STM32F4xx_StdPeriph_Driver\inc\
#        -I
#        E:\DESKTOP\@@@\@@@@\Intergrated\Project\IAR\..\..\STM32F4xx_DSP_StdPeriph_Lib_V1.8.0\Libraries\CMSIS\Include\
#        -I
#        E:\DESKTOP\@@@\@@@@\Intergrated\Project\IAR\..\..\STM32F4xx_DSP_StdPeriph_Lib_V1.8.0\Libraries\CMSIS\Device\ST\STM32F4xx\Include\
#        -I
#        E:\DESKTOP\@@@\@@@@\Intergrated\Project\IAR\..\..\SourceCodes\
#        -I
#        E:\DESKTOP\@@@\@@@@\Intergrated\Project\IAR\..\..\EtherCatLib\
#        -I E:\DESKTOP\@@@\@@@@\Intergrated\Project\IAR\ -Ol
#        --use_c++_inline)
#    Locale       =  C
#    List file    =  
#        E:\DESKTOP\@@@\@@@@\Intergrated\Project\IAR\Debug\List\IF_EtherCat.lst
#    Object file  =  
#        E:\DESKTOP\@@@\@@@@\Intergrated\Project\IAR\Debug\Obj\IF_EtherCat.o
#
###############################################################################

E:\DESKTOP\@@@\@@@@\Intergrated\SourceCodes\IF_EtherCat.c
      1          /**
Warning[Ms014]: some characters could not be correctly encoded in
          "E:\DESKTOP\@@@\@@@@\Intergrated\Project\IAR\Debug\List\IF_EtherCat.
          s", and have been replaced with '@'. The first such character has
          unicode code point 0x79d1 ("@")
      2          \addtogroup EL9800_HW EL9800 Platform (Serial ESC Access)
      3          @{
      4          */
      5          
      6          /**
      7          \file    el9800hw.c
      8          \author EthercatSSC@beckhoff.com
      9          \brief Implementation
     10          Hardware access implementation for EL9800 onboard PIC18/PIC24 connected via SPI to ESC
     11          
     12          \version 5.11
     13          
     14          <br>Changes to version V5.10:<br>
     15          V5.11 ECAT10: change PROTO handling to prevent compiler errors<br>
     16          V5.11 EL9800 2: change PDI access test to 32Bit ESC access and reset AL Event mask after test even if AL Event is not enabled<br>
     17          <br>Changes to version V5.01:<br>
     18          V5.10 ESC5: Add missing swapping<br>
     19          V5.10 HW3: Sync1 Isr added<br>
     20          V5.10 HW4: Add volatile directive for direct ESC DWORD/WORD/BYTE access<br>
     21                     Add missing swapping in mcihw.c<br>
     22                     Add "volatile" directive vor dummy variables in enable and disable SyncManger functions<br>
     23                     Add missing swapping in EL9800hw files<br>
     24          <br>Changes to version V5.0:<br>
     25          V5.01 HW1: Invalid ESC access function was used<br>
     26          <br>Changes to version V4.40:<br>
     27          V5.0 ESC4: Save SM disable/Enable. Operation may be pending due to frame handling.<br>
     28          <br>Changes to version V4.30:<br>
     29          V4.40 : File renamed from spihw.c to el9800hw.c<br>
     30          <br>Changes to version V4.20:<br>
     31          V4.30 ESM: if mailbox Syncmanger is disabled and bMbxRunning is true the SyncManger settings need to be revalidate<br>
     32          V4.30 EL9800: EL9800_x hardware initialization is moved to el9800.c<br>
     33          V4.30 SYNC: change synchronisation control function. Add usage of 0x1C32:12 [SM missed counter].<br>
     34          Calculate bus cycle time (0x1C32:02 ; 0x1C33:02) CalcSMCycleTime()<br>
     35          V4.30 PDO: rename PDO specific functions (COE_xxMapping -> PDO_xxMapping and COE_Application -> ECAT_Application)<br>
     36          V4.30 ESC: change requested address in GetInterruptRegister() to prevent acknowledge events.<br>
     37          (e.g. reading an SM config register acknowledge SM change event)<br>
     38          GENERIC: renamed several variables to identify used SPI if multiple interfaces are available<br>
     39          V4.20 MBX 1: Add Mailbox queue support<br>
     40          V4.20 SPI 1: include SPI RxBuffer dummy read<br>
     41          V4.20 DC 1: Add Sync0 Handling<br>
     42          V4.20 PIC24: Add EL9800_4 (PIC24) required source code<br>
     43          V4.08 ECAT 3: The AlStatusCode is changed as parameter of the function AL_ControlInd<br>
     44          <br>Changes to version V4.02:<br>
     45          V4.03 SPI 1: In ISR_GetInterruptRegister the NOP-command should be used.<br>
     46          <br>Changes to version V4.01:<br>
     47          V4.02 SPI 1: In HW_OutputMapping the variable u16OldTimer shall not be set,<br>
     48                       otherwise the watchdog might exceed too early.<br>
     49          <br>Changes to version V4.00:<br>
     50          V4.01 SPI 1: DI and DO were changed (DI is now an input for the uC, DO is now an output for the uC)<br>
     51          V4.01 SPI 2: The SPI has to operate with Late-Sample = FALSE on the Eva-Board<br>
     52          <br>Changes to version V3.20:<br>
     53          V4.00 ECAT 1: The handling of the Sync Manager Parameter was included according to<br>
     54                        the EtherCAT Guidelines and Protocol Enhancements Specification<br>
     55          V4.00 APPL 1: The watchdog checking should be done by a microcontroller<br>
     56                           timer because the watchdog trigger of the ESC will be reset too<br>
     57                           if only a part of the sync manager data is written<br>
     58          V4.00 APPL 4: The EEPROM access through the ESC is added
     59          
     60          */
     61          
     62          
     63          /*--------------------------------------------------------------------------------------
     64          ------
     65          ------    Includes
     66          ------
     67          --------------------------------------------------------------------------------------*/
     68          #include "IF_EtherCat.h"
     69          #include "ecat_def.h"
     70          #include "ecatslv.h"
     71          #include "ecatappl.h"
     72          #include "IF_SPI.h"
     73          
     74          /*--------------------------------------------------------------------------------------
     75          ------
     76          ------    internal Types and Defines
     77          ------
     78          --------------------------------------------------------------------------------------*/
     79          
     80          typedef union tagWord2Byte
     81          {
     82              uint16_t        wWord;
     83              uint8_t         bByte[2];
     84          }Word2Byte_u;
     85          
     86          typedef Word2Byte_u     ALEvent_u;
     87          
     88          /*-----------------------------------------------------------------------------------------
     89          ------
     90          ------    SPI defines/macros
     91          ------
     92          -----------------------------------------------------------------------------------------*/
     93          
     94          /*ET9300 Project Handler :(#elif _PIC18) lines 123 to 147 deleted*/
     95          
     96          /*-----------------------------------------------------------------------------------------
     97          ------
     98          ------    Global Interrupt setting
     99          ------
    100          -----------------------------------------------------------------------------------------*/
    101          
    102          #define    DISABLE_AL_EVENT_INT         DisableInterrupts()
    103          #define    ENABLE_AL_EVENT_INT          EnableInterrupts()
    104          
    105          /*ET9300 Project Handler :(#elif _PIC18) lines 162 to 169 deleted*/
    106          
    107          /*-----------------------------------------------------------------------------------------
    108          ------
    109          ------    ESC Interrupt
    110          ------
    111          -----------------------------------------------------------------------------------------*/
    112          
    113          
    114          
    115          /*ET9300 Project Handler :(#elif _PIC18) lines 186 to 194 deleted*/
    116          
    117          
    118          /*-----------------------------------------------------------------------------------------
    119          ------
    120          ------    SYNC0 Interrupt
    121          ------
    122          -----------------------------------------------------------------------------------------*/
    123          /*ET9300 Project Handler :(#if DC_SUPPORTED && _PIC24) lines 203 to 225 deleted*/
    124          
    125          
    126          /*-----------------------------------------------------------------------------------------
    127          ------
    128          ------    Hardware timer
    129          ------
    130          -----------------------------------------------------------------------------------------*/
    131          
    132          /*ET9300 Project Handler :(#if ECAT_TIMER_INT) lines 236 to 254 deleted*/
    133          
    134          
    135          
    136          
    137          /*ET9300 Project Handler :(#elif _PIC18) lines 266 to 280 deleted*/
    138          
    139          /*-----------------------------------------------------------------------------------------
    140          ------
    141          ------    Configuration Bits
    142          ------
    143          -----------------------------------------------------------------------------------------*/
    144          
    145          
    146          /*-----------------------------------------------------------------------------------------
    147          ------
    148          ------    LED defines
    149          ------
    150          -----------------------------------------------------------------------------------------*/
    151          // EtherCAT Status LEDs -> StateMachine
    152          
    153          
    154          /*--------------------------------------------------------------------------------------
    155          ------
    156          ------    internal Variables
    157          ------
    158          --------------------------------------------------------------------------------------*/
    159          //UALEVENT         EscALEvent;            //contains the content of the ALEvent register (0x220), this variable is updated on each Access to the Esc

   \                                 In section .bss, align 2
    160          local volatile ALEvent_u   luEscALEvent;  //contains the content of the ALEvent register (0x220), this variable is updated on each Access to the Esc
   \                     luEscALEvent:
   \        0x0                      DS8 2
    161          #if DEBUG_LOGGER_EN == 1u
    162          local const char *lpbFileName = "IF002";
    163          #endif
    164          
    165          /*--------------------------------------------------------------------------------------
    166          ------
    167          ------    internal functions
    168          ------
    169          --------------------------------------------------------------------------------------*/
    170          
    171          

   \                                 In section .text, align 2, keep-with-next
    172          local  void lvcbIF_ESC_GetDatas( uint8_t *pRes, uint8_t *pIn, uint16_t wLen )
    173          {
   \                     lvcbIF_ESC_GetDatas: (+1)
   \        0x0   0xB5F8             PUSH     {R3-R7,LR}
   \        0x2   0x0004             MOVS     R4,R0
   \        0x4   0x000D             MOVS     R5,R1
   \        0x6   0x0016             MOVS     R6,R2
    174              uint16_t n;
    175          
    176              if( (pRes == NULL) || (pIn == NULL) )
   \        0x8   0x2C00             CMP      R4,#+0
   \        0xA   0xD001             BEQ.N    ??lvcbIF_ESC_GetDatas_0
   \        0xC   0x2D00             CMP      R5,#+0
   \        0xE   0xD100             BNE.N    ??lvcbIF_ESC_GetDatas_1
    177              {
    178                  return;
   \                     ??lvcbIF_ESC_GetDatas_0: (+1)
   \       0x10   0xE016             B.N      ??lvcbIF_ESC_GetDatas_2
    179              }
    180              else
    181              {
    182                  USED_SPI_ETHERCAT_SELECT;
   \                     ??lvcbIF_ESC_GetDatas_1: (+1)
   \       0x12   0x2010             MOVS     R0,#+16
   \       0x14   0x....             LDR.N    R1,??DataTable9  ;; 0x4002001a
   \       0x16   0x8008             STRH     R0,[R1, #+0]
    183                  for( n = 0 ; n < wLen ; n++ )
   \       0x18   0x2700             MOVS     R7,#+0
   \       0x1A   0xE008             B.N      ??lvcbIF_ESC_GetDatas_3
    184                  {
    185                      pRes[n] = gbIF_SPI_EtherCatReadWrite( pIn[n] );
   \                     ??lvcbIF_ESC_GetDatas_4: (+1)
   \       0x1C   0x0038             MOVS     R0,R7
   \       0x1E   0xB280             UXTH     R0,R0            ;; ZeroExt  R0,R0,#+16,#+16
   \       0x20   0x5C28             LDRB     R0,[R5, R0]
   \       0x22   0x.... 0x....      BL       gbIF_SPI_EtherCatReadWrite
   \       0x26   0x0039             MOVS     R1,R7
   \       0x28   0xB289             UXTH     R1,R1            ;; ZeroExt  R1,R1,#+16,#+16
   \       0x2A   0x5460             STRB     R0,[R4, R1]
    186                  }
   \       0x2C   0x1C7F             ADDS     R7,R7,#+1
   \                     ??lvcbIF_ESC_GetDatas_3: (+1)
   \       0x2E   0x0038             MOVS     R0,R7
   \       0x30   0x0031             MOVS     R1,R6
   \       0x32   0xB280             UXTH     R0,R0            ;; ZeroExt  R0,R0,#+16,#+16
   \       0x34   0xB289             UXTH     R1,R1            ;; ZeroExt  R1,R1,#+16,#+16
   \       0x36   0x4288             CMP      R0,R1
   \       0x38   0xD3F0             BCC.N    ??lvcbIF_ESC_GetDatas_4
    187                  USED_SPI_ETHERCAT_RELEASE;
   \       0x3A   0x2010             MOVS     R0,#+16
   \       0x3C   0x....             LDR.N    R1,??DataTable9_1  ;; 0x40020018
   \       0x3E   0x8008             STRH     R0,[R1, #+0]
    188              }
    189          }
   \                     ??lvcbIF_ESC_GetDatas_2: (+1)
   \       0x40   0xBDF1             POP      {R0,R4-R7,PC}    ;; return
    190          /////////////////////////////////////////////////////////////////////////////////////////
    191          /**
    192           \brief  The function operates a SPI access without addressing.
    193          
    194                  The first two bytes of an access to the EtherCAT ASIC always deliver the AL_Event register (0x220).
    195                  It will be saved in the global "EscALEvent"
    196          *////////////////////////////////////////////////////////////////////////////////////////

   \                                 In section .text, align 2, keep-with-next
    197          static void GetInterruptRegister(void)
    198          {
   \                     GetInterruptRegister: (+1)
   \        0x0   0xB5E0             PUSH     {R5-R7,LR}
    199              UINT8  EscMbxReadEcatCtrl;
    200              UINT8  abRes[3];
    201              UINT8  abWrData[3];
    202          
    203              abWrData[0] = 0;
   \        0x2   0x2000             MOVS     R0,#+0
   \        0x4   0xF88D 0x0000      STRB     R0,[SP, #+0]
    204              abWrData[1] = ESC_RD;
   \        0x8   0x4668             MOV      R0,SP
   \        0xA   0x2102             MOVS     R1,#+2
   \        0xC   0x7041             STRB     R1,[R0, #+1]
    205              abWrData[2] = 0xFFU;
   \        0xE   0x21FF             MOVS     R1,#+255
   \       0x10   0x7081             STRB     R1,[R0, #+2]
    206          
    207              lvcbIF_ESC_GetDatas( abRes, abWrData, sizeof(abRes) );
   \       0x12   0x2203             MOVS     R2,#+3
   \       0x14   0x4669             MOV      R1,SP
   \       0x16   0xA801             ADD      R0,SP,#+4
   \       0x18   0x.... 0x....      BL       lvcbIF_ESC_GetDatas
    208          
    209              luEscALEvent.bByte[0] = abRes[0];
   \       0x1C   0x....             LDR.N    R0,??DataTable9_2
   \       0x1E   0xF89D 0x1004      LDRB     R1,[SP, #+4]
   \       0x22   0x7001             STRB     R1,[R0, #+0]
    210              luEscALEvent.bByte[1] = abRes[1];
   \       0x24   0xA901             ADD      R1,SP,#+4
   \       0x26   0x784A             LDRB     R2,[R1, #+1]
   \       0x28   0x7042             STRB     R2,[R0, #+1]
    211              EscMbxReadEcatCtrl    = abRes[2];
   \       0x2A   0x7888             LDRB     R0,[R1, #+2]
    212              EscMbxReadEcatCtrl    = EscMbxReadEcatCtrl; // Only for disposal warning.
    213          }
   \       0x2C   0xBD07             POP      {R0-R2,PC}       ;; return
    214          
    215          /////////////////////////////////////////////////////////////////////////////////////////
    216          /**
    217           \brief  The function operates a SPI access without addressing.
    218                  Shall be implemented if interrupts are supported else this function is equal to "GetInterruptRegsiter()"
    219          
    220                  The first two bytes of an access to the EtherCAT ASIC always deliver the AL_Event register (0x220).
    221                  It will be saved in the global "EscALEvent"
    222          *////////////////////////////////////////////////////////////////////////////////////////
    223          /*ET9300 Project Handler :(#if !INTERRUPTS_SUPPORTED) lines 404 to 406 deleted*/

   \                                 In section .text, align 2, keep-with-next
    224          static void ISR_GetInterruptRegister(void)
    225          {
   \                     ISR_GetInterruptRegister: (+1)
   \        0x0   0xB580             PUSH     {R7,LR}
    226              UINT8  abRes[2];
    227              UINT8  abWrData[2];
    228          
    229              abWrData[0] = 0;
   \        0x2   0x2000             MOVS     R0,#+0
   \        0x4   0xF88D 0x0000      STRB     R0,[SP, #+0]
    230              abWrData[1] = 0;
   \        0x8   0x2000             MOVS     R0,#+0
   \        0xA   0xF88D 0x0001      STRB     R0,[SP, #+1]
    231          
    232              lvcbIF_ESC_GetDatas( abRes, abWrData, sizeof(abRes) );
   \        0xE   0x2202             MOVS     R2,#+2
   \       0x10   0x4669             MOV      R1,SP
   \       0x12   0xF10D 0x0002      ADD      R0,SP,#+2
   \       0x16   0x.... 0x....      BL       lvcbIF_ESC_GetDatas
    233          
    234              luEscALEvent.bByte[0] = abRes[0];
   \       0x1A   0x....             LDR.N    R0,??DataTable9_2
   \       0x1C   0xF89D 0x1002      LDRB     R1,[SP, #+2]
   \       0x20   0x7001             STRB     R1,[R0, #+0]
    235              luEscALEvent.bByte[1] = abRes[1];
   \       0x22   0xF89D 0x1003      LDRB     R1,[SP, #+3]
   \       0x26   0x7041             STRB     R1,[R0, #+1]
    236          }
   \       0x28   0xBD01             POP      {R0,PC}          ;; return
    237          /////////////////////////////////////////////////////////////////////////////////////////
    238          /**
    239           \param Address     EtherCAT ASIC address ( upper limit is 0x1FFF )    for access.
    240           \param Command    ESC_WR performs a write access; ESC_RD performs a read access.
    241          
    242           \brief The function addresses the EtherCAT ASIC via SPI for a following SPI access.
    243          *////////////////////////////////////////////////////////////////////////////////////////

   \                                 In section .text, align 2, keep-with-next
    244          static void AddressingEsc( UINT16 wAddress, UINT8 bCommand )
    245          {
   \                     AddressingEsc: (+1)
   \        0x0   0xB51C             PUSH     {R2-R4,LR}
    246          	Word2Byte_u  auTmp;
    247          
    248          	auTmp.wWord = ( wAddress << 3 ) | bCommand;
   \        0x2   0xB2C9             UXTB     R1,R1            ;; ZeroExt  R1,R1,#+24,#+24
   \        0x4   0xEA51 0x01C0      ORRS     R1,R1,R0, LSL #+3
   \        0x8   0xF8AD 0x1000      STRH     R1,[SP, #+0]
    249          	luEscALEvent.bByte[0] = gbIF_SPI_EtherCatReadWrite( auTmp.bByte[1] );
   \        0xC   0x....             LDR.N    R4,??DataTable9_2
   \        0xE   0xF89D 0x0001      LDRB     R0,[SP, #+1]
   \       0x12   0x.... 0x....      BL       gbIF_SPI_EtherCatReadWrite
   \       0x16   0x7020             STRB     R0,[R4, #+0]
    250          	luEscALEvent.bByte[1] = gbIF_SPI_EtherCatReadWrite( auTmp.bByte[0] );
   \       0x18   0xF89D 0x0000      LDRB     R0,[SP, #+0]
   \       0x1C   0x.... 0x....      BL       gbIF_SPI_EtherCatReadWrite
   \       0x20   0x7060             STRB     R0,[R4, #+1]
    251          }
   \       0x22   0xBD13             POP      {R0,R1,R4,PC}    ;; return
    252          
    253          /////////////////////////////////////////////////////////////////////////////////////////
    254          /**
    255           \param Address     EtherCAT ASIC address ( upper limit is 0x1FFF )    for access.
    256           \param Command    ESC_WR performs a write access; ESC_RD performs a read access.
    257          
    258           \brief The function addresses the EtherCAT ASIC via SPI for a following SPI access.
    259                  Shall be implemented if interrupts are supported else this function is equal to "AddressingEsc()"
    260          *////////////////////////////////////////////////////////////////////////////////////////
    261          /*ET9300 Project Handler :(#if !INTERRUPTS_SUPPORTED) lines 504 to 506 deleted*/

   \                                 In section .text, align 2, keep-with-next
    262          static void ISR_AddressingEsc( UINT16 wAddress, UINT8 bCommand )
    263          {
   \                     ISR_AddressingEsc: (+1)
   \        0x0   0xB580             PUSH     {R7,LR}
    264              VARVOLATILE UINT8   abDummy;
    265              Word2Byte_u         auTmp;
    266          
    267              auTmp.wWord = ( wAddress << 3 ) | bCommand;
   \        0x2   0xB2C9             UXTB     R1,R1            ;; ZeroExt  R1,R1,#+24,#+24
   \        0x4   0xEA51 0x01C0      ORRS     R1,R1,R0, LSL #+3
   \        0x8   0xF8AD 0x1002      STRH     R1,[SP, #+2]
    268              abDummy = gbIF_SPI_EtherCatReadWrite( auTmp.bByte[1] );
   \        0xC   0xF89D 0x0003      LDRB     R0,[SP, #+3]
   \       0x10   0x.... 0x....      BL       gbIF_SPI_EtherCatReadWrite
   \       0x14   0xF88D 0x0000      STRB     R0,[SP, #+0]
    269              abDummy = gbIF_SPI_EtherCatReadWrite( auTmp.bByte[0] );
   \       0x18   0xF89D 0x0002      LDRB     R0,[SP, #+2]
   \       0x1C   0x.... 0x....      BL       gbIF_SPI_EtherCatReadWrite
   \       0x20   0xF88D 0x0000      STRB     R0,[SP, #+0]
    270          }
   \       0x24   0xBD01             POP      {R0,PC}          ;; return
    271          
    272          /*--------------------------------------------------------------------------------------
    273          ------
    274          ------    exported hardware access functions
    275          ------
    276          --------------------------------------------------------------------------------------*/
    277          /////////////////////////////////////////////////////////////////////////////////////////
    278          /**
    279           \brief    This function shall be implemented if hardware resources need to be release
    280                  when the sample application stops
    281          *////////////////////////////////////////////////////////////////////////////////////////

   \                                 In section .text, align 2, keep-with-next
    282          void HW_Release(void)
    283          {
    284          
    285          }
   \                     HW_Release: (+1)
   \        0x0   0x4770             BX       LR               ;; return
    286          
    287          /////////////////////////////////////////////////////////////////////////////////////////
    288          /**
    289           \return    first two Bytes of ALEvent register (0x220)
    290          
    291           \brief  This function gets the current content of ALEvent register
    292          *////////////////////////////////////////////////////////////////////////////////////////

   \                                 In section .text, align 2, keep-with-next
    293          UINT16 HW_GetALEventRegister(void)
    294          {
   \                     HW_GetALEventRegister: (+1)
   \        0x0   0xB580             PUSH     {R7,LR}
    295              GetInterruptRegister();
   \        0x2   0x.... 0x....      BL       GetInterruptRegister
    296              return luEscALEvent.wWord;
   \        0x6   0x....             LDR.N    R0,??DataTable9_2
   \        0x8   0x8800             LDRH     R0,[R0, #+0]
   \        0xA   0xBD02             POP      {R1,PC}          ;; return
    297          }
    298          
    299          /////////////////////////////////////////////////////////////////////////////////////////
    300          /**
    301           \return    first two Bytes of ALEvent register (0x220)
    302          
    303           \brief  The SPI PDI requires an extra ESC read access functions from interrupts service routines.
    304                  The behaviour is equal to "HW_GetALEventRegister()"
    305          *////////////////////////////////////////////////////////////////////////////////////////
    306          /*ET9300 Project Handler :(#if _PIC18 && AL_EVENT_ENABLED) lines 682 to 686 deleted*/

   \                                 In section .text, align 2, keep-with-next
    307          UINT16 HW_GetALEventRegister_Isr(void)
    308          {
   \                     HW_GetALEventRegister_Isr: (+1)
   \        0x0   0xB580             PUSH     {R7,LR}
    309             ISR_GetInterruptRegister();
   \        0x2   0x.... 0x....      BL       ISR_GetInterruptRegister
    310             return luEscALEvent.wWord;
   \        0x6   0x....             LDR.N    R0,??DataTable9_2
   \        0x8   0x8800             LDRH     R0,[R0, #+0]
   \        0xA   0xBD02             POP      {R1,PC}          ;; return
    311          }
    312          
    313          
    314          /*ET9300 Project Handler :(#if UC_SET_ECAT_LED) lines 695 to 710 deleted*/
    315          /////////////////////////////////////////////////////////////////////////////////////////
    316          /**
    317           \param pData        Pointer to a byte array which holds data to write or saves read data.
    318           \param Address     EtherCAT ASIC address ( upper limit is 0x1FFF )    for access.
    319           \param Len            Access size in Bytes.
    320          
    321           \brief  This function operates the SPI read access to the EtherCAT ASIC.
    322          *////////////////////////////////////////////////////////////////////////////////////////

   \                                 In section .text, align 2, keep-with-next
    323          void HW_EscRead( MEM_ADDR_EC *pmData, UINT16 wAddress, UINT16 wLen )
    324          {
   \                     HW_EscRead: (+1)
   \        0x0   0xB5F8             PUSH     {R3-R7,LR}
   \        0x2   0x0006             MOVS     R6,R0
   \        0x4   0x000D             MOVS     R5,R1
   \        0x6   0x0017             MOVS     R7,R2
    325              UINT16 n         = wLen ;
    326          	UINT8 abData     = 0x00;
   \        0x8   0x2400             MOVS     R4,#+0
    327          	UINT8 *apTmpData = (UINT8 *)pmData;
   \        0xA   0xE016             B.N      ??HW_EscRead_0
    328          
    329          	/*address and command byte*/
    330          	/*deal with the queue to transmit*/
    331          	while ( (n--) > 0 )
    332          	{
    333                  USED_SPI_ETHERCAT_SELECT;
   \                     ??HW_EscRead_1: (+1)
   \        0xC   0x2010             MOVS     R0,#+16
   \        0xE   0x....             LDR.N    R1,??DataTable9  ;; 0x4002001a
   \       0x10   0x8008             STRH     R0,[R1, #+0]
    334          		AddressingEsc( wAddress, ESC_RD );
   \       0x12   0x2102             MOVS     R1,#+2
   \       0x14   0x0028             MOVS     R0,R5
   \       0x16   0xB280             UXTH     R0,R0            ;; ZeroExt  R0,R0,#+16,#+16
   \       0x18   0x.... 0x....      BL       AddressingEsc
    335          		if(n == 0)
   \       0x1C   0x0038             MOVS     R0,R7
   \       0x1E   0xB280             UXTH     R0,R0            ;; ZeroExt  R0,R0,#+16,#+16
   \       0x20   0x2800             CMP      R0,#+0
   \       0x22   0xD100             BNE.N    ??HW_EscRead_2
    336          		{
    337          			/* when reading the last byte the DI pin shall be 1 ,others 0*/
    338          			abData = 0xFFU;
   \       0x24   0x24FF             MOVS     R4,#+255
    339          		}
    340          		/* when reading the last byte the DI pin shall be 1 */
    341          		*apTmpData++ = gbIF_SPI_EtherCatReadWrite( abData );
   \                     ??HW_EscRead_2: (+1)
   \       0x26   0x0020             MOVS     R0,R4
   \       0x28   0xB2C0             UXTB     R0,R0            ;; ZeroExt  R0,R0,#+24,#+24
   \       0x2A   0x.... 0x....      BL       gbIF_SPI_EtherCatReadWrite
   \       0x2E   0x7030             STRB     R0,[R6, #+0]
   \       0x30   0x1C76             ADDS     R6,R6,#+1
    342          		wAddress++;
   \       0x32   0x1C6D             ADDS     R5,R5,#+1
    343                  USED_SPI_ETHERCAT_RELEASE;
   \       0x34   0x2010             MOVS     R0,#+16
   \       0x36   0x....             LDR.N    R1,??DataTable9_1  ;; 0x40020018
   \       0x38   0x8008             STRH     R0,[R1, #+0]
    344          	}
   \                     ??HW_EscRead_0: (+1)
   \       0x3A   0x0038             MOVS     R0,R7
   \       0x3C   0x1E47             SUBS     R7,R0,#+1
   \       0x3E   0xB280             UXTH     R0,R0            ;; ZeroExt  R0,R0,#+16,#+16
   \       0x40   0x2800             CMP      R0,#+0
   \       0x42   0xD1E3             BNE.N    ??HW_EscRead_1
    345          }
   \       0x44   0xBDF1             POP      {R0,R4-R7,PC}    ;; return
    346          
    347          /////////////////////////////////////////////////////////////////////////////////////////
    348          /**
    349           \param pData        Pointer to a byte array which holds data to write or saves read data.
    350           \param Address     EtherCAT ASIC address ( upper limit is 0x1FFF )    for access.
    351           \param Len            Access size in Bytes.
    352          
    353          \brief  The SPI PDI requires an extra ESC read access functions from interrupts service routines.
    354                  The behaviour is equal to "HW_EscRead()"
    355          *////////////////////////////////////////////////////////////////////////////////////////
    356          /*ET9300 Project Handler :(#if _PIC18 && AL_EVENT_ENABLED) lines 775 to 779 deleted*/

   \                                 In section .text, align 2, keep-with-next
    357          void HW_EscReadIsr( MEM_ADDR_EC *pmData, UINT16 wAddress, UINT16 wLen )
    358          {
   \                     HW_EscReadIsr: (+1)
   \        0x0   0xB570             PUSH     {R4-R6,LR}
   \        0x2   0x0004             MOVS     R4,R0
   \        0x4   0x0008             MOVS     R0,R1
   \        0x6   0x0015             MOVS     R5,R2
    359              UINT16 n         = wLen;
    360              UINT8 abData     = 0;
   \        0x8   0x2600             MOVS     R6,#+0
    361              UINT8 *apTmpData = (UINT8 *)pmData;
    362          
    363              USED_SPI_ETHERCAT_SELECT;
   \        0xA   0x2110             MOVS     R1,#+16
   \        0xC   0x....             LDR.N    R2,??DataTable9  ;; 0x4002001a
   \        0xE   0x8011             STRH     R1,[R2, #+0]
    364              /* send the address and command to the ESC */
    365               ISR_AddressingEsc( wAddress, ESC_RD );
   \       0x10   0x2102             MOVS     R1,#+2
   \       0x12   0xB280             UXTH     R0,R0            ;; ZeroExt  R0,R0,#+16,#+16
   \       0x14   0x.... 0x....      BL       ISR_AddressingEsc
   \       0x18   0xE00A             B.N      ??HW_EscReadIsr_0
    366              /* loop for all bytes to be read */
    367              while ( (n--) > 0 )
    368              {
    369                  if ( n == 0 )
   \                     ??HW_EscReadIsr_1: (+1)
   \       0x1A   0x0028             MOVS     R0,R5
   \       0x1C   0xB280             UXTH     R0,R0            ;; ZeroExt  R0,R0,#+16,#+16
   \       0x1E   0x2800             CMP      R0,#+0
   \       0x20   0xD100             BNE.N    ??HW_EscReadIsr_2
    370                  {
    371                      /* when reading the last byte the DI pin shall be 1 */
    372                      abData = 0xFFU;
   \       0x22   0x26FF             MOVS     R6,#+255
    373                  }
    374                  /* reset transmission flag */
    375          
    376                  *apTmpData++ = gbIF_SPI_EtherCatReadWrite( abData );
   \                     ??HW_EscReadIsr_2: (+1)
   \       0x24   0x0030             MOVS     R0,R6
   \       0x26   0xB2C0             UXTB     R0,R0            ;; ZeroExt  R0,R0,#+24,#+24
   \       0x28   0x.... 0x....      BL       gbIF_SPI_EtherCatReadWrite
   \       0x2C   0x7020             STRB     R0,[R4, #+0]
   \       0x2E   0x1C64             ADDS     R4,R4,#+1
    377          
    378              }
   \                     ??HW_EscReadIsr_0: (+1)
   \       0x30   0x0028             MOVS     R0,R5
   \       0x32   0x1E45             SUBS     R5,R0,#+1
   \       0x34   0xB280             UXTH     R0,R0            ;; ZeroExt  R0,R0,#+16,#+16
   \       0x36   0x2800             CMP      R0,#+0
   \       0x38   0xD1EF             BNE.N    ??HW_EscReadIsr_1
    379              /* reset transmission flag */
    380          
    381              /* there has to be at least 15 ns + CLK/2 after the transmission is finished
    382                 before the SPI1_SEL signal shall be 1 */
    383              USED_SPI_ETHERCAT_RELEASE;
   \       0x3A   0x2010             MOVS     R0,#+16
   \       0x3C   0x....             LDR.N    R1,??DataTable9_1  ;; 0x40020018
   \       0x3E   0x8008             STRH     R0,[R1, #+0]
    384          }
   \       0x40   0xBD70             POP      {R4-R6,PC}       ;; return
    385          
    386          /////////////////////////////////////////////////////////////////////////////////////////
    387          /**
    388           \param pData        Pointer to a byte array which holds data to write or saves write data.
    389           \param Address     EtherCAT ASIC address ( upper limit is 0x1FFF )    for access.
    390           \param Len            Access size in Bytes.
    391          
    392            \brief  This function operates the SPI write access to the EtherCAT ASIC.
    393          *////////////////////////////////////////////////////////////////////////////////////////

   \                                 In section .text, align 2, keep-with-next
    394          void HW_EscWrite( MEM_ADDR_EC *pData, UINT16 wAddress, UINT16 wLen )
    395          {
   \                     HW_EscWrite: (+1)
   \        0x0   0xB57C             PUSH     {R2-R6,LR}
   \        0x2   0x0005             MOVS     R5,R0
   \        0x4   0x000C             MOVS     R4,R1
   \        0x6   0x0016             MOVS     R6,R2
    396          	UINT16 n         = wLen ;
    397          	UINT8 *apTmpData = (UINT8 *)pData;
   \        0x8   0xE011             B.N      ??HW_EscWrite_0
    398          	VARVOLATILE UINT8 abDummy;
    399          
    400          	while( (n--) > 0 )
    401          	{
    402                  USED_SPI_ETHERCAT_SELECT;
   \                     ??HW_EscWrite_1: (+1)
   \        0xA   0x2010             MOVS     R0,#+16
   \        0xC   0x....             LDR.N    R1,??DataTable9  ;; 0x4002001a
   \        0xE   0x8008             STRH     R0,[R1, #+0]
    403          		AddressingEsc( wAddress, ESC_WR );
   \       0x10   0x2104             MOVS     R1,#+4
   \       0x12   0x0020             MOVS     R0,R4
   \       0x14   0xB280             UXTH     R0,R0            ;; ZeroExt  R0,R0,#+16,#+16
   \       0x16   0x.... 0x....      BL       AddressingEsc
    404          		abDummy = gbIF_SPI_EtherCatReadWrite( *apTmpData++ );
   \       0x1A   0x7828             LDRB     R0,[R5, #+0]
   \       0x1C   0x.... 0x....      BL       gbIF_SPI_EtherCatReadWrite
   \       0x20   0xF88D 0x0000      STRB     R0,[SP, #+0]
   \       0x24   0x1C6D             ADDS     R5,R5,#+1
    405                  USED_SPI_ETHERCAT_RELEASE;
   \       0x26   0x2010             MOVS     R0,#+16
   \       0x28   0x....             LDR.N    R1,??DataTable9_1  ;; 0x40020018
   \       0x2A   0x8008             STRH     R0,[R1, #+0]
    406          		wAddress++;
   \       0x2C   0x1C64             ADDS     R4,R4,#+1
    407          	}
   \                     ??HW_EscWrite_0: (+1)
   \       0x2E   0x0030             MOVS     R0,R6
   \       0x30   0x1E46             SUBS     R6,R0,#+1
   \       0x32   0xB280             UXTH     R0,R0            ;; ZeroExt  R0,R0,#+16,#+16
   \       0x34   0x2800             CMP      R0,#+0
   \       0x36   0xD1E8             BNE.N    ??HW_EscWrite_1
    408          }
   \       0x38   0xBD73             POP      {R0,R1,R4-R6,PC}  ;; return
    409          
    410          /////////////////////////////////////////////////////////////////////////////////////////
    411          /**
    412           \param pData        Pointer to a byte array which holds data to write or saves write data.
    413           \param Address     EtherCAT ASIC address ( upper limit is 0x1FFF )    for access.
    414           \param Len            Access size in Bytes.
    415          
    416           \brief  The SPI PDI requires an extra ESC write access functions from interrupts service routines.
    417                  The behaviour is equal to "HW_EscWrite()"
    418          *////////////////////////////////////////////////////////////////////////////////////////
    419          /*ET9300 Project Handler :(#if _PIC18 && AL_EVENT_ENABLED) lines 873 to 877 deleted*/

   \                                 In section .text, align 2, keep-with-next
    420          void HW_EscWriteIsr( MEM_ADDR_EC *pmData, UINT16 wAddress, UINT16 wLen )
    421          {
   \                     HW_EscWriteIsr: (+1)
   \        0x0   0xB538             PUSH     {R3-R5,LR}
   \        0x2   0x0004             MOVS     R4,R0
   \        0x4   0x0008             MOVS     R0,R1
   \        0x6   0x0015             MOVS     R5,R2
    422              UINT16 n         = wLen;
    423              UINT8 *apTmpData = (UINT8 *)pmData;
    424              VARVOLATILE UINT8 abDummy;
    425          
    426              USED_SPI_ETHERCAT_SELECT;
   \        0x8   0x2110             MOVS     R1,#+16
   \        0xA   0x....             LDR.N    R2,??DataTable9  ;; 0x4002001a
   \        0xC   0x8011             STRH     R1,[R2, #+0]
    427              /* send the address and command to the ESC */
    428               ISR_AddressingEsc( wAddress, ESC_WR );
   \        0xE   0x2104             MOVS     R1,#+4
   \       0x10   0xB280             UXTH     R0,R0            ;; ZeroExt  R0,R0,#+16,#+16
   \       0x12   0x.... 0x....      BL       ISR_AddressingEsc
   \       0x16   0xE005             B.N      ??HW_EscWriteIsr_0
    429              /* loop for all bytes to be written */
    430              while ( (n--) > 0 )
    431              {
    432                  abDummy = gbIF_SPI_EtherCatReadWrite( *apTmpData );
   \                     ??HW_EscWriteIsr_1: (+1)
   \       0x18   0x7820             LDRB     R0,[R4, #+0]
   \       0x1A   0x.... 0x....      BL       gbIF_SPI_EtherCatReadWrite
   \       0x1E   0xF88D 0x0000      STRB     R0,[SP, #+0]
    433                  apTmpData++;
   \       0x22   0x1C64             ADDS     R4,R4,#+1
    434              }
   \                     ??HW_EscWriteIsr_0: (+1)
   \       0x24   0x0028             MOVS     R0,R5
   \       0x26   0x1E45             SUBS     R5,R0,#+1
   \       0x28   0xB280             UXTH     R0,R0            ;; ZeroExt  R0,R0,#+16,#+16
   \       0x2A   0x2800             CMP      R0,#+0
   \       0x2C   0xD1F4             BNE.N    ??HW_EscWriteIsr_1
    435              /* reset transmission flag */
    436              USED_SPI_ETHERCAT_RELEASE;
   \       0x2E   0x2010             MOVS     R0,#+16
   \       0x30   0x....             LDR.N    R1,??DataTable9_1  ;; 0x40020018
   \       0x32   0x8008             STRH     R0,[R1, #+0]
    437          
    438              /* there has to be at least 15 ns + CLK/2 after the transmission is finished
    439                 before the SPI1_SEL signal shall be 1 */
    440          
    441          }
   \       0x34   0xBD31             POP      {R0,R4,R5,PC}    ;; return

   \                                 In section .text, align 4, keep-with-next
   \                     ??DataTable9:
   \        0x0   0x4002'001A        DC32     0x4002001a

   \                                 In section .text, align 4, keep-with-next
   \                     ??DataTable9_1:
   \        0x0   0x4002'0018        DC32     0x40020018

   \                                 In section .text, align 4, keep-with-next
   \                     ??DataTable9_2:
   \        0x0   0x....'....        DC32     luEscALEvent
    442          /***********************************************/
    443          /**********************functions*********************************************/
    444          
    445          /*ET9300 Project Handler :(#if BOOTSTRAPMODE_SUPPORTED) lines 911 to 920 deleted*/
    446          
    447          /*ET9300 Project Handler :(#if ESC_EEPROM_EMULATION) lines 922 to 934 deleted*/
    448          
    449          /////////////////////////////////////////////////////////////////////////////////////////
    450          /**
    451           \brief    Interrupt service routine for the PDI interrupt from the EtherCAT Slave Controller
    452          *////////////////////////////////////////////////////////////////////////////////////////
    453          
    454          /*ET9300 Project Handler :(#if _PIC18) lines 942 to 949 deleted*/
    455          //void __attribute__ ((__interrupt__, no_auto_psv)) EscIsr(void)
    456          //{
    457              // PDI_Isr();
    458          
    459              /* reset the interrupt flag */
    460              //ACK_ESC_INT;
    461          //}
    462          
    463          
    464          
    465          /*ET9300 Project Handler :(#if DC_SUPPORTED) lines 962 to 985 deleted*/
    466          
    467          /*ET9300 Project Handler :(#if _PIC24 && ECAT_TIMER_INT) lines 987 to 995 deleted*/
    468          
    469          /** @} */
    470          
    471          

   Maximum stack usage in bytes:

   .cstack Function
   ------- --------
      16   AddressingEsc
        16   -> gbIF_SPI_EtherCatReadWrite
      16   GetInterruptRegister
        16   -> lvcbIF_ESC_GetDatas
      24   HW_EscRead
        24   -> AddressingEsc
        24   -> gbIF_SPI_EtherCatReadWrite
      16   HW_EscReadIsr
        16   -> ISR_AddressingEsc
        16   -> gbIF_SPI_EtherCatReadWrite
      24   HW_EscWrite
        24   -> AddressingEsc
        24   -> gbIF_SPI_EtherCatReadWrite
      16   HW_EscWriteIsr
        16   -> ISR_AddressingEsc
        16   -> gbIF_SPI_EtherCatReadWrite
       8   HW_GetALEventRegister
         8   -> GetInterruptRegister
       8   HW_GetALEventRegister_Isr
         8   -> ISR_GetInterruptRegister
       0   HW_Release
       8   ISR_AddressingEsc
         8   -> gbIF_SPI_EtherCatReadWrite
       8   ISR_GetInterruptRegister
         8   -> lvcbIF_ESC_GetDatas
      24   lvcbIF_ESC_GetDatas
        24   -> gbIF_SPI_EtherCatReadWrite


   Section sizes:

   Bytes  Function/Label
   -----  --------------
       4  ??DataTable9
       4  ??DataTable9_1
       4  ??DataTable9_2
      36  AddressingEsc
      46  GetInterruptRegister
      70  HW_EscRead
      66  HW_EscReadIsr
      58  HW_EscWrite
      54  HW_EscWriteIsr
      12  HW_GetALEventRegister
      12  HW_GetALEventRegister_Isr
       2  HW_Release
      38  ISR_AddressingEsc
      42  ISR_GetInterruptRegister
       2  luEscALEvent
      66  lvcbIF_ESC_GetDatas

 
   2 bytes in section .bss
 514 bytes in section .text
 
 514 bytes of CODE memory
   2 bytes of DATA memory

Errors: none
Warnings: 1
