###############################################################################
#
# IAR ANSI C/C++ Compiler V8.30.1.114/W32 for ARM         24/Aug/2021  18:50:00
# Copyright 1999-2018 IAR Systems AB.
#
#    Cpu mode     =  thumb
#    Endian       =  little
#    Source file  =  
#        C:\Users\wanji\Desktop\ROBOT\ROBOT_F4\F4_Robot002Display_SBUS
#        @2021-06-11@\SourceCodes\IF_Flash.c
#    Command line =  
#        -f C:\Users\wanji\AppData\Local\Temp\EW83BC.tmp
#        ("C:\Users\wanji\Desktop\ROBOT\ROBOT_F4\F4_Robot002Display_SBUS
#        @2021-06-11@\SourceCodes\IF_Flash.c" -D STM32F40_41xxx -D
#        USE_STDPERIPH_DRIVER -lcN
#        "C:\Users\wanji\Desktop\ROBOT\ROBOT_F4\F4_Robot002Display_SBUS
#        @2021-06-11@\Project\IAR\Debug\List" --diag_suppress pa182 -o
#        "C:\Users\wanji\Desktop\ROBOT\ROBOT_F4\F4_Robot002Display_SBUS
#        @2021-06-11@\Project\IAR\Debug\Obj" --no_cse --no_unroll
#        --no_inline --no_code_motion --no_tbaa --no_clustering --no_scheduling
#        --debug --endian=little --cpu=Cortex-M4 -e --fpu=VFPv4_sp
#        --dlib_config "C:\Program Files (x86)\IAR Systems\Embedded Workbench
#        8.1\arm\inc\c\DLib_Config_Full.h" -I
#        "C:\Users\wanji\Desktop\ROBOT\ROBOT_F4\F4_Robot002Display_SBUS
#        @2021-06-11@\Project\IAR\" -I
#        "C:\Users\wanji\Desktop\ROBOT\ROBOT_F4\F4_Robot002Display_SBUS
#        @2021-06-11@\Project\IAR\..\..\DBUSART_Source\" -I
#        "C:\Users\wanji\Desktop\ROBOT\ROBOT_F4\F4_Robot002Display_SBUS
#        @2021-06-11@\Project\IAR\..\..\STM32F4xx_DSP_StdPeriph_Lib_V1.8.0\Libraries\CMSIS\Include\"
#        -I "C:\Users\wanji\Desktop\ROBOT\ROBOT_F4\F4_Robot002Display_SBUS
#        @2021-06-11@\Project\IAR\..\..\STM32F4xx_DSP_StdPeriph_Lib_V1.8.0\Libraries\CMSIS\Device\ST\STM32F4xx\Include\"
#        -I "C:\Users\wanji\Desktop\ROBOT\ROBOT_F4\F4_Robot002Display_SBUS
#        @2021-06-11@\Project\IAR\..\..\STM32F4xx_DSP_StdPeriph_Lib_V1.8.0\Libraries\STM32F4xx_StdPeriph_Driver\inc\"
#        -I "C:\Users\wanji\Desktop\ROBOT\ROBOT_F4\F4_Robot002Display_SBUS
#        @2021-06-11@\Project\IAR\..\..\SourceCodes\" -Ol --use_c++_inline)
#    Locale       =  C
#    List file    =  
#        C:\Users\wanji\Desktop\ROBOT\ROBOT_F4\F4_Robot002Display_SBUS
#        @2021-06-11@\Project\IAR\Debug\List\IF_Flash.lst
#    Object file  =  
#        C:\Users\wanji\Desktop\ROBOT\ROBOT_F4\F4_Robot002Display_SBUS
#        @2021-06-11@\Project\IAR\Debug\Obj\IF_Flash.o
#
###############################################################################

C:\Users\wanji\Desktop\ROBOT\ROBOT_F4\F4_Robot002Display_SBUS @2021-06-11@\SourceCodes\IF_Flash.c
      1          /*=====================================================================
      2           * File name     :  IF_Flash.c
      3           * Description   :  Communication interfacce for Flash module.
      4           * Author        :  Fu
      5           * Date          :  2019-5-8
      6           * History       :  Date:           Author:      
      7                              Modification:
      8           * More          :
      9           *=====================================================================
     10           */
     11          
     12          #include "IF_Flash.h"
     13          #include "IF_Timer.h"
     14             
     15          local void lvIIC_Start(void);
     16          local void lvIIC_Stop(void);
     17          local uint8_t lbIIC_Wait_Ack(void);
     18          local void lvIIC_Ack(void);
     19          local void lvIIC_NAck(void);
     20          local void lvIIC_Send_Byte(uint8_t txd);
     21          local uint8_t lbIIC_Read_Byte(unsigned char ack);
     22          
     23          //产生IIC起始信号
     24          local void lvIIC_Start(void)
     25          {
     26          	FLASH_SDA_OUT();     //sda线输出
     27              
     28          	FLASH_IIC_SDA=1;	  	  
     29          	FLASH_IIC_SCL=1;
     30          	gvIF_TimerBlockingDelayUs(5);
     31              
     32           	FLASH_IIC_SDA=0;//START:when CLK is high,DATA change form high to low 
     33          	gvIF_TimerBlockingDelayUs(5);
     34              
     35          	FLASH_IIC_SCL=0;//钳住I2C总线，准备发送或接收数据 
     36          }	  
     37          
     38          //产生IIC停止信号
     39          local void lvIIC_Stop(void)
     40          {
     41          	FLASH_SDA_OUT();//sda线输出
     42              
     43          	FLASH_IIC_SCL=0;
     44          	FLASH_IIC_SDA=0;//STOP:when CLK is high DATA change form low to high
     45           	gvIF_TimerBlockingDelayUs(5);
     46              
     47          	FLASH_IIC_SCL=1; 
     48          	FLASH_IIC_SDA=1;//发送I2C总线结束信号
     49          	gvIF_TimerBlockingDelayUs(5);							   	
     50          }
     51          
     52          //等待应答信号到来
     53          //返回值：1，接收应答失败
     54          //        0，接收应答成功
     55          local uint8_t lbIIC_Wait_Ack(void)
     56          {
     57          	uint8_t ucErrTime=0;
     58              
     59          	FLASH_SDA_IN();      //SDA设置为输入 
     60                 
     61          //	FLASH_IIC_SDA=1;
     62          //	gvIF_TimerBlockingDelayUs(5);
     63          //    
     64          //	while(FLASH_READ_SDA)
     65          //	{
     66          //		ucErrTime++;
     67          //		if(ucErrTime>50)//250
     68          //		{
     69          //			lvIIC_Stop();
     70          //			return 1;
     71          //		}
     72          //        gvIF_TimerBlockingDelayUs(5);
     73          //	}
     74          //    
     75          //    FLASH_IIC_SCL=1; 
     76          //    gvIF_TimerBlockingDelayUs(5);
     77          //    FLASH_IIC_SCL=0; 
     78          //    
     79          //	return 0;  
     80              
     81              FLASH_IIC_SCL=0;
     82          	gvIF_TimerBlockingDelayUs(5);
     83              FLASH_IIC_SCL=1;
     84              
     85          	while(FLASH_READ_SDA)
     86          	{
     87          		ucErrTime++;
     88          		if(ucErrTime>50)//250
     89          		{
     90          			lvIIC_Stop();
     91          			return 1;
     92          		}
     93                  gvIF_TimerBlockingDelayUs(5);
     94          	}
     95              
     96              gvIF_TimerBlockingDelayUs(5);
     97              FLASH_IIC_SCL=0; 
     98              FLASH_IIC_SDA=0;
     99              
    100          	return 0;  
    101          } 
    102          
    103          //产生ACK应答
    104          local void lvIIC_Ack(void)
    105          {
    106          	FLASH_SDA_OUT();
    107              
    108              FLASH_IIC_SCL=0;
    109          	FLASH_IIC_SDA=0;
    110          	gvIF_TimerBlockingDelayUs(5);
    111              
    112          	FLASH_IIC_SCL=1;
    113          	gvIF_TimerBlockingDelayUs(5);
    114              
    115          	FLASH_IIC_SCL=0;
    116              FLASH_IIC_SDA=1;
    117          }
    118          
    119          //不产生ACK应答		    
    120          local void lvIIC_NAck(void)
    121          {
    122          	FLASH_SDA_OUT();
    123              
    124              FLASH_IIC_SCL=0;
    125          	FLASH_IIC_SDA=1;
    126          	gvIF_TimerBlockingDelayUs(5);
    127              
    128          	FLASH_IIC_SCL=1;
    129          	gvIF_TimerBlockingDelayUs(5);
    130              
    131          	FLASH_IIC_SCL=0;
    132              FLASH_IIC_SDA=1;
    133          }	
    134          
    135          //IIC发送一个字节
    136          //返回从机有无应答
    137          //1，有应答
    138          //0，无应答			  
    139          local void lvIIC_Send_Byte(uint8_t txd)
    140          {                        
    141              uint8_t t; 
    142              
    143          	FLASH_SDA_OUT(); 
    144              
    145              FLASH_IIC_SCL=0;//拉低时钟开始数据传输
    146              for(t=0;t<8;t++)
    147              {              
    148                  //FLASH_IIC_SCL=0;//拉低时钟开始数据传输
    149                  
    150                  FLASH_IIC_SDA=(txd&0x80)>>7;
    151                  txd<<=1; 
    152          		gvIF_TimerBlockingDelayUs(2);   //对TEA5767这三个延时都是必须的
    153                  
    154          		FLASH_IIC_SCL=1;
    155          		gvIF_TimerBlockingDelayUs(5); 
    156                  
    157          		FLASH_IIC_SCL=0;	
    158          		gvIF_TimerBlockingDelayUs(3);
    159              }	 
    160          } 	    
    161          //读1个字节，ack=1时，发送ACK，ack=0，发送nACK   
    162          local uint8_t lbIIC_Read_Byte(unsigned char ack)
    163          {
    164          	unsigned char i,receive=0;
    165              
    166          	FLASH_SDA_IN();//SDA设置为输入
    167              
    168              for(i=0;i<8;i++ )
    169          	{
    170                  FLASH_IIC_SCL=0; 
    171                  gvIF_TimerBlockingDelayUs(5);
    172          		FLASH_IIC_SCL=1;
    173                  
    174                  receive<<=1;
    175                  if(FLASH_READ_SDA)receive++;   
    176          		gvIF_TimerBlockingDelayUs(5);
    177                  
    178              }					 
    179              if (!ack)
    180                  lvIIC_NAck();//发送nACK
    181              else
    182                  lvIIC_Ack(); //发送ACK   
    183              return receive;
    184          }
    185          
    186          //在AT24CXX指定地址读出一个数据
    187          //ReadAddr:开始读数的地址  
    188          //返回值  :读到的数据
    189          uint8_t AT24CXX_ReadOneByte(uint16_t ReadAddr)
    190          {			
    191              uint8_t ask;
    192          	uint8_t temp=0;		  	    																 
    193              lvIIC_Start();  
    194              lvIIC_Send_Byte(WRITE_ADDR);  
    195              ask = lbIIC_Wait_Ack();	 
    196              if(ask == 1){
    197          		return 0;
    198          	}
    199              
    200              lvIIC_Send_Byte(ReadAddr);   //发送低地址
    201          	ask = lbIIC_Wait_Ack();	 
    202              if(ask == 1){
    203          		return 0;
    204          	}
    205              
    206          	lvIIC_Start();  	 	   
    207          	lvIIC_Send_Byte(0xA1);           //进入接收模式			   
    208          	ask = lbIIC_Wait_Ack();	 
    209              if(ask == 1){
    210          		return 0;
    211          	}
    212              
    213              temp=lbIIC_Read_Byte(0);	
    214              lvIIC_NAck();//发送nACK
    215              
    216              lvIIC_Stop();//产生一个停止条件	    
    217          	return temp;
    218          }
    219          //在AT24CXX指定地址写入一个数据
    220          //WriteAddr  :写入数据的目的地址    
    221          //DataToWrite:要写入的数据
    222          void AT24CXX_WriteOneByte(uint16_t WriteAddr,uint8_t DataToWrite)
    223          {			
    224              uint8_t ask;
    225              
    226              lvIIC_Start();  
    227          	lvIIC_Send_Byte(0XA0);   //发送器件地址0XA0,写数据
    228          	ask = lbIIC_Wait_Ack();	 
    229              if(ask == 1){
    230          		return ;
    231          	}
    232              
    233              lvIIC_Send_Byte(WriteAddr);   //发送低地址
    234              ask = lbIIC_Wait_Ack();	 
    235              if(ask == 1){
    236          		return ;
    237          	}
    238              
    239          	lvIIC_Send_Byte(DataToWrite);     //发送字节							   	
    240              ask = lbIIC_Wait_Ack();	 
    241              if(ask == 1){
    242          		return ;
    243          	}
    244              
    245              lvIIC_Stop();//产生一个停止条件
    246              gvIF_TimerBlockingDelayMs(10);
    247          }
    248          //在AT24CXX里面的指定地址开始写入长度为Len的数据
    249          //该函数用于写入16bit或者32bit的数据.
    250          //WriteAddr  :开始写入的地址  
    251          //DataToWrite:数据数组首地址
    252          //Len        :要写入数据的长度2,4
    253          void AT24CXX_WriteLenByte(uint16_t WriteAddr,uint32_t DataToWrite,uint8_t Len)
    254          {  	
    255          	uint8_t t;
    256          	for(t=0;t<Len;t++)
    257          	{
    258          		AT24CXX_WriteOneByte(WriteAddr+t,(DataToWrite>>(8*t))&0xff);
    259          	}												    
    260          }
    261          
    262          //在AT24CXX里面的指定地址开始读出长度为Len的数据
    263          //该函数用于读出16bit或者32bit的数据.
    264          //ReadAddr   :开始读出的地址 
    265          //返回值     :数据
    266          //Len        :要读出数据的长度2,4
    267          uint32_t AT24CXX_ReadLenByte(uint16_t ReadAddr,uint8_t Len)
    268          {  	
    269          	uint8_t t;
    270          	uint32_t temp=0;
    271          	for(t=0;t<Len;t++)
    272          	{
    273          		temp<<=8;
    274          		temp+=AT24CXX_ReadOneByte(ReadAddr+Len-t-1); 	 				   
    275          	}
    276          	return temp;												    
    277          }
    278          //检查AT24CXX是否正常
    279          //这里用了24XX的最后一个地址(255)来存储标志字.
    280          //如果用其他24C系列,这个地址要修改
    281          //返回1:检测失败
    282          //返回0:检测成功
    283          uint8_t AT24CXX_Check(void)
    284          {
    285          	uint8_t temp;
    286          	temp=AT24CXX_ReadOneByte(255);//避免每次开机都写AT24CXX			   
    287          	if(temp==0X55)return 0;		   
    288          	else//排除第一次初始化的情况
    289          	{
    290                  AT24CXX_WriteOneByte(255,0X55);
    291          	    temp=AT24CXX_ReadOneByte(255);	  
    292          		if(temp==0X55)return 0;
    293          	}
    294          	return 1;											  
    295          }
    296          
    297          //在AT24CXX里面的指定地址开始读出指定个数的数据
    298          //ReadAddr :开始读出的地址 对24c02为0~255
    299          //pBuffer  :数据数组首地址
    300          //NumToRead:要读出数据的个数
    301          //void AT24CXX_Read(uint16_t ReadAddr,uint8_t *pBuffer,uint16_t NumToRead)
    302          global void FLASH_ReadNWord(uint8_t* pBuffer, uint16_t ReadAddr, uint16_t NumToRead)
    303          {
    304          	while(NumToRead)
    305          	{
    306          		*pBuffer++=AT24CXX_ReadOneByte(ReadAddr++);	
    307          		NumToRead--;
    308          	}
    309          }  
    310          //在AT24CXX里面的指定地址开始写入指定个数的数据
    311          //WriteAddr :开始写入的地址 对24c02为0~255
    312          //pBuffer   :数据数组首地址
    313          //NumToWrite:要写入数据的个数
    314          //void AT24CXX_Write(uint16_t WriteAddr,uint8_t *pBuffer,uint16_t NumToWrite)
    315          global void FLASH_WriteNWord(uint8_t* pBuffer, uint16_t WriteAddr, uint16_t NumToWrite)
    316          {
    317          	while(NumToWrite--)
    318          	{
    319          		AT24CXX_WriteOneByte(WriteAddr,*pBuffer);
    320          		WriteAddr++;
    321          		pBuffer++;
    322          	}
    323          }
    324          
    325          

   Maximum stack usage in bytes:

   .cstack Function
   ------- --------
       8   AT24CXX_Check
         8   -> AT24CXX_ReadOneByte
         8   -> AT24CXX_WriteOneByte
      24   AT24CXX_ReadLenByte
        24   -> AT24CXX_ReadOneByte
       8   AT24CXX_ReadOneByte
         8   -> lbIIC_Read_Byte
         8   -> lbIIC_Wait_Ack
         8   -> lvIIC_NAck
         8   -> lvIIC_Send_Byte
         8   -> lvIIC_Start
         8   -> lvIIC_Stop
      24   AT24CXX_WriteLenByte
        24   -> AT24CXX_WriteOneByte
      16   AT24CXX_WriteOneByte
        16   -> gvIF_TimerBlockingDelayMs
        16   -> lbIIC_Wait_Ack
        16   -> lvIIC_Send_Byte
        16   -> lvIIC_Start
        16   -> lvIIC_Stop
      16   FLASH_ReadNWord
        16   -> AT24CXX_ReadOneByte
      16   FLASH_WriteNWord
        16   -> AT24CXX_WriteOneByte
      24   lbIIC_Read_Byte
        24   -> gvIF_TimerBlockingDelayUs
        24   -> lvIIC_Ack
        24   -> lvIIC_NAck
      16   lbIIC_Wait_Ack
        16   -> gvIF_TimerBlockingDelayUs
        16   -> lvIIC_Stop
      16   lvIIC_Ack
        16   -> gvIF_TimerBlockingDelayUs
      16   lvIIC_NAck
        16   -> gvIF_TimerBlockingDelayUs
      16   lvIIC_Send_Byte
        16   -> gvIF_TimerBlockingDelayUs
      16   lvIIC_Start
        16   -> gvIF_TimerBlockingDelayUs
      16   lvIIC_Stop
        16   -> gvIF_TimerBlockingDelayUs


   Section sizes:

   Bytes  Function/Label
   -----  --------------
       4  ??DataTable6
       4  ??DataTable6_1
       4  ??DataTable6_2
       4  ??DataTable6_3
      46  AT24CXX_Check
      54  AT24CXX_ReadLenByte
      98  AT24CXX_ReadOneByte
      48  AT24CXX_WriteLenByte
      74  AT24CXX_WriteOneByte
      36  FLASH_ReadNWord
      36  FLASH_WriteNWord
      90  lbIIC_Read_Byte
      88  lbIIC_Wait_Ack
      58  lvIIC_Ack
      58  lvIIC_NAck
      84  lvIIC_Send_Byte
      54  lvIIC_Start
      54  lvIIC_Stop

 
 894 bytes in section .text
 
 894 bytes of CODE memory

Errors: none
Warnings: none
