###############################################################################
#
# IAR ANSI C/C++ Compiler V8.30.1.114/W32 for ARM         24/Aug/2021  19:19:28
# Copyright 1999-2018 IAR Systems AB.
#
#    Cpu mode     =  thumb
#    Endian       =  little
#    Source file  =  
#        C:\Users\wanji\Desktop\ROBOT\ROBOT_F4\F4_Robot002Display_SBUS
#        @2021-06-11@\SourceCodes\IF_Motor.c
#    Command line =  
#        -f C:\Users\wanji\AppData\Local\Temp\EW7EB2.tmp
#        ("C:\Users\wanji\Desktop\ROBOT\ROBOT_F4\F4_Robot002Display_SBUS
#        @2021-06-11@\SourceCodes\IF_Motor.c" -D STM32F40_41xxx -D
#        USE_STDPERIPH_DRIVER -lcN
#        "C:\Users\wanji\Desktop\ROBOT\ROBOT_F4\F4_Robot002Display_SBUS
#        @2021-06-11@\Project\IAR\Debug\List" --diag_suppress pa182 -o
#        "C:\Users\wanji\Desktop\ROBOT\ROBOT_F4\F4_Robot002Display_SBUS
#        @2021-06-11@\Project\IAR\Debug\Obj" --no_cse --no_unroll
#        --no_inline --no_code_motion --no_tbaa --no_clustering --no_scheduling
#        --debug --endian=little --cpu=Cortex-M4 -e --fpu=VFPv4_sp
#        --dlib_config "C:\Program Files (x86)\IAR Systems\Embedded Workbench
#        8.1\arm\inc\c\DLib_Config_Full.h" -I
#        "C:\Users\wanji\Desktop\ROBOT\ROBOT_F4\F4_Robot002Display_SBUS
#        @2021-06-11@\Project\IAR\" -I
#        "C:\Users\wanji\Desktop\ROBOT\ROBOT_F4\F4_Robot002Display_SBUS
#        @2021-06-11@\Project\IAR\..\..\DBUSART_Source\" -I
#        "C:\Users\wanji\Desktop\ROBOT\ROBOT_F4\F4_Robot002Display_SBUS
#        @2021-06-11@\Project\IAR\..\..\STM32F4xx_DSP_StdPeriph_Lib_V1.8.0\Libraries\CMSIS\Include\"
#        -I "C:\Users\wanji\Desktop\ROBOT\ROBOT_F4\F4_Robot002Display_SBUS
#        @2021-06-11@\Project\IAR\..\..\STM32F4xx_DSP_StdPeriph_Lib_V1.8.0\Libraries\CMSIS\Device\ST\STM32F4xx\Include\"
#        -I "C:\Users\wanji\Desktop\ROBOT\ROBOT_F4\F4_Robot002Display_SBUS
#        @2021-06-11@\Project\IAR\..\..\STM32F4xx_DSP_StdPeriph_Lib_V1.8.0\Libraries\STM32F4xx_StdPeriph_Driver\inc\"
#        -I "C:\Users\wanji\Desktop\ROBOT\ROBOT_F4\F4_Robot002Display_SBUS
#        @2021-06-11@\Project\IAR\..\..\SourceCodes\" -Ol --use_c++_inline)
#    Locale       =  C
#    List file    =  
#        C:\Users\wanji\Desktop\ROBOT\ROBOT_F4\F4_Robot002Display_SBUS
#        @2021-06-11@\Project\IAR\Debug\List\IF_Motor.lst
#    Object file  =  
#        C:\Users\wanji\Desktop\ROBOT\ROBOT_F4\F4_Robot002Display_SBUS
#        @2021-06-11@\Project\IAR\Debug\Obj\IF_Motor.o
#
###############################################################################

C:\Users\wanji\Desktop\ROBOT\ROBOT_F4\F4_Robot002Display_SBUS @2021-06-11@\SourceCodes\IF_Motor.c
      1          /*=====================================================================
      2           * File name     :  IF_Motor.h
      3           * Description   :  Interface for pwm module.
      4           * Author        :  Fu
      5           * Date          :  2019-4-22
      6           * History       :  Date:           Author:      
      7                              Modification:
      8           * More          :
      9           *=====================================================================
     10           */
     11          
     12          #include "IF_Motor.h"
     13          #include "IF_System.h"
     14          #include "IF_Timer.h"
     15          #include "Task_Common.h"
     16          #include "stm32f4xx.h"
     17          #include "Task_DCMotor.h"
     18          #include "DEBUG.h"
     19          #include "IF_UCom.h"
     20          #include <stdlib.h>
     21          #include <math.h>
     22          
     23          enum PWM_CHN_e{
     24          	ePWM_CH0 	= 0U,
     25          	ePWM_CH1,
     26          	ePWM_CH2,
     27          	ePWM_CH3,
     28          	ePWM_CH4,
     29          	ePWM_CH5,
     30          
     31          	ePWM_CH_MAX
     32          };
     33          
     34          local void lvIF_MotorDelay(uint16_t count);
     35          
     36          /*****************************************************************
     37          * 功能： 定时器1产生PWM波(频率 = pfreq / (psc+1))      
     38          * 说明: channel1,  channel2  --> PE.E9, PE.11, PE.13, PE.14
     39          *       TimerPeriod          --> 自动重装载周期值
     40          *       ChannelxPulse        --> 占空周期值
     41          *****************************************************************/
     42          
     43          global void gvIF_EPWMInit( void )
     44          {
     45              uint16_t awTimerPeriod = 0;
     46              
     47              TIM_TimeBaseInitTypeDef     TIM_TimeBaseStructure;
     48              TIM_OCInitTypeDef           TIM_OCInitStructure;
     49              
     50              TIM_TimeBaseInitTypeDef     *pTIM_Time1;
     51              TIM_TimeBaseInitTypeDef     *pTIM_Time4;
     52              
     53              TIM_OCInitTypeDef           *pTIM_OC1;
     54              TIM_OCInitTypeDef           *pTIM_OC4;
     55              
     56              pTIM_OC1         = &TIM_OCInitStructure;
     57              pTIM_OC4         = &TIM_OCInitStructure;
     58              
     59              pTIM_Time1      = &TIM_TimeBaseStructure;
     60              pTIM_Time4       = &TIM_TimeBaseStructure;
     61              
     62              TIM_DeInit(TIM1);
     63              TIM_DeInit(TIM4);
     64              
     65              RCC_APB2PeriphClockCmd(RCC_APB2Periph_TIM1,ENABLE);
     66          
     67              awTimerPeriod = (uint16_t)(SystemCoreClock / 50000);	//*< SystemCoreClock / 50000 = 3360 16800 6720  3000	  4096
     68              
     69              pTIM_Time1->TIM_Prescaler = (2-1);													
     70              pTIM_Time1->TIM_CounterMode = TIM_CounterMode_Up;					
     71              pTIM_Time1->TIM_Period = awTimerPeriod;											
     72              pTIM_Time1->TIM_ClockDivision = 0;												
     73              pTIM_Time1->TIM_RepetitionCounter = 0;									
     74              
     75              TIM_TimeBaseInit(TIM1, pTIM_Time1);
     76          
     77              pTIM_OC1->TIM_OCMode = TIM_OCMode_PWM2;			
     78              pTIM_OC1->TIM_OutputState = TIM_OutputState_Enable;										
     79              pTIM_OC1->TIM_OutputNState = TIM_OutputNState_Disable;									
     80              pTIM_OC1->TIM_Pulse = awTimerPeriod - 1;
     81              pTIM_OC1->TIM_OCPolarity = TIM_OCPolarity_Low;		
     82              pTIM_OC1->TIM_OCNPolarity = TIM_OCNPolarity_High;											
     83              pTIM_OC1->TIM_OCIdleState = TIM_OCNIdleState_Reset;											
     84              pTIM_OC1->TIM_OCNIdleState = TIM_OCNIdleState_Reset;//这句话很关键，在空闲的时候应该置低，防止烧写程序时运行	
     85              
     86              TIM_OC1Init(TIM1, pTIM_OC1);
     87              TIM_OC2Init(TIM1, pTIM_OC1);
     88              TIM_OC3Init(TIM1, pTIM_OC1);
     89              TIM_OC4Init(TIM1, pTIM_OC1);
     90              
     91              TIM_OC1PreloadConfig(TIM1, TIM_OCPreload_Enable);
     92              TIM_OC2PreloadConfig(TIM1, TIM_OCPreload_Enable);
     93              TIM_OC3PreloadConfig(TIM1, TIM_OCPreload_Enable);
     94              TIM_OC4PreloadConfig(TIM1, TIM_OCPreload_Enable);
     95              
     96              TIM_ARRPreloadConfig(TIM1, ENABLE);
     97              TIM_CtrlPWMOutputs(TIM1, ENABLE);
     98              TIM_Cmd(TIM1, ENABLE);
     99              
    100              RCC_APB1PeriphClockCmd(RCC_APB1Periph_TIM4,ENABLE);
    101              
    102              pTIM_Time4->TIM_Prescaler = (1-1);													
    103              pTIM_Time4->TIM_CounterMode = TIM_CounterMode_Up;					
    104              pTIM_Time4->TIM_Period = awTimerPeriod;											
    105              pTIM_Time4->TIM_ClockDivision = 0;												
    106              pTIM_Time4->TIM_RepetitionCounter = 0;	
    107              TIM_TimeBaseInit(TIM4, pTIM_Time4);
    108          
    109              pTIM_OC4->TIM_OCMode = TIM_OCMode_PWM2;			
    110              pTIM_OC4->TIM_OutputState = TIM_OutputState_Enable;																		
    111              pTIM_OC4->TIM_Pulse = awTimerPeriod - 1;
    112              pTIM_OC4->TIM_OCPolarity = TIM_OCPolarity_Low;												
    113              pTIM_OC4->TIM_OCIdleState = TIM_OCNIdleState_Reset;											
    114              
    115              TIM_OC1Init(TIM4, pTIM_OC4);
    116              TIM_OC2Init(TIM4, pTIM_OC4);
    117              TIM_OC3Init(TIM4, pTIM_OC4);
    118              TIM_OC4Init(TIM4, pTIM_OC4);
    119              
    120              TIM_OC1PreloadConfig(TIM4, TIM_OCPreload_Enable);
    121              TIM_OC2PreloadConfig(TIM4, TIM_OCPreload_Enable);
    122              TIM_OC3PreloadConfig(TIM4, TIM_OCPreload_Enable);
    123              TIM_OC4PreloadConfig(TIM4, TIM_OCPreload_Enable);
    124              
    125              TIM_ARRPreloadConfig(TIM4, ENABLE);
    126              TIM_CtrlPWMOutputs(TIM4, ENABLE);
    127              TIM_Cmd(TIM4, ENABLE);
    128          }
    129          
    130          /*****************************************************************
    131          * 功能： 定时器1产生PWM波(频率 = pfreq / (psc+1))      直行！
    132          * 说明: channel1,  channel2  --> 
    133          *       channel3, channel4 --> 
    134          *       TimerPeriod          --> 自动重装载周期值
    135          *       ChannelxPulse        --> 占空周期值
    136          *****************************************************************/
    137          
    138          global void gvIF_EPWMDirInit( uint8_t Ch1Val, uint8_t Ch2Val, uint8_t Ch3Val, uint8_t Ch4Val )
    139          {
    140              TIM_SetCompare1(TIM1, (uint16_t)(Ch1Val * DM_GATE));//2.879
    141              TIM_SetCompare2(TIM1, (uint16_t)(Ch2Val * DM_GATE));
    142              TIM_SetCompare3(TIM1, (uint16_t)(Ch3Val * DM_GATE));
    143              TIM_SetCompare4(TIM1, (uint16_t)(Ch4Val * DM_GATE));
    144          }
    145          
    146          global void gdwIF_EPWMSetBrushMotor( uint8_t Ch1Val, uint8_t Ch2Val, uint8_t Ch3Val, uint8_t Ch4Val )
    147          {
    148              TIM_SetCompare1(TIM4, (uint16_t)(Ch1Val * DM_GATE));//M2
    149              TIM_SetCompare2(TIM4, (uint16_t)(Ch2Val * DM_GATE));
    150              TIM_SetCompare3(TIM4, (uint16_t)(Ch3Val * DM_GATE));//M1
    151              TIM_SetCompare4(TIM4, (uint16_t)(Ch4Val * DM_GATE));
    152          }
    153          
    154          global void gvIF_MotrorStop()
    155          {
    156              gvIF_EPWMDirInit(DM_PULSE_MAX,DM_PULSE_MAX,DM_PULSE_MAX,DM_PULSE_MAX);
    157              gdwIF_EPWMSetBrushMotor(0,0,0,0);
    158              MOTOR_STOP;
    159          }
    160          
    161          global void gvIF_MotrorStart()
    162          {
    163              MOTOR_START;
    164          }
    165          
    166          global uint16_t gwIF_SPISendByte_A(uint16_t data)  
    167          {  
    168              uint8_t i=0;  
    169              uint16_t temp=0;
    170          	
    171              CS_H_A;
    172              
    173              for(i=16;i>0;i--)  
    174              {
    175                  lvIF_MotorDelay(SPI_DELAY);
    176                  SCLK_L_A;	
    177                  lvIF_MotorDelay(SPI_DELAY);//CLK置0
    178                  
    179                  if(data&0x8000)				//开始传输，从最高位开始传
    180                      MOSI_H_A;  
    181                  else 
    182                      MOSI_L_A; 
    183                  
    184                  data<<=1;
    185                  lvIF_MotorDelay(SPI_DELAY);
    186                  SCLK_H_A;
    187                  lvIF_MotorDelay(SPI_DELAY);//CLK置1
    188                  temp<<=1; 
    189                  
    190                  if(MISO_A)
    191                      temp++;
    192                  else
    193                    ;
    194              }
    195              lvIF_MotorDelay(SPI_DELAY);
    196              CS_L_A;	
    197          	
    198              return temp;  
    199          }
    200           
    201          global uint16_t gwIF_SPISendByte_B(uint16_t data)  
    202          {  
    203              uint8_t i=0;  
    204              uint16_t temp=0;
    205              
    206              CS_H_B; 
    207          
    208              for(i=16;i>0;i--)  
    209              {
    210                  lvIF_MotorDelay(SPI_DELAY);
    211                  SCLK_L_B;
    212                  lvIF_MotorDelay(SPI_DELAY);
    213                  
    214                  if(data&0x8000)
    215                      MOSI_H_B;  
    216                  else 
    217                      MOSI_L_B; 
    218                  
    219                  data<<=1;	
    220                  lvIF_MotorDelay(SPI_DELAY);
    221                  SCLK_H_B;
    222                  lvIF_MotorDelay(SPI_DELAY);
    223                  temp<<=1;  
    224                  
    225                  if(MISO_B)
    226                      temp++;	
    227                  else
    228                    ;
    229              }
    230              lvIF_MotorDelay(SPI_DELAY);
    231              CS_L_B;		
    232          
    233              return temp;  
    234          }
    235          
    236          local void lvIF_MotorDelay(uint16_t count)//用于产生400KHzIIC信号所需要的延时
    237          {
    238              while (count--);
    239          }

   Maximum stack usage in bytes:

   .cstack Function
   ------- --------
      32   gdwIF_EPWMSetBrushMotor
        32   -> TIM_SetCompare1
        32   -> TIM_SetCompare2
        32   -> TIM_SetCompare3
        32   -> TIM_SetCompare4
        32   -> __aeabi_d2iz
        32   -> __aeabi_dmul
        32   -> __aeabi_ui2d
      32   gvIF_EPWMDirInit
        32   -> TIM_SetCompare1
        32   -> TIM_SetCompare2
        32   -> TIM_SetCompare3
        32   -> TIM_SetCompare4
        32   -> __aeabi_d2iz
        32   -> __aeabi_dmul
        32   -> __aeabi_ui2d
      64   gvIF_EPWMInit
        64   -> RCC_APB1PeriphClockCmd
        64   -> RCC_APB2PeriphClockCmd
        64   -> TIM_ARRPreloadConfig
        64   -> TIM_Cmd
        64   -> TIM_CtrlPWMOutputs
        64   -> TIM_DeInit
        64   -> TIM_OC1Init
        64   -> TIM_OC1PreloadConfig
        64   -> TIM_OC2Init
        64   -> TIM_OC2PreloadConfig
        64   -> TIM_OC3Init
        64   -> TIM_OC3PreloadConfig
        64   -> TIM_OC4Init
        64   -> TIM_OC4PreloadConfig
        64   -> TIM_TimeBaseInit
       8   gvIF_MotrorStart
         8   -> GPIO_ResetBits
       8   gvIF_MotrorStop
         8   -> GPIO_SetBits
         8   -> gdwIF_EPWMSetBrushMotor
         8   -> gvIF_EPWMDirInit
      24   gwIF_SPISendByte_A
        24   -> GPIO_ReadInputDataBit
        24   -> GPIO_ResetBits
        24   -> GPIO_SetBits
        24   -> lvIF_MotorDelay
      24   gwIF_SPISendByte_B
        24   -> GPIO_ReadInputDataBit
        24   -> GPIO_ResetBits
        24   -> GPIO_SetBits
        24   -> lvIF_MotorDelay
       0   lvIF_MotorDelay


   Section sizes:

   Bytes  Function/Label
   -----  --------------
       4  ??DataTable6
       4  ??DataTable6_1
       4  ??DataTable6_2
       4  ??DataTable6_3
       4  ??DataTable6_4
       8  ??DataTable6_5
       4  ??DataTable6_6
     142  gdwIF_EPWMSetBrushMotor
     142  gvIF_EPWMDirInit
     372  gvIF_EPWMInit
      12  gvIF_MotrorStart
      36  gvIF_MotrorStop
     144  gwIF_SPISendByte_A
     156  gwIF_SPISendByte_B
      12  lvIF_MotorDelay

 
 1 048 bytes in section .text
 
 1 048 bytes of CODE memory

Errors: none
Warnings: none
