###############################################################################
#
# IAR ANSI C/C++ Compiler V8.30.1.114/W32 for ARM         22/Jul/2020  13:36:46
# Copyright 1999-2018 IAR Systems AB.
#
#    Cpu mode     =  thumb
#    Endian       =  little
#    Source file  =  
#        E:\DESKTOP\@@@\@@@@\Intergrated\EtherCatLib\objdef.c
#    Command line =  
#        -f C:\Users\wfc0628\AppData\Local\Temp\EWA032.tmp
#        (E:\DESKTOP\@@@\@@@@\Intergrated\EtherCatLib\objdef.c -D
#        USE_STDPERIPH_DRIVER -D STM32F40_41xxx -D _DLIB_FILE_DESCRIPTOR -lC
#        E:\DESKTOP\@@@\@@@@\Intergrated\Project\IAR\Debug\List
#        -lA
#        E:\DESKTOP\@@@\@@@@\Intergrated\Project\IAR\Debug\List
#        -o E:\DESKTOP\@@@\@@@@\Intergrated\Project\IAR\Debug\Obj
#        --no_cse --no_unroll --no_inline --no_code_motion --no_tbaa
#        --no_clustering --no_scheduling --debug --endian=little
#        --cpu=Cortex-M4 -e --fpu=VFPv4_sp --dlib_config "C:\Program Files
#        (x86)\IAR Systems\Embedded Workbench 8.1\arm\inc\c\DLib_Config_Full.h"
#        -I
#        E:\DESKTOP\@@@\@@@@\Intergrated\Project\IAR\..\..\STM32F4xx_DSP_StdPeriph_Lib_V1.8.0\Libraries\STM32F4xx_StdPeriph_Driver\inc\
#        -I
#        E:\DESKTOP\@@@\@@@@\Intergrated\Project\IAR\..\..\STM32F4xx_DSP_StdPeriph_Lib_V1.8.0\Libraries\CMSIS\Include\
#        -I
#        E:\DESKTOP\@@@\@@@@\Intergrated\Project\IAR\..\..\STM32F4xx_DSP_StdPeriph_Lib_V1.8.0\Libraries\CMSIS\Device\ST\STM32F4xx\Include\
#        -I
#        E:\DESKTOP\@@@\@@@@\Intergrated\Project\IAR\..\..\SourceCodes\
#        -I
#        E:\DESKTOP\@@@\@@@@\Intergrated\Project\IAR\..\..\EtherCatLib\
#        -I E:\DESKTOP\@@@\@@@@\Intergrated\Project\IAR\ -Ol
#        --use_c++_inline)
#    Locale       =  C
#    List file    =  
#        E:\DESKTOP\@@@\@@@@\Intergrated\Project\IAR\Debug\List\objdef.lst
#    Object file  =  
#        E:\DESKTOP\@@@\@@@@\Intergrated\Project\IAR\Debug\Obj\objdef.o
#
###############################################################################

E:\DESKTOP\@@@\@@@@\Intergrated\EtherCatLib\objdef.c
      1          /**
      2          \addtogroup CoE CAN Application Profile over EtherCAT
      3          @{
      4          */
      5          
      6          /**
      7          \file objdef.c
      8          \author EthercatSSC@beckhoff.com
      9          \brief Implementation
     10          This file contains the object dictionary access functions
     11          
     12          \version 5.11
     13          
     14          <br>Changes to version V5.10.1:<br>
     15          V5.11 DIAG4: change parameter handling in DIAG_CreateNewMessage()<br>
     16          V5.11 ECAT: <br>
     17          V5.11 ECAT10: change PROTO handling to prevent compiler errors<br>
     18          V5.11 ESM7: "add Sync define for 0x22 (""SYNCTYPE_SM2_SYNCHRON""), support value 0x22 for 0x1C33.1 (SM2 sync)"<br>
     19          V5.11 OBJ1: OBJ_GetEntryOffset: return offset 0 for si0 (always offset 16 was returned before)<br>
     20          V5.11 SDO1: "Obj_Read/Obj_Write: Check if entries > 8bit has even word offset (otherwise ""unsupported access"" is returned). To support these object a read/write callback function need to be used (see Application Note ET9300)"<br>
     21          V5.11 SDO2: Obj_Read/Obj_Write: Handle arrays (string, array of byte, ...) with an odd word length (buffer shift was wrong). Only an entry <=8Bit is allowed after such an entry.<br>
     22          V5.11 SDO3: handle not word aligned enums<br>
     23          V5.11 SDO5: add missing swapping on SI0 write access<br>
     24          V5.11 SDO6: OBJ_GetDesc ensure that the default string is used if no string was found<br>
     25          V5.11 SDO7: add missing value swapping if memory values are bitwise modified on object read/write access<br>
     26          V5.11 SDO9: "handle SDO access for entries which are not accessible (in case of SDO complete access), SDO access handle ""DEFTYPE_ARRAY_OF_INT"" , ""DEFTYPE_ARRAY_OF_SINT"" , ""DEFTYPE_ARRAY_OF_DINT"" , ""DEFTYPE_ARRAY_OF_UDINT"", SDO access handle : ""BYTE"" ,  ""WORD"" and ""DWORD"""<br>
     27          V5.11 TEST2: add test 0x300C object (entry bitlength > 65535)<br>
     28          V5.11 TEST8: create diag message on SDO write access to 0x3002<br>
     29          <br>Changes to version V5.01:<br>
     30          V5.10 COE2: Change return value of Get ObjectSize to UINT32<br>
     31                      Change object size to UINT32<br>
     32          V5.10 ECAT11: Add define "USE_SINGLE_PDO_MAPPING_ENTRY_DESCR" (Only one entry description is required for all PDO mapping entries)<br>
     33          V5.10 ECAT13: Update Synchronisation handling (FreeRun,SM Sync, Sync0, Sync1)<br>
     34                        Compare DC UINT configuration (by ESC Config data) vs. DC activation register settings<br>
     35                        Update 0x1C3x entries<br>
     36          V5.10 ECAT3: Add new datatype handling (BITARRxx)<br>
     37                       Use read/write marco to access STRING entries<br>
     38          V5.10 SDO1: Handle access to enums on odd memory addresses (only for MBX_16BIT_ACCESS)<br>
     39          V5.10 SDO2: Check for termination char in every substring<br>
     40          V5.10 SDO5: Check also for PDO mapping object if the subindex 0 was set to 0 before the entries will be changed.<br>
     41          V5.10 SDO9: SDO complete write access update buffer offset calculation in case of SI0 is readonly<br>
     42          V5.10 TEST2: Add 0x3004.14 (Access to this entry will always rejected with the code "cannot be acceesd because of local control")<br>
     43          V5.10 TEST4: Add CoE test (0x2020.5) to return always max object data on complete access (not limited to value of SI0)<br>
     44          <br>Changes to version V5.0:<br>
     45          V5.01 COE2: Calculate the bit offset also for SI0 in case if an SDO download access.<br>
     46          V5.01 SDO1: Update alignment entry handling.<br>
     47          V5.01 SDO5: Update offset calculation in case of an not accessible entry<br>
     48          V5.01 SDO7: Update object length calculation in case of an BitArray<br>
     49          V5.01 TEST5: Add slave configuration object handling (0x8000, if test application is active)<br>
     50          V5.01 TEST6: Add test to create dummy object dictionary.<br>
     51          <br>Changes to version V4.40:<br>
     52          V5.0 TEST1: Add test application.<br>
     53          V5.0 COE3: Update OCTED_STRING and VISIBLE_STRING read/write.<br>
     54          V5.0 COE5: Add BigEndian support for enum SDO read, handle complete access also for objects with align or not existing entries.<br>
     55          V5.0 COE7: Support SDO Info entry name handling for 16Bit access<br>
     56          V5.0 DIAG2: SDO Info request for diagnosis messages 0x10F3 SI5 or greater return always description of SI6.<br>
     57          V5.0 COE2: Add plausibility check for PDO assign objects.<br>
     58          V5.0 OBJ2: Support DWORD/WORD aligned object structures.<br>
     59          V5.0 SDO7: Update SDO read/write for object(entries) less or equal 8Bit.<br>
     60          <br>Changes to version V4.30:<br>
     61          V4.40 DIAG1: Add diagnosis access functions<br>
     62          V4.40 OBJ2: change counter variable to prevent deadlock caused by overrun (required if subindex0 is 255)<br>
     63          V4.40 COE2: Prevent accessing empty object dictionary entry<br>
     64          V4.40 COE3: Read whole object dictionary<br>
     65          V4.40 COE1: Prototype of OBJ_GetObjectList() changed, set abort code if object dictionary is empty<br>
     66          V4.30 OBJ 3: Object dictionary list handling<br>
     67          V4.30 OBJ 2: fix SDO complete access bug<br>
     68          V4.11 OBJ 1-3: OBJ_GetDesc() Now, subindex 0 instead of 0xFF is used to return the description of the whole object<br>
     69          Subindex 0xFF could be used like a normal subindex.<br>
     70          <br>Changes to version V4.08:<br>
     71          V4.10 OBJ 1: calculate size of PdoObjectEntry Index 1 and not Index 0<br>
     72          V4.10 OBJ 2: the pointer of the object dictionary will be get by a function (COE_GetObjectDictionary)<br>
     73          <br>Changes to version V4.07:<br>
     74          V4.08 OBJ 1: if subindex 0 is writable, the maximum subindex should be checked in an object specific function,<br>
     75                       because for the PDO mapping and PDO assign the object shall only be written if subindex 0 is 0.<br>
     76          <br>Changes to version V4.04:<br>
     77          V4.04 OBJ 1: The loop in OBJ_GetObjectList was one subindex too low<br>
     78          <br>Changes to version V4.03:<br>
     79          V4.04 SDO 1: The SDO interface was changed in that way that a SDO response<br>
     80                       could be sent by the application to a later time. In that case<br>
     81                           the functions OBJ_Read and OBJ_Write shall return the value<br>
     82                           ABORTIDX_WORKING. To send the SDO response the new function SDOS_SdoRes<br>
     83                           has to be called by the application. While waiting for the call<br>
     84                           of SDOS_SdoRes the SDO interface will answer to another SDO request<br>
     85                           with the error MBXERR_SERVICEINWORK in the mailbox protocol<br>
     86          V4.04 OBJ 1: The loop in OBJ_GetNoOfObjects was one subindex too low<br>
     87          <br>Changes to version V4.02:<br>
     88          V4.03 OBJ 1: The object list was not returned correctly for the list types 2-5<br>
     89          <br>Changes to version V3.20:<br>
     90          V4.00 OBJ 1: The OBJ functions are modified for a more flexible definition of<br>
     91                       the object dictionary and to support bit types too<br>
     92          V4.00 SDO 2: The object lists will be generated in the functions OBJ_GetNoOfObjects<br>
     93                       and OBJ_GetObjectList in objdef.c to decouple the SDO services from<br>
     94                       the implementation of the object dictionary<br>
     95          V4.00 COEAPPL 2: The handling of backup parameters was included according to<br>
     96                           the EtherCAT Guidelines and Protocol Enhancements Specification
     97          
     98          */
     99          
    100          
    101          #define    OBJDEF       0x4000
    102          #define    OBJDEFMAX    0x0A
    103          
    104          /*---------------------------------------------------------------------------------------
    105          ------
    106          ------    Includes
    107          ------
    108          ---------------------------------------------------------------------------------------*/
    109          
    110          #include "ecat_def.h"
    111          
    112          
    113          #include "ecatslv.h"
    114          #include "coeappl.h"
    115          
    116          #define  _OBJDEF_    1
    117          #include "objdef.h"

   \                                 In section .bss, align 1
   \   __absolute unsigned char bSyncSetByUser
   \                     bSyncSetByUser:
   \        0x0                      DS8 1

   \                                 In section .bss, align 2
   \   __absolute TCYCLEDIAG sCycleDiag
   \                     sCycleDiag:
   \        0x0                      DS8 2

   \                                 In section .bss, align 4
   \   __absolute TSYNCMANPAR sSyncManOutPar
   \                     sSyncManOutPar:
   \        0x0                      DS8 68

   \                                 In section .bss, align 4
   \   __absolute TSYNCMANPAR sSyncManInPar
   \                     sSyncManInPar:
   \        0x0                      DS8 68

   \                                 In section .data, align 4
   \   __absolute TOBJ10F1 sErrorSettings
   \                     sErrorSettings:
   \        0x0   0x0002             DC16 2
   \        0x2   0x00 0x00          DC8 0, 0
   \        0x4   0x0000'0001        DC32 1
   \        0x8   0x0004             DC16 4
   \        0xA   0x00 0x00          DC8 0, 0

   \                                 In section .data, align 4
   \   __absolute char aSubindexDesc[13]
   \                     aSubindexDesc:
   \        0x0   0x53 0x75          DC8 "SubIndex 000"
   \              0x62 0x49    
   \              0x6E 0x64    
   \              0x65 0x78    
   \              0x20 0x30    
   \              0x30 0x30    
   \              0x00         
   \        0xD   0x00 0x00          DC8 0, 0, 0
   \              0x00         
    118          #undef    _OBJDEF_
    119          /* ECATCHANGE_START(V5.11) ECAT10*/
    120          /*remove definition of _OBJDEF_ (#ifdef is used in objdef.h)*/
    121          /* ECATCHANGE_END(V5.11) ECAT10*/
    122          
    123          
    124          
    125          
    126          extern OBJCONST TOBJECT OBJMEM *pSdoInfoObjEntry;
    127          extern OBJCONST TSDOINFOENTRYDESC OBJMEM * OBJ_GetEntryDesc(OBJCONST TOBJECT OBJMEM * pObjEntry, UINT8 Subindex);
    128          
    129          //---------------------------------------------------------------------------------------
    130          
    131          /*---------------------------------------------------------------------------------------
    132          ------
    133          ------    Internal types and defines
    134          ------
    135          ---------------------------------------------------------------------------------------*/
    136          
    137          /*---------------------------------------------------------------------------------------
    138          ------
    139          ------    module internal function declarations
    140          ------
    141          ---------------------------------------------------------------------------------------*/
    142          
    143          /*---------------------------------------------------------------------------------------
    144          ------
    145          ------    Module internal variable definitions
    146          ------
    147          ---------------------------------------------------------------------------------------*/

   \                                 In section .rodata, align 4
    148          const UINT16 cBitMask[16] = {0x0000,0x0001,0x0003,0x0007,0x000F,0x001F,0x003F,0x007F,0x00FF,0x01FF,0x03FF,0x07FF,0x0FFF,0x1FFF,0x3FFF,0x7FFF};
   \                     cBitMask:
   \        0x0   0x0000 0x0001      DC16 0, 1, 3, 7, 15, 31, 63, 127, 255, 511, 1023, 2047, 4095, 8191
   \               0x0003 0x000
   \              7 0x000F 0x00
   \              1F 0x003F 0x0
   \              07F 0x00FF 0x
   \              01FF 0x03FF 0
   \              x07FF 0x0FFF 
   \              0x1FFF       
   \       0x1C   0x3FFF 0x7FFF      DC16 16383, 32767
    149          /*---------------------------------------------------------------------------------------
    150          ------
    151          ------    Functions
    152          ------
    153          ---------------------------------------------------------------------------------------*/
    154          
    155          
    156          /////////////////////////////////////////////////////////////////////////////////////////
    157          /**
    158           \param     index     Indicates the index of the dictionary object.
    159          
    160           \return    A handle to an object of the requested index or NULL if not found.
    161          
    162           \brief    The function looks in all objects of the dictionary after the indicated index
    163                       and returns a handle if found.
    164          
    165          *////////////////////////////////////////////////////////////////////////////////////////
    166          

   \                                 In section .text, align 2, keep-with-next
    167          OBJCONST TOBJECT OBJMEM *  OBJ_GetObjectHandle( UINT16 index )
    168          {
   \                     OBJ_GetObjectHandle: (+1)
   \        0x0   0xB510             PUSH     {R4,LR}
   \        0x2   0x0004             MOVS     R4,R0
    169              OBJCONST TOBJECT OBJMEM * pObjEntry = (OBJCONST TOBJECT OBJMEM *) COE_GetObjectDictionary();
   \        0x4   0x.... 0x....      BL       COE_GetObjectDictionary
   \        0x8   0xE000             B.N      ??OBJ_GetObjectHandle_0
    170          
    171              while (pObjEntry!= NULL)
    172              {
    173                  if (pObjEntry->Index == index)
    174                      return pObjEntry;
    175                  pObjEntry = (TOBJECT OBJMEM *) pObjEntry->pNext;
   \                     ??OBJ_GetObjectHandle_1: (+1)
   \        0xA   0x6840             LDR      R0,[R0, #+4]
   \                     ??OBJ_GetObjectHandle_0: (+1)
   \        0xC   0x2800             CMP      R0,#+0
   \        0xE   0xD005             BEQ.N    ??OBJ_GetObjectHandle_2
   \       0x10   0x8901             LDRH     R1,[R0, #+8]
   \       0x12   0x0022             MOVS     R2,R4
   \       0x14   0xB292             UXTH     R2,R2            ;; ZeroExt  R2,R2,#+16,#+16
   \       0x16   0x4291             CMP      R1,R2
   \       0x18   0xD1F7             BNE.N    ??OBJ_GetObjectHandle_1
   \       0x1A   0xE000             B.N      ??OBJ_GetObjectHandle_3
    176              }
    177              return 0;
   \                     ??OBJ_GetObjectHandle_2: (+1)
   \       0x1C   0x2000             MOVS     R0,#+0
   \                     ??OBJ_GetObjectHandle_3: (+1)
   \       0x1E   0xBD10             POP      {R4,PC}          ;; return
    178          }
    179          
    180          /////////////////////////////////////////////////////////////////////////////////////////
    181          /**
    182           \param     index           Index of the requested object.
    183           \param     subindex        Subindex of the requested object.
    184           \param     pObjEntry       Handle to the dictionary object returned by
    185                                      OBJ_GetObjectHandle which was called before
    186           \param     bCompleteAccess Indicates if a complete read of all subindices of the
    187                                      object shall be done or not
    188          
    189           \return    The size of the object entry in bytes (!).
    190          
    191           \brief     This function returns the size of the requested entry. If bCompleteaccess is set the size of the complete object is returned (the returned size is byte packed, gaps based on the used platform/compiler are not taken into account)
    192          
    193          *////////////////////////////////////////////////////////////////////////////////////////

   \                                 In section .text, align 2, keep-with-next
    194          UINT32 OBJ_GetObjectLength( UINT16 index, UINT8 subindex, OBJCONST TOBJECT OBJMEM * pObjEntry, UINT8 bCompleteAccess)
    195          {
   \                     OBJ_GetObjectLength: (+1)
   \        0x0   0xB4F0             PUSH     {R4-R7}
    196              /* get the information of ObjCode and MaxSubindex in local variables to support different types of microcontroller */
    197              UINT8 objCode = (pObjEntry->ObjDesc.ObjFlags & OBJFLAGS_OBJCODEMASK) >> OBJFLAGS_OBJCODESHIFT;
   \        0x2   0x8995             LDRH     R5,[R2, #+12]
   \        0x4   0x122D             ASRS     R5,R5,#+8
   \        0x6   0xF015 0x050F      ANDS     R5,R5,#0xF
    198              UINT8 maxSubindex = (pObjEntry->ObjDesc.ObjFlags & OBJFLAGS_MAXSUBINDEXMASK) >> OBJFLAGS_MAXSUBINDEXSHIFT;
   \        0xA   0x8994             LDRH     R4,[R2, #+12]
    199              UINT32 size = 0;
   \        0xC   0x2000             MOVS     R0,#+0
    200          
    201              if ( bCompleteAccess )
   \        0xE   0xB2DB             UXTB     R3,R3            ;; ZeroExt  R3,R3,#+24,#+24
   \       0x10   0x2B00             CMP      R3,#+0
   \       0x12   0xD030             BEQ.N    ??OBJ_GetObjectLength_0
    202              {
    203                  if ( objCode == OBJCODE_VAR )
   \       0x14   0x002B             MOVS     R3,R5
   \       0x16   0xB2DB             UXTB     R3,R3            ;; ZeroExt  R3,R3,#+24,#+24
   \       0x18   0x2B07             CMP      R3,#+7
   \       0x1A   0xD101             BNE.N    ??OBJ_GetObjectLength_1
    204                      return 0;
   \       0x1C   0x2000             MOVS     R0,#+0
   \       0x1E   0xE04A             B.N      ??OBJ_GetObjectLength_2
    205                  else if ((objCode == OBJCODE_ARR)
    206                      )
   \                     ??OBJ_GetObjectLength_1: (+1)
   \       0x20   0xB2ED             UXTB     R5,R5            ;; ZeroExt  R5,R5,#+24,#+24
   \       0x22   0x2D08             CMP      R5,#+8
   \       0x24   0xD10D             BNE.N    ??OBJ_GetObjectLength_3
    207                  {
    208          
    209                      /* we have to get the maxSubindex from the actual value of subindex 0,
    210                          which is stored as UINT16 at the beginning of the object's variable */
    211                      maxSubindex = (UINT8) ((UINT16 MBXMEM *) (pObjEntry->pVarPtr))[0];
   \       0x26   0x6990             LDR      R0,[R2, #+24]
   \       0x28   0x8800             LDRH     R0,[R0, #+0]
    212          
    213          
    214                      size = pObjEntry->pEntryDesc[1].BitLength *maxSubindex;
   \       0x2A   0x6912             LDR      R2,[R2, #+16]
   \       0x2C   0x8912             LDRH     R2,[R2, #+8]
   \       0x2E   0xB2C0             UXTB     R0,R0            ;; ZeroExt  R0,R0,#+24,#+24
   \       0x30   0xFB00 0xF002      MUL      R0,R0,R2
    215          
    216          /* no padding required: Bit entries within an array object may overlap byte borders*/
    217          
    218                      /* we have to convert the size in bytes */
    219                      size = BIT2BYTE(size);
   \       0x34   0x1DC0             ADDS     R0,R0,#+7
   \       0x36   0x08C0             LSRS     R0,R0,#+3
    220          
    221                      if ( subindex == 0 )
   \       0x38   0xB2C9             UXTB     R1,R1            ;; ZeroExt  R1,R1,#+24,#+24
   \       0x3A   0x2900             CMP      R1,#+0
   \       0x3C   0xD100             BNE.N    ??OBJ_GetObjectLength_4
    222                      {
    223                          /* add size for subindex 0 (is transmitted as UINT16) */
    224                          size += 2;
   \       0x3E   0x1C80             ADDS     R0,R0,#+2
    225                      }
    226                      return size;
   \                     ??OBJ_GetObjectLength_4: (+1)
   \       0x40   0xE039             B.N      ??OBJ_GetObjectLength_2
    227                  }
    228                  else
    229                  {
    230                      UINT8 i;
    231          
    232                      /* add the sizes of all entries */
    233                      for (i = 1; i <= maxSubindex; i++)
   \                     ??OBJ_GetObjectLength_3: (+1)
   \       0x42   0x2501             MOVS     R5,#+1
   \       0x44   0xE00A             B.N      ??OBJ_GetObjectLength_5
    234                      {
    235                          size += pObjEntry->pEntryDesc[i].BitLength;
   \                     ??OBJ_GetObjectLength_6: (+1)
   \       0x46   0x6916             LDR      R6,[R2, #+16]
   \       0x48   0x002F             MOVS     R7,R5
   \       0x4A   0xB2FF             UXTB     R7,R7            ;; ZeroExt  R7,R7,#+24,#+24
   \       0x4C   0x2306             MOVS     R3,#+6
   \       0x4E   0x435F             MULS     R7,R3,R7
   \       0x50   0xEB06 0x0307      ADD      R3,R6,R7
   \       0x54   0x885B             LDRH     R3,[R3, #+2]
   \       0x56   0xFA10 0xF083      UXTAH    R0,R0,R3
    236                      }
   \       0x5A   0x1C6D             ADDS     R5,R5,#+1
   \                     ??OBJ_GetObjectLength_5: (+1)
   \       0x5C   0x0023             MOVS     R3,R4
   \       0x5E   0x002E             MOVS     R6,R5
   \       0x60   0xB2DB             UXTB     R3,R3            ;; ZeroExt  R3,R3,#+24,#+24
   \       0x62   0xB2F6             UXTB     R6,R6            ;; ZeroExt  R6,R6,#+24,#+24
   \       0x64   0x42B3             CMP      R3,R6
   \       0x66   0xD2EE             BCS.N    ??OBJ_GetObjectLength_6
    237                      /* we have to convert the size in bytes */
    238                      size = BIT2BYTE(size);
   \       0x68   0x1DC0             ADDS     R0,R0,#+7
   \       0x6A   0x08C0             LSRS     R0,R0,#+3
    239          
    240                      if ( subindex == 0 )
   \       0x6C   0xB2C9             UXTB     R1,R1            ;; ZeroExt  R1,R1,#+24,#+24
   \       0x6E   0x2900             CMP      R1,#+0
   \       0x70   0xD100             BNE.N    ??OBJ_GetObjectLength_7
    241                      {
    242                          /* add size for subindex 0 (is transmitted as UINT16) */
    243                          size += 2;
   \       0x72   0x1C80             ADDS     R0,R0,#+2
    244                      }
    245                      return size;
   \                     ??OBJ_GetObjectLength_7: (+1)
   \       0x74   0xE01F             B.N      ??OBJ_GetObjectLength_2
    246                  }
    247              }
    248              else
    249              {
    250                  if ( objCode == OBJCODE_VAR )
   \                     ??OBJ_GetObjectLength_0: (+1)
   \       0x76   0x0028             MOVS     R0,R5
   \       0x78   0xB2C0             UXTB     R0,R0            ;; ZeroExt  R0,R0,#+24,#+24
   \       0x7A   0x2807             CMP      R0,#+7
   \       0x7C   0xD104             BNE.N    ??OBJ_GetObjectLength_8
    251                  {
    252                      return (BIT2BYTE(pObjEntry->pEntryDesc->BitLength));
   \       0x7E   0x6910             LDR      R0,[R2, #+16]
   \       0x80   0x8840             LDRH     R0,[R0, #+2]
   \       0x82   0x1DC0             ADDS     R0,R0,#+7
   \       0x84   0x10C0             ASRS     R0,R0,#+3
   \       0x86   0xE016             B.N      ??OBJ_GetObjectLength_2
    253          
    254                  }
    255                  else if ( subindex == 0 )
   \                     ??OBJ_GetObjectLength_8: (+1)
   \       0x88   0x0008             MOVS     R0,R1
   \       0x8A   0xB2C0             UXTB     R0,R0            ;; ZeroExt  R0,R0,#+24,#+24
   \       0x8C   0x2800             CMP      R0,#+0
   \       0x8E   0xD101             BNE.N    ??OBJ_GetObjectLength_9
    256                  {
    257                      /* for single access subindex 0 is transmitted as UINT8 */
    258                      return 1;
   \       0x90   0x2001             MOVS     R0,#+1
   \       0x92   0xE010             B.N      ??OBJ_GetObjectLength_2
    259                  }
    260                  else if((objCode == OBJCODE_ARR)
    261                      )
   \                     ??OBJ_GetObjectLength_9: (+1)
   \       0x94   0xB2ED             UXTB     R5,R5            ;; ZeroExt  R5,R5,#+24,#+24
   \       0x96   0x2D08             CMP      R5,#+8
   \       0x98   0xD104             BNE.N    ??OBJ_GetObjectLength_10
    262                  {
    263                      return (BIT2BYTE(pObjEntry->pEntryDesc[1].BitLength));
   \       0x9A   0x6910             LDR      R0,[R2, #+16]
   \       0x9C   0x8900             LDRH     R0,[R0, #+8]
   \       0x9E   0x1DC0             ADDS     R0,R0,#+7
   \       0xA0   0x10C0             ASRS     R0,R0,#+3
   \       0xA2   0xE008             B.N      ??OBJ_GetObjectLength_2
    264                  }
    265                  else
    266                  {
    267                          return (BIT2BYTE(pObjEntry->pEntryDesc[subindex].BitLength));
   \                     ??OBJ_GetObjectLength_10: (+1)
   \       0xA4   0x6912             LDR      R2,[R2, #+16]
   \       0xA6   0xB2C9             UXTB     R1,R1            ;; ZeroExt  R1,R1,#+24,#+24
   \       0xA8   0x2006             MOVS     R0,#+6
   \       0xAA   0x4341             MULS     R1,R0,R1
   \       0xAC   0xEB02 0x0001      ADD      R0,R2,R1
   \       0xB0   0x8840             LDRH     R0,[R0, #+2]
   \       0xB2   0x1DC0             ADDS     R0,R0,#+7
   \       0xB4   0x10C0             ASRS     R0,R0,#+3
   \                     ??OBJ_GetObjectLength_2: (+1)
   \       0xB6   0xBCF0             POP      {R4-R7}
   \       0xB8   0x4770             BX       LR               ;; return
    268                  }
    269              }
    270          }
    271          
    272          /////////////////////////////////////////////////////////////////////////////////////////
    273          /**
    274           \param     pStr         Pointer to a string
    275           \param  Number   Number to be included in the string
    276          
    277           \brief    The function copies the Number in the string pStr,
    278                   which shall be initialized with 000
    279          
    280          *////////////////////////////////////////////////////////////////////////////////////////
    281          

   \                                 In section .text, align 2, keep-with-next
    282          void OBJ_CopyNumberToString(UCHAR MBXMEM *pStr, UINT8 Number)
    283          {
   \                     OBJ_CopyNumberToString: (+1)
   \        0x0   0xB410             PUSH     {R4}
    284              UINT8 Modulo;
    285          
    286              pStr[2] = '0';
   \        0x2   0x2230             MOVS     R2,#+48
   \        0x4   0x7082             STRB     R2,[R0, #+2]
    287              pStr[0] += (Number / 100);
   \        0x6   0x7803             LDRB     R3,[R0, #+0]
   \        0x8   0x000A             MOVS     R2,R1
   \        0xA   0xB2D2             UXTB     R2,R2            ;; ZeroExt  R2,R2,#+24,#+24
   \        0xC   0x2464             MOVS     R4,#+100
   \        0xE   0xFB92 0xF2F4      SDIV     R2,R2,R4
   \       0x12   0x18D3             ADDS     R3,R2,R3
   \       0x14   0x7003             STRB     R3,[R0, #+0]
    288              Modulo = Number % 100;
   \       0x16   0xB2C9             UXTB     R1,R1            ;; ZeroExt  R1,R1,#+24,#+24
   \       0x18   0x2264             MOVS     R2,#+100
   \       0x1A   0xFB91 0xF3F2      SDIV     R3,R1,R2
   \       0x1E   0xFB02 0x1113      MLS      R1,R2,R3,R1
    289              pStr[1] += (Modulo / 10);
   \       0x22   0x7843             LDRB     R3,[R0, #+1]
   \       0x24   0x000A             MOVS     R2,R1
   \       0x26   0xB2D2             UXTB     R2,R2            ;; ZeroExt  R2,R2,#+24,#+24
   \       0x28   0x240A             MOVS     R4,#+10
   \       0x2A   0xFB92 0xF2F4      SDIV     R2,R2,R4
   \       0x2E   0x18D3             ADDS     R3,R2,R3
   \       0x30   0x7043             STRB     R3,[R0, #+1]
    290              pStr[2] += (Modulo % 10);
   \       0x32   0xB2C9             UXTB     R1,R1            ;; ZeroExt  R1,R1,#+24,#+24
   \       0x34   0x220A             MOVS     R2,#+10
   \       0x36   0x7883             LDRB     R3,[R0, #+2]
   \       0x38   0x18CB             ADDS     R3,R1,R3
   \       0x3A   0xFB91 0xF1F2      SDIV     R1,R1,R2
   \       0x3E   0xFB02 0x3211      MLS      R2,R2,R1,R3
   \       0x42   0x7082             STRB     R2,[R0, #+2]
    291          }
   \       0x44   0xBC10             POP      {R4}
   \       0x46   0x4770             BX       LR               ;; return
    292          
    293          /////////////////////////////////////////////////////////////////////////////////////////
    294          /**
    295           \param     listType requested listType (0=all objects, 1=RxPDO mappable objects,
    296                                  2=TxPDO mappable objects, 3=backup objects, 4=setting objects)
    297          
    298           \return Number of objects of the requested list type
    299          
    300           \brief    The function counts the number of objects of the requested list type
    301          
    302          *////////////////////////////////////////////////////////////////////////////////////////
    303          

   \                                 In section .text, align 2, keep-with-next
    304          UINT16    OBJ_GetNoOfObjects(UINT8 listType)
    305          {
   \                     OBJ_GetNoOfObjects: (+1)
   \        0x0   0xE92D 0x47F0      PUSH     {R4-R10,LR}
   \        0x4   0x0005             MOVS     R5,R0
    306              /* the variable listFlags contains the mask used for the ObjAccess in the Entry-Desc
    307                 see the structure TSDOINFOENTRYDESC in sdoserv.h, listType = 0 indicates that
    308                 all objects has to be counted */
    309          
    310              UINT16 listFlags = 0x0020 << listType;
   \        0x6   0x2620             MOVS     R6,#+32
   \        0x8   0x40AE             LSLS     R6,R6,R5
    311          
    312              /* set pObjEntry to the beginning of the object dictionary */
    313              OBJCONST TOBJECT OBJMEM * pObjEntry = (OBJCONST TOBJECT OBJMEM *) COE_GetObjectDictionary();
   \        0xA   0x.... 0x....      BL       COE_GetObjectDictionary
   \        0xE   0x0004             MOVS     R4,R0
    314              UINT16 n = 0;
   \       0x10   0x2700             MOVS     R7,#+0
   \       0x12   0xE01D             B.N      ??OBJ_GetNoOfObjects_0
    315          
    316          
    317              while (pObjEntry != NULL)
    318              {
    319                  /* count the objects of the requested list type */
    320                  if ( pObjEntry->Index >= 0x1000 )
    321                  {
    322                      UINT8 t = listType;
    323                      if ( t )
    324                      {
    325                          UINT8 maxSubindex = (pObjEntry->ObjDesc.ObjFlags & OBJFLAGS_MAXSUBINDEXMASK) >> OBJFLAGS_MAXSUBINDEXSHIFT;
    326                          UINT16 i = 0;
    327          
    328                          while ( t && i <= maxSubindex )
    329                          {
    330                              if ( OBJ_GetEntryDesc(pObjEntry,(UINT8) i)->ObjAccess & listFlags )
   \                     ??OBJ_GetNoOfObjects_1: (+1)
   \       0x14   0x4641             MOV      R1,R8
   \       0x16   0xB2C9             UXTB     R1,R1            ;; ZeroExt  R1,R1,#+24,#+24
   \       0x18   0x0020             MOVS     R0,R4
   \       0x1A   0x.... 0x....      BL       OBJ_GetEntryDesc
   \       0x1E   0x8880             LDRH     R0,[R0, #+4]
   \       0x20   0x4230             TST      R0,R6
   \       0x22   0xD001             BEQ.N    ??OBJ_GetNoOfObjects_2
    331                                  t = 0;
   \       0x24   0xF05F 0x0900      MOVS     R9,#+0
    332                              i++;
   \                     ??OBJ_GetNoOfObjects_2: (+1)
   \       0x28   0xF118 0x0801      ADDS     R8,R8,#+1
    333                          }
   \                     ??OBJ_GetNoOfObjects_3: (+1)
   \       0x2C   0x4648             MOV      R0,R9
   \       0x2E   0xB2C0             UXTB     R0,R0            ;; ZeroExt  R0,R0,#+24,#+24
   \       0x30   0x2800             CMP      R0,#+0
   \       0x32   0xD006             BEQ.N    ??OBJ_GetNoOfObjects_4
   \       0x34   0x4650             MOV      R0,R10
   \       0x36   0xB2C0             UXTB     R0,R0            ;; ZeroExt  R0,R0,#+24,#+24
   \       0x38   0x4641             MOV      R1,R8
   \       0x3A   0xB280             UXTH     R0,R0            ;; ZeroExt  R0,R0,#+16,#+16
   \       0x3C   0xB289             UXTH     R1,R1            ;; ZeroExt  R1,R1,#+16,#+16
   \       0x3E   0x4288             CMP      R0,R1
   \       0x40   0xD2E8             BCS.N    ??OBJ_GetNoOfObjects_1
    334                      }
    335                      if ( !t )
   \                     ??OBJ_GetNoOfObjects_4: (+1)
   \       0x42   0xFA5F 0xF989      UXTB     R9,R9            ;; ZeroExt  R9,R9,#+24,#+24
   \       0x46   0xF1B9 0x0F00      CMP      R9,#+0
   \       0x4A   0xD100             BNE.N    ??OBJ_GetNoOfObjects_5
    336                      {
    337                          /* object from listType found */
    338                          n++;
   \       0x4C   0x1C7F             ADDS     R7,R7,#+1
    339                      }
    340                  }
    341                  /* next object in object dictionary */
    342                  pObjEntry = (TOBJECT OBJMEM *) pObjEntry->pNext;
   \                     ??OBJ_GetNoOfObjects_5: (+1)
   \       0x4E   0x6864             LDR      R4,[R4, #+4]
   \                     ??OBJ_GetNoOfObjects_0: (+1)
   \       0x50   0x2C00             CMP      R4,#+0
   \       0x52   0xD00D             BEQ.N    ??OBJ_GetNoOfObjects_6
   \       0x54   0x8920             LDRH     R0,[R4, #+8]
   \       0x56   0xF5B0 0x5F80      CMP      R0,#+4096
   \       0x5A   0xDBF8             BLT.N    ??OBJ_GetNoOfObjects_5
   \       0x5C   0x46A9             MOV      R9,R5
   \       0x5E   0x4648             MOV      R0,R9
   \       0x60   0xB2C0             UXTB     R0,R0            ;; ZeroExt  R0,R0,#+24,#+24
   \       0x62   0x2800             CMP      R0,#+0
   \       0x64   0xD0ED             BEQ.N    ??OBJ_GetNoOfObjects_4
   \       0x66   0xF8B4 0xA00C      LDRH     R10,[R4, #+12]
   \       0x6A   0xF05F 0x0800      MOVS     R8,#+0
   \       0x6E   0xE7DD             B.N      ??OBJ_GetNoOfObjects_3
    343              }
    344          
    345              return n;
   \                     ??OBJ_GetNoOfObjects_6: (+1)
   \       0x70   0x0038             MOVS     R0,R7
   \       0x72   0xB280             UXTH     R0,R0            ;; ZeroExt  R0,R0,#+16,#+16
   \       0x74   0xE8BD 0x87F0      POP      {R4-R10,PC}      ;; return
    346          }
    347          
    348          /////////////////////////////////////////////////////////////////////////////////////////
    349          /**
    350           \param     listType 	Requested listType (0=all objects, 1=RxPDO mappable objects,
    351                                  2=TxPDO mappable objects, 3=backup objects, 4=setting objects)
    352           \param     pIndex     	Pointer to the next Index of the object list to copied in the mailbox buffer,
    353                                   has to adapted    at the end of the function
    354           \param     size        Size of the available mailbox buffer
    355           \param     pData     	Pointer to the mailbox buffer where (the part of) the object list requested listType (0=all objects, 1=RxPDO mappable objects,
    356           \param     pAbort    	Pointer to abortCode
    357          
    358           \return 	Size of the available mailbox buffer which was not copied to
    359          
    360           \brief    The function copies (the part of) the object list in the mailbox buffer
    361          
    362          *////////////////////////////////////////////////////////////////////////////////////////

   \                                 In section .text, align 2, keep-with-next
    363          UINT16    OBJ_GetObjectList(UINT16 listType, UINT16 *pIndex, UINT16 size, UINT16 MBXMEM *pData,UINT8 *pAbort)
    364          {
   \                     OBJ_GetObjectList: (+1)
   \        0x0   0xE92D 0x4FF8      PUSH     {R3-R11,LR}
   \        0x4   0x4683             MOV      R11,R0
   \        0x6   0x000D             MOVS     R5,R1
   \        0x8   0x0017             MOVS     R7,R2
   \        0xA   0x4698             MOV      R8,R3
    365              /* the variable listFlags contains the mask used for the ObjAccess in the Entry-Desc
    366                 see the structure TSDOINFOENTRYDESC in sdoserv.h, listType = 0 indicates that
    367                 all objects has to be counted */
    368              UINT16 listFlags = 0x0020 << listType;
   \        0xC   0x2620             MOVS     R6,#+32
   \        0xE   0xFA16 0xF60B      LSLS     R6,R6,R11
    369              OBJCONST TOBJECT OBJMEM * pObjEntry;
    370          
    371          
    372              if ( pIndex[0] == 0x1000 )
   \       0x12   0x8828             LDRH     R0,[R5, #+0]
   \       0x14   0xF5B0 0x5F80      CMP      R0,#+4096
   \       0x18   0xD10A             BNE.N    ??OBJ_GetObjectList_0
    373              {
    374                  /* beginning of object list, set pObjEntry to the beginning of the object dictionary */
    375                 pObjEntry = (OBJCONST TOBJECT OBJMEM *) COE_GetObjectDictionary();
   \       0x1A   0x.... 0x....      BL       COE_GetObjectDictionary
   \       0x1E   0x0004             MOVS     R4,R0
    376                  // set abort code if no object dictionary is available
    377                  if((pObjEntry == NULL) && (pAbort != NULL))
   \       0x20   0x2C00             CMP      R4,#+0
   \       0x22   0xD108             BNE.N    ??OBJ_GetObjectList_1
   \       0x24   0x980A             LDR      R0,[SP, #+40]
   \       0x26   0x2800             CMP      R0,#+0
   \       0x28   0xD005             BEQ.N    ??OBJ_GetObjectList_1
    378                  {
    379                      *pAbort = ABORTIDX_NO_OBJECT_DICTIONARY_IS_PRESENT;
   \       0x2A   0x211B             MOVS     R1,#+27
   \       0x2C   0x7001             STRB     R1,[R0, #+0]
   \       0x2E   0xE002             B.N      ??OBJ_GetObjectList_1
    380                  }
    381              }
    382              else
    383              {
    384                  /* next fragment, the next object to be handled was stored in pSdoInfoObjEntry */
    385                  pObjEntry = pSdoInfoObjEntry;
   \                     ??OBJ_GetObjectList_0: (+1)
   \       0x30   0x.... 0x....      LDR.W    R0,??DataTable4
   \       0x34   0x6804             LDR      R4,[R0, #+0]
    386              }
    387          
    388              if ( pObjEntry != NULL )
   \                     ??OBJ_GetObjectList_1: (+1)
   \       0x36   0x2C00             CMP      R4,#+0
   \       0x38   0xD126             BNE.N    ??OBJ_GetObjectList_2
    389              {
    390                  while (pObjEntry != NULL && size > 1 )
    391                  {
    392                      /* get the next index of the requested object list if there is enough space in the mailbox buffer */
    393                      if ( pObjEntry->Index >= 0x1000 )
    394                      {
    395                          /* UINT8 was changed to UINT16 */
    396                          UINT16 t = listType;
    397                          if ( t )
    398                          {
    399                              UINT8 maxSubindex = (pObjEntry->ObjDesc.ObjFlags & OBJFLAGS_MAXSUBINDEXMASK) >> OBJFLAGS_MAXSUBINDEXSHIFT;
    400                              UINT8 i = 0;
    401          
    402                              while ( t && i <= maxSubindex )
    403                              {
    404                                  if ( OBJ_GetEntryDesc(pObjEntry, i)->ObjAccess & listFlags )
    405                                      t = 0;
    406                                  i++;
    407                              }
    408                          }
    409                          if ( !t )
    410                          {
    411                              /* store the index in the mailbox buffer */
    412                              *pData = SWAPWORD(pObjEntry->Index);
    413                              pData++;
    414                              size -= 2;
    415                          }
    416                      }
    417                  pObjEntry = (TOBJECT OBJMEM *) pObjEntry->pNext;
    418                  }
    419              }
    420          
    421                  /* return the next Index to be handled */
    422                  if(pObjEntry != NULL)
   \                     ??OBJ_GetObjectList_3: (+1)
   \       0x3A   0x2C00             CMP      R4,#+0
   \       0x3C   0xD039             BEQ.N    ??OBJ_GetObjectList_4
    423                  {
    424                      pIndex[0] = pObjEntry->Index;
   \       0x3E   0x8920             LDRH     R0,[R4, #+8]
   \       0x40   0x8028             STRH     R0,[R5, #+0]
   \       0x42   0xE039             B.N      ??OBJ_GetObjectList_5
    425                  }
   \                     ??OBJ_GetObjectList_6: (+1)
   \       0x44   0x4649             MOV      R1,R9
   \       0x46   0xB2C9             UXTB     R1,R1            ;; ZeroExt  R1,R1,#+24,#+24
   \       0x48   0x0020             MOVS     R0,R4
   \       0x4A   0x.... 0x....      BL       OBJ_GetEntryDesc
   \       0x4E   0x8880             LDRH     R0,[R0, #+4]
   \       0x50   0x4230             TST      R0,R6
   \       0x52   0xD001             BEQ.N    ??OBJ_GetObjectList_7
   \       0x54   0xF05F 0x0A00      MOVS     R10,#+0
   \                     ??OBJ_GetObjectList_7: (+1)
   \       0x58   0xF119 0x0901      ADDS     R9,R9,#+1
   \                     ??OBJ_GetObjectList_8: (+1)
   \       0x5C   0x4650             MOV      R0,R10
   \       0x5E   0xB280             UXTH     R0,R0            ;; ZeroExt  R0,R0,#+16,#+16
   \       0x60   0x2800             CMP      R0,#+0
   \       0x62   0xD005             BEQ.N    ??OBJ_GetObjectList_9
   \       0x64   0xF89D 0x0000      LDRB     R0,[SP, #+0]
   \       0x68   0x4649             MOV      R1,R9
   \       0x6A   0xB2C9             UXTB     R1,R1            ;; ZeroExt  R1,R1,#+24,#+24
   \       0x6C   0x4288             CMP      R0,R1
   \       0x6E   0xD2E9             BCS.N    ??OBJ_GetObjectList_6
   \                     ??OBJ_GetObjectList_9: (+1)
   \       0x70   0xFA1F 0xFA8A      UXTH     R10,R10          ;; ZeroExt  R10,R10,#+16,#+16
   \       0x74   0xF1BA 0x0F00      CMP      R10,#+0
   \       0x78   0xD105             BNE.N    ??OBJ_GetObjectList_10
   \       0x7A   0x8920             LDRH     R0,[R4, #+8]
   \       0x7C   0xF8A8 0x0000      STRH     R0,[R8, #+0]
   \       0x80   0xF118 0x0802      ADDS     R8,R8,#+2
   \       0x84   0x1EBF             SUBS     R7,R7,#+2
   \                     ??OBJ_GetObjectList_10: (+1)
   \       0x86   0x6864             LDR      R4,[R4, #+4]
   \                     ??OBJ_GetObjectList_2: (+1)
   \       0x88   0x2C00             CMP      R4,#+0
   \       0x8A   0xD0D6             BEQ.N    ??OBJ_GetObjectList_3
   \       0x8C   0x0038             MOVS     R0,R7
   \       0x8E   0xB280             UXTH     R0,R0            ;; ZeroExt  R0,R0,#+16,#+16
   \       0x90   0x2802             CMP      R0,#+2
   \       0x92   0xDBD2             BLT.N    ??OBJ_GetObjectList_3
   \       0x94   0x8920             LDRH     R0,[R4, #+8]
   \       0x96   0xF5B0 0x5F80      CMP      R0,#+4096
   \       0x9A   0xDBF4             BLT.N    ??OBJ_GetObjectList_10
   \       0x9C   0x46DA             MOV      R10,R11
   \       0x9E   0x4650             MOV      R0,R10
   \       0xA0   0xB280             UXTH     R0,R0            ;; ZeroExt  R0,R0,#+16,#+16
   \       0xA2   0x2800             CMP      R0,#+0
   \       0xA4   0xD0E4             BEQ.N    ??OBJ_GetObjectList_9
   \       0xA6   0x89A0             LDRH     R0,[R4, #+12]
   \       0xA8   0xF88D 0x0000      STRB     R0,[SP, #+0]
   \       0xAC   0xF05F 0x0900      MOVS     R9,#+0
   \       0xB0   0xE7D4             B.N      ??OBJ_GetObjectList_8
    426                  else
    427                  {
    428                      /*last entry reached*/
    429                      pIndex[0] = 0xFFFF;
   \                     ??OBJ_GetObjectList_4: (+1)
   \       0xB2   0xF64F 0x70FF      MOVW     R0,#+65535
   \       0xB6   0x8028             STRH     R0,[R5, #+0]
    430                  }
    431          
    432              /* store object description pointer and index for next fragment */
    433              pSdoInfoObjEntry = pObjEntry;
   \                     ??OBJ_GetObjectList_5: (+1)
   \       0xB8   0x.... 0x....      LDR.W    R0,??DataTable4
   \       0xBC   0x6004             STR      R4,[R0, #+0]
    434          
    435              /* return the size of the available mailbox buffer which was not copied to */
    436              return size;
   \       0xBE   0x0038             MOVS     R0,R7
   \       0xC0   0xB280             UXTH     R0,R0            ;; ZeroExt  R0,R0,#+16,#+16
   \       0xC2   0xE8BD 0x8FF2      POP      {R1,R4-R11,PC}   ;; return
    437          }
    438          
    439          /////////////////////////////////////////////////////////////////////////////////////////
    440          /**
    441           \param     index     Indicates the index of the dictionary object.
    442           \param  	subindex  Indicates the subindex of the dictionary object.
    443                                  Subindex 0xff returns the description of the whole object ( the name of
    444                                  the object ).
    445                                  Subindex 0x00 returns the description of the subindex 0 and so on.
    446           \param     pObjEntry Is a handle to the dictionary object ( for faster access ) or NULL.
    447           \param    pData        Is the memory field for the description string or NULL ( if the size of
    448                                  string is unknown ):
    449          
    450           \return    The size in bytes of the description string (without null termination byte ).
    451                      0 will be returned if a description for the indicated entry was not found.
    452          
    453           \brief    The function returns size and description string of the requested entry.
    454          
    455                      Its possible to define all description strings of one entry ( including the name
    456                      of the object ) in one structure:        <br>
    457                      {                                                    <br>
    458                          name_of_object with index,              <br>
    459                          description_of_subindex0,                <br>
    460                          .                                                <br>
    461                          description_of_subindexN,                <br>
    462                          0xFF                                            <br>
    463                      }
    464          *////////////////////////////////////////////////////////////////////////////////////////
    465          

   \                                 In section .text, align 2, keep-with-next
    466          UINT16 OBJ_GetDesc( UINT16 index, UINT8 subindex, OBJCONST TOBJECT OBJMEM * pObjEntry, UINT16 MBXMEM * pData )
    467          {
   \                     OBJ_GetDesc: (+1)
   \        0x0   0xE92D 0x43F8      PUSH     {R3-R9,LR}
   \        0x4   0xB084             SUB      SP,SP,#+16
   \        0x6   0x000E             MOVS     R6,R1
   \        0x8   0x001C             MOVS     R4,R3
    468              UINT16 strSize = 0;
   \        0xA   0x2500             MOVS     R5,#+0
    469              OBJCONST UCHAR OBJMEM * pDesc = (OBJCONST UCHAR OBJMEM *) pObjEntry->pName;
   \        0xC   0x6957             LDR      R7,[R2, #+20]
    470          /* get the information of ObjCode and MaxSubindex in local variables to support different types of microcontroller */
    471              UINT8 objCode = (pObjEntry->ObjDesc.ObjFlags & OBJFLAGS_OBJCODEMASK) >> OBJFLAGS_OBJCODESHIFT;
   \        0xE   0x8991             LDRH     R1,[R2, #+12]
   \       0x10   0x1209             ASRS     R1,R1,#+8
   \       0x12   0xF011 0x010F      ANDS     R1,R1,#0xF
    472          
    473              if ( (subindex == 0) || (objCode == OBJCODE_VAR) )
   \       0x16   0x0030             MOVS     R0,R6
   \       0x18   0xB2C0             UXTB     R0,R0            ;; ZeroExt  R0,R0,#+24,#+24
   \       0x1A   0x2800             CMP      R0,#+0
   \       0x1C   0xD003             BEQ.N    ??OBJ_GetDesc_0
   \       0x1E   0x0008             MOVS     R0,R1
   \       0x20   0xB2C0             UXTB     R0,R0            ;; ZeroExt  R0,R0,#+24,#+24
   \       0x22   0x2807             CMP      R0,#+7
   \       0x24   0xD10C             BNE.N    ??OBJ_GetDesc_1
    474              {
    475                  // Get object description length
    476                  strSize = OBJSTRLEN( (OBJCONST CHAR OBJMEM *) pDesc );
   \                     ??OBJ_GetDesc_0: (+1)
   \       0x26   0x0038             MOVS     R0,R7
   \       0x28   0x.... 0x....      BL       strlen
   \       0x2C   0x0005             MOVS     R5,R0
    477          
    478                  // If there is a pointer given, copy data:
    479                  if ( pData )
   \       0x2E   0x2C00             CMP      R4,#+0
   \       0x30   0xD059             BEQ.N    ??OBJ_GetDesc_2
    480                  {
    481                      OBJTOMBXSTRCPY( pData, pDesc, strSize );
   \       0x32   0x002A             MOVS     R2,R5
   \       0x34   0xB292             UXTH     R2,R2            ;; ZeroExt  R2,R2,#+16,#+16
   \       0x36   0x0039             MOVS     R1,R7
   \       0x38   0x0020             MOVS     R0,R4
   \       0x3A   0x.... 0x....      BL       __aeabi_memcpy
    482                  }
    483              }
   \       0x3E   0xE052             B.N      ??OBJ_GetDesc_2
    484              else
    485              {
    486                  if ( objCode == OBJCODE_REC )
   \                     ??OBJ_GetDesc_1: (+1)
   \       0x40   0xB2C9             UXTB     R1,R1            ;; ZeroExt  R1,R1,#+24,#+24
   \       0x42   0x2909             CMP      R1,#+9
   \       0x44   0xD136             BNE.N    ??OBJ_GetDesc_3
    487                  {
    488                      {
    489                      // get pointer to description of subindex 1 :
    490                      // 16bit variable to avoid overflow if subindex 0xFF is read
    491                      UINT16 i = 1;
   \       0x46   0xF05F 0x0901      MOVS     R9,#+1
    492                      UINT16 tmpSubindex = subindex;
   \       0x4A   0x46B0             MOV      R8,R6
   \       0x4C   0xFA5F 0xF888      UXTB     R8,R8            ;; ZeroExt  R8,R8,#+24,#+24
    493          
    494                      {
    495          
    496                      OBJCONST UCHAR OBJMEM * pSubDesc = (OBJCONST UCHAR OBJMEM *) OBJGETNEXTSTR( pDesc );
   \       0x50   0x0038             MOVS     R0,R7
   \       0x52   0x.... 0x....      BL       strlen
   \       0x56   0x4438             ADD      R0,R7,R0
   \       0x58   0x1C47             ADDS     R7,R0,#+1
   \       0x5A   0xE006             B.N      ??OBJ_GetDesc_4
    497                      while (( i <= tmpSubindex )
    498                          &&( pSubDesc[0] != 0xFF && pSubDesc[0] != 0xFE ))
    499                      {
    500                          if ( i == tmpSubindex )
    501                          {
    502                              strSize = OBJSTRLEN( (OBJCONST CHAR OBJMEM *) pSubDesc );
    503                              if ( pData && strSize )
    504                                  OBJTOMBXSTRCPY( pData, pSubDesc, strSize );
    505          /* ECATCHANGE_START(V5.11) SDO6*/
    506                              else
    507                                  strSize = 0;
    508          /* ECATCHANGE_END(V5.11) SDO6*/
    509          
    510                              break;
    511                          }
    512                          else
    513                          {
    514                              i++;
   \                     ??OBJ_GetDesc_5: (+1)
   \       0x5C   0xF119 0x0901      ADDS     R9,R9,#+1
    515                              pSubDesc = (OBJCONST UCHAR OBJMEM *) OBJGETNEXTSTR( pSubDesc );
   \       0x60   0x0038             MOVS     R0,R7
   \       0x62   0x.... 0x....      BL       strlen
   \       0x66   0x4438             ADD      R0,R7,R0
   \       0x68   0x1C47             ADDS     R7,R0,#+1
    516                          }
   \                     ??OBJ_GetDesc_4: (+1)
   \       0x6A   0x4640             MOV      R0,R8
   \       0x6C   0x4649             MOV      R1,R9
   \       0x6E   0xB280             UXTH     R0,R0            ;; ZeroExt  R0,R0,#+16,#+16
   \       0x70   0xB289             UXTH     R1,R1            ;; ZeroExt  R1,R1,#+16,#+16
   \       0x72   0x4288             CMP      R0,R1
   \       0x74   0xD31E             BCC.N    ??OBJ_GetDesc_3
   \       0x76   0x7838             LDRB     R0,[R7, #+0]
   \       0x78   0x28FF             CMP      R0,#+255
   \       0x7A   0xD01B             BEQ.N    ??OBJ_GetDesc_3
   \       0x7C   0x7838             LDRB     R0,[R7, #+0]
   \       0x7E   0x28FE             CMP      R0,#+254
   \       0x80   0xD018             BEQ.N    ??OBJ_GetDesc_3
   \       0x82   0x4648             MOV      R0,R9
   \       0x84   0x4641             MOV      R1,R8
   \       0x86   0xB280             UXTH     R0,R0            ;; ZeroExt  R0,R0,#+16,#+16
   \       0x88   0xB289             UXTH     R1,R1            ;; ZeroExt  R1,R1,#+16,#+16
   \       0x8A   0x4288             CMP      R0,R1
   \       0x8C   0xD1E6             BNE.N    ??OBJ_GetDesc_5
   \       0x8E   0x0038             MOVS     R0,R7
   \       0x90   0x.... 0x....      BL       strlen
   \       0x94   0x0005             MOVS     R5,R0
   \       0x96   0x2C00             CMP      R4,#+0
   \       0x98   0xD00B             BEQ.N    ??OBJ_GetDesc_6
   \       0x9A   0x0028             MOVS     R0,R5
   \       0x9C   0xB280             UXTH     R0,R0            ;; ZeroExt  R0,R0,#+16,#+16
   \       0x9E   0x2800             CMP      R0,#+0
   \       0xA0   0xD007             BEQ.N    ??OBJ_GetDesc_6
   \       0xA2   0x002A             MOVS     R2,R5
   \       0xA4   0xB292             UXTH     R2,R2            ;; ZeroExt  R2,R2,#+16,#+16
   \       0xA6   0x46A0             MOV      R8,R4
   \       0xA8   0x0039             MOVS     R1,R7
   \       0xAA   0x4640             MOV      R0,R8
   \       0xAC   0x.... 0x....      BL       __aeabi_memcpy
   \       0xB0   0xE000             B.N      ??OBJ_GetDesc_7
   \                     ??OBJ_GetDesc_6: (+1)
   \       0xB2   0x2500             MOVS     R5,#+0
    517                      }
    518                      }
    519                      }
    520                  }
    521          
    522                  if ( strSize == 0 )
   \                     ??OBJ_GetDesc_7: (+1)
   \                     ??OBJ_GetDesc_3: (+1)
   \       0xB4   0x0028             MOVS     R0,R5
   \       0xB6   0xB280             UXTH     R0,R0            ;; ZeroExt  R0,R0,#+16,#+16
   \       0xB8   0x2800             CMP      R0,#+0
   \       0xBA   0xD114             BNE.N    ??OBJ_GetDesc_2
    523                  {
    524                      // no string found for subindex x -> name is Subindex x
    525                      strSize =    12;
   \       0xBC   0x250C             MOVS     R5,#+12
    526          
    527                      if ( pData )
   \       0xBE   0x2C00             CMP      R4,#+0
   \       0xC0   0xD011             BEQ.N    ??OBJ_GetDesc_2
    528                      {
    529                          UCHAR OBJMEM         TmpDescr[13];
    530                          OBJSTRCPY(TmpDescr,aSubindexDesc,SIZEOF(TmpDescr));
   \       0xC2   0x220D             MOVS     R2,#+13
   \       0xC4   0x.... 0x....      LDR.W    R1,??DataTable5
   \       0xC8   0x466F             MOV      R7,SP
   \       0xCA   0x0038             MOVS     R0,R7
   \       0xCC   0x.... 0x....      BL       __aeabi_memcpy
    531          
    532                          OBJ_CopyNumberToString( &TmpDescr[9], subindex );
   \       0xD0   0x0031             MOVS     R1,R6
   \       0xD2   0xB2C9             UXTB     R1,R1            ;; ZeroExt  R1,R1,#+24,#+24
   \       0xD4   0xF10D 0x0009      ADD      R0,SP,#+9
   \       0xD8   0x.... 0x....      BL       OBJ_CopyNumberToString
    533                          MBXSTRCPY( pData, TmpDescr, SIZEOF(TmpDescr) );
   \       0xDC   0x220D             MOVS     R2,#+13
   \       0xDE   0x4669             MOV      R1,SP
   \       0xE0   0x0020             MOVS     R0,R4
   \       0xE2   0x.... 0x....      BL       __aeabi_memcpy
    534                      }
    535                  }
    536              }
    537          
    538              return strSize;
   \                     ??OBJ_GetDesc_2: (+1)
   \       0xE6   0x0028             MOVS     R0,R5
   \       0xE8   0xB280             UXTH     R0,R0            ;; ZeroExt  R0,R0,#+16,#+16
   \       0xEA   0xB005             ADD      SP,SP,#+20
   \       0xEC   0xE8BD 0x83F0      POP      {R4-R9,PC}       ;; return
    539          }
    540          
    541          /////////////////////////////////////////////////////////////////////////////////////////
    542          /**
    543           \param     pObjEntry            handle to the dictionary object returned by
    544                                               OBJ_GetObjectHandle which was called before
    545           \param     Subindex                subindex of the requested object.
    546          
    547           \return    Pointer to the EntryDesc of the Subindex
    548          
    549           \brief    The function returns the Entry-Desc of a subindex to allow the application
    550                   to define the object dictionary independent of the sdoserv-files
    551          
    552          *////////////////////////////////////////////////////////////////////////////////////////
    553          

   \                                 In section .text, align 2, keep-with-next
    554          OBJCONST TSDOINFOENTRYDESC OBJMEM * OBJ_GetEntryDesc(OBJCONST TOBJECT OBJMEM * pObjEntry, UINT8 Subindex)
    555          {
    556              OBJCONST TSDOINFOENTRYDESC OBJMEM *pEntry;
    557              UINT8 objCode = (pObjEntry->ObjDesc.ObjFlags & OBJFLAGS_OBJCODEMASK) >> OBJFLAGS_OBJCODESHIFT;
   \                     OBJ_GetEntryDesc: (+1)
   \        0x0   0x8982             LDRH     R2,[R0, #+12]
   \        0x2   0x1212             ASRS     R2,R2,#+8
   \        0x4   0xF012 0x020F      ANDS     R2,R2,#0xF
    558          
    559              if ((objCode == OBJCODE_ARR)
    560                  )
   \        0x8   0xB2D2             UXTB     R2,R2            ;; ZeroExt  R2,R2,#+24,#+24
   \        0xA   0x2A08             CMP      R2,#+8
   \        0xC   0xD107             BNE.N    ??OBJ_GetEntryDesc_0
    561              {
    562                  /* object is an array */
    563                  if ( Subindex == 0 )
   \        0xE   0xB2C9             UXTB     R1,R1            ;; ZeroExt  R1,R1,#+24,#+24
   \       0x10   0x2900             CMP      R1,#+0
   \       0x12   0xD101             BNE.N    ??OBJ_GetEntryDesc_1
    564                      /* subindex 0 has a description */
    565                      pEntry = &pObjEntry->pEntryDesc[0];
   \       0x14   0x6900             LDR      R0,[R0, #+16]
   \       0x16   0xE008             B.N      ??OBJ_GetEntryDesc_2
    566                  else
    567                      /* and all other elements have the same description */
    568                      pEntry = &pObjEntry->pEntryDesc[1];
   \                     ??OBJ_GetEntryDesc_1: (+1)
   \       0x18   0x6900             LDR      R0,[R0, #+16]
   \       0x1A   0x1D80             ADDS     R0,R0,#+6
   \       0x1C   0xE005             B.N      ??OBJ_GetEntryDesc_2
    569              }
    570              else
    571              {
    572                  {
    573                      /* object is a variable or a record return the corresponding entry */
    574                      pEntry = &pObjEntry->pEntryDesc[Subindex];
   \                     ??OBJ_GetEntryDesc_0: (+1)
   \       0x1E   0x6902             LDR      R2,[R0, #+16]
   \       0x20   0xB2C9             UXTB     R1,R1            ;; ZeroExt  R1,R1,#+24,#+24
   \       0x22   0x2006             MOVS     R0,#+6
   \       0x24   0x4341             MULS     R1,R0,R1
   \       0x26   0xEB02 0x0001      ADD      R0,R2,R1
    575                  }
    576              }
    577          
    578              return pEntry;
   \                     ??OBJ_GetEntryDesc_2: (+1)
   \       0x2A   0x4770             BX       LR               ;; return
    579          }
    580          
    581          /////////////////////////////////////////////////////////////////////////////////////////
    582          /**
    583           \param     pObjEntry            handle to the dictionary object returned by
    584                                               OBJ_GetObjectHandle which was called before
    585          
    586           \return    Pointer to the ObjDesc of the Object
    587          
    588           \brief    The function returns the Obj-Desc of an object to allow the application
    589                   to define the object dictionary independent of the sdoserv-files
    590          
    591          *////////////////////////////////////////////////////////////////////////////////////////
    592          

   \                                 In section .text, align 2, keep-with-next
    593          OBJCONST TSDOINFOOBJDESC OBJMEM * OBJ_GetObjDesc(OBJCONST TOBJECT OBJMEM * pObjEntry)
    594          {
    595              return &pObjEntry->ObjDesc;
   \                     OBJ_GetObjDesc: (+1)
   \        0x0   0x300A             ADDS     R0,R0,#+10
   \        0x2   0x4770             BX       LR               ;; return
    596          }
    597          
    598          /////////////////////////////////////////////////////////////////////////////////////////
    599          /**
    600           \param     subindex                subindex of the entry
    601           \param     pObjEntry            handle to the dictionary object returned by
    602                                               OBJ_GetObjectHandle which was called before
    603          
    604           \return    bit offset of the entry in the variable
    605          
    606           \brief    This function calculates the bit offset of the entry in the object's variable
    607          *////////////////////////////////////////////////////////////////////////////////////////
    608          

   \                                 In section .text, align 2, keep-with-next
    609          UINT16 OBJ_GetEntryOffset(UINT8 subindex, OBJCONST TOBJECT OBJMEM * pObjEntry)
    610          {
   \                     OBJ_GetEntryOffset: (+1)
   \        0x0   0xB4F0             PUSH     {R4-R7}
    611              UINT16 i;
    612              /* bitOffset will be initialized with the bit offset of subindex 1 */
    613          /*ECATCHANGE_START(V5.11) OBJ1*/
    614              UINT16 bitOffset = 0;
   \        0x2   0x2300             MOVS     R3,#+0
    615              UINT8 objCode = (pObjEntry->ObjDesc.ObjFlags & OBJFLAGS_OBJCODEMASK) >> OBJFLAGS_OBJCODESHIFT;
   \        0x4   0x898C             LDRH     R4,[R1, #+12]
   \        0x6   0x1224             ASRS     R4,R4,#+8
   \        0x8   0xF014 0x040F      ANDS     R4,R4,#0xF
    616              OBJCONST TSDOINFOENTRYDESC OBJMEM *pEntry;
    617          
    618              if(subindex > 0)
   \        0xC   0x0002             MOVS     R2,R0
   \        0xE   0xB2D2             UXTB     R2,R2            ;; ZeroExt  R2,R2,#+24,#+24
   \       0x10   0x2A00             CMP      R2,#+0
   \       0x12   0xD000             BEQ.N    ??OBJ_GetEntryOffset_0
    619              {
    620                  /*subindex 1 has an offset of 16Bit (even if Si0 is only an UINT8) */
    621                  bitOffset +=16;
   \       0x14   0x3310             ADDS     R3,R3,#+16
    622              }
    623          /*ECATCHANGE_END(V5.11) OBJ1*/
    624          
    625              if (objCode == OBJCODE_VAR)
   \                     ??OBJ_GetEntryOffset_0: (+1)
   \       0x16   0x0022             MOVS     R2,R4
   \       0x18   0xB2D2             UXTB     R2,R2            ;; ZeroExt  R2,R2,#+24,#+24
   \       0x1A   0x2A07             CMP      R2,#+7
   \       0x1C   0xD101             BNE.N    ??OBJ_GetEntryOffset_1
    626                  return 0;
   \       0x1E   0x2000             MOVS     R0,#+0
   \       0x20   0xE06D             B.N      ??OBJ_GetEntryOffset_2
    627          
    628              for (i = 1; i <= subindex; i++)
   \                     ??OBJ_GetEntryOffset_1: (+1)
   \       0x22   0x2501             MOVS     R5,#+1
   \       0x24   0xE00B             B.N      ??OBJ_GetEntryOffset_3
    629              {
    630                  /* get the entry description */
    631                  if ((objCode == OBJCODE_ARR)
    632                     )
    633                      pEntry = &pObjEntry->pEntryDesc[1];
    634                  else
    635                  {
    636                      pEntry = &pObjEntry->pEntryDesc[i];
    637                  }
    638          
    639                  switch (pEntry->DataType)
    640                  {
    641                  case    DEFTYPE_INTEGER16:
    642                  case    DEFTYPE_UNSIGNED16:
    643                  case    DEFTYPE_BITARR16:
    644          /*ECATCHANGE_START(V5.11) SDO9*/
    645                  case    DEFTYPE_WORD:
    646                  case    DEFTYPE_UNICODE_STRING:
    647                  case    DEFTYPE_ARRAY_OF_INT :
    648          /*ECATCHANGE_END(V5.11) SDO9*/
    649          
    650          #if OBJ_WORD_ALIGN    || OBJ_DWORD_ALIGN
    651                      /* the 16-bit variables in the structure are word-aligned,
    652                         align the actual bitOffset to a word */
    653                      bitOffset = (bitOffset+15) & 0xFFF0;
    654          #endif
    655          
    656          
    657          /*ECATCHANGE_START(V5.11) SDO9*/
    658                      if (i < subindex)
    659                      {
    660                          if((pEntry->DataType == DEFTYPE_UNICODE_STRING)
    661                              ||(pEntry->DataType == DEFTYPE_ARRAY_OF_INT))
    662                          {
    663                              bitOffset += pEntry->BitLength;
    664                          }
    665          
    666                          bitOffset += 16;
    667                      }
    668          /*ECATCHANGE_END(V5.11) SDO9*/
    669                      break;
    670                  case    DEFTYPE_UNSIGNED32:
    671                  case    DEFTYPE_INTEGER32:
    672                  case    DEFTYPE_REAL32:
    673                  case    DEFTYPE_BITARR32:
    674          /*ECATCHANGE_START(V5.11) SDO9*/
    675                  case    DEFTYPE_DWORD:
    676                  case    DEFTYPE_ARRAY_OF_DINT :
    677                  case    DEFTYPE_ARRAY_OF_UDINT:
    678          /*ECATCHANGE_END(V5.11) SDO9*/
    679          #if OBJ_DWORD_ALIGN
    680                      /* the 32-bit variables in the structure are dword-aligned,
    681                         align the actual bitOffset to a dword */
    682                      bitOffset = (bitOffset+31) & 0xFFE0;
    683          #elif OBJ_WORD_ALIGN
    684                      /* the 32-bit variables in the structure are word-aligned,
    685                         align the actual bitOffset to a word */
    686                      bitOffset = (bitOffset+15) & 0xFFF0;
    687          #endif
    688          
    689          /*ECATCHANGE_START(V5.11) SDO9*/
    690                      if (i < subindex)
    691                      {
    692                          if((pEntry->DataType == DEFTYPE_ARRAY_OF_DINT)
    693                              ||(pEntry->DataType == DEFTYPE_ARRAY_OF_UDINT))
    694                          {
    695                              bitOffset += pEntry->BitLength;
    696                          }
    697                          else
    698                             bitOffset += 32;
    699                      }
    700          /*ECATCHANGE_END(V5.11) SDO9*/
    701                      break;
    702                  default:
    703                      /* align the actual bitOffset to a byte */
    704                      if (i < subindex)
   \                     ??OBJ_GetEntryOffset_4: (+1)
   \       0x26   0x002A             MOVS     R2,R5
   \       0x28   0x0007             MOVS     R7,R0
   \       0x2A   0xB2FF             UXTB     R7,R7            ;; ZeroExt  R7,R7,#+24,#+24
   \       0x2C   0xB292             UXTH     R2,R2            ;; ZeroExt  R2,R2,#+16,#+16
   \       0x2E   0xB2BF             UXTH     R7,R7            ;; ZeroExt  R7,R7,#+16,#+16
   \       0x30   0x42BA             CMP      R2,R7
   \       0x32   0xD201             BCS.N    ??OBJ_GetEntryOffset_5
    705                          bitOffset += pEntry->BitLength;
   \       0x34   0x8872             LDRH     R2,[R6, #+2]
   \       0x36   0x18D3             ADDS     R3,R2,R3
    706                      break;
   \                     ??OBJ_GetEntryOffset_5: (+1)
   \       0x38   0xE000             B.N      ??OBJ_GetEntryOffset_6
   \                     ??OBJ_GetEntryOffset_7: (+1)
   \       0x3A   0x3320             ADDS     R3,R3,#+32
   \                     ??OBJ_GetEntryOffset_8: (+1)
   \                     ??OBJ_GetEntryOffset_6: (+1)
   \       0x3C   0x1C6D             ADDS     R5,R5,#+1
   \                     ??OBJ_GetEntryOffset_3: (+1)
   \       0x3E   0x0002             MOVS     R2,R0
   \       0x40   0xB2D2             UXTB     R2,R2            ;; ZeroExt  R2,R2,#+24,#+24
   \       0x42   0x002E             MOVS     R6,R5
   \       0x44   0xB292             UXTH     R2,R2            ;; ZeroExt  R2,R2,#+16,#+16
   \       0x46   0xB2B6             UXTH     R6,R6            ;; ZeroExt  R6,R6,#+16,#+16
   \       0x48   0x42B2             CMP      R2,R6
   \       0x4A   0xD356             BCC.N    ??OBJ_GetEntryOffset_9
   \       0x4C   0x0022             MOVS     R2,R4
   \       0x4E   0xB2D2             UXTB     R2,R2            ;; ZeroExt  R2,R2,#+24,#+24
   \       0x50   0x2A08             CMP      R2,#+8
   \       0x52   0xD102             BNE.N    ??OBJ_GetEntryOffset_10
   \       0x54   0x690A             LDR      R2,[R1, #+16]
   \       0x56   0x1D96             ADDS     R6,R2,#+6
   \       0x58   0xE005             B.N      ??OBJ_GetEntryOffset_11
   \                     ??OBJ_GetEntryOffset_10: (+1)
   \       0x5A   0x690E             LDR      R6,[R1, #+16]
   \       0x5C   0x002F             MOVS     R7,R5
   \       0x5E   0xB2BF             UXTH     R7,R7            ;; ZeroExt  R7,R7,#+16,#+16
   \       0x60   0x2206             MOVS     R2,#+6
   \       0x62   0x4357             MULS     R7,R2,R7
   \       0x64   0x443E             ADD      R6,R6,R7
   \                     ??OBJ_GetEntryOffset_11: (+1)
   \       0x66   0x8832             LDRH     R2,[R6, #+0]
   \       0x68   0x1ED2             SUBS     R2,R2,#+3
   \       0x6A   0xD018             BEQ.N    ??OBJ_GetEntryOffset_12
   \       0x6C   0x1E52             SUBS     R2,R2,#+1
   \       0x6E   0xD02C             BEQ.N    ??OBJ_GetEntryOffset_13
   \       0x70   0x1E92             SUBS     R2,R2,#+2
   \       0x72   0xD014             BEQ.N    ??OBJ_GetEntryOffset_12
   \       0x74   0x1E52             SUBS     R2,R2,#+1
   \       0x76   0x2A01             CMP      R2,#+1
   \       0x78   0xD927             BLS.N    ??OBJ_GetEntryOffset_13
   \       0x7A   0x1F12             SUBS     R2,R2,#+4
   \       0x7C   0xD00F             BEQ.N    ??OBJ_GetEntryOffset_12
   \       0x7E   0x3A14             SUBS     R2,R2,#+20
   \       0x80   0xD00D             BEQ.N    ??OBJ_GetEntryOffset_12
   \       0x82   0x1E52             SUBS     R2,R2,#+1
   \       0x84   0xD021             BEQ.N    ??OBJ_GetEntryOffset_13
   \       0x86   0x3A0E             SUBS     R2,R2,#+14
   \       0x88   0xD009             BEQ.N    ??OBJ_GetEntryOffset_12
   \       0x8A   0x1E52             SUBS     R2,R2,#+1
   \       0x8C   0xD01D             BEQ.N    ??OBJ_GetEntryOffset_13
   \       0x8E   0xF240 0x2731      MOVW     R7,#+561
   \       0x92   0x1BD2             SUBS     R2,R2,R7
   \       0x94   0xD003             BEQ.N    ??OBJ_GetEntryOffset_12
   \       0x96   0x1E92             SUBS     R2,R2,#+2
   \       0x98   0x2A01             CMP      R2,#+1
   \       0x9A   0xD916             BLS.N    ??OBJ_GetEntryOffset_13
   \       0x9C   0xE7C3             B.N      ??OBJ_GetEntryOffset_4
   \                     ??OBJ_GetEntryOffset_12: (+1)
   \       0x9E   0x330F             ADDS     R3,R3,#+15
   \       0xA0   0xF64F 0x72F0      MOVW     R2,#+65520
   \       0xA4   0x4013             ANDS     R3,R2,R3
   \       0xA6   0x002A             MOVS     R2,R5
   \       0xA8   0x0007             MOVS     R7,R0
   \       0xAA   0xB2FF             UXTB     R7,R7            ;; ZeroExt  R7,R7,#+24,#+24
   \       0xAC   0xB292             UXTH     R2,R2            ;; ZeroExt  R2,R2,#+16,#+16
   \       0xAE   0xB2BF             UXTH     R7,R7            ;; ZeroExt  R7,R7,#+16,#+16
   \       0xB0   0x42BA             CMP      R2,R7
   \       0xB2   0xD209             BCS.N    ??OBJ_GetEntryOffset_14
   \       0xB4   0x8832             LDRH     R2,[R6, #+0]
   \       0xB6   0x2A0B             CMP      R2,#+11
   \       0xB8   0xD003             BEQ.N    ??OBJ_GetEntryOffset_15
   \       0xBA   0x8832             LDRH     R2,[R6, #+0]
   \       0xBC   0xF5B2 0x7F18      CMP      R2,#+608
   \       0xC0   0xD101             BNE.N    ??OBJ_GetEntryOffset_16
   \                     ??OBJ_GetEntryOffset_15: (+1)
   \       0xC2   0x8872             LDRH     R2,[R6, #+2]
   \       0xC4   0x18D3             ADDS     R3,R2,R3
   \                     ??OBJ_GetEntryOffset_16: (+1)
   \       0xC6   0x3310             ADDS     R3,R3,#+16
   \                     ??OBJ_GetEntryOffset_14: (+1)
   \       0xC8   0xE7B8             B.N      ??OBJ_GetEntryOffset_6
   \                     ??OBJ_GetEntryOffset_13: (+1)
   \       0xCA   0x331F             ADDS     R3,R3,#+31
   \       0xCC   0xF64F 0x72E0      MOVW     R2,#+65504
   \       0xD0   0x4013             ANDS     R3,R2,R3
   \       0xD2   0x002A             MOVS     R2,R5
   \       0xD4   0x0007             MOVS     R7,R0
   \       0xD6   0xB2FF             UXTB     R7,R7            ;; ZeroExt  R7,R7,#+24,#+24
   \       0xD8   0xB292             UXTH     R2,R2            ;; ZeroExt  R2,R2,#+16,#+16
   \       0xDA   0xB2BF             UXTH     R7,R7            ;; ZeroExt  R7,R7,#+16,#+16
   \       0xDC   0x42BA             CMP      R2,R7
   \       0xDE   0xD2AD             BCS.N    ??OBJ_GetEntryOffset_8
   \       0xE0   0x8832             LDRH     R2,[R6, #+0]
   \       0xE2   0xF240 0x2762      MOVW     R7,#+610
   \       0xE6   0x42BA             CMP      R2,R7
   \       0xE8   0xD004             BEQ.N    ??OBJ_GetEntryOffset_17
   \       0xEA   0x8832             LDRH     R2,[R6, #+0]
   \       0xEC   0xF240 0x2763      MOVW     R7,#+611
   \       0xF0   0x42BA             CMP      R2,R7
   \       0xF2   0xD1A2             BNE.N    ??OBJ_GetEntryOffset_7
   \                     ??OBJ_GetEntryOffset_17: (+1)
   \       0xF4   0x8872             LDRH     R2,[R6, #+2]
   \       0xF6   0x18D3             ADDS     R3,R2,R3
   \       0xF8   0xE7A0             B.N      ??OBJ_GetEntryOffset_8
    707                  }
    708              }
    709          
    710              return bitOffset;
   \                     ??OBJ_GetEntryOffset_9: (+1)
   \       0xFA   0x0018             MOVS     R0,R3
   \       0xFC   0xB280             UXTH     R0,R0            ;; ZeroExt  R0,R0,#+16,#+16
   \                     ??OBJ_GetEntryOffset_2: (+1)
   \       0xFE   0xBCF0             POP      {R4-R7}
   \      0x100   0x4770             BX       LR               ;; return
    711          }
    712          
    713          /////////////////////////////////////////////////////////////////////////////////////////
    714          /**
    715           \param     index                 index of the SyncManager Parameter object
    716           \param     NewSyncType           New value for the Sync Type (SubIndex 1)
    717          
    718           \return    result                Result of the value validation
    719          
    720           \brief    Checks if the new Sync type value is valid
    721          *////////////////////////////////////////////////////////////////////////////////////////

   \                                 In section .text, align 2, keep-with-next
    722          UINT8 CheckSyncTypeValue(UINT16 index, UINT16 NewSyncType)
    723          {
    724              /*ECATCHANGE_START(V5.11) ESM7*/
    725              switch (NewSyncType)
   \                     CheckSyncTypeValue: (+1)
   \        0x0   0xB289             UXTH     R1,R1            ;; ZeroExt  R1,R1,#+16,#+16
   \        0x2   0x2900             CMP      R1,#+0
   \        0x4   0xD004             BEQ.N    ??CheckSyncTypeValue_0
   \        0x6   0x2901             CMP      R1,#+1
   \        0x8   0xD004             BEQ.N    ??CheckSyncTypeValue_1
   \        0xA   0x2922             CMP      R1,#+34
   \        0xC   0xD02F             BEQ.N    ??CheckSyncTypeValue_2
   \        0xE   0xE041             B.N      ??CheckSyncTypeValue_3
    726              {
    727              case SYNCTYPE_FREERUN:
    728                  return 0; //free run sync mode is always accepted
   \                     ??CheckSyncTypeValue_0: (+1)
   \       0x10   0x2000             MOVS     R0,#+0
   \       0x12   0xE040             B.N      ??CheckSyncTypeValue_4
    729              case SYNCTYPE_SM_SYNCHRON:
    730                  if ((index == 0x1C32)
    731                      && (nPdOutputSize > 0)
    732                      && ((sSyncManOutPar.u16SyncTypesSupported & SYNCTYPE_SYNCHRONSUPP) > 0))
   \                     ??CheckSyncTypeValue_1: (+1)
   \       0x14   0x0001             MOVS     R1,R0
   \       0x16   0xF641 0x4232      MOVW     R2,#+7218
   \       0x1A   0xB289             UXTH     R1,R1            ;; ZeroExt  R1,R1,#+16,#+16
   \       0x1C   0x4291             CMP      R1,R2
   \       0x1E   0xD10D             BNE.N    ??CheckSyncTypeValue_5
   \       0x20   0x.... 0x....      LDR.W    R1,??DataTable5_1
   \       0x24   0x8809             LDRH     R1,[R1, #+0]
   \       0x26   0x2900             CMP      R1,#+0
   \       0x28   0xD008             BEQ.N    ??CheckSyncTypeValue_5
   \       0x2A   0x.... 0x....      LDR.W    R1,??DataTable5_2
   \       0x2E   0x7B09             LDRB     R1,[R1, #+12]
   \       0x30   0xF011 0x0102      ANDS     R1,R1,#0x2
   \       0x34   0x2901             CMP      R1,#+1
   \       0x36   0xDB01             BLT.N    ??CheckSyncTypeValue_5
    733                  {
    734                      /*SyncManager sync mode is supported and output process data is configured*/
    735                      return 0;
   \       0x38   0x2000             MOVS     R0,#+0
   \       0x3A   0xE02C             B.N      ??CheckSyncTypeValue_4
    736                  }
    737                  else
    738                  if ((index == 0x1C33)
    739                      && ((sSyncManInPar.u16SyncTypesSupported & SYNCTYPE_SYNCHRONSUPP) > 0)
    740                      && (nPdOutputSize == 0)
    741                      && (nPdInputSize > 0))
   \                     ??CheckSyncTypeValue_5: (+1)
   \       0x3C   0xF641 0x4133      MOVW     R1,#+7219
   \       0x40   0xB280             UXTH     R0,R0            ;; ZeroExt  R0,R0,#+16,#+16
   \       0x42   0x4288             CMP      R0,R1
   \       0x44   0xD112             BNE.N    ??CheckSyncTypeValue_6
   \       0x46   0x.... 0x....      LDR.W    R0,??DataTable5_3
   \       0x4A   0x7B00             LDRB     R0,[R0, #+12]
   \       0x4C   0xF010 0x0002      ANDS     R0,R0,#0x2
   \       0x50   0x2801             CMP      R0,#+1
   \       0x52   0xDB0B             BLT.N    ??CheckSyncTypeValue_6
   \       0x54   0x.... 0x....      LDR.W    R0,??DataTable5_1
   \       0x58   0x8800             LDRH     R0,[R0, #+0]
   \       0x5A   0x2800             CMP      R0,#+0
   \       0x5C   0xD106             BNE.N    ??CheckSyncTypeValue_6
   \       0x5E   0x.... 0x....      LDR.W    R0,??DataTable5_4
   \       0x62   0x8800             LDRH     R0,[R0, #+0]
   \       0x64   0x2800             CMP      R0,#+0
   \       0x66   0xD001             BEQ.N    ??CheckSyncTypeValue_6
    742                      {
    743                          /*SyncManager sync mode is supported and input only shall be configured*/
    744                          return 0;
   \       0x68   0x2000             MOVS     R0,#+0
   \       0x6A   0xE014             B.N      ??CheckSyncTypeValue_4
    745                      }
    746                  break;
   \                     ??CheckSyncTypeValue_6: (+1)
   \       0x6C   0xE012             B.N      ??CheckSyncTypeValue_3
    747          
    748              case SYNCTYPE_SM2_SYNCHRON:
    749                  if ((index == 0x1C33)
    750                      && ((sSyncManInPar.u16SyncTypesSupported & SYNCTYPE_SYNCHRONSUPP) > 0)
    751                      && (nPdOutputSize > 0))
   \                     ??CheckSyncTypeValue_2: (+1)
   \       0x6E   0xF641 0x4133      MOVW     R1,#+7219
   \       0x72   0xB280             UXTH     R0,R0            ;; ZeroExt  R0,R0,#+16,#+16
   \       0x74   0x4288             CMP      R0,R1
   \       0x76   0xD10D             BNE.N    ??CheckSyncTypeValue_7
   \       0x78   0x.... 0x....      LDR.W    R0,??DataTable5_3
   \       0x7C   0x7B00             LDRB     R0,[R0, #+12]
   \       0x7E   0xF010 0x0002      ANDS     R0,R0,#0x2
   \       0x82   0x2801             CMP      R0,#+1
   \       0x84   0xDB06             BLT.N    ??CheckSyncTypeValue_7
   \       0x86   0x.... 0x....      LDR.W    R0,??DataTable5_1
   \       0x8A   0x8800             LDRH     R0,[R0, #+0]
   \       0x8C   0x2800             CMP      R0,#+0
   \       0x8E   0xD001             BEQ.N    ??CheckSyncTypeValue_7
    752                      {
    753                          /*SyncManager sync mode is supported and outputs are defined*/
    754                          return 0;
   \       0x90   0x2000             MOVS     R0,#+0
   \       0x92   0xE000             B.N      ??CheckSyncTypeValue_4
    755                      }
    756                  break;
    757          
    758              } //switch
    759          /*ECATCHANGE_END(V5.11) ESM7*/
    760              return ABORTIDX_VALUE_EXCEEDED;
   \                     ??CheckSyncTypeValue_7: (+1)
   \                     ??CheckSyncTypeValue_3: (+1)
   \       0x94   0x2012             MOVS     R0,#+18
   \                     ??CheckSyncTypeValue_4: (+1)
   \       0x96   0x4770             BX       LR               ;; return
    761          
    762          }
    763          
    764          /////////////////////////////////////////////////////////////////////////////////////////
    765          /**
    766           \param     index                 index of the requested object.
    767           \param     subindex                subindex of the requested object.
    768           \param    objSize                Size of the object, returned by the function OBJ_GetObjectLength
    769                                               which was called before
    770           \param     pObjEntry            handle to the dictionary object returned by
    771                                               OBJ_GetObjectHandle which was called before
    772           \param    pData                    Pointer to the buffer where the read data shall be copied to
    773           \param    bCompleteAccess    Indicates if a complete read of all subindices of the
    774                                               object shall be done or not
    775          
    776           \return    result of the read operation (0 (success) or an abort code (ABORTIDX_.... defined in
    777                      sdosrv.h))
    778          
    779           \brief    This function reads the requested object
    780          *////////////////////////////////////////////////////////////////////////////////////////
    781          

   \                                 In section .text, align 2, keep-with-next
    782          UINT8 OBJ_Read( UINT16 index, UINT8 subindex, UINT32 objSize, OBJCONST TOBJECT OBJMEM * pObjEntry, UINT16 MBXMEM * pData, UINT8 bCompleteAccess )
    783          {
   \                     OBJ_Read: (+1)
   \        0x0   0xE92D 0x4FF1      PUSH     {R0,R4-R11,LR}
   \        0x4   0xB082             SUB      SP,SP,#+8
   \        0x6   0x000C             MOVS     R4,R1
   \        0x8   0x0017             MOVS     R7,R2
   \        0xA   0x001D             MOVS     R5,R3
    784              UINT16 i = subindex;
   \        0xC   0x0021             MOVS     R1,R4
   \        0xE   0xB2C9             UXTB     R1,R1            ;; ZeroExt  R1,R1,#+24,#+24
    785              /* get the information of ObjCode and MaxSubindex in local variables to support different types of microcontroller */
    786              UINT8 objCode = (pObjEntry->ObjDesc.ObjFlags & OBJFLAGS_OBJCODEMASK) >> OBJFLAGS_OBJCODESHIFT;
   \       0x10   0x89A8             LDRH     R0,[R5, #+12]
   \       0x12   0x1200             ASRS     R0,R0,#+8
   \       0x14   0xF010 0x000F      ANDS     R0,R0,#0xF
   \       0x18   0xF88D 0x0000      STRB     R0,[SP, #+0]
    787              UINT16 maxSubindex = (pObjEntry->ObjDesc.ObjFlags & OBJFLAGS_MAXSUBINDEXMASK) >> OBJFLAGS_MAXSUBINDEXSHIFT;
   \       0x1C   0x7B28             LDRB     R0,[R5, #+12]
   \       0x1E   0xF000 0x00FF      AND      R0,R0,#0xFF
   \       0x22   0xF8AD 0x0002      STRH     R0,[SP, #+2]
    788              OBJCONST TSDOINFOENTRYDESC OBJMEM *pEntry;
    789              /* lastSubindex is used for complete access to make loop over the requested entries
    790              to be read, we initialize this variable with the requested subindex that only
    791              one loop will be done for a single access */
    792              UINT16 lastSubindex = subindex;
   \       0x26   0x0020             MOVS     R0,R4
   \       0x28   0xB2C0             UXTB     R0,R0            ;; ZeroExt  R0,R0,#+24,#+24
   \       0x2A   0xF8AD 0x0004      STRH     R0,[SP, #+4]
    793          
    794              if ( objCode != OBJCODE_VAR && index >= 0x1000 )
   \       0x2E   0xF89D 0x0000      LDRB     R0,[SP, #+0]
   \       0x32   0x2807             CMP      R0,#+7
   \       0x34   0xD00A             BEQ.N    ??OBJ_Read_0
   \       0x36   0xF8BD 0x0008      LDRH     R0,[SP, #+8]
   \       0x3A   0xF5B0 0x5F80      CMP      R0,#+4096
   \       0x3E   0xDB05             BLT.N    ??OBJ_Read_0
    795              {
    796                  /* if the object is an array or record we have to get the maxSubindex from the
    797                  actual value of subindex 0, which is stored as UINT16 at the beginning of the
    798                  object's variable */
    799                  maxSubindex = (*((UINT16 *) (pObjEntry->pVarPtr))) & 0x00FF;
   \       0x40   0x69A8             LDR      R0,[R5, #+24]
   \       0x42   0x7800             LDRB     R0,[R0, #+0]
   \       0x44   0xF000 0x00FF      AND      R0,R0,#0xFF
   \       0x48   0xF8AD 0x0002      STRH     R0,[SP, #+2]
    800          
    801              }
    802          
    803              if ( bCompleteAccess )
   \                     ??OBJ_Read_0: (+1)
   \       0x4C   0xF89D 0x0034      LDRB     R0,[SP, #+52]
   \       0x50   0x2800             CMP      R0,#+0
   \       0x52   0xD01E             BEQ.N    ??OBJ_Read_1
    804              {
    805                  if ( objCode == OBJCODE_VAR || index < 0x1000 )
   \       0x54   0xF89D 0x0000      LDRB     R0,[SP, #+0]
   \       0x58   0x2807             CMP      R0,#+7
   \       0x5A   0xD004             BEQ.N    ??OBJ_Read_2
   \       0x5C   0xF8BD 0x0008      LDRH     R0,[SP, #+8]
   \       0x60   0xF5B0 0x5F80      CMP      R0,#+4096
   \       0x64   0xDA01             BGE.N    ??OBJ_Read_3
    806                  {
    807                      /* complete access is not supported with simple objects or ENUM descriptions */
    808                      return ABORTIDX_UNSUPPORTED_ACCESS;
   \                     ??OBJ_Read_2: (+1)
   \       0x66   0x2005             MOVS     R0,#+5
   \       0x68   0xE080             B.N      ??OBJ_Read_4
    809                  }
    810          
    811                  /* we read until the maximum subindex */
    812                  lastSubindex = maxSubindex;
   \                     ??OBJ_Read_3: (+1)
   \       0x6A   0xF8BD 0x0002      LDRH     R0,[SP, #+2]
   \       0x6E   0xF8AD 0x0004      STRH     R0,[SP, #+4]
   \                     ??OBJ_Read_5: (+1)
   \       0x72   0x9E0C             LDR      R6,[SP, #+48]
    813              }
    814              else
    815                  if ( subindex > maxSubindex )
    816                  {
    817                      /* the maximum subindex is reached */
    818                      return ABORTIDX_SUBINDEX_NOT_EXISTING;
    819                  }
    820                  else
    821                  {
    822                      /* get the corresponding entry description */
    823                      pEntry = OBJ_GetEntryDesc(pObjEntry, (UINT8)i);
    824          
    825                      /*Check access only for non-align entries*/
    826                      if(pEntry->ObjAccess != 0x0)
    827                      {
    828                          /* check if we have read access (bits 0-2 (PREOP, SAFEOP, OP) of ObjAccess)
    829                          by comparing with the actual state (bits 1-3 (PREOP, SAFEOP, OP) of AL Status) */
    830                          if ( ((UINT8) ((pEntry->ObjAccess & ACCESS_READ)<<1)) < (nAlStatus & STATE_MASK) )
    831                          {
    832                              /* we don't have read access */
    833                              if ( (pEntry->ObjAccess & ACCESS_READ) == 0 )
    834                              {
    835                                  /* it is a write only entry */
    836                                  return ABORTIDX_WRITE_ONLY_ENTRY;
    837                              }
    838                              else
    839                              {
    840                                  /* we don't have read access in this state */
    841                                  return ABORTIDX_IN_THIS_STATE_DATA_CANNOT_BE_READ_OR_STORED;
    842                              }
    843                          }
    844                      }
    845                  }
    846                  if ( pObjEntry->Read != NULL )
   \       0x74   0x69E8             LDR      R0,[R5, #+28]
   \       0x76   0x2800             CMP      R0,#+0
   \       0x78   0xD02F             BEQ.N    ??OBJ_Read_6
    847                  {
    848                      /* Read function is defined, we call the object specific read function */
    849                      return pObjEntry->Read(index, subindex, objSize, pData, bCompleteAccess);
   \       0x7A   0xF89D 0x0034      LDRB     R0,[SP, #+52]
   \       0x7E   0x9000             STR      R0,[SP, #+0]
   \       0x80   0x0033             MOVS     R3,R6
   \       0x82   0x003A             MOVS     R2,R7
   \       0x84   0x0021             MOVS     R1,R4
   \       0x86   0xB2C9             UXTB     R1,R1            ;; ZeroExt  R1,R1,#+24,#+24
   \       0x88   0xF8BD 0x0008      LDRH     R0,[SP, #+8]
   \       0x8C   0x69EC             LDR      R4,[R5, #+28]
   \       0x8E   0x47A0             BLX      R4
   \       0x90   0xE06C             B.N      ??OBJ_Read_4
    850                  }
   \                     ??OBJ_Read_1: (+1)
   \       0x92   0xF8BD 0x0002      LDRH     R0,[SP, #+2]
   \       0x96   0x0022             MOVS     R2,R4
   \       0x98   0xB2D2             UXTB     R2,R2            ;; ZeroExt  R2,R2,#+24,#+24
   \       0x9A   0xB292             UXTH     R2,R2            ;; ZeroExt  R2,R2,#+16,#+16
   \       0x9C   0x4290             CMP      R0,R2
   \       0x9E   0xD201             BCS.N    ??OBJ_Read_7
   \       0xA0   0x2011             MOVS     R0,#+17
   \       0xA2   0xE063             B.N      ??OBJ_Read_4
   \                     ??OBJ_Read_7: (+1)
   \       0xA4   0xB2C9             UXTB     R1,R1            ;; ZeroExt  R1,R1,#+24,#+24
   \       0xA6   0x0028             MOVS     R0,R5
   \       0xA8   0x.... 0x....      BL       OBJ_GetEntryDesc
   \       0xAC   0x0001             MOVS     R1,R0
   \       0xAE   0x8888             LDRH     R0,[R1, #+4]
   \       0xB0   0x2800             CMP      R0,#+0
   \       0xB2   0xD0DE             BEQ.N    ??OBJ_Read_5
   \       0xB4   0x8888             LDRH     R0,[R1, #+4]
   \       0xB6   0x0040             LSLS     R0,R0,#+1
   \       0xB8   0xF010 0x000E      ANDS     R0,R0,#0xE
   \       0xBC   0x.... 0x....      LDR.W    R2,??DataTable5_5
   \       0xC0   0x7812             LDRB     R2,[R2, #+0]
   \       0xC2   0xF012 0x020F      ANDS     R2,R2,#0xF
   \       0xC6   0x4290             CMP      R0,R2
   \       0xC8   0xDAD3             BGE.N    ??OBJ_Read_5
   \       0xCA   0x7908             LDRB     R0,[R1, #+4]
   \       0xCC   0xF010 0x0F07      TST      R0,#0x7
   \       0xD0   0xD101             BNE.N    ??OBJ_Read_8
   \       0xD2   0x2006             MOVS     R0,#+6
   \       0xD4   0xE04A             B.N      ??OBJ_Read_4
   \                     ??OBJ_Read_8: (+1)
   \       0xD6   0x201A             MOVS     R0,#+26
   \       0xD8   0xE048             B.N      ??OBJ_Read_4
    851                  else if ( index < 0x1000 && subindex != 0 )
   \                     ??OBJ_Read_6: (+1)
   \       0xDA   0xF8BD 0x0008      LDRH     R0,[SP, #+8]
   \       0xDE   0xF5B0 0x5F80      CMP      R0,#+4096
   \       0xE2   0xDA51             BGE.N    ??OBJ_Read_9
   \       0xE4   0x0020             MOVS     R0,R4
   \       0xE6   0xB2C0             UXTB     R0,R0            ;; ZeroExt  R0,R0,#+24,#+24
   \       0xE8   0x2800             CMP      R0,#+0
   \       0xEA   0xD04D             BEQ.N    ??OBJ_Read_9
    852                  {
    853                      /* an ENUM description is read */
    854                      UINT16 size;
    855                      UINT16 MBXMEM *pVarPtr = (UINT16 MBXMEM *) pObjEntry->pVarPtr;
   \       0xEC   0x69AF             LDR      R7,[R5, #+24]
    856                      CHAR **p;
    857          
    858                      /* we get the corresponding entry description */
    859                      pEntry = OBJ_GetEntryDesc(pObjEntry, subindex);
   \       0xEE   0x0021             MOVS     R1,R4
   \       0xF0   0xB2C9             UXTB     R1,R1            ;; ZeroExt  R1,R1,#+24,#+24
   \       0xF2   0x0028             MOVS     R0,R5
   \       0xF4   0x.... 0x....      BL       OBJ_GetEntryDesc
    860                      size = BIT2BYTE(pEntry->BitLength);
   \       0xF8   0x8842             LDRH     R2,[R0, #+2]
   \       0xFA   0x1DD2             ADDS     R2,R2,#+7
   \       0xFC   0x10D2             ASRS     R2,R2,#+3
    861          
    862                      p = (CHAR **) pVarPtr;
    863                      pVarPtr = (UINT16 MBXMEM *)p[subindex-1];
   \       0xFE   0xB2E4             UXTB     R4,R4            ;; ZeroExt  R4,R4,#+24,#+24
   \      0x100   0xEB07 0x0084      ADD      R0,R7,R4, LSL #+2
   \      0x104   0xF850 0x0C04      LDR      R0,[R0, #-4]
    864          
    865                      if((((UINT16)pVarPtr) & 0x1) == 0x1)
                                  ^
Warning[Pe767]: conversion from pointer to smaller integer
   \      0x108   0x0001             MOVS     R1,R0
   \      0x10A   0xB289             UXTH     R1,R1            ;; ZeroExt  R1,R1,#+16,#+16
   \      0x10C   0x07C9             LSLS     R1,R1,#+31
   \      0x10E   0xD52F             BPL.N    ??OBJ_Read_10
    866                      {
    867                          /*enum is stored at an odd address*/
    868                          UINT16 cnt = 0;
   \      0x110   0x2100             MOVS     R1,#+0
    869          
    870                          //get last even WORD address
    871          /*ECATCHANGE_START(V5.11) SDO3*/
    872                          pVarPtr = (UINT16 MBXMEM *)(((MEM_ADDR_EC)pVarPtr) & ~(MEM_ADDR_EC)0x1);
                                                              ^
Warning[Pe767]: conversion from pointer to smaller integer
Warning[Ms014]: some characters could not be correctly encoded in
          "E:\DESKTOP\@@@\@@@@\Intergrated\Project\IAR\Debug\List\objdef.s",
          and have been replaced with '@'. The first such character has unicode
          code point 0x79d1 ("@")
   \      0x112   0xB280             UXTH     R0,R0            ;; ZeroExt  R0,R0,#+16,#+16
   \      0x114   0xF030 0x0001      BICS     R0,R0,#0x1
    873          /*ECATCHANGE_END(V5.11) SDO3*/
    874          
    875                          for(cnt = 0; cnt < (size / 2);cnt++)
   \      0x118   0x2100             MOVS     R1,#+0
   \      0x11A   0xE00B             B.N      ??OBJ_Read_11
    876                          {
    877                              //clear destination buffer
    878                              pData[0] = (pVarPtr[0] & 0xFF00) >> 8;
   \                     ??OBJ_Read_12: (+1)
   \      0x11C   0x8803             LDRH     R3,[R0, #+0]
   \      0x11E   0xB29B             UXTH     R3,R3            ;; ZeroExt  R3,R3,#+16,#+16
   \      0x120   0x0A1B             LSRS     R3,R3,#+8
   \      0x122   0x8033             STRH     R3,[R6, #+0]
    879                              pData[0] |= (pVarPtr[1] & 0xFF) << 8;
   \      0x124   0x8833             LDRH     R3,[R6, #+0]
   \      0x126   0x8844             LDRH     R4,[R0, #+2]
   \      0x128   0xEA53 0x2304      ORRS     R3,R3,R4, LSL #+8
   \      0x12C   0x8033             STRH     R3,[R6, #+0]
    880          
    881                              pData++;
   \      0x12E   0x1CB6             ADDS     R6,R6,#+2
    882                              pVarPtr++;
   \      0x130   0x1C80             ADDS     R0,R0,#+2
    883                          }
   \      0x132   0x1C49             ADDS     R1,R1,#+1
   \                     ??OBJ_Read_11: (+1)
   \      0x134   0x0013             MOVS     R3,R2
   \      0x136   0xB29B             UXTH     R3,R3            ;; ZeroExt  R3,R3,#+16,#+16
   \      0x138   0x2402             MOVS     R4,#+2
   \      0x13A   0xFB93 0xF3F4      SDIV     R3,R3,R4
   \      0x13E   0x000C             MOVS     R4,R1
   \      0x140   0xB2A4             UXTH     R4,R4            ;; ZeroExt  R4,R4,#+16,#+16
   \      0x142   0x429C             CMP      R4,R3
   \      0x144   0xDBEA             BLT.N    ??OBJ_Read_12
    884          
    885                          if((size % 2) == 1)
   \      0x146   0xB292             UXTH     R2,R2            ;; ZeroExt  R2,R2,#+16,#+16
   \      0x148   0x2102             MOVS     R1,#+2
   \      0x14A   0xFB92 0xF3F1      SDIV     R3,R2,R1
   \      0x14E   0xFB01 0x2213      MLS      R2,R1,R3,R2
   \      0x152   0x2A01             CMP      R2,#+1
   \      0x154   0xD109             BNE.N    ??OBJ_Read_13
    886                          {
    887                              pData[0] &= 0xFF00; //Clear last Byte
   \      0x156   0x8831             LDRH     R1,[R6, #+0]
   \      0x158   0xF411 0x417F      ANDS     R1,R1,#0xFF00
   \      0x15C   0x8031             STRH     R1,[R6, #+0]
    888                              pData[0] |= (pVarPtr[0] & 0xFF00) >> 8; //Write last byte
   \      0x15E   0x8831             LDRH     R1,[R6, #+0]
   \      0x160   0x8800             LDRH     R0,[R0, #+0]
   \      0x162   0xB280             UXTH     R0,R0            ;; ZeroExt  R0,R0,#+16,#+16
   \      0x164   0xEA51 0x2110      ORRS     R1,R1,R0, LSR #+8
   \      0x168   0x8031             STRH     R1,[R6, #+0]
    889                          }
    890                      }
    891                      else
    892                      {
    893                      // Get enum value (first 32Bit)
    894                      pData[0] = pVarPtr[0];
    895                      pData[1] = pVarPtr[1];
    896                      pData += 2;
    897                      pVarPtr += 2;
    898          
    899                      // Get enum description
    900                      OBJTOMBXSTRCPY(pData,pVarPtr,size-4);
    901                      }
    902                  }
    903                  else
    904                  {
    905                      UINT8 bRead = 0x0;
    906                      UINT8 result = 0;
    907          
    908          
    909                      /* a variable object is read */
    910                      for (i = subindex; i <= lastSubindex; i++)
    911                      {
    912                          /* if only a single entry is requested, this loop will only be done once */
    913                          UINT16 MBXMEM *pVarPtr = (UINT16 MBXMEM *) pObjEntry->pVarPtr;
    914                          UINT16 bitOffset = 0;
    915          
    916                          if (i == 0)
    917                          {
    918                              /* subindex 0 is requested, the entry's data is at the beginning of the object's variable */
    919                          }
    920                          else if ( index >= 0x1000 )
    921                          {
    922                              /* subindex 1-n of an variable object is requested, we get the offset of the variable here */
    923                              bitOffset = OBJ_GetEntryOffset((UINT8)i, pObjEntry);
    924                          }
    925          
    926                          /* we increment the variable pointer to the corresponding word address */
    927                          pVarPtr += (bitOffset >> 4);
    928          
    929                          /* get the corresponding entry description */
    930                          pEntry = OBJ_GetEntryDesc(pObjEntry, (UINT8)i);
    931          
    932                          if ( ((UINT8) ((pEntry->ObjAccess & ACCESS_READ)<<1)) >= (nAlStatus & STATE_MASK) )
    933                          {
    934                              if ( i == subindex                                     /* requested entry */
    935                                  || (bCompleteAccess && i >= subindex) )       /* complete access and entry should be read */
    936                              {
    937                                  UINT16 bitMask;
    938          
    939                                  /* we have to copy the entry */
    940                                  if ( i == 0 && objCode != OBJCODE_VAR )
    941                                  {
    942                                      /* we read subindex 0 of an array or record */
    943                                      {
    944                                          pData[0] = SWAPWORD((UINT16)maxSubindex);
    945                                      }
    946          
    947                                      /* we increment the destination pointer by 2 because the subindex 0 will be
    948                                      transmitted as UINT16 for a complete access */
    949                                      pData++;
    950                                  }
    951                                  else
    952                                  {
    953                                      UINT16 dataType = pEntry->DataType;
    954                                      if (pEntry->DataType >= 0x700)
    955                                      {
    956                                          /* the ENUM data types are defined from index 0x700 in this example
    957                                          convert in standard data type for the read access */
    958                                          if ( pEntry->BitLength <= 8 )
    959                                              dataType = DEFTYPE_BIT1-1+pEntry->BitLength;
    960                                          else if ( pEntry->BitLength == 16 )
    961                                              dataType = DEFTYPE_UNSIGNED16;
    962                                          else if ( pEntry->BitLength == 32 )
    963                                              dataType = DEFTYPE_UNSIGNED32;
    964                                      }
    965          
    966                                      switch (dataType)
    967                                      {
    968                                      case DEFTYPE_NULL:
    969                                          if(bCompleteAccess)
    970                                          {
    971                                              /*Handle alignment entry*/
    972                                              if (((pEntry->BitLength & 0xF) > 0)
    973                                                  && (((bitOffset + pEntry->BitLength) & 0x0F) == 0 ))
    974                                              {
    975                                                  /* we have reached the UINT16 border */
    976                                                  pData++;
    977                                              }
    978          
    979                                              /*increment WORD offset*/
    980                                              pData += ((pEntry->BitLength & 0xF0) >> 4);
    981                                          }
    982                                          else
    983                                          {
    984                                              return ABORTIDX_DATA_CANNOT_BE_READ_OR_STORED;
    985                                          }
    986                                          break;
    987                                      case     DEFTYPE_BOOLEAN:
    988                                      case     DEFTYPE_BIT1:
    989                                      case     DEFTYPE_BIT2:
    990                                      case     DEFTYPE_BIT3:
    991                                      case     DEFTYPE_BIT4:
    992                                      case     DEFTYPE_BIT5:
    993                                      case     DEFTYPE_BIT6:
    994                                      case     DEFTYPE_BIT7:
    995                                      case     DEFTYPE_BIT8:
    996                                      case     DEFTYPE_BITARR8:
    997                                          /* in this example the objects are defined in that way,
    998                                          that the bit types are always inside a 16-bit field,
    999                                          and they shall not overlap a byte border*/
   1000                                      case    DEFTYPE_INTEGER8:
   1001                                      case    DEFTYPE_UNSIGNED8:
   1002          /*ECATCHANGE_START(V5.11) SDO9*/
   1003                                      case    DEFTYPE_BYTE :
   1004          /*ECATCHANGE_END(V5.11) SDO9*/
   1005                                          {
   1006                                              /* depending on the bitOffset we have to copy the Hi or the Lo-Byte */
   1007                                              UINT16 TmpValue = 0x0000;
   1008          
   1009                                              bitMask = cBitMask[pEntry->BitLength] << (bitOffset & 0x0F);
   1010          
   1011                                              /*Swap object data (if required); all masks and offsets are defined for little endian format*/
   1012                                              TmpValue = SWAPWORD(pVarPtr[0]);
   1013          
   1014                                              /*Clear pData if the first bits within the WORD memory will be copied*/
   1015                                              if ((bitOffset & 0x0F) == 0)
   1016                                              {
   1017                                                  pData[0] = 0;
   1018                                              }
   1019          
   1020          /* ECATCHANGE_START(V5.11) SDO7*/
   1021                                              pData[0] = SWAPWORD(pData[0]);
   1022          
   1023                                              if (bCompleteAccess)
   1024                                              {
   1025                                                  /*shifting is not required for Complete access because the bits are set to the correct offset by the master*/
   1026                                                  pData[0] |= TmpValue & bitMask;
   1027                                              }
   1028                                              else
   1029                                              {
   1030                                                  /*Shift Bits to the beginning of the mailbox memory*/
   1031                                                  pData[0] |= ((TmpValue & bitMask) >> (bitOffset & 0x0F));
   1032                                              }
   1033          
   1034                                              pData[0] = SWAPWORD(pData[0]);
   1035          /* ECATCHANGE_END(V5.11) SDO7*/
   1036                                              if ( ((bitOffset + pEntry->BitLength) & 0x0F) == 0 )
   1037                                              {
   1038                                                  /* we have reached the UINT16 border */
   1039                                                  pData++;
   1040                                              }
   1041          
   1042                                          }
   1043                                          break;
   1044                                      case    DEFTYPE_INTEGER16:
   1045                                      case    DEFTYPE_UNSIGNED16:
   1046                                      case    DEFTYPE_BITARR16:
   1047          /*ECATCHANGE_START(V5.11) SDO9*/
   1048                                      case    DEFTYPE_WORD:
   1049          /*ECATCHANGE_END(V5.11) SDO9*/
   1050          /*ECATCHANGE_START(V5.11) SDO1*/
   1051                                          if(bitOffset & 0xF)
   1052                                          {
   1053                                              /* return an error in case of an odd word offset (to support 16bit data type on odd word addresses an object specific access function need to be implemented and register in the object dictionary, see SSC Application Note)*/
   1054                                              return ABORTIDX_UNSUPPORTED_ACCESS;
   1055                                          }
   1056          /*ECATCHANGE_END(V5.11) SDO1*/
   1057                                          /* in this example the objects are defined in that way,
   1058                                          that the 16 bit type are always starting at an exact WORD offset */
   1059                                          pData[0] = SWAPWORD(pVarPtr[0]);
   1060                                          pData++;
   1061                                          break;
   1062                                      case    DEFTYPE_UNSIGNED32:
   1063                                      case    DEFTYPE_INTEGER32:
   1064                                      case    DEFTYPE_REAL32:
   1065                                      case    DEFTYPE_BITARR32:
   1066          /*ECATCHANGE_START(V5.11) SDO9*/
   1067                                      case    DEFTYPE_DWORD:
   1068          /*ECATCHANGE_END(V5.11) SDO9*/
   1069          /*ECATCHANGE_START(V5.11) SDO1*/
   1070                                          if(bitOffset & 0xF)
   1071                                          {
   1072                                              /* return an error in case of an odd word offset (to support 16bit data type on odd word addresses an object specific access function need to be implemented and register in the object dictionary, see SSC Application Note)*/
   1073                                              return ABORTIDX_UNSUPPORTED_ACCESS;
   1074                                          }
   1075          /*ECATCHANGE_END(V5.11) SDO1*/
   1076          
   1077                                          /* in this example the objects are defined in that way,
   1078                                          that the 32 bit type are always starting at an exact WORD offset */
   1079                                          pData[0] = pVarPtr[0];
   1080                                          pData[1] = pVarPtr[1];
   1081                                          pData += 2;
   1082                                          break;
   1083                                      case    DEFTYPE_REAL64:
   1084                                      case 	DEFTYPE_INTEGER64:
   1085                                      case    DEFTYPE_UNSIGNED64:
   1086          /*ECATCHANGE_START(V5.11) SDO1*/
   1087                                          if(bitOffset & 0xF)
   1088                                          {
   1089                                              /* return an error in case of an odd word offset (to support 16bit data type on odd word addresses an object specific access function need to be implemented and register in the object dictionary, see SSC Application Note)*/
   1090                                              return ABORTIDX_UNSUPPORTED_ACCESS;
   1091                                          }
   1092          /*ECATCHANGE_END(V5.11) SDO1*/
   1093          
   1094                                          /* in this example the objects are defined in that way,
   1095                                          that the 64 bit type are always starting at an exact WORD offset */
   1096                                          pData[0] = pVarPtr[0];
   1097                                          pData[1] = pVarPtr[1];
   1098                                          pData[2] = pVarPtr[2];
   1099                                          pData[3] = pVarPtr[3];
   1100                                          pData += 4;
   1101                                          break;
   1102                                      case    DEFTYPE_OCTETSTRING:
   1103                                      case    DEFTYPE_UNICODE_STRING:
   1104          /*ECATCHANGE_START(V5.11) SDO9*/
   1105                                      case DEFTYPE_ARRAY_OF_INT :
   1106                                      case DEFTYPE_ARRAY_OF_SINT :
   1107                                      case DEFTYPE_ARRAY_OF_DINT :
   1108                                      case DEFTYPE_ARRAY_OF_UDINT:
   1109          /*ECATCHANGE_END(V5.11) SDO9*/
   1110          /*ECATCHANGE_START(V5.11) SDO1*/
   1111                                          if(bitOffset & 0xF)
   1112                                          {
   1113                                              /* return an error in case of an odd word offset (to support 16bit data type on odd word addresses an object specific access function need to be implemented and register in the object dictionary, see SSC Application Note)*/
   1114                                              return ABORTIDX_UNSUPPORTED_ACCESS;
   1115                                          }
   1116          /*ECATCHANGE_END(V5.11) SDO1*/
   1117          
   1118                                          OBJTOMBXMEMCPY(pData, pVarPtr, BIT2BYTE(pEntry->BitLength));
   1119          
   1120          /*ECATCHANGE_START(V5.11) SDO2*/
   1121                                          pData += BIT2WORD((pEntry->BitLength & ~0xF));
   1122          
   1123                                          if((pEntry->BitLength & 0xF) != 0)
   1124                                          {
   1125                                              /*current entry has an odd word length => clear last byte of next word*/
   1126                                              *pData &= 0xFF;
   1127                                          }
   1128          /*ECATCHANGE_END(V5.11) SDO2*/
   1129          
   1130                                          break;
   1131                                      case    DEFTYPE_VISIBLESTRING:
   1132          /*ECATCHANGE_START(V5.11) SDO1*/
   1133                                          if(bitOffset & 0xF)
   1134                                          {
   1135                                              /* return an error in case of an odd word offset (to support 16bit data type on odd word addresses an object specific access function need to be implemented and register in the object dictionary, see SSC Application Note)*/
   1136                                              return ABORTIDX_UNSUPPORTED_ACCESS;
   1137                                          }
   1138          /*ECATCHANGE_END(V5.11) SDO1*/
   1139          
   1140                                          /* in this example the objects are defined in that way,
   1141                                          that these types are always starting at an even WORD offset */
   1142                                          OBJTOMBXSTRCPY(pData, pVarPtr, BIT2BYTE(pEntry->BitLength));
   1143          /*ECATCHANGE_START(V5.11) SDO2*/
   1144                                          pData += BIT2WORD((pEntry->BitLength & ~0xF));
   1145          
   1146                                          if((pEntry->BitLength & 0xF) != 0)
   1147                                          {
   1148                                              /*current entry has an odd word length => clear last byte of next word*/
   1149                                              *pData &= 0xFF;
   1150                                          }
   1151          /*ECATCHANGE_END(V5.11) SDO2*/
   1152          
   1153                                          break;
   1154                                      default:
   1155                                          /* other data types are not supported from this example */
   1156                                          return ABORTIDX_DATA_CANNOT_BE_READ_OR_STORED;
   1157                                      } //switch (deftype)
   1158          
   1159                                      bRead = 1;
   1160                                  }
   1161                              }
   1162                          }
   1163                          else
   1164                          {
   1165                              /*No access to current object entry => shift pData if required*/
   1166                              UINT8 cnt = 0;
   1167          
   1168                              /*If this entry is the first in the 16Bit block clear the memory*/
   1169                              if ((bitOffset & 0x0F) == 0)
   1170                              {
   1171                                  *pData = 0;
   1172                              }
   1173          
   1174                              /*Handle Bit/Byte Offset*/
   1175                              if (((pEntry->BitLength & 0xF) > 0)
   1176                                  && (((bitOffset + pEntry->BitLength) & 0x0F) == 0 ))
   1177                              {
   1178                                  /* we have reached the UINT16 border */
   1179                                  pData++;
   1180          
   1181                                  /*Clear new buffer*/
   1182                                  *pData = 0;
   1183                              }
   1184          
   1185                              /*increment WORD offset*/
   1186                              for(cnt = 0; cnt <((pEntry->BitLength & 0xF0) >> 4); cnt++)
   1187                              {
   1188                                  /*current 16Bit are skipped => clear current buffer */
   1189                                  pData++;
   1190          
   1191                                  /*Clear new buffer*/
   1192                                  *pData = 0;
   1193                              }
   1194          
   1195          
   1196          
   1197          
   1198                              /* we don't have read access */
   1199                              if ( (pEntry->ObjAccess & ACCESS_READ) == 0 )
   1200                              {
   1201                                  /* it is a write only entry */
   1202                                  result = ABORTIDX_WRITE_ONLY_ENTRY;
   1203                              }
   1204                              else
   1205                              {
   1206                                  /* we don't have read access in this state */
   1207                                  result = ABORTIDX_IN_THIS_STATE_DATA_CANNOT_BE_READ_OR_STORED;
   1208                              }
   1209                          }
   1210                      }
   1211          
   1212                      if(bRead == 0)
   1213                          return result;
   1214                  }
   1215          
   1216              return 0;
   \                     ??OBJ_Read_13: (+1)
   \      0x16A   0x2000             MOVS     R0,#+0
   \                     ??OBJ_Read_4: (+1)
   \      0x16C   0xE8BD 0x8FFE      POP      {R1-R11,PC}      ;; return
   \                     ??OBJ_Read_10: (+1)
   \      0x170   0x8801             LDRH     R1,[R0, #+0]
   \      0x172   0x8031             STRH     R1,[R6, #+0]
   \      0x174   0x8841             LDRH     R1,[R0, #+2]
   \      0x176   0x8071             STRH     R1,[R6, #+2]
   \      0x178   0x1D34             ADDS     R4,R6,#+4
   \      0x17A   0x1D01             ADDS     R1,R0,#+4
   \      0x17C   0xB292             UXTH     R2,R2            ;; ZeroExt  R2,R2,#+16,#+16
   \      0x17E   0x1F12             SUBS     R2,R2,#+4
   \      0x180   0x0020             MOVS     R0,R4
   \      0x182   0x.... 0x....      BL       __aeabi_memcpy
   \      0x186   0xE7F0             B.N      ??OBJ_Read_13
   \                     ??OBJ_Read_9: (+1)
   \      0x188   0x2000             MOVS     R0,#+0
   \      0x18A   0xF88D 0x0001      STRB     R0,[SP, #+1]
   \      0x18E   0x2700             MOVS     R7,#+0
   \      0x190   0x46A0             MOV      R8,R4
   \      0x192   0xFA5F 0xF888      UXTB     R8,R8            ;; ZeroExt  R8,R8,#+24,#+24
   \      0x196   0xE015             B.N      ??OBJ_Read_14
   \                     ??OBJ_Read_15: (+1)
   \      0x198   0x271A             MOVS     R7,#+26
   \      0x19A   0xE011             B.N      ??OBJ_Read_16
   \                     ??OBJ_Read_17: (+1)
   \      0x19C   0x1CB6             ADDS     R6,R6,#+2
   \      0x19E   0x2100             MOVS     R1,#+0
   \      0x1A0   0x8031             STRH     R1,[R6, #+0]
   \      0x1A2   0x1C40             ADDS     R0,R0,#+1
   \                     ??OBJ_Read_18: (+1)
   \      0x1A4   0x0001             MOVS     R1,R0
   \      0x1A6   0xB2C9             UXTB     R1,R1            ;; ZeroExt  R1,R1,#+24,#+24
   \      0x1A8   0xF8BB 0x2002      LDRH     R2,[R11, #+2]
   \      0x1AC   0xF3C2 0x1203      UBFX     R2,R2,#+4,#+4
   \      0x1B0   0x4291             CMP      R1,R2
   \      0x1B2   0xDBF3             BLT.N    ??OBJ_Read_17
   \      0x1B4   0xF89B 0x0004      LDRB     R0,[R11, #+4]
   \      0x1B8   0xF010 0x0F07      TST      R0,#0x7
   \      0x1BC   0xD1EC             BNE.N    ??OBJ_Read_15
   \      0x1BE   0x2706             MOVS     R7,#+6
   \                     ??OBJ_Read_16: (+1)
   \      0x1C0   0xF118 0x0801      ADDS     R8,R8,#+1
   \                     ??OBJ_Read_14: (+1)
   \      0x1C4   0xF8BD 0x0004      LDRH     R0,[SP, #+4]
   \      0x1C8   0x4641             MOV      R1,R8
   \      0x1CA   0xB289             UXTH     R1,R1            ;; ZeroExt  R1,R1,#+16,#+16
   \      0x1CC   0x4288             CMP      R0,R1
   \      0x1CE   0xF0C0 0x816C      BCC.W    ??OBJ_Read_19
   \      0x1D2   0xF8D5 0xA018      LDR      R10,[R5, #+24]
   \      0x1D6   0xF05F 0x0900      MOVS     R9,#+0
   \      0x1DA   0x4640             MOV      R0,R8
   \      0x1DC   0xB280             UXTH     R0,R0            ;; ZeroExt  R0,R0,#+16,#+16
   \      0x1DE   0x2800             CMP      R0,#+0
   \      0x1E0   0xD00A             BEQ.N    ??OBJ_Read_20
   \      0x1E2   0xF8BD 0x0008      LDRH     R0,[SP, #+8]
   \      0x1E6   0xF5B0 0x5F80      CMP      R0,#+4096
   \      0x1EA   0xDB05             BLT.N    ??OBJ_Read_20
   \      0x1EC   0x0029             MOVS     R1,R5
   \      0x1EE   0x4640             MOV      R0,R8
   \      0x1F0   0xB2C0             UXTB     R0,R0            ;; ZeroExt  R0,R0,#+24,#+24
   \      0x1F2   0x.... 0x....      BL       OBJ_GetEntryOffset
   \      0x1F6   0x4681             MOV      R9,R0
   \                     ??OBJ_Read_20: (+1)
   \      0x1F8   0x4648             MOV      R0,R9
   \      0x1FA   0xB280             UXTH     R0,R0            ;; ZeroExt  R0,R0,#+16,#+16
   \      0x1FC   0x1100             ASRS     R0,R0,#+4
   \      0x1FE   0xEB0A 0x0A40      ADD      R10,R10,R0, LSL #+1
   \      0x202   0x4641             MOV      R1,R8
   \      0x204   0xB2C9             UXTB     R1,R1            ;; ZeroExt  R1,R1,#+24,#+24
   \      0x206   0x0028             MOVS     R0,R5
   \      0x208   0x.... 0x....      BL       OBJ_GetEntryDesc
   \      0x20C   0x4683             MOV      R11,R0
   \      0x20E   0xF8BB 0x0004      LDRH     R0,[R11, #+4]
   \      0x212   0x0040             LSLS     R0,R0,#+1
   \      0x214   0xF010 0x000E      ANDS     R0,R0,#0xE
   \      0x218   0x.... 0x....      LDR.W    R1,??DataTable5_5
   \      0x21C   0x7809             LDRB     R1,[R1, #+0]
   \      0x21E   0xF011 0x010F      ANDS     R1,R1,#0xF
   \      0x222   0x4288             CMP      R0,R1
   \      0x224   0xF2C0 0x8128      BLT.W    ??OBJ_Read_21
   \      0x228   0x4640             MOV      R0,R8
   \      0x22A   0x0021             MOVS     R1,R4
   \      0x22C   0xB2C9             UXTB     R1,R1            ;; ZeroExt  R1,R1,#+24,#+24
   \      0x22E   0xB280             UXTH     R0,R0            ;; ZeroExt  R0,R0,#+16,#+16
   \      0x230   0xB289             UXTH     R1,R1            ;; ZeroExt  R1,R1,#+16,#+16
   \      0x232   0x4288             CMP      R0,R1
   \      0x234   0xD00A             BEQ.N    ??OBJ_Read_22
   \      0x236   0xF89D 0x0034      LDRB     R0,[SP, #+52]
   \      0x23A   0x2800             CMP      R0,#+0
   \      0x23C   0xD0C0             BEQ.N    ??OBJ_Read_16
   \      0x23E   0x4640             MOV      R0,R8
   \      0x240   0x0021             MOVS     R1,R4
   \      0x242   0xB2C9             UXTB     R1,R1            ;; ZeroExt  R1,R1,#+24,#+24
   \      0x244   0xB280             UXTH     R0,R0            ;; ZeroExt  R0,R0,#+16,#+16
   \      0x246   0xB289             UXTH     R1,R1            ;; ZeroExt  R1,R1,#+16,#+16
   \      0x248   0x4288             CMP      R0,R1
   \      0x24A   0xD3B9             BCC.N    ??OBJ_Read_16
   \                     ??OBJ_Read_22: (+1)
   \      0x24C   0x4640             MOV      R0,R8
   \      0x24E   0xB280             UXTH     R0,R0            ;; ZeroExt  R0,R0,#+16,#+16
   \      0x250   0x2800             CMP      R0,#+0
   \      0x252   0xD108             BNE.N    ??OBJ_Read_23
   \      0x254   0xF89D 0x0000      LDRB     R0,[SP, #+0]
   \      0x258   0x2807             CMP      R0,#+7
   \      0x25A   0xD004             BEQ.N    ??OBJ_Read_23
   \      0x25C   0xF8BD 0x0002      LDRH     R0,[SP, #+2]
   \      0x260   0x8030             STRH     R0,[R6, #+0]
   \      0x262   0x1CB6             ADDS     R6,R6,#+2
   \      0x264   0xE7AC             B.N      ??OBJ_Read_16
   \                     ??OBJ_Read_23: (+1)
   \      0x266   0xF8BB 0x0000      LDRH     R0,[R11, #+0]
   \      0x26A   0xF8BB 0x1000      LDRH     R1,[R11, #+0]
   \      0x26E   0xF5B1 0x6FE0      CMP      R1,#+1792
   \      0x272   0xDB12             BLT.N    ??OBJ_Read_24
   \      0x274   0xF8BB 0x1002      LDRH     R1,[R11, #+2]
   \      0x278   0x2909             CMP      R1,#+9
   \      0x27A   0xDA03             BGE.N    ??OBJ_Read_25
   \      0x27C   0xF8BB 0x0002      LDRH     R0,[R11, #+2]
   \      0x280   0x302F             ADDS     R0,R0,#+47
   \      0x282   0xE00A             B.N      ??OBJ_Read_24
   \                     ??OBJ_Read_25: (+1)
   \      0x284   0xF8BB 0x1002      LDRH     R1,[R11, #+2]
   \      0x288   0x2910             CMP      R1,#+16
   \      0x28A   0xD101             BNE.N    ??OBJ_Read_26
   \      0x28C   0x2006             MOVS     R0,#+6
   \      0x28E   0xE004             B.N      ??OBJ_Read_24
   \                     ??OBJ_Read_26: (+1)
   \      0x290   0xF8BB 0x1002      LDRH     R1,[R11, #+2]
   \      0x294   0x2920             CMP      R1,#+32
   \      0x296   0xD100             BNE.N    ??OBJ_Read_24
   \      0x298   0x2007             MOVS     R0,#+7
   \                     ??OBJ_Read_24: (+1)
   \      0x29A   0xB280             UXTH     R0,R0            ;; ZeroExt  R0,R0,#+16,#+16
   \      0x29C   0x2800             CMP      R0,#+0
   \      0x29E   0xD030             BEQ.N    ??OBJ_Read_27
   \      0x2A0   0x1E40             SUBS     R0,R0,#+1
   \      0x2A2   0x2801             CMP      R0,#+1
   \      0x2A4   0xD948             BLS.N    ??OBJ_Read_28
   \      0x2A6   0x1E80             SUBS     R0,R0,#+2
   \      0x2A8   0xD077             BEQ.N    ??OBJ_Read_29
   \      0x2AA   0x1E40             SUBS     R0,R0,#+1
   \      0x2AC   0xF000 0x807F      BEQ.W    ??OBJ_Read_30
   \      0x2B0   0x1E40             SUBS     R0,R0,#+1
   \      0x2B2   0xD041             BEQ.N    ??OBJ_Read_28
   \      0x2B4   0x1E40             SUBS     R0,R0,#+1
   \      0x2B6   0xD070             BEQ.N    ??OBJ_Read_29
   \      0x2B8   0x1E40             SUBS     R0,R0,#+1
   \      0x2BA   0x2801             CMP      R0,#+1
   \      0x2BC   0xD977             BLS.N    ??OBJ_Read_30
   \      0x2BE   0x1E80             SUBS     R0,R0,#+2
   \      0x2C0   0xF000 0x80B5      BEQ.W    ??OBJ_Read_31
   \      0x2C4   0x1E40             SUBS     R0,R0,#+1
   \      0x2C6   0x2801             CMP      R0,#+1
   \      0x2C8   0xF240 0x8091      BLS.W    ??OBJ_Read_32
   \      0x2CC   0x1FC0             SUBS     R0,R0,#+7
   \      0x2CE   0xD07B             BEQ.N    ??OBJ_Read_33
   \      0x2D0   0x1F00             SUBS     R0,R0,#+4
   \      0x2D2   0xD079             BEQ.N    ??OBJ_Read_33
   \      0x2D4   0x1F80             SUBS     R0,R0,#+6
   \      0x2D6   0xD077             BEQ.N    ??OBJ_Read_33
   \      0x2D8   0x1EC0             SUBS     R0,R0,#+3
   \      0x2DA   0xD02D             BEQ.N    ??OBJ_Read_28
   \      0x2DC   0x1E40             SUBS     R0,R0,#+1
   \      0x2DE   0xD05C             BEQ.N    ??OBJ_Read_29
   \      0x2E0   0x1E40             SUBS     R0,R0,#+1
   \      0x2E2   0xD064             BEQ.N    ??OBJ_Read_30
   \      0x2E4   0x380D             SUBS     R0,R0,#+13
   \      0x2E6   0xD027             BEQ.N    ??OBJ_Read_28
   \      0x2E8   0x1E40             SUBS     R0,R0,#+1
   \      0x2EA   0xD056             BEQ.N    ??OBJ_Read_29
   \      0x2EC   0x1E40             SUBS     R0,R0,#+1
   \      0x2EE   0xD05E             BEQ.N    ??OBJ_Read_30
   \      0x2F0   0x1E40             SUBS     R0,R0,#+1
   \      0x2F2   0x2807             CMP      R0,#+7
   \      0x2F4   0xD920             BLS.N    ??OBJ_Read_28
   \      0x2F6   0xF44F 0x710C      MOV      R1,#+560
   \      0x2FA   0x1A40             SUBS     R0,R0,R1
   \      0x2FC   0x2803             CMP      R0,#+3
   \      0x2FE   0xD976             BLS.N    ??OBJ_Read_32
   \      0x300   0xE0B8             B.N      ??OBJ_Read_34
   \                     ??OBJ_Read_27: (+1)
   \      0x302   0xF89D 0x0034      LDRB     R0,[SP, #+52]
   \      0x306   0x2800             CMP      R0,#+0
   \      0x308   0xD014             BEQ.N    ??OBJ_Read_35
   \      0x30A   0xF89B 0x0002      LDRB     R0,[R11, #+2]
   \      0x30E   0xF010 0x000F      ANDS     R0,R0,#0xF
   \      0x312   0x2801             CMP      R0,#+1
   \      0x314   0xDB07             BLT.N    ??OBJ_Read_36
   \      0x316   0xF8BB 0x0002      LDRH     R0,[R11, #+2]
   \      0x31A   0xFA10 0xF089      UXTAH    R0,R0,R9
   \      0x31E   0xF010 0x0F0F      TST      R0,#0xF
   \      0x322   0xD100             BNE.N    ??OBJ_Read_36
   \      0x324   0x1CB6             ADDS     R6,R6,#+2
   \                     ??OBJ_Read_36: (+1)
   \      0x326   0xF8BB 0x0002      LDRH     R0,[R11, #+2]
   \      0x32A   0xF3C0 0x1003      UBFX     R0,R0,#+4,#+4
   \      0x32E   0xEB06 0x0640      ADD      R6,R6,R0, LSL #+1
   \      0x332   0xE099             B.N      ??OBJ_Read_37
   \                     ??OBJ_Read_35: (+1)
   \      0x334   0x2018             MOVS     R0,#+24
   \      0x336   0xE719             B.N      ??OBJ_Read_4
   \                     ??OBJ_Read_28: (+1)
   \      0x338   0x2000             MOVS     R0,#+0
   \      0x33A   0x.... 0x....      LDR.W    R0,??DataTable5_6
   \      0x33E   0xF8BB 0x1002      LDRH     R1,[R11, #+2]
   \      0x342   0xF830 0x0011      LDRH     R0,[R0, R1, LSL #+1]
   \      0x346   0xF019 0x010F      ANDS     R1,R9,#0xF
   \      0x34A   0xFA10 0xF101      LSLS     R1,R0,R1
   \      0x34E   0xF8BA 0x2000      LDRH     R2,[R10, #+0]
   \      0x352   0x4648             MOV      R0,R9
   \      0x354   0xF010 0x0F0F      TST      R0,#0xF
   \      0x358   0xD101             BNE.N    ??OBJ_Read_38
   \      0x35A   0x2000             MOVS     R0,#+0
   \      0x35C   0x8030             STRH     R0,[R6, #+0]
   \                     ??OBJ_Read_38: (+1)
   \      0x35E   0x8830             LDRH     R0,[R6, #+0]
   \      0x360   0x8030             STRH     R0,[R6, #+0]
   \      0x362   0xF89D 0x0034      LDRB     R0,[SP, #+52]
   \      0x366   0x2800             CMP      R0,#+0
   \      0x368   0xD004             BEQ.N    ??OBJ_Read_39
   \      0x36A   0x8830             LDRH     R0,[R6, #+0]
   \      0x36C   0x4011             ANDS     R1,R1,R2
   \      0x36E   0x4301             ORRS     R1,R1,R0
   \      0x370   0x8031             STRH     R1,[R6, #+0]
   \      0x372   0xE007             B.N      ??OBJ_Read_40
   \                     ??OBJ_Read_39: (+1)
   \      0x374   0x8830             LDRH     R0,[R6, #+0]
   \      0x376   0x4011             ANDS     R1,R1,R2
   \      0x378   0xF019 0x020F      ANDS     R2,R9,#0xF
   \      0x37C   0xB289             UXTH     R1,R1            ;; ZeroExt  R1,R1,#+16,#+16
   \      0x37E   0x40D1             LSRS     R1,R1,R2
   \      0x380   0x4301             ORRS     R1,R1,R0
   \      0x382   0x8031             STRH     R1,[R6, #+0]
   \                     ??OBJ_Read_40: (+1)
   \      0x384   0x8830             LDRH     R0,[R6, #+0]
   \      0x386   0x8030             STRH     R0,[R6, #+0]
   \      0x388   0xF8BB 0x0002      LDRH     R0,[R11, #+2]
   \      0x38C   0xFA10 0xF089      UXTAH    R0,R0,R9
   \      0x390   0xF010 0x0F0F      TST      R0,#0xF
   \      0x394   0xD100             BNE.N    ??OBJ_Read_41
   \      0x396   0x1CB6             ADDS     R6,R6,#+2
   \                     ??OBJ_Read_41: (+1)
   \      0x398   0xE066             B.N      ??OBJ_Read_37
   \                     ??OBJ_Read_29: (+1)
   \      0x39A   0xF019 0x0F0F      TST      R9,#0xF
   \      0x39E   0xD104             BNE.N    ??OBJ_Read_42
   \                     ??OBJ_Read_43: (+1)
   \      0x3A0   0xF8BA 0x0000      LDRH     R0,[R10, #+0]
   \      0x3A4   0x8030             STRH     R0,[R6, #+0]
   \      0x3A6   0x1CB6             ADDS     R6,R6,#+2
   \      0x3A8   0xE05E             B.N      ??OBJ_Read_37
   \                     ??OBJ_Read_42: (+1)
   \      0x3AA   0x2005             MOVS     R0,#+5
   \      0x3AC   0xE6DE             B.N      ??OBJ_Read_4
   \                     ??OBJ_Read_30: (+1)
   \      0x3AE   0xF019 0x0F0F      TST      R9,#0xF
   \      0x3B2   0xD107             BNE.N    ??OBJ_Read_44
   \                     ??OBJ_Read_45: (+1)
   \      0x3B4   0xF8BA 0x0000      LDRH     R0,[R10, #+0]
   \      0x3B8   0x8030             STRH     R0,[R6, #+0]
   \      0x3BA   0xF8BA 0x0002      LDRH     R0,[R10, #+2]
   \      0x3BE   0x8070             STRH     R0,[R6, #+2]
   \      0x3C0   0x1D36             ADDS     R6,R6,#+4
   \      0x3C2   0xE051             B.N      ??OBJ_Read_37
   \                     ??OBJ_Read_44: (+1)
   \      0x3C4   0x2005             MOVS     R0,#+5
   \      0x3C6   0xE6D1             B.N      ??OBJ_Read_4
   \                     ??OBJ_Read_33: (+1)
   \      0x3C8   0xF019 0x0F0F      TST      R9,#0xF
   \      0x3CC   0xD10D             BNE.N    ??OBJ_Read_46
   \                     ??OBJ_Read_47: (+1)
   \      0x3CE   0xF8BA 0x0000      LDRH     R0,[R10, #+0]
   \      0x3D2   0x8030             STRH     R0,[R6, #+0]
   \      0x3D4   0xF8BA 0x0002      LDRH     R0,[R10, #+2]
   \      0x3D8   0x8070             STRH     R0,[R6, #+2]
   \      0x3DA   0xF8BA 0x0004      LDRH     R0,[R10, #+4]
   \      0x3DE   0x80B0             STRH     R0,[R6, #+4]
   \      0x3E0   0xF8BA 0x0006      LDRH     R0,[R10, #+6]
   \      0x3E4   0x80F0             STRH     R0,[R6, #+6]
   \      0x3E6   0x3608             ADDS     R6,R6,#+8
   \      0x3E8   0xE03E             B.N      ??OBJ_Read_37
   \                     ??OBJ_Read_46: (+1)
   \      0x3EA   0x2005             MOVS     R0,#+5
   \      0x3EC   0xE6BE             B.N      ??OBJ_Read_4
   \                     ??OBJ_Read_32: (+1)
   \      0x3EE   0xF019 0x0F0F      TST      R9,#0xF
   \      0x3F2   0xD11A             BNE.N    ??OBJ_Read_48
   \                     ??OBJ_Read_49: (+1)
   \      0x3F4   0xF8BB 0x2002      LDRH     R2,[R11, #+2]
   \      0x3F8   0x1DD2             ADDS     R2,R2,#+7
   \      0x3FA   0x10D2             ASRS     R2,R2,#+3
   \      0x3FC   0x4651             MOV      R1,R10
   \      0x3FE   0x46B1             MOV      R9,R6
   \      0x400   0x4648             MOV      R0,R9
   \      0x402   0x.... 0x....      BL       __aeabi_memcpy
   \      0x406   0xF8BB 0x0002      LDRH     R0,[R11, #+2]
   \      0x40A   0xF030 0x000F      BICS     R0,R0,#0xF
   \      0x40E   0x300F             ADDS     R0,R0,#+15
   \      0x410   0x1100             ASRS     R0,R0,#+4
   \      0x412   0xEB06 0x0640      ADD      R6,R6,R0, LSL #+1
   \      0x416   0xF89B 0x0002      LDRB     R0,[R11, #+2]
   \      0x41A   0xF010 0x0F0F      TST      R0,#0xF
   \      0x41E   0xD003             BEQ.N    ??OBJ_Read_50
   \      0x420   0x7830             LDRB     R0,[R6, #+0]
   \      0x422   0xF000 0x00FF      AND      R0,R0,#0xFF
   \      0x426   0x8030             STRH     R0,[R6, #+0]
   \                     ??OBJ_Read_50: (+1)
   \      0x428   0xE01E             B.N      ??OBJ_Read_37
   \                     ??OBJ_Read_48: (+1)
   \      0x42A   0x2005             MOVS     R0,#+5
   \      0x42C   0xE69E             B.N      ??OBJ_Read_4
   \                     ??OBJ_Read_31: (+1)
   \      0x42E   0xF019 0x0F0F      TST      R9,#0xF
   \      0x432   0xD11D             BNE.N    ??OBJ_Read_51
   \                     ??OBJ_Read_52: (+1)
   \      0x434   0xF8BB 0x2002      LDRH     R2,[R11, #+2]
   \      0x438   0x1DD2             ADDS     R2,R2,#+7
   \      0x43A   0x10D2             ASRS     R2,R2,#+3
   \      0x43C   0x4651             MOV      R1,R10
   \      0x43E   0x46B1             MOV      R9,R6
   \      0x440   0x4648             MOV      R0,R9
   \      0x442   0x.... 0x....      BL       __aeabi_memcpy
   \      0x446   0xF8BB 0x0002      LDRH     R0,[R11, #+2]
   \      0x44A   0xF030 0x000F      BICS     R0,R0,#0xF
   \      0x44E   0x300F             ADDS     R0,R0,#+15
   \      0x450   0x1100             ASRS     R0,R0,#+4
   \      0x452   0xEB06 0x0640      ADD      R6,R6,R0, LSL #+1
   \      0x456   0xF89B 0x0002      LDRB     R0,[R11, #+2]
   \      0x45A   0xF010 0x0F0F      TST      R0,#0xF
   \      0x45E   0xD003             BEQ.N    ??OBJ_Read_53
   \      0x460   0x7830             LDRB     R0,[R6, #+0]
   \      0x462   0xF000 0x00FF      AND      R0,R0,#0xFF
   \      0x466   0x8030             STRH     R0,[R6, #+0]
   \                     ??OBJ_Read_53: (+1)
   \                     ??OBJ_Read_37: (+1)
   \      0x468   0x2001             MOVS     R0,#+1
   \      0x46A   0xF88D 0x0001      STRB     R0,[SP, #+1]
   \      0x46E   0xE6A7             B.N      ??OBJ_Read_16
   \                     ??OBJ_Read_51: (+1)
   \      0x470   0x2005             MOVS     R0,#+5
   \      0x472   0xE67B             B.N      ??OBJ_Read_4
   \                     ??OBJ_Read_34: (+1)
   \      0x474   0x2018             MOVS     R0,#+24
   \      0x476   0xE679             B.N      ??OBJ_Read_4
   \                     ??OBJ_Read_21: (+1)
   \      0x478   0x2000             MOVS     R0,#+0
   \      0x47A   0x4648             MOV      R0,R9
   \      0x47C   0xF010 0x0F0F      TST      R0,#0xF
   \      0x480   0xD101             BNE.N    ??OBJ_Read_54
   \      0x482   0x2000             MOVS     R0,#+0
   \      0x484   0x8030             STRH     R0,[R6, #+0]
   \                     ??OBJ_Read_54: (+1)
   \      0x486   0xF89B 0x0002      LDRB     R0,[R11, #+2]
   \      0x48A   0xF010 0x000F      ANDS     R0,R0,#0xF
   \      0x48E   0x2801             CMP      R0,#+1
   \      0x490   0xDB09             BLT.N    ??OBJ_Read_55
   \      0x492   0xF8BB 0x0002      LDRH     R0,[R11, #+2]
   \      0x496   0xFA10 0xF089      UXTAH    R0,R0,R9
   \      0x49A   0xF010 0x0F0F      TST      R0,#0xF
   \      0x49E   0xD102             BNE.N    ??OBJ_Read_55
   \      0x4A0   0x1CB6             ADDS     R6,R6,#+2
   \      0x4A2   0x2000             MOVS     R0,#+0
   \      0x4A4   0x8030             STRH     R0,[R6, #+0]
   \                     ??OBJ_Read_55: (+1)
   \      0x4A6   0x2000             MOVS     R0,#+0
   \      0x4A8   0xE67C             B.N      ??OBJ_Read_18
   \                     ??OBJ_Read_19: (+1)
   \      0x4AA   0xF89D 0x0001      LDRB     R0,[SP, #+1]
   \      0x4AE   0x2800             CMP      R0,#+0
   \      0x4B0   0xF47F 0xAE5B      BNE.W    ??OBJ_Read_13
   \      0x4B4   0x0038             MOVS     R0,R7
   \      0x4B6   0xB2C0             UXTB     R0,R0            ;; ZeroExt  R0,R0,#+24,#+24
   \      0x4B8   0xE658             B.N      ??OBJ_Read_4
   1217          }
   1218          
   1219          /////////////////////////////////////////////////////////////////////////////////////////
   1220          /**
   1221           \param     index                 index of the requested object.
   1222           \param     subindex                subindex of the requested object.
   1223           \param    dataSize                received data size of the SDO Download
   1224           \param     pObjEntry            handle to the dictionary object returned by
   1225                                               OBJ_GetObjectHandle which was called before
   1226           \param    pData                    Pointer to the buffer where the written data can be copied from
   1227           \param    bCompleteAccess    Indicates if a complete write of all subindices of the
   1228                                               object shall be done or not
   1229          
   1230           \return    result of the write operation (0 (success) or an abort code (ABORTIDX_.... defined in
   1231                      sdosrv.h))
   1232          
   1233           \brief    This function writes the requested object
   1234          *////////////////////////////////////////////////////////////////////////////////////////
   1235          

   \                                 In section .text, align 2, keep-with-next
   1236          UINT8 OBJ_Write( UINT16 index, UINT8 subindex, UINT32 dataSize, OBJCONST TOBJECT OBJMEM * pObjEntry, UINT16 MBXMEM * pData, UINT8 bCompleteAccess )
   1237          {
   \                     OBJ_Write: (+1)
   \        0x0   0xE92D 0x4FF2      PUSH     {R1,R4-R11,LR}
   \        0x4   0xB082             SUB      SP,SP,#+8
   \        0x6   0x0005             MOVS     R5,R0
   \        0x8   0x0014             MOVS     R4,R2
   \        0xA   0x001E             MOVS     R6,R3
   1238              UINT16 i = subindex;
   \        0xC   0xF89D 0x0008      LDRB     R0,[SP, #+8]
   1239              /* get the information of ObjCode and MaxSubindex in local variables to support different types of microcontroller */
   1240              UINT8 objCode = (pObjEntry->ObjDesc.ObjFlags & OBJFLAGS_OBJCODEMASK) >> OBJFLAGS_OBJCODESHIFT;
   \       0x10   0x89B0             LDRH     R0,[R6, #+12]
   \       0x12   0x1200             ASRS     R0,R0,#+8
   \       0x14   0xF010 0x000F      ANDS     R0,R0,#0xF
   \       0x18   0xF88D 0x0001      STRB     R0,[SP, #+1]
   1241              UINT16 maxSubindex = 0;
   \       0x1C   0x2100             MOVS     R1,#+0
   1242              UINT16 maxConfiguredSubindex = (pObjEntry->ObjDesc.ObjFlags & OBJFLAGS_MAXSUBINDEXMASK) >> OBJFLAGS_MAXSUBINDEXSHIFT; //required to check if value for Subindex0 is valid
   \       0x1E   0x7B30             LDRB     R0,[R6, #+12]
   \       0x20   0xF000 0x00FF      AND      R0,R0,#0xFF
   \       0x24   0xF8AD 0x0004      STRH     R0,[SP, #+4]
   1243              OBJCONST TSDOINFOENTRYDESC OBJMEM *pEntry;
   1244              BOOL bClearSubindex0Required = FALSE;
   \       0x28   0x2000             MOVS     R0,#+0
   \       0x2A   0xF88D 0x0000      STRB     R0,[SP, #+0]
   1245              /* lastSubindex is used for complete access to make loop over the requested entries
   1246                 to be read, we initialize this variable with the requested subindex that only
   1247                 one loop will be done for a single access */
   1248              UINT16 lastSubindex = subindex;
   \       0x2E   0xF89D 0x0008      LDRB     R0,[SP, #+8]
   \       0x32   0xF8AD 0x0002      STRH     R0,[SP, #+2]
   1249          
   1250              /* if subindex 0 is writable, the maximum subindex should be checked in an object specific function,
   1251                  because for the PDO mapping and PDO assign the object shall only be written if subindex 0 is 0. */
   1252              if ( objCode != OBJCODE_VAR )
   \       0x36   0xF89D 0x0001      LDRB     R0,[SP, #+1]
   \       0x3A   0x2807             CMP      R0,#+7
   \       0x3C   0xD01D             BEQ.N    ??OBJ_Write_0
   1253              {
   1254                  /* if the object is an array or record we have to get the maxSubindex from the
   1255                     actual value of subindex 0, which is stored as UINT16 at the beginning of the
   1256                      object's variable */
   1257                  maxSubindex = (UINT8) ((UINT16 MBXMEM *) (pObjEntry->pVarPtr))[0];
   \       0x3E   0x69B0             LDR      R0,[R6, #+24]
   \       0x40   0x8801             LDRH     R1,[R0, #+0]
   \       0x42   0xB2C9             UXTB     R1,R1            ;; ZeroExt  R1,R1,#+24,#+24
   1258          
   1259                  /*If the subindex0 of a PDO assign or PDO mapping object is 0 the maximum subindex is specified by the object description*/
   1260                  if(maxSubindex == 0 && (IS_PDO_ASSIGN(index) || IS_RX_PDO(index) || IS_TX_PDO(index)))
   \       0x44   0x0008             MOVS     R0,R1
   \       0x46   0xB280             UXTH     R0,R0            ;; ZeroExt  R0,R0,#+16,#+16
   \       0x48   0x2800             CMP      R0,#+0
   \       0x4A   0xD116             BNE.N    ??OBJ_Write_0
   \       0x4C   0x002A             MOVS     R2,R5
   \       0x4E   0xB292             UXTH     R2,R2            ;; ZeroExt  R2,R2,#+16,#+16
   \       0x50   0xF641 0x4010      MOVW     R0,#+7184
   \       0x54   0x1A12             SUBS     R2,R2,R0
   \       0x56   0x2A20             CMP      R2,#+32
   \       0x58   0xD30D             BCC.N    ??OBJ_Write_1
   \       0x5A   0x0028             MOVS     R0,R5
   \       0x5C   0xB280             UXTH     R0,R0            ;; ZeroExt  R0,R0,#+16,#+16
   \       0x5E   0xF5B0 0x50B0      SUBS     R0,R0,#+5632
   \       0x62   0xF5B0 0x7F00      CMP      R0,#+512
   \       0x66   0xD306             BCC.N    ??OBJ_Write_1
   \       0x68   0x0028             MOVS     R0,R5
   \       0x6A   0xB280             UXTH     R0,R0            ;; ZeroExt  R0,R0,#+16,#+16
   \       0x6C   0xF5B0 0x50D0      SUBS     R0,R0,#+6656
   \       0x70   0xF5B0 0x7F00      CMP      R0,#+512
   \       0x74   0xD201             BCS.N    ??OBJ_Write_0
   1261                  {
   1262                      maxSubindex = maxConfiguredSubindex;
   \                     ??OBJ_Write_1: (+1)
   \       0x76   0xF8BD 0x1004      LDRH     R1,[SP, #+4]
   \                     ??OBJ_Write_0: (+1)
   \       0x7A   0x9F0C             LDR      R7,[SP, #+48]
   1263                  }
   1264              }
   1265          
   1266          
   1267              if ( bCompleteAccess )
   \       0x7C   0xF89D 0x0034      LDRB     R0,[SP, #+52]
   \       0x80   0x2800             CMP      R0,#+0
   \       0x82   0xD041             BEQ.N    ??OBJ_Write_2
   1268              {
   1269                  if ( objCode == OBJCODE_VAR )
   \       0x84   0xF89D 0x0001      LDRB     R0,[SP, #+1]
   \       0x88   0x2807             CMP      R0,#+7
   \       0x8A   0xD101             BNE.N    ??OBJ_Write_3
   1270                      /* complete access is not supported with simple objects */
   1271                      return ABORTIDX_UNSUPPORTED_ACCESS;
   \       0x8C   0x2005             MOVS     R0,#+5
   \       0x8E   0xE247             B.N      ??OBJ_Write_4
   1272          
   1273                  if ((subindex == 0) && (dataSize > 0))
   \                     ??OBJ_Write_3: (+1)
   \       0x90   0xF89D 0x0008      LDRB     R0,[SP, #+8]
   \       0x94   0x2800             CMP      R0,#+0
   \       0x96   0xD103             BNE.N    ??OBJ_Write_5
   \       0x98   0x2C00             CMP      R4,#+0
   \       0x9A   0xD001             BEQ.N    ??OBJ_Write_5
   1274                  {
   1275                      /* we change the subindex 0 */
   1276                      maxSubindex = (UINT8) SWAPWORD(pData[0]);
   \       0x9C   0x8839             LDRH     R1,[R7, #+0]
   \       0x9E   0xB2C9             UXTB     R1,R1            ;; ZeroExt  R1,R1,#+24,#+24
   1277                  }
   1278          
   1279                  /* we write until the maximum subindex */
   1280                  lastSubindex = maxSubindex;
   \                     ??OBJ_Write_5: (+1)
   \       0xA0   0xF8AD 0x1002      STRH     R1,[SP, #+2]
   1281              }
   1282              else
   1283              if (subindex > maxSubindex)
   1284              {
   1285                  /* the maximum subindex is reached */
   1286                  return ABORTIDX_SUBINDEX_NOT_EXISTING;
   1287              }
   1288              else
   1289              {
   1290                  /* we check the write access for single accesses here, a complete write access
   1291                     is allowed if at least one entry is writable (in this case the values for the
   1292                      read only entries shall be ignored) */
   1293                  /* we get the corresponding entry description */
   1294                  pEntry = OBJ_GetEntryDesc(pObjEntry, subindex);
   1295          
   1296                  /* check if we have write access (bits 3-5 (PREOP, SAFEOP, OP) of ObjAccess)
   1297                     by comparing with the actual state (bits 1-3 (PREOP, SAFEOP, OP) of AL Status) */
   1298                  if ( ((UINT8) ((pEntry->ObjAccess & ACCESS_WRITE) >> 2)) < (nAlStatus & STATE_MASK) )
   1299                  {
   1300                      /* we don't have write access */
   1301                      if ( (pEntry->ObjAccess & ACCESS_WRITE) == 0 )
   1302                      {
   1303                          /* it is a read only entry */
   1304                          return ABORTIDX_READ_ONLY_ENTRY;
   1305                      }
   1306                      else
   1307                      {
   1308                          /* we don't have write access in this state */
   1309                          return ABORTIDX_IN_THIS_STATE_DATA_CANNOT_BE_READ_OR_STORED;
   1310                      }
   1311                  }
   1312              }
   1313          
   1314              /* Subindex 0 shall be set to zero if a single PDO / PDO assign entry is written
   1315              or a complete access without subindex0 is requested */
   1316              if((subindex > 0) &&
   1317                  (IS_PDO_ASSIGN(index) || IS_RX_PDO(index)|| IS_TX_PDO(index))
   1318                  )
   \                     ??OBJ_Write_6: (+1)
   \       0xA4   0xF89D 0x0008      LDRB     R0,[SP, #+8]
   \       0xA8   0x2800             CMP      R0,#+0
   \       0xAA   0xD01E             BEQ.N    ??OBJ_Write_7
   \       0xAC   0x0029             MOVS     R1,R5
   \       0xAE   0xB289             UXTH     R1,R1            ;; ZeroExt  R1,R1,#+16,#+16
   \       0xB0   0xF641 0x4010      MOVW     R0,#+7184
   \       0xB4   0x1A09             SUBS     R1,R1,R0
   \       0xB6   0x2920             CMP      R1,#+32
   \       0xB8   0xD30D             BCC.N    ??OBJ_Write_8
   \       0xBA   0x0028             MOVS     R0,R5
   \       0xBC   0xB280             UXTH     R0,R0            ;; ZeroExt  R0,R0,#+16,#+16
   \       0xBE   0xF5B0 0x50B0      SUBS     R0,R0,#+5632
   \       0xC2   0xF5B0 0x7F00      CMP      R0,#+512
   \       0xC6   0xD306             BCC.N    ??OBJ_Write_8
   \       0xC8   0x0028             MOVS     R0,R5
   \       0xCA   0xB280             UXTH     R0,R0            ;; ZeroExt  R0,R0,#+16,#+16
   \       0xCC   0xF5B0 0x50D0      SUBS     R0,R0,#+6656
   \       0xD0   0xF5B0 0x7F00      CMP      R0,#+512
   \       0xD4   0xD209             BCS.N    ??OBJ_Write_7
   1319              {
   1320                  /*Check if Subindex0 was cleared before*/
   1321                  UINT16 Subindex0 = (*(UINT16 *)pObjEntry->pVarPtr) & 0x00FF;
   \                     ??OBJ_Write_8: (+1)
   \       0xD6   0x69B0             LDR      R0,[R6, #+24]
   \       0xD8   0x7800             LDRB     R0,[R0, #+0]
   \       0xDA   0xF000 0x00FF      AND      R0,R0,#0xFF
   1322                  if(Subindex0 != 0x00)
   \       0xDE   0xB280             UXTH     R0,R0            ;; ZeroExt  R0,R0,#+16,#+16
   \       0xE0   0x2800             CMP      R0,#+0
   \       0xE2   0xD002             BEQ.N    ??OBJ_Write_7
   1323                      bClearSubindex0Required = TRUE;
   \       0xE4   0x2001             MOVS     R0,#+1
   \       0xE6   0xF88D 0x0000      STRB     R0,[SP, #+0]
   1324              }
   1325          
   1326              if ( pObjEntry->Write != NULL )
   \                     ??OBJ_Write_7: (+1)
   \       0xEA   0x6A30             LDR      R0,[R6, #+32]
   \       0xEC   0x2800             CMP      R0,#+0
   \       0xEE   0xD02B             BEQ.N    ??OBJ_Write_9
   1327              {
   1328                  /* Write function is defined, we call the object specific write function */
   1329                  return pObjEntry->Write(index, subindex, dataSize, pData, bCompleteAccess);
   \       0xF0   0xF89D 0x0034      LDRB     R0,[SP, #+52]
   \       0xF4   0x9000             STR      R0,[SP, #+0]
   \       0xF6   0x003B             MOVS     R3,R7
   \       0xF8   0x0022             MOVS     R2,R4
   \       0xFA   0xF89D 0x1008      LDRB     R1,[SP, #+8]
   \       0xFE   0x0028             MOVS     R0,R5
   \      0x100   0xB280             UXTH     R0,R0            ;; ZeroExt  R0,R0,#+16,#+16
   \      0x102   0x6A34             LDR      R4,[R6, #+32]
   \      0x104   0x47A0             BLX      R4
   \      0x106   0xE20B             B.N      ??OBJ_Write_4
   1330              }
   \                     ??OBJ_Write_2: (+1)
   \      0x108   0xF89D 0x0008      LDRB     R0,[SP, #+8]
   \      0x10C   0xB289             UXTH     R1,R1            ;; ZeroExt  R1,R1,#+16,#+16
   \      0x10E   0xB280             UXTH     R0,R0            ;; ZeroExt  R0,R0,#+16,#+16
   \      0x110   0x4281             CMP      R1,R0
   \      0x112   0xD201             BCS.N    ??OBJ_Write_10
   \      0x114   0x2011             MOVS     R0,#+17
   \      0x116   0xE203             B.N      ??OBJ_Write_4
   \                     ??OBJ_Write_10: (+1)
   \      0x118   0xF89D 0x1008      LDRB     R1,[SP, #+8]
   \      0x11C   0x0030             MOVS     R0,R6
   \      0x11E   0x.... 0x....      BL       OBJ_GetEntryDesc
   \      0x122   0x8881             LDRH     R1,[R0, #+4]
   \      0x124   0x1089             ASRS     R1,R1,#+2
   \      0x126   0xF011 0x010E      ANDS     R1,R1,#0xE
   \      0x12A   0x.... 0x....      LDR.W    R2,??DataTable5_5
   \      0x12E   0x7812             LDRB     R2,[R2, #+0]
   \      0x130   0xF012 0x020F      ANDS     R2,R2,#0xF
   \      0x134   0x4291             CMP      R1,R2
   \      0x136   0xDAB5             BGE.N    ??OBJ_Write_6
   \      0x138   0x7900             LDRB     R0,[R0, #+4]
   \      0x13A   0xF010 0x0F38      TST      R0,#0x38
   \      0x13E   0xD101             BNE.N    ??OBJ_Write_11
   \      0x140   0x2007             MOVS     R0,#+7
   \      0x142   0xE1ED             B.N      ??OBJ_Write_4
   \                     ??OBJ_Write_11: (+1)
   \      0x144   0x201A             MOVS     R0,#+26
   \      0x146   0xE1EB             B.N      ??OBJ_Write_4
   1331              else
   1332              {
   1333                  UINT8 bWritten = 0;
   \                     ??OBJ_Write_9: (+1)
   \      0x148   0xF05F 0x0900      MOVS     R9,#+0
   1334                  UINT8 result = ABORTIDX_READ_ONLY_ENTRY;
   \      0x14C   0xF05F 0x0807      MOVS     R8,#+7
   1335          
   1336          /*ECATCHANGE_START(V5.11) ECAT*/
   1337                  if (dataSize == 0)
   \      0x150   0x2C00             CMP      R4,#+0
   \      0x152   0xD101             BNE.N    ??OBJ_Write_12
   1338                  {
   1339                     return 0; //no error
   \      0x154   0x2000             MOVS     R0,#+0
   \      0x156   0xE1E3             B.N      ??OBJ_Write_4
   1340                  }
   1341          /*ECATCHANGE_END(V5.11) ECAT*/
   1342          
   1343                  /* we use the standard write function */
   1344                  for (i = subindex; i <= lastSubindex; i++)
   \                     ??OBJ_Write_12: (+1)
   \      0x158   0xF89D 0x4008      LDRB     R4,[SP, #+8]
   \      0x15C   0xE026             B.N      ??OBJ_Write_13
   1345                  {
   1346                      /* if only a single entry is requested, this loop will only be done once */
   1347                      UINT16 MBXMEM *pVarPtr = (UINT16 MBXMEM *) pObjEntry->pVarPtr;
   1348                      UINT16 bitOffset = 0;
   1349          
   1350                      /* we get the corresponding entry description */
   1351                      pEntry = OBJ_GetEntryDesc(pObjEntry,(UINT8) i);
   1352          
   1353                      /*Get the bitOffset before check the access rights to calculate pData offset*/
   1354                      bitOffset = OBJ_GetEntryOffset((UINT8)i, pObjEntry);
   1355          
   1356                      /* we check if we have write access (bits 3-5 (PREOP, SAFEOP, OP) of ObjAccess)
   1357                         by comparing with the actual state (bits 1-3 (PREOP, SAFEOP, OP) of AL Status) */
   1358                      if ( ((UINT8)((pEntry->ObjAccess & ACCESS_WRITE) >> 2)) >= (nAlStatus & STATE_MASK) )
   1359                      {
   1360                          /* we have write access for this entry */
   1361                          if (i != 0)
   1362                          {
   1363                              /* we increment the variable pointer to the corresponding word address */
   1364                              pVarPtr += (bitOffset >> 4);
   1365                          }
   1366          
   1367          
   1368                          if ( i == subindex                                     /* requested entry */
   1369                            || (bCompleteAccess && i >= subindex) )       /* complete access and entry should be read */
   1370                          {
   1371                              UINT16 bitMask;
   1372          
   1373                              /* we have to copy the entry */
   1374                              if (i == 0 && objCode != OBJCODE_VAR)
   1375                              {
   1376                                  /*check if the value for subindex0 is valid */
   1377                                  UINT8 NewSubindex0 = (UINT8) SWAPWORD(pData[0]);
   1378                                  if(maxConfiguredSubindex < NewSubindex0)
   1379                                  {
   1380                                      return ABORTIDX_VALUE_TOO_GREAT;
   1381                                  }
   1382          
   1383                                  /* subindex 0 of an array or record shall be written */
   1384          /* ECATCHANGE_START(V5.11) SDO5*/
   1385                                  pVarPtr[0] = SWAPWORD(pData[0]);
   1386          /* ECATCHANGE_END(V5.11) SDO5*/
   1387                                  /* we increment the destination pointer by 2 because the subindex 0 will be
   1388                                     transmitted as UINT16 for a complete access */
   1389                                  pData++;
   1390                              }
   1391                              else
   1392                              {
   1393                                  UINT16 dataType = pEntry->DataType;
   1394                                  if (pEntry->DataType >= 0x700)
   1395                                  {
   1396                                      /* the ENUM data types are defined from index 0x700 in this example
   1397                                         convert in standard data type for the write access */
   1398                                      if ( pEntry->BitLength <= 8 )
   1399                                          dataType = DEFTYPE_BIT1-1+pEntry->BitLength;
   1400                                      else if ( pEntry->BitLength == 16 )
   1401                                          dataType = DEFTYPE_UNSIGNED16;
   1402                                      else if ( pEntry->BitLength == 32 )
   1403                                          dataType = DEFTYPE_UNSIGNED32;
   1404                                  }
   1405          
   1406                                  switch (dataType)
   1407                                  {
   1408                                  case DEFTYPE_NULL:
   1409                                      if(bCompleteAccess)
   1410                                      {
   1411                                          /*Handle alignment entry*/
   1412                                          if (((pEntry->BitLength & 0xF) > 0)
   1413                                              && (((bitOffset + pEntry->BitLength) & 0x0F) == 0 ))
   1414                                          {
   1415                                              /* we have reached the UINT16 border */
   1416                                              pData++;
   1417                                          }
   1418          
   1419                                          /*increment WORD offset*/
   1420                                          pData += ((pEntry->BitLength & 0xF0) >> 4);
   1421                                      }
   1422                                      else
   1423                                      {
   1424                                          return ABORTIDX_DATA_CANNOT_BE_READ_OR_STORED;
   1425                                      }
   1426                                      break;
   1427                                  case     DEFTYPE_BOOLEAN:
   1428                                  case     DEFTYPE_BIT1:
   1429                                  case     DEFTYPE_BIT2:
   1430                                  case     DEFTYPE_BIT3:
   1431                                  case     DEFTYPE_BIT4:
   1432                                  case     DEFTYPE_BIT5:
   1433                                  case     DEFTYPE_BIT6:
   1434                                  case     DEFTYPE_BIT7:
   1435                                  case     DEFTYPE_BIT8:
   1436                                  case     DEFTYPE_BITARR8:
   1437                                      /* in this example the objects are defined in that way,
   1438                                         that the bit types are always inside a 16-bit field,
   1439                                         and shall not overlap a byte border*/
   1440                                  case    DEFTYPE_INTEGER8:
   1441                                  case    DEFTYPE_UNSIGNED8:
   1442          /*ECATCHANGE_START(V5.11) SDO9*/
   1443                                  case    DEFTYPE_BYTE :
   1444          /*ECATCHANGE_END(V5.11) SDO9*/
   1445                                  {
   1446                                      /* depending on the bitOffset we have to copy the Hi or the Lo-Byte */
   1447                                      UINT16 TmpValue = 0x0000;
   1448          
   1449                                      bitMask = cBitMask[pEntry->BitLength] << (bitOffset & 0x0F);
   1450          
   1451                                      /*Swap object data (if required); all masks and offsets are defined for little endian format*/
   1452                                      TmpValue = SWAPWORD(pVarPtr[0]);
   1453          
   1454                                      /*Clear corresponding bits*/
   1455                                      TmpValue &= ~bitMask;
   1456          
   1457          /* ECATCHANGE_START(V5.11) SDO7*/
   1458                                      if (bCompleteAccess)
   1459                                      {
   1460                                          /*shifting is not required for Complete access because the bits are set to the correct offset by the master*/
   1461                                          TmpValue |= (SWAPWORD(pData[0]) & bitMask);
   1462                                      }
   1463                                      else
   1464                                      {
   1465                                          if((SWAPWORD(pData[0]) & ~cBitMask[pEntry->BitLength]))
   1466                                          {
   1467                                              /*written value exceed entry range*/
   1468                                              return ABORTIDX_VALUE_EXCEEDED;
   1469                                          }
   1470                                          else
   1471                                          {
   1472                                              /*Shift Bits to corresponding offset within the object memory*/
   1473                                              TmpValue |= ((SWAPWORD(pData[0]) & cBitMask[pEntry->BitLength]) << (bitOffset & 0x0F));
   1474                                          }
   1475                                      }
   1476          /* ECATCHANGE_END(V5.11) SDO7*/
   1477          
   1478                                      /*Swap written data to big endian format (if required)*/
   1479                                      pVarPtr[0] = SWAPWORD(TmpValue);
   1480          
   1481                                      if ( ((bitOffset+pEntry->BitLength) & 0x0F) == 0 )
   1482                                          /* we have reached the UINT16 border */
   1483                                          pData++;
   1484                                  }
   1485                                      break;
   1486                                  case    DEFTYPE_INTEGER16:
   1487                                  case    DEFTYPE_UNSIGNED16:
   1488                                  case    DEFTYPE_BITARR16:
   1489          /*ECATCHANGE_START(V5.11) SDO9*/
   1490                                  case    DEFTYPE_WORD:
   1491          /*ECATCHANGE_END(V5.11) SDO9*/
   1492          /*ECATCHANGE_START(V5.11) SDO1*/
   1493                                      if(bitOffset & 0xF)
   1494                                      {
   1495                                          /* return an error in case of an odd word offset (to support 16bit data type on odd word addresses an object specific access function need to be implemented and register in the object dictionary, see SSC Application Note)*/
   1496                                          return ABORTIDX_UNSUPPORTED_ACCESS;
   1497                                      }
   1498          /*ECATCHANGE_END(V5.11) SDO1*/
   1499          
   1500                                      {
   1501                                      /* in this example the objects are defined in that way,
   1502                                      that the 16 bit type are always starting at an exact WORD offset */
   1503                                      UINT16 u16NewData = SWAPWORD(pData[0]);
   1504                                      if(bClearSubindex0Required && (pVarPtr[0] != u16NewData))
   1505                                      {
   1506                                          /* try to write new data when subindex0 shall be reset*/
   1507                                          return ABORTIDX_ENTRY_CANT_BE_WRITTEN_SI0_NOT_0;
   1508                                      }
   1509          
   1510                                      /*check value if a new PDO assign entry should be written*/
   1511                                      if(IS_PDO_ASSIGN(index))  //PDO assign
   1512                                      {
   1513                                          if (!IS_RX_PDO(u16NewData) && !IS_TX_PDO(u16NewData) && (u16NewData != 0)) //check if the new assign entry value is valid
   1514                                          {
   1515                                              return ABORTIDX_VALUE_EXCEEDED;
   1516                                          }
   1517                                      }
   1518          
   1519                                      if((index == 0x1C32 || index == 0x1C33) && (i == 1))
   1520                                      {
   1521                                          /* The Synchronisation type (0x1C3x.1) was written by the user => the Sync type will not be calculated based on the register settings (if they don't match an error will be returned P_2_S)*/
   1522                                          if(pVarPtr[0] != u16NewData)
   1523                                          {
   1524                                              result = CheckSyncTypeValue(index,u16NewData);
   1525          
   1526                                              if(result != 0)
   1527                                                  return result;
   1528                                          }
   1529          
   1530                                          /* The user may force to current Sync Mode for that reason the flag has also to be set if the same value was written */
   1531                                          bSyncSetByUser = TRUE;
   1532                                      }
   1533          
   1534                                      pVarPtr[0] = u16NewData;
   1535                                      pData++;
   1536                                      }
   1537                                      break;
   1538                                  case    DEFTYPE_UNSIGNED32:
   1539                                  case    DEFTYPE_INTEGER32:
   1540                                  case    DEFTYPE_REAL32:
   1541                                  case    DEFTYPE_BITARR32:
   1542          /*ECATCHANGE_START(V5.11) SDO9*/
   1543                                  case    DEFTYPE_DWORD:
   1544          /*ECATCHANGE_END(V5.11) SDO9*/
   1545          /*ECATCHANGE_START(V5.11) SDO1*/
   1546                                      if(bitOffset & 0xF)
   1547                                      {
   1548                                          /* return an error in case of an odd word offset (to support 16bit data type on odd word addresses an object specific access function need to be implemented and register in the object dictionary, see SSC Application Note)*/
   1549                                          return ABORTIDX_UNSUPPORTED_ACCESS;
   1550                                      }
   1551          /*ECATCHANGE_END(V5.11) SDO1*/
   1552                                      {
   1553          
   1554                                      /* in this example the objects are defined in that way,
   1555                                         that the 32 bit type are always starting at an exact WORD offset */
   1556                                      if(bClearSubindex0Required &&
   1557                                          ((pVarPtr[0] != pData[0])
   1558                                          || (pVarPtr[1] != pData[1])))
   1559                                      {
   1560                                          /* try to write new data when subindex0 shall be reset*/
   1561                                          return ABORTIDX_ENTRY_CANT_BE_WRITTEN_SI0_NOT_0;
   1562                                      }
   1563          
   1564                                      pVarPtr[0] = pData[0];
   1565                                      pVarPtr[1] = pData[1];
   1566                                      pData += 2;
   1567                                      }
   1568                                      break;
   1569                                  case    DEFTYPE_REAL64:
   1570                                  case 	DEFTYPE_INTEGER64:
   1571                                  case    DEFTYPE_UNSIGNED64:
   1572          /*ECATCHANGE_START(V5.11) SDO1*/
   1573                                      if(bitOffset & 0xF)
   1574                                      {
   1575                                          /* return an error in case of an odd word offset (to support 16bit data type on odd word addresses an object specific access function need to be implemented and register in the object dictionary, see SSC Application Note)*/
   1576                                          return ABORTIDX_UNSUPPORTED_ACCESS;
   1577                                      }
   1578          /*ECATCHANGE_END(V5.11) SDO1*/
   1579                                      /* in this example the objects are defined in that way,
   1580                                         that the 64 bit type are always starting at an exact WORD offset */
   1581                                      pVarPtr[0] = pData[0];
   1582                                      pVarPtr[1] = pData[1];
   1583                                      pVarPtr[2] = pData[2];
   1584                                      pVarPtr[3] = pData[3];
   1585                                      pData += 4;
   1586                                      break;
   1587                                  case    DEFTYPE_VISIBLESTRING:
   1588          /*ECATCHANGE_START(V5.11) SDO1*/
   1589                                      if(bitOffset & 0xF)
   1590                                      {
   1591                                          /* return an error in case of an odd word offset (to support 16bit data type on odd word addresses an object specific access function need to be implemented and register in the object dictionary, see SSC Application Note)*/
   1592                                          return ABORTIDX_UNSUPPORTED_ACCESS;
   1593                                      }
   1594          /*ECATCHANGE_END(V5.11) SDO1*/
   1595          
   1596                                      OBJTOMBXSTRCPY(pVarPtr, pData, BIT2BYTE(pEntry->BitLength));
   1597          
   1598          /*ECATCHANGE_START(V5.11) SDO2*/
   1599                                      pData += BIT2WORD((pEntry->BitLength)& ~0xF);
   1600          /*ECATCHANGE_END(V5.11) SDO2*/
   1601                                      break;
   1602                                  case    DEFTYPE_OCTETSTRING:
   1603                                  case    DEFTYPE_UNICODE_STRING:
   1604          /*ECATCHANGE_START(V5.11) SDO9*/
   1605                                      case DEFTYPE_ARRAY_OF_INT :
   1606                                      case DEFTYPE_ARRAY_OF_SINT :
   1607                                      case DEFTYPE_ARRAY_OF_DINT :
   1608                                      case DEFTYPE_ARRAY_OF_UDINT:
   1609          /*ECATCHANGE_END(V5.11) SDO9*/
   1610          /*ECATCHANGE_START(V5.11) SDO1*/
   1611                                      if(bitOffset & 0xF)
   1612                                      {
   1613                                          /* return an error in case of an odd word offset (to support 16bit data type on odd word addresses an object specific access function need to be implemented and register in the object dictionary, see SSC Application Note)*/
   1614                                          return ABORTIDX_UNSUPPORTED_ACCESS;
   1615                                      }
   1616          /*ECATCHANGE_END(V5.11) SDO1*/
   1617          
   1618                                      /* in this example the objects are defined in that way,
   1619                                         that the other types are always starting at an even byte offset */
   1620                                      OBJTOMBXMEMCPY(pVarPtr, pData, BIT2BYTE(pEntry->BitLength));
   1621          /*ECATCHANGE_START(V5.11) SDO2*/
   1622                                      pData += BIT2WORD((pEntry->BitLength) & ~0xF);
   1623          /*ECATCHANGE_END(V5.11) SDO2*/
   1624          
   1625                                      break;
   1626                                  default:
   1627                                      /* other data types are not supported from this example */
   1628                                      return ABORTIDX_DATA_CANNOT_BE_READ_OR_STORED;
   1629                                  }
   1630                              }
   1631          
   1632                              /* set flag */
   1633                              bWritten = 1;
   1634          
   1635                          }
   1636                      }
   1637                      else
   1638                      {
   1639                          if(i == 0)
   1640                          {
   1641                              /* For SubIndex0 16Bit are reserved even if the BitLength is 8 */
   1642                              pData++;
   1643                          }
   1644                          else
   1645                          {
   1646                              /*Handle Bit/Byte Offset*/
   1647                              if (((pEntry->BitLength & 0xF) > 0)
   1648                                  && (((bitOffset + pEntry->BitLength) & 0x0F) == 0 ))
   \                     ??OBJ_Write_14: (+1)
   \      0x15E   0xF89A 0x0002      LDRB     R0,[R10, #+2]
   \      0x162   0xF010 0x000F      ANDS     R0,R0,#0xF
   \      0x166   0x2801             CMP      R0,#+1
   \      0x168   0xDB07             BLT.N    ??OBJ_Write_15
   \      0x16A   0xF8BA 0x0002      LDRH     R0,[R10, #+2]
   \      0x16E   0xFA10 0xF081      UXTAH    R0,R0,R1
   \      0x172   0xF010 0x0F0F      TST      R0,#0xF
   \      0x176   0xD100             BNE.N    ??OBJ_Write_15
   1649                              {
   1650                                  /* we have reached the UINT16 border */
   1651                                  pData++;
   \      0x178   0x1CBF             ADDS     R7,R7,#+2
   1652                              }
   1653          
   1654                              /*increment WORD offset*/
   1655          /*ECATCHANGE_START(V5.11) SDO9*/
   1656                              pData += ((pEntry->BitLength & 0xFFF0) >> 4);
   \                     ??OBJ_Write_15: (+1)
   \      0x17A   0xF8BA 0x0002      LDRH     R0,[R10, #+2]
   \      0x17E   0x1100             ASRS     R0,R0,#+4
   \      0x180   0xEB07 0x0740      ADD      R7,R7,R0, LSL #+1
   \      0x184   0xE1C0             B.N      ??OBJ_Write_16
   1657          /*ECATCHANGE_END(V5.11) SDO9*/
   1658                          }
   \                     ??OBJ_Write_17: (+1)
   \      0x186   0xF8BA 0x2002      LDRH     R2,[R10, #+2]
   \      0x18A   0x1DD2             ADDS     R2,R2,#+7
   \      0x18C   0x10D2             ASRS     R2,R2,#+3
   \      0x18E   0x0039             MOVS     R1,R7
   \      0x190   0x4658             MOV      R0,R11
   \      0x192   0x.... 0x....      BL       __aeabi_memcpy
   \      0x196   0xF8BA 0x0002      LDRH     R0,[R10, #+2]
   \      0x19A   0xF030 0x000F      BICS     R0,R0,#0xF
   \      0x19E   0x300F             ADDS     R0,R0,#+15
   \      0x1A0   0x1100             ASRS     R0,R0,#+4
   \      0x1A2   0xEB07 0x0740      ADD      R7,R7,R0, LSL #+1
   \                     ??OBJ_Write_18: (+1)
   \      0x1A6   0xF05F 0x0901      MOVS     R9,#+1
   \                     ??OBJ_Write_19: (+1)
   \      0x1AA   0x1C64             ADDS     R4,R4,#+1
   \                     ??OBJ_Write_13: (+1)
   \      0x1AC   0xF8BD 0x0002      LDRH     R0,[SP, #+2]
   \      0x1B0   0x0021             MOVS     R1,R4
   \      0x1B2   0xB289             UXTH     R1,R1            ;; ZeroExt  R1,R1,#+16,#+16
   \      0x1B4   0x4288             CMP      R0,R1
   \      0x1B6   0xF0C0 0x81AA      BCC.W    ??OBJ_Write_20
   \      0x1BA   0xF8D6 0xB018      LDR      R11,[R6, #+24]
   \      0x1BE   0x2000             MOVS     R0,#+0
   \      0x1C0   0x0021             MOVS     R1,R4
   \      0x1C2   0xB2C9             UXTB     R1,R1            ;; ZeroExt  R1,R1,#+24,#+24
   \      0x1C4   0x0030             MOVS     R0,R6
   \      0x1C6   0x.... 0x....      BL       OBJ_GetEntryDesc
   \      0x1CA   0x4682             MOV      R10,R0
   \      0x1CC   0x0031             MOVS     R1,R6
   \      0x1CE   0x0020             MOVS     R0,R4
   \      0x1D0   0xB2C0             UXTB     R0,R0            ;; ZeroExt  R0,R0,#+24,#+24
   \      0x1D2   0x.... 0x....      BL       OBJ_GetEntryOffset
   \      0x1D6   0x0001             MOVS     R1,R0
   \      0x1D8   0xF8BA 0x0004      LDRH     R0,[R10, #+4]
   \      0x1DC   0x1080             ASRS     R0,R0,#+2
   \      0x1DE   0xF010 0x000E      ANDS     R0,R0,#0xE
   \      0x1E2   0x.... 0x....      LDR.W    R2,??DataTable5_5
   \      0x1E6   0x7812             LDRB     R2,[R2, #+0]
   \      0x1E8   0xF012 0x020F      ANDS     R2,R2,#0xF
   \      0x1EC   0x4290             CMP      R0,R2
   \      0x1EE   0xF2C0 0x8185      BLT.W    ??OBJ_Write_21
   \      0x1F2   0x0020             MOVS     R0,R4
   \      0x1F4   0xB280             UXTH     R0,R0            ;; ZeroExt  R0,R0,#+16,#+16
   \      0x1F6   0x2800             CMP      R0,#+0
   \      0x1F8   0xD004             BEQ.N    ??OBJ_Write_22
   \      0x1FA   0x0008             MOVS     R0,R1
   \      0x1FC   0xB280             UXTH     R0,R0            ;; ZeroExt  R0,R0,#+16,#+16
   \      0x1FE   0x1100             ASRS     R0,R0,#+4
   \      0x200   0xEB0B 0x0B40      ADD      R11,R11,R0, LSL #+1
   \                     ??OBJ_Write_22: (+1)
   \      0x204   0x0020             MOVS     R0,R4
   \      0x206   0xF89D 0x2008      LDRB     R2,[SP, #+8]
   \      0x20A   0xB280             UXTH     R0,R0            ;; ZeroExt  R0,R0,#+16,#+16
   \      0x20C   0xB292             UXTH     R2,R2            ;; ZeroExt  R2,R2,#+16,#+16
   \      0x20E   0x4290             CMP      R0,R2
   \      0x210   0xD00A             BEQ.N    ??OBJ_Write_23
   \      0x212   0xF89D 0x0034      LDRB     R0,[SP, #+52]
   \      0x216   0x2800             CMP      R0,#+0
   \      0x218   0xD0C7             BEQ.N    ??OBJ_Write_19
   \      0x21A   0x0020             MOVS     R0,R4
   \      0x21C   0xF89D 0x2008      LDRB     R2,[SP, #+8]
   \      0x220   0xB280             UXTH     R0,R0            ;; ZeroExt  R0,R0,#+16,#+16
   \      0x222   0xB292             UXTH     R2,R2            ;; ZeroExt  R2,R2,#+16,#+16
   \      0x224   0x4290             CMP      R0,R2
   \      0x226   0xD3C0             BCC.N    ??OBJ_Write_19
   \                     ??OBJ_Write_23: (+1)
   \      0x228   0x0020             MOVS     R0,R4
   \      0x22A   0xB280             UXTH     R0,R0            ;; ZeroExt  R0,R0,#+16,#+16
   \      0x22C   0x2800             CMP      R0,#+0
   \      0x22E   0xD111             BNE.N    ??OBJ_Write_24
   \      0x230   0xF89D 0x0001      LDRB     R0,[SP, #+1]
   \      0x234   0x2807             CMP      R0,#+7
   \      0x236   0xD00D             BEQ.N    ??OBJ_Write_24
   \      0x238   0x8838             LDRH     R0,[R7, #+0]
   \      0x23A   0xF8BD 0x1004      LDRH     R1,[SP, #+4]
   \      0x23E   0xB2C0             UXTB     R0,R0            ;; ZeroExt  R0,R0,#+24,#+24
   \      0x240   0xB280             UXTH     R0,R0            ;; ZeroExt  R0,R0,#+16,#+16
   \      0x242   0x4281             CMP      R1,R0
   \      0x244   0xD304             BCC.N    ??OBJ_Write_25
   \                     ??OBJ_Write_26: (+1)
   \      0x246   0x8838             LDRH     R0,[R7, #+0]
   \      0x248   0xF8AB 0x0000      STRH     R0,[R11, #+0]
   \      0x24C   0x1CBF             ADDS     R7,R7,#+2
   \      0x24E   0xE7AA             B.N      ??OBJ_Write_18
   \                     ??OBJ_Write_25: (+1)
   \      0x250   0x2013             MOVS     R0,#+19
   \      0x252   0xE165             B.N      ??OBJ_Write_4
   \                     ??OBJ_Write_24: (+1)
   \      0x254   0xF8BA 0x0000      LDRH     R0,[R10, #+0]
   \      0x258   0xF8BA 0x2000      LDRH     R2,[R10, #+0]
   \      0x25C   0xF5B2 0x6FE0      CMP      R2,#+1792
   \      0x260   0xDB12             BLT.N    ??OBJ_Write_27
   \      0x262   0xF8BA 0x2002      LDRH     R2,[R10, #+2]
   \      0x266   0x2A09             CMP      R2,#+9
   \      0x268   0xDA03             BGE.N    ??OBJ_Write_28
   \      0x26A   0xF8BA 0x0002      LDRH     R0,[R10, #+2]
   \      0x26E   0x302F             ADDS     R0,R0,#+47
   \      0x270   0xE00A             B.N      ??OBJ_Write_27
   \                     ??OBJ_Write_28: (+1)
   \      0x272   0xF8BA 0x2002      LDRH     R2,[R10, #+2]
   \      0x276   0x2A10             CMP      R2,#+16
   \      0x278   0xD101             BNE.N    ??OBJ_Write_29
   \      0x27A   0x2006             MOVS     R0,#+6
   \      0x27C   0xE004             B.N      ??OBJ_Write_27
   \                     ??OBJ_Write_29: (+1)
   \      0x27E   0xF8BA 0x2002      LDRH     R2,[R10, #+2]
   \      0x282   0x2A20             CMP      R2,#+32
   \      0x284   0xD100             BNE.N    ??OBJ_Write_27
   \      0x286   0x2007             MOVS     R0,#+7
   \                     ??OBJ_Write_27: (+1)
   \      0x288   0xB280             UXTH     R0,R0            ;; ZeroExt  R0,R0,#+16,#+16
   \      0x28A   0x2800             CMP      R0,#+0
   \      0x28C   0xD039             BEQ.N    ??OBJ_Write_30
   \      0x28E   0x1E40             SUBS     R0,R0,#+1
   \      0x290   0x2801             CMP      R0,#+1
   \      0x292   0xD951             BLS.N    ??OBJ_Write_31
   \      0x294   0x1E80             SUBS     R0,R0,#+2
   \      0x296   0xF000 0x808A      BEQ.W    ??OBJ_Write_32
   \      0x29A   0x1E40             SUBS     R0,R0,#+1
   \      0x29C   0xF000 0x80E0      BEQ.W    ??OBJ_Write_33
   \      0x2A0   0x1E40             SUBS     R0,R0,#+1
   \      0x2A2   0xD049             BEQ.N    ??OBJ_Write_31
   \      0x2A4   0x1E40             SUBS     R0,R0,#+1
   \      0x2A6   0xF000 0x8082      BEQ.W    ??OBJ_Write_32
   \      0x2AA   0x1E40             SUBS     R0,R0,#+1
   \      0x2AC   0x2801             CMP      R0,#+1
   \      0x2AE   0xF240 0x80D7      BLS.W    ??OBJ_Write_33
   \      0x2B2   0x1E80             SUBS     R0,R0,#+2
   \      0x2B4   0xF000 0x8104      BEQ.W    ??OBJ_Write_34
   \      0x2B8   0x1E40             SUBS     R0,R0,#+1
   \      0x2BA   0x2801             CMP      R0,#+1
   \      0x2BC   0xF240 0x8116      BLS.W    ??OBJ_Write_35
   \      0x2C0   0x1FC0             SUBS     R0,R0,#+7
   \      0x2C2   0xF000 0x80EA      BEQ.W    ??OBJ_Write_36
   \      0x2C6   0x1F00             SUBS     R0,R0,#+4
   \      0x2C8   0xF000 0x80E7      BEQ.W    ??OBJ_Write_36
   \      0x2CC   0x1F80             SUBS     R0,R0,#+6
   \      0x2CE   0xF000 0x80E4      BEQ.W    ??OBJ_Write_36
   \      0x2D2   0x1EC0             SUBS     R0,R0,#+3
   \      0x2D4   0xD030             BEQ.N    ??OBJ_Write_31
   \      0x2D6   0x1E40             SUBS     R0,R0,#+1
   \      0x2D8   0xD069             BEQ.N    ??OBJ_Write_32
   \      0x2DA   0x1E40             SUBS     R0,R0,#+1
   \      0x2DC   0xF000 0x80C0      BEQ.W    ??OBJ_Write_33
   \      0x2E0   0x380D             SUBS     R0,R0,#+13
   \      0x2E2   0xD029             BEQ.N    ??OBJ_Write_31
   \      0x2E4   0x1E40             SUBS     R0,R0,#+1
   \      0x2E6   0xD062             BEQ.N    ??OBJ_Write_32
   \      0x2E8   0x1E40             SUBS     R0,R0,#+1
   \      0x2EA   0xF000 0x80B9      BEQ.W    ??OBJ_Write_33
   \      0x2EE   0x1E40             SUBS     R0,R0,#+1
   \      0x2F0   0x2807             CMP      R0,#+7
   \      0x2F2   0xD921             BLS.N    ??OBJ_Write_31
   \      0x2F4   0xF44F 0x720C      MOV      R2,#+560
   \      0x2F8   0x1A80             SUBS     R0,R0,R2
   \      0x2FA   0x2803             CMP      R0,#+3
   \      0x2FC   0xF240 0x80F6      BLS.W    ??OBJ_Write_35
   \      0x300   0xE0FA             B.N      ??OBJ_Write_37
   \                     ??OBJ_Write_30: (+1)
   \      0x302   0xF89D 0x0034      LDRB     R0,[SP, #+52]
   \      0x306   0x2800             CMP      R0,#+0
   \      0x308   0xD014             BEQ.N    ??OBJ_Write_38
   \      0x30A   0xF89A 0x0002      LDRB     R0,[R10, #+2]
   \      0x30E   0xF010 0x000F      ANDS     R0,R0,#0xF
   \      0x312   0x2801             CMP      R0,#+1
   \      0x314   0xDB07             BLT.N    ??OBJ_Write_39
   \      0x316   0xF8BA 0x0002      LDRH     R0,[R10, #+2]
   \      0x31A   0xFA10 0xF081      UXTAH    R0,R0,R1
   \      0x31E   0xF010 0x0F0F      TST      R0,#0xF
   \      0x322   0xD100             BNE.N    ??OBJ_Write_39
   \      0x324   0x1CBF             ADDS     R7,R7,#+2
   \                     ??OBJ_Write_39: (+1)
   \      0x326   0xF8BA 0x0002      LDRH     R0,[R10, #+2]
   \      0x32A   0xF3C0 0x1003      UBFX     R0,R0,#+4,#+4
   \      0x32E   0xEB07 0x0740      ADD      R7,R7,R0, LSL #+1
   \      0x332   0xE738             B.N      ??OBJ_Write_18
   \                     ??OBJ_Write_38: (+1)
   \      0x334   0x2018             MOVS     R0,#+24
   \      0x336   0xE0F3             B.N      ??OBJ_Write_4
   \                     ??OBJ_Write_31: (+1)
   \      0x338   0x2000             MOVS     R0,#+0
   \      0x33A   0x....             LDR.N    R2,??DataTable5_6
   \      0x33C   0xF8BA 0x0002      LDRH     R0,[R10, #+2]
   \      0x340   0xF832 0x0010      LDRH     R0,[R2, R0, LSL #+1]
   \      0x344   0xF011 0x030F      ANDS     R3,R1,#0xF
   \      0x348   0xFA10 0xF303      LSLS     R3,R0,R3
   \      0x34C   0xF8BB 0xC000      LDRH     R12,[R11, #+0]
   \      0x350   0xEA3C 0x0C03      BICS     R12,R12,R3
   \      0x354   0xF89D 0x0034      LDRB     R0,[SP, #+52]
   \      0x358   0x2800             CMP      R0,#+0
   \      0x35A   0xD004             BEQ.N    ??OBJ_Write_40
   \      0x35C   0x8838             LDRH     R0,[R7, #+0]
   \      0x35E   0x4003             ANDS     R3,R3,R0
   \      0x360   0xEA53 0x030C      ORRS     R3,R3,R12
   \      0x364   0xE016             B.N      ??OBJ_Write_41
   \                     ??OBJ_Write_40: (+1)
   \      0x366   0x8838             LDRH     R0,[R7, #+0]
   \      0x368   0xF8BA 0x3002      LDRH     R3,[R10, #+2]
   \      0x36C   0xF832 0x3013      LDRH     R3,[R2, R3, LSL #+1]
   \      0x370   0x43DB             MVNS     R3,R3
   \      0x372   0x4218             TST      R0,R3
   \      0x374   0xD119             BNE.N    ??OBJ_Write_42
   \                     ??OBJ_Write_43: (+1)
   \      0x376   0x4663             MOV      R3,R12
   \      0x378   0xF8B7 0xC000      LDRH     R12,[R7, #+0]
   \      0x37C   0xF8BA 0x0002      LDRH     R0,[R10, #+2]
   \      0x380   0xF832 0x0010      LDRH     R0,[R2, R0, LSL #+1]
   \      0x384   0xEA10 0x0C0C      ANDS     R12,R0,R12
   \      0x388   0xF011 0x000F      ANDS     R0,R1,#0xF
   \      0x38C   0xFA1C 0xFC00      LSLS     R12,R12,R0
   \      0x390   0xEA5C 0x0303      ORRS     R3,R12,R3
   \                     ??OBJ_Write_41: (+1)
   \      0x394   0xF8AB 0x3000      STRH     R3,[R11, #+0]
   \      0x398   0xF8BA 0x0002      LDRH     R0,[R10, #+2]
   \      0x39C   0xFA10 0xF081      UXTAH    R0,R0,R1
   \      0x3A0   0xF010 0x0F0F      TST      R0,#0xF
   \      0x3A4   0xD100             BNE.N    ??OBJ_Write_44
   \      0x3A6   0x1CBF             ADDS     R7,R7,#+2
   \                     ??OBJ_Write_44: (+1)
   \      0x3A8   0xE6FD             B.N      ??OBJ_Write_18
   \                     ??OBJ_Write_42: (+1)
