###############################################################################
#
# IAR ANSI C/C++ Compiler V8.30.1.114/W32 for ARM         24/Aug/2021  18:50:05
# Copyright 1999-2018 IAR Systems AB.
#
#    Cpu mode     =  thumb
#    Endian       =  little
#    Source file  =  
#        C:\Users\wanji\Desktop\ROBOT\ROBOT_F4\F4_Robot002Display_SBUS
#        @2021-06-11@\STM32F4xx_DSP_StdPeriph_Lib_V1.8.0\Libraries\STM32F4xx_StdPeriph_Driver\src\stm32f4xx_cryp_des.c
#    Command line =  
#        -f C:\Users\wanji\AppData\Local\Temp\EW9731.tmp
#        ("C:\Users\wanji\Desktop\ROBOT\ROBOT_F4\F4_Robot002Display_SBUS
#        @2021-06-11@\STM32F4xx_DSP_StdPeriph_Lib_V1.8.0\Libraries\STM32F4xx_StdPeriph_Driver\src\stm32f4xx_cryp_des.c"
#        -D STM32F40_41xxx -D USE_STDPERIPH_DRIVER -lcN
#        "C:\Users\wanji\Desktop\ROBOT\ROBOT_F4\F4_Robot002Display_SBUS
#        @2021-06-11@\Project\IAR\Debug\List" --diag_suppress pa182 -o
#        "C:\Users\wanji\Desktop\ROBOT\ROBOT_F4\F4_Robot002Display_SBUS
#        @2021-06-11@\Project\IAR\Debug\Obj" --no_cse --no_unroll
#        --no_inline --no_code_motion --no_tbaa --no_clustering --no_scheduling
#        --debug --endian=little --cpu=Cortex-M4 -e --fpu=VFPv4_sp
#        --dlib_config "C:\Program Files (x86)\IAR Systems\Embedded Workbench
#        8.1\arm\inc\c\DLib_Config_Full.h" -I
#        "C:\Users\wanji\Desktop\ROBOT\ROBOT_F4\F4_Robot002Display_SBUS
#        @2021-06-11@\Project\IAR\" -I
#        "C:\Users\wanji\Desktop\ROBOT\ROBOT_F4\F4_Robot002Display_SBUS
#        @2021-06-11@\Project\IAR\..\..\DBUSART_Source\" -I
#        "C:\Users\wanji\Desktop\ROBOT\ROBOT_F4\F4_Robot002Display_SBUS
#        @2021-06-11@\Project\IAR\..\..\STM32F4xx_DSP_StdPeriph_Lib_V1.8.0\Libraries\CMSIS\Include\"
#        -I "C:\Users\wanji\Desktop\ROBOT\ROBOT_F4\F4_Robot002Display_SBUS
#        @2021-06-11@\Project\IAR\..\..\STM32F4xx_DSP_StdPeriph_Lib_V1.8.0\Libraries\CMSIS\Device\ST\STM32F4xx\Include\"
#        -I "C:\Users\wanji\Desktop\ROBOT\ROBOT_F4\F4_Robot002Display_SBUS
#        @2021-06-11@\Project\IAR\..\..\STM32F4xx_DSP_StdPeriph_Lib_V1.8.0\Libraries\STM32F4xx_StdPeriph_Driver\inc\"
#        -I "C:\Users\wanji\Desktop\ROBOT\ROBOT_F4\F4_Robot002Display_SBUS
#        @2021-06-11@\Project\IAR\..\..\SourceCodes\" -Ol --use_c++_inline)
#    Locale       =  C
#    List file    =  
#        C:\Users\wanji\Desktop\ROBOT\ROBOT_F4\F4_Robot002Display_SBUS
#        @2021-06-11@\Project\IAR\Debug\List\stm32f4xx_cryp_des.lst
#    Object file  =  
#        C:\Users\wanji\Desktop\ROBOT\ROBOT_F4\F4_Robot002Display_SBUS
#        @2021-06-11@\Project\IAR\Debug\Obj\stm32f4xx_cryp_des.o
#
###############################################################################

C:\Users\wanji\Desktop\ROBOT\ROBOT_F4\F4_Robot002Display_SBUS @2021-06-11@\STM32F4xx_DSP_StdPeriph_Lib_V1.8.0\Libraries\STM32F4xx_StdPeriph_Driver\src\stm32f4xx_cryp_des.c
      1          /**
      2            ******************************************************************************
      3            * @file    stm32f4xx_cryp_des.c
      4            * @author  MCD Application Team
      5            * @version V1.8.0
      6            * @date    04-November-2016
      7            * @brief   This file provides high level functions to encrypt and decrypt an 
      8            *          input message using DES in ECB/CBC modes.
      9            *          It uses the stm32f4xx_cryp.c/.h drivers to access the STM32F4xx CRYP
     10            *          peripheral.
     11            *
     12          @verbatim
     13            
     14           ===================================================================
     15                            ##### How to use this driver #####
     16           ===================================================================
     17           [..] 
     18             (#) Enable The CRYP controller clock using 
     19                 RCC_AHB2PeriphClockCmd(RCC_AHB2Periph_CRYP, ENABLE); function.
     20            
     21             (#) Encrypt and decrypt using DES in ECB Mode using CRYP_DES_ECB() function.
     22            
     23             (#) Encrypt and decrypt using DES in CBC Mode using CRYP_DES_CBC() function.
     24            
     25          @endverbatim
     26            *
     27            ******************************************************************************
     28            * @attention
     29            *
     30            * <h2><center>&copy; COPYRIGHT 2016 STMicroelectronics</center></h2>
     31            *
     32            * Licensed under MCD-ST Liberty SW License Agreement V2, (the "License");
     33            * You may not use this file except in compliance with the License.
     34            * You may obtain a copy of the License at:
     35            *
     36            *        http://www.st.com/software_license_agreement_liberty_v2
     37            *
     38            * Unless required by applicable law or agreed to in writing, software 
     39            * distributed under the License is distributed on an "AS IS" BASIS, 
     40            * WITHOUT WARRANTIES OR CONDITIONS OF ANY KIND, either express or implied.
     41            * See the License for the specific language governing permissions and
     42            * limitations under the License.
     43            *
     44            ******************************************************************************
     45            */
     46          
     47          /* Includes ------------------------------------------------------------------*/
     48          #include "stm32f4xx_cryp.h"
     49          
     50          
     51          /** @addtogroup STM32F4xx_StdPeriph_Driver
     52            * @{
     53            */
     54          
     55          /** @defgroup CRYP 
     56            * @brief CRYP driver modules
     57            * @{
     58            */
     59          
     60          /* Private typedef -----------------------------------------------------------*/
     61          /* Private define ------------------------------------------------------------*/
     62          #define DESBUSY_TIMEOUT    ((uint32_t) 0x00010000)
     63          
     64          /* Private macro -------------------------------------------------------------*/
     65          /* Private variables ---------------------------------------------------------*/
     66          /* Private function prototypes -----------------------------------------------*/
     67          /* Private functions ---------------------------------------------------------*/
     68          
     69          
     70          /** @defgroup CRYP_Private_Functions
     71            * @{
     72            */ 
     73          
     74          /** @defgroup CRYP_Group8 High Level DES functions
     75           *  @brief   High Level DES functions 
     76           *
     77          @verbatim   
     78           ===============================================================================
     79                                 ##### High Level DES functions #####
     80           ===============================================================================
     81          @endverbatim
     82            * @{
     83            */
     84          
     85          /**
     86            * @brief  Encrypt and decrypt using DES in ECB Mode
     87            * @param  Mode: encryption or decryption Mode.
     88            *           This parameter can be one of the following values:
     89            *            @arg MODE_ENCRYPT: Encryption
     90            *            @arg MODE_DECRYPT: Decryption
     91            * @param  Key: Key used for DES algorithm.
     92            * @param  Ilength: length of the Input buffer, must be a multiple of 8.
     93            * @param  Input: pointer to the Input buffer.
     94            * @param  Output: pointer to the returned buffer.
     95            * @retval An ErrorStatus enumeration value:
     96            *          - SUCCESS: Operation done
     97            *          - ERROR: Operation failed
     98            */
     99          ErrorStatus CRYP_DES_ECB(uint8_t Mode, uint8_t Key[8], uint8_t *Input, 
    100                                   uint32_t Ilength, uint8_t *Output)
    101          {
    102            CRYP_InitTypeDef DES_CRYP_InitStructure;
    103            CRYP_KeyInitTypeDef DES_CRYP_KeyInitStructure;
    104            __IO uint32_t counter = 0;
    105            uint32_t busystatus = 0;
    106            ErrorStatus status = SUCCESS;
    107            uint32_t keyaddr    = (uint32_t)Key;
    108            uint32_t inputaddr  = (uint32_t)Input;
    109            uint32_t outputaddr = (uint32_t)Output;
    110            uint32_t i = 0;
    111          
    112            /* Crypto structures initialisation*/
    113            CRYP_KeyStructInit(&DES_CRYP_KeyInitStructure);
    114          
    115            /* Crypto Init for Encryption process */
    116            if( Mode == MODE_ENCRYPT ) /* DES encryption */
    117            {
    118               DES_CRYP_InitStructure.CRYP_AlgoDir  = CRYP_AlgoDir_Encrypt;
    119            }
    120            else/* if( Mode == MODE_DECRYPT )*/ /* DES decryption */
    121            {      
    122               DES_CRYP_InitStructure.CRYP_AlgoDir  = CRYP_AlgoDir_Decrypt;
    123            }
    124          
    125            DES_CRYP_InitStructure.CRYP_AlgoMode = CRYP_AlgoMode_DES_ECB;
    126            DES_CRYP_InitStructure.CRYP_DataType = CRYP_DataType_8b;
    127            CRYP_Init(&DES_CRYP_InitStructure);
    128          
    129            /* Key Initialisation */
    130            DES_CRYP_KeyInitStructure.CRYP_Key1Left = __REV(*(uint32_t*)(keyaddr));
    131            keyaddr+=4;
    132            DES_CRYP_KeyInitStructure.CRYP_Key1Right= __REV(*(uint32_t*)(keyaddr));
    133            CRYP_KeyInit(& DES_CRYP_KeyInitStructure);
    134          
    135            /* Flush IN/OUT FIFO */
    136            CRYP_FIFOFlush();
    137          
    138            /* Enable Crypto processor */
    139            CRYP_Cmd(ENABLE);
    140          
    141            if(CRYP_GetCmdStatus() == DISABLE)
    142            {
    143              /* The CRYP peripheral clock is not enabled or the device doesn't embed 
    144              the CRYP peripheral (please check the device sales type. */
    145              status = ERROR;
    146            }
    147            else
    148            {
    149              for(i=0; ((i<Ilength) && (status != ERROR)); i+=8)
    150              {
    151                
    152                /* Write the Input block in the Input FIFO */
    153                CRYP_DataIn(*(uint32_t*)(inputaddr));
    154                inputaddr+=4;
    155                CRYP_DataIn(*(uint32_t*)(inputaddr));
    156                inputaddr+=4;
    157                
    158                /* Wait until the complete message has been processed */
    159                counter = 0;
    160                do
    161                {
    162                  busystatus = CRYP_GetFlagStatus(CRYP_FLAG_BUSY);
    163                  counter++;
    164                }while ((counter != DESBUSY_TIMEOUT) && (busystatus != RESET));
    165                
    166                if (busystatus != RESET)
    167                {
    168                  status = ERROR;
    169                }
    170                else
    171                {
    172                  
    173                  /* Read the Output block from the Output FIFO */
    174                  *(uint32_t*)(outputaddr) = CRYP_DataOut();
    175                  outputaddr+=4;
    176                  *(uint32_t*)(outputaddr) = CRYP_DataOut();
    177                  outputaddr+=4;
    178                }
    179              }
    180              
    181              /* Disable Crypto */
    182              CRYP_Cmd(DISABLE);
    183            }
    184            return status; 
    185          }
    186          
    187          /**
    188            * @brief  Encrypt and decrypt using DES in CBC Mode
    189            * @param  Mode: encryption or decryption Mode.
    190            *          This parameter can be one of the following values:
    191            *            @arg MODE_ENCRYPT: Encryption
    192            *            @arg MODE_DECRYPT: Decryption
    193            * @param  Key: Key used for DES algorithm.
    194            * @param  InitVectors: Initialisation Vectors used for DES algorithm.
    195            * @param  Ilength: length of the Input buffer, must be a multiple of 8.
    196            * @param  Input: pointer to the Input buffer.
    197            * @param  Output: pointer to the returned buffer.
    198            * @retval An ErrorStatus enumeration value:
    199            *          - SUCCESS: Operation done
    200            *          - ERROR: Operation failed
    201            */
    202          ErrorStatus CRYP_DES_CBC(uint8_t Mode, uint8_t Key[8], uint8_t InitVectors[8],
    203                                   uint8_t *Input, uint32_t Ilength, uint8_t *Output)
    204          {
    205            CRYP_InitTypeDef DES_CRYP_InitStructure;
    206            CRYP_KeyInitTypeDef DES_CRYP_KeyInitStructure;
    207            CRYP_IVInitTypeDef DES_CRYP_IVInitStructure;
    208            __IO uint32_t counter = 0;
    209            uint32_t busystatus = 0;
    210            ErrorStatus status = SUCCESS;
    211            uint32_t keyaddr    = (uint32_t)Key;
    212            uint32_t inputaddr  = (uint32_t)Input;
    213            uint32_t outputaddr = (uint32_t)Output;
    214            uint32_t ivaddr     = (uint32_t)InitVectors;
    215            uint32_t i = 0;
    216          
    217            /* Crypto structures initialisation*/
    218            CRYP_KeyStructInit(&DES_CRYP_KeyInitStructure);
    219          
    220            /* Crypto Init for Encryption process */
    221            if(Mode == MODE_ENCRYPT) /* DES encryption */
    222            {
    223               DES_CRYP_InitStructure.CRYP_AlgoDir  = CRYP_AlgoDir_Encrypt;
    224            }
    225            else /*if(Mode == MODE_DECRYPT)*/ /* DES decryption */
    226            {
    227               DES_CRYP_InitStructure.CRYP_AlgoDir  = CRYP_AlgoDir_Decrypt;
    228            }
    229          
    230            DES_CRYP_InitStructure.CRYP_AlgoMode = CRYP_AlgoMode_DES_CBC;
    231            DES_CRYP_InitStructure.CRYP_DataType = CRYP_DataType_8b;
    232            CRYP_Init(&DES_CRYP_InitStructure);
    233          
    234            /* Key Initialisation */
    235            DES_CRYP_KeyInitStructure.CRYP_Key1Left = __REV(*(uint32_t*)(keyaddr));
    236            keyaddr+=4;
    237            DES_CRYP_KeyInitStructure.CRYP_Key1Right= __REV(*(uint32_t*)(keyaddr));
    238            CRYP_KeyInit(& DES_CRYP_KeyInitStructure);
    239          
    240            /* Initialization Vectors */
    241            DES_CRYP_IVInitStructure.CRYP_IV0Left = __REV(*(uint32_t*)(ivaddr));
    242            ivaddr+=4;
    243            DES_CRYP_IVInitStructure.CRYP_IV0Right= __REV(*(uint32_t*)(ivaddr));
    244            CRYP_IVInit(&DES_CRYP_IVInitStructure);
    245          
    246            /* Flush IN/OUT FIFO */
    247            CRYP_FIFOFlush();
    248            
    249            /* Enable Crypto processor */
    250            CRYP_Cmd(ENABLE);
    251          
    252            if(CRYP_GetCmdStatus() == DISABLE)
    253            {
    254              /* The CRYP peripheral clock is not enabled or the device doesn't embed 
    255              the CRYP peripheral (please check the device sales type. */
    256              status = ERROR;
    257            }
    258            else
    259            {
    260              for(i=0; ((i<Ilength) && (status != ERROR)); i+=8)
    261              {
    262                /* Write the Input block in the Input FIFO */
    263                CRYP_DataIn(*(uint32_t*)(inputaddr));
    264                inputaddr+=4;
    265                CRYP_DataIn(*(uint32_t*)(inputaddr));
    266                inputaddr+=4;
    267                
    268                /* Wait until the complete message has been processed */
    269                counter = 0;
    270                do
    271                {
    272                  busystatus = CRYP_GetFlagStatus(CRYP_FLAG_BUSY);
    273                  counter++;
    274                }while ((counter != DESBUSY_TIMEOUT) && (busystatus != RESET));
    275                
    276                if (busystatus != RESET)
    277                {
    278                  status = ERROR;
    279                }
    280                else
    281                {
    282                  /* Read the Output block from the Output FIFO */
    283                  *(uint32_t*)(outputaddr) = CRYP_DataOut();
    284                  outputaddr+=4;
    285                  *(uint32_t*)(outputaddr) = CRYP_DataOut();
    286                  outputaddr+=4;
    287                }
    288              }
    289              
    290              /* Disable Crypto */
    291              CRYP_Cmd(DISABLE);
    292            }
    293            return status; 
    294          }
    295          
    296          /**
    297            * @}
    298            */ 
    299          
    300          /**
    301            * @}
    302            */ 
    303          
    304          /**
    305            * @}
    306            */ 
    307          
    308          /**
    309            * @}
    310            */ 
    311          
    312          /************************ (C) COPYRIGHT STMicroelectronics *****END OF FILE****/

   Maximum stack usage in bytes:

   .cstack Function
   ------- --------
      96   CRYP_DES_CBC
        96   -> CRYP_Cmd
        96   -> CRYP_DataIn
        96   -> CRYP_DataOut
        96   -> CRYP_FIFOFlush
        96   -> CRYP_GetCmdStatus
        96   -> CRYP_GetFlagStatus
        96   -> CRYP_IVInit
        96   -> CRYP_Init
        96   -> CRYP_KeyInit
        96   -> CRYP_KeyStructInit
      80   CRYP_DES_ECB
        80   -> CRYP_Cmd
        80   -> CRYP_DataIn
        80   -> CRYP_DataOut
        80   -> CRYP_FIFOFlush
        80   -> CRYP_GetCmdStatus
        80   -> CRYP_GetFlagStatus
        80   -> CRYP_Init
        80   -> CRYP_KeyInit
        80   -> CRYP_KeyStructInit


   Section sizes:

   Bytes  Function/Label
   -----  --------------
     242  CRYP_DES_CBC
     220  CRYP_DES_ECB

 
 462 bytes in section .text
 
 462 bytes of CODE memory

Errors: none
Warnings: none
