###############################################################################
#
# IAR ANSI C/C++ Compiler V8.30.1.114/W32 for ARM         22/Jul/2020  13:36:47
# Copyright 1999-2018 IAR Systems AB.
#
#    Cpu mode     =  thumb
#    Endian       =  little
#    Source file  =  
#        E:\DESKTOP\@@@\@@@@\Intergrated\SourceCodes\Task_EtherCat.c
#    Command line =  
#        -f C:\Users\wfc0628\AppData\Local\Temp\EWA382.tmp
#        (E:\DESKTOP\@@@\@@@@\Intergrated\SourceCodes\Task_EtherCat.c
#        -D USE_STDPERIPH_DRIVER -D STM32F40_41xxx -D _DLIB_FILE_DESCRIPTOR -lC
#        E:\DESKTOP\@@@\@@@@\Intergrated\Project\IAR\Debug\List
#        -lA
#        E:\DESKTOP\@@@\@@@@\Intergrated\Project\IAR\Debug\List
#        -o E:\DESKTOP\@@@\@@@@\Intergrated\Project\IAR\Debug\Obj
#        --no_cse --no_unroll --no_inline --no_code_motion --no_tbaa
#        --no_clustering --no_scheduling --debug --endian=little
#        --cpu=Cortex-M4 -e --fpu=VFPv4_sp --dlib_config "C:\Program Files
#        (x86)\IAR Systems\Embedded Workbench 8.1\arm\inc\c\DLib_Config_Full.h"
#        -I
#        E:\DESKTOP\@@@\@@@@\Intergrated\Project\IAR\..\..\STM32F4xx_DSP_StdPeriph_Lib_V1.8.0\Libraries\STM32F4xx_StdPeriph_Driver\inc\
#        -I
#        E:\DESKTOP\@@@\@@@@\Intergrated\Project\IAR\..\..\STM32F4xx_DSP_StdPeriph_Lib_V1.8.0\Libraries\CMSIS\Include\
#        -I
#        E:\DESKTOP\@@@\@@@@\Intergrated\Project\IAR\..\..\STM32F4xx_DSP_StdPeriph_Lib_V1.8.0\Libraries\CMSIS\Device\ST\STM32F4xx\Include\
#        -I
#        E:\DESKTOP\@@@\@@@@\Intergrated\Project\IAR\..\..\SourceCodes\
#        -I
#        E:\DESKTOP\@@@\@@@@\Intergrated\Project\IAR\..\..\EtherCatLib\
#        -I E:\DESKTOP\@@@\@@@@\Intergrated\Project\IAR\ -Ol
#        --use_c++_inline)
#    Locale       =  C
#    List file    =  
#        E:\DESKTOP\@@@\@@@@\Intergrated\Project\IAR\Debug\List\Task_EtherCat.lst
#    Object file  =  
#        E:\DESKTOP\@@@\@@@@\Intergrated\Project\IAR\Debug\Obj\Task_EtherCat.o
#
###############################################################################

E:\DESKTOP\@@@\@@@@\Intergrated\SourceCodes\Task_EtherCat.c
      1          /**
      2          \addtogroup MyApplication MyApplication
      3          @{
      4          */
      5          
      6          /**
      7          \file MyApplication.c
      8          \brief Implementation
      9          
     10          \version 1.0.0.11
     11          */
     12          
     13          
     14          /*-----------------------------------------------------------------------------------------
     15          ------
     16          ------    Includes
     17          ------
     18          -----------------------------------------------------------------------------------------*/
     19          /*!< This include part is for ETHERCAT bus . ++ */
     20          #include <string.h>
     21          #include "ecat_def.h"
     22          #include "applInterface.h"
     23          #include "IF_EtherCat.h"
     24          #define _MY_APPLICATION_ 1
     25          #include "Task_Ethercat.h"

   \                                 In section .data, align 4
   \   __absolute TOBJ1600 OutputProcessDataMapping0x1600
   \                     OutputProcessDataMapping0x1600:
   \        0x0   0x0038             DC16 56
   \        0x2   0x00 0x00          DC8 0, 0
   \        0x4   0x7000'0101        DC32 1879048449, 1879048705, 1879048961, 1879049217, 1879049473
   \              0x7000'0201  
   \              0x7000'0301  
   \              0x7000'0401  
   \              0x7000'0501  
   \       0x18   0x7000'0601        DC32 1879049729, 1879049985, 1879050241, 1879050497, 1879050753
   \              0x7000'0701  
   \              0x7000'0801  
   \              0x7000'0901  
   \              0x7000'0A01  
   \       0x2C   0x7000'0B01        DC32 1879051009, 1879051265, 1879051521, 1879051777, 1879052033
   \              0x7000'0C01  
   \              0x7000'0D01  
   \              0x7000'0E01  
   \              0x7000'0F01  
   \       0x40   0x7000'1001        DC32 1879052289, 1879052545, 1879052801, 1879053057, 1879053313
   \              0x7000'1101  
   \              0x7000'1201  
   \              0x7000'1301  
   \              0x7000'1401  
   \       0x54   0x7000'1501        DC32 1879053569, 1879053825, 1879054081, 1879054337, 1879054593
   \              0x7000'1601  
   \              0x7000'1701  
   \              0x7000'1801  
   \              0x7000'1901  
   \       0x68   0x7000'1A01        DC32 1879054849, 1879055105, 1879055361, 1879055617, 1879055873
   \              0x7000'1B01  
   \              0x7000'1C01  
   \              0x7000'1D01  
   \              0x7000'1E01  
   \       0x7C   0x7000'1F01        DC32 1879056129, 1879056385, 1879056641, 1879056897, 1879057153
   \              0x7000'2001  
   \              0x7000'2101  
   \              0x7000'2201  
   \              0x7000'2301  
   \       0x90   0x7000'2401        DC32 1879057409, 1879057665, 1879057921, 1879058177, 1879058433
   \              0x7000'2501  
   \              0x7000'2601  
   \              0x7000'2701  
   \              0x7000'2801  
   \       0xA4   0x7000'2901        DC32 1879058689, 1879058945, 1879059201, 1879059457, 1879059713
   \              0x7000'2A01  
   \              0x7000'2B01  
   \              0x7000'2C01  
   \              0x7000'2D01  
   \       0xB8   0x7000'2E01        DC32 1879059969, 1879060225, 1879060481, 1879060744, 1879061000
   \              0x7000'2F01  
   \              0x7000'3001  
   \              0x7000'3108  
   \              0x7000'3208  
   \       0xCC   0x7000'3308        DC32 1879061256, 1879061512, 1879061776, 1879062032, 1879062288
   \              0x7000'3408  
   \              0x7000'3510  
   \              0x7000'3610  
   \              0x7000'3710  
   \       0xE0   0x7000'3810        DC32 1879062544

   \                                 In section .data, align 4
   \   __absolute TOBJ1A00 InputProcessDataMapping0x1A00
   \                     InputProcessDataMapping0x1A00:
   \        0x0   0x0038             DC16 56
   \        0x2   0x00 0x00          DC8 0, 0
   \        0x4   0x6000'0101        DC32 1610612993, 1610613249, 1610613505, 1610613761, 1610614017
   \              0x6000'0201  
   \              0x6000'0301  
   \              0x6000'0401  
   \              0x6000'0501  
   \       0x18   0x6000'0601        DC32 1610614273, 1610614529, 1610614785, 1610615041, 1610615297
   \              0x6000'0701  
   \              0x6000'0801  
   \              0x6000'0901  
   \              0x6000'0A01  
   \       0x2C   0x6000'0B01        DC32 1610615553, 1610615809, 1610616065, 1610616321, 1610616577
   \              0x6000'0C01  
   \              0x6000'0D01  
   \              0x6000'0E01  
   \              0x6000'0F01  
   \       0x40   0x6000'1001        DC32 1610616833, 1610617089, 1610617345, 1610617601, 1610617857
   \              0x6000'1101  
   \              0x6000'1201  
   \              0x6000'1301  
   \              0x6000'1401  
   \       0x54   0x6000'1501        DC32 1610618113, 1610618369, 1610618625, 1610618881, 1610619137
   \              0x6000'1601  
   \              0x6000'1701  
   \              0x6000'1801  
   \              0x6000'1901  
   \       0x68   0x6000'1A01        DC32 1610619393, 1610619649, 1610619905, 1610620161, 1610620417
   \              0x6000'1B01  
   \              0x6000'1C01  
   \              0x6000'1D01  
   \              0x6000'1E01  
   \       0x7C   0x6000'1F01        DC32 1610620673, 1610620929, 1610621185, 1610621441, 1610621697
   \              0x6000'2001  
   \              0x6000'2101  
   \              0x6000'2201  
   \              0x6000'2301  
   \       0x90   0x6000'2401        DC32 1610621953, 1610622209, 1610622465, 1610622721, 1610622977
   \              0x6000'2501  
   \              0x6000'2601  
   \              0x6000'2701  
   \              0x6000'2801  
   \       0xA4   0x6000'2901        DC32 1610623233, 1610623489, 1610623745, 1610624001, 1610624257
   \              0x6000'2A01  
   \              0x6000'2B01  
   \              0x6000'2C01  
   \              0x6000'2D01  
   \       0xB8   0x6000'2E01        DC32 1610624513, 1610624769, 1610625025, 1610625288, 1610625544
   \              0x6000'2F01  
   \              0x6000'3001  
   \              0x6000'3108  
   \              0x6000'3208  
   \       0xCC   0x6000'3308        DC32 1610625800, 1610626056, 1610626320, 1610626576, 1610626832
   \              0x6000'3408  
   \              0x6000'3510  
   \              0x6000'3610  
   \              0x6000'3710  
   \       0xE0   0x6000'3810        DC32 1610627088

   \                                 In section .data, align 4
   \   __absolute TOBJ1C12 sRxPDOassign
   \                     sRxPDOassign:
   \        0x0   0x0001 0x1600      DC16 1, 5632

   \                                 In section .data, align 4
   \   __absolute TOBJ1C13 sTxPDOassign
   \                     sTxPDOassign:
   \        0x0   0x0001 0x1A00      DC16 1, 6656

   \                                 In section .data, align 4
   \   __absolute TOBJ6000 Input0x6000
   \                     Input0x6000:
   \        0x0   0x0038 0x0000      DC16 56, 0, 0, 0
   \               0x0000 0x000
   \              0            
   \        0x8   0x00 0x00          DC8 0, 0, 0, 0
   \              0x00 0x00    
   \        0xC   0x0000 0x0000      DC16 0, 0, 0, 0
   \               0x0000 0x000
   \              0            

   \                                 In section .data, align 4
   \   __absolute TOBJ7000 Output0x7000
   \                     Output0x7000:
   \        0x0   0x0038 0x0000      DC16 56, 0, 0, 0
   \               0x0000 0x000
   \              0            
   \        0x8   0x00 0x00          DC8 0, 0, 0, 0
   \              0x00 0x00    
   \        0xC   0x0000 0x0000      DC16 0, 0, 0, 0
   \               0x0000 0x000
   \              0            
     26          #undef _MY_APPLICATION_
     27          /*!< This include part is for ETHERCAT bus . -- */
     28          
     29          /*!< This include part is for application . ++ */
     30          #include "interface.h"
     31          /*!< This include part is for application . -- */
     32          
     33          
     34          
     35          
     36          /*--------------------------------------------------------------------------------------
     37          ------
     38          ------    local types and defines
     39          ------
     40          --------------------------------------------------------------------------------------*/
     41          /*!< This define for outputting the datas from ethercat bus by USART module.          */
     42          #define   OUTPUT_TIMES_CNT          1U
     43          /*-----------------------------------------------------------------------------------------
     44          ------
     45          ------    global variables and constants
     46          ------
     47          -----------------------------------------------------------------------------------------*/

   \                                 In section .bss, align 4
     48          global volatile EterhCatBusIODatas_t   gtEterhCatBusIODatas;
   \                     gtEterhCatBusIODatas:
   \        0x0                      DS8 12
     49          
     50          
     51          /*-----------------------------------------------------------------------------------------
     52          ------
     53          ------    local variables and constants
     54          ------
     55          -----------------------------------------------------------------------------------------*/
     56          

   \                                 In section .bss, align 1
     57          local TaskStatus_e  lgStatus  = eTaskStatusReady;
   \                     lgStatus:
   \        0x0                      DS8 1

   \                                 In section .bss, align 1
     58          local uint8_t       lbStep    = 0;
   \                     lbStep:
   \        0x0                      DS8 1

   \                                 In section .bss, align 4
     59          local pFun          lpcbfnESCTask = NULL;
   \                     lpcbfnESCTask:
   \        0x0                      DS8 4

   \                                 In section .bss, align 4
     60          local volatile uint8_t       lbInputBuff[ETHERCAT_IO_BUFFER_SIZE];
   \                     lbInputBuff:
   \        0x0                      DS8 20

   \                                 In section .bss, align 4
     61          local volatile uint8_t       lbOutputBuff[ETHERCAT_IO_BUFFER_SIZE];
   \                     lbOutputBuff:
   \        0x0                      DS8 20
     62          #if DEBUG_LOGGER_EN == 1u
     63          local const char *lpbFileName = "T 002";
     64          #endif
     65          
     66          local bool lyTask_ESC_Init( void );
     67          
     68          local void lvTask_ESC_Monitor( void );
     69          
     70          /*!< This part is added by Sean for application. ++*/

   \                                 In section .text, align 2, keep-with-next
     71          global TaskStatus_e geTask_EthercatStatusRtn( void )
     72          {
     73              return lgStatus;
   \                     geTask_EthercatStatusRtn: (+1)
   \        0x0   0x....             LDR.N    R0,??DataTable10
   \        0x2   0x7800             LDRB     R0,[R0, #+0]
   \        0x4   0x4770             BX       LR               ;; return
     74          }
     75          
     76          
     77          

   \                                 In section .text, align 2, keep-with-next
     78          global void gvTask_EthercatProcess( void )
     79          {
   \                     gvTask_EthercatProcess: (+1)
   \        0x0   0xB580             PUSH     {R7,LR}
     80              if( lpcbfnESCTask )
   \        0x2   0x....             LDR.N    R1,??DataTable10_1
   \        0x4   0x6808             LDR      R0,[R1, #+0]
   \        0x6   0x2800             CMP      R0,#+0
   \        0x8   0xD001             BEQ.N    ??gvTask_EthercatProcess_0
     81              {
     82                  (*lpcbfnESCTask)();
   \        0xA   0x6808             LDR      R0,[R1, #+0]
   \        0xC   0x4780             BLX      R0
     83              }
     84          }
   \                     ??gvTask_EthercatProcess_0: (+1)
   \        0xE   0xBD01             POP      {R0,PC}          ;; return
     85          
     86          
     87          

   \                                 In section .text, align 2, keep-with-next
     88          global void gvTask_EthercatHWInit( void )
     89          {
   \                     gvTask_EthercatHWInit: (+1)
   \        0x0   0xB580             PUSH     {R7,LR}
     90              EterhCatBusIODatas_t *aptEBIOD;
     91          
     92              aptEBIOD = (EterhCatBusIODatas_t*)&gtEterhCatBusIODatas;
   \        0x2   0x....             LDR.N    R0,??DataTable10_2
     93          
     94              aptEBIOD->pbInputBuff  = (uint8_t*)lbInputBuff;
   \        0x4   0x....             LDR.N    R1,??DataTable10_3
   \        0x6   0x6001             STR      R1,[R0, #+0]
     95              aptEBIOD->pbOutputBuff = (uint8_t*)lbOutputBuff;
   \        0x8   0x....             LDR.N    R1,??DataTable10_4
   \        0xA   0x6041             STR      R1,[R0, #+4]
     96              aptEBIOD->yIReady      = FALSE;
   \        0xC   0x2100             MOVS     R1,#+0
   \        0xE   0x7201             STRB     R1,[R0, #+8]
     97              aptEBIOD->yOReady      = FALSE;
   \       0x10   0x2100             MOVS     R1,#+0
   \       0x12   0x7241             STRB     R1,[R0, #+9]
     98              lbStep     = 0;
   \       0x14   0x2000             MOVS     R0,#+0
   \       0x16   0x....             LDR.N    R1,??DataTable10_5
   \       0x18   0x7008             STRB     R0,[R1, #+0]
     99          
    100          	gvIF_SPIEtherCatConfig();
   \       0x1A   0x.... 0x....      BL       gvIF_SPIEtherCatConfig
    101              lgStatus = eTaskStatusOK;
   \       0x1E   0x2002             MOVS     R0,#+2
   \       0x20   0x....             LDR.N    R1,??DataTable10
   \       0x22   0x7008             STRB     R0,[R1, #+0]
    102          }
   \       0x24   0xBD01             POP      {R0,PC}          ;; return
    103          

   \                                 In section .text, align 2, keep-with-next
    104          global void gvTask_EthercatBusInit( void )
    105          {
   \                     gvTask_EthercatBusInit: (+1)
   \        0x0   0xB510             PUSH     {R4,LR}
    106          
    107              switch( lbStep )
   \        0x2   0x....             LDR.N    R4,??DataTable10_5
   \        0x4   0x7820             LDRB     R0,[R4, #+0]
   \        0x6   0x2800             CMP      R0,#+0
   \        0x8   0xD002             BEQ.N    ??gvTask_EthercatBusInit_0
   \        0xA   0x2801             CMP      R0,#+1
   \        0xC   0xD00E             BEQ.N    ??gvTask_EthercatBusInit_1
   \        0xE   0xE011             B.N      ??gvTask_EthercatBusInit_2
    108              {
    109              case 0:
    110                if( lyTask_ESC_Init() )
   \                     ??gvTask_EthercatBusInit_0: (+1)
   \       0x10   0x.... 0x....      BL       lyTask_ESC_Init
   \       0x14   0x2800             CMP      R0,#+0
   \       0x16   0xD005             BEQ.N    ??gvTask_EthercatBusInit_3
    111                {
    112                      lbStep = 1;
   \       0x18   0x2001             MOVS     R0,#+1
   \       0x1A   0x7020             STRB     R0,[R4, #+0]
    113                      lgStatus = eTaskStatusOK;
   \       0x1C   0x2002             MOVS     R0,#+2
   \       0x1E   0x....             LDR.N    R1,??DataTable10
   \       0x20   0x7008             STRB     R0,[R1, #+0]
   \       0x22   0xE002             B.N      ??gvTask_EthercatBusInit_4
    114                }
    115                else
    116                {
    117                     lgStatus = eTaskStatusAysn;
   \                     ??gvTask_EthercatBusInit_3: (+1)
   \       0x24   0x2003             MOVS     R0,#+3
   \       0x26   0x....             LDR.N    R1,??DataTable10
   \       0x28   0x7008             STRB     R0,[R1, #+0]
    118                }
    119                break;
   \                     ??gvTask_EthercatBusInit_4: (+1)
   \       0x2A   0xE005             B.N      ??gvTask_EthercatBusInit_5
    120              case 1:
    121                  lgStatus = eTaskStatusOK;
   \                     ??gvTask_EthercatBusInit_1: (+1)
   \       0x2C   0x2002             MOVS     R0,#+2
   \       0x2E   0x....             LDR.N    R1,??DataTable10
   \       0x30   0x7008             STRB     R0,[R1, #+0]
    122                break;
   \       0x32   0xE001             B.N      ??gvTask_EthercatBusInit_5
    123              default:
    124                  lbStep = 0;
   \                     ??gvTask_EthercatBusInit_2: (+1)
   \       0x34   0x2000             MOVS     R0,#+0
   \       0x36   0x7020             STRB     R0,[R4, #+0]
    125                break;
    126              }
    127          }
   \                     ??gvTask_EthercatBusInit_5: (+1)
   \       0x38   0xBD10             POP      {R4,PC}          ;; return
    128          

   \                                 In section .text, align 2, keep-with-next
    129          global void gvTask_EthercatMainInit( void )
    130          {
   \                     gvTask_EthercatMainInit: (+1)
   \        0x0   0xB580             PUSH     {R7,LR}
    131              MainInit();
   \        0x2   0x.... 0x....      BL       MainInit
    132          #if     DEBUG_IWDG_EN == 1u
    133              gbTaskAllRunFlag++;
   \        0x6   0x....             LDR.N    R0,??DataTable10_6
   \        0x8   0x7801             LDRB     R1,[R0, #+0]
   \        0xA   0x1C49             ADDS     R1,R1,#+1
   \        0xC   0x7001             STRB     R1,[R0, #+0]
    134          #endif  /*!< DEBUG_IWDG_EN == 1u */
    135              lgStatus = eTaskStatusOK;
   \        0xE   0x2002             MOVS     R0,#+2
   \       0x10   0x....             LDR.N    R1,??DataTable10
   \       0x12   0x7008             STRB     R0,[R1, #+0]
    136          }
   \       0x14   0xBD01             POP      {R0,PC}          ;; return
    137          

   \                                 In section .text, align 2, keep-with-next
    138          global void gvTask_EthercatCycleSet( void )
    139          {
    140              lpcbfnESCTask = lvTask_ESC_Monitor;
   \                     gvTask_EthercatCycleSet: (+1)
   \        0x0   0x.... 0x....      ADR.W    R0,lvTask_ESC_Monitor
   \        0x4   0x....             LDR.N    R1,??DataTable10_1
   \        0x6   0x6008             STR      R0,[R1, #+0]
    141              lgStatus = eTaskStatusIdle;
   \        0x8   0x2005             MOVS     R0,#+5
   \        0xA   0x....             LDR.N    R1,??DataTable10
   \        0xC   0x7008             STRB     R0,[R1, #+0]
    142          }
   \        0xE   0x4770             BX       LR               ;; return
    143          
    144          

   \                                 In section .text, align 4, keep-with-next
    145          local void lvTask_ESC_Monitor( void )
    146          {
   \                     lvTask_ESC_Monitor: (+1)
   \        0x0   0xB580             PUSH     {R7,LR}
    147              MainLoop();
   \        0x2   0x.... 0x....      BL       MainLoop
    148              lgStatus = eTaskStatusOK;
   \        0x6   0x2002             MOVS     R0,#+2
   \        0x8   0x....             LDR.N    R1,??DataTable10
   \        0xA   0x7008             STRB     R0,[R1, #+0]
    149          }
   \        0xC   0xBD01             POP      {R0,PC}          ;; return
    150          
    151          

   \                                 In section .text, align 2, keep-with-next
    152          local bool lyTask_ESC_Init( void )
    153          {
   \                     lyTask_ESC_Init: (+1)
   \        0x0   0xB580             PUSH     {R7,LR}
    154              volatile uint32_t   adwInitMask;
    155          
    156              /*!< Note: Before this function was called, SPI module should be initialized first. @Sean  */
    157          	/*!< Initialize ET1100 register 0x0204,check PDI active or not instead check EEPROM_LOADED */
    158              adwInitMask = 0x93U;
   \        0x2   0x2093             MOVS     R0,#+147
   \        0x4   0x9000             STR      R0,[SP, #+0]
    159              HW_EscWriteWord( adwInitMask, ESC_AL_EVENTMASK_OFFSET );
   \        0x6   0x2202             MOVS     R2,#+2
   \        0x8   0xF44F 0x7101      MOV      R1,#+516
   \        0xC   0x4668             MOV      R0,SP
   \        0xE   0x.... 0x....      BL       HW_EscWrite
    160              adwInitMask = 0x00;
   \       0x12   0x2000             MOVS     R0,#+0
   \       0x14   0x9000             STR      R0,[SP, #+0]
    161              HW_EscReadWord(  adwInitMask, ESC_AL_EVENTMASK_OFFSET );
   \       0x16   0x2202             MOVS     R2,#+2
   \       0x18   0xF44F 0x7101      MOV      R1,#+516
   \       0x1C   0x4668             MOV      R0,SP
   \       0x1E   0x.... 0x....      BL       HW_EscRead
    162          
    163              if( adwInitMask == 0x93U )
   \       0x22   0x9800             LDR      R0,[SP, #+0]
   \       0x24   0x2893             CMP      R0,#+147
   \       0x26   0xD101             BNE.N    ??lyTask_ESC_Init_0
    164              {
    165                  return TRUE;
   \       0x28   0x2001             MOVS     R0,#+1
   \       0x2A   0xE000             B.N      ??lyTask_ESC_Init_1
    166              }
    167              else
    168              {
    169                  return FALSE;
   \                     ??lyTask_ESC_Init_0: (+1)
   \       0x2C   0x2000             MOVS     R0,#+0
   \                     ??lyTask_ESC_Init_1: (+1)
   \       0x2E   0xBD02             POP      {R1,PC}          ;; return
    170              }
    171          }
    172          
    173          
    174          /*!< This part is added by Sean for application. --*/
    175          
    176          
    177          
    178          
    179          /*-----------------------------------------------------------------------------------------
    180          ------
    181          ------    application specific functions
    182          ------
    183          -----------------------------------------------------------------------------------------*/
    184          
    185          
    186          
    187          /*-----------------------------------------------------------------------------------------
    188          ------
    189          ------    generic functions
    190          ------
    191          -----------------------------------------------------------------------------------------*/
    192          
    193          /////////////////////////////////////////////////////////////////////////////////////////
    194          /**
    195           \brief    The function is called when an error state was acknowledged by the master
    196          
    197          *////////////////////////////////////////////////////////////////////////////////////////
    198          

   \                                 In section .text, align 2, keep-with-next
    199          void    APPL_AckErrorInd(UINT16 stateTrans)
    200          {
    201          
    202          }
   \                     APPL_AckErrorInd: (+1)
   \        0x0   0x4770             BX       LR               ;; return
    203          
    204          /////////////////////////////////////////////////////////////////////////////////////////
    205          /**
    206           \return    AL Status Code (see ecatslv.h ALSTATUSCODE_....)
    207          
    208           \brief    The function is called in the state transition from INIT to PREOP when
    209                       all general settings were checked to start the mailbox handler. This function
    210                       informs the application about the state transition, the application can refuse
    211                       the state transition when returning an AL Status error code.
    212                      The return code NOERROR_INWORK can be used, if the application cannot confirm
    213                      the state transition immediately, in that case this function will be called cyclically
    214                      until a value unequal NOERROR_INWORK is returned
    215          
    216          *////////////////////////////////////////////////////////////////////////////////////////
    217          

   \                                 In section .text, align 2, keep-with-next
    218          UINT16 APPL_StartMailboxHandler(void)
    219          {
    220              return ALSTATUSCODE_NOERROR;
   \                     APPL_StartMailboxHandler: (+1)
   \        0x0   0x2000             MOVS     R0,#+0
   \        0x2   0x4770             BX       LR               ;; return
    221          }
    222          
    223          /////////////////////////////////////////////////////////////////////////////////////////
    224          /**
    225           \return     0, NOERROR_INWORK
    226          
    227           \brief    The function is called in the state transition from PREEOP to INIT
    228                       to stop the mailbox handler. This functions informs the application
    229                       about the state transition, the application cannot refuse
    230                       the state transition.
    231          
    232          *////////////////////////////////////////////////////////////////////////////////////////
    233          

   \                                 In section .text, align 2, keep-with-next
    234          UINT16 APPL_StopMailboxHandler(void)
    235          {
    236              return ALSTATUSCODE_NOERROR;
   \                     APPL_StopMailboxHandler: (+1)
   \        0x0   0x2000             MOVS     R0,#+0
   \        0x2   0x4770             BX       LR               ;; return
    237          }
    238          
    239          /////////////////////////////////////////////////////////////////////////////////////////
    240          /**
    241           \param    pIntMask    pointer to the AL Event Mask which will be written to the AL event Mask
    242                                  register (0x204) when this function is succeeded. The event mask can be adapted
    243                                  in this function
    244           \return    AL Status Code (see ecatslv.h ALSTATUSCODE_....)
    245          
    246           \brief    The function is called in the state transition from PREOP to SAFEOP when
    247                     all general settings were checked to start the input handler. This function
    248                     informs the application about the state transition, the application can refuse
    249                     the state transition when returning an AL Status error code.
    250                     The return code NOERROR_INWORK can be used, if the application cannot confirm
    251                     the state transition immediately, in that case the application need to be complete
    252                     the transition by calling ECAT_StateChange.
    253          *////////////////////////////////////////////////////////////////////////////////////////
    254          

   \                                 In section .text, align 2, keep-with-next
    255          UINT16 APPL_StartInputHandler(UINT16 *pIntMask)
    256          {
    257              return ALSTATUSCODE_NOERROR;
   \                     APPL_StartInputHandler: (+1)
   \        0x0   0x2000             MOVS     R0,#+0
   \        0x2   0x4770             BX       LR               ;; return
    258          }
    259          
    260          /////////////////////////////////////////////////////////////////////////////////////////
    261          /**
    262           \return     0, NOERROR_INWORK
    263          
    264           \brief    The function is called in the state transition from SAFEOP to PREEOP
    265                       to stop the input handler. This functions informs the application
    266                       about the state transition, the application cannot refuse
    267                       the state transition.
    268          
    269          *////////////////////////////////////////////////////////////////////////////////////////
    270          

   \                                 In section .text, align 2, keep-with-next
    271          UINT16 APPL_StopInputHandler(void)
    272          {
    273              return ALSTATUSCODE_NOERROR;
   \                     APPL_StopInputHandler: (+1)
   \        0x0   0x2000             MOVS     R0,#+0
   \        0x2   0x4770             BX       LR               ;; return
    274          }
    275          
    276          /////////////////////////////////////////////////////////////////////////////////////////
    277          /**
    278           \return    AL Status Code (see ecatslv.h ALSTATUSCODE_....)
    279          
    280           \brief    The function is called in the state transition from SAFEOP to OP when
    281                       all general settings were checked to start the output handler. This function
    282                       informs the application about the state transition, the application can refuse
    283                       the state transition when returning an AL Status error code.
    284                     The return code NOERROR_INWORK can be used, if the application cannot confirm
    285                     the state transition immediately, in that case the application need to be complete
    286                     the transition by calling ECAT_StateChange.
    287          *////////////////////////////////////////////////////////////////////////////////////////
    288          

   \                                 In section .text, align 2, keep-with-next
    289          UINT16 APPL_StartOutputHandler(void)
    290          {
    291              return ALSTATUSCODE_NOERROR;
   \                     APPL_StartOutputHandler: (+1)
   \        0x0   0x2000             MOVS     R0,#+0
   \        0x2   0x4770             BX       LR               ;; return
    292          }
    293          
    294          /////////////////////////////////////////////////////////////////////////////////////////
    295          /**
    296           \return     0, NOERROR_INWORK
    297          
    298           \brief    The function is called in the state transition from OP to SAFEOP
    299                       to stop the output handler. This functions informs the application
    300                       about the state transition, the application cannot refuse
    301                       the state transition.
    302          
    303          *////////////////////////////////////////////////////////////////////////////////////////
    304          

   \                                 In section .text, align 2, keep-with-next
    305          UINT16 APPL_StopOutputHandler(void)
    306          {
    307              return ALSTATUSCODE_NOERROR;
   \                     APPL_StopOutputHandler: (+1)
   \        0x0   0x2000             MOVS     R0,#+0
   \        0x2   0x4770             BX       LR               ;; return
    308          }
    309          
    310          /////////////////////////////////////////////////////////////////////////////////////////
    311          /**
    312          \return     0(ALSTATUSCODE_NOERROR), NOERROR_INWORK
    313          \param      pInputSize  pointer to save the input process data length
    314          \param      pOutputSize  pointer to save the output process data length
    315          
    316          \brief    This function calculates the process data sizes from the actual SM-PDO-Assign
    317                      and PDO mapping
    318          *////////////////////////////////////////////////////////////////////////////////////////

   \                                 In section .text, align 2, keep-with-next
    319          UINT16 APPL_GenerateMapping(UINT16 *pInputSize,UINT16 *pOutputSize)
    320          {
   \                     APPL_GenerateMapping: (+1)
   \        0x0   0xE92D 0x4FF8      PUSH     {R3-R11,LR}
   \        0x4   0x0005             MOVS     R5,R0
   \        0x6   0x000E             MOVS     R6,R1
    321              UINT16 result = ALSTATUSCODE_NOERROR;
   \        0x8   0xF05F 0x0800      MOVS     R8,#+0
    322              UINT16 InputSize = 0;
   \        0xC   0x2700             MOVS     R7,#+0
    323              UINT16 OutputSize = 0;
   \        0xE   0xF05F 0x0900      MOVS     R9,#+0
    324          
    325          #if COE_SUPPORTED
    326              UINT16 PDOAssignEntryCnt = 0;
   \       0x12   0x2000             MOVS     R0,#+0
    327              OBJCONST TOBJECT OBJMEM * pPDO = NULL;
   \       0x14   0x2000             MOVS     R0,#+0
    328              UINT16 PDOSubindex0 = 0;
   \       0x16   0x2000             MOVS     R0,#+0
    329              UINT32 *pPDOEntry = NULL;
   \       0x18   0x2000             MOVS     R0,#+0
    330              UINT16 PDOEntryCnt = 0;
   \       0x1A   0x2000             MOVS     R0,#+0
    331          
    332              /*Scan object 0x1C12 RXPDO assign*/
    333              for(PDOAssignEntryCnt = 0; PDOAssignEntryCnt < sRxPDOassign.u16SubIndex0; PDOAssignEntryCnt++)
   \       0x1C   0xF05F 0x0A00      MOVS     R10,#+0
   \       0x20   0xE018             B.N      ??APPL_GenerateMapping_0
    334              {
    335                  pPDO = OBJ_GetObjectHandle(sRxPDOassign.aEntries[PDOAssignEntryCnt]);
    336                  if(pPDO != NULL)
    337                  {
    338                      PDOSubindex0 = *((UINT16 *)pPDO->pVarPtr);
    339                      for(PDOEntryCnt = 0; PDOEntryCnt < PDOSubindex0; PDOEntryCnt++)
    340                      {
    341                          pPDOEntry = (UINT32 *)((UINT8 *)pPDO->pVarPtr + (OBJ_GetEntryOffset((PDOEntryCnt+1),pPDO)>>3));    //goto PDO entry
   \                     ??APPL_GenerateMapping_1: (+1)
   \       0x22   0x0021             MOVS     R1,R4
   \       0x24   0xF11B 0x0001      ADDS     R0,R11,#+1
   \       0x28   0xB2C0             UXTB     R0,R0            ;; ZeroExt  R0,R0,#+24,#+24
   \       0x2A   0x.... 0x....      BL       OBJ_GetEntryOffset
   \       0x2E   0x69A1             LDR      R1,[R4, #+24]
   \       0x30   0xB280             UXTH     R0,R0            ;; ZeroExt  R0,R0,#+16,#+16
   \       0x32   0x10C0             ASRS     R0,R0,#+3
   \       0x34   0x4408             ADD      R0,R1,R0
    342                          // we increment the expected output size depending on the mapped Entry
    343                          OutputSize += (UINT16) ((*pPDOEntry) & 0xFF);
   \       0x36   0x7800             LDRB     R0,[R0, #+0]
   \       0x38   0xF000 0x00FF      AND      R0,R0,#0xFF
   \       0x3C   0xEB10 0x0909      ADDS     R9,R0,R9
    344                      }
   \       0x40   0xF11B 0x0B01      ADDS     R11,R11,#+1
   \                     ??APPL_GenerateMapping_2: (+1)
   \       0x44   0x4658             MOV      R0,R11
   \       0x46   0xF8BD 0x1000      LDRH     R1,[SP, #+0]
   \       0x4A   0xB280             UXTH     R0,R0            ;; ZeroExt  R0,R0,#+16,#+16
   \       0x4C   0x4288             CMP      R0,R1
   \       0x4E   0xD3E8             BCC.N    ??APPL_GenerateMapping_1
   \       0x50   0xF11A 0x0A01      ADDS     R10,R10,#+1
   \                     ??APPL_GenerateMapping_0: (+1)
   \       0x54   0x....             LDR.N    R0,??DataTable10_7
   \       0x56   0x4651             MOV      R1,R10
   \       0x58   0x8802             LDRH     R2,[R0, #+0]
   \       0x5A   0xB289             UXTH     R1,R1            ;; ZeroExt  R1,R1,#+16,#+16
   \       0x5C   0x4291             CMP      R1,R2
   \       0x5E   0xD214             BCS.N    ??APPL_GenerateMapping_3
   \       0x60   0x4651             MOV      R1,R10
   \       0x62   0xB289             UXTH     R1,R1            ;; ZeroExt  R1,R1,#+16,#+16
   \       0x64   0xEB00 0x0041      ADD      R0,R0,R1, LSL #+1
   \       0x68   0x8840             LDRH     R0,[R0, #+2]
   \       0x6A   0x.... 0x....      BL       OBJ_GetObjectHandle
   \       0x6E   0x0004             MOVS     R4,R0
   \       0x70   0x2C00             CMP      R4,#+0
   \       0x72   0xD006             BEQ.N    ??APPL_GenerateMapping_4
   \       0x74   0x69A0             LDR      R0,[R4, #+24]
   \       0x76   0x8800             LDRH     R0,[R0, #+0]
   \       0x78   0xF8AD 0x0000      STRH     R0,[SP, #+0]
   \       0x7C   0xF05F 0x0B00      MOVS     R11,#+0
   \       0x80   0xE7E0             B.N      ??APPL_GenerateMapping_2
    345                  }
    346                  else
    347                  {
    348                      /*assigned PDO was not found in object dictionary. return invalid mapping*/
    349                      OutputSize = 0;
   \                     ??APPL_GenerateMapping_4: (+1)
   \       0x82   0xF05F 0x0900      MOVS     R9,#+0
    350                      result = ALSTATUSCODE_INVALIDOUTPUTMAPPING;
   \       0x86   0xF05F 0x0825      MOVS     R8,#+37
    351                      break;
    352                  }
    353              }
    354          
    355              OutputSize = (OutputSize + 7) >> 3;
   \                     ??APPL_GenerateMapping_3: (+1)
   \       0x8A   0xFA1F 0xF989      UXTH     R9,R9            ;; ZeroExt  R9,R9,#+16,#+16
   \       0x8E   0xF119 0x0907      ADDS     R9,R9,#+7
   \       0x92   0xEA5F 0x09E9      ASRS     R9,R9,#+3
   \       0x96   0xF8AD 0x9000      STRH     R9,[SP, #+0]
    356          
    357              if(result == 0)
   \       0x9A   0x4640             MOV      R0,R8
   \       0x9C   0xB280             UXTH     R0,R0            ;; ZeroExt  R0,R0,#+16,#+16
   \       0x9E   0x2800             CMP      R0,#+0
   \       0xA0   0xD133             BNE.N    ??APPL_GenerateMapping_5
    358              {
    359                  /*Scan Object 0x1C13 TXPDO assign*/
    360                  for(PDOAssignEntryCnt = 0; PDOAssignEntryCnt < sTxPDOassign.u16SubIndex0; PDOAssignEntryCnt++)
   \       0xA2   0xF05F 0x0900      MOVS     R9,#+0
   \       0xA6   0xE017             B.N      ??APPL_GenerateMapping_6
    361                  {
    362                      pPDO = OBJ_GetObjectHandle(sTxPDOassign.aEntries[PDOAssignEntryCnt]);
    363                      if(pPDO != NULL)
    364                      {
    365                          PDOSubindex0 = *((UINT16 *)pPDO->pVarPtr);
    366                          for(PDOEntryCnt = 0; PDOEntryCnt < PDOSubindex0; PDOEntryCnt++)
    367                          {
    368                              pPDOEntry = (UINT32 *)((UINT8 *)pPDO->pVarPtr + (OBJ_GetEntryOffset((PDOEntryCnt+1),pPDO)>>3));    //goto PDO entry
   \                     ??APPL_GenerateMapping_7: (+1)
   \       0xA8   0x0021             MOVS     R1,R4
   \       0xAA   0xF11B 0x0001      ADDS     R0,R11,#+1
   \       0xAE   0xB2C0             UXTB     R0,R0            ;; ZeroExt  R0,R0,#+24,#+24
   \       0xB0   0x.... 0x....      BL       OBJ_GetEntryOffset
   \       0xB4   0x69A1             LDR      R1,[R4, #+24]
   \       0xB6   0xB280             UXTH     R0,R0            ;; ZeroExt  R0,R0,#+16,#+16
   \       0xB8   0x10C0             ASRS     R0,R0,#+3
   \       0xBA   0x4408             ADD      R0,R1,R0
    369                              // we increment the expected output size depending on the mapped Entry
    370                              InputSize += (UINT16) ((*pPDOEntry) & 0xFF);
   \       0xBC   0x7800             LDRB     R0,[R0, #+0]
   \       0xBE   0xF000 0x00FF      AND      R0,R0,#0xFF
   \       0xC2   0x19C7             ADDS     R7,R0,R7
    371                          }
   \       0xC4   0xF11B 0x0B01      ADDS     R11,R11,#+1
   \                     ??APPL_GenerateMapping_8: (+1)
   \       0xC8   0x4658             MOV      R0,R11
   \       0xCA   0x4651             MOV      R1,R10
   \       0xCC   0xB280             UXTH     R0,R0            ;; ZeroExt  R0,R0,#+16,#+16
   \       0xCE   0xB289             UXTH     R1,R1            ;; ZeroExt  R1,R1,#+16,#+16
   \       0xD0   0x4288             CMP      R0,R1
   \       0xD2   0xD3E9             BCC.N    ??APPL_GenerateMapping_7
   \       0xD4   0xF119 0x0901      ADDS     R9,R9,#+1
   \                     ??APPL_GenerateMapping_6: (+1)
   \       0xD8   0x....             LDR.N    R0,??DataTable10_8
   \       0xDA   0x4649             MOV      R1,R9
   \       0xDC   0x8802             LDRH     R2,[R0, #+0]
   \       0xDE   0xB289             UXTH     R1,R1            ;; ZeroExt  R1,R1,#+16,#+16
   \       0xE0   0x4291             CMP      R1,R2
   \       0xE2   0xD212             BCS.N    ??APPL_GenerateMapping_5
   \       0xE4   0x4649             MOV      R1,R9
   \       0xE6   0xB289             UXTH     R1,R1            ;; ZeroExt  R1,R1,#+16,#+16
   \       0xE8   0xEB00 0x0041      ADD      R0,R0,R1, LSL #+1
   \       0xEC   0x8840             LDRH     R0,[R0, #+2]
   \       0xEE   0x.... 0x....      BL       OBJ_GetObjectHandle
   \       0xF2   0x0004             MOVS     R4,R0
   \       0xF4   0x2C00             CMP      R4,#+0
   \       0xF6   0xD005             BEQ.N    ??APPL_GenerateMapping_9
   \       0xF8   0x69A0             LDR      R0,[R4, #+24]
   \       0xFA   0xF8B0 0xA000      LDRH     R10,[R0, #+0]
   \       0xFE   0xF05F 0x0B00      MOVS     R11,#+0
   \      0x102   0xE7E1             B.N      ??APPL_GenerateMapping_8
    372                      }
    373                      else
    374                      {
    375                          /*assigned PDO was not found in object dictionary. return invalid mapping*/
    376                          InputSize = 0;
   \                     ??APPL_GenerateMapping_9: (+1)
   \      0x104   0x2700             MOVS     R7,#+0
    377                          result = ALSTATUSCODE_INVALIDINPUTMAPPING;
   \      0x106   0xF05F 0x0824      MOVS     R8,#+36
    378                          break;
    379                      }
    380                  }
    381              }
    382              InputSize = (InputSize + 7) >> 3;
   \                     ??APPL_GenerateMapping_5: (+1)
   \      0x10A   0xB2BF             UXTH     R7,R7            ;; ZeroExt  R7,R7,#+16,#+16
   \      0x10C   0x1DFF             ADDS     R7,R7,#+7
   \      0x10E   0x10FF             ASRS     R7,R7,#+3
    383          
    384          #else
    385          #if _WIN32
    386             #pragma message ("Warning: Define 'InputSize' and 'OutputSize'.")
    387          #else
    388              #warning "Define 'InputSize' and 'OutputSize'."
    389          #endif
    390          #endif
    391          
    392              *pInputSize = InputSize;
   \      0x110   0x802F             STRH     R7,[R5, #+0]
    393              *pOutputSize = OutputSize;
   \      0x112   0xF8BD 0x0000      LDRH     R0,[SP, #+0]
   \      0x116   0x8030             STRH     R0,[R6, #+0]
    394              return result;
   \      0x118   0x4640             MOV      R0,R8
   \      0x11A   0xB280             UXTH     R0,R0            ;; ZeroExt  R0,R0,#+16,#+16
   \      0x11C   0xE8BD 0x8FF2      POP      {R1,R4-R11,PC}   ;; return
    395          }
    396          
    397          /////////////////////////////////////////////////////////////////////////////////////////
    398          /**
    399          \param      pData  pointer to input process data
    400          
    401          \brief      This function will copies the inputs from the local memory to the ESC memory
    402                      to the hardware
    403          *////////////////////////////////////////////////////////////////////////////////////////

   \                                 In section .text, align 2, keep-with-next
    404          void APPL_InputMapping(UINT16* pData)
    405          {
   \                     APPL_InputMapping: (+1)
   \        0x0   0xB510             PUSH     {R4,LR}
   \        0x2   0x0004             MOVS     R4,R0
    406          #if _WIN32
    407             #pragma message ("Warning: Implement input (Slave -> Master) mapping")
    408          #else
    409              #warning "Implement input (Slave -> Master) mapping"
                      ^
Warning[Pa183]: #warning directive: "Implement input (Slave -> Master) mapping"
    410          #endif
    411          	uint8_t *apt;
    412          
    413          	apt = (uint8_t*)&Input0x6000;
   \        0x4   0x....             LDR.N    R0,??DataTable10_9
    414          	apt += 2;
   \        0x6   0x1C81             ADDS     R1,R0,#+2
    415          	OBJMEMCPY( pData, apt, sizeof(Input0x6000)-2 );
   \        0x8   0x2212             MOVS     R2,#+18
   \        0xA   0x0020             MOVS     R0,R4
   \        0xC   0x.... 0x....      BL       __aeabi_memcpy
    416          }
   \       0x10   0xBD10             POP      {R4,PC}          ;; return
    417          
    418          /////////////////////////////////////////////////////////////////////////////////////////
    419          /**
    420          \param      pData  pointer to output process data
    421          
    422          \brief    This function will copies the outputs from the ESC memory to the local memory
    423                      to the hardware
    424          *////////////////////////////////////////////////////////////////////////////////////////

   \                                 In section .text, align 2, keep-with-next
    425          void APPL_OutputMapping(UINT16* pData)
    426          {
   \                     APPL_OutputMapping: (+1)
   \        0x0   0xB510             PUSH     {R4,LR}
    427          #if _WIN32
    428             #pragma message ("Warning: Implement output (Master -> Slave) mapping")
    429          #else
    430              #warning "Implement output (Master -> Slave) mapping"
                      ^
Warning[Pa183]: #warning directive: "Implement output (Master -> Slave)
          mapping"
    431          #endif
    432              UINT16 *apBackupData = pData;
    433          
    434              Output0x7000.Output1Word_u.wFirBoolValue = *apBackupData++;
   \        0x2   0x....             LDR.N    R3,??DataTable10_10
   \        0x4   0x8801             LDRH     R1,[R0, #+0]
   \        0x6   0x8059             STRH     R1,[R3, #+2]
   \        0x8   0x1C80             ADDS     R0,R0,#+2
    435              Output0x7000.Output2Word_u.wSecBoolValue = *apBackupData++;
   \        0xA   0x8801             LDRH     R1,[R0, #+0]
   \        0xC   0x8099             STRH     R1,[R3, #+4]
   \        0xE   0x1C80             ADDS     R0,R0,#+2
    436              Output0x7000.Output3Word_u.wThiBoolValue = *apBackupData++;
   \       0x10   0x8801             LDRH     R1,[R0, #+0]
   \       0x12   0x80D9             STRH     R1,[R3, #+6]
   \       0x14   0x1C81             ADDS     R1,R0,#+2
    437              OBJMEMCPY( &Output0x7000.Byte6Output1, apBackupData, 12);
   \       0x16   0x220C             MOVS     R2,#+12
   \       0x18   0xF113 0x0408      ADDS     R4,R3,#+8
   \       0x1C   0x0020             MOVS     R0,R4
   \       0x1E   0x.... 0x....      BL       __aeabi_memcpy
    438          }
   \       0x22   0xBD10             POP      {R4,PC}          ;; return
    439          
    440          /////////////////////////////////////////////////////////////////////////////////////////
    441          /**
    442          \brief    This function will called from the synchronisation ISR
    443                      or from the mainloop if no synchronisation is supported
    444          *////////////////////////////////////////////////////////////////////////////////////////

   \                                 In section .text, align 2, keep-with-next
    445          void cbAPPL_Application(void)
    446          {
   \                     cbAPPL_Application: (+1)
   \        0x0   0xB538             PUSH     {R3-R5,LR}
    447          #if _WIN32
    448             #pragma message ("Warning: Implement the slave application")
    449          #else
    450              #warning "Implement the slave application"
                      ^
Warning[Pa183]: #warning directive: "Implement the slave application"
Warning[Ms014]: some characters could not be correctly encoded in
          "E:\DESKTOP\@@@\@@@@\Intergrated\Project\IAR\Debug\List\Task_EtherCa
          t.s", and have been replaced with '@'. The first such character has
          unicode code point 0x79d1 ("@")
    451          #endif
    452              uint8_t *apt;
    453              EterhCatBusIODatas_t *aptEBIOD;
    454          
    455              aptEBIOD = (EterhCatBusIODatas_t*)&gtEterhCatBusIODatas;
   \        0x2   0x....             LDR.N    R4,??DataTable10_2
    456              /*!< Datas to bus is ready. */
    457          	if( aptEBIOD->yIReady )
   \        0x4   0x7A20             LDRB     R0,[R4, #+8]
   \        0x6   0x2800             CMP      R0,#+0
   \        0x8   0xD008             BEQ.N    ??cbAPPL_Application_0
    458          	{
    459          		aptEBIOD->yIReady = FALSE;
   \        0xA   0x2000             MOVS     R0,#+0
   \        0xC   0x7220             STRB     R0,[R4, #+8]
    460                  apt = (uint8_t*)&Input0x6000;
   \        0xE   0x....             LDR.N    R0,??DataTable10_9
    461                  /*!< The first address of denstination starts from second element "Input1Word_u.wFirstBoolValue"
    462                   *!< , so it need pass the first element which size is 2 bytes.  */
    463                  apt += 2u;
   \       0x10   0x1C85             ADDS     R5,R0,#+2
    464                  OBJMEMCPY( apt, (void const*)aptEBIOD->pbInputBuff, SIZEOF(lbInputBuff) - 2u );
   \       0x12   0x2212             MOVS     R2,#+18
   \       0x14   0x6821             LDR      R1,[R4, #+0]
   \       0x16   0x0028             MOVS     R0,R5
   \       0x18   0x.... 0x....      BL       __aeabi_memcpy
    465          	}
    466          
    467              /*!< Datas from bus is ready. */
    468              /*you can change 50 to any number,decided by your system and requirement*/
    469          
    470              apt = (uint8_t*)&Output0x7000;
   \                     ??cbAPPL_Application_0: (+1)
   \       0x1C   0x....             LDR.N    R0,??DataTable10_10
    471              apt += 2u;
   \       0x1E   0x1C81             ADDS     R1,R0,#+2
    472              OBJMEMCPY( (void*)aptEBIOD->pbOutputBuff, apt, (SIZEOF(Output0x7000) - 2U) );
   \       0x20   0x2212             MOVS     R2,#+18
   \       0x22   0x6865             LDR      R5,[R4, #+4]
   \       0x24   0x0028             MOVS     R0,R5
   \       0x26   0x.... 0x....      BL       __aeabi_memcpy
    473          
    474              aptEBIOD->yOReady = TRUE;
   \       0x2A   0x2001             MOVS     R0,#+1
   \       0x2C   0x7260             STRB     R0,[R4, #+9]
    475          }
   \       0x2E   0xBD31             POP      {R0,R4,R5,PC}    ;; return

   \                                 In section .text, align 4, keep-with-next
   \                     ??DataTable10:
   \        0x0   0x....'....        DC32     lgStatus

   \                                 In section .text, align 4, keep-with-next
   \                     ??DataTable10_1:
   \        0x0   0x....'....        DC32     lpcbfnESCTask

   \                                 In section .text, align 4, keep-with-next
   \                     ??DataTable10_2:
   \        0x0   0x....'....        DC32     gtEterhCatBusIODatas

   \                                 In section .text, align 4, keep-with-next
   \                     ??DataTable10_3:
   \        0x0   0x....'....        DC32     lbInputBuff

   \                                 In section .text, align 4, keep-with-next
   \                     ??DataTable10_4:
   \        0x0   0x....'....        DC32     lbOutputBuff

   \                                 In section .text, align 4, keep-with-next
   \                     ??DataTable10_5:
   \        0x0   0x....'....        DC32     lbStep

   \                                 In section .text, align 4, keep-with-next
   \                     ??DataTable10_6:
   \        0x0   0x....'....        DC32     gbTaskAllRunFlag

   \                                 In section .text, align 4, keep-with-next
   \                     ??DataTable10_7:
   \        0x0   0x....'....        DC32     sRxPDOassign

   \                                 In section .text, align 4, keep-with-next
   \                     ??DataTable10_8:
   \        0x0   0x....'....        DC32     sTxPDOassign

   \                                 In section .text, align 4, keep-with-next
   \                     ??DataTable10_9:
   \        0x0   0x....'....        DC32     Input0x6000

   \                                 In section .text, align 4, keep-with-next
   \                     ??DataTable10_10:
   \        0x0   0x....'....        DC32     Output0x7000
    476          
    477          
    478          #if EXPLICIT_DEVICE_ID
    479          /////////////////////////////////////////////////////////////////////////////////////////
    480          /**
    481           \return    The Explicit Device ID of the EtherCAT slave
    482          
    483           \brief     Calculate the Explicit Device ID
    484          *////////////////////////////////////////////////////////////////////////////////////////
    485          UINT16 APPL_GetDeviceID()
    486          {
    487          #if _WIN32
    488             #pragma message ("Warning: Implement explicit Device ID latching")
    489          #else
    490              #warning "Implement explicit Device ID latching"
    491          #endif
    492              /* Explicit Device 5 is expected by Explicit Device ID conformance tests*/
    493              return 0x5;
    494          }
    495          #endif
    496          
    497          #if USE_DEFAULT_MAIN
    498          /////////////////////////////////////////////////////////////////////////////////////////
    499          /**
    500          
    501           \brief    This is the main function
    502          
    503          *////////////////////////////////////////////////////////////////////////////////////////
    504          #if _PIC24
    505          int main(void)
    506          #else
    507          void main(void)
    508          #endif
    509          {
    510              /* initialize the Hardware and the EtherCAT Slave Controller */
    511          #if FC1100_HW
    512              if(HW_Init())
    513              {
    514                  HW_Release();
    515                  return;
    516              }
    517          #else
    518              HW_Init();
    519          #endif
    520              MainInit();
    521          
    522              bRunApplication = TRUE;
    523              do
    524              {
    525                  MainLoop();
    526          		count_uart_refresh++;
    527          
    528              } while (bRunApplication == TRUE);
    529          
    530              HW_Release();
    531          #if _PIC24
    532              return 0;
    533          #endif
    534          }
    535          #endif //USE_DEFAULT_MAIN
    536          /** @} */
    537          
    538          

   Maximum stack usage in bytes:

   .cstack Function
   ------- --------
       0   APPL_AckErrorInd
      40   APPL_GenerateMapping
        40   -> OBJ_GetEntryOffset
        40   -> OBJ_GetObjectHandle
       8   APPL_InputMapping
         8   -> __aeabi_memcpy
       8   APPL_OutputMapping
         8   -> __aeabi_memcpy
       0   APPL_StartInputHandler
       0   APPL_StartMailboxHandler
       0   APPL_StartOutputHandler
       0   APPL_StopInputHandler
       0   APPL_StopMailboxHandler
       0   APPL_StopOutputHandler
      16   cbAPPL_Application
        16   -> __aeabi_memcpy
       0   geTask_EthercatStatusRtn
       8   gvTask_EthercatBusInit
         8   -> lyTask_ESC_Init
       0   gvTask_EthercatCycleSet
       8   gvTask_EthercatHWInit
         8   -> gvIF_SPIEtherCatConfig
       8   gvTask_EthercatMainInit
         8   -> MainInit
       8   gvTask_EthercatProcess
         8   -- Indirect call
       8   lvTask_ESC_Monitor
         8   -> MainLoop
       8   lyTask_ESC_Init
         8   -> HW_EscRead
         8   -> HW_EscWrite


   Section sizes:

   Bytes  Function/Label
   -----  --------------
       4  ??DataTable10
       4  ??DataTable10_1
       4  ??DataTable10_10
       4  ??DataTable10_2
       4  ??DataTable10_3
       4  ??DataTable10_4
       4  ??DataTable10_5
       4  ??DataTable10_6
       4  ??DataTable10_7
       4  ??DataTable10_8
       4  ??DataTable10_9
       2  APPL_AckErrorInd
     288  APPL_GenerateMapping
      18  APPL_InputMapping
      36  APPL_OutputMapping
       4  APPL_StartInputHandler
       4  APPL_StartMailboxHandler
       4  APPL_StartOutputHandler
       4  APPL_StopInputHandler
       4  APPL_StopMailboxHandler
       4  APPL_StopOutputHandler
      20  Input0x6000
     228  InputProcessDataMapping0x1A00
      20  Output0x7000
     228  OutputProcessDataMapping0x1600
      48  cbAPPL_Application
       6  geTask_EthercatStatusRtn
      12  gtEterhCatBusIODatas
      58  gvTask_EthercatBusInit
      16  gvTask_EthercatCycleSet
      38  gvTask_EthercatHWInit
      22  gvTask_EthercatMainInit
      16  gvTask_EthercatProcess
      20  lbInputBuff
      20  lbOutputBuff
       1  lbStep
       1  lgStatus
       4  lpcbfnESCTask
      14  lvTask_ESC_Monitor
      48  lyTask_ESC_Init
       4  sRxPDOassign
       4  sTxPDOassign

 
  58 bytes in section .bss
 504 bytes in section .data
 678 bytes in section .text
 
 678 bytes of CODE memory
 562 bytes of DATA memory

Errors: none
Warnings: 4
