###############################################################################
#
# IAR ANSI C/C++ Compiler V8.30.1.114/W32 for ARM         24/Dec/2020  17:55:28
# Copyright 1999-2018 IAR Systems AB.
#
#    Cpu mode     =  thumb
#    Endian       =  little
#    Source file  =  E:\USART_DEMO\stm32-f4-8m-demo\SourceCodes\Task_Axis.c
#    Command line =  
#        -f C:\Users\wfc0628\AppData\Local\Temp\EW788A.tmp
#        (E:\USART_DEMO\stm32-f4-8m-demo\SourceCodes\Task_Axis.c -D
#        STM32F40_41xxx -D USE_STDPERIPH_DRIVER -lcN
#        E:\USART_DEMO\stm32-f4-8m-demo\Project\IAR\Debug\List --diag_suppress
#        pa182 -o E:\USART_DEMO\stm32-f4-8m-demo\Project\IAR\Debug\Obj --no_cse
#        --no_unroll --no_inline --no_code_motion --no_tbaa --no_clustering
#        --no_scheduling --debug --endian=little --cpu=Cortex-M4 -e
#        --fpu=VFPv4_sp --dlib_config "C:\Program Files (x86)\IAR
#        Systems\Embedded Workbench 8.1\arm\inc\c\DLib_Config_Full.h" -I
#        E:\USART_DEMO\stm32-f4-8m-demo\Project\IAR\ -I
#        E:\USART_DEMO\stm32-f4-8m-demo\Project\IAR\..\..\DBUSART_Source\ -I
#        E:\USART_DEMO\stm32-f4-8m-demo\Project\IAR\..\..\STM32F4xx_DSP_StdPeriph_Lib_V1.8.0\Libraries\CMSIS\Include\
#        -I
#        E:\USART_DEMO\stm32-f4-8m-demo\Project\IAR\..\..\STM32F4xx_DSP_StdPeriph_Lib_V1.8.0\Libraries\CMSIS\Device\ST\STM32F4xx\Include\
#        -I
#        E:\USART_DEMO\stm32-f4-8m-demo\Project\IAR\..\..\STM32F4xx_DSP_StdPeriph_Lib_V1.8.0\Libraries\STM32F4xx_StdPeriph_Driver\inc\
#        -I E:\USART_DEMO\stm32-f4-8m-demo\Project\IAR\..\..\SourceCodes\ -Ol
#        --use_c++_inline)
#    Locale       =  C
#    List file    =  
#        E:\USART_DEMO\stm32-f4-8m-demo\Project\IAR\Debug\List\Task_Axis.lst
#    Object file  =  
#        E:\USART_DEMO\stm32-f4-8m-demo\Project\IAR\Debug\Obj\Task_Axis.o
#
###############################################################################

E:\USART_DEMO\stm32-f4-8m-demo\SourceCodes\Task_Axis.c
      1          /*=====================================================================
      2           * File name     :  Task_Axis.c
      3           * Description   :  Communication task for Axis module.
      4           * Author        :  Fu
      5           * Date          :  2019-5-7
      6           * History       :  Date:           Author:      
      7                              Modification:
      8           * More          :首先检测采用的算法；
      9                            其次检测安装方式；
     10                            然后检测陀螺仪的自动校正是否开启；
     11                            最后校正一下参数，10s待数据稳定后开启
     12           *=====================================================================
     13           */
     14          
     15          #include "Task_Axis.h"
     16          #include "IF_DS1302.h"
     17          #include "IF_Timer.h"
     18          
     19          #include "DEBUG.h"
     20          #include "IOI2C.h"
     21          #include "REG.h"
     22          
     23          #include <string.h>
     24          #include <stdlib.h>
     25          #include <math.h>
     26          
     27          local uint8_t lbCountErr;
     28          local uint8_t lbAngelCount;
     29          
     30          local float lfPreAngel;
     31          local float lfAngel[5]={0.0,0.0,0.0,0.0,0.0};
     32          
     33          local TaskStatus_e lgStatus;
     34          
     35          local pFun lpfRegularTask = NULL;
     36          
     37          #if DEBUG_AXIS_WT101 == 0 
     38          local uint8_t lbTempNum;
     39          local uint8_t lbAxisInitStep = 0;
     40          local uint8_t lbAxisIICStep = 0;
     41          
     42          local bool lyTask_AxisInit( void );
     43          local bool lyTask_AxisIICGetInit( void );
     44          
     45          local void lvTask_AxisParaSet( void );
     46          local void lvTask_AxisInitStepNext( void );
     47          #endif
     48          
     49          local void lvTask_AxisIICGet( void );
     50          /*!< Function implementation.    				*/
     51          global TaskStatus_e geTask_AxisStatusRtn( void )
     52          {
     53          	return lgStatus;
     54          }
     55          
     56          /*!< Function implementation.    				*/
     57          global void gvTask_Axis( void )
     58          {
     59          	if( lpfRegularTask )
     60          	{
     61          		(*lpfRegularTask)();
     62          	}
     63          }
     64          
     65          /*!< 初始化清空缓存区数据 ok   				*/
     66          global void gvTask_AxisInit( void )
     67          {
     68          	
     69          #if DEBUG_AXIS_WT101 == 0   
     70          	lbCountErr = 0; 
     71              lbTempNum = 0;
     72          #endif    
     73              lbAngelCount = 0;
     74              lfPreAngel = 0.0;
     75          
     76              gvIF_RTC_Init();
     77          	lgStatus = eTaskStatusOK;
     78          }
     79          
     80          /*!< 任务设定，数据监测 ok   				*/
     81          global void gvTask_AxisSet( void )
     82          { 
     83          #if DEBUG_AXIS_WT101 == 0  
     84              lpfRegularTask = lvTask_AxisParaSet;
     85          	lgStatus = eTaskStatusEnd; 
     86          #else
     87              lpfRegularTask = lvTask_AxisIICGet;
     88          	lgStatus = eTaskStatusIdle; 
     89          #endif
     90          }
     91          
     92          #if DEBUG_AXIS_WT101 == 0 
     93          /*!<   IIC通讯，快速获取9轴数据  			*/
     94          local void lvTask_AxisParaSet( void )
     95          {
     96            //加校准，需要给30s的缓冲时间，来稳定九轴数据
     97             switch(lbAxisInitStep)
     98              {
     99                  case 0:
    100                    if(lyTask_AxisInit())
    101                    {
    102                      lbAxisInitStep = 1;    //<*---初始化成功则跳转---*
    103                      lgStatus = eTaskStatusProcess;
    104                      lpfRegularTask = lvTask_AxisParaSet;
    105                    }
    106                    else
    107                    {
    108                      lbAxisInitStep = 0;    
    109                      lgStatus = eTaskStatusProcess;
    110                      lpfRegularTask = lvTask_AxisParaSet;
    111                    }
    112                    break;
    113                    
    114                  case 1:          
    115                    if(lyTask_AxisIICGetInit())
    116                    {
    117                      lgStatus = eTaskStatusIdle;
    118                      lpfRegularTask = lvTask_AxisIICGet;
    119                      
    120                    }
    121                    else
    122                    {
    123                      lgStatus = eTaskStatusProcess;
    124                      lpfRegularTask = lvTask_AxisParaSet;
    125                      
    126                    }
    127                    break;
    128                    default:
    129                      break;
    130              }
    131          
    132          }
    133          
    134          local bool lyTask_AxisInit()
    135          {  
    136            uint8_t absetTemp[14] = {0x00,0x00, 0x01,0x00, 0x00,0x00, 0x88,0xB5, 0x01,0x00, 0x00,0x00};
    137            uint8_t abReadTemp[2] = {0xff,0xff};
    138            uint16_t awReadTemp;
    139          
    140            //lbAxisIICStep = 6;
    141            
    142            switch(lbAxisIICStep)//0x50 从机地址  CALSW 校准指令地址
    143              {
    144                case 0:
    145                  IICreadBytes(0x50, 0x23, 2, &abReadTemp[0]);
    146                  awReadTemp = CharToShort(&abReadTemp[0]);
    147                  if(awReadTemp == 0x0000)//水平安装 0  垂直安装 1
    148                  {
    149                      lvTask_AxisInitStepNext();
    150                  }
    151                  else
    152                  {
    153                      lbAxisIICStep = 0;
    154                      IICwriteBytes(0x50,0x23,2,&absetTemp[0]);
    155                  }
    156                  
    157                  break;
    158                  
    159                case 1:
    160                  IICreadBytes(0x50, 0x24, 2, &abReadTemp[0]);
    161                  awReadTemp = CharToShort(&abReadTemp[0]);
    162                  if(awReadTemp == 0x0001)//九轴算法 0  六轴算法 1
    163                  {
    164                      lvTask_AxisInitStepNext();
    165                  }
    166                  else
    167                  {
    168                      lbAxisIICStep = 1;
    169                      IICwriteBytes(0x50,0x24,2,&absetTemp[2]);
    170                  }
    171                  break;
    172                
    173                case 2:
    174                  /**********************
    175                  陀螺仪校准是校准角速度，传感器默认是有进行校准的。
    176                  只有当模块是匀速旋转的情况下，可以把陀螺仪自动校准去掉
    177                  ***********************/
    178                  IICreadBytes(0x50, 0x63, 2, &abReadTemp[0]);
    179                  awReadTemp = CharToShort(&abReadTemp[0]);
    180                  if(awReadTemp == 0x0000)//陀螺仪 自动校正 0  去除校正 1
    181                  {
    182                      lvTask_AxisInitStepNext();
    183                  }
    184                  else
    185                  {
    186                      lbAxisIICStep = 2;
    187                      IICwriteBytes(0x50,0x63,2,&absetTemp[4]);
    188                  }
    189                  
    190                  break;
    191                  
    192                case 3:
    193                  if(gyIF_TimerEventQuery(eMotorStatusChk) == FALSE)
    194                  {
    195                      if(IICwriteBytes(0x50,0x69,2,&absetTemp[6]))
    196                      {
    197                          gyIF_TimerEventSet( eMotorStatusChk, ITIMER0_TIME_200MS, lvTask_AxisInitStepNext, ENABLE );
    198                      }
    199                      else
    200                      {
    201                          lbAxisIICStep = 3;
    202                          gvIF_TimerEventStop( eMotorStatusChk );
    203                      }
    204                  }
    205          
    206                  break;
    207                  
    208                case 4:
    209                  if(gyIF_TimerEventQuery(eMotorStatusChk) == FALSE)
    210                  {
    211                      if(IICwriteBytes(0x50,0x01,2,&absetTemp[8]))
    212                      {
    213                          gyIF_TimerEventSet( eMotorStatusChk, ITIMER0_TIME_200MS, lvTask_AxisInitStepNext, ENABLE );
    214                      }
    215                      else
    216                      {
    217                          lbAxisIICStep = 4;
    218                          gvIF_TimerEventStop( eMotorStatusChk );
    219                      }
    220                  }
    221                  
    222                  break;
    223                  
    224                case 5://保存当前配置，成功后进入下一步
    225                  if(gyIF_TimerEventQuery(eMotorStatusChk) == FALSE)
    226                  {
    227                      if(IICwriteBytes(0x50,0x00,2,&absetTemp[10]))
    228                      {
    229                          gyIF_TimerEventSet( eMotorStatusChk, ITIMER0_TIME_10S, lvTask_AxisInitStepNext, ENABLE );
    230                      }
    231                      else
    232                      {
    233                          lbAxisIICStep = 5;
    234                          gvIF_TimerEventStop( eMotorStatusChk );
    235                      }
    236                  }
    237                  break;
    238                
    239                case 6:
    240                  gvIF_TimerEventStop( eMotorStatusChk );
    241                  return TRUE;
    242                  break;
    243                  
    244                default:  
    245                  break;
    246              }
    247              
    248              return FALSE;
    249            
    250          }
    251          
    252          local void lvTask_AxisInitStepNext( void )
    253          {
    254            gvIF_TimerEventStop( eMotorStatusChk );
    255            if(lbAxisIICStep >= 6)lbAxisIICStep = 0;
    256            else lbAxisIICStep++;
    257            
    258          }
    259          
    260          //#KEIL指令 KEIL5更改为Onum
    261          //#pragma O1
    262          //#IAR指令
    263          #pragma optimize=low
    264          
    265          local bool lyTask_AxisIICGetInit( void )
    266          {
    267              uint8_t i;
    268              uint8_t chrTemp[8];
    269              float afTemp;
    270              float afAveTemp;
    271              float afSumTemp;
    272              
    273              afTemp = 0.0;
    274              afAveTemp = 0.0;
    275              afSumTemp = 0.0;
    276              
    277              IICreadBytes(0x50, Roll, 8, &chrTemp[0]);
    278              
    279          #if DEBUG_AXIS_CHOOSE == 1u
    280              afTemp = (float)CharToShort(&chrTemp[0])/32768*180;
    281              
    282          #elif DEBUG_AXIS_CHOOSE == 0u
    283              afTemp = (float)CharToShort(&chrTemp[2])/32768*180;
    284          
    285          #elif DEBUG_AXIS_CHOOSE == 2u
    286              afTemp = (float)CharToShort(&chrTemp[4])/32768*180;
    287          
    288          #endif   
    289              
    290              lfAngel[lbAngelCount] = afTemp;
    291              lbAngelCount++;
    292              lbTempNum ++;
    293              
    294              if(lbAngelCount >= 5)
    295              {
    296                lbAngelCount = 0;
    297                for(i=0;i<5;i++)
    298                {
    299                  afSumTemp = afSumTemp + lfAngel[i];
    300                }
    301                
    302                afAveTemp = afSumTemp/5; //获取平均值
    303                
    304                for(i=0;i<5;i++)
    305                {
    306                  if(fabs(afAveTemp - lfAngel[i]) > 0.2)//去除误差值
    307                  {
    308                      break;
    309                  }
    310                }
    311                
    312                if(i >= 5)
    313                {
    314                  if(fabs(lfPreAngel - afAveTemp) < 0.2) 
    315                  {
    316                    gtTaskMemGlbVar.tfAngel = afAveTemp;
    317                  }
    318                  
    319                  lfPreAngel = afAveTemp;
    320                }
    321                 
    322                return TRUE;
    323              }
    324              else
    325              {
    326                  if(lbTempNum >= 10)
    327                  {
    328                    lbTempNum = 0;
    329                    //gtTaskDMParaSendVar.tbTemp[0] = (uint16_t)(CharToShort(&chrTemp[6]));
    330                    //gtTaskDMParaSendVar.tbTemp[1] = ((uint16_t)(CharToShort(&chrTemp[6]))>>8);
    331                  }
    332                  return FALSE;
    333              }
    334           
    335          }
    336          #endif
    337          
    338          //#KEIL指令 KEIL5更改为Onum
    339          //#pragma O1
    340          //#IAR指令
    341          #pragma optimize=low
    342          
    343          local void lvTask_AxisIICGet( void )
    344          {
    345          
    346              uint8_t i;
    347              uint8_t chrTemp[8];
    348              
    349              float afTemp;
    350              float afAveTemp;
    351              float afSumTemp;
    352              
    353              afTemp = 0.0;
    354              afAveTemp = 0.0;
    355              afSumTemp = 0.0;
    356                
    357              IICreadBytes(0x50, Roll, 8, &chrTemp[0]);
    358              if((chrTemp[0] == 0xff)&&(chrTemp[2] == 0xff)&&(chrTemp[4] == 0xff)&&(chrTemp[6] == 0xff))
    359              {
    360                  lbCountErr++;
    361                  if(lbCountErr == 100)
    362                  {
    363                    gtTaskDMParaSendVar.tbErr = (gtTaskDMParaSendVar.tbErr|0x02);
    364                  }
    365              }
    366              else
    367              {
    368                lbCountErr = 0;
    369              }
    370              
    371          #if DEBUG_AXIS_CHOOSE == 1u
    372              afTemp = (float)CharToShort(&chrTemp[0])/32768*180;
    373              //gtTaskMemGlbVar.tf_Angel = (float)CharToShort(&chrTemp[0])/32768*180;
    374              
    375          #elif DEBUG_AXIS_CHOOSE == 0u
    376              afTemp = (float)CharToShort(&chrTemp[2])/32768*180;
    377              //gtTaskMemGlbVar.tf_Angel = (float)CharToShort(&chrTemp[2])/32768*180;
    378          
    379          #elif DEBUG_AXIS_CHOOSE == 2u
    380              afTemp = (float)CharToShort(&chrTemp[4])/32768*180;
    381              //gtTaskMemGlbVar.tf_Angel = (float)CharToShort(&chrTemp[4])/32768*180;
    382          
    383          #endif    
    384              lfAngel[lbAngelCount] = afTemp;
    385              lbAngelCount++;
    386              
    387              if(lbAngelCount >= 5)
    388              {
    389                lbAngelCount = 0;
    390                for(i=0;i<5;i++)
    391                {
    392                  afSumTemp = afSumTemp + lfAngel[i];
    393                }
    394                
    395                afAveTemp = afSumTemp/5; //获取平均值
    396                
    397                for(i=0;i<5;i++)
    398                {
    399                  if(fabs(afAveTemp - lfAngel[i]) > 0.2)//去除误差值
    400                  {
    401                      break;
    402                  }
    403                }
    404                
    405                if(i >= 5)
    406                {
    407                  if(fabs(lfPreAngel - afAveTemp) < 0.2) 
    408                  {
    409                    gtTaskMemGlbVar.tfAngel = afAveTemp;
    410                  }
    411                  
    412                  lfPreAngel = afAveTemp;
    413                }
    414                 
    415                lgStatus = eTaskStatusIdle;
    416              }
    417              else
    418              {
    419                  //gtTaskDMParaSendVar.tbTemp[0] = (uint16_t)(CharToShort(&chrTemp[6]));
    420                  //gtTaskDMParaSendVar.tbTemp[1] = ((uint16_t)(CharToShort(&chrTemp[6]))>>8);
    421                  
    422                  lgStatus = eTaskStatusProcess;
    423              }
    424          
    425              lpfRegularTask = lvTask_AxisIICGet;
    426           
    427          }

   Maximum stack usage in bytes:

   .cstack Function
   ------- --------
       0   geTask_AxisStatusRtn
       8   gvTask_Axis
         8   -- Indirect call
       8   gvTask_AxisInit
         8   -> gvIF_RTC_Init
       0   gvTask_AxisSet
      32   lvTask_AxisIICGet
        32   -> CharToShort
        32   -> IICreadBytes
        32   -> __aeabi_f2d
        32 __aeabi_cdcmple
        32 __aeabi_cdrcmple
       8   lvTask_AxisInitStepNext
         8   -> gvIF_TimerEventStop
       8   lvTask_AxisParaSet
         8   -> lyTask_AxisIICGetInit
         8   -> lyTask_AxisInit
      32   lyTask_AxisIICGetInit
        32   -> CharToShort
        32   -> IICreadBytes
        32   -> __aeabi_f2d
        32 __aeabi_cdcmple
        32 __aeabi_cdrcmple
      32   lyTask_AxisInit
        32   -> CharToShort
        32   -> IICreadBytes
        32   -> IICwriteBytes
        32   -> __aeabi_memcpy4
        32   -> gvIF_TimerEventStop
        32   -> gyIF_TimerEventQuery
        32   -> gyIF_TimerEventSet
        32   -> lvTask_AxisInitStepNext


   Section sizes:

   Bytes  Function/Label
   -----  --------------
       4  ??DataTable7
       4  ??DataTable8
       4  ??DataTable8_1
       4  ??DataTable8_10
       4  ??DataTable8_11
       4  ??DataTable8_12
       4  ??DataTable8_13
       4  ??DataTable8_14
       4  ??DataTable8_15
       4  ??DataTable8_16
       4  ??DataTable8_17
       4  ??DataTable8_18
       4  ??DataTable8_19
       4  ??DataTable8_2
       4  ??DataTable8_20
       4  ??DataTable8_3
       4  ??DataTable8_4
       4  ??DataTable8_5
       4  ??DataTable8_6
       4  ??DataTable8_7
       4  ??DataTable8_8
       4  ??DataTable8_9
      16  ?_0
       2  ?_1
       8  geTask_AxisStatusRtn
      18  gvTask_Axis
      48  gvTask_AxisInit
      20  gvTask_AxisSet
       1  lbAngelCount
       1  lbAxisIICStep
       1  lbAxisInitStep
       1  lbCountErr
       1  lbTempNum
      20  lfAngel
       4  lfPreAngel
       1  lgStatus
       4  lpfRegularTask
     320  lvTask_AxisIICGet
      30  lvTask_AxisInitStepNext
     124  lvTask_AxisParaSet
     262  lyTask_AxisIICGetInit
     390  lyTask_AxisInit

 
    34 bytes in section .bss
    18 bytes in section .rodata
 1 308 bytes in section .text
 
 1 308 bytes of CODE  memory
    18 bytes of CONST memory
    34 bytes of DATA  memory

Errors: none
Warnings: none
